:020000040800F2
:10600000C00A0020858E0008F7010308F701030885
:10601000C11E0308F7010308F7010308F70103088D
:10602000F7010308F7010308F7010308616200089C
:10603000F70103087CE30308F16100084721030826
:10604000918D0008F7010308F7010308F701030821
:10605000F7010308F7010308F7010308F701030834
:10606000F70103082140010867400308F70103080E
:10607000F70103088D3F010863400308F701030897
:10608000F7010308AD800008F7010308F7010308D2
:10609000F7010308B5950008F7010308F7010308A5
:1060A000F7010308B596000891960008C17E000824
:1060B000F17E0008EDDB020871E60208A3CD0308BB
:1060C0009FCD030819DE0208AFCD0308A7CD030852
:1060D00049E60208ABCD0308B1E602081DE7020855
:1060E000F7010308F7010308F7010308F7010308A4
:1060F000E7180308F7010308F7010308F70103088D
:10610000F7010308F7010308F7010308F701030883
:10611000F7010308F7010308F7010308F701030873
:10612000F7010308F7010308F7010308F701030863
:10613000F7010308F7010308F7010308F701030853
:10614000F7010308D9CF0008F7010308CF1F0308A0
:10615000E5C40208F701030803CA030809CA0308D3
:10616000F7010308F7010308F7010308F701030823
:10617000013800D0FCE7704700000000000000007C
:106180000B4A1168086806C881F30B88022181F365
:106190001488203080F30988BFF36F8F4FF0000020
:1061A00080F31188104700BFAFF30080AFF3008089
:1061B0009C550020000000000000000000000000CE
:1061C00007480068006880F3088862B661B6BFF3CC
:1061D0004F8FBFF36F8F02DF00BF00BFAFF30080B0
:1061E00008ED00E0000000000000000000000000DA
:1061F000EFF309801EF0100F08BF20ED108AEFF3B7
:106200000B82734620E9FC0F114A116808604FF0B9
:10621000300080F31188BFF34F8FBFF36F8F0CF006
:1062200019F94FF0000080F31188094A11680868D5
:10623000B0E8FC0F13F0100F08BFB0EC108A82F327
:106240000B8880F309881847AFF30080AFF3008014
:106250009C5500200000000000000000000000002D
:106260001EF0040F0CBFEFF30880EFF30980044920
:10627000084700BFAFF30080AFF30080AFF30080AA
:1062800021220308000000002DE9F047002501212C
:10629000022029F01FFF01210A2029F01BFF012104
:1062A000082029F017FF0121092029F013FF2C49AC
:1062B0002C4829F08BFD0A2029F0C1FE2A492948E3
:1062C00029F084FD2F46DFF8C0A0264C1AF8019B68
:1062D000484629F0BAFE0EF013FA1FA3D3E90023B3
:1062E0000EF078FA214B00220EF074FA0EF042FD07
:1062F0008046484629F0E3FE06461D49204629F01F
:1063000054FD0A224946204629F0B1FD194920468C
:1063100029F04BFD184B19492046012E18BF19468C
:1063200029F043FD40460EF0FDF941EC100B02212F
:10633000204629F0AAFD06B901370135042DC5D143
:10634000002F0BBF012400240D490E49054829F0F8
:106350003DFD2046BDE8F0876666666666660A40D3
:1063600057D80308C819002082D803080000303F1E
:106370009CD8030854DA03084CD8030840D8030813
:10638000A4D80308ABD80308C1DF0308000000004D
:10639000D0B52D492DED028B2C4829F017FD012198
:1063A000652002F0A5FA0A2029F049FE0A249FED93
:1063B000288A662002F076FA07EE900AF8EEE77A6D
:1063C000052038EE278A29F03AFE013CF1D121461A
:1063D000652002F08DFAB2EE047AC8EE077A9FEDDE
:1063E0001D7A67EE877A37EEA78A1B49174829F08E
:1063F000DCFC18EE100A0EF095F906460F4613481D
:10640000032147EC106B29F03EFD14490F4829F099
:10641000DDFC0BA3D3E90023304639460EF04CFCDB
:1064200038B10F49094829F0D1FC2046BDEC028B58
:10643000D0BD0C49054829F0C9FC0120F6E700BF92
:106440006666666666660A4015DA0308C8190020A3
:10645000000000006740533A2BDA030857DA0308BC
:106460005ADA03088ADA03082DE9F04FC76997B0B2
:106470008346209E08910C92129355EC104B8DEDA3
:10648000000B7FB910200FF015FE0246CBF81C0060
:1064900020B9A74BEF21A74811F036FAC0E90177E0
:1064A0000760C760DBF81C30196859B15A680123CE
:1064B000584693404A608B6010F0BAFCDBF81C3001
:1064C00000221A602B1EB7BF23F0004300230122D5
:1064D0000193A8BF3360019F974BB8BF3260BB43A5
:1064E00019D142F20F73129A1360C7F313032343B7
:1064F00000F0DB85219B53B9904B21E0904B039337
:106500000833219A1360039817B0BDE8F08F8B4BC6
:1065100003930333F5E79DED007B0022002351EC4C
:10652000170B8DED0A7B0EF0BDFB804650B10123A9
:10653000129A1360219B13B1824B219A1360824BF4
:106540000393E0E7C7F30A5614AA15A958469DED30
:106550000A0B10F0F5FE0290002E76D00B9BA6F2EF
:10656000FF36CDF84C80C3F3130343F07F53DDE9CE
:106570000A0143F4401319460022744B0DF072FFD8
:1065800065A3D3E900230EF025F965A3D3E9002321
:106590000DF06AFF04460D4630460EF0B1F862A3D6
:1065A000D3E900230EF016F902460B462046294691
:1065B0000DF05AFF04460D4628F026F90022074642
:1065C0000023204629460EF077FB40B138460EF0F6
:1065D00097F822462B460EF065FB00B9013F162FB7
:1065E00052D85B4B03EBC703DDE90A01D3E9002373
:1065F0000EF062FB002849D0013F00231193149B49
:106600009B1B5A1E4CBFC3F101030023079245BFD9
:106610000693002306930793002F39DB079B1097FF
:106620003B44079300230993089B092B66D8052B4D
:10663000C5BF043B002401240893089B023B032BA5
:1066400067D8DFE803F02D3A3859DDE914631E44BA
:1066500006F23243202BC9BFC3F14003C3F120032C
:106660009F4006F21243D8BF04FA03F006F1FF364A
:10667000C4BF24FA03F347EA03000EF031F8012205
:10668000A1F1F873139276E70123B7E71190B6E70B
:10669000069BDB1B06937B42099300231093C3E701
:1066A00000230D930C9B002B56DC012399461A46C0
:1066B00004930C920CE00123F3E700230D930C9B51
:1066C000FB1803F1010904934B46012BB8BF0123CA
:1066D000DBF81C000021042202F114059D423FD981
:1066E0004160584610F064FB039000283BD1194BE1
:1066F000024640F2AF11CEE60123DFE7012400237A
:106700000D9408934FF0FF3300229946049312230F
:10671000CFE701230D93F5E761436F63A787D23F6E
:10672000B3C8608B288AC63FFB799F501344D33F80
:10673000DEFD0308F5FD03080000F07FDAFD030825
:10674000D1FD0308A6FD0308A5FD03080000F83FDE
:10675000F0FE03084EFE03080C9B99460493B7E72E
:1067600001315200B8E7DBF81C30B9F10E0F039A83
:106770001A606FD8002C6DD0002F36DD07F00F02A5
:10678000A04BF8054FEA271403EBC20393ED007BFF
:106790008DED0E7B17D59C4B04F00F044FF00308D2
:1067A000D3E90823DDE90A010EF03EF9CDE9000145
:1067B000954D5CB9DDE90E23DDE900010EF034F9F9
:1067C000CDE900012BE04FF00208F1E7E10709D520
:1067D00008F10108DDE90E01D5E900230DF0FAFF0B
:1067E000CDE90E0164100835E3E700F007817C4233
:1067F000844B854D4FF0020804F00F02241103EB87
:10680000C203DDE90A01D3E900230DF0E3FF002311
:10681000CDE90001002C40F0E580002BD0D1119B88
:10682000DDE90045002B00F04C810022774B20462B
:1068300029460EF041FA002800F04381B9F1000F1B
:1068400000F03F81049B002B00F3E480DDE90A3473
:10685000CDE90034159B002B02DB0E2F40F3428262
:106860000D9A002A40F06782099C0025DDF8188007
:10687000B8F1000F0DD0079B002B0ADD4345069AA7
:10688000A8BF4346D21AA8EB03080692079AD31A68
:106890000793099B0BB30D9B002B00F0A682002CE5
:1068A00000F0A18229462246584610F0EBFB029ADE
:1068B00001460546584610F03BFB029906465846ED
:1068C00010F0B6FA099B1B1B099300F09182099AFC
:1068D0003146584610F0D6FB02900121584610F080
:1068E00011FB109B0446002B00F084821A460146DF
:1068F000584610F0C7FB089B0446012B03DC009BA5
:10690000002B00F07C820026236904EB83031869C6
:106910002EF0A8F9C0F120001096079B184410F043
:106920001F0000F09182C0F12003042B40F381820C
:10693000C0F11C00069B034480440693079B03445C
:106940000793069B002B05DD1A460299584610F066
:10695000F3FB0290079B002B05DD21461A465846A3
:1069600010F0EAFB0446119B002B00F076822146D2
:1069700002982EF0C6F9002880F26F8200230A22C6
:106980000299584610F076FA0D9B7E1E0290002B5D
:1069900000F05C82002329460A22584610F06AFA69
:1069A000049B0546002B03DC089B022B00F35E8250
:1069B000B8F1000F05DD29464246584610F0BCFBF1
:1069C0000546109B002B00F0D0826968584610F0F5
:1069D000EFF90746002840F07F820D4B024640F257
:1069E000EF2158E5E20706D508F10108D5E90023B3
:1069F0000DF0F0FE0123641008350BE74FF002089C
:106A00000DE700BFF0FE0308C8FE03080000F03FDA
:106A10004EFE030820460022AC4B29460DF0DAFE5C
:106A20007E1E08F10108049CCDE9000140460DF0EE
:106A300067FEDDE900230DF0CDFEA54B00220DF031
:106A400013FDA1F15073CDE90E010F93002C3BD142
:106A50000022A04BDDE900010DF004FD02460B46CB
:106A6000CDE90023DDE90E230EF044F9002840F0C3
:106A70005781DDE90E2101F10043DDE900010EF04F
:106A80001BF900283FF4E2AE002425460C9BDDF8FC
:106A90000CA0DE434FF000082146584610F0C8F91C
:106AA000002D00F0A980B8F1000F05D0A84503D053
:106AB0004146584610F0BCF92946584610F0B8F93E
:106AC0009AE03E464C46B1E7834B03EBC40353E9DF
:106AD0000201039B1C440D9B002B4AD002460B462F
:106AE00000207E490DF0A0FFDDE90E230DF0BAFC79
:106AF000DDF80CA0CDE90E01DDE9000127F084FEF0
:106B000005460DF0FDFD024630350B46DDE900017E
:106B10000DF0A8FC0AF8015B02460B46CDE9000126
:106B2000DDE90E010EF0E6F8002865D100206C4981
:106B3000DDE900230DF096FC02460B46DDE90E016F
:106B40000EF0D8F8002840F00D81A24500F0EA8050
:106B500000225E4BDDE90E010DF03CFE00225B4B96
:106B6000CDE90E01DDE900010DF034FECDE90001B3
:106B7000C2E7DDE90E230DF02DFEA046DDF80CA0E6
:106B8000CDE90E01DDE9000127F03EFE05460DF0DE
:106B9000B7FD024630350B46DDE900010DF062FC21
:106BA0000AF8015B02460B46A245CDE900234FF0EF
:106BB000000223D1494BDDE90E010DF055FC0246E0
:106BC0000B46DDE900010EF095F8002840F0CA8080
:106BD00000204249DDE90E230DF044FC02460B463D
:106BE000DDE900010EF068F870B1C24608F1FF3827
:106BF0001AF8013C302BF8D0374655E0334B0DF0F6
:106C0000E9FDCDE90001BDE7DDE90A34CDE9003455
:106C1000159B002BFFF628AE0E2F3FF725AE2E4B0F
:106C200003EBC70393ED007B0C9B002B8DED047BE6
:106C300002DAB9F1000F64D0DDF80CA0DDE90045FF
:106C4000DDE90423204629460DF0EEFE27F0DCFDA9
:106C500006460DF055FDDDE904230DF0BBFD0246AF
:106C6000204606F130040B4629460DF0FBFB0AF8DE
:106C7000014B039C02460B46AAEB0404A14540F0DD
:106C800082800DF0F1FB04460D46DDE904230EF091
:106C900031F8002865D120462946DDE904230EF0AD
:106CA00001F808B1F3075CD40299584610F0C0F817
:106CB000002301378AF80030129B1F60219B002BB4
:106CC0003FF421ACC3F800A01DE400BF0000244045
:106CD00000001C4000001440F0FE03080000E03FEC
:106CE0000000F03FA24B03EBC70393ED007B0C9B2E
:106CF000002B8DED047B9FDAB9F1000F9CDC7FF453
:106D0000C3AE00229B4BDDE904010DF063FDDDE91C
:106D100000230DF0E5FF044600287FF4B5AE3E46A3
:106D20002546B4E0DDE90A34CDE90034159B002B9B
:106D300001DB0E2FD6DD089A012A36DC139A82B3C6
:106D400003F23343099CDDF81880069A0121584666
:106D50001A440692079A1A44079210F0D3F805468F
:106D600086E53E4653469A4613F8012D392A06D148
:106D7000039A9A42F7D13022039901360A701A78A1
:106D800001321A7038E700227B4B0DF023FD002200
:106D9000002304460D460DF085FF00283FF450AF58
:106DA00082E7149BC3F13603CCE709F1FF34099B5A
:106DB000A34208DBB9F1000FA3EB04040EDBDDF8FE
:106DC00018804B46C1E7099B109AE31A0994DDF835
:106DD000188000241A444B461092B6E7069BA3EB9A
:106DE00009080023B1E7029E71E5099A029970E54E
:106DF000029672E5089B012B17DC009BABB9019B47
:106E0000C3F313039BB9019B23F00046360D3605EF
:106E100036B1069B012601330693079B0133079386
:106E2000109B002B7FF470AD1096012075E50026B5
:106E3000F6E73FF486AD1C33069A1A44984406924E
:106E4000079A1A4407927CE50346F4E7049B002B5B
:106E50002BDC089B022B09DC27E0B9F1000F1DDCBD
:106E6000089B022B1ADD3E46CDF81090049B002BA8
:106E70007FF40CAE2146052258460FF0FBFF014679
:106E8000044602982DF03DFF00287FF7FFADDDF8A6
:106E90000CA0312301360AF8013BFBE50D9B3E4671
:106EA000CDF81090002B7FF483AD039F214602980C
:106EB0002DF039FE039B00F13009049A07F8019B7D
:106EC000FB1A9A4240F3CB8000230A2202995846CB
:106ED0000FF0D0FF0290E9E72A6905F10C010C30B0
:106EE000023292002DF00AFE01223946584610F077
:106EF00023F9039BA846054603F1010ADDE90323B4
:106F000013440793009B03F0010309930AF1FF3335
:106F10002146029804932DF006FE4146069000F1AA
:106F2000300902982DF0EDFE2A46214607465846C4
:106F300010F06EF9C268014602B358460FF078FFB0
:106F4000002F3ADA01220299584610F0F5F821464E
:106F500002902DF0D6FE002803DC29D119F0010F94
:106F600026D0B9F1390F1DD132E02846C1E700BF64
:106F7000F0FE030800001440000024400A9002982C
:106F80002DF0BFFE0A990C9058460FF051FF0C9A55
:106F90005ABB089B53B9099B43B9B9F1390F17D0B4
:106FA000002F05DD069B03F1310901E0002F2ADAED
:106FB000DDF810A00AF8019B6EE5089B3B4304D165
:106FC000009B03F00103002BBCD0B9F1390F36D17F
:106FD000049F392307F8013BBA46013F1AF8013CE8
:106FE000392B5AD001333B7056E5002F06DB089B46
:106FF0003B4306D1009B03F0010313B9002AA1DC37
:10700000D6E7002AE1DC079B57460AF8019C534566
:107010002ED000230A22029958460FF02BFFA845D4
:1070200002904FF000034FF00A02414658460BD140
:107030000FF020FF804605460AF1010A66E7DDF8F9
:1070400010A009F10109B5E70FF014FF29468046A9
:1070500000230A2258460FF00DFF0546ECE7049B7B
:107060004FF00008002BCCBF1F460127039B1F4495
:1070700001220299584610F05FF8214602902DF047
:1070800040FE0028A8DC02D119F0010FA4D1BA46B5
:1070900017F8013D302BFAD0FEE4039BBB429BD195
:1070A0003123039A01361370F6E4219B002B7FF401
:1070B00025AA014BFFF744BAD1FD030800000000E8
:1070C000002370B5404C05468AB0E36318B10088D0
:1070D000236016F03FF83D4835F0C4F93C4E3D4B77
:1070E000304633603C4B736030F090FD00213046F9
:1070F00020F0B4FD32A3D3E90023A062C4E9062343
:1071000030F08FFDD4E9062319431043C4E906018A
:10711000CDE900014FF0FF334FF0FF32A06A35F0A8
:10712000EEF902224FF0FF31A06A35F0EDF90120AF
:1071300015F092FD4FF4007300222849A06A35F043
:1071400034FAB0F5007F38D100239422CDE907331B
:1071500009933C23CDE9033205939623A06A03A942
:10716000069320F099FE35B3287C16F0ABF905465E
:10717000F0B9A06A35F0F7FA16F052F915F04EFDA5
:1071800020B14FF48070002112F064FD15F056FD1F
:1071900020B14FF40060002112F05CFD30F004FEDD
:1071A000012020F0AFFD0E4A0E49A06A30F02CFD00
:1071B00028460AB070BDFF20D7E70725F8E700BFD3
:1071C0000DD5015520000000A8110020690345ECF1
:1071D00068610020DDCA010878610020685F002036
:1071E000B17B0308F17B03080348044B834202D0C0
:1071F000034B03B1184770473411002034110020AD
:1072000000000000064B0749C91A891048BF013128
:10721000491003D0044B0BB101481847704700BF19
:1072200034110020341100200000000010B5064C7D
:10723000237843B9FFF7D8FF044B13B10448AFF3E9
:1072400000800123237010BD14680020000000009E
:107250009444040808B5054B1BB105490548AFF334
:107260000080BDE80840FFF7CDBF00BF0000000070
:107270001814002094440408A3F5803A704700BF16
:10728000174B002B08BF134B9D46FFF7F5FF00215E
:107290008B460F461348144A121A2DF0C7FB0E4BAB
:1072A000002B00D098470D4B002B00D098470020B2
:1072B000002104000D000D48002802D00C48AFF357
:1072C00000800FF007FD2000290001F0F9F90EF011
:1072D000DFFE00BF0000080000000000000000000A
:1072E000C00A002034110020208B00200000000084
:1072F000000000002DE9F04788B06A4615462B4B88
:1073000003F11006144618685968083303C4B342E1
:107310002246F7D128F018F8002028F023F8C820DA
:1073200028F08DFE224F28F00FF810222946022067
:1073300028F035F8C82028F082FE3B781BB11D49A3
:107340001D4828F043FD102202200DEB020128F019
:107350004DF83B781BB11949174828F026FD002449
:107360004FF00108DFF85090DFF854A004AE15F894
:10737000013B16F8011B994218BF4FF000083B78FB
:107380003BB11022484628F072FD5146484628F08D
:107390000CFD0134102CEAD13B7813B1064801F002
:1073A00097F8404608B0BDE8F08700BFD7D803087B
:1073B000300F0020B5D80308C8190020C8D803082A
:1073C000BCFF03082DE9F843846806460D46DFF844
:1073D000A88000AF54B998F800301BB12149224869
:1073E00028F0F4FC0020BD46BDE8F8836A4601346D
:1073F000A4B2E31DDB08A2EBC3039D462246002393
:10740000694628F0D4FD98F80030E94683B1174961
:10741000154828F0CAFC3146134828F0C1FC14492D
:10742000114828F0C2FC102229460F4828F021FDFF
:10743000284627F097FFC82028F001FE27F084FF98
:1074400022464946284627F0AAFF322028F0F7FDB9
:1074500098F800300BB90120C5E70649024828F02A
:10746000B5FCF8E7E8D80308C819002012D90308CA
:107470002AD9030839D90308300F00202DE9F04735
:1074800084B005460E46144600AF3AB92C4928F0A0
:1074900059FD28461037BD46BDE8F0876946D31D23
:1074A000DB08A1EBC3039D46DFF8B0A000216846CE
:1074B00002F1FF392DF0BAFA9AF80030E846ABB184
:1074C0002049214828F071FC102231461E4828F03E
:1074D000C1FC1E491C4828F068FC21460A221A48B3
:1074E00028F0B6FC1A49184828F070FC224641469C
:1074F000304627F07BFF0023414608F80930381D4D
:1075000028F020FD9AF8003023B92846391D28F0CC
:10751000C6FC0CE00F490C4828F047FC0A48391D0E
:1075200028F03EFC0C49084828F050FCEDE7381DD7
:1075300028F0C0FCADE7381D28F0BCFC2CF007FE9D
:107540005EE2030852D90308C819002065D9030870
:107550006ED9030885D90308A8D90308300F002085
:1075600070B506460D4628F015FD044628B10E49B3
:107570000E4828F02BFC204670BD0D490B4828F022
:1075800025FC0C49094828F010FC3146074828F032
:1075900007FC0949054828F008FC2946034828F05B
:1075A000FFFB0649E4E700BFAAD90308C819002079
:1075B000C1D90308E0D90308F3D90308A8D90308FF
:1075C00070B50321002028F06EFD0321084628F045
:1075D0006AFD0321052028F066FD0321042028F020
:1075E00062FD00241B4E16F8015B01212846013480
:1075F00028F059FDE4B20021284628F06BFD042C48
:10760000F1D10121652028F02BFD0021652001F03A
:107610006FF90121472028F023FD0121472001F0C7
:1076200067F9642028F00BFD0121462028F018FDA1
:107630000021462001F05CF9C82028F000FD064931
:10764000064828F0C3FBBDE870400349044828F011
:10765000BDBB00BFBDDF03080ADA0308B418002071
:10766000C819002008B50549054828F0AFFB27F0E8
:1076700019FEBDE80840FFF73DBE00BFAADA0308C7
:10768000C819002008B50368104A23F47F4323F08B
:107690000703934204D002F5802293420DD008BD27
:1076A0000B4800F015FF0B49094828F08FFBBDE897
:1076B00008400949064828F089BB084A1368013385
:1076C00013600122064B1A70E9E700BFA000010019
:1076D000C8190020C2DA0308E0DA030830140020D9
:1076E0001568002010B5044648B10549054828F042
:1076F0005CFB10222146034828F0BBFBFEE710BDCF
:10770000F1DA0308C8190020102208B5114601203B
:1077100018F0DAFAFFF7E6FF0121084618F0F8FA48
:10772000FFF7E0FFBDE808400149024828F04EBBE2
:10773000FDDA0308C819002038B51449144828F0A8
:1077400045FB0023134C144D23602B70FFF7DCFF27
:1077500041F2883028F073FC18F0CEFAFFF7C2FF30
:107760000E490B4828F021FB0A222168084828F01E
:107770006FFB0B49064828F029FB2368002B4FF0CC
:107780000103C8BF2B702B70206838BD0DDB0308C8
:10779000C8190020301400201568002028DB0308D9
:1077A00046DB030870B58AB0FFF70AFF0123AE4C31
:1077B000AE4A23700023AE4EAE49AF48136033701B
:1077C00028F004FB27F036FEAC49AB4828F0FEFA5F
:1077D000FEF7DEFD054660BBA949A74828F0F6FA8A
:1077E0002570A849A44828F0F1FAFEF74DFD05469A
:1077F00020BBA549A04828F0E9FA2570A3499E4876
:1078000028F0E4FAFFF72EFF0546E0B9A0499A48B0
:1078100028F0DCFA25709F49974828F0D7FA9E494E
:1078200001A828F08FFB4FF4805101A8FFF7CAFD93
:107830000EE09A49904828F0C9FAD2E798498E4854
:1078400028F0C4FADAE797498B4828F0BFFAE2E754
:10785000039A054601324FF4805192B204A8FFF713
:107860000DFE35B104A901A8FFF77AFE28B18E49B3
:1078700006E08E49804828F0A9FA00238C4923703D
:107880007D4828F0A3FA8B497B4828F09FFAFFF740
:1078900053FF337853B98849774828F097FA002383
:1078A00023708649744828F091FA0BE084497248A5
:1078B00028F08CFA2378002BF3D082496E4828F008
:1078C00085FA41E08049814828F080FA7E496A487B
:1078D00028F07CFA7E49684828F067FA10220021D7
:1078E000654828F0B5FA7B49634828F06FFA7A4971
:1078F00007A828F027FB002107A8FFF763FD04462F
:1079000007A828F0D7FA44B174495B4828F05EFA1A
:1079100073496E4828F05AFA01E07249F5E7704958
:10792000554828F053FA0021142028F0D3FB4FF4D7
:10793000FA7028F084FB0121142028F0CBFB4FF4CF
:10794000FA7028F07CFBEEE76749604828F03EFAC1
:107950006549494828F03AFA237823B163494648F3
:1079600028F034FA09E06249434828F02FFA5A4DCA
:107970005749414828F019FA01E05E4DF8E7102216
:1079800000213D4828F064FA52493B4828F01EFA8D
:10799000294607A828F0D6FA002107A8FFF712FD0C
:1079A000054607A828F086FA45B14C49324828F028
:1079B0000DFA4B49454828F009FA01E04949F5E735
:1079C00047492D4828F002FA237823B900210220E4
:1079D00028F069FB04E00021142028F07BFBF5E788
:1079E00000210A2028F05FFB0021082028F05BFB23
:1079F0000021092028F057FB0021652000F078FFC6
:107A00000021472000F074FF0021432000F070FFA8
:107A10000021422000F06CFF0121382000F068FFB7
:107A2000642028F00CFB28F0FCFA02463249274873
:107A300028F04FF83149324800F0F6FA28F0F1FA10
:107A400002463049214828F044F828F0EAFA024674
:107A50002C49094828F03DF804A828F02BFA01A881
:107A600028F028FA0AB070BD310F00203014002031
:107A7000156800207ADB0308C81900209BDB030887
:107A8000B1DB0308DBDB0308ECDB03080CDC0308D9
:107A90002ADC030864DC03088EDC0308C6DB030869
:107AA000FCDB030847DC0308F9DC0308A2DC03085D
:107AB000D0DC030822DD030839DD03087EDD03087E
:107AC00068DD030849DE0308A3DD0308B4180020BD
:107AD000AFDD0308E2DD030867DB0308E7DD030829
:107AE0000EDE030821DE03086BDE030877DE0308E1
:107AF00094DE030854DB0308B1DE0308C027090045
:107B00008C180020C8DE030807A828F0D3F904A8C1
:107B100028F0D0F901A828F0CDF92CF018FBF3E7F4
:107B2000F5E7F7E730B54FF4E13195B0384827F085
:107B3000B0FF4FF41651374827F0ABFF0121142056
:107B400028F0B1FA0221012028F0ADFA4FF4FA60D2
:107B500028F075FA012028F0B2FA58B92E492C48BD
:107B600028F034F901222D4B1A7015B0BDE83040D1
:107B7000FFF718BE00242A4D4022214604A82C708D
:107B80002CF054FF27F08EFB4022214601A8FFF77E
:107B900075FC2346402204A901A828F008FA039A9C
:107BA0002B784AB18BB11F49194828F0FEF81848C4
:107BB00004A928F00BF908E01BB11B49144828F070
:107BC00005F91A4904A82CF083FF194904A82CF0E0
:107BD00075FF50B940F6B83028F031FA15490C4815
:107BE00028F0F4F827F026FCFCE740F6B83028F03F
:107BF00026FA1149064828F0E9F80021142028F057
:107C000069FAFAE701A828F055F92CF0A0FA00BFAC
:107C1000C8190020B4180020D8DE0308310F002056
:107C2000300F0020EEDE03080BDF030853DF0308EC
:107C300054DB03085DDF030880DF030838B5044622
:107C40000B480C4D20600020C4E904122071A08173
:107C5000A36104F12001A56001202AF098FC04F141
:107C60007401E06101202AF092FC2067204638BDB3
:107C700014E0030840420F0013460A46014601483B
:107C800027F08CBCF814002013460A460146014830
:107C900027F084BC3414002070B50F490F4C104EEF
:107CA000104D114B2046114A0968FFF7C7FF3246B5
:107CB000294620462CF0D9F90D4C0E4920460E4A93
:107CC00009680E4BFFF7BAFF324629462046BDE849
:107CD00070402CF0CAB900BF580C0020F8140020E6
:107CE000C00A00207DF40208797C0008EC0A00201C
:107CF00034140020540C0020CC0A0020897C000899
:107D0000F0B5067C044685B0002E74D102236D4682
:107D100003743A4B80F8A4100FCB85E80F000123C1
:107D20000B22D4F8581194F855018DF8016003F036
:107D300027FF01230B22D4F8601194F85C0103F0B3
:107D40001FFF94F85431D4F860011B0103F1A043E4
:107D500003F57033D3F8F01494F85C21284E42EA0E
:107D6000004231400A43C3F8F02494F85411254AE4
:107D7000D4F8587102EB0111D1F8EC0494F85531A4
:107D8000304043EA07430343C1F8EC3494F85431DC
:107D9000D4F8500102EB03120323C2F8E8341A4B63
:107DA000012198420CBF2F202E2002F02BFB2946E8
:107DB000D4F8500103F088FF94F8A420D4F850318F
:107DC000124902F0FE02DA6103F50052D163104954
:107DD00003F58052B3F1B64F116403D14FF0006246
:107DE0000C4B1A60D4F85021074B9A4203D14FF044
:107DF0008052084B1A6005B0F0BD00BFFCE00308DC
:107E0000FCFFF0FF00C0035000800650FFFF1F0082
:107E10006406010000E100E02DE9F84300251F465B
:107E20004FF47A734026044689469046C0E90153D0
:107E3000224B32462946C0E9265503600582A0F848
:107E4000945080F89650C0F8A050A0F8A450A830E4
:107E50002CF0ECFD089BC4F8E850C4F858319DF8AC
:107E60002430324684F85C310A9B2946C4F86031DC
:107E70000B9BC4F8EC50C4F86431C4E93D55C4F818
:107E8000F050C4F8FC50C4F8509184F8548184F840
:107E9000557104F153002CF0C9FD3246294604F116
:107EA00013002CF0C3FD04F5807101202AF06FFB54
:107EB000C4F8FC002046BDE8F88300BFB4E0030826
:107EC000094808B5D0F85031B3F1B64F01D127F0C9
:107ED00010FD0648D0F85031B3F1B64F03D1BDE8DC
:107EE000084027F006BD08BD24170020BC1500205F
:107EF000094810B5D0F85031084CA34201D127F001
:107F0000F8FC0748D0F85031A34203D1BDE8104037
:107F100027F0EFBC10BD00BF2417002000800650E2
:107F2000BC1500201FB50F4B02241B6801220393D0
:107F30000423CDE9014305230B4900930B48234655
:107F4000FFF76AFF0A4B03221B684FF0B641CDE9E9
:107F5000024301230748CDE900230022FFF75CFF1D
:107F600004B010BDC80A002000800650241700206D
:107F7000C40A0020BC15002070B505464068441CAA
:107F80004ED0C0B200F0FAFB28F03AF80646287945
:107F900000F0F4FB28F041F80123044601460322D7
:107FA000304603F0EDFD76B9611F4C424C41200490
:107FB0002B7A042B32D0012B1A4918BF0021BDE8BF
:107FC000704003F01DBE012E06D1012C18D0E21E18
:107FD000544254412005EBE7022E08D1052C12D063
:107FE000072C13D0B4FA84F46409A005E0E7032E4B
:107FF0000FD1022C0FD0631F5C425C41A006D7E773
:108000004FF40020D4E74FF40000D1E74FF0807028
:10801000CEE70020CCE74FF00070C9E70149CEE77A
:1080200070BD00BF0000FF0F30B50D4687B004469D
:108030000C214FF4F06002F0A3FE01213D2002F07C
:10804000E1F901213C2002F0DDF9154A03AB07CA32
:1080500083E8070040F201121846ADF8142001F041
:10806000F3FE01F051FF2946002001F041FF0222FA
:108070000C4B9A614FF400320B4B1A60012001F057
:108080000FFF2046FFF778FF002301A801938DF82A
:10809000083003F05DF903F01DFA07B030BD00BFF2
:1080A0000CE103080050065000E100E00222014B01
:1080B0005A617047006006504FF0FF320021034BB9
:1080C000C3E9001203221A72704700BF8C18002007
:1080D000002302461946014804F050BC00C0055078
:1080E00010B500240E4B186827F085FC0D4B204678
:1080F000C3F820470122C3F838470821C3F83047A6
:10810000C3F82847C3F82C47234603F039FD23461C
:108110002046BDE810400122092103F031BD00BF17
:10812000A018002000C0035002460021014803F0BF
:10813000C7BA00BF00000A5010B500240E4B1868E3
:1081400027F059FC0D4B0122C3F8B4440621C3F8B3
:10815000CC440220C3F8C444C3F8BC44C3F8C044B0
:10816000234603F00DFD2346BDE810400122072100
:10817000022003F005BD00BF9818002000C0035086
:10818000084B1A68084B1A60084B1A68084B1A60AB
:10819000084B1A68084B1A60084B1A68084B1A609B
:1081A000704700BF400C0020A4180020500C002095
:1081B000A01800202C0C00209C1800203C0C002053
:1081C0009818002000230448044A0549C0E900002B
:1081D00083602BF04ABF00BFA8180020C00A00200F
:1081E00027FA02082DE9F041002598464FF47A73EA
:1081F000C0E90153184B04460F4616462946802213
:1082000040F8103B2CF012FC4FF4E133C4F89050CE
:10821000C4F80C31C4F89450C4F89C50C4F8985079
:1082200084F8085184F8105104F1A00101202AF0CB
:10823000AEF9069BC4F89C00C4F8F430079B2046B6
:10824000C4F8F830089BC4E94076C4F8F080C4F85C
:10825000FC30BDE8F08100BF6CE103081FB50F4B97
:108260000F4A02930F4B10490193104B1048009393
:108270001268104B0968FFF7B5FF0F4B0F4A0293C6
:108280000F4B10490193104B104800931268104B8C
:108290000968FFF7A7FF05B05DF804FB61FA020863
:1082A000A0180020E1800008A41800200DFA0208A0
:1082B000C8190020D1800008D1FA020898180020BF
:1082C000398100089C18002011FA0208B418002017
:1082D000298100082DE9F0410E4690B0404D002163
:1082E000804606AC3046174627F0BAFE0FCD0FC4C5
:1082F0000FCD0FC495E8030084E8030001244FF07C
:10830000000C032321462A20CDE901CCCDE903CC82
:10831000CDF814C08DF80630009402F073F82146B1
:108320003A2002F06FF821463B2002F06BF8032F51
:1083300031D82C4B2C4A2D4C33F81730D25D2046C7
:1083400009938DF81C2003F055FEA36823B920463D
:1083500006AA03A903F024FF254B244C334413F849
:10836000323C6A46204601A98DF8013028F073F9A5
:10837000A36A512E43F40073A36206F001021D4B61
:1083800011D95AB9D3F8282342F00102C3F828239F
:10839000012388F8003010B0BDE8F081D3F828231D
:1083A00042F48032F2E7412E0CD932B9D3F82423BB
:1083B00042F00102C3F82423EAE7D3F8242342F46D
:1083C0008032F7E732B9D3F8202342F00102C3F834
:1083D0002023DDE7D3F8202342F48032F7E700BF03
:1083E000E4E1030898E10308A0E103080040005914
:1083F000A4E1030800C0035038B504460D46C06828
:108400004FF0FF312AF0C6F9237813B16368AB420D
:1084100005D029462046227A6560FFF75BFF4FF4BE
:1084200000720C4B0C4D5A620123EB606B6A9B058A
:108430000DD50023E0681A461946ED6F2AF02CF896
:10844000637AA8B2C3F10C03184180B238BD27F09B
:10845000FAFDEBE70060005900400059014827F0A1
:10846000C5BB00BFDC1A002010B50446044B0175E3
:1084700003601022002104302CF0D8FA204610BDF1
:1084800058E2030830B5074D8374056000259DF858
:108490000C30057545608560C56001744274C37415
:1084A00030BD00BF58E2030807B501210648FFF7B9
:1084B000DBFF002305481A4619460093FFF7E2FF49
:1084C00003B05DF804FB00BF541B00203C1B0020E0
:1084D00008B5024927F054FC08BD00BF5CE2030860
:1084E0002DE9F84F55EC104B0E1E074622462B4641
:1084F00020462946B8BF02260CF006FC38B14C498C
:10850000384627F03DFC80464046BDE8F88F25F010
:1085100000494FF0FF3220464946464B0CF0F4FB31
:1085200048B94FF0FF3220464946424B0CF0CEFB93
:1085300008B94149E4E74FF06042204629463F4BE5
:108540000CF0D8FB08B13E49DAE74FF06042204614
:1085500029463C4B0CF0B0FB0028F4D1002200234C
:10856000204629460CF0A8FB00285AD02D21384679
:1085700027F01FFC05F1004382461D464FF0000B1B
:1085800000204FF000083049DFF8C4905FFA8BF309
:10859000B3420BF1010B46DB02460B46204629464F
:1085A0000BF062FF0D4604460CF0C4FB80460CF055
:1085B00097F802460B46204629460BF053FF0A2245
:1085C00004460D463846414627F002FC0AEB0008F7
:1085D00026B138461D4927F0D3FB80444FF0000AEE
:1085E000DFF86CB0013E8FD35B46524620462946E9
:1085F0000CF0F0F80D4604460CF09CFB0A220146F4
:108600008146384627F0E4FB804448460CF068F881
:1086100002460B46204629460BF024FF04460D4631
:10862000E0E78246AAE742464B460CF0FDF9ADE78B
:108630005FE20308FFFFEF7F63E20308FFFFEF4104
:1086400067E20308FFFFEFC10000E03FE5DD03083C
:108650000000244010B5074943234222064827F072
:10866000BEFCBDE8104045234422044801F580418A
:1086700027F0B5BC00400259941B00206C1B002061
:1086800038B5FFF74FFA094D094C26F0E3FE2846AE
:1086900027F039FA284627F09DFA204627F033FACA
:1086A000204627F097FA29F09EFDEEE7C819002032
:1086B000B4180020014B1878704700BF16680020DE
:1086C0001FB504F01FF901241D4B186028F013F8A2
:1086D00027F0A5F91B4B1C7027F079F91A4B4FF4C2
:1086E00000620293194B1A49CDE90043194800234F
:1086F0002AF0AFF9F0B9184C1849206829F040F970
:108700001749206829F03CF927F0F0FC27F0EFFC2E
:10871000144B154A009315493E23206829F030F97F
:108720001349144A206829F02BF91349206829F0CD
:1087300027F9FEE729F08DFC002004B010BD00BF32
:10874000BC1B002016680020C01B0020201C00203D
:1087500084E2030881860008BC3C00205DE2030837
:1087600091E2030809E3030896E20308FDE2030827
:108770002AE303080EE3030842E30308A0F13203EF
:10878000402B10B5044608D927F04BF9A04292BF00
:108790004FF0FF34024B53F82440204610BD00BF79
:1087A0000C0B002038B54FF480730381082380F848
:1087B0006430FF23002283664FF47A73044603601B
:1087C000C2600266027100F16C0300F1AC0172201C
:1087D0000C4D10338B4207D104F11001012029F018
:1087E000D6FEE060204638BD43F8100C43F8085C24
:1087F00003F8042C03F8032C03F8022C03F8012CD3
:10880000E7E700BF008004500148FFF7CBBF00BF7F
:10881000203C002010B5044603F078FAB4F1B64FBE
:108820002AD100221C4BC3F8E824C3F8EC24C3F877
:10883000F0244FF00062194BC3F88020BFF34F8F34
:10884000BFF36F8F002301220521022003F098F966
:10885000002301220421022003F092F901220023C7
:108860001046032103F08CF9BDE8104001220023DB
:108870000221104603F084B9094B9C42E2D1002248
:10888000A3F53033C3F8F824C3F8FC24C3F800255B
:108890004FF08052014BCFE700C0035000E100E0F1
:1088A0000080065008B501460148FFF7A5FD08BD48
:1088B000DC1A002038B50446FFF7FCFE90B1712C9D
:1088C00011D8204627F09CFB0546204627F0A5FB43
:1088D0001422302313FB0523044A9B5823FA00F08B
:1088E00000F0010038BD0020FCE700BF30C003509D
:1088F00070B504460E46FFF7DDFE90B1712C10D81E
:10890000204627F07DFB0546204627F086FB012206
:108910003021064B824001FB05331EB903F501539C
:108920001A6070BD03F58253FAE700BF00C0035020
:10893000012208B5074B1A700022074B1A70042257
:10894000064B1A701F22064B1A7006F0ABFC054B43
:10895000186008BD340F002017680020330F002076
:10896000320F0020BC3C00202DE9F043434D89B07C
:1089700001AC0FCD0FC495E80700012584E807007E
:1089800001213A2001F03EFD3D4F0121292001F057
:1089900039FD3C4B384601A903938DF8125004F081
:1089A0009FF82B4629460422022003F0E9F8022111
:1089B0002A460846002303F0E3F82B46042203214D
:1089C000022003F0DDF804222B461146022003F0BA
:1089D000D7F82D4C2D4B1026C4F834374FF0021326
:1089E000C4F83037A3F58033C4F838371C2304F5B6
:1089F0000059C4F820374FF4487008F0C3FA04F562
:108A000080581420C9F8A06008F0BCFA2320C8F8E8
:108A1000A06008F0B7FAB9213846C9F8A06027F07D
:108A2000C9FE002329461A460220C8F8A06003F0B8
:108A3000A7F8002302211A46084603F0A1F82B46A6
:108A400000220321022003F09BF82B460022042180
:108A5000022003F095F8384603F0C0FF00212920DA
:108A6000C4F83417C4F83017C4F83817C4F82017FE
:108A700001F0C8FC09B0BDE8F08300BF60E3030863
:108A800000C0055000127A0000C00350020003002D
:108A9000BFF34F8F0549064BCA6802F4E0621343E7
:108AA000CB60BFF34F8F00BFFDE700BF00ED00E0DC
:108AB0000400FA054FF000639B6A03F17842B2F5B7
:108AC000C04F03D21968064A914203D000230370B5
:108AD00083607047012202709A689B694260F7E7E1
:108AE00007B0CD5E73B54F4B04461A781AB1022217
:108AF0001A7002B070BDCDE900220028F9D001261D
:108B00001E7027F00FFD484D484B186022F0FCFC0A
:108B10002B785BB900F0E0FD40B945480823454A91
:108B2000454900681EF0D0FD00B92E70434B5A6EC7
:108B300062619B6E424AA3614FF480439366414B4E
:108B40005968E16140499960196E2160596E616010
:108B5000D3F87011A160196CE160596C21613B4937
:108B6000086C1864496C5964012151661B6E9C04A1
:108B700041D5374AD368D807FCD4364B1A68531C02
:108B80003ED04FF480139340334A13664FF4007382
:108B90000426314C2666236627F0E0FA01300DD01A
:108BA00027F0DCFA40F20113984207D04FF400534B
:108BB00023664FF480432366C4F870610823264C73
:108BC000684623664FF4805323664FF000632366A4
:108BD0004FF4002301A9636627F0A4FA009B2366E3
:108BE000019B63662B78002B83D0124B1A68226698
:108BF0005B6863667DE7194AD368D907FCD4BCE794
:108C0000174B1B78002BC1D14FF400720C4B5A66E6
:108C100003F5A6235B68002BB8D14FF480120E4BEE
:108C20001A66B3E7196800201A680020E03C0020AB
:108C3000B40B0020E43C00200071080000800050CC
:108C4000009000500080004455CEAC0000C000549D
:108C5000000004407C0B0020009000440000045001
:108C60001868002070B5224D04462E78012E02D0DF
:108C700001232B7070BD0028FCD027F06FFA013063
:108C80000BD027F06BFA40F20113984205D0194B34
:108C9000194A5E66D368DE07FCD42268174B1A6651
:108CA00062685A66A268C3F87021E2681A64226991
:108CB0005A64E269D00744BF00229A60104B1A68D8
:108CC000013207D10F4A127822B90F494968C90702
:108CD00048BF1A6062690D4B5A66A2699A6622F013
:108CE0001BFC0B4B186827F023FC0023C1E700BFD7
:108CF00019680020009000400000044000800044FB
:108D00007C0B00201868002000C005500080005037
:108D1000E03C002070B54FF00064A36A03F1784294
:108D2000B2F5C04F24D21A68134B9A4220D1134E89
:108D3000337813F0FD0F02D00024204670BD104898
:108D4000FFF7D0FE01254FF480330E4A0E49C2F8DA
:108D50008051CB6015600D4A1361A36ADB699847A7
:108D600004460748FFF77EFF002CE6D13570E3E7A5
:108D70004FF48174E1E700BF07B0CD5E18680020B2
:108D8000C03C002000E100E000A00044009000444E
:108D900013B5204B1B7803B9FEE700231E4CCDE929
:108DA00000336A4608231D4920681EF08DFCF0B987
:108DB0001B4AD2F84031D2F840211F2B4FF001035B
:108DC00010D9203A9340019A1A43019208236A4627
:108DD000124920681EF02EFC4FF00053114A1A6011
:108DE000FFF756FE9340009A1A430092EEE70E4BAF
:108DF0009842F1D10A4AD2F84031D2F840211F2BD3
:108E00004FF0010385BF203A93409340019398BFF0
:108E10000093DBE719680020B40B00200071080004
:108E2000008000440B020FF00BE000F040B1054A57
:108E30001378012B04D8037001330020137070479E
:108E4000012070471B6800200346054A0549106849
:108E500003448B428CBF4FF0FF301360704700BF5C
:108E6000800B0020000004200348044A0449121A21
:108E7000921027F0C1B900BF7C5004087C50040850
:108E8000208B002008B500F02FF8FFF7EDFF124B04
:108E900012498B4212D30020114B12498B4218D336
:108EA000FEF7EEF9186850F82240586840F8224062
:108EB000013298688242F5D30C33EAE70022F8E7E2
:108EC0001C6844F8220001325C68A242F8D30833DF
:108ED000E4E70022F8E700BFFC490408084A040858
:108EE000084A0408084A04084FF480414FF0FF3054
:108EF000114B124A10B59A60D3F8882042F47002E0
:108F0000C3F888200E4A91660E4901F5005210669A
:108F10000D4850660220C3F8D000BFF34F8FBFF357
:108F20006F8F01244FF440330848C0F88041D3606C
:108F300004600B6110BD00BF00ED00E000600008A0
:108F40000090005000800044F7FF370000E100E08F
:108F5000014B1868704700BF880B0020084B1B6F3F
:108F600003F00703022B04D0032B05D0012B05D0FF
:108F7000FEE7044B18687047034BFBE70348704754
:108F800000800050880B0020900B0020002D310144
:108F900008B5FFF7E3FF054B1B6FC3F30333013342
:108FA000B0FBF3F0024B186008BD00BF008000501A
:108FB000840B00200048704700B4C404014B1868BB
:108FC000704700BF900B0020054B1860054B1B6FCE
:108FD00003F00703032B01D1FFF7DABF704700BF8F
:108FE000900B00200080005000487047002D310198
:108FF0004FF0B4439868C0F304400C280AD8DFE867
:1090000000F00B0909090909072119091B1D1F0097
:109010000F487047002070479B6803F04073B3F11E
:10902000807F11D0B3F1007F10D00A4A002B08BF17
:10903000104670470848704708487047084870470E
:109040000848704708487047084870470848704704
:10905000405DC60000093D00C0EA210180BA8C01D4
:109060000048E801005A62020024F40080841E00D7
:1090700040420F00014B1868704700BF8C0B002066
:109080002DE9FF4103680446B3F1B64F55D0354A88
:1090900093424FD12F20012101F0B4F901230A227C
:1090A0006179207902F06CFD01230A22E179A0792F
:1090B00002F066FD0A2701262B4D4FF03008237978
:1090C000627908FB035306FA02F203F501531A60B2
:1090D000642007F057FF2379627908FB035306FAEF
:1090E00002F203F5825364201A6007F04BFF013F40
:1090F000E3D12068B0F1B64F21D10323C5F8E8349D
:109100006279237943EA0243C5F8EC34E279A37922
:1091100043EA0243C5F8F03440F20113ADF80030E1
:10912000E36869460293A3680193237C8DF80C30B1
:1091300002F0CAFD04B0BDE8F0812E20ABE7094B78
:109140009842E9D10323C5F8F8346279237943EAD8
:109150000243C5F8FC34E279A37943EA0243C5F837
:109160000035D9E70080065000C0035038B50546E9
:1091700002F0F0FE044C012801D1013C00D138BDC1
:10918000284602F0DBFDF6E7E19304002DE9F04FFD
:109190009A46564B85B01B7806460F461546DDF8B5
:1091A0003C909DF844B0DDF85080002B00F0978093
:1091B000072A00F296800E9B002B00F09280B9F1F6
:1091C000000F00F08E80129BB3F5006F00F38980D2
:1091D000012803D1109B002B00F08380444B03EB4C
:1091E00005131B7B002B7ED0424C102200216846C9
:1091F0002BF01CFC04EB45141022A7BB394620467B
:109200002BF014FC43F210036380BBF1000F03D179
:10921000E37843F00303E370364A0E9B02EB451CF0
:10922000CCE90193129B6901581E9DF84C30C0F3A4
:109230000A0003F003039B0643EA001E53582E481E
:10924000012E00EA03004EEA0003CDF800A05350BF
:1092500017D0B8F1000F2ED19CF8023068F3041338
:109260008CF8023027E0002120462BF0DFFB4FF482
:1092700044736380BBF1000FCED1E37843F0300339
:10928000C9E713230CF1100ECCF80C309CE80F004A
:109290008EE80F006FF00301DCF81C20109B61F3D7
:1092A0009F02012FCCF81C20CCF8143003D1CCF84D
:1092B0001890CCF8043000270D4A290102EB051361
:1092C00042F80180159A28465A60694622469F60F6
:1092D0005E7303F057FA384605B0BDE8F08F0748D3
:1092E000FAE70748F8E70748F6E700BF1C680020E0
:1092F000EC3D0020EC3C00200F80FFF3028000F0EA
:10930000018000F0078000F038B5124B05461B784D
:10931000DBB1E0B127F006F90F4A00231146147BB8
:1093200054B92B6001251A0101EB03131D738C50F6
:1093300027F0FEF8204638BD0133082B02F1100259
:10934000EDD127F0F5F80548F5E70548F3E70548BE
:10935000F1E700BF1C680020EC3D0020048000F015
:10936000028000F0018000F038B527F0DBF8002320
:1093700005460B4A147B6CB90133082B02F110022D
:10938000F8D103F0A1F9074B28461C7027F0D0F85C
:10939000204603E0284627F0CBF8034838BD00BF3D
:1093A000EC3D00201C680020058000F00D4B10B53E
:1093B0001B78044693B1072812D827F0B3F80A4B5C
:1093C00003EB04131A7B2AB100241C7327F0B0F8B6
:1093D000204610BD27F0ACF80448FAE70448F8E747
:1093E0000448F6E71C680020EC3D0020068000F0F1
:1093F000028000F0018000F0154B13B518680023BF
:1094000001908DF8043027F08DF8124B1C7824B1B0
:1094100027F08EF8104802B010BD01221A7027F014
:1094200087F80E4B01A81C731C7783F82C4083F837
:109430003C4083F84C4083F85C4083F86C4083F8F0
:109440007C4008238DF8073003F06AF92046E2E7F4
:10945000CCE303081C680020038000F0EC3D0020F2
:109460000A4A08B512785AB107280BD8084A02EB05
:1094700000131B7B43B1002103F044F9002008BD19
:109480000448FCE70448FAE70448F8E71C680020B1
:10949000EC3D0020028000F0018000F0078000F029
:1094A0000A4A08B512785AB107280BD8084A02EBC5
:1094B00000131B7B43B1012103F024F9002008BDF8
:1094C0000448FCE70448FAE70448F8E71C68002071
:1094D000EC3D0020028000F0018000F0078000F0E9
:1094E0000A4A08B5127852B107280AD8084A02EB8E
:1094F00000131B7B3BB103F091F9002008BD054828
:10950000FCE70548FAE70548F8E700BF1C680020BB
:10951000EC3D0020028000F0018000F0078000F0A8
:109520000D4B1B7893B1072812D889B10B4B03EB75
:1095300000131B7B73B10A4B1A6D01238340134246
:1095400014BF0123002300200B70704705487047AB
:1095500005487047054870471C680020EC3D002016
:1095600000000450028000F0018000F0078000F04D
:109570000B4A10B512780C4662B107280CD859B1C5
:10958000084A02EB00131B7B43B103F059F920702A
:10959000002010BD0448FCE70448FAE70448F8E757
:1095A0001C680020EC3D0020028000F0018000F0EB
:1095B000078000F0184B2DE9F0411F6D5B6D1F40D7
:1095C00000D5FEE701260025144CDFF8588037420D
:1095D00018D02368C8F85060A3B1A16828460131AB
:1095E0006268A1609847637B012B0BD150B90C4B8B
:1095F00003EB45131A7B60F341021A731A7F60F381
:1096000041021A770135082D4FEA460604F110048D
:10961000DDD1BDE8F08100BF00000450EC3D00202A
:10962000EC3C00200020045070B5044601250B4E90
:1096300004B970BD94FAA4F0B0FA80F005FA00F312
:1096400006EB001224EA03045368002BF0D0117BD0
:1096500011B191689847EBE79847E9E76C3E002025
:1096600008B5192001F0FCFD28B14FF00072074B3E
:10967000C3F880211A601A2001F0F2FD28B14FF0E2
:109680008062024BC3F880211A6008BD00E100E04F
:10969000074BD3F82404D3F8202403F500531040DB
:1096A00000F0553020F05020C3F82004FFF7BCBF75
:1096B00000C00350074BD3F82404D3F8202403F54B
:1096C0000053104000F0AA3020F0A020C3F820047E
:1096D000FFF7AABF00C00350024B1968024B18687D
:1096E0001DF0CEBE940B0020B40B002070B594008A
:1096F000224605460E4634F07FF8431C0AD058B97E
:109700002246314628462BF067F90028034808BF57
:10971000002070BD0248FCE70248FAE710E000F0C4
:1097200021E000F024E000F010B5044634F068F8C1
:10973000431C10D088B903F017F9234620F003002A
:109740002044984201D1002010BD53F8042B01326F
:10975000F7D00348F8E70348F6E70348F4E700BF0B
:109760000EE000F021E000F024E000F008B526F063
:10977000D2FE014B186008BD5C470020014B186801
:1097800026F0CDBE5C47002038B50546B0B1B9B172
:10979000B2B1B2F5006F13DC26F0C4FE95F84C3080
:1097A00003F0FF041BB126F0C3FE064838BD0123B9
:1097B00085F84C3026F0BCFE2046F7E70248F5E776
:1097C0000248F3E7032000F0012000F0022000F03F
:1097D0002DE9F04716460022436390F85C300446BA
:1097E000894686B080F85420C663002B38D14FF4E8
:1097F000406305686B614369092B03D905F12C08A7
:10980000443506E00BBF05F1200805F12408383582
:109810003C3567694FF0000A082F94BF00270127E5
:10982000204626F028FE134B0494CDE902730196DE
:10983000CDF800A04346216B04F13802A06A26F05F
:1098400008FD0123CDE903AACDE9016700932A466B
:109850004B46E16A606A26F0E2FC06B0BDE8F0879C
:10986000012BFAD1006826F048FD256805F13C0877
:10987000C6E700BF3904030801292DE9F84304D9DC
:109880000239012927D9BDE8F883234B234E1C68F0
:10989000234FDFF89880803C14F1800FF3D0D4F888
:1098A00000900521484626F088FE1E4B994510D0B1
:1098B0001D4B994514BF3D46454626F02CFE2B68AE
:1098C00043F018032B6026F02AFED4F88040803C39
:1098D000E2E73546F1E7104B104E1C68104FDFF8F9
:1098E0004C80803C14F1800FCDD023680D4A934208
:1098F00010D00D4A934214BF3D46454626F00BFE5C
:109900002B6823F018032B6026F009FED4F8804062
:10991000803CE7E73546F1E76047002094C40350F8
:1099200074C403500000015B00000A50B4C403502B
:109930002DE9F0410B687E4A8EB0934205460C46F5
:109940000DF1180803D07B4A934240F0DA80474675
:10995000794ECDF814800FCE0FC796E80F00103661
:1099600087E80F000FCE01AF0FC7002D00F0C780B2
:109970008422002128462BF059F823686C4A934230
:1099800014D06C4A934200F09C806C4E6C4B1B6868
:109990001BB96C496C4806F0A5FB694805F18001CC
:1099A00026F00FFC30460EB0BDE8F08156204FF493
:1099B0007022002765492B600123A44685F85C309E
:1099C0002E1DC5E90B122865BCE80F000FC69CE8E8
:1099D0000F0086E80F00637E012B08BF8DF81D3055
:1099E000A37E23B1012B72D104238DF81230227E85
:1099F000E368012A4FF0000270D155498DF811201B
:109A00008B429CBF05238DF83530524B01213A2003
:109A1000039300F0F7FC0121286D00F0F3FC2369AB
:109A2000DA1F092AB1D8063B8DF81030237E2BB9F6
:109A3000E37EB3FA83F35B098DF81C3001212846DD
:109A400026F066FC06460028A0D1237A217941EA57
:109A500003417B0103F1A04202F57032C2F8AC145D
:109A6000607A617941EA0041C2F8A414A07AA17930
:109A700041EA0041C2F8A814E37E93BBE17AE3799E
:109A800043EA0143C2F898341D23C2F89434206895
:109A900001A901F0ADFF26F045FD2F4B1A7812BB4E
:109AA00001221A7026F044FD06F052FFFFF7A4FCD5
:109AB000002105F12400FFF727FC0146B0B1274E35
:109AC00064E757204FF480120127254973E7022BE2
:109AD0008BD0032B7FF459AF062386E78DF8342013
:109AE00094E71C23D1E726F023FDDFE705F12800EA
:109AF000FFF70AFC064600283FF448AFDFE7194E9F
:109B000044E74646184F0FCF0FC697E8070086E890
:109B10000700002D00F0CF808422002128462AF083
:109B200085FF2368114A934222D0044E3AE700BFD2
:109B30000000015B00000A50F4E30308022000F07B
:109B400060470020B80B00206447002001000F0090
:109B50003F4B4C0040420F001D680020092000F0E0
:109B600001001000012000F028E4030800C00550A7
:109B700029222E462A654FF4802227464F48C5E900
:109B80000B0246F8043B0FCF0FC697E80F0086E89C
:109B90000F00637E012B08BF8DF82630A37E2BB10A
:109BA000012B67D14FF40073ADF82830237E0121DB
:109BB000012B03BF00238DF825304FF4E133E36818
:109BC0003A20089300F01EFC0121286D00F01AFCD9
:109BD00023691A1F0C2AA8D8033B414620688DF838
:109BE000243002F07DFFA36923F47F0323F47F4335
:109BF00023B92A68936843F480339360237A2079E9
:109C0000617940EA0340637AA27941EA0341E67E42
:109C1000A37A42EA03422A4BBEBB1D26C3F8206743
:109C2000C3F83807C3F83017C3F83427E17AE2796C
:109C300042EA0142C3F824270121284626F068FBA6
:109C4000064600287FF4AEAE26F06CFC1D4B1A7859
:109C50002ABB01221A7026F06BFC06F079FEFFF792
:109C6000CBFB002105F12400FFF74EFB0146C8B1F4
:109C7000154E97E6022B02D14FF4807394E7032B25
:109C80007FF453AF4FF440738EE71C24C3F8204792
:109C9000C3F83807C3F83017C3F83427CCE726F0E9
:109CA00047FCDCE705F12800FFF72EFB06460028FD
:109CB0003FF478AEDCE7054E74E600BF0200040016
:109CC00000C003501D680020092000F0012000F0B2
:109CD00070B590F85C50044665B1012D57D103680A
:109CE000404A934256D0404A934279D12E464FF093
:109CF000FF3501E04FF0FF36A06AFFF7F1FB606A25
:109D0000FFF7EEFB0021204626F002FB237F012B0C
:109D100003D104F1600006F055FE94F85C30002B8E
:109D20003AD1206802F05AFE94F85C20002A39D11A
:109D30006B0103F1A04101F57031C1F82027C1F892
:109D40003827C1F83027C1F83427E37F0BB9C1F8B1
:109D500024370021206D00F055FB606AFFF726FBD9
:109D6000A06AFFF723FBFFF7FFFAA36D002B04DDCA
:109D700001232046A36526F047FB1C4D04F180011A
:109D8000284626F022FA2B6833B3002070BD4FF02E
:109D9000FF36ACE70026AAE7012BC5D1206801F009
:109DA00065FCC1E7012AD4D100217001104B00F1FC
:109DB000A04202F5703203EB4616C6F8AC14C2F8A6
:109DC000A414C2F8A814E27F0AB9C6F898240022A5
:109DD0000344C3F89424BCE7064806F095F9D4E799
:109DE0000548D3E70000015B00000A5060470020EF
:109DF00000C0035064470020022000F070B5037FCC
:109E00000446012B0D4616460DD0FFF7BDFC48B9A0
:109E1000324629462046054BFFF7DAFC204626F05D
:109E2000E1FAA06C70BD0248FCE700BFF102030834
:109E3000082000F0034B5A6812B19A6A002AFAD13E
:109E4000704700BF0040065043681249B3FA83F3DD
:109E500010B5C3F11F044B680BB1FFF7EBFF0122F4
:109E60000D4B5A604B689B07FCD4027A437843EA57
:109E7000420343EA04130124427A8B60837A43EA63
:109E800042034B62054B5C60037813B1FFF7D2FFCE
:109E9000CC6010BD004006500060065000500650D7
:109EA000104908B54B6843B930B14B680BB1FFF7A7
:109EB000C1FF01220C4B5A6008BD4B680BB1FFF784
:109EC000B9FF0028F5D1FFF7B5FF0223CB60FFF7FC
:109ED000B1FF0122054B5A60024A53689B07FCD42C
:109EE000EAE700BF004006500050065000600650F0
:109EF000044B9A6AD006FCD419639A6AD206FCD441
:109F0000704700BF0040065008B5FFF793FF0223DB
:109F10000449CB6000230B62FFF78CFF0123CB6069
:109F200008BD00BF00400650044BD3F88420D20681
:109F3000FBD4D3F88400C0F3811070470040005078
:109F400038B5104B0546D3F880300C4603F00303B8
:109F5000022B0BD0032B0DD0012B0FD1FEF7FEFFF0
:109F60000E2305B1286004B1236038BDFFF740F827
:109F70000723F6E7FEF7ECFF0623F2E70023184677
:109F8000EFE700BF0080005038B5184B0546D3F806
:109F900020010C4600F00700062823D8DFE800F077
:109FA000040A0E16121A1E00012305B1286004B11E
:109FB000236038BDFEF7CCFF0523F6E7FEF7FEFF72
:109FC0000323F2E7FFF714F80723EEE7FFF70CF897
:109FD0000223EAE7FEF7BCFF0623E6E7FEF7EEFF03
:109FE0000423E2E700231846DFE700BF00800050AB
:109FF00038B5174B0546D3F828310C4603F0070354
:10A00000013B052B20D8DFE803F003131B0F0B17D0
:10A01000FEF79EFF052305B1286004B1236038BD1B
:10A02000FEF796FF0623F6E7FEF7E2FF0723F2E7C7
:10A03000FEF7C4FF0323EEE7FEF7C0FF0423EAE7C1
:10A04000FEF7D2FF0223E6E700231846E3E700BF4E
:10A050000080005073B50D460021114B0191D3F8DB
:10A060008041064604F00304022C13D0032C0CD0CC
:10A07000012C13D101A8FFF787FF10240EB1019B1B
:10A08000336005B12C6002B070BDFEF7B1FF07244C
:10A090000190F3E7FEF7A8FF0190EFE70C46EDE72C
:10A0A00000800050002337B50193164B0546D3F8C6
:10A0B00020320C4603F00703042B21D8DFE803F01D
:10A0C000030B11161B0001230DB1019A2A6004B184
:10A0D000236003B030BD002101A8FFF789FF1223E0
:10A0E000F2E7FEF785FF07230190EDE726F091F8F0
:10A0F0000A230190E8E7FEF7BDFF09230190E3E79B
:10A100000023E1E70080005038B5104B0546D3F836
:10A1100040310C4603F00303022B0BD0032B0DD070
:10A12000012B0FD126F075F80A2305B1286004B180
:10A13000236038BDFEF79EFF0923F6E726F06CF892
:10A140000C23F2E701230020EFE700BF008000505E
:10A15000002337B50193164B0546D3F860320C4601
:10A1600003F00703013B032B1FD8DFE803F0020EC7
:10A170001914002101A8FFF707FF10230DB1019A60
:10A180002A6004B1236003B030BD002101A8FFF7AD
:10A19000BBFF1123F2E7FEF72BFF07230190EDE74A
:10A1A000FEF722FF02230190E8E70023E6E700BF65
:10A1B00000800050002337B50193164B0546D3F8B5
:10A1C00094320C4603F00703013B032B1FD8DFE852
:10A1D00003F0020E1914002101A8FFF7D5FE102389
:10A1E0000DB1019A2A6004B1236003B030BD002193
:10A1F00001A8FFF789FF1123F2E7FEF7F9FE072315
:10A200000190EDE7FEF7F0FE02230190E8E700235E
:10A21000E6E700BF0080005038B5144B0546D3F880
:10A2200000020C4600F0070004281BD8DFE800F00D
:10A2300003090D111500012305B1286004B1236045
:10A2400038BD25F0E6FF0A23F6E7FEF713FF0923E2
:10A25000F2E725F0E1FF0C23EEE7FEF799FE0F236E
:10A26000800AE9E700231846E6E700BF00800050B7
:10A2700038B5144B0546D3F808020C4600F0070029
:10A2800004281BD8DFE800F003090D111500012395
:10A2900005B1286004B1236038BD25F0BAFF0A2358
:10A2A000F6E7FEF7E7FE0923F2E725F0B5FF0C23FA
:10A2B000EEE7FEF76DFE0F23800AE9E7002318465C
:10A2C000E6E700BF0080005038B5104B0546D3F8D4
:10A2D00040320C4603F00303022B0BD0032B0DD0AE
:10A2E000012B0FD125F095FF0A2305B1286004B199
:10A2F000236038BDFEF7BEFE0923F6E725F08CFF8C
:10A300000C23F2E701230020EFE700BF008000509C
:10A3100038B5104B0546D3F860310C4603F0030303
:10A32000022B0BD0032B0DD0012B0FD125F071FF89
:10A330000A2305B1286004B1236038BDFEF79AFEF8
:10A340000923F6E725F068FF0C23F2E7012300203C
:10A35000EFE700BF00800050B0F5207F1FD009D884
:10A36000B0F5007F15D003D868B1B0F5C07F0AD032
:10A3700000200CE0B0F5607FFAD10B4BD3F88000E1
:10A38000C0F3011003E0084B186FC0F30330013035
:10A390007047054BD3F89000C0F30460F7E7024B19
:10A3A000186FC0F38020F2E70080005002464FF49F
:10A3B0008030104B10B598660020FFF7CDFF50435A
:10A3C00041F671320C4BDC69DA635A6804F480346C
:10A3D00022F4401259B90949884294BF0020012053
:10A3E000000502435A600CB10022DA6310BD044933
:10A3F000F2E700BF0090005000000350005A6202D4
:10A40000002D3101430905D0012B0CD0022B084B44
:10A4100018BF002300F01F0039B103F5805301225B
:10A4200082401A607047034BF4E703F50053F6E7E8
:10A4300068800050648000501FB5002180280446C9
:10A44000CDE9001100F0A58035D85E2846D85E28F9
:10A4500044D8DFE800F0A24343434343434343432C
:10A4600043434343434343434343434343434343BC
:10A47000434343434343A2AAA2AABABABABABAAA66
:10A48000C44DDA714DAAAAAA43434343434343430D
:10A49000AAAAAA79E4AA4343434343434343434319
:10A4A000434343BAA2A2A2DF4D4DE9885EBF4343B6
:10A4B00043434399A200B0F5B06F00F090802DD8CF
:10A4C000B0F5207F71D00CD8B0F5C07F65D0B0F565
:10A4D000007F65D0B0F5807F00F08680009804B0E2
:10A4E00010BDB0F5607F6BD00DD8B0F5407FF5D1D1
:10A4F000FEF74EFD02464FF42070FFF72DFFB2FB32
:10A50000F0F252085AE0B0F5806F5ED0B0F5A06F5F
:10A51000E4D100216846FFF7C5FDDFE7B0F5106F15
:10A5200078D016D8B0F5E06F79D00AD8B0F5C06F02
:10A530006BD0B0F5D06FD1D100216846FFF76CFE2B
:10A54000CCE7B0F5F06FC9D100216846FFF7E0FE17
:10A55000C4E7B0F5406F3DD013D8B0F5206F63D09D
:10A56000B0F5286FBAD10021324B0391D3F8703285
:10A5700003F00303012B02D103A8FFF7C5FD039BE2
:10A580003CE0B0F5486FA9D100216846FFF712FE04
:10A59000A4E7FEF7E3FC0090A0E7FEF7F9FCFAE77A
:10A5A000FEF7DCFC0246204604E0FEF7F1FC024622
:10A5B0004FF42070FFF7D0FEB2FBF0F200928DE76F
:10A5C00001A8FFF7BDFC019AEDE700216846FFF7FF
:10A5D000DBFC83E700216846FFF70AFD7EE70021E8
:10A5E0006846FFF737FD79E74FF0E02302911B69DA
:10A5F0005B0705D5FEF7CCFC0290029B00936DE74C
:10A6000003A902A8FFF780FDF7E700216846FFF7DE
:10A610007BFD63E700216846FFF72AFE5EE7002125
:10A620006846FFF751FE59E700216846FFF790FDA5
:10A6300054E700BF0080005008B58020FFF7FCFE03
:10A64000034B98429EBF4FF48032024B1A6708BDFD
:10A65000005A620200A000501FB503460020B3F567
:10A66000807F019000F0C18064D85D2B55D84C2BC1
:10A6700007D82D2B48D8232B2CD8019805B05DF88E
:10A6800004FB4D3B102BF8D801A252F823F000BF79
:10A69000E1A700087BA600087BA600087BA60008AF
:10A6A00097A700087BA600087BA6000865A80008FD
:10A6B000B5A700085BA700085BA800087BA60008F8
:10A6C0007BA600087BA600087BA600087BA60008E6
:10A6D0006FA80008243B092BCFD801A252F823F021
:10A6E000E1A70008E1A70008E1A70008E1A700082A
:10A6F000E1A700087BA60008D7A700087BA60008F2
:10A7000077A7000817A800083D2B7FD03E2BB4D1B7
:10A71000002001A9FFF7D8FDAFE7802BADD1594B41
:10A720001B6F03F00703013B032BA6D8DFE803F000
:10A73000514E858DB3F5F06F68D021D8B3F5B06F69
:10A7400049D00FD8B3F5607F00F0838095D3B3F57F
:10A75000806F45D0B3F5A06F8FD1002001A9FFF71E
:10A76000A1FC8AE7B3F5D06F55D0B3F5E06FCFD039
:10A77000B3F5C06F81D1002001A9FFF7C5FC7CE7CC
:10A78000B3F5206F6ED00BD8B3F5086F48D0B3F592
:10A79000106F7FF472AF002001A9FFF769FD6CE72D
:10A7A000B3F5406F59D0B3F5486F60D0B3F5286F5B
:10A7B0007FF463AF334BD3F8703203F00303012B04
:10A7C0005AD0022B0CBF1523002300E00523019370
:10A7D00053E70223FBE7002001A9FFF73BFC4CE70E
:10A7E000002001A9FFF7D0FB47E74FF0E0230290DC
:10A7F0001B695B0705D5FEF7CBFB0D230393039B7A
:10A80000E5E703A902A8FFF77FFCF8E7002001A90C
:10A81000FFF77EFD31E7002001A9FFF7FDFC2CE7E3
:10A82000184BD3F8003103F00303022B07D0032B9E
:10A8300009D0012B0BD1FEF7C1FB0323C7E7FEF7BD
:10A8400019FC0923C3E725F0E2FC0823BFE7012335
:10A85000BDE701A9FFF774FB0FE7002001A9FFF78F
:10A86000C7FB0AE7002001A9FFF772FC05E70020FB
:10A8700001A9FFF79FFC00E7002103A8FFF744FCB4
:10A880001123A4E7008000504FF48012034B5A6656
:10A890004FF48032024B9A62704700BF0090005024
:10A8A0000050005A08B5FFF7D7FE092811D00A3822
:10A8B000012802D94FF6FF7008BD4FF48002064B05
:10A8C0005A6603F5D8335B6ADB07F3D54FF4FA70A9
:10A8D000F2E7024B1888EFE7009000501E0F0020AF
:10A8E00038B504468020FFF7B7FE032800F08380C8
:10A8F0004FF48012524B4FF0A0615A6645F60E029B
:10A90000504BC3F88020504A91624FF4803102F5D9
:10A91000805291629A6DD203FCD4996D11F08041FE
:10A92000FBD1D4E90002120542EA0062E07B024357
:10A93000207B42EA0042607B42EA0032A07B42EA8E
:10A9400080121A619869D4E90452120642EA8562BB
:10A9500000F000400243A07EE57E0243207E42EAF2
:10A960000042607E42EA00229A611A6AE06922F09F
:10A970000F0242EA8502354D00283DD11A6294F853
:10A980002420996A94F82000D200294042EA40121B
:10A990000A4394F8211042EA011242F480329A628A
:10A9A0002B49284A936D31EA0303FBD14FF08071A4
:10A9B000254881621369A56823F4700343EA0553AF
:10A9C00013614FF00043836194F822300BB9214B9F
:10A9D000996294F823303BB94FF480321D4B9A6250
:10A9E000184A936D5B00FCD494F825301BB1154BCD
:10A9F000194AC3F8802038BD024342F008020228F9
:10AA00001A6208D119614FF40852996113484FF442
:10AA10007F4125F049FD0B4994F822308A6A94F869
:10AA200020001B062A4043EA4013134394F82420D5
:10AA300043EAC20394F8232043EA02438B62D3E73C
:10AA4000009000500040005A0050005AC7FFFEFE20
:10AA5000030001000060005AF1A7FFFF3440005AD4
:10AA600070B5194CFF28A66A2BD8A36D4FF08071E2
:10AA700013F4803F18BF4FF48032144B18BF9A6212
:10AA80009962134AA36992F9005023F47F030544A5
:10AA900023F47F4343EA002385F3080543EA054393
:10AAA000A36132460B4825F0FFFCA36DDB0301D404
:10AAB000002070BD32464FF48031064825F0F4FC8A
:10AAC000F6E72120F5E700BF0040005A0050005A89
:10AAD000350F00202840005A014B93F900007047C1
:10AAE000350F00204FF4803311481249826A8B627F
:10AAF000836D03F00303032BFAD14FF080730E48EC
:10AB00008B620B4B996D30EA0101FBD101200949A1
:10AB10000865996D8907FCD4054B996D8807FCD5AC
:10AB2000996D8907FCD50549054825F0BDBC00BFD6
:10AB30000040005A0050005A0300010000000101CB
:10AB40002840005AF0B5D0E901434FF400061A4AF4
:10AB50004178057856664FF4D156022702F5B8328F
:10AB60005662164E4F2977604FF0010728BF4F21DC
:10AB700006F5805677601669F603FCD441EA052194
:10AB800051611B01417B43EA04230B43017B43EAF0
:10AB900041039360C37B817B1B0143EA4113417CEA
:10ABA0000B43017C43EA41035360837C13B16FF490
:10ABB000D1535362F0BD00BF00900050001002500E
:10ABC000014B1880704700BF1E0F0020014B1880FA
:10ABD000704700BF1C0F00204FF4800208B5184BCF
:10ABE0005A660223174A5360936813F48033FBD1EB
:10ABF000012822D1FEF7E2F9134B984215D003F554
:10AC0000122303F5F863984213D0104B00EB800237
:10AC1000400AB3FBF0F3520A0A49CA620B630123EC
:10AC20004B620022074B5A6008BD45F67A13084A6A
:10AC3000F2E745F61A03074AEEE75362F1E700BF71
:10AC4000009000500040025000F0490264666666C1
:10AC5000D8B80500BBCF0500B0F5207F10B50C4675
:10AC60005DD008D8B0F5007F4ED003D8C0B1B0F5A4
:10AC7000C07F15D010BDB0F5607FFBD12C4B4C1EB2
:10AC8000D3F8FC202B4912F0807F4FEA041427D11F
:10AC9000D1F8803023F030032343C1F88030E9E756
:10ACA00025F011FC25F01DFC4FF48031224B214A88
:10ACB0001967136F013C23F4704343EA04331367AD
:10ACC000FEF766F90446FFF72FF9C0F102012046AE
:10ACD00025F001FC00F042F8BDE81040FFF7ACBCE5
:10ACE000D3F8FC2022F08072C3F8FC20D1F8802039
:10ACF00022F030022243C1F88020D3F8FC2042F039
:10AD00008072C3F8FC20B5E70A4A4C1ED2F8903096
:10AD100023F0F85343EA0463C2F89030AAE7054AE7
:10AD20004C1E136F23F4806343EA84231367A1E767
:10AD300000ED00E0008000500090005008B50121B7
:10AD4000022000F00FFB25F0BEFB25F0CAFB4FF4FC
:10AD50008032014B1A6708BD0090005008B54FF4CF
:10AD6000C070FFF769FBBDE808400449884294BF02
:10AD7000012102214FF42070FFF76EBF80F0FA022C
:10AD8000B0F5807FF8B50C4600F053816BD85D2894
:10AD90005DD84C2804D82D2844D8232828D8F8BDBD
:10ADA0004D381028FBD801A353F820F013B0000849
:10ADB0009FAD00089FAD00089FAD000803AF0008DD
:10ADC0009FAD00089FAD0008C9B100083BAF000867
:10ADD00093AE0008A9B100089FAD00089FAD000820
:10ADE0009FAD00089FAD00089FAD0008E9B10008C5
:10ADF00024380928D3D801A353F820F013B0000851
:10AE000013B0000813B0000813B0000813B0000816
:10AE10009FAD0008F3AF00089FAD0008C9AE000861
:10AE2000E3B000083D2800F04C813E28B7D1093C32
:10AE3000032C8CBF0021B34BB34A98BF195DD2F8E5
:10AE4000403223F003030B43C2F84032A7E78028C7
:10AE5000A5D18B1E062B00F2C980DFE803F0C4B237
:10AE6000C77FC7C7C100B0F5F06F00F02A813BD89B
:10AE7000B0F5B06F00F0BD801BD8B0F5607F00F07A
:10AE80006D818CD3B0F5806F00F0C380B0F5A06FFA
:10AE900085D1073C0B2C8CBF00219C4B9A4A98BF54
:10AEA000195DD2F8203223F007030B43C2F8203299
:10AEB00075E7B0F5D06F00F01481B0F5E06FB6D053
:10AEC000B0F5C06F7FF46BAF093C032C8CBF002141
:10AED0008F4B8D4A98BF195DD2F8403123F00303A0
:10AEE0000B43C2F840315AE7B0F5206F00F06C8197
:10AEF00017D8B0F5086F00F02181B0F5106F7FF41E
:10AF00004EAF093C062C8CBF0021824B7E4A98BF75
:10AF1000195DD2F8083223F007030B43C2F8083258
:10AF20003DE7B0F5406F00F03F81B0F5486F00F0AD
:10AF30005B81B0F5286F7FF432AF112C00F0648193
:10AF4000A4F115035C425C4164006F4AD2F8703290
:10AF500023F003032343C2F8703220E700250226C2
:10AF60004FF480370121022000F0FCF925F0ABFA04
:10AF700025F0B7FA684B644A1F67136F23F0070385
:10AF800033431367FEF704F80646FEF7CDFFC0F122
:10AF90000201304625F09FFA0121002000F022FA3C
:10AFA000FFF7DCFEFFF748FB002D7FF4F8AE032C23
:10AFB0007FF4F5AE594B5A4A9F62936D5C00FCD406
:10AFC000EDE64FF48012544B0E465A664FF4803231
:10AFD000534B9D6A03F58053C5F300659A62BFE742
:10AFE00000250426BCE700250126B9E700252E46EA
:10AFF000B6E7023C0E2C8CBF00214A4B424A98BF58
:10B00000195DD2F8803123F003030B43C2F880317D
:10B01000C5E6023C052C8CBF0021434B3A4A98BF41
:10B02000195DD2F8203123F007030B43C2F8203119
:10B03000B5E6A1F10904082C3FF6B1AE01A353F81F
:10B0400024F000BF69B0000869B000089FAD000897
:10B0500069B0000897B000089FAD00089FAD0008D8
:10B060009FAD000869B000084FF48032264B2F498D
:10B07000586E03F580535A664B6AC00343F00103D0
:10B080004B625CBF2A4B5A664FF0E022136923F0F3
:10B090000403136183E64FF480321B4B2349586E3F
:10B0A00003F580535A664B6A23F001034B62C103D8
:10B0B0005CBF1F4B5A664FF0E022136943F0040354
:10B0C000E7E7093C032C8CBF00211A4B0E4A98BFBE
:10B0D000195DD2F8603123F003030B43C2F86031ED
:10B0E0005DE6093C062C8CBF0021134B064A98BF35
:10B0F000195DD2F8003223F007030B43C2F8003287
:10B100004DE600BF77E403080080005054E40308D4
:10B1100077E4030870E40308009000500060005AD0
:10B120000040005A81E403087BE4030800C0075094
:10B1300000A0005077E4030870E40308CC1E062C3E
:10B140008CBF0021314B324A98BF195DD2F80031D3
:10B1500023F003030B43C2F8003120E62D49063CDF
:10B16000D1F8FC2012F080721EBFD1F8FC3023F021
:10B170008073C1F8FC30082C8CBF0020264B24497A
:10B1800098BF185DD1F8803023F003030343C1F862
:10B190008030002A3FF403AE1E4AD2F8FC3043F060
:10B1A0008073C2F8FC30FAE5023C052C8CBF00210C
:10B1B0001A4B174A98BF195DD2F8283123F00703BC
:10B1C0000B43C2F82831EAE5023C0F2C8CBF00216A
:10B1D000134B0F4A98BF195DD2F8603223F0070372
:10B1E0000B43C2F86032DAE5023C0F2C8CBF002121
:10B1F0000C4B074A98BF195DD2F8943223F007032D
:10B200000B43C2F89432CAE501249EE669E40308C0
:10B210000080005000ED00E060E403087BE40308D8
:10B2200044E4030844E403080028ABBF00F1604095
:10B23000054B00F5614000F00F00ACBF90F8000333
:10B24000185C0009704700BF14ED00E0034B58681C
:10B25000C0F30800003818BF0120704700ED00E07F
:10B26000054B420953F8223000F01F0023FA00F08A
:10B27000C04300F00100704700E100E0014608B55E
:10B28000EFF31083DB0702D50122104608BDFFF75C
:10B29000E7FF02460028F7D10846FFF7C5FF014641
:10B2A000EFF3118313B1B0EB131FEDD2074B5B68C3
:10B2B000C3F30803002BE8D0103B58B2FFF7B4FFEC
:10B2C00088428CBF00220122DFE700BF00ED00E0D2
:10B2D000024A536B0342FCD1704700BF0040095043
:10B2E000044A4178536F23F4407343EA01235367C0
:10B2F000704700BF004000500A4A10B51369044669
:10B3000043F00403136105F039F925F014F930BF57
:10B3100025F012F905F066F91CB9BDE81040FDF7FB
:10B3200037BE10BD00ED00E0084A10B513690446B1
:10B3300043F00403136105F021F930BF05F052F921
:10B340001CB9BDE81040FDF723BE10BD00ED00E0C4
:10B35000034A0179D36E23F030030B43D366704761
:10B3600000400050F8B504461C4BD3F88420D106A9
:10B37000FBD4D3F88430C3F381139C422CD0FDF767
:10B38000EDFD012C064602D1214625F0A4F825F05A
:10B39000C2F84FF00072124B07465A66204625F05D
:10B3A000D0F84FF480630D4D621E93402B676B6E97
:10B3B0009A0103D4D5F884309B060AD5384625F087
:10B3C000AEF8022C08D13046BDE8F840002125F047
:10B3D00082B8D5F88430EAE7F8BD00BF00400050DD
:10B3E0000060005010B50C4608B9FDF7B7FD074BDB
:10B3F00021461B783BB1064B984204D80120BDE89A
:10B400001040FFF7AFBF0220F9E700BF1E68002021
:10B41000005A62020278034B012100201A70FFF7E4
:10B42000E1BF00BF1E6800204FF0004238B5244B3A
:10B43000244C5A664AF6CD33656C014605F0010589
:10B44000236428BB0120FFF743FF6368DB0715D5A2
:10B450001D4B586008461D4B226BD2070CD49842F6
:10B4600008D1072415B1174B194A1A6431F05FF857
:10B47000204638BD0130EFE79842F2D00024F1E7D2
:10B480000132236B13F0080305D08A42F8D1E8E7B4
:10B4900000220E49F5E78A42E3D020210A4A916250
:10B4A0000121A2F5805251600649084A886A800647
:10B4B00003D49342D5D00133F8E79342DDE700BFD0
:10B4C00000900050004009500060095040420F00B9
:10B4D0003254FFFFF8B54AF6E853174CE56EE66EB6
:10B4E000236625F018F80746FFF728FC134A25F0D5
:10B4F0000305136F45F0020523F0070343F0010332
:10B50000136724F0F3FF0020FFF78EFF46F00306D9
:10B5100025F015F825F014F8094BE566E666E566B2
:10B52000E666E566E666E566E666E56638469B6AD3
:10B53000BDE8F84024F0F3BF004000500080005008
:10B54000004009504FF0004238B5164B01465A668C
:10B550004AF6CD33144C154A656C236443780B20AE
:10B560005B0043F00103D363FFF7B2FE63688A78A0
:10B5700023F4F87343EA02136360CA784B7943EA11
:10B580000223A3600A798B7943EA022323610878B6
:10B59000FFF74AFFEB0744BF054B236430F0C7FFBA
:10B5A000012038BD0090005000400950004000507C
:10B5B0003254FFFF4FF00042124B70B55D6E03F541
:10B5C00080535A664AF6CD3304460F4980204E6CAC
:10B5D0000B64FFF77DFE0B6A23F00F030F2C94BF63
:10B5E000234343F00F030B62F30744BF074B0B6485
:10B5F000002DA2BF4FF00042054B5A6630F097FF76
:10B6000070BD00BF00800050004009503254FFFF61
:10B6100000A000504FF00042104B70B55D6E03F576
:10B6200080535A664AF6CD3304460D4980204E6C4D
:10B630000B64FFF74DFE0B6A23F4F85343EA04232F
:10B640000B62F30744BF074B0B64002DA2BF4FF002
:10B650000042054B5A6630F06AFF70BD0080005012
:10B66000004009503254FFFF00A0005010B524F0F4
:10B670006DFF042300F5805100F500520B6113614A
:10B680000B6113610B6113610B611361202341F2A4
:10B69000020103610023C360836041614FF4A02174
:10B6A0008361836541620549C36103628362C3624A
:10B6B00043630365D164036310BD00BFFF3F0D0307
:10B6C00070B505461446084641B9354B9D4218D021
:10B6D000344B9D4208BF5720FEF7AEFEAB6813F017
:10B6E000010F6B6830D0B0FBF4F4D80704F1FF34DD
:10B6F0004FEA046407D42B6923F07F4323432B6173
:10B7000070BD5620E8E72821284624F01BFFAB6CCB
:10B71000990715D1AB6CDA0714D4AB6C13F0020F98
:10B7200014BF06260026284624F010FF2B69314658
:10B7300023F07F4323432B61BDE8704024F03DBFDD
:10B740000526F0E70926EEE7AB6DDB07AB6848BFDF
:10B75000640003F0E003402B1BD004D8DBB1202BA6
:10B76000CED1082304E0602B17D0802BC8D1012351
:10B7700063434101B1FBF3F20B4B203A284603EA45
:10B78000C202012124F0DEFE2A63BDE8704024F0ED
:10B79000D9BE0623ECE71023EAE70423E8E700BF5D
:10B7A0000000015B00000A50F8FF7F002DE9F8431C
:10B7B0009846436804460E4617461BB140F6FF7193
:10B7C00024F0C0FE2046FFF751FFF189737B6269C8
:10B7D0000B43318A22F44C520B4322F00F021343E5
:10B7E0006361A268317E337B22F0804222F0E20264
:10B7F0000B4313437269D6F808901343A360B9F161
:10B80000000F03D1A36843F00043A360F069002850
:10B8100074D0857A037A6D04A26845EA83556D4B2E
:10B8200013401D43838803F4C0431D43437845EA16
:10B830008305437B45EAC305837B45EA031583788B
:10B8400045EA8325A560D0E90432E5681343624ADE
:10B850002A401343827943EA8223C27943EA42238E
:10B86000E36003785D4A012B14D1E36843F00403DD
:10B87000E360944200F09280594B9C420CBF01233C
:10B880004FF0FF335B0103F1A04342F2944203F512
:10B89000703314E0032B7BD1E36843F00403E360CF
:10B8A000944279D04E4B9C420CBF01234FF0FF33A2
:10B8B00041F294425B0103F1A04303F5703302258A
:10B8C0009D50437A04F5805293621BB1E36843F4C0
:10B8D0000063E360C37A5BB1E36843F40043E36071
:10B8E0003E4B9C425CD1037B3E4A03F00F035367FF
:10B8F000636AC27B23F00303134363623FB197F88B
:10B90000203004F58050002B54D001230362B8F19D
:10B91000000F27D004F5805011B14FF40043836528
:10B920002E4BB8F822109C4298F821304FD02C4A68
:10B9300094420DD10122112B34BF012702272A4D39
:10B94000B1F5006FAF5494BF01270227274DAF54C4
:10B95000A26D0B4322F4F95222F01E021343A36599
:10B96000012383650521204624F00AFEB9F1000F6A
:10B9700003D04A467168FFF7A3FE2046317824F0D1
:10B980001CFEA36CDB4313F4405FFAD1BDE8F883DF
:10B99000023B012B84D96CE7002389E7002371E780
:10B9A0000F4B9C4201BF037B0E4A03F00F03C2F80A
:10B9B00080309DE7E26997F8223097F8215022F015
:10B9C00009022B43134343F00103C3619FE70022A5
:10B9D000B1E700BFE39BBDFFFFF9F0870000015B0B
:10B9E00000000A5000900350216800201F680020CA
:10B9F000F8B5436804460E460D691BB140F6FF7169
:10BA000024F0A0FD2046FFF731FE2269737BB17B55
:10BA100022F087020B43134343F0800323611DBBD5
:10BA2000A368F27B23F00303134343F00103A360F5
:10BA30006369327B23F00F0313436361D6E901127C
:10BA40002046FFF73DFE0521204624F099FD2821E0
:10BA500024F078FD3378A36324F074FDA36CDB43FA
:10BA600013F4405FFAD1F8BD2369297F23F0F8036E
:10BA700043EAC1132978EA7B0B43297943EA41134E
:10BA8000697A43EA011343EA82132361E068D5E946
:10BA9000053720F0F0403B4320F470200343287B1F
:10BAA000697B43EA802343EAC133E360A368F07B08
:10BAB00023F00303034343F00103A3606B88A068F2
:10BAC00003F4C0430343A360A368687943EA802377
:10BAD000A360AB79EF79606A1B013F0203F070034A
