:1000000000100020810F00002505000025050000DC
:1000100000000000000000000000000000000000E0
:1000200000000000000000000000000025050000A6
:10003000000000000000000025050000250500006C
:100040002505000025050000250500002505000008
:1000500025050000250500002505000025050000F8
:10006000250500009502000025050000250500007B
:1000700025050000250500002505000025050000D8
:1000800025050000250500002505000030B50024E9
:100090001248134B01681C700B00403B5A425341FD
:1000A0000371104B05001A000835D0321560D433A7
:1000B0001A688904920B890C92030A431A601A6821
:1000C00009490A401A60C62280230849FF328D5C24
:1000D0005B422B438B54046030BDC04618010020A6
:1000E0000C01002068080020FF3F00F00050004194
:1000F0000122014B1A7070470C0100200022024BB4
:100100009A64D8647047C046180100200122014B50
:100110005A7070470C0100200122014B5A70704741
:100120000C010020014B18657047C04618010020E3
:10013000014B58657047C04618010020F0B5C02239
:1001400080240221454BD205640094601D78444E02
:1001500029431970012154611C7885B00C431C702F
:100160000F2403233578A5432B4333702023936159
:100170003C4A1C3B15781D43157015780D431570CE
:10018000394D2A781440302222432A70374A384D9C
:10019000146A23431362374B374A5A8029602A680E
:1001A000D207D30F002AFAD1344A13605360344A7D
:1001B00013605360334A5C32137082791600052A4B
:1001C00004D0062A02D0072A00D01E004479002C51
:1001D00002D0022C3ED0012480239B01019303799D
:1001E00087785A1E93419B010393437802781B0240
:1001F0001A43C3783F0417431B061F4339012248A3
:1002000001F09EFE214B24061C43039B02901E43DB
:10021000019B2C601E43C0239B021E4339006E606D
:10022000194801F08DFE029B1B01C01A029B400879
:10023000DB04DB0C40031843022380B2A8812A6848
:1002400013432B6004238022AB75114B92001A607C
:1002500005B0F0BD01240023C0E7C046480000609F
:10026000340000604500006032000060000400407F
:1002700000080042000C00400E400000580400201E
:100280006006002018010020006CDC0204201140F0
:1002900000E100E0F0B525490B7EDDB25B0720D51B
:1002A00023484F8B0E8D0268224B0132BFB2B6B28B
:1002B0001A4003D5204B013A1A4301327B07DB0F6A
:1002C0004F839B01BC0701D510242343FC0701D5B4
:1002D00020242343446894420DD10122174B5C3300
:1002E0001A7001231D4205D0154A546810688442D3
:1002F0000AD10B75F0BD04681B02334304349BB272
:10030000640003530260ECE7536804335B009B5ABC
:100310009BB20B855368074901330B4003D506494F
:10032000013B0B4301335360E4E7C0460008004241
:1003300060060020FF00008000FFFFFF1801002082
:1003400058040020064B08304001185C802905D174
:100350004006400F431E9841C0B270474007F9E77E
:1003600000500041074A53699B0B9B0353610222D3
:10037000054B1A729979823A0A439A711A7A92074E
:10038000FCD5704768080020FF500041F8B51C4CB0
:100390000022236E8B4203DD3F320A4053425A4112
:1003A00002239C466434002904D1002A01D0FFF7BF
:1003B000D9FFF8BD0D00402900DD40250023AB42E8
:1003C0001ADB104EAF0434617369BF0C9B0B9B03A7
:1003D0003B43736173690C4F3B40736166460B4B43
:1003E0001E7280269F7976423E439E711E7AB60722
:1003F000FCD5491B4019D6E7C65C1E550133DEE724
:100400001801002068080020FF3F00F0FF50004165
:100410000A0010B5072908D1044C0100023420005D
:1004200001F00EFD2000FFF789FE10BD0C01002039
:10043000134B5A6A198E914220D019000120323193
:1004400008707C211A868A435A620E4A28331100AA
:10045000B0310B6013000A21B4331A68920B920377
:100460000A431A601A6808490A401A60A6228023C3
:100470000649FF32885C5B4203438B547047C04699
:100480009801002068080020FF3F00F00050004164
:10049000064B00211A0010B5323211701A8E7C31D1
:1004A0008A431A86FFF7C4FF10BDC046980100209A
:1004B000030010B55A780078084912020243002060
:1004C0008A420AD1D9799A79090211431C2900DD9F
:1004D0001C210348FFF75AFF012010BD81060000D0
:1004E0002C2200000300832110B55A7800781202F4
:1004F0000243890100208A4210D15A7919791202E7
:100500000A43072A0AD1D9799A7909021143AA29FB
:1005100000DDAA210248FFF739FF012010BDC046C7
:10052000CC220000FEE7C023DB05082219000220D0
:1005300010B543315A600C782043042408700878C1
:10054000A0430870596A0A435A6210BDC022D205FE
:1005500004231100022010B5423153600C7820436F
:100560000870087898430870516A0B43536210BDB5
:10057000C0230422DB059A6042331978023A0A4309
:100580001A707047C0230022DB055A601A0002214E
:100590003F321078014304201170117881431170AB
:1005A0005A6A5A627047F8B5FA270400094EBF002C
:1005B000002C00D1F8BD084B25009C4200DD1D0039
:1005C00030003900684301F045FD0138FDD1641B5E
:1005D000EEE7C046283C0000A0860100030C58400E
:1005E000030A5840030943400F20034002481841C2
:1005F000012318407047C04696690000F7B50F27E1
:100600003A4C0740636B050038000E000193FFF77A
:10061000E5FF7F0040013843812708213843019BD3
:100620009847FFF793FFA06BE36B9847236C032079
:10063000984702230700012834D11D4222D0236CA1
:10064000202098470500FFF7C9FF236C0190380070
:100650009847019B834200D00737002E00D03560B9
:10066000A06BE36B9847FFF783FFC0230422DB05F1
:100670005A61606CE36B9847C0230422DB053800A5
:100680009A61FEBDA06BE36B9847FFF771FF2021D5
:100690003068636B98473068FFF7A0FF656B3900DF
:1006A000A847E2E7811EE26B99431BD12100483144
:1006B0000978002903D01D4201D021209047E36B27
:1006C000A06B9847FFF754FF230048331B78002B9B
:1006D000D2D0AB07D0D4C0230422DB055A6121203D
:1006E000E36BC8E7A06B21309047C5E79801002075
:1006F000F8B5002406000F0020000A4D6B6DA342E0
:1007000000DCF8BDEB6C012B03D139003000FFF7A2
:1007100075FF0228F5D1044B1B78002BF1D1013471
:10072000ECE7C04698010020E80100200300022207
:100730001040134206D0044A0020D26C012A01D195
:100740001340D8B27047C046980100200A4B1A00E7
:1007500058321278002A04D1DA6D196E891A0029EC
:1007600004DC0122002058331A707047596E501C67
:10077000D865885CF9E7C046980100200C4B10B59D
:100780001A0058321278002A04D1DA6D196E891ACB
:10079000012904DC0122002058331A7010BD5C6E60
:1007A000A1184978A05C090202320843DA65F5E72E
:1007B000980100200F4B30B51A0058321278002AE9
:1007C00004D1DA6D196E891A032904DC0122002094
:1007D00058331A7030BD5D6EA918C8788C78000641
:1007E000240420434978AC5C0902204304320843C6
:1007F000DA65EFE7980100200A4B10B51A0058326D
:100800001278002A04D19A6ED96E891A002903DC65
:10081000012258331A7010BD196F541C9C668854FD
:10082000F9E7C046980100200D4B10B51A00583268
:100830001278002A04D19A6ED96E891A032903DC32
:10084000012258331A7010BD196F040A8854891890
:100850004C700432040C000E8C70C8709A66F2E77B
:1008600098010020034B9A6E824201DD1B6F1954E0
:100870007047C0469801002010B5FFF767FF0400DD
:10088000F02806D10120FFF7B7FF0120FFF7B4FFE2
:1008900010BDFE2804D10120FFF7AEFF0220F5E7CE
:1008A000FF2807D10220FFF7A7FF4020FFF7A4FF92
:1008B0000020EBE70020FFF79FFF012C17D0022C50
:1008C00017D0032C17D00323042CE1D10D4ADB00F1
:1008D000D3181C6A207800280FD1FFF78DFF0A4B30
:1008E0000120996E0239C9B2FFF7BCFFD0E700239F
:1008F000ECE70123EAE70223E8E70134FFF77CFF96
:10090000E8E7C0462C2200009801002010B5FFF750
:100910001DFFFFF71BFF0020FFF76EFF10BD70B536
:10092000FFF714FF114C00281BD1FFF721FEC02355
:1009300008200422DB050E4D9A6198602978023A5E
:1009400011432970002198610A48996005782A436B
:10095000027099610123E364E06CC0B2FFF74CFFC1
:1009600070BD0023E3640128F6D1DEE79801002082
:10097000430000603F00006010B5FFF7D4FDFFF7B3
:10098000E5FDFFF7FFFD0020024BD864FFF734FFC1
:1009900010BDC0469801002010B5FFF7D7FE064CE9
:1009A0006064FFF7EBFE6065FFF7E8FE606700201C
:1009B000FFF722FF10BDC04698010020F0B50020CF
:1009C00089B0FFF719FF0020FFF716FFFFF7BEFE03
:1009D000634BDB6C0293012B6BD10026FFF7B6FE55
:1009E0003700340004900090049B009A9B1A0593F2
:1009F000002A00D07DE0012C52D1002F00D1A7E0C9
:100A000007A90E20FFF774FE04000798FFF70CFFFC
:100A100046E0022602232E401D4258D02F000E33FE
:100A20001F401D4230D0FFF7C5FE03902800FFF79E
:100A30007DFE002803D000212800FFF759FE002783
:100A4000474E736F9F420CDB454B079A9B6F1340D9
:100A5000039A9A4201D010231C43012C20D1002676
:100A600070E0280007A9FFF743FE04000128EBD13E
:100A7000079AB36F1340039A9A42E5D05036337801
:100A8000002BE1D10137DBE72800FFF74FFE061E00
:100A900011D039002800FFF72BFE040001284ED0AA
:100AA0006B460120197DFFF7DDFE0220E1B2FFF762
:100AB000D9FE09B0F0BD280007A9FFF719FE040010
:100AC0000128EDD10798FFF7AFFE01963AE0FFF756
:100AD00071FE202307901D4202D0214B986731E020
:100AE000280007A9FFF704FE04000128D8D106005A
:100AF00028E01B4B1A0050321278002A00D07AE707
:100B000058331B780193002B00D074E7FFF71EFECB
:100B10000500002F00D17CE7FFF708FE07A90600BB
:100B20002800002E00D10E20FFF7E2FD040001286E
:100B3000B6D10798FFF778FE002E00D169E70123B0
:100B400000260193009B019F013B029C00934BE711
:100B5000002EA5D039000E20FFF7CAFD04009FE744
:100B600098010020F0B5002087B0FFF745FE002077
:100B7000FFF742FE0020FFF73FFEFFF7E7FD2C4B9B
:100B8000DB6C012B39D1FFF7F9FD0190002834D03F
:100B9000FFF7DCFD02230400060007001C4018429A
:100BA00032D0FFF7C3FD030000275A1E93413C00DB
:100BB000019A0290D3180393300005A9FFF798FD1E
:100BC000050001280CD1029B002B01D0002F03D07F
:100BD0000598FFF729FE0134039B0137BB420ED174
:100BE0000120E1B2FFF73EFE21120220C9B2FFF759
:100BF00039FE0320E9B2FFF735FE07B0F0BD019BD7
:100C0000BB42D9D10E26D7E7FFF7D4FD05A9059041
:100C10003800FFF76DFD05000128E1D1019B01348B
:100C2000A342F1DC00210E20FFF762FD0500D7E7AB
:100C30009801002010B50020FFF7DEFD10BD07B5BC
:100C4000FFF784FD074BFF20DB6C012B07D1FFF77B
:100C5000B1FD01A901900020FFF7D0FC0020FFF7B3
:100C6000CBFD07BD9801002010B5FFF787FDFFF70A
:100C70009AFC0020FFF7C0FD10BD10B50020FFF763
:100C8000BBFD0020FFF7B8FD10BD70B5FFF75EFD9E
:100C90000400FFF75BFD0500FFF78CFD030001205A
:100CA000054205D0C0220821D205044224D091611A
:100CB0000220054205D0C0220421D20504421DD0E5
:100CC00091612A0605D5C0220021D205200617D53C
:100CD0009161FA2080005843FFF765FCC022D205DD
:100CE000106A0007C30F106A126A4007C00F400065
:100CF0001843FFF781FD70BD5161D9E75161E0E70D
:100D00005161E6E770B5FFF755FD0E4B01000E4D42
:100D10000E4C98420BDD0023AB650D4BE3630D4B8E
:100D200063630D4B00202364FFF766FD70BD0B4825
:100D300001F090F90A4BA865E3630A4B63630A4B21
:100D4000F0E7C046009F2400180100209801002011
:100D50002D000020BD000020E5000020207E750051
:100D6000010000203F00002081000020F8B5FFF7BF
:100D7000EDFC08260400002C03D12000FFF73CFD09
:100D8000F8BD2500082C00DD3500044B641B5F6BAB
:100D9000FFF7DCFC2900B847EDE7C04698010020CA
:100DA00010B5FFF7D3FC0323054A03400133400786
:100DB0009363C00F483210700020FFF71DFD10BD77
:100DC00098010020F0B5234D85B0EB6C012B04D0C9
:100DD000FF20FFF711FD05B0F0BD0020FFF70CFD6F
:100DE000FFF7B4FC002303900193019A039B934205
:100DF00002DCFFF7BDFBEEE7FFF7A8FC3F243F2333
:100E00000440184200D14024030611D5FFF79EFB91
:100E100008272600082C00DD3E002B6C3000984788
:100E2000C0B2FFF7E9FCA41BF3D1019B0133DBE760
:100E3000FFF79EFB08272600082C00DD3E006B6BA9
:100E4000A41B0293FFF782FC3100029B9847002C01
:100E5000F1D1EAE79801002010B5FF20FFF7CCFCA4
:100E600010BD10B5FFF7F8FF10BD7047F8B5437817
:100E700002781B021343354A934234D007DC344ACC
:100E800093421FD0334A934221D00020F8BD324A0A
:100E90009342FAD1C37882781B0213432F49304A18
:100EA00041D1002400250C614D61117801330B43C1
:100EB00013700F222B490B7893431A00032313431B
:100EC0000B7027E0284B294ADA670120DEE7C17959
:100ED000837909021943072900DD072124480230DC
:100EE000FFF754FAF1E70024C37881781B02214808
:100EF0000B430121002504600024184A0B40946034
:100F0000D560146155611370002B06D0184802306B
:100F1000FFF714F9FFF726FAD7E7174B19601A689D
:100F2000D207FCD4F6E7154800240025834206D1F9
:100F30000C614D61012113788B431370EAE71C00AB
:100F40008E69CF690025A4197D41F1E721220000B7
:100F500021200000A1210000212300001802002010
:100F60004800006034000060980100201104000077
:100F70000C0100201801002000080042FFFF0000C3
:100F80000F48104BC11E002210B5994203D80333FD
:100F90001A1A920892000C4900F052FF0B480C4BB1
:100FA000C11E0022994203D803331A1A92089200F4
:100FB000002100F0F1FE074A074B9A6000F010F89C
:100FC000000000201801002020250000180100204A
:100FD000680900200000000000ED00E0FEE7C046C8
:100FE0000222E94BF0B55A60C223E84CDB00E84D21
:100FF000A3602B6889B09A0EE64B00AF1B689B0577
:10100000990D0023A3841033E0681842FCD0E24815
:1010100093020B43E062A36293235B00A384173B1C
:10102000FF3BE2681A42FCD0DC4EDD4B7360737804
:101030005BB2002BFBDB0024DA4B01229C60002119
:10104000586000201A60D84B9861D961D74B1900BD
:101050009A631A0050310C70642148321470D44ADB
:10106000596559675D399165D24ADC64DA63D24AC1
:101070009C675A63D14A5C641A64FFF754FAFFF71D
:1010800065FAFFF77FFA2200CD4B01341A605A60EF
:101090000833102CF9D10123CA490F200A781A43CA
:1010A0000A700621C84A1478844321431170C74945
:1010B0000C781C430C7011780840602101431170BA
:1010C0002022C349C8690243CA61C24A7280C24E23
:1010D000327813433370B378DB07DC0F002BFAD17F
:1010E0001F212B68328DBD4D580B084080012A40CE
:1010F00002433285328D980C08408A430243328580
:10110000328DB7499B015B0F0A401B031343012239
:101110003385A74BB34D52421A6602322100280094
:10112000FF3200F039FE7F227562337801211340CF
:10113000337004233278A24D13430C223370338969
:101140009343043A1343338133898B433381102310
:10115000A54932838A7A13438B7202233278134370
:10116000A24A33704C7054709022A14B52009C5490
:1011700020329C5420329C5420329C5420329C5467
:1011800020329C549B4B9C4AAB629C4B2B639C4BE8
:10119000EB63864B9A6280229202DA621C8699483F
:1011A0005C62023032331C70FEF7C8FF964BAB60B6
:1011B000964B6B61964B1B683B61964B1B687B6142
:1011C000954B1B68BB61954B1B68FB61944B5A01A7
:1011D000D3181022BA18125D01345340102CF6D1E6
:1011E00071480022203084460F258E4C1800910053
:1011F000C840010060462940615C11540132082A50
:10120000F4D10022684B68490933DA77FA220023C7
:1012100080200A634B63C0220223D205694C40043C
:10122000906021781943217050618020674C8004C0
:101230009060217819432170906180207A4940059F
:1012400050600C7823430B7004230C789C430C7083
:10125000546A0443546290610A7813430B70514BF3
:10126000514D1B68DB0307D5A869E96901220023FA
:1012700012184B41AA61EB61AA69EB69696B99424B
:1012800027D802D1296B914223D80021FA201218C5
:101290004B412A636B632B00383380221978C023BB
:1012A0009204DB05002900D1EFE0DA612B00002277
:1012B00038331A702B00393380221978C023520436
:1012C000DB05002900D1E2E0DA612B00002239338E
:1012D0001A70B38B1B0743D508239022B38378334E
:1012E000B3720023404952004B70B3542032B354C0
:1012F0002032B3542032B3542032B3542032B3548A
:101300002032B35411334B708A792F3313438B71CE
:101310008023C0204A795B4213434B71314B0C0050
:101320005A69424980050A4002435A612A003C3208
:101330001A605A681140084358605A683C49114085
:10134000802252030A435A605A68920B92035A60F1
:101350001023A27A13430122A372A37A1343A37228
:10136000214B1B7ADB06DA0FFA60002B00DB5EE311
:101370002B1DDC8F0E4B1C661A4B5B689B049B0C71
:10138000082B00D07BE055E0004000410008004001
:10139000246080002860800080BB0000000C0040BA
:1013A0000007210010E000E0180200209801002052
:1013B00018010020010000203F00002081000020D3
:1013C000D8030020580000603C0000605900006015
:1013D0000004004006400000005000413FF8FFFFBD
:1013E000FF8FFFFF68080020FF5000411F510041A0
:1013F000205000419104000001200000F100000095
:10140000FD0000000C010020190100002501000072
:101410000CA0800040A0800044A0800048A0800074
:1014200005150000942400005C000060FFFFFF8FA2
:10143000FF3F00F0AB8FBA4A934200D1B6E239DCED
:101440000222FF32934200D1B0E2013293422BDA02
:10145000822B00D16EE221DC803B0024012B00D8DE
:1014600063E2B04B1433FB602800FA68A3009B587A
:101470003C309847002855D10134032CF4D1202367
:10148000A9498A7913438B7158E09A610EE729784C
:10149000002901D09A6118E75A6116E780225200AC
:1014A0009342ECD00024DCE7934200D181E2C022D9
:1014B0009200F5E7D022D200934226D010DC9B4A5E
:1014C000934200D152E2FF32FF329342EAD1FEF75B
:1014D00049FF8023EA8F5B421343DBB2B37221E002
:1014E00088221201934200D11BE280329342D9D16B
:1014F0002C00EB8F7C342370FEF734FF2378002B15
:1015000010D082238A489C4694E1EB8F1A0A012A64
:1015100000D0B6E02100122C00DD122185483C30BD
:10152000FEF734FF844A804953689B0B9B0353604A
:1015300040234A7913434B7101230B7201227F4BE5
:1015400052421A661023784A13720124338C7C4D60
:101550009BB2FB60FB68002B3AD07A4B6201D31838
:101560003B60714BF868D3189C461B7AD9B27960FE
:101570000121A14088430121F8600B4211D0402095
:1015800071495318597901435971012361460B720E
:10159000694B9B185868EB688004800C002B00D0C6
:1015A000984702217B680B420ED0674A63019B1863
:1015B00080221879524202431A713B68FF33197234
:1015C000AB68002B00D0984701340835082CC1D1F6
:1015D0005E4B5B78002B00D045E2584B996CDA6C7F
:1015E0005B4B39331D780023FB609A4200D149E3FD
:1015F000584B5948CB5C7B60584B1B680133034008
:1016000003D55748013B0343013380245548A400C8
:1016100084465548C46751484468A34200D1EAE271
:101620000468BD88043464002552036001204F4BD8
:10163000802498756346A400013A1C6005000918CF
:10164000F860002AD4D13C4B424C1800E0300460D2
:10165000E4331868464C044080204003204318605F
:101660001868800B80031860F22040234000345C2F
:1016700023433354364B39331D70304B9964DA644D
:10168000C6E2022A05D12100822C00DD82212848F1
:1016900046E7032A39D1DBB2002B06D12100042C06
:1016A00000DD0421234850303AE7062B00D9E6E656
:1016B0006A467A601F4A9B00D3185B6D1800FB6076
:1016C00000F010FC0300694601335B00DA1DD2080C
:1016D000D2008A1A95468446032268464270002248
:1016E0000370811C944508DC21009C4200DD190038
:1016F000FEF74CFE7B689D4614E7FD68AD5C013249
:101700000D7000254D700231ECE70F2A00D0B6E6CF
:101710002100212C00DD21210648703000E7C04661
:1017200001030000AC220000FF5000410203000052
:10173000782300002C2200006808002018010020F7
:10174000D803002000500041005100410C0100204E
:101750001802002018030020FF0000805804002019
:1017600000FFFFFF00E100E004E100E000080042AC
:10177000FF3F00F04578052D5CD17F23847823401E
:10178000FB600323C17842791940037912021A439E
:1017900092050023920D082A15D90133102A12D977
:1017A0000133202A0FDD0133402A0CDD0133802A6A
:1017B00009DD2B00FB35AA4205DD0135FF3501337C
:1017C000AA4200DD01330125002906D06D19012947
:1017D00003D08D1E6A1E9541033507210D40F9681F
:1017E000FA684901F9600721083264B20B405201DE
:1017F000002C77DAB45C69318C432D012543DE4936
:10180000FC68B554611802248D7A1B0725438D723C
:10181000DA4952181579F9682C4314718024157926
:1018200064422C431471D64AD64C51184A6922405E
:1018300013434B6162460378D21AC0189446131EB4
:1018400098D1D14A0133537062468021CF4CD04B9E
:1018500022656265CF4AD04D1A62D04A4903DA61E7
:10186000C74BCF4A1A645A6C2A400A435A645A6CCE
:101870004021920B92035A64A2225200B25C0A43A6
:101880001000A2225200B0548022C54852034018D2
:101890001866586E28401043B2225866586E52009F
:1018A000800B80035866B05C0843B0541800BD4AF2
:1018B000E03002608022E43318685203284010436D
:1018C000186019684022890B89031960F2235B00B4
:1018D000F15C0A43F254AC4AE43BFF3B13706346AD
:1018E00023601FE60721B45C1B078C432543A249F4
:1018F000FC68B55465180121AC7A0C43AC729F4C5E
:10190000121914790C43147140245579F9682C4349
:1019100054719B4A9B4C51184A68224013434B60B8
:1019200088E7280001217C30FAE53C82102302215F
:10193000F818F5E580237F240235ED8F2C401D40FB
:101940000023290020003B82FEF7FCFC002800D188
:1019500095E58A4B08346401E418A379002D03D07F
:101960009B06DB0F3B82E1E7DB06FAE7EB8F002B00
:1019700000D084E50235ED8F7F332C001C401D42E2
:1019800000D17CE501331D4029002000FEF7DAFC80
:10199000002800D173E5794B08346401E4186279BA
:1019A0002023002D00D1102313436371FEF7DAFCCE
:1019B000B8E5EB8F002B00D061E50235ED8F7F336A
:1019C0002C001C401D4200D159E501331D40290067
:1019D0002000FEF7B7FC002800D150E5674B083423
:1019E0006401E3189A79002D11D09206DED52022E9
:1019F00019790A431A71DA795206D7D56A4AA418B6
:101A00004022227019793E3A0A431A71CEE7D20673
:101A1000CCD5102219790A431A71DA799206C5D504
:101A2000614A0121A418202222701A79ECE7524B56
:101A30001B7ADB0700D488E55C4CE36F002B0AD0EF
:101A400028004F4A3C3051688904890C9847FB684C
:101A5000E367FEF787FC402347498A7913438B717C
:101A600001230B7271E50024484B1D6DA5425FD028
:101A70004C482A004A4940301C6500F0E1F9404AD0
:101A8000474B45491364536C194080235B030B4358
:101A90005364536C9B0B9B035364A222402352005C
:101AA000B15C0B43B3547C603E4B404C40336366A7
:101AB0003F4B256623674023E36623000025583308
:101AC0001D70230050331D70E565A566FEF73EFED0
:101AD000F860FEF791FE374AEB009B18F96818682A
:101AE00081426BD15B6898477A68A06E244B2A4983
:101AF000012A73D11A002E4C9032146094331A6864
:101B00008004920B800C920302431A601A68114001
:101B1000862219608023FF32B15C5B420B43B354D1
:101B20000023194A53700122234B38331A7054E5AD
:101B3000164B5D6D002D00D14FE55C65184C1948C2
:101B400040342A002100403000F07AF90C4A124952
:101B50001466536E194080235B030B435366536E28
:101B60009B0B9B035366B22240235200B15C0B4394
:101B7000B35401237B6097E7FF50004100500041C0
:101B800068080020FFFFFF8F0C01002018010020D3
:101B9000D80300200D010000FF3F00F031010000DC
:101BA00098020020180300200750004198010020EF
:101BB00098030020FC230000180200200135132D9B
:101BC0008AD1FB68803B1F2B03D8FF20FEF714FE51
:101BD0008AE7FF210020FEF745FE85E74020604AA6
:101BE0001A635A6B920B920302435A635A6B114069
:101BF000596326228EE7FB68002B05D0594B3933F9
:101C00001D70594B9964DA64802362469B0013600F
:101C1000564B1B78FB60002B43D08023544A52491B
:101C20009B00D3670A005C321078C3B2002800D151
:101C30007DE0002010708022D201BA6080204D4AE1
:101C400080001060002B2CD0BB680A241812454B72
:101C500000259C469A69DB6912196B416446A260B3
:101C6000E3606346012239331A7000280FD0424BDB
:101C70005A6A1043586232331B78002BCDD1FEF7DD
:101C8000D7FBCAE700239B4200D0F3E4C0E70B6810
:101C90005A1C0A60CB18B9681972402ABDD1FEF7E8
:101CA000F5F9304C226963691100194317D0E169D5
:101CB000994203D813D1A369934210D901212F4A25
:101CC00013780B4313700F222D490B7893431A009E
:101CD000032313430B700022002322616361A26877
:101CE000E3681100194313D0E169994203D80FD179
:101CF000A36993420CD91C4B1A79002A02D11B68A4
:101D0000002B01D0FEF7C2F900220023A260E3609D
:101D1000C023DB051B6ADB0001D5FFF7A0FABFF388
:101D20004F8F184B184ADA60BFF34F8FFEE7174A00
:101D3000506884461068844500D17FE75368144892
:101D400004335B009B5A9BB2BB6053680133034072
:101D500003D51048013B034301335360FB686DE733
:101D60009803002018020020180100200C01002018
:101D700004E100E000E100E098010020480000607C
:101D80003400006000ED00E00400FA056006002069
:101D9000FF00008000FFFFFFF0B50500830749D07A
:101DA000541E002A45D003000326CAB202E00135C2
:101DB000013C3ED301332A703342F8D1032C30D991
:101DC000FF220A40150215432A0415430F2C34D96B
:101DD0002700103F3F093E01B4461E001A0010368E
:101DE0006644156055609560D5601032B242F8D1F6
:101DF00001373F01DB190F270C22274022403C000E
:101E0000002A0ED03E1FB608B400A4461A001C1DBE
:101E1000644420C2A242FCD103240136B6009B19BF
:101E20003C40002C05D0C9B21C19197001339C42EA
:101E3000FBD1F0BD03001400C0E72700E2E7C04675
:101E4000F0B5C64600B50F2A41D903270D003E0064
:101E500005430C0003002E402F423DD11500103DDC
:101E60002D09A8462D01AC46844427681D001F603B
:101E700067685F60A7689F60E7681034DF601033B1
:101E80006545F2D145460F230C2401352D01491932
:101E900013404519144222D08C59AC5104369C1B76
:101EA000032CF9D8043B9B0801339B00ED18C9189B
:101EB00003231A40561E002A06D00023CC5C1A00C9
:101EC000EC5401339642F9D180BCB846F0BD050010
:101ED000561E002AF1D1F7E70500561EEDE71A005D
:101EE000F6E7C04610B583070AD00300032102E0DD
:101EF00001330B4205D01A78002AF9D1181A10BD07
:101F0000030019680C4A0D4C8A188A4322420FD1EB
:101F10005968094A04338A188A43224208D1596809
:101F2000054A04338A188A432242F1D000E0013383
:101F30001A78002AFBD1E1E7FFFEFEFE8080808058
:101F4000002243088B4274D303098B425FD3030AF8
:101F50008B4244D3030B8B4228D3030C8B420DD30B
:101F6000FF22090212BA030C8B4202D31212090299
:101F700065D0030B8B4219D300E0090AC30B8B42D7
:101F800001D3CB03C01A5241830B8B4201D38B0385
:101F9000C01A5241430B8B4201D34B03C01A52412A
:101FA000030B8B4201D30B03C01A5241C30A8B426D
:101FB00001D3CB02C01A5241830A8B4201D38B0258
:101FC000C01A5241430A8B4201D34B02C01A5241FC
:101FD000030A8B4201D30B02C01A5241CDD2C3096E
:101FE0008B4201D3CB01C01A524183098B4201D3EA
:101FF0008B01C01A524143098B4201D34B01C01AD5
:10200000524103098B4201D30B01C01A5241C3084C
:102010008B4201D3CB00C01A524183088B4201D3BB
:102020008B00C01A524143088B4201D34B00C01AA7
:102030005241411A00D20146524110467047FFE713
:1020400001B5002000F0F0F802BDC0460029F7D02D
:1020500076E7704703460B437FD4002243088B4248
:1020600074D303098B425FD3030A8B4244D3030B1F
:102070008B4228D3030C8B420DD3FF22090212BAE4
:10208000030C8B4202D31212090265D0030B8B4260
:1020900019D300E0090AC30B8B4201D3CB03C01A4A
:1020A0005241830B8B4201D38B03C01A5241430B25
:1020B0008B4201D34B03C01A5241030B8B4201D315
:1020C0000B03C01A5241C30A8B4201D3CB02C01A80
:1020D0005241830A8B4201D38B02C01A5241430AF8
:1020E0008B4201D34B02C01A5241030A8B4201D3E7
:1020F0000B02C01A5241CDD2C3098B4201D3CB018E
:10210000C01A524183098B4201D38B01C01A52413C
:1021100043098B4201D34B01C01A524103098B4240
:1021200001D30B01C01A5241C3088B4201D3CB002B
:10213000C01A524183088B4201D38B00C01A52410E
:1021400043088B4201D34B00C01A5241411A00D2BE
:1021500001465241104670475DE0CA0F00D0494227
:10216000031000D34042534000229C4603098B4297
:102170002DD3030A8B4212D3FC22890112BA030A1F
:102180008B420CD3890192118B4208D389019211A1
:102190008B4204D389013AD0921100E08909C30926
:1021A0008B4201D3CB01C01A524183098B4201D328
:1021B0008B01C01A524143098B4201D34B01C01A13
:1021C000524103098B4201D30B01C01A5241C3088B
:1021D0008B4201D3CB00C01A524183088B4201D3FA
:1021E0008B00C01A5241D9D243088B4201D34B0015
:1021F000C01A5241411A00D20146634652415B1057
:10220000104601D34042002B00D549427047634637
:102210005B1000D3404201B5002000F005F802BD7C
:102220000029F8D016E770477047C046050109003D
:10223000A101150026FF00750895400900818275EF
:1022400008954009009182C001000000A52400000B
:1022500002000000B2240000030000003802002049
:1022600004000000D424000012011002EF0201401B
:10227000862866000001010203010000040309042E
:1022800000000000A5240000B22400003802002055
:10229000DA240000EF24000004250000050F2100CF
:1022A000011C100500DF60DDD88945C74C9CD26554
:1022B0009D9E648A9F00000306AA00200000000083
:1022C000B10400006D0E0000E50400000A000000EB
:1022D00000000306AA00080002000100A00014008C
:1022E000030057494E555342000000000000000013
:1022F00000008400040007002A0044006500760006
:1023000069006300650049006E007400650072009A
:102310006600610063006500470055004900440005
:102320007300000050007B00430044004200330073
:1023300042003500410044002D00320039003300D6
:1023400042002D0034003600360033002D004100DD
:102350004100330036002D003100410041004500AE
:1023600034003600340036003300370037003600C2
:102370007D000000000000000902820004010080CE
:10238000FA09040000020300000409211101000100
:10239000221C0007058103400001070502034000DD
:1023A000010904010002FF000005070503024000C7
:1023B0000007058402400000080B0202020200062A
:1023C0000904020001020200000524001001042497
:1023D00002060524010203052406020307058503FE
:1023E00040000109040300020A00000007058602FC
:1023F0004000000705070240000000000000000048
:1024000079080000010000000D0900000200000032
:102410001F0900000300000079090000040000000B
:102420009909000005000000BD0900000600000039
:10243000650B000007000000350C000008000000DC
:102440003F0C000009000000690C00000A000000B9
:102450007B0C0000100000008B0C0000110000003D
:10246000050D0000120000006D0D000013000000BB
:10247000A10D00001D000000C50D000014000000AB
:10248000630E000015000000590E00001600000049
:102490006B0E000030313233343536373839414233
:1024A000434445460053656565642053747564690B
:1024B0006F0053656565642053747564696F2058B7
:1024C00049414F206E7266353420434D5349532D98
:1024D00044415000322E302E3000434D5349532D8D
:1024E000444150207631204164617074657200432C
:1024F0004D5349532D444150207632204164617040
:10250000746572005669727475616C20434F4D2D6D
:08251000506F727400FFFFFF21
:04251800F8B5C0460C
:04251C00F8B5C04608
:10252000C022082110B5084BD2059B6D002800D1B0
:1025300010BD1C005161013CFDD11C009161013CAA
:10254000FDD10138F2E7C04618010020C02308225F
:10255000DB05013800D270475A619A61F9E70F4BE9
:10256000F0B59C6D01239C46C0230022042508265B
:10257000DB058A4200DBF0BD674638420BD09D6127
:1025800027005E61013FFDD127009E61013FFDD123
:1025900040080132EDE75D61F2E7C0461801002016
:1025A0000022F0B5C0240100082610000A4BE40503
:1025B0009D6D8A4200DBF0BD2B006661013BFDD1C1
:1025C000236A2F00A661013FFDD101279B083B40F4
:1025D0009340D2191843ECE718010020C02370B5CE
:1025E0000022012604240825DB058A4200DB70BD99
:1025F000304205D09C615D6140089D610132F4E785
:102600005C61F8E7002270B5C024010008251000C5
:102610000126E4058A4200DB70BD6561236AA5617D
:102620009B083340934001321843F3E7010100C295
:082630000100000008FFFFFF9C
:0400000300000F8169
:00000001FF
