:020000022000DC
:1070000000000420BD800600F5800600D96306005C
:10701000F9800600E5630600EB630600000000004F
:10702000000000000000000000000000250E03002A
:107030000181060000000000BF0E0300CF0E030018
:1070400031C30600411906000781060007810600CA
:1070500007810600078106000781060007810600F8
:1070600007810600078106000781060007810600E8
:1070700007810600BDC70600078106000526060039
:1070800007810600078106000781060007810600C8
:1070900007810600078106000781060007810600B8
:1070A00007810600078106000781060007810600A8
:1070B0000781060009E60200000000000000000051
:1070C0000781060007810600078106000781060088
:1070D0000781060007810600078106000781060078
:1070E00007810600078106000781060000000000F6
:1070F0000000000007810600000000000781060074
:1071000010B5054C237833B9044B13B10448AFF3E1
:1071100000800123237010BD906F0020000000004C
:10712000DC94070008B5034B1BB103490348AFF3D8
:10713000008008BD00000000946F0020DC94070070
:10714000154B002B08BF134B9D46A3F5803A002139
:107150008B460F461348144A121A48F091FF0F4B02
:10716000002B00D098470E4B002B00D098470020F2
:10717000002104000D000D48002802D00C483FF00B
:10718000CBFE48F077FA200029000BF0F3FE3FF029
:10719000C0FE00BF00000800000004200000000046
:1071A000D12E0300906F0020F87E0120196F060099
:1071B000000000007047000008B50F490F4809F0B3
:1071C000D5F901210E2009F049FD01210D2009F01A
:1071D00045FD01210C2009F041FD01210E2009F09F
:1071E000ADFD01210D2009F0A9FD01210C20BDE814
:1071F000084009F0A3BD00BFB53C07007C82002019
:1072000008B500210E2009F099FD01210D2009F09B
:1072100095FD01210C2009F091FD4FF4967009F0C5
:1072200069FC01210E2009F089FD00210D2009F0E3
:1072300085FD4FF4967009F05DFC01210D2009F0E9
:107240007DFD00210C2009F079FD4FF4967009F0C6
:1072500051FC0C20012109F071FD4FF49670BDE83E
:10726000084009F047BC000030B53B493B4891B0AD
:1072700009F07CF900F090FC044660B138493748C9
:1072800009F05CF921460A22344809F0AFF90024DC
:10729000204611B030BD3349304809F067F94FF44A
:1072A000805000F00BFD054648B12F492B4809F0EE
:1072B00045F90A222946294809F098F9E8E72B49B7
:1072C000264809F053F940224FF48051284800F035
:1072D00043FD044620B92749204809F047F9D7E77C
:1072E00025491E4809F042F940222946684648F0DF
:1072F000C7FE40224FF48051684600F063FD04460B
:1073000008B91E49E8E71E49144809F017F969460B
:10731000124809F013F91B49104809F027F969468A
:10732000134849F061F908B91749D5E717490B48DF
:1073300009F004F90E49094809F000F91449074811
:1073400009F0FCF86946054809F0F8F811490348C6
:1073500009F00CF92C469BE76C380700B483002039
:10736000A4380700D2380700FC380700303907007E
:107370004E3907006739070095390700B339070010
:10738000E0390700F7390700F9390700353A0700F7
:107390005C3A0700673A07002DE9F041012102201D
:1073A00009F0CCFC01210B2009F0C8FC01210920C7
:1073B00009F0C4FC01210A2009F0C0FC0024114F8F
:1073C000DFF85480104E2546385D09F001FD98B96C
:1073D000013531460D48013409F0C8F8042CF3D1C9
:1073E000002D0BBF0124002409490A49074809F070
:1073F000BDF82046BDE8F08101280CBF414631466A
:10740000E8E700BF68380700073D0700B4830020A5
:10741000123D0700193D0700FB3C07002DE9F0472E
:1074200086B017469A460C4609F052FB2D49804615
:10743000684609F0ECF9384649F042FA06464FEA48
:10744000400909F045FBA0EB080050453FD22368F6
:1074500020461B699847002835D0236820465B6981
:107460009847C1B2684609F04EFA029B9E422AD85C
:10747000394603A809F0CBF903A9684609F08BFA4D
:10748000054603A809F078F975B11749174809F0BE
:1074900055F86946154809F05FF8684609F06CF937
:1074A000284606B0BDE8F087029B4B450BD99A1BD6
:1074B000694603A809F084FA03A9684609F0F2F9BD
:1074C00003A809F059F9012009F014FBB9E70849AC
:1074D000064809F033F86946044809F03DF80025EC
:1074E000DBE700BF54860700F03C0700B4830020B0
:1074F000CF3C070000000000F0B52DED028B0546E3
:1075000083B04D494D489FED4E8A09F02FF80A246B
:107510001F2009F05DFB07EE900AF8EEE77A0520E0
:1075200038EE278A09F0E6FA013CF1D14549434893
:1075300009F004F8B2EE047AC8EE077A9FED427AB9
:1075400067EE877A9FED417A67EE877A17EE900AA9
:1075500046F0C2FD032302460646009337480B4619
:107560000F4609F007F93A49344808F0FFFF30A305
:10757000D3E900233046394647F078F838B1354929
:107580002E4808F0F3FF21460D2009F0A9FB3249EF
:107590002A4808F0EBFF00210D2009F0FFFB2F49DE
:1075A000264808F0E3FF642009F0A4FA2C49234898
:1075B00008F0DCFF42F210732A4A2B492846FFF7F5
:1075C0002DFF044660B929491C4808F0CFFF00216F
:1075D0000D2009F085FB204603B0BDEC028BF0BD09
:1075E0002349164808F0C2FF00210D2009F078FB5E
:1075F0002049124808F0BAFF1F49104808F0B6FFAA
:107600001E49194808F0B2FF42F21073154A164994
:107610002846FFF703FF044608B91949D4E714497F
:10762000064808F0A3FF1749CEE700BFAFF300807C
:107630006666666666660A407D3A0700B483002087
:1076400000000000933A07000D68533B7D7D3D40EC
:10765000BF3A0700C23A0700FB3A07001B3B07008E
:107660004A3B0700E43D07007C8200207C3B07008A
:10767000C13B0700E43B0700143C0700463C070001
:107680005A3C07009F3C0700F0B53649364897B092
:1076900008F06CFF354B1D682B6828469B6898479F
:1076A000044628B93249304808F060FF314948E0C3
:1076B00031492D4808F05AFF2B680021DB6D284620
:1076C000984709F005FA42F20F77064609F000FAEA
:1076D000801BB84242D82B6829465B6F03A89847A5
:1076E00003A801F0D9F80446002830D023491E48E9
:1076F00008F024FF03A9684601F0B4F869461A4867
:1077000008F02AFF684609F037F81D49164808F0C6
:1077100015FF03A9684601F02DF96946124808F0E3
:107720001BFF684609F028F803A801F057F82B68FA
:107730002846DB6898479CB112490B4808F016FFB1
:107740001149124808F012FF204617B0F0BD0A2078
:1077500009F0D0F903A801F041F8B7E70024E6E703
:107760000B49A0E7233D0700B48300200C4307002A
:107770003D3D0700583D0700663D0700863D070078
:107780009D3D0700A63D0700DB3D07007C820020F1
:10779000E93D07007047000070B5184D0024285DD2
:1077A0000321013409F05AFA042CF8D1144E0024B4
:1077B000A55D0121284609F051FA0134002128462F
:1077C00009F0BCFA042CF3D101210E2009F088FA4B
:1077D00000210E2009F0E2FA01210D2009F080FAC3
:1077E000C82009F087F90749074808F0BFFE054996
:1077F0000648BDE8704008F0B9BE00BFBB400700B6
:10780000BF400700243E07007C820020B483002094
:1078100070B590B0FFF7C0FF5D48FFF7CDFC5D4944
:107820005D4808F0A3FE5A48FFF7EAFC5B495A4856
:1078300008F09CFE5648FFF75FFE0546002840F022
:1078400081805749544808F091FE5649524808F043
:107850008DFE4F48FFF7A0FD0446002874D1524921
:107860004D4808F083FE51494B4808F07FFE4848D8
:10787000FFF70AFF054600286CD14D49464808F03D
:1078800075FE4C49444808F071FE4148FFF7ECFC96
:107890000446002864D148493F4808F067FE47493C
:1078A0003D4808F063FE4649464808F05FFE4449FB
:1078B000394808F05BFE002C58D043493648434D08
:1078C00008F054FE4249344808F050FE002000F011
:1078D000F5F9064600284FD03E492F4808F02EFE05
:1078E0000A2231462C4808F081FE15220021284644
:1078F00000F032FA002844D03749274808F036FE15
:1079000040220021684648F0BBFB40220021684627
:1079100000F058FA002836D030491F4808F00EFE13
:1079200069461D481A4D08F021FE2D49254808F0EA
:107930001DFE2B49184808F019FE34B32846FFF7FE
:107940005FFCFAE727497DE72749134808F00EFE58
:107950002C4688E72549104808F008FE254690E7A0
:1079600023490D4808F002FE2C4698E721490A48B1
:10797000214D08F0FBFDA5E72049074808F0F6FD7A
:10798000B3E71F49B9E71F49CBE710B070BD00BF8F
:10799000AC6F0020553E0700B4830020763E070000
:1079A0008C3E0700B63E0700C73E0700E73E0700D3
:1079B000FE3E07002A3F07003E3F0700643F0700E6
:1079C000863F07007C820020923F07002F3E070081
:1079D000C13F0700E43F070004400700654007007F
:1079E000A8400700A13E0700D73E0700143F07004C
:1079F000513F0700A93F0700423E07003C390700FE
:107A0000374007007C40070010B5074C204600F0C7
:107A1000F7FA2046054A06493FF079FA0548BDE8DD
:107A20001040FFF7C7BB00BFB06F00200060002010
:107A300021800200AC6F002010B54FF4E13190B00E
:107A40001F4807F09BF94FF416511E4807F096F9AE
:107A50000221012009F002F94FF47A7009F04AF886
:107A6000012009F0B5F938B91749154808F07EFD2D
:107A7000FFF7CEFE10B010BD1448FFF79DFB00F0DD
:107A80008BF804460028F5D101464022684648F0AC
:107A9000F7FA21464022684600F094F90C496846FE
:107AA00048F0A2FD0028E5D10A490548074C08F036
:107AB0005DFD2046FFF7A4FBC82009F01BF8F8E79E
:107AC000B48300207C820020C3400700AC6F0020FC
:107AD0002F3E0700D9400700024B800143F001030D
:107AE000184700BF40410700F7B508F0F1FF054611
:107AF00008F0EEFF134E044641F2873733680193D6
:107B0000019B1B0703D5019810F0807012D008F07C
:107B1000DFFF001BB0F5FA7F02D308F0D9FF04465F
:107B200008F0D6FF401BB84206D90749074808F0BD
:107B30001DFD0D2003B0F0BD4FF4FA70FFF7CCFF30
:107B4000DCE700BF049602400A410700B48300202E
:107B500038B50F4D06232B7001236B7000236B711A
:107B6000AB70EB70FFF7C0FF044658B90246014600
:107B7000284644F051FD044630B101460A2205482A
:107B800008F034FD204638BD6420FFF7A5FFF9E773
:107B9000D86F0020B4830020434B73B543491C4683
:107BA0000022086844F8042B58605A7488881A74B4
:107BB000D1F80610DA730122C3F80A105A733C4A4E
:107BC000A0804FF00311072098741C46C2F81416C9
:107BD00000221146204644F099FC00BB354D4FF47D
:107BE00000730126ADF80430E88066232B706E70B8
:107BF000AE70EE7028716E71FFF776FF044658B9CB
:107C000002460146284644F007FD044678B10A22A0
:107C10002146294808F0EAFC204602B070BD6425E0
:107C20004FF47A70FFF758FF013DF9D1D0E7642097
:107C3000FFF752FF99236C712B70FFF755FF044635
:107C40000028E9D102460146284644F0E5FC0446F6
:107C50000028DCD16420FFF73FFFFFF779FF0446DF
:107C60000028D9D103232E706B706E71AE70EE7048
:107C7000FFF73AFF04460028CED1024601A9284664
:107C800044F0CAFC04460028C1D16420FFF724FF59
:107C9000FFF72AFF04460028BED1054B1E60FFF700
:107CA00023FF0446B8E700BFC46F0020004107006F
:107CB00000900240D86F0020B483002010B5044625
:107CC000FFF712FF58B9FFF743FF40B921460120E3
:107CD00044F06AFD18B9BDE81040FFF705BF10BDBC
:107CE000F8B505460E461746FFF7FEFE044698B95E
:107CF000FFF72EFF044678B93A463146284644F04D
:107D00002BFD044618B9FFF7EFFE044620B10A2206
:107D10002146024808F06AFC2046F8BDB4830020E2
:107D2000F8B505460E461746FFF7DEFE044678B95D
:107D30003A463146284644F023FD044618B9FFF779
:107D4000D3FE044620B10A222146024808F04EFC28
:107D50002046F8BDB48300202DE9F04107460E46C9
:107D6000904648F0ADFD041D24F00304B4F5807F77
:107D7000054606D90F49104808F0F8FB0020BDE879
:107D8000F081444501D90D49F5E70D4B22461846CF
:107D9000002148F075F92A46394648F073F8002268
:107DA000425521463246FFF79BFFB0FA80F040096A
:107DB000E5E700BF46410700B4830020904107007B
:107DC000E06F002070B50E4615460021044648F0CD
:107DD00057F90DB9002070BD324629462046FFF7FD
:107DE0009FFF0028F6D12C4404F8010C0120F2E793
:107DF00010B586B0C3688DF80F10186801220368AB
:107E00000092DC680DF10F010DF11703A0479DF8FA
:107E1000170006B010BDF8B5427A036804460E4656
:107E2000CFB29B680D0A62B939469847236860F360
:107E300007069B6829462046984760F30F26B0B294
:107E4000F8BD29469847236860F30F269B6839469A
:107E50002046984760F30706F1E713B5C368186832
:107E600003680092DC680B46A04702B010BD704763
:107E70007047C368186810B103685B68184770479B
:107E8000704773B543686D469942044685E806001D
:107E90000E4604D1BDF8042003899A420FD0E3684E
:107EA0009DF80420186808213BF09BFBE3683146ED
:107EB00018683BF0B3FB0098AB886060238102B088
:107EC00070BD10B5142104463FF048FA204610BD9D
:107ED00073B5C568044625B904203FF027FAE06071
:107EE0000560E3681B6883B954203FF01FFA4FF028
:107EF000FF3694F9123094F9102094F9111000967D
:107F000005463BF029FBE3681D6002B070BD000030
:107F100010B5044606F049FE84423BBF2401024BE3
:107F20004FF0FF30185710BD5860002038B50A20B8
:107F3000FFF7EEFF05460B20FFF7EAFF0446092096
:107F4000FFF7E6FF094B0A4A1A60012100225A6036
:107F50001A725972DA6098741D745C741846054A76
:107F60000549BDE838403EF0D2BF00BFE0700020B8
:107F7000DC41070000600020817E02000020704785
:107F8000002000F0C5B913B50446012201A9002064
:107F900000F01AF9237C4BB1012809D19DF8041097
:107FA000002000F06DF9019802B010BD0128FAD050
:107FB0004FF0FF30F8E7002000F062B970B50646D8
:107FC00000200D4600F000F9337C044633B1002850
:107FD00004DD02462946002000F038F9204670BD35
:107FE000002000F033B9002000F0BCB908B5002033
:107FF00000F07EF918B1012008F07CFDF7E708BD1C
:1080000010B500234FF47A72C0E90132034A0260CE
:108010000446037400F06AF9204610BD18420700B8
:1080200070470369C1688B429DBF8268D21802F114
:10803000FF3203F1FF3394BF501A581A70472DE9ED
:10804000F041D0E902670446F61B40689642884634
:108050001546384407D947F015FFBFF35F8F3D44FD
:10806000E560BDE8F0813246AD1B47F00BFF2A46C4
:1080700008EB0601606847F005FFBFF35F8FEFE78D
:108080002DE9F843C5680646894617464FF00008B3
:108090003469B3687068A54228BFE418013C621BCC
:1080A0005C1BBC4228BF3C46944228BF144649464C
:1080B0002246284447F0E6FEB3682544A044A14484
:1080C0003F1BAB4208BF0025BFF35F8FF560002F59
:1080D000DED14046BDE8F88308B5144BA822002144
:1080E000184647F0CDFF0322026111494261114A4F
:1080F0008161C2614FF48062026200228262426248
:10810000C26201660C49416610218166034602671E
:10811000C2664267BFF35F8F084911F8010D98549A
:108120000132102AF9D1BFF35F8F08BD287E0120EC
:108130003842070004710020F4700020514207000B
:108140002DE9F84F1F4B16461A78532A81468A4666
:10815000984601D0FFF7C0FF182707FB09873D6F3E
:10816000D7F86CB05D452BD9BC6E796E641BB442F8
:1081700028BF344629445046224647F083FEBB6E52
:108180002544A244361BAB4208BF0025ABEB050BD0
:108190005E4528BF5E4656B1182303FB098332466D
:1081A000596E5046294447F06DFE3444354424B19D
:1081B000182303FB0988C8F870502046BDE8F88FE3
:1081C0000024E3E7287E012010B50B46EFF311846D
:1081D0004FF0200181F311881946FFF7B1FF84F3B6
:1081E000118810BDF8B5184C182300FB033503FBAC
:1081F00000402544C46A012C0F46164611D003D313
:10820000022C1BD000240AE02846FFF70AFF864212
:1082100005D8324639462846FFF711FF3446204636
:10822000F8BD2846FFF7FDFE8642344628BF0446C7
:10823000224639462846FFF702FFF0E72846BDE808
:10824000F840FFF71DBF00BF287E0120F8B50B4B9B
:108250001B78532B05460E46174601D0FFF73CFF0F
:10826000EFF311844FF0200181F311883A46314633
:108270002846FFF7B7FF84F31188F8BD287E012058
:10828000F8B5194C2378532B05460E4601D0FFF75D
:1082900023FFEFF311874FF0200181F3118818239A
:1082A00003FB0543586A196A421C914208BF002229
:1082B000D96A022902D1996A9142FBE7182303FB8C
:1082C0000541D1F828C094450BD005FB03331C446D
:1082D00063681E54BFF35F8F01204A6287F31188E1
:1082E000F8BD0020FAE700BF287E0120FFF7F4BEAA
:1082F000064A182303FB0020826A436A9A4291BF10
:10830000981A006A8018C01A704700BF287E0120A2
:10831000094A117801F0FF0359B1182303FB002229
:10832000136FD06E834285BF926E9B18C01A181AC5
:1083300070471846704700BF287E0120084B1A7806
:1083400052B1182202FB0030036FC26E934203D079
:10835000426ED05CC0B270474FF0FF30704700BF34
:10836000287E012010B5EFF311844FF0200181F336
:108370001188FFF7E3FF84F3118810BD704710B533
:108380005C2104463EF0EAFF204610BD0B4A026025
:108390001F210022C0E90921C0E90B2280F8342006
:1083A00080F83520C0E90E220264A0F8442080F84D
:1083B0004620C0E91222C0E9152270475C4207003E
:1083C00000231F22C0E90A23036380F83530C0E987
:1083D0000E33036480F84630C0E91233C0E9153328
:1083E00070478B6A8362CB6AC3620B6B036391F83D
:1083F000343080F8343091F8353080F835308B6B7C
:108400008363CB6BC3630B6C0364B1F84430A0F897
:10841000443091F8463080F846308B6C8364CB6CE6
:10842000C364B1F85030A0F850304B6D43658B6D8C
:108430008365704708B5FFF7D4FF08BD70B50546E2
:1084400086B068460E4603F047FBEC6C6846002C8D
:10845000CCBF0234002403F07DFB0230241AA86A4A
:10846000241808D4AC62AE64684603F073FBE86479
:10847000012006B070BD0020FBE710B5036C23B1EE
:1084800090F84640023304B10233941C1B1B846AEB
:108490001B1958BFC0E90F124FF000045BBF80F8F2
:1084A000464083622046012010BD30B5046C24B1E3
:1084B00090F84650023405B102341D1D641B856AD4
:1084C00064195FBFC0E90F230123A0F8441080F8AE
:1084D000463056BF84620020184630BD30B5846DEA
:1084E000002CCCBF043400241D1D641B856A641954
:1084F0005DBFC0E91523A0F850108462002058BF6A
:10850000012030BD70B50546806B0E4688B10478F9
:1085100014B148F0D5F9841C304648F0D1F9023046
:10852000241AA86A24185DBFAC62AE630120002043
:1085300070BD0446F0E790F83530826A002B0CBF1E
:108540006FF0020300239B185FBF8362012380F852
:10855000353080F8341054BF18460020704704307E
:108560007047406A704790F83500704738B5044648
:10857000406AC0F11F039342154608DB04302044D3
:1085800047F080FC626A2A446262012038BD002004
:10859000FCE770B50446406A0E461D46114602339C
:1085A000C0F11F029A420FDB23186A1C1A71821C49
:1085B0000630626220445E712A4647F063FC636ABB
:1085C0002B446362012070BD0020FCE770B586B0CB
:1085D0000546684603F080FA684603F0BBFA0228B5
:1085E00004466846CCBF0626022603F0B1FA2346AD
:1085F000024631462846FFF7CCFF06B070BD134651
:108600000A46FF21FFF7C5BF70B588B008AC064623
:1086100024F8201D10461D461A4601460DF10200A1
:1086200047F030FCAB1C2246FF213046FFF7B1FF7C
:1086300008B070BD70B588B008AC064624F8201D9F
:1086400010461D461A4601460DF1020047F01AFC7D
:10865000AB1C224616213046FFF79BFF08B070BDC9
:1086600007B502AA012302F8011D1946FFF791FF81
:1086700003B05DF804FB70B5054610460E4614467F
:1086800048F01EF92246034631462846BDE87040B0
:10869000FFF77FBF70B5054608460C4648F010F955
:1086A0001D2807D9224628461D230821BDE8704011
:1086B000FFF76FBF224628460921BDE87040FFF74B
:1086C000DABF38B5C16A00230546436229B1026B9F
:1086D0001AB1BDE83840FFF749BF95F835307BB394
:1086E00095F834102846FFF7BBFF0446A96C21B16A
:1086F0002846FFF76BFF0440E4B2E96B61B12B6CD5
:1087000053B195F84620EAB10A462846B5F8441018
:10871000FFF77AFF0440E4B26A6D42B1AB6D33B14A
:10872000B5F850102846FFF785FF0440E4B2A96B66
:1087300021B12846FFF7AEFF0440E4B2204638BD21
:108740000124D3E71A462846FFF759FFE2E7000065
:108750000C4B10B504460360406838B100F0FEF9D8
:1087600020B9606810B103685B689847A06838B1A9
:1087700000F06DFF20B9A06810B103685B689847EE
:10878000204610BD6C42070010B50446FFF7E0FF1D
:1087900020460C213EF0E2FD204610BD064B10B5F0
:1087A000C0E9003100230446836011B1084600F09F
:1087B000D0F9204610BD00BF6C420700064B10B533
:1087C000036000230446C0E9013111B1084600F0FE
:1087D00039FF204610BD00BF6C4207007047000003
:1087E000024B186803681B69184700BFFC45070067
:1087F000024B186803685B69184700BFFC45070017
:1088000010B4054B01791B681A685469421D18465B
:1088100023465DF8044B18475044070010B50B4B36
:108820000446186821790368621D9B6A98474FF6D1
:10883000FF739842014606D0054B18680268BDE8F0
:108840001040926A104794F94B0010BD5044070045
:10885000FC45070010B54C2104463EF07FFD204644
:1088600010BD000010B58AB0044648794B7A8A7A68
:10887000039088790290C8790190097A009105A83F
:10888000044947F01FFE05A9204607F0C0FF204617
:108890000AB010BD7442070007B5002306226946DE
:1088A00005300093ADF8043047F0BAFA003018BF35
:1088B000012003B05DF804FB08B502790B799A42F8
:1088C00008D106220531053047F0AAFAB0FA80F047
:1088D000400908BD0020FCE710B50A4B04461868A3
:1088E00003681B699847236820461B6A984740B174
:1088F000054B217918680368621D5B6BBDE8104069
:10890000184710BDFC4507005044070008B5027920
:108910000B799A4208D106220531053047F080FADA
:10892000003018BF012008BD0120FCE7064A0260A4
:108930007F210022C272027380F84B10C0F805201C
:10894000A0F80920704700BF9C42070010B50171D4
:108950000021C1720173064C04607F2180F84B1026
:108960001168C0F805109288A0F8092010BD00BF5A
:108970009C4207002DE9F0410F461449064607F0D6
:1089800046FF3A7B00218A421CDD7B1801F1020878
:10899000597B9B7B083B012B01F1FF340FD821460B
:1089A000304607F008FF0025AC420BDD08EB05035D
:1089B0003B443046597B07F0A6FF0135F4E704EB52
:1089C0000801E0E73046BDE8F08100BF54860700AB
:1089D0002DE9F04F85B0884622490192834607F081
:1089E00016FF0024A14698F80C30A34235D908EBB5
:1089F0000403671CFFB25E7B08EB07035B7B9A1ED8
:108A0000012A25D9063B012B24D810250234E4B2D3
:108A100005FB05F30D34009344444FF0000A731E28
:108A2000EAB2534516DD019989450BD1114620461E
:108A30000393029203F090F80146584607F038FF7E
:108A4000DDE90223009909F10109AA440C44E8E791
:108A50000225DBE73E44F4B2C5E7584605B0BDE861
:108A6000F08F00BF5486070010B500220446FFF7C0
:108A7000AFFF204610BD08B5134602798A4208D1DF
:108A800006221946053047F0CBF9B0FA80F04009CC
:108A900008BD0020FCE710B50446012000FA01F1F2
:108AA000E1722273194604F10D0047F0EBF99DF9CC
:108AB000083084F84B3010BD70B50D461146C27AAF
:108AC00042F010020446C272007B0D302A46204458
:108AD0001E4647F0D7F9237B84F84B601D4425736D
:108AE00070BDC37A13F0180F14BF01200020704727
:108AF0000346406808B100F023B8986808B100F058
:108B00009FBD0148704700BF54860700406870470A
:108B100070470020704710B5202104463EF01EFC2F
:108B2000204610BD10B5054B044640F8043B02F04A
:108B3000D3FF0023E361204610BD00BFD0420700F1
:108B4000043003F003B8043003F002B8043003F03B
:108B500001B8C3690133C36118467047C369013B5B
:108B6000C3611846704742F60300704790F8200032
:108B7000704790F821007047406A7047806A7047DC
:108B8000808D7047436A9A422DE9F041A8BF1A468A
:108B90000446828592B2806A0F4647F073F994F8D2
:108BA0002E300BB1636AA38594F8203098060FD558
:108BB000A28E91070CD51F4B218E186803685D6D3E
:108BC0000131A38DA26AAC4689B2BDE8F04160478D
:108BD000DA0609D5A38EDB0706D5164B218E186859
:108BE000036801311D6DECE794F83230F3B1124B9C
:108BF0001868036821465B6A9847104B1D682B680C
:108C000001461E6BA38D3A462846B047094B1868AB
:108C100003681B6B984748B9094B186803689B6841
:108C2000984718B12B6828465B6D9847A08DBDE822
:108C3000F08100BF504407009C4507000C4307002B
:108C40005045070038B5054608460C4647F038FE43
:108C5000214602462846BDE83840FFF793BF01860B
:108C60007047008E7047008E013080B27047806B75
:108C70007047836B994208D2C36B0022914202D0A5
:108C80005B680132FAE718687047002070470000FF
:108C900030B5114B03600B7903710B4601F14904A8
:108CA00053F8052FC0F805209B88A0F80930CB7A2F
:108CB000C3720B7B037300F10D0201F10D0353F836
:108CC000045B42F8045BA342F9D11B88138091F93D
:108CD0004B3080F84B3030BD9C42070038B504461D
:108CE00008200D463EF022FB0023C0E900536368D4
:108CF0002BB960602368A0600133236038BDA3688E
:108D00005860F7E770B5044615461E46FFF70AFFA0
:108D10001E4B2360B6F5007F4FEA152384F82130FF
:108D20003346A8BF4FF40073002163629DF81030F2
:108D300084F82050A18584F82E30218684F83210E2
:108D400084F83310A186C4E90E112164102204F1C5
:108D5000440047F095F915F0300F11D02C203EF06B
:108D6000E5FA0B490546022304F1340200F0D6F877
:108D70002846FFF7EEFE294604F13800FFF7AEFF64
:108D8000304646F02DFDA062204670BDEC42070043
:108D9000DC42070070B50446406800252368AB42FA
:108DA00006D9466808213EF0D9FA01353046F5E784
:108DB0000023C4E90033A36070BD0000154B70B5FB
:108DC000044603600025A36B9D4212D2E36B002290
:108DD000954202D05B680132FAE71E683046FFF721
:108DE000BDFE20B91EB1336830465B689847013537
:108DF000E9E704F138052846FFF7CCFFA06A08B17F
:108E000046F0F6FC2846FFF7C5FF2046FFF780FE38
:108E1000204670BDEC42070010B50446FFF7CEFFB8
:108E2000204654213EF09AFA204610BDF0B5C56C9C
:108E300097B0044617461E467DB103A8FFF728FFEA
:108E400021466846FFF7AAFC694603A8A84768467A
:108E5000FFF77EFC03A8FFF7C1FCA16A1C9A394406
:108E6000304647F00FF817B0F0BD70B504460E4617
:108E70001146012280F8332096B01A46FFF782FE91
:108E8000256D85B1314603A8FFF702FF21466846EC
:108E9000FFF784FC694603A8A8476846FFF758FC1B
:108EA00003A8FFF79BFC16B070BD30B5838E02F0AF
:108EB0000302934297B0044617D08286002A0CBF63
:108EC00044224022024455687DB103A8FFF7E0FE2A
:108ED00021466846FFF762FC694603A8A847684632
:108EE000FFF736FC03A8FFF779FC17B030BD4FF44D
:108EF0002450704710B5034B03600446FFF708FE8B
:108F0000204610BD0043070010B50446FFF7F2FFEE
:108F100020462C213EF022FA204610BD70B50446B2
:108F20001D461646FFF7FEFD064B2360B5F5007F94
:108F3000A8BF4FF400750023266265622385204692
:108F400070BD00BF00430700406A7047006A704769
:108F500001857047024B186803681B69184700BFFA
:108F6000FC450700024B186803685B69184700BF9F
:108F7000FC45070010B5064B186803681B69984745
:108F8000044B18680368BDE810401B6B184700BF0E
:108F9000FC4507005044070010B5064B18680368ED
:108FA0001B699847044B18680368BDE81040DB6BE9
:108FB000184700BFFC45070050440700024B1868E3
:108FC00003689B6C184700BF504407000C30704783
:108FD00068307047024B186803681B69184700BF68
:108FE0009C450700024B186803685B69184700BF7F
:108FF0009C450700024B186803689B69184700BF2F
:109000009C450700024B186803681B69184700BF9E
:1090100050450700024B186803685B69184700BF9A
:1090200050450700024B186803685B6A184700BF89
:109030005045070010B5074B0446186803681B69C4
:109040009847054B19680B682046DB6C984720460B
:1090500010BD00BFFC4507005044070010B5074B8A
:109060000446186803681B699847054B19680B6824
:1090700020469B6A9847204610BD00BFFC4507006C
:1090800050450700024B18680368DB6A184700BFA9
:1090900050450700024B186803689B69184700BFDA
:1090A000D4470700024B18680368DB69184700BF04
:1090B000D4470700024B186803681B6B184700BFB2
:1090C00050450700024B18680368DB68184700BF6B
:1090D00050440700024B186803681B6A184700BF1A
:1090E000D4470700024B186803685B6A184700BF43
:1090F000D4470700024B1B68C3F8F010704700BF4D
:10910000FC450700024B1B68C3F8F810704700BF0E
:10911000FC450700024B1B68C3F8F410704700BF02
:10912000FC450700024B1B68C3F8EC10704700BFFA
:10913000FC450700024B1B68C3F8FC10704700BFDA
:10914000FC450700024B1B68C3F80011704700BFC5
:10915000FC450700024B18680368D3F89C30184799
:10916000FC450700024B18680368D3F8A030184785
:10917000FC450700F0B52A4B1D682B6887B00446F4
:109180009B6828469847064620B923682046DB6836
:1091900098470DE0642007F0ADFC2B6828469B69DA
:1091A0009847064638B123682046DB689847002672
:1091B000304607B0F0BD05AA2B6801920DF11202EE
:1091C0000092DF6904AA0DF10E030DF10D0128468E
:1091D000B8470028D9D12B684FF0FF32D96A28460A
:1091E0006FF0404388470028CFD12B6840F2FF3210
:1091F000196B28460023884706460028D3D12B68E0
:109200000DF10F025B6B0DF11601284698470028FF
:10921000BBD1044B186803689B6898470126C7E7D1
:10922000FC4507009C4507000A4B10B5044618682A
:109230000368DB689847084B18680368DB68984741
:1092400004F10C00FFF7BCF804F16800BDE8104021
:10925000FFF7B6B89C450700FC45070010B58CB079
:1092600000230593ADF81830104B044618680368C6
:1092700005A91B6A98479DF8141003919DF81510D5
:1092800002919DF8161001919DF817109DF8183065
:109290009DF81920009107A8054947F013F907A97F
:1092A000204607F0B4FA20460CB010BDFC4507007C
:1092B000744207000C30FFF7C1B870B5036804466C
:1092C00008469D6AFFF714FC2B4601462046BDE880
:1092D000704018470C30FFF701B90C30FFF7CDB8DC
:1092E0000C30FFF7E2B86830FFF70CB96830FFF7D1
:1092F000A1B810B500F10C042046FFF79BF82046FA
:10930000FFF731F928B920460621BDE81040FFF7E4
:1093100012B910BD2DE9F74300F10C05044668347D
:109320002846FFF7CEF92046FFF7CBF90E4B1E6813
:1093300033682846DF68FFF712F980462846FFF7B2
:1093400010F905462046FFF70AF981462046FFF747
:1093500008F9C0B200904B46EAB241463046B847E1
:1093600003B0BDE8F08300BF504507007FB5094B4F
:109370001C682368164601A89D6907F089FA3246E1
:1093800001A92046A847044601A807F0F5F92046A0
:1093900004B070BD504507007FB5094B1C682368B9
:1093A000164601A8DD6907F073FA324601A9204686
:1093B000A847044601A807F0DFF9204604B070BDB5
:1093C000504507007FB5094B1C682368164601A865
:1093D0001D6A07F05DFA324601A92046A8470446F7
:1093E00001A807F0C9F9204604B070BD5045070038
:1093F00002290BBF044B054B186818680BBF0368A4
:1094000003685B6B9B6D184750450700504407008D
:1094100038B50446084B44F80C3B05462046FEF799
:10942000B5FF05F16800FEF7B1FF06212046FFF702
:1094300082F8284638BD00BF1843070010B5054C18
:109440002046FFF7E5FF2046034A0449BDE81040E7
:109450003DF05DBD047500200060002061940200B5
:1094600010B5064B044640F8683BFEF787FF04F151
:109470000C00FEF783FF204610BD00BF1843070015
:1094800010B50446FFF7ECFF2046C4213DF066FF0F
:10949000204610BD10B50B4B19680B6894B001A89D
:1094A000DB6C984701A8FFF7F7F948B101A8FFF76F
:1094B000B5F9044601A8FFF791F9204614B010BD94
:1094C0007F24F7E7504407004FF420507047000016
:1094D00010B50446FFF726FB044B23600023C4E9C4
:1094E0000833C4E90A33204610BD00BFE443070037
:1094F000018442847047008C7047408C7047406AFA
:109500007047436A994208D2836A0022914202D08E
:109510005B680132FAE7186870470020704738B579
:10952000044608460D46FFF714FB08203DF0FEFEFA
:109530000023C0E90053A36A2BB9A062636AE0620A
:109540000133636238BDE36A5860F7E770B50446DB
:10955000406800252368AB4206D9466808213DF0E3
:10956000FDFE01353046F5E70023C4E90033A36072
:1095700070BD10B504462430FFF7E8FF00232362D6
:1095800010BD0000134B70B5044603600025636AEC
:109590009D4212D2A36A0022954202D05B6801323A
:1095A000FAE71E683046FFF7D9FA20B91EB13368D2
:1095B00030465B6898470135E9E72046FFF7D9FF59
:1095C00004F12400FFF7C2FF2046FFF7A1FA20466E
:1095D00070BD00BFE443070010B50446FFF7D2FF9B
:1095E000204630213DF0BAFE204610BD10B5044B98
:1095F000044640F8043B07F0BFF8204610BD00BF0A
:10960000F843070010B50446FFF7F0FF2046142189
:109610003DF0A4FE204610BD38B504462546074B54
:1096200045F8043B0846114602F096FA01462846E2
:1096300007F0EDF800232361204638BDF84307000A
:109640004068704703690133036118467047036936
:10965000013B03611846704770B504461E46BDF8CD
:109660001450FFF7D9FF0D4B2360BDF81030E38293
:10967000BDF81830257663832D0A00230122A682C7
:109680006576C4E9073384F8243084F82520C4E9DA
:109690000A33C4E90C33204670BD00BF08440700FC
:1096A000408B704738B5044608460D46FFF7CAFFA1
:1096B00008203DF03BFE0023C0E90053E36A2BB9CC
:1096C000E062A36A20630133A36238BD236B586054
:1096D000F7E770B50446406800252368AB4206D919
:1096E000466808213DF03AFE01353046F5E7002393
:1096F000C4E90033A36070BD03688B4208D9436896
:1097000000228A4202D05B680132FAE7186870478B
:1097100000207047F8B50546134B45F8283B044632
:109720000026A36A9E420ED231462846FFF7E4FF88
:109730000746FFF78CFF20B91FB13B6838465B68CE
:1097400098470136EDE72846FFF7C3FFE06918B1F7
:1097500046F04EF80023E3612846FFF7BAFF2046A3
:10976000FFF744FF2046F8BD0844070010B5044643
:10977000FFF7D0FF204638213DF0F0FD204610BD18
:1097800070B50446036296B00D46C0691946164688
:1097900046F0D6FCE06110B9206216B070BD01231E
:1097A00084F824300023314684F82530226A46F0BC
:1097B00069FB666B002EF0D0194B03932B798DF863
:1097C00010302B4605F1490153F8052FCDF8112033
:1097D0009B88ADF81530EB7A8DF817302B7B8DF820
:1097E00018300DF1190205F10D0353F8040B42F87E
:1097F000040B8B42F9D11B88138095F84B308DF800
:10980000573021466846FEF7D9FF694603A8B0479E
:109810006846FEF79DFF03A8FEF7E0FFBDE700BF27
:109820009C420700074B10B504460360806918B1DD
:1098300045F0DEFF0023A3612046FFF7D7FE204658
:1098400010BD00BF1844070010B50446FFF7EAFF3B
:10985000204620213DF082FD204610BD38B504464B
:109860001D46FFF7D9FE054B2360BDF81030E3829B
:109870000023A582C4E90633204638BD18440700FA
:10988000034A02600022C0E90122C260704700BFA3
:109890002844070038B5044608460D46FFF7D2FEB7
:1098A00008203DF043FD0023C0E90053A3682BB915
:1098B000A0606368E0600133636038BDE3685860AE
:1098C000F7E7406870474368994208D283680022EE
:1098D000914202D05B680132FAE7186870470020B5
:1098E000704770B50446406800252368AB4206D92E
:1098F000466808213DF032FD01353046F5E700238A
:10990000C4E90033A36070BD70B5064600247368D7
:109910009C4212D2B3680022944202D05B680132AA
:10992000FAE71D682846FFF792FE20B91DB12B68A3
:1099300028465B6898470134E9E7301DFFF7D1FFFF
:1099400070BD000038B50446054B44F8043B05469D
:10995000FFF7DAFF2046FFF7C4FF284638BD00BFF7
:109960002844070010B50446FFF7ECFF20461021FD
:109970003DF0F4FC204610BD38B504461D46FFF707
:109980004BFE084B2360BDF81030E382A5820649E8
:1099900004F1180006F03BFF0023C4E90933E36239
:1099A000204638BD3844070054860700808A704737
:1099B000C08A7047406A7047436A994208D2836AF6
:1099C0000022914202D05B680132FAE718687047C2
:1099D0000020704738B5044608460D46FFF732FEB2
:1099E00008203DF0A3FC0023C0E90053A36A2BB973
:1099F000A062636AE0620133636238BDE36A586063
:109A0000F7E770B50446406800252368AB4206D9E5
:109A1000466808213DF0A2FC01353046F5E70023F9
:109A2000C4E90033A36070BD154B70B504460360F4
:109A30000025636A9D4212D2A36A0022954202D099
:109A40005B680132FAE71E683046FFF700FE20B976
:109A50001EB1336830465B6898470135E9E704F189
:109A600024052846FFF7CDFF2846FFF7CAFF04F17B
:109A7000180006F081FE2046FFF7B8FD204670BDB5
:109A80003844070010B50446FFF7CEFF20463021CA
:109A90003DF064FC204610BDA0F8A8107047C0F847
:109AA000AC1070472DE9FF41013A13F8014BD6B2D3
:109AB0000268CDE90233526C05460F4690470C2CE4
:109AC00002462968029B79D02FD8052C69D01AD874
:109AD000022C60D00BD8012C53D006230093D1F870
:109AE000DC600023224639462846B0476EE0032C4E
:109AF00054D0042CF1D10093D1F894403346394628
:109B00002846A04762E0092C52D007D8062C4BD03B
:109B1000082CE2D10093D1F8A440EFE70A2C4DD0F5
:109B20000B2CDAD1D1F8B4402DE0162C51D00FD83F
:109B3000112C40D005D8102CCFD10093D1F8B840CB
:109B4000DCE7122C18D0132CC7D1D1F8C8401AE08A
:109B50001D2C04D00CD8182C3FD01B2CBDD1009349
:109B6000D1F8D4803346224639462846C0472DE0F6
:109B70001E2C36D0522CB0D1CDE90063D1F8C46090
:109B800020E0D1F88440324639462846A44604B045
:109B9000BDE8F0416047D1F88840F4E7D1F8904043
:109BA000F1E7D1F89C40EEE70093D1F8A040A5E79B
:109BB000D1F8AC40E7E7D1F8C040E4E7CDE9006375
:109BC000D1F8B060234639462846B04704B0BDE816
:109BD000F0810093D1F8CC4090E70093D1F8D040C9
:109BE0008CE7D1F8D840CEE700F18C034FF6FF7236
:109BF000B0F8B010914204D11C309842F8D1002046
:109C000070470120704708B503689B6A98474FF674
:109C1000FF73C01A18BF012008BD000038B50A4BF9
:109C20000446186803681B690D469847204604F1EE
:109C30008C03B0F8B020AA4204D01C309842F8D16E
:109C4000002038BD0120FCE7FC45070000F18C0333
:109C500090F9C820002A04DB1C309842F8D100207B
:109C600070470120704730B500231C2404FB030219
:109C7000B2F8B0508D4204D00133052BF6D100204C
:109C800002E092F8C800C00930BD30B500231C24A2
:109C900004FB0302B2F8B0508D4202D1B2F8C0000A
:109CA00030BD0133052BF3D11720F9E71FB5ADF80F
:109CB0000D200268009302248DF80C400323D2F893
:109CC000F04003AAA04704B010BD1FB5ADF80920AD
:109CD000ADF80B30069A0368009204248DF8084012
:109CE00002AAD3F8F0400523A04704B010BD1FB569
:109CF000ADF80B30BDF81830ADF80920ADF80D30D7
:109D0000079A0368009210248DF8084002AAD3F83D
:109D1000F0400723A04704B010BD1FB5ADF80B30CD
:109D2000BDF81830ADF80920ADF80D30079A03687A
:109D3000009208248DF8084002AAD3F8F0400723C7
:109D4000A04704B010BD012380F83C3170470000EB
:109D50001FB5ADF80A309DF818308DF80C30084B5F
:109D60008DF8092001208DF80800186802AA036800
:109D70000092D3F8944004220523A04704B010BDFC
:109D8000FC45070001299CBF00EB8100C0F854216D
:109D900070471FB5ADF80D20026800930A248DF8B6
:109DA0000C400323D2F8F04003AAA04704B010BD32
:109DB00070B500231C2505FB0304B4F8B0608E4287
:109DC00004D00133052BF6D1002002E084F8C8202E
:109DD000012070BD70B500231C2505FB03F4061996
:109DE000B6F8B0608E4204D00133052BF5D10020C7
:109DF00010E004F1B3010144941D11F8015F04F86F
:109E000001599442F9D11C2202FB0303012093F86B
:109E1000B330237070BD000010B5054B03600446DD
:109E2000D0F8400108B145F0E3FC204610BD00BF6A
:109E30005C44070010B50446FFF7EEFF20464FF4E0
:109E4000AE713DF08BFA204610BD00002DE9F043C5
:109E50001D4B1D688BB006230F460421002490463D
:109E60002A680097CDE90713C821CDE905410C21E7
:109E7000CDE90331CDE901840646D2F8549023465A
:109E8000302260212846C847D8B906F021FE044692
:109E900006F01EFED6F8AC30001B98422B680DD29F
:109EA0001B6928469847336842465B6B3946304603
:109EB00098470028ECD00BB0BDE8F083DB6D284656
:109EC00098470020F7E700BFFC450700F8B5036896
:109ED0009B6A044698474FF6FF73984206461ED089
:109EE000104B1D682B680146D3F8983028469847D8
:109EF00006F0EEFD074606F0EBFDD4F8AC30C01BD3
:109F000098420CD22B6828461B6998472368314633
:109F10009B6B204698470028EDD10120F8BD00201A
:109F2000FCE700BFFC4507002DE9F3410546089C0E
:109F3000A5F848111078C5F84C41013085F84A0160
:109F4000002085F850011948066830680092D0F862
:109F50009480DBB2042230460F46C04724B306F09B
:109F6000B7FD044606F0B4FDD5F8AC30001B9842AE
:109F700014D2336830461B6998472B6839469B6B6F
:109F80002846984750B195F850010028EAD04FF67E
:109F9000FF73A5F8483102B0BDE8F0814FF6FF73BA
:109FA000A5F848310020F6E72046F4E7FC45070015
:109FB0002DE9F047994603689B6A044698474FF697
:109FC000FF739842074604D14FF000084046BDE8B1
:109FD000F08723680146D3F8E03020469847804652
:109FE0000028F1D000251C2303FB054ABAF8B06015
:109FF000BE4233D1DAF8C4303BB910203DF096F9B7
:10A000000746FFF73DFCCAF8C4701C2303FB054557
:10A01000D5F8C450002DD7D02846B9F1000F21D172
:10A02000FFF772FC23682A46D3F8E47031464B46AA
:10A030002046B8470028C7D023682A46D3F8E8301E
:10A040003146204698470028BED023682A4631462C
:10A050002046D3F8EC30BDE8F04718470135052D10
:10A06000C2D1B1E7FFF72DFC002782465745D9DA68
:10A0700039462846FFF727FCFFF7E2FA494646F043
:10A0800087FA0028A2D00137F0E7F0B5C5B0044642
:10A090009DF82851ADF80D200F4612218DF80C10B7
:10A0A0002A4619460DF10F0045F0ECFE23684B9A45
:10A0B0000092D3F8F06003AAEB1C39462046B04763
:10A0C00045B0F0BDF0B5C5B004469DF82851ADF8D7
:10A0D0000D200F4652218DF80C102A4619460DF11D
:10A0E0000F0045F0CFFE236800220092D3F8F06005
:10A0F00003AAEB1C39462046B04745B0F0BD70B509
:10A1000000241C2505FB04F3C618B6F8B0608E4287
:10A1100004D00134052CF5D1002006E0C9331488A1
:10A12000C452C11893788B70012070BD10B500F136
:10A13000C90300F2551033F8194C8C4201BF1C883A
:10A1400014809C7894701C338342F4D1002010BD9D
:10A1500070B500241C2505FB04F3C618B6F8B060E2
:10A160008E4204D00134052CF5D1002006E0B43332
:10A1700018440368136083889380012070BDF0B594
:10A1800000241C2606FB04F3C518B5F8B0708F42F6
:10A1900004D00134052CF5D1002009E0BA33034482
:10A1A000591E11F8010F20B9C1F1BF004019F8D1B3
:10A1B000F0BD196811609B8893800120F8E70000CA
:10A1C0002DE9F04196B098461C9E044600271C23BA
:10A1D0004FF6FF7C03FB07F56019B0F8B0E0E645E9
:10A1E00005D00137052FF5D116B0BDE8F081172352
:10A1F00080F8B220A0F8C030A0F8B01080F8B3808A
:10A2000005F1B4033168E150E218B388938001A9E5
:10A21000731E052213F8010F505412F1FF32F9D2C8
:10A220000D4B1868BA3503686719D3F890303A4671
:10A23000984708B96051B880D4F85441002CD3D065
:10A240003246414603A8FEF781FB03A8A04703A8B6
:10A25000FEF7C4FAC8E700BFFC4507002DE9F0414E
:10A2600006460F46904600F1B405002415F8013C5F
:10A27000BB420CD106224146284645F0D1FD30B9FB
:10A280001C2303FB0464B4F8B000BDE8F081013482
:10A29000052C05F11C05E9D14FF6FF70F5E72DE916
:10A2A000F04106460F46904600F1B405002415F82B
:10A2B000013CBB420CD106224146284645F0B0FD88
:10A2C00030B91C2303FB0464D4F8C400BDE8F0815A
:10A2D0000134052C05F11C05E9D10020F6E738B55D
:10A2E0004FF6FF7204460B460020B3F8B05095427B
:10A2F00003D093F8B250012D08D00130052803F1A6
:10A300001C03F2D12046FEF711FB0AE01C23434355
:10A3100003F1B4020B440A44204693F8B310FEF74D
:10A3200015FB204638BD98B5B0F8A820D31DEC46E3
:10A33000DB08ACEBC30300AF9D460368D3F88C4049
:10A340006B46A047003018BF0120BD4698BD0000F5
:10A350002DE9F04F87B002AF9146DFF890A0B960C9
:10A3600000F18C020546FA601C460026B5F8B08064
:10A37000C7F804D04FF6FF7398452BD0B5F8C0301E
:10A38000DA1D6946D208A1EBC202033B95469BB297
:10A39000A4B29C424FF01B0228BF1C468DF8082037
:10A3A0003A89ADF80920494622460DF10B0045F0E7
:10A3B00069FDDAF800000DF1080B0268CDF800B075
:10A3C000E31CD2F894B0DBB204224146D847D7F858
:10A3D00004D00136FB681C359D42C7D1002E14BF46
:10A3E000204600201437BD46BDE8F08FFC4507002D
:10A3F0002DE9F04F87B002AFC7E9002100F5A07248
:10A40000064600F1B405BA601C464FF0000935F865
:10A4100004ACC7F80CD04FF6FF739A4542D0AB8915
:10A42000DA1D6946D208A1EBC202033B95469BB2F6
:10A43000A4B29C424FF01D0228BF1C468DF8082094
:10A44000BA88ADF80920396822460DF10B0045F0B5
:10A4500019FD002386F83C31194BD3F800800DF12B
:10A46000080BD8F80020CDF800B0E31CD2F894B067
:10A47000DBB2042251464046D84796F83C316BB9CE
:10A48000D8F8003040461B699847336815F8011C1E
:10A490005B6B2A46304698470028EED1D7F80CD09F
:10A4A00009F10109BB681C35AB42B0D1B9F1000F0D
:10A4B00014BF204600201437BD46BDE8F08F00BF12
:10A4C000FC4507002DE9F04F89B002AF042BFA607C
:10A4D0003A6CC7F808D0C7E9041014880AD003689A
:10A4E00004220092D3F8DC502346A8471C37BD460F
:10A4F000BDE8F08FFB6807336A46DB08A2EBC303B5
:10A500009D460DF1080805238DF80830002388F8D2
:10A510000130484B013CD3F800A0A4B20225DAF880
:10A5200000305046DB699847844258D23B6C5B88C8
:10A53000A34254D9DAF8003021461B6A50469847A6
:10A5400003689B688346984742F6030301349842A8
:10A55000A4B255D15846FEF786FB231A59425941F9
:10A56000DBF8003079609B68584698477968024666
:10A5700011B9B0F5245F45D15846C7E90012FEF77E
:10A58000E5FAD7E900120228064614BF0223012388
:10A5900098F8010008B988F8013098F8010098424D
:10A5A0001DD105F102091FFA89F928F8054008EBC9
:10A5B000090311B9B2F5245F27D158467B60FEF735
:10A5C000C2FA7B6801463246184645F05BFC09EB4F
:10A5D0000605ADB20236FB682E44B3429FDA022D67
:10A5E0001CD17A693B6C12681B880A210091D2F851
:10A5F000DC40D7E904100422A047D7F808D075E75B
:10A600000021ADE702260123C2E7DBF800305846FF
:10A610009B689847043528F80900DAE7064B186864
:10A620000368CDF80080D3F894403969EBB2042276
:10A63000A047E2E79C450700FC4507002DE9F04FE5
:10A6400089B002AF052B3E6CC7F808D08346C7E936
:10A65000032134880BD8036804220092D3F8DC501D
:10A6600006222346A8471C37BD46BDE8F08FFA688E
:10A6700007326946D208A1EBC202954607228DF83F
:10A680000820B288B2F5205F0DF1080A0DD0DBF882
:10A69000002033880A210091D2F8DC403969062273
:10A6A0005846A047D7F808D0DDE7063B9BB27B6150
:10A6B000274B013CD3F80090B31DA4B201257B6069
:10A6C000D9F800304846DB699847844232D2738813
:10A6D000A3422FD9D9F8003021461B6A4846984733
:10A6E00003689B6880469847B38883421BD14046E5
:10A6F000FEF72CFA7B69984215D14046FEF723FA03
:10A700007A69796845F08CFB68B94046FEF7F3FE3C
:10A710002AF805004046FEF7F0FEAB1C9BB204355C
:10A720002AF80300ADB2FA68EB1C9A4202DD01344C
:10A73000A4B2C5E7012DAAD0064B18680368CDF86E
:10A7400000A0D3F894403969EBB20422A047A9E7EE
:10A750009C450700FC4507002DE9F04F89B002AF8A
:10A76000062BBA603A6CC7F80CD081468B46158828
:10A7700004D19388A3F52053012B0FD9D9F80030C9
:10A7800010220092D3F8DC402B4659464846A04799
:10A79000D7F80CD01C37BD46BDE8F08FBB68073337
:10A7A0006A46DB08A2EBC3039D4602AE11238DF877
:10A7B000083000237370364B013DD3F800A0ADB2D2
:10A7C0000224DAF800305046DB699847854247D2C8
:10A7D0003B6C5B88AB4243D9DAF8003029461B6AF0
:10A7E000504698473B6C02689B887B619268804624
:10A7F00090477B69834230D14046FEF7A7F9022893
:10A80000034614BF142306233B61737878610BB9A8
:10A810003B7C737073783A69934221D14046FEF7CE
:10A820006AFE30534046FEF768FEA31C9BB2043418
:10A83000A4B2F052331940467B60FEF784F97B687E
:10A840007A690146184645F01DFB7B69BA681C44CD
:10A850003B69A4B223449A4202DB0135ADB2B0E7B2
:10A86000022C09D13B6CD9F800201B880A210091E9
:10A87000D2F8DC40102288E7064B1868036800967F
:10A88000D3F894500422E3B25946A84780E700BFAA
:10A890009C450700FC4507002DE9F04F89B002AF49
:10A8A00091463A6CC7F808D0062BC7E90310158803
:10A8B0000BD0036804220092D3F8DC4008222B4618
:10A8C000A0471C37BD46BDE8F08F09F107036A4673
:10A8D000DB08A2EBC3039D460DF1080809238DF8A0
:10A8E0000830002388F801306D4B1B687B613B6C9E
:10A8F000013D0433ADB202247B607B6978691B683B
:10A90000DB699847854280F083803B6C5B88AB4273
:10A910007ED97B6978691B6829461B6A984703685A
:10A920009B68064698473B6C9B888342336805F1D9
:10A93000010A1FFA8AFA9B6830467AD1984742F694
:10A94000030398423DD13046FEF78DF9824535D05C
:10A950003046FEF7FBF898F801200228034614BFA2
:10A960004FF0150B4FF0070B0AB988F801B098F8B3
:10A9700001203B605A454BD128F804A03046FEF731
:10A98000F5F8A21C92B2023508F80200E21C92B25D
:10A99000304628F80250FEF7D6F805343B68A4B2DA
:10A9A00008EB04051A460146284645F06BFA3B6859
:10A9B0001C44A4B2A344D9452ADB55460135ADB2A7
:10A9C0009BE7336830469B68984742F602139842EB
:10A9D000F4D128F804A03046FEF7B6FA0234A4B247
:10A9E000A9EB040980B21FFA89F9814528BF814685
:10A9F000304608EB0405FEF7A9FA4A4601464C44E6
:10AA0000284609F1020945F03DFAA4B288F8019000
:10AA1000022C38D13A693B6C12681B880A210091DC
:10AA2000D2F8DC40D7E903100822A047D7F808D0B5
:10AA300047E7984742F603039842BFD13046FEF7F6
:10AA400085F802288346B9D13046FEF77CF85A468D
:10AA50000146786845F0E4F90028AFD128F804A051
:10AA60003046FEF78DF80234A4B2A9EB04091FFAB0
:10AA700089F980B2814528BF8146304608EB04053C
:10AA8000FEF77CF8B9E7074B18680368CDF800803B
:10AA9000D3F89450F968E3B20422A847C6E700BF90
:10AAA0009C450700FC4507002DE9F043012B97B0BA
:10AAB000044602AF0E461546E8460BD00368042252
:10AAC0000092D3F8DC4018220023A0475437BD463B
:10AAD000BDE8F083B0F83E1129B33B6F1B78DB076C
:10AAE00021D5204B1868036801391B6A9847002359
:10AAF00081461C2000FB03F2A118B1F8B0C0B44598
:10AB00002CD1B432224491F8B310381DFDF71EFF4A
:10AB10004846B4F84431D4F84021391DFEF7A5F970
:10AB2000381DFDF75BFE00230735A4F83E31A4F87D
:10AB30004431ED086B46A3EBC5039D4619238DF800
:10AB40000830094B186802AA03680092D3F89440B1
:10AB5000042201233146A047C546B7E70133052B40
:10AB6000C8D1E0E79C450700FC4507002DE9F04F00
:10AB700087B002AF032B04460D467A601E46C7F825
:10AB80000CD00DD8036804220092D3F8DC401622C2
:10AB90000023A047D7F80CD01437BD46BDE8F08F8E
:10ABA000BB6B1B883B811FFA83F8BB6BB3F802B009
:10ABB0004B4BD3F80090D9F800304846DB699847F2
:10ABC00008F1FF318BB2834206D923680A22009232
:10ABD000D3F8DC60434620E0D9F8003048461B6AD1
:10ABE000984703689B688146984742F6030398425A
:10ABF00002D023680B22EAE74846FEF734F84045C6
:10AC00008246F6D14846FDF7B1FF03070AD4236810
:10AC100003210091D3F8DC605346162229462046D2
:10AC2000B047B7E7B4F83E31E3B948463B60FDF7BB
:10AC3000A3FF01468246D4F8400145F081FA3B6803
:10AC40003A89A4F83E21C4F84001A4F844315246A0
:10AC5000194645F015FAB4F844315B4507D023682E
:10AC60000722B4E75345F6D023680E21D1E7331FFE
:10AC70005FFA83FA0BEB0A024846BA60FDF77CFFE5
:10AC8000BA6880B28242EADCBB6BD4F8400152461B
:10AC9000191D584445F0F6F8B4F84421B96B0AEB95
:10ACA0000203A4F844317B6807336A46DB08A2EB51
:10ACB000C3039D4617238DF8083032460DF1090075
:10ACC00045F0E0F8074B186802AC02680094731C6A
:10ACD000D2F89440DBB204222946A0475AE700BFCD
:10ACE0009C450700FC4507002DE9F04F8FB002AFEF
:10ACF000C7E90021FB60B0F8A830F96807336A465D
:10AD0000DB08A2EBC30307F118059D4683462846DE
:10AD100000F0E2FE0DF108090124BD60DBF800300F
:10AD2000CDF804904FF420520092D3F8BC507968CB
:10AD30004FF6FF7322465846A847054620B199F8BA
:10AD40000030112B04D001203437BD46BDE8F08F10
:10AD500099F801307B61A3F1040802235FFA88F8B7
:10AD600009F102063B614FF6FF7A3B69AB4204DB17
:10AD70004FF6FF739A45D1D0E5E7FB68E3B9302081
:10AD80003CF0D4FA3146728831F8043B0092044614
:10AD90004246FEF7F1FD21463868FEF77BFD7488D8
:10ADA000D7E904320134A4B2002C134408BF4FF099
:10ADB000000A3B611644D8E7B86800F0CBFE404576
:10ADC000EDD1B86800F0C4FE42460146301D45F0A2
:10ADD00027F80028D3D0E2E72DE9F04F8DB0B0F886
:10ADE000A83004AFC7E9042107336A46DB08A2EBA9
:10ADF000C3039D4682463869FEF763FD0DF11009D5
:10AE0000F8604FF00008FB6898454ADA4146386917
:10AE1000FEF759FDB861FEF7C9FD0646B869FEF7B1
:10AE2000C7FDB860DAF80030CDF8049042F60302AE
:10AE30000092D3F8A8407969BB6832465046A047D3
:10AE4000054678B399F80030092B27D199F80130DD
:10AE5000FB61053BDBB27B6009F102044FF0020BA2
:10AE6000AB45DFDA38203CF061FAB4F803300293E6
:10AE7000A37801932388009306467B697A68611D55
:10AE8000FEF7EAFB3146B869FEF7A4FDB4F80360AB
:10AE9000FB690136B6B29B441C44E1E708F10108A6
:10AEA000B1E701202437BD46BDE8F08F2DE9F04F12
:10AEB0008FB0B0F8A83002AF0733C7E90421DB0830
:10AEC0006A46A2EBC3039D4602AB82463869FB6229
:10AED000FEF7F7FC4FF0000BF860FB689B456EDA5D
:10AEE00059463869FEF7EFFC7862FEF761FDB860FD
:10AEF000786AFEF75FFD431E386200267B603B6A7E
:10AF00009E4259DA3146786AFEF756FD7B68F86151
:10AF10009E424AD0711C786AFEF74EFD0546F869DC
:10AF2000FEF7BEFB013084B2002D40D02846FEF76C
:10AF3000B7FBB862BB6AA3423CD3DAF80030FA6AC6
:10AF40000092D3F898507969BB6A22465046A847C8
:10AF50000546002834D0FB6A1B78052B2AD1FB6AF2
:10AF600093F801904FEA8903BB61FB6A4FF0020935
:10AF700003F10208A945E0DA20203CF0D7F9B8F83F
:10AF800000300093022208EB020104467B69FEF7C1
:10AF900065FC2146F869FEF785FBB8F80040BB69FF
:10AFA0000134A4B299449844E4E70025B7E7BB68AC
:10AFB000BB62BFE70136A2E70BF1010B8DE7012071
:10AFC0003437BD46BDE8F08F022A7FB504460D46F2
:10AFD00009D0036804220092D3F8DC400222002347
:10AFE000A04704B070BD1B88B0F8A8209A4228BFC3
:10AFF0001A461C20002300FB0341B1F8B060AE42AA
:10B0000011D1A1F8C020ADF80D20094A0323106822
:10B010008DF80C30026803A90091D2F894402946BB
:10B020000422A047DDE70133052BE4D1EBE700BFA5
:10B03000FC450700042A15D1B0F848218A4211D1F5
:10B0400090F84A211978013A8A420BD1D0F84C2164
:10B0500001211170D0F84C211B68C2F80130052382
:10B0600080F850317047022A70B51CD100221C258F
:10B0700005FB0204B4F8B0608E4215D11A88A4F81A
:10B08000C020B0F848218A420DD190F84A21032A05
:10B0900009D1D0F84C110A70D0F84C111B88A1F8D6
:10B0A000013080F8502170BD0132052AE0D1E8E777
:10B0B000012A38B50446154613D9B0F8480188422C
:10B0C0000FD194F84A0105280BD1D4F84C1108701F
:10B0D000D4F84C0119460130013544F0D3FE84F810
:10B0E000505138BD012A38B50446154613D9B0F879
:10B0F000480188420FD194F84A0111280BD1D4F8A5
:10B100004C110870D4F84C0119460130013544F057
:10B11000B9FE84F8505138BD38B50446B0F848013E
:10B12000884215460FD194F84A110B290BD1D4F857
:10B130004C010170D4F84C0119460130013544F03E
:10B14000A1FE84F8505138BD38B5044615469AB171
:10B15000B0F8480188420FD194F84A0109280BD170
:10B16000D4F84C110870D4F84C011946013001355F
:10B1700044F088FE84F8505138BD6AB9B0F84831BF
:10B180008B4209D190F84A31132B01BFD0F84C21E2
:10B190001370012380F850317047000070B50546E8
:10B1A00090F8850094B0F8B1104B114C1868B4F8C1
:10B1B0004410036801391B6A984704F147020646A8
:10B1C00094F8461001A8FDF7C1FB94F84D3004F146
:10B1D0004E0201A93046FDF748FE01A8FDF7FEFA30
:10B1E000002385F88530012014B070BD9C45070010
:10B1F000C87500202DE9F04F9BB0012B88460492C2
:10B2000061D9249A023B1688059300F5A07200F1DB
:10B21000B404039234F8043C43453FD12569002D22
:10B2200040D02846FEF74DFB4FF0000A8146D1453D
:10B2300034DD51462846FEF746FB0746FEF7B6FBCF
:10B24000864228D93846FEF7B3FB864223D83846D3
:10B25000FEF7B0FB249B8146002503F1020AA945B5
:10B260001CDD29463846FEF7A7FB8346FEF718FA91
:10B2700086420ED1224614F8011C07A8FDF766FB92
:10B280005846059B524607A9FEF77AFA07A8FDF72C
:10B29000A5FA0135E3E70AF1010AC8E7039B1C346C
:10B2A000A342B7D1049B1D2B0DD11AAB1E2203F86C
:10B2B0004C2D064A106802680093D2F8944001238E
:10B2C00004224146A0471BB0BDE8F08FFC450700B3
:10B2D0001F4B70B5044640F8863B03F0E6F804F1D6
:10B2E000870003F0E2F81B4B04F1980503F1100608
:10B2F000186859682A4603C20833B3421546F7D185
:10B3000041F288331721C4F8AC300023A4F8A81008
:10B31000A4F83E31C4F84031A4F8443104F1B40239
:10B3200004F5A0704FF6FF7522F8045C02F8023CA9
:10B3300002F8013C136093809181136113751C32F4
:10B340008242F1D1C4F85431C4F85831204670BD5E
:10B350005C440700404407002DE9F04F00230446F9
:10B36000A7B098464FF0FF351C204FF6FF7600FB44
:10B370000342B2F8B0208A4208BF1D46B24203F130
:10B38000010318BF08F10108052BF0D16B1C6ED02A
:10B390001C236B4303F1B4072344E619324693F8A8
:10B3A000B3106846FDF7D2FAB8F1010F2FD1314B37
:10B3B000D3F800804FF0000942F6030BD8F80030B4
:10B3C0004046DB6998471FFA89FA50451AD9D8F8E0
:10B3D000003051461B6A4046984703689B68824686
:10B3E000984758450BD1694613A8FDF751FC5046C4
:10B3F000002213A9FDF759FD13A8FDF7EFF909F194
:10B400000109DBE70023A4F83E31A4F84431D4F865
:10B410005881B8F1000F08D0694613A8FDF738FC31
:10B4200013A8C04713A8FDF7D9F91C2303FB054354
:10B430004FF6FF72C3F8B0200022E251B280D3F879
:10B44000C400A3F8C8201721A3F8C01083F8CA20AD
:10B4500083F8CB2010B103685B6898471C2303FB7B
:10B4600005440023C4F8C4306846FDF7B7F927B097
:10B47000BDE8F08F9C4507002DE9F04FA9B000F51D
:10B48000A073DFF8DCB00193064600F1B4044FF07E
:10B4900000084FF6FF7934F8041C494551D02F4B72
:10B4A00018680368D3F8983098470546002848D1B3
:10B4B000224614F8011C02A8FDF748FADBF80070D8
:10B4C00008F101083B683846DB6998471FFA85FA9E
:10B4D00050451AD93B6851461B6A3846984702685E
:10B4E00092688246904742F6030398420BD102A924
:10B4F00015A8FDF7CDFB5046002215A9FDF7D5FC98
:10B5000015A8FDF76BF90135DCE70023A6F83E31FD
:10B51000A6F84431206904F8023C04F8013C236099
:10B52000A380C4F806306381172324F8049CA38108
:10B5300010B103685B6898470023236102A8FDF7F8
:10B540004DF9019B1C349C42A5D1B8F1000FD4BF2A
:10B550000020012029B0BDE8F08F00BFFC450700A6
:10B560009C45070010B500231C2101FB030292F843
:10B57000C840A40702D5B2F8B00010BD0133052BB6
:10B58000F3D10620F9E730B500231C2404FB0302A5
:10B59000B2F8B0508D4204D00133052BF6D1002013
:10B5A00001E092F8C80030BD2DE9F04F99B002AF2C
:10B5B000044697F880B07A60BBF1010F0E461D4635
:10B5C0000DD8122B07D1036804220092D3F8DC4077
:10B5D0002A460023A0475C37BD46BDE8F08FD7F868
:10B5E0008430B3F800808B4BD3F800A0DAF8003039
:10B5F0005046DB69984708F1FF318BB283420CD982
:10B60000122DE8D123680A220092D3F8DC902A4652
:10B61000434631462046C847DDE7DAF80030504659
:10B620001B6A984703689B688146984742F6030364
:10B63000984240F0A6804846FDF715FB80454846F5
:10B6400001D1122D53D1FDF791FA010740F1DB80B2
:10B650004846FDF78EFA10F002000FD03146204622
:10B66000FFF791FF030648D423680F220092D3F816
:10B67000DCA0204643461222D047012000234FF091
:10B680001C0C0CFB03F2A118B1F8B0E0B6455ED17A
:10B69000D7F8843091F8B310ABF1020BB4325FFAF3
:10B6A0008BFB03F1020A224448B3032384F885305C
:10B6B00084F84610A4F844801368C4F8473093888F
:10B6C000A4F84B300A2384F84DB084F885305A46EC
:10B6D000514604F14E0044F0D5FB94F88530122D0C
:10B6E0009B4484F885B07FF476AF6D4642E0FDF769
:10B6F0003DFA42077FF56FAFAAE70020BEE707F1EA
:10B700000C00FDF723F95B46524607F10C01484651
:10B71000FDF7ABFB07F10C00FDF760F8122D7FF48D
:10B720005AAF7B6807336D46DB08A5EBC3039D4624
:10B73000132202AB8DF80820374A10680268009384
:10B74000D2F89440012304223146A04717E0013388
:10B75000052B96D1122D7FF43EAF7B6807336D46E3
:10B76000DB08A5EBC3039D46132202AB8DF808202E
:10B770000028E1D013232371012384F88430AD46DF
:10B7800029E7D9F8003048469B689847B0F5245F10
:10B7900039D14846FDF7DAF9022834D14846FDF799
:10B7A000D2F9028842F602139A422CD1DAF800301C
:10B7B000A8F102011B6A5046984703689B688146BE
:10B7C000984742F6030398421DD100231C2000FB3A
:10B7D00003F2A118B1F8B0C0B44510D1B43222447C
:10B7E00091F8B31007F10C00FDF7B0F8D7F88430EA
:10B7F00007F10C015A884846FDF757FB8AE70133E9
:10B80000052BE4D18AE7122D7FF4E5AE23680322ED
:10B81000FAE600BF9C450700FC4507002DE9F04F04
:10B820009DB0984602AFB8F10A0F154604460E4681
:10B8300097F89020D7F89430C7F80CD00FD1022A8F
:10B8400017D0036804220092D3F8DC40424600235C
:10B85000A047D7F80CD06C37BD46BDE8F08F042A5E
:10B8600007D0036804220092D3F8DC400C220023A6
:10B87000EEE7B8F10A0FB3F8009014BF5B8800231D
:10B880007B618A4BD3F800B0DBF800305846DB69A7
:10B89000984709F1FF318BB2834207D923680A2206
:10B8A0000092D3F8DC5042464B4625E005F1FF3AC2
:10B8B0000735ED086B46A3EBC5039D46B8F10A0FAB
:10B8C0006A4614BF0D230B2302F8083FDBF8003053
:10B8D0003A611B6A5846984703689B680546984733
:10B8E000B0F5205F2AD17B6953B12368042200920E
:10B8F000D3F8DC500B224B4631462046A847A8E738
:10B900002846FDF723F980462846FDF71CF94246F4
:10B9100001460DF1090044F0B5FA08F101081FFADB
:10B9200088F8634B3A69186803680092D3F894402A
:10B9300004225FFA88F33146A0478AE742F6030300
:10B94000984240F08F802846FDF78BF948451DD17D
:10B950007B6913B123680B22A2E72846FDF706F99D
:10B960003B6958702846FDF77EF93B6958802846A8
:10B97000FDF7ECF880462846FDF7E5F8424601461B
:10B9800003A844F07FFA08F10408C8E72846FDF749
:10B99000EDF8820702D42368022281E72846FDF7EA
:10B9A000E8F810F0020B10D031462046FFF7EBFD0F
:10B9B000030614D423680F220092D3F8DCB0424669
:10B9C0004B462046D8474FF0010B2846FDF7D8F8E4
:10B9D0007A6983B29A4205D32368072260E74FF061
:10B9E000000BF2E77B6980B2C01A8245A8BF82468D
:10B9F0001FFA8AF3BB6004F5A07304F1B4097B60FD
:10BA00004FF001081FFA8AFA39F8043CB34218D102
:10BA10004A4619F8011C07F11C00FCF797FFCDF806
:10BA200000A03B697A69434407F11C012846FDF7F1
:10BA3000FDF907F11C00FCF7D1FEBB6898441FFA22
:10BA400088F87B6809F11C099945DDD1BBF1000F2D
:10BA50003FF467AF42463969201D44F013FA84F879
:10BA60008480F6E6B0F5245F1DD12846FDF76CFA18
:10BA70007A6983B29A42AFD27B6980B2A0EB0308A5
:10BA8000C2452846A8BFC246FDF760FA7B691FFA87
:10BA90008AF2C1180AF1010A0DF1090044F0F2F925
:10BAA0001FFA8AF83DE74FF001083AE79C45070086
:10BAB000FC45070010B5054C2046FFF709FC204661
:10BAC000034A0449BDE810403BF021BAC875002084
:10BAD00000600020199E020073B5002504460E4642
:10BAE00040F8041B10222946ADF804508DF806508A
:10BAF00044F0C6FA257526B3304644F0E1FE451EF3
:10BB0000002D237D19DB0F2B1ED8735D2D2B02D149
:10BB10000135023DF4E77219002112F8012C8DF86D
:10BB2000042001A810228DF8053044F0F7FF237D92
:10BB3000E218013310712375EBE7022B04D80223BE
:10BB40002375204602B070BD1023F9E700687047E6
:10BB500004307047007D70472DE9F047144C804653
:10BB60004D1E4FF4AA594FF02D0A6A1C1AD018F82E
:10BB7000057010222146380904F06BFF1022611C69
:10BB800007F00F0004F065FF0C2D04F1020606DC3F
:10BB900029FA05F3DB0744BFE61C84F802A0013D47
:10BBA0003446E2E7002323700148BDE8F08700BF78
:10BBB00024770020007970472DE9F04F89B0904636
:10BBC0000DF1180B027A9DF848601F4600230546C8
:10BBD00089460693ABF80430FAB99E4214BF4FF081
:10BBE000020A4FF0030A2B6828461B699847194B35
:10BBF000EA881C680021072023680091CDE9030131
:10BC0000CDE9011B2046D3F83CB011465346D84736
:10BC100028B1002009B0BDE8F08F9A46E3E7236819
:10BC20004A461B6C4146204698470028F1D12368BC
:10BC30003A465B6C3146204698470028E9D1236894
:10BC400001219B6C204698470028E2D101202871F1
:10BC5000E0E700BFFC450700034B002101711868B5
:10BC600003689B6C184700BFFC4507002DE9F341B2
:10BC7000124B1D682B6801221B6D07460E46284695
:10BC80000021002498472B68CDE90044D3F84C806C
:10BC900020231A4601212846C04768B9012179713D
:10BCA0002B6886EA01021B6D28469847B0FA80F09F
:10BCB000400902B0BDE8F0812046FAE7FC450700E4
:10BCC000C180704701727047022908BFC260704787
:10BCD00070B50B4D04461C30164604F0CAFD2946CB
:10BCE00004F1280004F0E4FD294604F1340004F0D6
:10BCF000DFFD2368314620465B69BDE87040184788
:10BD0000548607002DE9F0410C4D04460F461C30C7
:10BD10002946164604F0CCFD394604F1280004F00B
:10BD2000A8FD294604F1340004F0C2FD2368314621
:10BD300020465B69BDE8F041184700BF5486070004
:10BD40002DE9F0410C4D04460F461C30294616469D
:10BD500004F0AEFD294604F1280004F0A9FD39469F
:10BD600004F1340004F085FD2368314620465B6908
:10BD7000BDE8F041184700BF548607007FB5C36B8C
:10BD800004460D468BB10B6801A89B69984701A931
:10BD900004F1340004F0E4FD064601A804F0ECFCD4
:10BDA0001EB90024204604B070BD636A73B12946F1
:10BDB00001A8FCF7DFFD01A904F11C0004F0C3FD9C
:10BDC000064601A804F0D8FC002EEAD0236B6BB124
:10BDD000294601A8FCF748FE01A904F1280004F057
:10BDE000BFFD044601A804F0C7FCDBE70124D9E746
:10BDF00038B5A0220E4D0F4B0360C28000230122F4
:10BE00000446037143710272C0E90333C0E905338C
:10BE100029461C3004F0FBFC294604F1280004F0FC
:10BE2000F6FC294604F1340004F0F1FC204638BD4C
:10BE3000548607005C45070003688B4208D94368B5
:10BE400000228A4202D05B680132FAE71868704724
:10BE50000020704770B50446406800252368AB4257
:10BE600006D9466808213BF079FA01353046F5E7F6
:10BE70000023C4E90033A36070BD000010B50A4B75
:10BE8000044640F8343B04F077FC04F1280004F049
:10BE900073FC04F11C0004F06FFC04F11000FFF7C8
:10BEA000D9FF204610BD00BF5C45070010B5044611
:10BEB000FFF7E4FF204640213BF050FA204610BD3A
:10BEC00070B50E4B05461868036800221B6D1146BD
:10BED0000024984705F110066C712B699C4209D229
:10BEE00021463046FFF7A8FF10B103685B6898470A
:10BEF0000134F2E73046FFF7ADFF70BDFC450700A7
:10BF000003688B4270B504461AD900224068134674
:10BF10008A42456803D0034601322846F8E706689E
:10BF200063B96560A268824208BFA36008213BF044
:10BF300015FA2368013B2360304670BD5D60F1E770
:10BF40000026F9E72DE9F041074694B00D4600249C
:10BF500001F110082B699C422AD221464046FFF786
:10BF60006BFF0646FCF7BDFD00B3314601A8FCF7A8
:10BF70008FFE21464046FFF7C3FF1EB133683046AF
:10BF80005B6898472B6801A9DB6B2846984750B13E
:10BF900001A93846FCF77CFE01A8FCF71FFC3846D7
:10BFA00014B0BDE8F08101A8FCF718FC0134D1E71A
:10BFB0003846FCF7BBFCF2E72DE9F04FC568ABB0A3
:10BFC00004460F4692469B469DF8D0809DF9D89036
:10BFD0002DB3032922D11A46514604A8FCF7B6FC1A
:10BFE000CDF80090359B4246394604A8FCF753FD36
:10BFF000236804A9DB6B2046984748B104A917A819
:10C00000E468FCF745FE17A8A04717A8FCF7E6FB75
:10C0100004A8FCF7E3FB2BB0BDE8F08F002504F18A
:10C0200010032269AA420DD9184629460393FFF747
:10C0300003FF5A4651460646FCF71DFD039B0028A8
:10C0400041D006BB23691F2B08D9002104F1100041
:10C05000FFF756FF10B103685B6898474C203BF030
:10C0600065F95A4651460646FCF770FC08203BF03D
:10C070005DF90023C0E90063636933BB6061256932
:10C08000A0616B1C2361042F22D0CDF80090359B5A
:10C09000424639463046FCF7FEFC3046FCF721FDAF
:10C0A0000028B8D0E368002BB5D0314604A8FCF7CF
:10C0B000EFFD294604F11000FFF722FF33683046F8
:10C0C0005B68984794E70135ABE7A3695860D6E70A
:10C0D0004B46359A41463046FCF7EEFCDDE770B43E
:10C0E00046799DF80C409DF9145026B105950394AE
:10C0F00070BCFFF761BF70BC7047000010B5054C05
:10C100002046FFF775FE2046034A0449BDE810406B
:10C110003AF0FDBE4C770020006000207DBE02009A
:10C12000406870474368994208D283680022914270
:10C1300002D05B680132FAE7186870470020704748
:10C1400073B5044630203BF0F1F832490546FDF75F
:10C15000BFF9E56154203BF0E9F8002506461423B9
:10C1600002222D490095FCF7CDFD266254203BF0BC
:10C17000DDF802231A46064628490095FCF7C2FD61
:10C18000666230203BF0D2F825490646FDF7A0F95B
:10C19000A66254203BF0CAF82022042321490095CE
:10C1A0000646FCF7AFFDE662E069FCF7D2FC206AC8
:10C1B000FCF7CFFC606AFCF7CCFCA06AFCF7C9FC7A
:10C1C000E06AFCF7C6FCD4E90701FDF7A8F9616A4B
:10C1D000E069FDF7A4F9D4E90A01FDF7A0F92368A5
:10C1E00011491B69204698472368294620465B6908
:10C1F000984723682046DB6A98472368E1699B6A71
:10C20000204698472368A16A9B6A204602B0BDE891
:10C2100070401847A0450700A5450700AA4507003C
:10C22000AF450700B4450700B945070010B50446FF
:10C23000C06948B1FCF792FC30B9E06910B10368FD
:10C240005B6898470023E361206A48B1FCF786FCED
:10C2500030B9206A10B103685B68984700232362F5
:10C26000606A48B1FCF77AFC30B9606A10B10368C3
:10C270005B68984700236362A06A48B1FCF76EFCD4
:10C2800030B9A06A10B103685B6898470023A362C5
:10C29000E06A48B1FCF762FC30B9E06A10B10368AB
:10C2A0005B6898470023E36223682046DB6ABDE8A9
:10C2B00010401847006AFCF7C5BC07B502AB022264
:10C2C00023F8021D406A1946FCF75CFC03B05DF8D8
:10C2D00004FB10B504460846FCF718FC014628B1DB
:10C2E000236820469B6ABDE81040184710BD2DE921
:10C2F000F0410025074688462C463B683846DB69F6
:10C300009847A84211D93B6829461B6A3846984786
:10C3100003689B6806469847B0F5205F02D0464503
:10C3200003D0264601353446E7E720463CB1FCF70A
:10C330000DFC0228204604D1FCF705FC0088BDE86E
:10C34000F081FCF700FC4089F9E70000074A026031
:10C350000022C0E90122C0E90322C0E90522C0E9A8
:10C360000722C0E90922C262704700BFCC4507001E
:10C3700038B5044608200D463AF0D8FF0023C0E93E
:10C38000005363682BB960602368A06001332360A9
:10C3900038BDA3685860F7E72DE9F84F04460D460D
:10C3A000084604F10408FCF7D4FB29464046FFF791
:10C3B000DFFF08203AF0BAFF0023C0E900536369A9
:10C3C000002B47D160612369A06101332361236899
:10C3D0002046DB69984700271FFA80FB2846FDF7B7
:10C3E0008EF8B8423BD939462846FDF78AF806460A
:10C3F000FCF7AFFB31464046FFF7BAFF2368204603
:10C40000DB69984781B23046FCF729FC3046FCF7DF
:10C41000A0FB31464046FFF7ABFF4FF00009304626
:10C42000FCF725FC484518D949463046FCF721FC65
:10C430008246FCF78EFB51464046FFF799FF236882
:10C440002046DB69984781B25046FCF781FD09F12F
:10C450000109E4E7A3695860B5E70137BEE723683F
:10C460002046DB699847594682B22846BDE8F84F16
:10C47000FDF73EB870B50446406800252368AB421E
:10C4800006D9466808213AF069FF01353046F5E7DC
:10C490000023C4E90033A36070BD70B50446406852
:10C4A00000252368AB4206D9466808213AF056FFBA
:10C4B00001353046F5E70023C4E90033A36070BDC1
:10C4C00038B50546064B45F8103B0446FFF7AEFE6F
:10C4D0002846FFF7E2FF201DFFF7CCFF204638BDBE
:10C4E000CC45070010B50446FFF7EAFF204630218F
:10C4F0003AF034FF204610BD70B50446002523688D
:10C500002046DB699847A8420FD9236829461B6A51
:10C51000204698470646FCF721FB20B91EB1336838
:10C5200030465B6898470135E9E7201DFFF7A2FF19
:10C53000002523699D420BD263690022954202D0F7
:10C540005B680132FAE71868FDF713F80135F0E788
:10C5500004F11000FFF7A1FF70BD000008B5054B06
:10C560001846FFF7F3FE044A04491846BDE80840A0
:10C570003AF0CDBC8C77002000600020C1C40200DE
:10C58000704700000023C0F80831024B18680368A8
:10C590001B68184738470700024B186803685B6838
:10C5A000184700BF38470700036800215B69184738
:10C5B00010B40368D3F8A4400023A4461A4640F6FA
:10C5C00003415DF8044B604737B5026802ABD2F80F
:10C5D000A45023F8021D022241F205410446A84757
:10C5E00050B9D4F81832BDF806201988914203D109
:10C5F00093F9020003B030BD7F20FBE713B502A919
:10C6000061E9022303680822D3F8A4400B4640F6F0
:10C610000141A04702B010BD13B502A961E9022390
:10C6200003680822D3F8A4400B4642F20101A04758
:10C6300002B010BD10B40368D3F8A44006220B4624
:10C64000A44642F205015DF8044B60471FB5089C03
:10C650008DF804309DF818308DF805309DF81C30A9
:10C660008DF806302368CDF80730A388ADF80B307D
:10C670009DF824308DF80D309DF828308DF80E305F
:10C680000368ADF80010ADF80220D3F8A4400F22E3
:10C690006B4642F20601A04704B010BD13B502ABD1
:10C6A000026803F8011DD2F8A44042F20A010122F7
:10C6B000A04702B010BD13B5ADF803309DF810309F
:10C6C0008DF805309DF814308DF8063003688DF82C
:10C6D0000010ADF80120D3F8A44007226B4642F2C7
:10C6E0000B01A04702B010BD13B503688DF804100C
:10C6F0008DF80520D3F8A440022201AB42F20C01D0
:10C70000A04702B010BD10B588B00B9C8DF8083062
:10C710009DF828308DF809302368CDF80A30A388B9
:10C72000ADF80E309DF830308DF81030BDF8343053
:10C73000ADF81130BDF83830ADF81330BDF83C30ED
:10C74000ADF81530BDF84030ADF81730BDF84430C5
:10C75000ADF81930BDF84830ADF81B300368ADF8BE
:10C760000410ADF80620D3F8A440192201AB42F220
:10C770000D01A04708B010BD10B40368D3F8A44061
:10C780000023A4461A4642F20E015DF8044B6047AE
:10C790001FB5ADF80430BDF81830ADF80630BDF85F
:10C7A0001C30ADF808300423ADF80A300623ADF88C
:10C7B0000C300368ADF80010ADF80220D3F8A440A7
:10C7C0000E226B4642F21301A04704B010BD10B414
:10C7D000D0F8EC402CB11946104623465DF8044BC6
:10C7E00018475DF8044B7047F0B51D4603688BB0E1
:10C7F0009B6F0F461646044698470AA8721E00F81B
:10C80000287D062312F8011F1954013BFAD1109B11
:10C810006A1E0DF11701013B0F3512F8016F01F887
:10C82000016DAA4213F8016F0E74F6D12368272216
:10C83000D3F8A45042F2270103462046A8472368B4
:10C840002046DB6F98470BB0F0BD13B502AB013A41
:10C8500003F8081D062112F8014FCC540139FAD112
:10C86000026842F22B01D2F8A4400722A04702B08E
:10C8700010BD07B503680122D3F888306946984790
:10C8800003B05DF804FB13B5002300930139CDF824
:10C890000330052311F8014F0DF8034013F1FF3366
:10C8A000F8D203688DF80620D3F8A44007226B461F
:10C8B00040F60D41A04702B010BD13B513238DF80B
:10C8C0000630026802ABD2F8A44023F8041D03220C
:10C8D00040F20641A04702B010BDC0F804117047F5
:10C8E0000023C0F8043170473AB190F81D329342EA
:10C8F00003DD9B1A80F81D3270470023FAE710B45D
:10C90000D0F8F8300C4623B1204611465DF8044BB0
:10C91000184718465DF8044B704710B4D0F8EC3057
:10C920000C4623B1204611465DF8044B18471846C3
:10C930005DF8044B704710B4D0F8F4300C4623B1C6
:10C94000204611465DF8044B184718465DF8044B25
:10C950007047D0F8FC302BB1D0F80001003018BF80
:10C96000012070470320704710B54FF4487104460A
:10C970003AF0F4FC204610BD2DE9F843424B044642
:10C980001D6819B12B6828469B6898473F4E404F59
:10C99000DFF800812B682846DB689847002870D0B4
:10C9A0002B6828465B699847D4F80831B3F5817F36
:10C9B0005FFA80F908DBD4F804010023C4F80831D9
:10C9C00010B1314603F0D2FDD4F808315A1C23448B
:10C9D000C4F8082183F80C9194F80C31022B25D16E
:10C9E000052AD7DD94F8101194F80F3103EB0123D9
:10C9F00004339A42CEDDD4F8043143B12368D2B275
:10CA0000D3F8C090414604F586732046C8470023FA
:10CA1000D4F80811C4F808312368D3F8B4300139C8
:10CA200004F20D12C9B220469847B3E7042B1CD17B
:10CA3000032AAFDD94F80E3102339A42AADDD4F80E
:10CA4000043143B12368D2B2D3F8C090394604F51B
:10CA500086732046C8470023D4F80811C4F808316B
:10CA600023680139D3F8BC30DAE7D4F80401002395
:10CA7000C4F8083100288DD01022494603F0ACFDDF
:10CA800088E7BDE8F88300BF38470700264607005F
:10CA90004E4607003B460700F0B5154616885288FB
:10CAA000AB88111F994287B004464FEA163609D069
:10CAB000012E00F21E271DD000F20D11043238465F
:10CAC00043F0E0F96A88AB88043A9A422DD1E888AD
:10CAD000298883B2042BC1F30B011CD1244B1868A5
