:1000000040A50020B5A101005F430300A1A10100AC
:10001000A1A10100A1A10100A1A10100A1A10100D4
:1000200000000000000000000000000075A30100B7
:10003000A1A101000000000035A30100A1A1010061
:10004000F5A40100F5A40100F5A40100F5A4010048
:10005000F5A40100F5A40100F5A40100F5A4010038
:10006000F5A40100F5A40100F5A40100F5A4010028
:10007000F5A40100F5A40100F5A40100F5A4010018
:10008000F5A40100F5A40100F5A40100F5A4010008
:10009000F5A40100F5A40100F5A40100F5A40100F8
:1000A000F5A40100F5A40100F5A40100F5A40100E8
:1000B000F5A401000DA20200F5A40100F5A40100C1
:1000C000F5A40100F5A40100F5A40100F5A40100C8
:1000D000F5A40100F5A40100F5A40100F5A40100B8
:1000E000F5A40100F5A40100F5A40100F5A40100A8
:1000F000F5A40100F5A40100F5A40100F5A4010098
:10010000F5A40100F5A40100F5A40100F5A4010087
:10011000F5A40100F5A40100F5A40100F5A4010077
:10012000F5A40100F5A40100F5A40100F5A4010067
:10013000F5A40100F5A40100F5A40100F5A4010057
:10014000F5A40100F5A40100F5A40100F5A4010047
:10015000F5A40100F5A40100F5A40100F5A4010037
:10016000F5A40100F5A40100F5A40100F5A4010027
:10017000F5A40100F5A40100F5A40100F5A4010017
:10018000F5A40100F5A40100F5A40100F5A4010007
:10019000F5A40100F5A40100F5A40100F5A40100F7
:1001A000F5A40100F5A40100F5A40100F5A40100E7
:1001B000F5A40100F5A40100F5A40100F5A40100D7
:1001C000F5A40100F5A40100F5A40100F5A40100C7
:1001D000F5A40100F5A40100F5A40100F5A40100B7
:1001E000F5A40100F5A40100F5A40100F5A40100A7
:1001F000F5A40100F5A40100F5A40100F5A4010097
:10020000F5A40100F5A40100F5A40100F5A4010086
:10021000F5A40100F5A40100F5A40100F5A4010076
:10022000F5A40100F5A40100F5A40100F5A4010066
:10023000F5A40100F5A40100F5A40100F5A4010056
:10024000F5A40100F5A40100F5A40100F5A4010046
:10025000F5A401008F7C0300F5A40100F5A40100C2
:10026000F5A40100F5A40100D97C0300F5A4010068
:10027000F5A40100F5A40100F5A40100F5A4010016
:10028000F5A40100F5A40100F5A40100F5A4010006
:10029000F5A40100F5A40100F5A40100F5A40100F6
:1002A000F5A40100F5A40100F5A40100F5A40100E6
:1002B000F5A40100F5A40100F5A40100F5A40100D6
:1002C000F5A40100F5A40100F5A40100F5A40100C6
:1002D000F5A40100F5A40100F5A40100F5A40100B6
:1002E000F5A40100F5A40100F5A40100F5A40100A6
:1002F000F5A40100F5A40100F5A40100F5A4010096
:10030000F5A40100F5A40100F5A40100F5A4010085
:10031000F5A40100F5A40100F5A40100F5A4010075
:10032000F5A40100F5A40100F5A40100F5A4010065
:10033000F5A40100F5A40100F5A40100F5A4010055
:10034000F5A40100F5A40100F5A40100F5A4010045
:10035000F5A40100F5A40100F5A40100F5A4010035
:10036000F5A40100F5A40100F5A40100F5A4010025
:10037000F5A40100F5A40100F5A40100F5A4010015
:10038000F5A40100F5A40100F5A40100F5A4010005
:10039000F5A40100F5A40100AD7E0300F5A4010061
:1003A000F5A40100F5A40100F5A40100F5A40100E5
:1003B000F5A40100F5A40100F5A40100F5A40100D5
:1003C000F5A40100F5A40100F5A40100F5A40100C5
:1003D000F5A40100C37C0300F5A40100F5A401000D
:1003E000F5A40100F5A40100F5A40100F5A40100A5
:1003F000F5A40100F5A40100F5A40100F5A4010095
:10040000F5A40100F5A40100F5A40100F5A4010084
:10041000F5A40100F5A40100F5A40100F5A4010074
:10042000F5A40100F5A40100F5A40100F5A4010064
:10043000F5A40100F5A40100F5A40100F5A4010054
:10044000F5A40100F5A40100F5A40100F5A4010044
:10045000F5A40100F5A40100F5A40100F5A4010034
:10046000F5A40100F5A40100F5A40100F5A4010024
:0C047000F5A40100F5A40100F5A40100B2
:100480002DE9F00791E8F807B2E802105B1854EB89
:100490000C04B2E802104D4156EB0C06B2E8021013
:1004A0004F4158EB0C08B2E8021059EB01095AEB26
:1004B0000C0A80E8F80780410130BDE8F00770477A
:1004C0002DE9F00791E8F807B2E802105B1A74EB27
:1004D0000C04B2E802108D4176EB0C06B2E8021073
:1004E0008F4178EB0C08B2E8021079EB01097AEB46
:1004F0000C0A80E8F80780414042BDE8F0077047E9
:100500002DE9F007524290E87800B1E880071740E3
:10051000DB1918EA020854EB080419EA020955EB42
:1005200009051AEA020A56EB0A0678C090E8780034
:10053000B1E8800717407B4118EA020854EB080431
:1005400019EA020955EB09051AEA020A56EB0A06EE
:1005500078C080410130BDE8F00770472DE9F00711
:10056000524290E87800B1E880071740DB1B18EA98
:10057000020874EB080419EA020975EB09051AEA86
:10058000020A76EB0A0678C090E87800B1E88007A6
:100590001740BB4118EA020874EB080419EA020983
:1005A00075EB09051AEA020A76EB0A0678C0804163
:1005B0004042BDE8F00770472DE9F00152424FF08C
:1005C000040890E8300091E8C000A31B1340E41A2F
:1005D000F618EB1B1340ED1AFF1830C0C0C1B8F17C
:1005E0000108EED1BDE8F001704700BF00B592E808
:1005F000DC072DE9DC07B1E8805702B4A7FB025104
:100600000A95A8FB020BE7FB6310E9FB62B00B91B4
:10061000A8FB0351EAFB6201E7FB64B5E7FB660553
:10062000E8FB6615CDF830B0A9FB03B6EAFB63160C
:10063000ECFB6356E8FB640BE9FB641BEAFB645BC1
:10064000ECFB646B0D90ACFB0230059CEEFB625042
:10065000E9FB6460EAFB64B0E7FB6431E8FB6451EA
:10066000069CE8FB6461E9FB64B1EAFB64010E935C
:10067000A7FB0432079CE7FB6462E8FB64B2E9FB7A
:100680006402EAFB6412049CE9FB6453EAFB6463C2
:10069000089CE7FB64B3E8FB6403E9FB6413EAFB33
:1006A00064230F955DF8049B99E80006DDF800804F
:1006B000A9FB0854EAFB68B4DDF81080ECFB680481
:1006C000EEFB6814E9FB6824EAFB6834DDF804807B
:1006D000EEFB6865E9FB68B5EAFB6805DDF81480A8
:1006E000ECFB6815EEFB6825E9FB6835EAFB68451D
:1006F0000F96DDF80880AEFB0876E9FB6806EAFB9A
:100700006816DDF81880ECFB6826EEFB6836E9FB1E
:100710006846EAFB6856DDF80C80ECFB68B7EEFB38
:100720006807E9FB6817EAFB6827DDF81C80ECFB2B
:100730006837EEFB6847E9FB6857EAFB686708B073
:1007400000BD00BF2DE9F14F87B0FFF74FFFDDF887
:100750001C8008F1200888E8FF00FFBC87E87F08BC
:10076000BDE8F08F00B591E89857A3FB03520195BF
:10077000A3FB0401E3FB6420E3FB67100292A3FBED
:100780000752E3FB6802E4FB6415E3FB6805E3FB47
:1007900069250391A4FB07B6E3FB6926E3FB6A56D0
:1007A000E4FB670BE4FB682BE3FB6A5BE3FB6C6B2E
:1007B0000490A4FB0810E4FB6950E3FB6C60E3FBCE
:1007C0006EB0E7FB6721E4FB6951E4FB6A61E3FB80
:1007D0006EB1E4FB6E010592A7FB0832E4FB6A628E
:1007E000E4FB6CB2E4FB6E02E7FB6E12E7FB6853BE
:1007F000E7FB6963E4FB6CB3E7FB6C03E7FB6E1399
:10080000E8FB6E230695A7FB0954E7FB6AB4E7FBF8
:100810006C04E8FB6C14E8FB6E24E9FB6E34E8FB27
:100820006865E7FB6AB5E8FB6A05E8FB6C15E9FB60
:100830006C25E9FB6E35EAFB6E450796A8FB097649
:10084000E8FB6A06E9FB6A16E9FB6C26EAFB6C36F4
:10085000EAFB6E46ECFB6E56E8FB69B7E9FB6907FD
:10086000E9FB6A17EAFB6A27EAFB6C37ECFB6C478B
:10087000ECFB6E57EEFB6E6700BD00BF2DE9F14F3C
:1008800087B0FFF76FFFDDF81C8008F1200888E8CB
:10089000FF00FFBC87E87F08BDE8F08F30B44FF061
:1008A000000310F8014B11F8015B013A84EA0504DA
:1008B00043EA0403F5D1A3F101034FEAD37030BC3E
:1008C000704700BF4FF0000310F8012B013943EAD5
:1008D0000203F9D1A3F101034FEAD370704700BFBF
:1008E00030B411F8014B12F8015B6C4000F8014B79
:1008F000013BF6D130BC70472DE9F00791E8F807CD
:10090000B2E802105B1854EB0C04B2E802104D413F
:1009100056EB0C06B2E802104F4158EB0C08B2E857
:10092000021059EB01095AEB0C0A8941B3F1FF336C
:1009300074F1FF3475F1FF3576F1000677F10007A9
:1009400078F1000879F101097AF1FF3A51F10001DB
:100950005B184C414D4156F1000657F1000758F124
:10096000000859EBD1795AEB010A80E8F807BDE895
:10097000F00770472DE9F00791E8F807B2E8021098
:100980005B1A74EB0C04B2E802108D4176EB0C0696
:10099000B2E802108F4178EB0C08B2E8021079EB54
:1009A00001097AEB0C0A89415B184C414D4156F123
:1009B000000657F1000758F1000859EBD1795AEBBE
:1009C000010A80E8F807BDE8F007704718EB040853
:1009D00059EB05095AEB060A5BEB070B5FF0000CBD
:1009E0004CF1000C18EB050859EB06095AEB070A05
:1009F0005BEB070B50EB0C005FF0000C51EB0C01B4
:100A000052EB0C0263414CF1000CB8EB070879F192
:100A100000097AF1000A7BEB040BA841B141A24125
:100A2000B3416CF1000CBBEB050BB041B941AA41DD
:100A3000BB416CF1000C4CF001068CF0020718EB86
:100A4000060859EB6C095AEB6C0A7BEB6C0B70EBEC
:100A50006C0471EB6C0572EB670653EB6C076CEB87
:100A60006C0C18EB0C0059EB0C015AEB0C025BF10F
:100A7000000354F1000455F1000556EBDC7657EB0A
:100A80000C0770472DE9F14F87B0FFF7AFFDDDF898
:100A90001080DDF81490DDF818A0FFF797FFBDE88F
:100AA000000FFFF793FF03B05DF8048B88E8FF00A9
:100AB000BDE8F08F2DE9F14F87B0FFF753FEDDF869
:100AC0001080DDF81490DDF818A0FFF77FFFBDE877
:100AD000000FFFF77BFF03B05DF8048B88E8FF0091
:100AE000BDE8F08F084B1B78002B4FF000038360AC
:100AF00018BF0222036008BF0122044B4360FF239A
:100B0000C2710372704700BFB01100204801080095
:100B1000064A074BDB7802604FF44272C371002330
:100B20008280082203728271704700BF2F44010047
:100B3000B0110020064A074B1B7902604FF4B872CF
:100B4000C371FF238280082203728271704700BF45
:100B5000CB3F0100B01100202DE9F341C41D002856
:100B6000064624F007040CBF0020204600F0DAFD02
:100B7000071E04DA6FF00B0002B0BDE8F0810EB979
:100B8000FC42F7D4354D297AE879AB7A03316A7A99
:100B900003300FF0A3F80028ECDB3C44A978EB7895
:100BA000002E04F10304194424F0030400FB01F1B6
:100BB0000CBF0020204600F05FFF20440EB9002843
:100BC000D8DB2B790446B3B1697C19446B7919449D
:100BD000FF29CFDC0330002EAA89C9B220F003041C
:100BE0000CBF0020204600F0B7FF0028C2DB044401
:100BF0000EB9002CBEDB012000F08AFDC8B1E97AF5
:100C0000B9B195F828300734002B24F0070415BF3C
:100C1000402325234FF481722822002E14BF204642
:100C2000002003F001FF0028A4DB04440EB9002CCF
:100C3000A0DBAB7BDBB12B7993B10734002EA97B12
:100C400024F007040CBF0020204607F0AFFD002869
:100C500090DB04445EB9002C09DA8BE7B011002068
:100C6000012000F055FD10B1EB7A002BE5D1714B5E
:100C70001B6893B1A97981B10334002EEA7B24F07B
:100C800003040CBF0020204698470028FFF672AFEF
:100C9000044416B9002CFFF66DAF674B1B688BB18F
:100CA000297C79B10334002E24F003040CBF00200A
:100CB000204698470028FFF65DAF044416B9002C83
:100CC000FFF658AF5D4B1F68B7B1697CA1B1033423
:100CD000002E2B7D24F0030408BF0020009318BFD2
:100CE0002046EB7CAA7CB8470028FFF643AF0444BB
:100CF00016B9002CFFF63EAF072000F009FD98B1B1
:100D0000A97989B10334002EAA7D24F003040CBF15
:100D10000020204601F00EF80028FFF62BAF044417
:100D200016B9002CFFF626AFB6FA86F795F8210023
:100D30007F09A0B10334EB7E297E24F00704194417
:100D40003B4644F00404C9B2224601F035F80028BD
:100D5000FFF610AF044416B9002CFFF60BAF95F860
:100D60002210002957D00734002EAA8C24F007083F
:100D70000CBF002040460EF0C6FF041EFFF6FAAE80
:100D8000444416B9002CFFF6F5AE1EB1A98C4046BE
:100D90000BF072FC297F00293FD095F82030002B02
:100DA0003BD0EA8B0734002E24F0070802F124021E
:100DB0000CBF0020404692B20EF0A5FF041EFFF6C5
:100DC000D9AE444416B9002CFFF6D4AE0334AB7E42
:100DD000297E24F0070495F8200019443B4644F08E
:100DE0000404C9B2224600F0D9FF0028FFF6C2AEC3
:100DF000044416B9002CFFF6BDAE36B1EA8B40466E
:100E0000297F083292B20BF03DFCEB6A5BB176B100
:100E1000EC620020B0E68846B7E7002EF5D000224D
:100E200011461046EFE7002EF3D12046A4E6283401
:100E3000FBD59FE65C0000206400002060000020DD
:100E40001FB572B6194B1D6BE5B9BFF34F8F18492B
:100E5000184BCA6802F4E0621343CB60BFF34F8FB4
:100E600000BFFDE7B4FBF6F4D3B20132002CF9D198
:100E700003F110026A4402F80C4C0A2233B901A8AB
:100E8000A847E2E7044600220A26EDE7013BDBB271
:100E900003F110040DEB0406B0FBF2F402FB1400A6
:100EA000303006F80C0C2046E8E700BFB0110020F7
:100EB00000ED00E00400FA0513B5114C6846A37A72
:100EC0008DF80130637A8DF80030237AADF8043064
:100ED000E379ADF8023005F0C9FB18B1D921032040
:100EE000FFF7AEFF207D05F01DFC08B1DC21F6E721
:100EF000E07C05F011FC08B1DD21F0E702B010BD87
:100F0000B011002038B5054600284AD00DF08CFA03
:100F100018B94FF0FF34204638BD13F0C6FBB0F5CA
:100F2000FA7FF6D8204C21482563002500F0C8FA46
:100F300026222946A01C84F83450257084F82850B5
:100F4000E56213F0A1FD40F2011301212A466380FE
:100F50001B2308462171E37140F21B33A1752381E5
:100F600040F2023363811F23A3814FF40273E381B4
:100F700044F601136382F723E383FB23A38404F085
:100F800011FC044620B140F249310320FFF758FF1D
:100F9000EFF3108572B600F01FFF002DBBD162B6D3
:100FA000B9E76FF01504B6E7B0110020B90E0000E4
:100FB00038B51446002840F0C280624D95F83430B0
:100FC000032B00F0B980B9B112B96FF0150038BD2C
:100FD0000139162900F2B380DFE801F00C1D203042
:100FE0005A63813666697B3C425055878A989B9E3E
:100FF00090A1A5001378AB700020FFF7ADFD00288D
:10100000B7BF012302236FF00B0085F83430A8BF6F
:1010100085F83430DBE71378EB70EDE79378002B3D
:10102000D3D0D378002BD0D013781A2BCDD95378C6
:101030001A2BCAD91368C5F80730DDE713786A7927
:101040009342C2D32B71D7E713782A799342BCD845
:101050006B71D1E713782A799342B6D86B74CBE7DA
:101060001378002BB1D05378013BDBB2F82BACD80E
:10107000138892786B82344B9A70BDE7107868754C
:1010800009F0C2FFB8E71378002B9ED0AB75B3E729
:10109000012000F03DFB237808B1012B95D9EB72BC
:1010A000AAE71388AB81A7E71378AB71A4E7072001
:1010B00000F02EFB10B92378012B86D9072000F011
:1010C00027FB18B12378002B3FF47FAF2378EB7315
:1010D00092E71378082B3FF678AF2B748CE71388D0
:1010E000FF2B3FF672AFAB7386E71378EB7583E7A0
:1010F00013780E2B3FF669AF2B767DE72368134AF2
:10110000EB61636853602389138175E713786B760D
:1011100072E71378EB766FE71378AB766CE71378AA
:1011200085F8263068E792786178207804F03AFBF9
:1011300000283FF461AF4AE74FF0FF3047E76FF018
:101140002C0044E7B0110020C2110020CC11002077
:1011500070B50C46054600283BD0002939D04B0716
:1011600037D11D4E96F83430012B02D16FF00B00B1
:1011700070BD032B02D14FF0FF30F9E700F0D4F837
:101180000028F8D02046FFF7E7FC0028EEDB134BE1
:10119000D3F8A828B2F1004F0ED1114AC3F8A828FD
:1011A000104AC3F8AC28104AC3F8B0280F4AC3F855
:1011B000B4280F4AC3F8B82813F0EDF92846F16AAD
:1011C00005F056FBFFF778FE0323002086F8343045
:1011D000CEE76FF01500CBE7B011002000A008505B
:1011E0005F00500308001C00040054011FAAF8000F
:1011F0000700D00010B5084C94F83430032B05D10B
:1012000005F052FB0BF02EFA06F0B4FB0EF0C3FE15
:10121000002084F8340010BDB011002050B1074BFD
:1012200003F1140253F8041B934240F8041BF9D154
:10123000002070476FF01500704700BF3550040064
:10124000074B10B593F834403CB905F0C7FA0320BA
:10125000044900F055FA204610BD4FF0FF30FBE77F
:10126000B0110020350B0000074B10B593F8344047
:101270003CB905F0C7FA0220044900F041FA2046C3
:1012800010BD4FF0FF30FBE7B0110020110B000044
:10129000074B10B593F834403CB905F0D5FA01205E
:1012A000044900F02DFA204610BD4FF0FF30FBE757
:1012B000B0110020E50A0000054B10B593F834404A
:1012C0001CB905F03DFA204610BD4FF0FF30FBE79A
:1012D000B0110020054B10B593F834401CB910F044
:1012E000E9FE204610BD4FF0FF30FBE7B0110020B3
:1012F000054B10B593F834401CB910F0DEFE2046C3
:1013000010BD4FF0FF30FBE7B01100200268002055
:10131000014B1A60704700BFE8110020014B1B68A9
:10132000184700BFE8110020024B1868003818BFAA
:1013300001207047E8110020F7B504462D4E071D27
:101340002C48376006F02EFB0228054606D12949B5
:1013500020460DF0AEFE284603B0F0BD042842D171
:101360003378092B0AD0252B1ED0314620460DF0AC
:101370001AFFB0F5817F2DD3722112E005213E20A6
:101380000DF06AFE0028F0D1F37801A932796846A1
:1013900043EA0223ADF800300EF078FA0028CFD0EF
:1013A00053210820FFF74CFD1A213E200DF054FE7A
:1013B0000028DAD17368694601A8C3F30F23ADF89A
:1013C000043011238DF806300EF082FA0028B7D0D1
:1013D0006521E6E70028B3D0A17820780DF03CFE27
:1013E0000028B8D1ACE70828B5D1024920460DF055
:1013F00098FEB0E7EC110020074B4FF0FF3141F6AB
:10140000FF72C3E9001205490022C1E900221F2131
:10141000C3E90212704700BF00000020F012002054
:101420003F280CD801380B4BC0F3421200F01F00CC
:1014300053F8223023FA00F000F001007047FF2833
:1014400006D04038044BC0F3421200F01F00EFE713
:101450000120704700000020F0120020074B0146D9
:10146000006849681A4603C240F48C221A6041F0B1
:10147000107242F4FF625A60704700BF0000002003
:101480000246024B0068516803C37047F012002007
:101490000246024B0068516803C3704708000020F1
:1014A0000138064BC0F3421200F01F0003EB820329
:1014B0009B6823FA00F000F0010070470000002054
:1014C000014B1860704700BFF812002010B5FFF7FD
:1014D00093FF10F0B4F8034B04461B6803B1984720
:1014E000204610BDF812002038B5274B0446D3F82B
:1014F000A023D3F8A413013106D1D3F8A8334FF6B3
:10150000FF719BB28B423DD0D3073BD51E4DD5F822
:10151000A423D5F8A833C4F80120A4F80530C3F3F8
:10152000072363F03F03A371D5F89033013323D031
:10153000D5F8943301331FD0D5F8983301331BD03D
:10154000D5F89C33013317D0002005F037FB98B94C
:10155000D5F89003D5F89413D5F89823D5F89C3393
:10156000C4F80700C4F80B10C4F80F20C4F81330F7
:1015700001230020237038BD10220021E01D13F04C
:1015800083FAF5E70023F4E700C0FF0070B5274DAC
:10159000102200210446D5F8A06313F075FA10223A
:1015A0000021A01813F070FAD5F8803301330BD165
:1015B000D5F88433013307D1D5F88833013303D10B
:1015C000D5F88C3301330BD0D5F88003D5F88413CC
:1015D000D5F88823D5F88C3320616161A261E3617D
:1015E000002005F0EBFA08B9F3071CD40F4BD3F831
:1015F000902301320BD1D3F89423013207D1D3F8D1
:101600009823013203D1D3F89C2301320BD0D3F8B5
:101610009003D3F89413D3F89823D3F89C33206025
:101620006160A260E360002070BD00BF00C0FF00E9
:1016300070B50C88C27CA6B2C4F30E04931C058856
:1016400004F114021D44825AADB21A4443882A445C
:10165000013AB2FBF5F202FB054292B29342044B0F
:101660008BBF3340B34313439BB20B8070BD00BFAD
:101670000080FFFF4A1E062A08B50346084604D824
:101680004FF4D1711520FFF7DBFB094A914202D9D3
:1016900040F2A311F6E711B903B1196008BD2BB1EF
:1016A0001B680022C3E901211A1D1A600430F5E706
:1016B000FAFFFF7F10B5114B00EB41041A786389E4
:1016C000B3FBF2F303FB0223013A1A44B2F5706F45
:1016D000027928BF00231A448378B2FBF3F019443F
:1016E00003FB1020091AB1FBF3F003FB10131344A2
:1016F0006FEA43436FEA5343638110BDFC1200203D
:10170000024B03EB80035960704700BFFC120020BE
:10171000034B03EB80035868003818BF0120704763
:10172000FC1200202DE9F04F10F0070A85B00546A5
:1017300004D040F261111720FFF782FB544F04469A
:101740004FF0010B07F14806B146B04657F8043B8D
:101750008DF80BA03BB101A898479DF80A30082BE3
:1017600001D9E821E7E79DF80B1081BB05B1316095
:10177000B94506F10406E9D12DB30023DFF814E1E1
:1017800011221E468EF8003058F82200013A60B14E
:1017900090F804A08178BAF1FF0F64D14FF00007F0
:1017A0008E4207713CBFCEB20123511CECD10BB16C
:1017B0008EF80060112640F6FF6A58F82670002F58
:1017C00063D1013EF9D2601B05B0BDE8F08F9DF8F2
:1017D0000AC04A1DBCF1020FE64604EB420438BFC2
:1017E0004FF0020E53000EF1FF300444CEF1000022
:1017F0002040BDF808406444CCF1000C013C04EAF0
:101800000C04B4F5803F01D3F82194E775B1C31AF5
:10181000336099701C8083F803B09DF80C201A7116
:10182000019A4FEA124C1A81A3F806C004FB010486
:101830009EE758F82C90B9F1000F06D099F804B043
:10184000D34504BF99F802904F440CF1FF3CBCF122
:10185000000FEEDA3944FF29A2D90BB18EF80060EF
:1018600040F2271167E794460027F0E707EB4103B2
:1018700009F101093846A3F80AA0FFF71BFF5FFA38
:1018800089F1BB788B42F1D89BE74FF00009F6E76E
:1018900000130020FC120020F8B54FF6FF73054638
:1018A0000380184B03EB8103D86CB8B186780379B9
:1018B000B3FBF6F206FB1233DBB219460A1D00EB4E
:1018C0004202B2F902705488002F09DB0131B1FBEA
:1018D000F6F206FB1211C9B28B42EFD10020F8BD1F
:1018E000FF29FBD0C4F30E03C4782B8024B94FF436
:1018F000D5711720FFF7A4FA5380BDE8F8400EF029
:10190000CCB900BFFC1200201D4B03EB810370B566
:10191000DC6C054644B3030404D54FF4DC71172096
:10192000FFF78EFA014620460EF09AF9FF2801468D
:1019300004D02046BDE870400EF0AFB9A078B5FBEA
:10194000F0F300FB1353DBB219460A1D04EB420609
:10195000B6F90260002E09DB0131B1FBF0F200FBA9
:101960001211C9B28B42F0D1002070BDFF29FBD00B
:101970008B4204EB42021CBF0023E3705580D8E782
:10198000FC120020094B03EB8103014610B5DC6C0F
:1019900020460EF065F9FF28014604D02046BDE838
:1019A00010400EF07AB9002010BD00BFFC120020DC
:1019B000F8B5104B074603EB81030146DC6C20466B
:1019C0000EF04EF9FF28054611D0E688238953EA28
:1019D000064606D0014620460EF05FF9014638461D
:1019E000B04720462946FFF765FE0020F8BD0520D8
:1019F000FCE700BFFC12002038B50E4B044682798C
:101A000003EB8203D86C08B9052038BD8278E179F0
:101A10009142F9D24B1CE37100EB41035D89B3F9AC
:101A20000A30002BF3DBA5800EF037F92060002090
:101A3000EBE700BFFC12002008B50E4B03EB81035F
:101A4000DA6C22B940F226211720FFF7F9F99178D4
:101A5000831A481DA3EB40031088B3FBF0F3002B5F
:101A600001DB994202DC40F22921EDE702EB43035E
:101A7000588908BDFC12002070B5044610F0030020
:101A80000E4603D04F211820FFF7DAF9FFF7F2FDD9
:101A9000054624B1034831460460FFF7EBFD2846B4
:101AA00070BD00BF901300202DE9F14FDFF870B03A
:101AB0001E4607460D46DBF8003090469DF828A0EC
:101AC0009DF82C901BB961211820FFF7B9F95246F7
:101AD000092140460DF04BFF4A4684B209213046A9
:101AE0000DF045FF81B2DBF8000021440EF08DF8C7
:101AF000386018B9286001B0BDE8F08F044453463F
:101B0000414609222C6038680DF0EAFE4B46092256
:101B10003146286801B0BDE8F04F0DF0E1BE00BFCE
:101B20009013002070B50E4604460DF033FF0546B5
:101B300030460DF02FFF044B2A1821461868BDE8E7
:101B400070400EF086B800BF90130020014B18685B
:101B50000EF04FB8901300201F2AF8B50446134624
:101B60000ED89200033222F00303B3F5803F2DD24A
:101B7000184DACB1A00710D05F210920FFF760F924
:101B8000FF2B4FEA420204D9FF339A42A8BF1A46FC
:101B9000E8E77C2AB8BF7C22E4E729706C602B81DF
:101BA00022F0030228230127120403FB01F06B68D3
:101BB0000025120CEEB28E4200D3F8BD14B12618E7
:101BC0001F705E60104401352833F3E74FF0FF309B
:101BD000F3E700BF94130020144A002138B553687E
:101BE0001478C8B2844203D8AB210920FFF728F942
:101BF0001846013128330578002DF2D0002181707C
:101C0000012412898161051D44709208C16100F1AF
:101C10002001446821F8022B994245F8044B1444F2
:101C2000F8D100234361037038BD00BF9413002036
:101C30000A4B1B89B3F5FF7F4FEA930006D25A087F
:101C40009B1A9BB2984238BF18467047B3F5EE6FA7
:101C500001D8FF22F4E740F27263F3E79413002007
:101C60002DE9F8434B7880460C4602F0040602F05A
:101C7000FB07D3B1DFB12E4BD4F804901D89B7BB5D
:101C80000123AD084A46211D637004F1280004F1C8
:101C90002003A761E76123F8025B984241F8042B17
:101CA0002A44F8D10023636101E0002FE3D0FF2331
:101CB000A370002E18BF0226A3191B7D032B03D18E
:101CC000022F1CBF0136F6B2A31901221A7506F1C4
:101CD0000C02002304EB860624F812307268A3700D
:101CE0004046C8F80020A8F80430BDE8F883002179
:101CF00014226170A01812F0C7FEB5F5FF7F0FD255
:101D00006B08ED1AADB209EB0502C4F80490258406
:101D1000A2606384C4F80C90A5842261E384C6E7C2
:101D2000B5F5EE6F4FF0FF03EBD940F27265EAE7CD
:101D3000941300202DE9F84305460C46F7200521B1
:101D400091460DF014FE061E22DB1DB906FB04F0C1
:101D5000BDE8F88315F0030703D098211920FFF799
:101D60006FF8DFF83480C8F81050A5B2A8F81460F6
:101D7000BBB29D42EAD9B8F814C04B46D8F810005F
:101D80000522F72107FB0C0001370DF0A9FDEFE755
:101D90004FF0FF30DCE700BFA813002007B5CDE906
:101DA00000230B4603490246081D0EF0CEF803B08F
:101DB0005DF804FBC013002013B5064CCDE90023E9
:101DC0000B46024604F1080104F10C000EF0BDF8C8
:101DD00002B010BDC0130020124B01224FF0FF30A3
:101DE00000211B685A60C3F80803C3F80015C3F844
:101DF00004250D4B1B685A6040F6FE72C3F80803B9
:101E00004020C3F80015094B0949C3F80825C1F85B
:101E10008800BFF34F8FBFF36F8FC1F88801C3F8FD
:101E20000825704768220020642200200020085006
:101E300000E100E00A460648382302F8033BC36885
:101E4000C1F803300369536043699360704700BF72
:101E5000D0130020024B5A8C02435A845B6A184705
:101E6000D0130020014B00215B6A1847D0130020DB
:101E700010B5154C0AF008F809F022FB208DFFF789
:101E8000F1FF237E63B12246104904F1190052F894
:101E90000C3BE36063685360A368936011F070F9D2
:101EA0000B4B228D93E8030006F00AFD236B188884
:101EB00006F030FCA36B94F8341094F83500984782
:101EC000002384F83C3010BDD0130020351E0000E4
:101ED000FC130020034B93F83C300BB1FFF7C8BF55
:101EE000704700BFD013002070B5224C0646636CCB
:101EF000256B236495F8A43094F848000BB10430A6
:101F0000C0B295F87D102EB9FF2803D195F87C302A
:101F10008B4201D009F02CFE95F8A43023B3E06C7D
:101F20000AF094F894F82C30E16C003B206C18BF58
:101F3000012384F87030D5E94223C4E9182309F05D
:101F4000D9F946B995F87D30033B012B94BF282081
:101F500000200AF0B9F895F87C1000200AF014F976
:101F6000022384F83C3070BD206C0AF06FF809F051
:101F7000A7FAE6E7D01300200138C0B2032808B55D
:101F800004D940F22B410620FEF75AFF014B185CA2
:101F900008BD00BF34A8030008B5094B93F83C20E6
:101FA000022A04D040F253212720FEF749FFDA7AB3
:101FB00042F00102DA72BDE80840FFF759BF00BFE6
:101FC000D013002010B50E4CA26F137803F003035A
:101FD000032B04D1D378022B01D1002010BDE06F78
:101FE0000DF06AFD0028F9D1A36F1B7803F00303FD
:101FF000032BF2D004F0A2FD80F00100C0B2EDE7A7
:10200000D013002038B51E4C0546D4F880309847D0
:1020100008B9012038BD94F83430002BF9D194F878
:102020002C301BB9012D03D00020F3E7002DFBD18C
:1020300094F88430DD06C3F3001001D5FFF7C2FF2A
:10204000636CD4F888201B78C3F300132AB9B4F862
:102050008C2013B1B2FA82F35B0994F82C10628CD5
:1020600039B1910705D5A36FD878023818BF012080
:10207000D0E7002ACDD10028D6D183F00100C9E7EE
:10208000D01300202DE9F341324C06460F4694F858
:102090003C30256B012B5FFA83F804D040F2A44159
:1020A0002720FEF7CDFE95F8943053B1002104208F
:1020B00085F89410FFF7CEFE94F82C300BB185F81C
:1020C0009680A16F0B7803F00303032B05D195F8DD
:1020D0009A3013B90220FFF7BDFEA26F137803F008
:1020E0000303032B02D053782BBB012385F89A30CE
:1020F00095F8A430CBB194F82C30226B003B94F8C7
:102100004880D5E9420118BF0123C4E9180192F8BB
:102110007D0084F87030FFF72FFF002203460E4940
:1021200002200092424609F07DF836B102B0BDE8C7
:10213000F041FFF79DBE0223D8E7002FF6D03046CE
:10214000FFF760FF0028F1D102B0BDE8F041FFF7D2
:10215000CBBE00BFD01300202014002037B5684C40
:102160000023256B8DF8053095F8A42094F84830AD
:102170000AB10433DBB295F87C1028B9FF2B03D1E8
:1021800095F87D308B4202D0FF2009F0F1FC95F8E4
:102190009A30032B00F2AB80DFE803F0023B899C0E
:1021A00094F88E305748ADF80630A5F86C3004F03E
:1021B0009BFC80B1A16F4FF48070FFF74BFE0121B3
:1021C000A36F85F89510DB781B2B1ED105F110004D
:1021D00009F0FEFC19E00DF105020DF10601E06FBA
:1021E0000DF000FCA067A0B195F8E1308BB99DF827
:1021F00005302BB9038001218370A06F10F05CFEC5
:10220000BDF80610A06F10F062FF012384F88F3034
:1022100001E03D4BA36795F89B30A16FDB0003F015
:1022200008020B7803F0F303134395F89C20920007
:1022300002F00402134323F010030B70FFF7C2FEF9
:102240000028A06F14BF10230023027813430370EB
:1022500095F8A330002B4DD04378002B4AD0E06C8A
:1022600009F0F4FE94F82C30A16FB3FA83F3E06C1C
:102270005B0984F87030D5E94023C4E9182309F0DC
:1022800039F8A06F0DF099FE95F87D10012009F046
:102290007BFFA26F0123118884F8E030A4F884103A
:1022A00091781A4A84F83C30917003B030BDB5F88B
:1022B0006C300DF105020DF10601E06FADF806304E
:1022C0000DF090FBA06700289FD140F2F32127205A
:1022D000FEF7B6FD0B4804F007FC10B940F2FD21F3
:1022E000F5E7A36FDB781B2B8FD101216EE740F25E
:1022F0000B31ECE709F0AAFE09F0E2F8C1E700BFF4
:10230000D013002048140020601400205414002032
:10231000064B10B593F83C2002F0FF0422B91C765E
:1023200006F0C6FA204610BD0C24FBE7D0130020AF
:102330000A4B0B4A70B506460D461A60FFF7E8FFD8
:1023400018B1E1212720FEF77BFD064C012104F1A5
:10235000900010F0B1FD6664E56470BD7800002067
:1023600068000020D0130020024B012283F8E120F6
:10237000704700BFD01300202DE9FF41B14D02AEE0
:102380000A9F86E8030095F83C1001F0FF0411B99C
:102390000AB103B127B940F26F112720FEF750FDB3
:1023A00096E8030005F12C0C85F8E14085F83440EF
:1023B00085F8E24085F8354085F8E04085F88F40A3
:1023C0006C842C856A62C5F88030AF638CE80300AA
:1023D0002C6B09F01FFC09F073F894F9800009F0E8
:1023E0008DFCA06B09F016FE206A09F08DFC94F8B4
:1023F000B40009F0AFFC95F82C60E26941F64B534C
:10240000002E40F0CB809A4200F2B7804D2009F0B8
:102410003FFB304609F004FD6E2194F87C2000203B
:1024200009F01EFD884B186809F0FAFD6369EB6737
:10243000A369C5F8E43094F88B307BB9D4F88420D4
:1024400062B1B4F8CE10B4F898308B4206D1B4F82B
:1024500088100B44A4F8CE300123136004F5887370
:102460007A4E04F590771868083353F8041C324606
:10247000BB4203C21646F6D15968D4F820012B6B33
:10248000734A03C293F89E2093F87C00A2F12601C0
:10249000012904D993F89F10262940F0948095F8DB
:1024A0002C20002A40F08C8093F84A120DF075FD24
:1024B000064604F144073146384610F022FF314603
:1024C00010F075F9B4F8503094F87D10834228BFAD
:1024D0000346384685F88E3010F0D9FE94F87D100A
:1024E00094F8A4600429B4F8588008BF032110F0C0
:1024F0005EF90EB9043080B2404528BF40465FFA0D
:1025000080F885F8E88005F055FB20B1B8F1490F57
:1025100038BF4FF0490895F82C6085F84880002EA8
:1025200076D194F8A3308BB1012394F87C0085F820
:102530007030D4E94023C5E91823FFF71DFDFB22C5
:10254000034642490420009608F06CFE0120FFF784
:1025500005FE00232B606B60AB60B4F898306B8095
:1025600023882B8094F8B4302B71D4F88C300BB1C5
:1025700001221A6004B0BDE8F081962009F088FAC3
:1025800094F87C20334B03EB820359684FF47A7341
:1025900001F5FA71B1FBF3F16E313EE79A420AD8C8
:1025A0004D2009F075FA012009F03AFC9B2194F8BE
:1025B0007D20012034E7962009F06AFAC421F6E76D
:1025C00093F8D61272E7213A012A0FD824290FD0A6
:1025D00095F82C20BAB193F84E315A0711D413F064
:1025E00001017FF463AF03F002015FE724290AD100
:1025F00095F82C203AB193F84E2193F8753013409A
:10260000EBE7042152E7032814BF0646042650E7EF
:1026100094F8A43093B1012394F87D00D4E9426783
:1026200085F87030C5E91867FFF7A6FC002203465D
:10263000064900920220424608F0F4FD0120FFF70F
:1026400053FC86E7D01300207800002020140020DF
:102650003814002034A8030008B5114B93F83C202F
:102660001AB9BDE80840FFF703BC93F82C2042B923
:1026700093F83C30012B12D040F231212720FEF795
:10268000DFFB93F83C20022A02D040F23521F5E727
:102690001B6BD3F81802BDE8084009F0E9BC08BD7F
:1026A000D0130020014B1876704700BFD0130020D4
:1026B000014B93F8E0007047D0130020044B93F8CF
:1026C0008F201AB9188DC0F3003070470120704771
:1026D000D0130020024B188DC0F3C020704700BFFC
:1026E000D0130020014B93F8E2007047D013002074
:1026F0002DE9F34182071E4D06460F462C6B22D56D
:10270000D5F8883023B940F295412720FEF798FB91
:10271000B5F88C201846296C033291F8018012F02C
:1027200088F90DF1020201A92864D5F8E4000DF042
:1027300056FA01980DF03DFA012238604146D5F86D
:10274000E4000DF003FAF3070ED5D4E94232013369
:1027500042F10002C4E9423294F89C30012B0CBFD4
:102760000023012384F89C3002B0BDE8F08100BF53
:10277000D01300202DE9FF47B54C00238046894641
:10278000276BCDE9023394F83C30022B04D04FF490
:10279000A3612720FEF754FB238D590606D4402061
:1027A000FFF760FB238D43F04003238597F8A430A7
:1027B000B8F1000F00F05281B3B108F0ABFE08F0A1
:1027C0008DFE88B9236C5A7872B11B7897F89C20DB
:1027D000C3F3C0039A4207D1012384F83530FFF7D1
:1027E00047FB04B0BDE8F087236C5978A4F88C103F
:1027F00009B3D4F8E4000DF080F9C4F88800238D03
:1028000097F89B2043F400732385236C1B78C3F354
:1028100080039A4200F0C280256B95F89A30002B15
:1028200040D0022B11D102A9E06F0DF0FDF828B9BC
:1028300040F20E41ADE7C4F88810E0E7D5E9403238
:10284000013342F10002C5E94032002194F82C30F6
:1028500085F89A103BB195F8963023B1102085F891
:102860009610FFF7F7FA95F895309BB1002685F89A
:10287000956004F04BF910B940F2254189E73146E3
:102880000820FFF7E7FAD5E94032013342F10002B0
:10289000C5E9403295F89B30012B0CBF0023012382
:1028A00085F89B30238D4FF0000A43F400632385A5
:1028B000216C97F89C200D78C5F3C0039A426FD025
:1028C0000025206C0DF079FB97F8A330B3B194F894
:1028D0002C3097F87C00B3FA83F35B0984F87030EE
:1028E000D7E94023C4E91823FFF746FB002203463B
:1028F000584900920420FB2208F094FCB9F1000F23
:1029000000F0C380012609F065FC1DB103A9022077
:10291000FFF7EEFEBAF1000F10D094F82C3043B15F
:10292000B4F80720B4F805301343B7F898201343E0
:1029300004D0B4F809300133A4F80930B8F1000F1D
:1029400000F0BD80B4F805300133A4F80530002351
:1029500084F8E230404805F0CBFE029830B10DF02B
:1029600028F9216B0022027205F06CF8039B33B149
:10297000216B00221A720C22039805F031F8002E08
:102980007FF42DAF238D1B063FF52BAF8020FFF783
:1029900069FA238D43F08003238522E7C24687E747
:1029A00005F00305266B032D14D0F5B996F89C307D
:1029B000013B18BF012386F89C30236C5B78002B09
:1029C0003FF47FAFD6E94232013342F10002C6E95B
:1029D000423276E7238D0120002543F4805386F8A8
:1029E00094002385FFF736FAE0E74D78002DDDD01F
:1029F000238D96F8A45043F48053238509F062F8A0
:102A0000042894F8E83006D1002D14BF1B221F22A1
:102A1000934228BF1346226C52789A420BD8D4F8BE
:102A20008830002B3FF44CAF94F8E1306BB120209C
:102A3000FFF718FA44E794F83430012043F010030C
:102A400084F834300AF046FA3AE74546AEE700BF6C
:102A5000D013002020140020FC1300200BB108F03C
:102A600067FD94F8E230013384F8E230238D43F4BB
:102A70008063238597F87D30033B012B02D801202A
:102A80000AF028FA0025AA461EE794F82C2094F8AC
:102A9000E2303AB1628C120704D5A26FD278022AD2
:102AA0003FF430AF012B3FF62DAF0120FFF7AAFA1C
:102AB000064600287FF426AFFFF750FB25E7B4F861
:102AC00007300133A4F8073044E700BF2DE9F04F89
:102AD00004468BB01E4600230D461746069390F819
:102AE0007D800FF05EFB94F806320B2B04D940F288
:102AF000C1310620FEF7A4F9C64A32F813B094F8A3
:102B00009F308344039387F001031FFA8BFB0493E8
:102B1000A7BB94F84432032B30D1039B0E2B2DD14D
:102B2000B4F8D432AB4229D1D4F84C322046B4F8B0
:102B30001C22C4F83832E369C4F83C32B4F892324B
:102B40001344C4F8403208F089F9E269D4F8DC3261
:102B50009A4203D004F1280011F00DFDD4F8D832C8
:102B6000E363B4F8D632A4F84030D4F8DC32E36141
:102B7000D4F8E0326362022384F84432B4F890A2BD
:102B800004F51873B4F89890A5EB0A0A0593A5EB21
:102B900009090FFA8AF30FFA89F9002B17DAD4E939
:102BA0009E23C4E9A2230023012284F85B324B4612
:102BB00094F844A2984F5FFA8AFABAF1030F00F230
:102BC000CE81DFE81AF006002B0163004B0132468C
:102BD000EEE794F87D1094F816020FF00FFE804691
:102BE000E06B5946404411F058FD5946C4F848027C
:102BF000E06911F052FDE26941F64B5307A99A4290
:102C000098BF4FF0020A5044C4F84C0208A809F0DB
:102C1000E9FA079BD4E9A2010093DDE9082311F04A
:102C2000D4FD814620460DF0EDF9D4F8943294F8A5
:102C30007D00D4F83CA0069309F006FC069B00F545
:102C40002240D4F84812BB3BB1309A444FF47A7317
:102C5000AAEB010A3031B0FBF3F0D044B4F84030B5
:102C6000A8EB090803EB4101A8EB0000069094F8DB
:102C70007D000DF0D3F9D4F89422069B38609B1A9E
:102C8000CC2B68D840F2C641302033E7E36B59467D
:102C9000D4F83C02184411F000FD5946C4F848022B
:102CA000E06911F0FAFC41F64B53E2699A4288BFA1
:102CB0004FF0000A5044C4F84C0220460DF0A2F92F
:102CC000B4F81C32D4F83C80D4F83CA2002B40F07D
:102CD0009A80002E00F09780D04494F87D0009F08F
:102CE000B3FBD4F84832A8F1BB0800F5224994F8A8
:102CF0007D004FF47A7BA8EB0308D4F8803209F109
:102D0000B1099844C31ED4E99E12012BA8EB010817
:102D1000B9FBFBF974D909F097FB00F2E730B0FB7F
:102D2000FBFBA8EB090808EB0B000690D4F848124F
:102D3000D4F83832D4F84022303194F87D0002FBC8
:102D40000311B4F8403003EB41010DF067F90123A2
:102D5000386084F84432E3694FF00008D4F84C221C
:102D600004F14400A3F5A2733F6806999B1A84F806
:102D700060829F4228BF1F46D4E9A232C4F818726D
:102D80005B1842F10002C4E99C3210F07EFA07445D
:102D9000A4F89052C4F86472D4E99C23C4E9A22335
:102DA00007F05EFA20B1D4F864321E33C4F86432FE
:102DB000B4F8081284F868824D1B2DB2002DC4BFF0
:102DC000022384F86832039B0E2B00F0CB80002E88
:102DD00040F0C98094F84432002B00F0E180E169B2
:102DE00004F51870D4F84C32C91A0FF0AFFC80B259
:102DF000002800F0D580149B03B118800120DFE08B
:102E00004FF03E0B8DE7D044D4F84832A8EB0303D3
:102E100006938BE74CA80300BC140020D4F84C2286
:102E2000E169D4F83802891A4B43D4F8401206936A
:102E3000B4F81C329944CB439944D4F84832303327
:102E400000FB0133B4F8401094F87D0002FB093315
:102E500001EB43010DF0E2F838607CE7E06958438C
:102E600006905EB3B4F81C1241BB84F85B12D4F830
:102E70004C1201FB130A94F89E30262BCDF818A0B3
:102E800003D094F89F30262B09D1B4F8D432EB1A32
:102E90001B0404D494F8D732002B18BF9846002A9C
:102EA0003AD0B4F81C32BBBBD4E99E23D4E9A001CC
:102EB00082428B4108D340F21A51E5E694F85B1246
:102EC00000297FF448AFD2E794F87D00C31E012BA0
:102ED00040D909F0B9FA00F522404FF47A7BB130BD
:102EE000B0FBFBF000F1AB0BD4F8803294F87D001E
:102EF000103BD4E99E125A1AC31E012B92442CD9BE
:102F000009F0A2FA4FF47A7300F2E730B0FBF3F065
:102F1000AAEB0B0A50440690B4F81C1240468944B0
:102F2000D4F84C1201FB09F909F130094FEA4909BB
:102F300049460DF073F8244A41F64B531060E0699E
:102F400098423FF608AF06AB49460FF074FC84F890
:102F50005B0200E74FF4897BC6E73E20D8E740F2EA
:102F6000325191E6E6B1B4F8301219B3B4F8322216
:102F700094F83432501CA4F8322202FB03339942F5
:102F80000EDD94F868325BB10023A4F8320284F8B5
:102F9000683204F015FE00F00700013084F83402B6
:102FA00004F5187194F85C020AF0F0FD20B940F2C3
:102FB0007B5169E60A46DBE7049B84F8583200201F
:102FC0000BB0BDE8F08F00BFBC140020F0B5044684
:102FD00085B018B9A6213020FDF732FF072900F28D
:102FE0000B81DFE811F008003E003E0039000901C6
:102FF000F500FD00070190F858321BB3B0F85632C7
:10300000B0F89820934217D1B0F80C22D31AA0F848
:103010009820A0F80E322046D4E99C23C4E99E23D0
:1030200007F00AFE94F81332002B00F09F8005B0E1
:10303000BDE8F04011F020BA9A1AA0F80E22A4F8C8
:103040009830E8E7B0F85432B0F898209B1AA0F80E
:103050000E32B0F85432F2E705B0BDE8F04009F0A6
:10306000CDB811F042FBD4E99E23801A61EB030135
:10307000012871F1000302DA40F20661ABE76FF05C
:10308000010383424FF000038B4102DA40F20761F3
:10309000A1E7E3690BB1B0FBF3F394F89F10B4F828
:1030A00056220E2942D10132A4F85622B4F89232A7
:1030B00002AEB4F898500133504FA4F89232B4F8ED
:1030C000D4301D44B4F8D230013DED1AADB23B68A6
:1030D0005BB1B4F8561200222046013989B29847F4
:1030E000B4F856321844A4F85602B4F856126B1AC3
:1030F00018043DD40023204600961A46FFF7E6FC4C
:1031000088B301282CD1B4F85622B4F80812BDF8BF
:1031100008301344521A12049BB204D5EA1A12F46E
:10312000004F18BF0B46A4F85632D0E7B4F89810F9
:103130000B449BB2D11A0D0454BF531C01339BB2F4
:10314000A4F8563294F85932002BAFD1B4F80C32AF
:10315000B4F85622934204BF0133A4F85632A5E7CF
:1031600040F2546137E7D4F88430F3B905B0F0BDCC
:1031700094F8A23030460394002B0CBF3E23082362
:1031800084F8C13001238DF8083005F059F8204645
:1031900011F074F9002394F85C0284F844320AF0C8
:1031A0007BFC202384F85C32E0E7B4F8CE20B4F84E
:1031B00056329B1A1BB2002BD8DDB4F888100B4492
:1031C000013BB3FBF1F303FB0123A4F8CE30CDE7C1
:1031D000012009F07FFE05B0BDE8F0400CF0FDBE17
:1031E00090F84432042B01D0C521F4E6002380F886
:1031F0004432BBE7CB21EEE6CF21ECE68400002091
:103200002DE9F04104460E46154690F8403103F092
:10321000FF071BB10C273846BDE8F08101464C483A
:103220000AF01CFC20288046F4D05822394604F5C8
:103230008C7011F029FC84F81881C4F81C61FF23FC
:1032400084F8403136B104F0D3FC00F007000130BF
:1032500086F8340202234FF00008A4F8503184F8B5
:10326000488111F024FA00F14906204610F036FF9B
:103270000146B6B2D8B30EF094FF00F5CD612846F2
:1032800089B211F00AFA2844C4F84C0111F02DFA61
:1032900030184FF00106A4F8268041F1000184F8AF
:1032A0002061C4E95601204610F02EFFD0B1A5F5EB
:1032B00094653146204610F092FE2D1AC4F8245130
:1032C0004FF0FF326FF00043C4E9582304F5A471B6
:1032D00094F818010AF05AFC70BB40F2C11130207A
:1032E000FDF7AEFD3046A43D10F0D8FFE5E72046DF
:1032F000DFF8608010F073FEA430C4F84C01B8F819
:10330000040048B1E08C38B104F072FCB8F8043025
:10331000B0FBF3F202FB1300064411F0E6F9361895
:1033200041F10001C4E95661002DC9D0AE1941F147
:103330000001C4E95861C9E7D4E9562300212046B9
:10334000C4E94C23C4E94E2310F00BFF63E700BF30
:10335000EB000100BC140020F0B5002385B0CDE9DE
:10336000003303238DF806306846FEF745FB88B12D
:103370001D4E01230027B3710223CDE902778DF89A
:103380000E3002A8FEF738FB0546A8B10023B37142
:1033900005B0F0BD00980CF08EFFE5E790F85C02F8
:1033A0000AF010FF94F85C0284F844520AF074FBAF
:1033B000202384F85C32DFE7029B002BE1D093F8F6
:1033C0005C22202ADDD018884FF6FF739842DDD0AA
:1033D0000221FEF7D7FA04460028DFD140F22B1174
:1033E0003020FDF72DFD00BFBC140020044B00224F
:1033F000DA719A7142F210729A80FFF7ADBF00BF86
:10340000BC140020014BD871704700BFBC140020D1
:1034100010B5044608F05CFB074B9A68824208D35B
:10342000E16941F64B52914203D9987980F001004D
:1034300010BD0020FCE700BFBC140020F0B504461E
:1034400085B090F8133203F0FF05002B6ED190F891
:103450004432032B6AD111F048F9D4E99E23801A33
:1034600061EB0301012871F100035FDB6FF00103E1
:10347000834275EB010304DA40F2AF513020FDF7CF
:10348000DFFCE269B4F898300AB1B0FBF2F2013324
:1034900013449BB2A4F85432B4F80C32B4F854225A
:1034A0009B1A1BB2002B41DD94F85C020AF074FCFD
:1034B00000283BD0FF2384F85932B4F8D4300DF102
:1034C0000E07B4F898501A4E1D44B4F8D230013D9E
:1034D000ED1AADB2336863B1B4F85412002220463D
:1034E000013989B29847B4F85432184480B2A4F82C
:1034F0005402B4F85432EB1A1B0417D4B4F8541223
:1035000000230122204689B20097FFF7DFFA68B155
:10351000012808D1B4F85432BDF80E2013449BB2F0
:10352000A4F85432D6E740F2F651A7E705B0F0BD53
:10353000840000202DE9B343044606297FD8DFE844
:1035400001F0042815252C3179003E4B9B7903F0BE
:10355000FF025BB900920123B0F80C12FFF7B6FA34
:1035600038B140F2CA613020FDF76AFC042384F8C8
:10357000443208F0E5FC0AF073F90023B4F898200F
:10358000A4F89232A4F8562284F8593202B0BDE869
:10359000B083032380F84432F8E708F0B9FAC4E9AD
:1035A000A001F3E7284B1B6803B1984794F87D30DE
:1035B000E569033BDFF88C90012BD4F84C3294BFC3
:1035C0004FF028084FF000089D4208F5807888BF2A
:1035D000ED1A99F8073098BF00251BB9636C9D421E
:1035E00028BF1D46D4F8187204F144000FF04DFEB8
:1035F000074402200AF03AFD0221ED1B25EAE57599
:10360000854228BF054628460AF076FD00B92F44BA
:103610004246394620460FF0C9FED4F81832C9F8A0
:103620000800E06918440AF0F3FC0028AED140F22B
:10363000793198E702B0BDE8B0430CF0E3BC40F24A
:10364000657190E7BC1400207C000020012A70B551
:1036500005460C46164615D0022A18D042BB08F083
:1036600037FA3246014620460CF0F5FD2A4612494B
:1036700094F8180109F01EFC40B94FF4EF613020B6
:10368000FDF7DEFB08F024FAC5F8940270BDD0F80F
:103690009412012220460CF0DEFD2A46064994F8D9
:1036A000180109F007FC0028F0D140F28971E6E723
:1036B00040F28F71E3E700BFCD2F0000014B9880EF
:1036C000704700BFBC1400200D4B0321186830B5B3
:1036D0000D4690F8992090F84B400132B2FBF5F37B
:1036E00003EB4303D31ADAB244FA03F3DB0703D440
:1036F000013911F0FF01F0D180F8992030BD00BFF1
:10370000C814002008B503F0F9FE014B187008BD7D
:1037100010000020054B10B41C68827C836804F103
:10372000420194F8410010BC0EF09EBFC814002066
:10373000024B18688C3001F0F5B900BFC8140020A6
:1037400038B5104CFFF7F4FF256801F093F92368B2
:10375000C5F88C00D3F88C0020B940F2EF4132203C
:10376000FDF76EFB01F0B2F910B940F2F141F6E756
:1037700008F06CFC002008F0A7FC2368042283F802
:10378000902038BDC814002038B51B4D04462B6866
:1037900093F89020022A04D940F6E2013220FDF786
:1037A0004FFB027C83F898201A44C168196792F88D
:1037B000BE2083F8BA2042685A67037A022B0ED0E3
:1037C00008F028FA08F0C6FC07F098FC0B4808F04F
:1037D00027FC0B4808F01EFC0A4808F095FA637CA9
:1037E00043B1286864300EF035FF2B68DB6E0BB1F7
:1037F00001221A6038BD00BFC8140020F400002068
:1038000055555500D6BE898E044B1A6892F854203F
:10381000920701D001F06EB958687047C8140020B3
:1038200070B5344D06462B6893F89020032A03D0D8
:1038300093F89020042A0AD1D3F88C0001F046F9BD
:10384000044638B941F2B5313220FDF7F9FAFFF7F5
:10385000DBFFF5E72B6893F8543013B941F2BB3125
:10386000F2E77EB10FF0F1FA38B12B6893F89020AF
:10387000022A0FD841F23B31E6E720460FF000FB69
:103880000028F2D12B6893F89020022A19D841F22F
:103890009B31D9E793F89020082A02D941F23C31B4
:1038A000D2E793F890302046AA6803F1804312696A
:1038B000033B52F8233098470C2814D941F2CE31FB
:1038C000C2E793F89020082A02D941F29C31BBE765
:1038D00093F89030AA6803F180435269033B52F891
:1038E00023309847E8E7AB68DB68BDE8704053F8E1
:1038F00020301847C814002008B5074B93F9002062
:103900007F2A04D14FF462713220FDF799FA0270D8
:103910007F221A7008BD00BF1000002030B5047867
:103920008FB004F00F0404A922460CF034FFFFF717
:10393000E9FE042C34D11C4D059B2C68197894F8B1
:103940009E2091422CD1597894F89F20914227D102
:10395000997894F8A020914222D1D97894F8A120A6
:1039600091421DD1197994F8A220914218D15A7927
:1039700094F8A3309A4213D19DF8212094F8A430F2
:103980009A420DD10DF10F00FFF7B6FF9DF90F30F0
:103990002A7B04A9009304F18C002B7C0CF0E6FE3A
:1039A00003200FB030BD00BFC81400202DE9F04F38
:1039B000044689B0062900F2CF80DFE811F06500E7
:1039C000F1000700CD00CD00CD002900734E08F0B6
:1039D0005BFA356895F85430990701D1032038E037
:1039E00095F89230002BF9D00DF11F00FFF784FFFE
:1039F0009DF91F3002222146029305F18C00337B92
:103A00000193FF23009305F142030CF09FFEE5E7CD
:103A1000624D2E6896F89230002B00F09D8096F84B
:103A200054309A0718D50DF11F00FFF765FF9DF977
:103A30001F3006F18C000622029321462B7B019356
:103A4000FF23009306F142030CF080FE00230920BF
:103A50002B7409B0BDE8F08FDF077DD55E0701D577
:103A600008F012FA0DF11F00FFF746FF9DF91F3015
:103A70002868062202932B7B0193FF23009300F119
:103A8000420321468C30C0E7444D2B6893F8542004
:103A9000500738D593F89320002A34D0626893F801
:103AA0005B10107888425AD1507893F85C108842A5
:103AB00055D1907893F85D10884250D1D07893F822
:103AC0005E1088424BD1107993F85F10884246D13E
:103AD000517993F86020914241D1627C93F85A1059
:103AE000511A4A424A4193F85610012954D0002AEB
:103AF00052D193F84E20082A03D093F89130934284
:103B00004AD008F0C1F92E6896F89230002B41D0C7
:103B100096F854309A0724D50DF11F00FFF7ECFEFC
:103B20009DF91F3006F18C000022029321462B7B69
:103B30000193FF23009306F142030CF007FE0123DB
:103B400009202B742B6893F89320002A81D193F8D5
:103B50009230002B7FF47DAF08F096F93EE700220B
:103B6000C1E7DF0716D55E0701D508F08DF90DF125
:103B70001F00FFF7C1FE9DF91F3028680022029345
:103B800021462B7B0193FF23009300F142038C30ED
:103B90000CF0DCFD0320D5E70A20D3E7C814002091
:103BA000674E81683268807C92F8923092F8488043
:103BB000049392F8933088F0010805930CF004FC0C
:103BC00092F8543007465D0740F18A8092F84D30F4
:103BD000002B00F0858092F84E50082D00F0838075
:103BE000284603F047F9002818BF8046002F7CD0F4
:103BF0002846A16803F020FB0546336893F84190FE
:103C00000DB149F0020993F85420500746D5626877
:103C100093F85B101078884269D1507893F85C1063
:103C2000884264D1907893F85D1088425FD1D07853
:103C300093F85E1088425AD1107993F85F10884249
:103C400055D1517993F86020914250D1617C93F81D
:103C50005A20891AD1F1000B4BEB010B93F891100C
:103C6000082947D093F84E305A1AD2F1000A4AEB8D
:103C7000020A002D41D1B8F1000F40D02046FFF7D5
:103C800049FD059B43B1316891F85610012953D085
:103C900011B95BEA0A034FD108F0F6F8336893F8DC
:103CA00054309B073FF49AAE08F0EEF8049B002BCB
:103CB0003FF494AE2046FFF72DFD10B9D6F80080F2
:103CC000FDB10DF11F00FFF717FE9DF91F303068A1
:103CD00001220293337BCDE9009300F14203D0E649
:103CE00092F8915079E7002587E73D4685E74FF048
:103CF000000BB3E74FF0000ABBE70120C1E72846FD
:103D0000BFE798F85530023B012B3FF667AE002F16
:103D10003FF464AE0DF11F00FFF7EEFD9DF91F307B
:103D200001222146029308F18C00337B0193FE238C
:103D3000009308F1420368E60028ADD00A2088E627
:103D4000C81400200F4A136810B593F89010022988
:103D500004D841F2BB413220FDF772F893F890107D
:103D6000082902D941F2BC41F5E793F890309268F6
:103D700003F180439268033BBDE8104052F82330C2
:103D8000184700BFC814002010B5054C637B2BB149
:103D900008F0E0F907F0B2F90023637310BD00BF2B
:103DA000C814002010B5054C237A2BB108F0D2F9C5
:103DB00007F0A4F90023237210BD00BFEC1B002004
:103DC00010B5094CFFF7E0FF0122236883F890202B
:103DD0000022A3F8BB2083F8BD20FFF7A9FC2068D0
:103DE000BDE810400DF0B3B8C8140020062938B55E
:103DF0001C469DF810501AD908291ED802B1E5B109
:103E00004368A3B912B94378DB0618D40D4B1B687D
:103E1000D3F88C000CF0B9FC00B135B92CB903F023
:103E20004BF800F00104204638BD0120F9E79DF869
:103E30001430002C08BF1C46F5E70024F3E70124EA
:103E4000F1E700BFC814002038B50D1E044614BFAA
:103E500003200520104403F045F9094B587370B155
:103E60005DB9033C012C94BF5524502407F01EF982
:103E70002046BDE8384008F061B94024F6E738BD77
:103E8000C8140020F8B5404CFFF752FC256800F03C
:103E9000F1FD2368C5F88C00D3F88C0020B940F2FE
:103EA0004C413220FCF7CCFF00F010FE054610B963
:103EB00040F24E41F5E7236893F8B0306BB12368C8
:103EC0001A6D93F8B110C3F83C2193F854200A43BB
:103ED00083F85420002283F8B020206890F89830AE
:103EE000034493F8BE7090F8903080F8BA705BB1DC
:103EF00090F89030012B07D000210CF038FE18B953
:103F0000BDE8F840FFF75CBF2368204A93F899307A
:103F1000D05C07F01FFF236893F89820134493F8B0
:103F2000BE60022E2ED004D8012E05D040F2EB71D7
:103F3000B7E7F31E012BF9D800F096FD314607F0E4
:103F400017FE284608F082F83146012007F008FFE6
:103F50007B1E2A46384659425941FFF775FF002318
:103F600022680821E373A3732374A2F8923082F8C5
:103F7000943082F881300323217382F8911082F803
:103F80009030F8BD0D20D9E7C814002064A80300C4
:103F9000144A10B5136800B941B9012103F18C002E
:103FA00000F010FEBDE81040FFF70ABF93F8901034
:103FB000082904D841F28B413220FCF741FF93F8E5
:103FC00090100C2902D941F28C41F5E793F890301A
:103FD000926803F180435268093BBDE8104052F8F3
:103FE00023301847C81400202DE9F04307296E4CF0
:103FF000904687B006460F464568226824D125BB07
:10400000B8F1000F4BD192F8543013F0030118BFF0
:10401000012113F0040382F8921003D00378591E93
:104020004B424B4182F8933092F880304BB1236879
:10403000D86F503010F077FA18B92368012283F84E
:10404000942007B0BDE8F0834DB32946707C0CF096
:10405000BBF9072F81466AD1637B73B168B1B8F1B0
:10406000000F5CD025680EF043FB236885F89100B3
:1040700093F8913023730123A373236893F891007D
:1040800008285BD17168707C0FF0F6FC2268054649
:1040900071689132707C02F015FF002860D02268B0
:1040A00092F8540010F003000AD092F84C303946D0
:1040B0000195304692F8922000924246FFF796FE14
:1040C000226800F0010082F8920092F8540010F08B
:1040D00004000AD092F84D3039460195304692F8E6
:1040E000932000924246FFF781FE304B00F0010022
:1040F00025681B6885F8930023B1414630469847F0
:1041000085F89400726882B3717C236883F8A410E8
:104110001168C3F89E109288A3F8A22025E092F8B7
:10412000BA1001299ED1284602F0AEFF6073637B6E
:10413000002BA2D0B9F1000F9FD093E704AA0DF194
:104140000F0102F089FF20B940F6A2313220FCF7BE
:1041500077FE04A99DF80F000FF08EFC05469EE740
:104160002368A3F8920083F89400226892F89430B0
:10417000C3B9B2F89230003B18BF0123B0680028E1
:104180003FF45FAF072F7FF45CAF92F891100829DE
:104190003FF457AF002B3FF454AF02F093FF0123DD
:1041A000E3734EE70123E9E7C814002088000020EC
:1041B00030B58BB00546FFF7A5FA114B1B6893F895
:1041C000543013F0060F04D001229621002010F085
:1041D000FFF92C786946284604F00F0422460CF0BB
:1041E000DAFA002221466846FFF7FEFE21466846BD
:1041F000FFF7DCFB0446FFF7C7FD20460BB030BDE0
:10420000C814002038B5144D2C6894F8483013B306
:104210006FF00043D4E92A129A4208BFB1F1FF3F80
:1042200019D010F062FAD4E92A23904271EB03030B
:1042300011D3012002F0CCFF68B12D6802F006FF17
:10424000044610F052FA054BA4FB03341B1844EB50
:104250000104C5E92A3438BDC814002040420F00CB
:1042600010B50446FFF790FA237A032B04D140F6E9
:1042700013113220FCF7E4FD0BB9FFF725FA064BCA
:104280001B6893F9580007F039FDFFF7FBFDBDE807
:104290001040FFF7B7BF00BFC8140020044B002236
:1042A0001B68A3F8BB2083F8BD2083F890207047DB
:1042B000C81400202DE9F041664F002305468846CA
:1042C000D7E900600370437007F0C0FE032D3ED1B4
:1042D0007A68137823F00F0343F0030313700C2361
:1042E000537006F19E0178680EF0A5FB96F8A410B5
:1042F00078680EF0B4FB3B6893F8482003F1420461
:1043000093F841608AB193F85420520740F19280AB
:1043100093F84D20002A00F08D8093F84E0002F0B3
:10432000C5FF00281CBF04460126214678680EF010
:104330007BFB314678680EF085FB474BD3F80C3297
:10434000002B7AD040F22F613220FCF779FD052D49
:10435000C7D17C682222386841F64B5C23786270B2
:1043600023F02F0343EA481141F005012170036D4A
:104370001B6AC4F80F30016D8B6BE3741A0A1B0CB7
:1043800022756375CB69B1F84020634594BF4FF047
:10439000640C40F2E24CB2FBFCF241F64B5CD2B250
:1043A0006345A275CA6B94BF4FF0640C40F2E24CB7
:1043B000B2FBFCF292B2A3F57A7CE275120A227685
:1043C00041F27072944595BF4FF47A7240F2E24226
:1043D000B3FBF2F3B3FBF2F398BF03F550639BB268
:1043E00063761B0AA3768B8CE3761B0A2377CB8C30
:1043F00063771B0AA377D1F8A730C4F81F3091F870
:10440000AB3084F82330036D93F8B23094F8242055
:1044100003F01F0322F01F02134384F8243002F03C
:10442000B3FA94F8243003F01F0343EA401384F8EE
:10443000243056E793F8910071E7052D08D13B68C9
:1044400021681A6DC2F80A10A188D1811B6D5E72B5
:10445000BDE8F081C814002000A0085010B50B4C36
:1044600000210320FFF726FF032120680CF07FFBCB
:1044700018B9BDE81040FFF7A3BC0121084607F0BA
:1044800083FE2368092283F8902010BDC814002001
:10449000F8B5184F0E46012178600020FDF734FA78
:1044A000054620B940F67F013220FCF7C9FC4FF4E5
:1044B000A472002110F0E8FA01210846FDF724FA61
:1044C000044620B14FF4A472002110F0DDFABB685D
:1044D00013B940F68901E7E730460BF0D1FF2846D3
:1044E0000CF0B2FB24B12046BDE8F8400CF0ACBBA8
:1044F000F8BD00BFC8140020014B024A9A60704703
:10450000C8140020DC000020026810B522B940F673
:1045100053113220FCF794FC034B1A609B68BDE8F2
:1045200010401B68184700BFC814002008B5054B91
:10453000012118688C3000F045FBBDE80840FFF70A
:104540003FBC00BFC814002038B590F84030054685
:1045500013F0FD0F05F1420114BF0120002085F882
:10456000410002F013FB95F84030023BDBB2012B17
:1045700094BF0123002385F8483016D802F066FD69
:10458000044610F0B2F8094BA4FB03341B184FF09B
:10459000000044EB0104C5E92A3402F019FE20B9F9
:1045A00040F6F6113220FCF74BFC38BD40420F00BC
:1045B000014936300EF0DEBDED03010010B5074CA9
:1045C000014620680BF0D7FBEFF3108272B6237917
:1045D0000133DBB2237102B962B610BDDC140020D6
:1045E00008B5054B9A6822B940F2A1113320FCF7B7
:1045F00027FC00229A6008BDDC1400202DE9F84F4A
:1046000093463F4A0D461E460021137904689DF8E3
:1046100028709DF82C809DF930909DF834A00160A1
:104620006BB91068A4F108010BF0A5FB344A1379AB
:104630000133DBB21371BDE8F84FFFF7D1BF1A2287
:1046400004F1090010F020FA0123A372BBF1060F58
:104650004ED8DFE80BF00432384D424D3C00E37A8F
:1046600023F0130343F01303E372012304F10E025A
:1046700041462846237547F6FF7384F81890E38275
:1046800004F10D030CF036F8E37A5B0735D5BA1E5A
:1046900004F11C03012A8BBFAA6832681168E26129
:1046A0008ABFE161B28892889A80E77600232372FC
:1046B000144920460EF05EFDBDE7E37A23F01503B2
:1046C00043F01503D0E7E37A43F01003CCE7E37A35
:1046D00023F0120343F01203C6E7E27A4AF01A0A03
:1046E00022F01B020AF01B0A42EA0A02E272BCE74D
:1046F00040F219413320FCF7A3FBFF23E376D5E713
:10470000DC1400203147000010B5084CA16861B1ED
:1047100001F10803984206D020680BF02CFB2379A6
:104720000133DBB223710023A36010BDDC14002031
:104730002DE9F04705468CB00C4600200121FDF71D
:1047400021F9064620B940F2C1113320FCF778FB6D
:10475000C8300CF0F9F918B196F85430042B2CD16C
:1047600030460BF087FE064638BBAD4C04F104081A
:104770006F6AA7B9A5F10800FFF720FF02238DF8A3
:1047800004708DF805309DF80430002063F30700B5
:104790009DF8053063F30F200CB0BDE8F087686A20
:1047A0000368A0426B62067046708670C670DFD0E8
:1047B0004045DDD0FFF702FFDAE76E6A36B3994B6A
:1047C0009E4226D0043B9E4223D006F1370A4FF08A
:1047D000000802F08BF88146B8F1000F40F0058127
:1047E00002A950460CF06AF8B9F1000F16D004F196
:1047F0000D00EF7A17F0100713D09DF81870059987
:104800003A4610F016F94FF0010828E005F12F0A9A
:10481000DDE74FF001084FF0000ADAE704F11C0071
:10482000E7E7002EEFD09DF80830022BEBD00146D1
:1048300095F82E30E52250460EF08DFA95F82E3080
:1048400007460344504685F82E300EF07CFA95F862
:104850002E80A8EB000CDCF1000848EB0C08B9F145
:10486000000F00F0C680EB7AD80604D453216CE721
:10487000C8460027F7E75907AA7A95F80DE004F132
:10488000060005F10E0C2ED5E97EFE292BD1112351
:10489000E27084F805E02370130102336370012392
:1048A0002371D5F80E30C4F80630BCF8043083808C
:1048B0002173EB69C4F80D302B8CA4F811302B7EDA
:1048C000E374574FBE423BD12379022605F1240001
:1048D00066F3461323710BF029FFA5F10800FFF7DB
:1048E0006DFE042740E007F10A030321E270534301
:1048F0002170023384F805E06370D5F80E30C4F8F7
:104900000630BCF804308380277327442B7E7B73EA
:10491000EA7A12F0080002D004232371D1E702F0F2
:104920000303032B01D12071CBE7520701D50123EB
:10493000F3E7022BF1D00BB92171C2E79A2104E70A
:1049400007F104094E4516D105F124000BF0EEFEE7
:104950006A7D72B92379042762F346132371022614
:10496000A5F10800FFF72AFE8DF804708DF80560A8
:1049700009E70027F3E77EB3B8F1000F26D005F171
:10498000240840460BF0D2FE3046FFF717FE6B6A54
:104990000022BB4285F82E2096D04B450CD12379BE
:1049A000404662F3461323710BF0C0FEA5F10800E8
:1049B0000226FFF703FE94E79DF80830022B05D18D
:1049C0002379012623F0680323718AE723790126DE
:1049D00066F34613237184E7EF7A17F01007C3D00C
:1049E000237966F346132371E0E700287FF440AF94
:1049F0000746042305F12301237007F11803AA7A5F
:104A00005343E270221D0233637005F10B0353F828
:104A1000040B8B4242F8040BF9D1E77651E700BF53
:104A2000E8140020EC140020303270B5054692B234
:104A30000C461E460BF067F935B1044A0023156099
:104A4000147556751471936070BD00BFDC1400209E
:104A500010B5044C20680BF078F90023A360237D87
:104A6000237110BDDC140020014B587D704700BF3E
:104A7000DC14002070B5144DAE6826B140F23F1131
:104A80003320FCF7DDF928680BF065F90446A860CF
:104A900010B94FF4A171F3E72B7931463022013B75
:104AA000DBB22B7100F1080318460FF0EDFF47F65B
:104AB000FF720121E283FF22627584F82320E27CE9
:104AC00061F34612E27470BDDC14002008B5084B97
:104AD0009B681BB93D213320FCF7B2F903F10802B2
:104AE000904202D04FF4AA71F5E703F1370008BDF8
:104AF000DC14002010B50A4CA3686BB920680BF0D9
:104B00002AF9A06020B940F25F113320FCF798F930
:104B10002379013BDBB22371A068373010BD00BFA1
:104B2000DC14002038B5104C0546A16879B101F1BC
:104B3000080302689A4204BF0023036020680BF058
:104B40001AF923790133DBB223710023A3602968AA
:104B500049B1083920680BF00EF923790133DBB233
:104B6000237100232B6038BDDC14002070B504686D
:104B700005460E469CB1114920460EF004FB104B31
:104B800000221A745A749A74DA74EFF3108272B6AF
:104B9000616A103371B96362A36202B962B6012E11
:104BA00005D12868FFF7B0FD054B00229A6000236D
:104BB0002B6070BDA16A0B60EEE700BF31470000BB
:104BC000DC1400200129F8B505460E4602D1006824
:104BD000FFF79AFD2B68ABB15F7D144CDFB100226B
:104BE00022736273A273E273EFF3108272B6596A92
:104BF0000C3469B95C629C6202B962B631462846DF
:104C0000FFF7B4FF012E02BF084B00229A60F8BDE7
:104C1000996A0C60EFE7A3F1080120680BF0ABF88C
:104C200023792F600133DBB22371EBE7DC14002022
:104C300008B5431EDBB2032B0AD80E4A0428D35C06
:104C400003F10503DBB207D1980100F5C87008BD78
:104C5000FD210520FCF7F4F8032803D1180100F525
:104C6000BF70F4E702280BBF981D581D8000C000DC
:104C7000EDE700BF70A80300014610B504460E48DA
:104C800008F0ECFE202884F8B80011D021460A482C
:104C900008F0E4FE202884F8B9000BD194F8B8009D
:104CA00008F0FAFE20B940F291212120FCF7C8F863
:104CB000002010BD0120FCE7750C0100014B1870AD
:104CC000704700BF110000207FB590F8383103F025
:104CD000FF0223B140F2B9212120FCF7B1F80C7892
:104CE000039214F0010318BF8D68CDE9012218BFAB
:104CF0000195A60707D504ADCE6805EB8305013302
:104D0000DBB245F80C6C650707D504AD0E6905EB01
:104D100083050133DBB245F80C6C013B114D80F883
:104D200042314B68C0F8E830C0F8203140F27123BE
:104D3000A0F82431032315F8011B0C420BD004A961
:104D400000EB820601EB8201013251F80C1CD2B259
:104D50002B39C6F8EC10013B13F0FF03EBD104B084
:104D600070BD00BF74A8030008B50B4B30B101281B
:104D70000DD040F61C012120FCF762F818601A687B
:104D800041F669039A4206D940F62501F3E740F659
:104D9000C4121A60F3E708BDF41400202DE9F04FA7
:104DA00004468FB01F469246BDF8606003910FF035
:104DB0009CFC0290204604910BF0BAFDD4F8EC90D4
:104DC0008346002F00F03182002800F04E822046FA
:104DD0000BF044FF80F00107FFB2BAF1000F00F0C2
:104DE000FB80029B13F5FA630593049B43F10008D3
:104DF00000F086FC00F040FC054604F5887029466A
:104E0000069000F015FCD4F83C1111B106980BF097
:104E1000F4FE1DB1B5F92420A4F83421BBF1000F34
:104E200016D0D4F818B1B5B1A868059BD5E9002112
:104E3000CDE9003880185A4641F100010CF0BCF869
:104E40008345034608D240F269312120FBF7F8FF81
:104E5000D4F8E8B0E7E72B46069300F057FCDDE90D
:104E600005239D18D4F8E82002F2CF7048F100081D
:104E70000344B3FBF2F35343EB1A68F10002C4E9B5
:104E80004432002E40F09F804FF0FF326FF000431D
:104E9000C4E9322301214FF0000B04EB0B03069110
:104EA00093F8BE3018460593FFF7C2FE059B0646F1
:104EB000184607F0C9FA00F522404FF47A7382369B
:104EC000B130B0FBF3F0D4E93232064400205B1B72
:104ED00062EB0802012B72F100010699C0F29C817D
:104EE000994570EB020200DB994604EB8B0BDBF873
:104EF000EC304B4594BFC4F8FC30C4F8FC9027BBA1
:104F000019B34900B4F9340189B20EF074FAB4F857
:104F10003421D4F83C314FEAE07C121A12B2A4F8E2
:104F2000342143B1A3F82C22D3E98221121841EB9A
:104F30000C01C3E98221D4E94432451948EB0C083D
:104F4000181842EB0C02C4E94402BAF1000F05D074
:104F5000D4E94423C4E93458C4E93823039B4FF00F
:104F60000009C4F8F8602A462046C4E9365883F898
:104F7000099043460BF0F2FC039B18725E60002F11
:104F800000F04E810123039A1370029B049AD4E926
:104F90003201C31A61EB0201012B71F10002C0F270
:104FA0003D81B548984279EB010200DB1846801B31
:104FB000039B1861D4F8FC00B04234BF00200120EC
:104FC0000FB0BDE8F08F42F2107329464246E6FB6F
:104FD0000312C4E932125DE7002F47D06FF000439F
:104FE000D4E932129A4208BFB1F1FF3F00F00E81BE
:104FF00094F84131234493F8BE603046FFF718FE21
:105000000546304607F020FA00F522434FF47A7047
:105010008235B1338DF820A0B3FBF0F31D44029B21
:1050200008A813F1AB02049B099543F10003CDE9F5
:105030000C230223ADF8283008F046FD10B940F2E9
:10504000954102E7D4E932230C990127DDF810805D
:10505000521A0D9963EB0103521B5146029D63F1F5
:105060000003002BB8BFD146D34616E7D4E944125B
:1050700002980027D4F8E830451AC818B5FBF3F5B4
:1050800003FB05F542F10008029A2D18A5EB020278
:1050900048F10008AA2A0DD8D4F8D820521AB2FB39
:1050A000F3F203FB0211691A5D19B1FBF3F148F148
:1050B0000008F0E694F8BE608DF820703046FFF7E7
:1050C000B7FD0546304607F0BFF900F522434FF41F
:1050D0007A708235B133D4F8D8108DF82970B3FBCB
:1050E000F0F32B44D4F8E8500993D4E944030A1AA6
:1050F000B2FBF5F26A431218204643F10003CDE9F2
:105100000C230BF02BFC29468DF8280008A80DF085
:105110001DFB0146DDE90C58BDE652F8041B0133C6
:1051200001F12B06BE429FBF2B3F0BF101067F1AF8
:105130005FFA86FBD9B28842EFD804EB0B0304EB8D
:105140008B0993F8BE30D9F8EC20184606930792E5
:10515000FFF76EFD069B0646184607F075F900F549
:1051600022404FF47A73079AB130B0FBF3F007F1A5
:1051700082031E443044824209D3D9F8EC30DF1B4D
:10518000002F26DA40F24F415FE62F4666E094F8A2
:105190004221D4F8E8305A4513D90BF10106AB424D
:1051A0005FFA86FB0AD904EB8B03D3F8EC302B3380
:1051B00004EB8B021D46D2F8EC70E1E740F2294186
:1051C00043E6AB42F4D85B009D42F1D340F2464146
:1051D0003BE615EB0805059B2046B94643F1000860
:1051E0000027D4E934230BF072FBD4F8E83058439D
:1051F000D4E944321B18204642F10002C4E944328B
:105200002A4643460BF063FB014646E6029D012712
:10521000DDF81080514627E7814666E64846C6E637
:10522000039B1F70C3E90458C4E6BAF1000F7FF472
:10523000D8AD0299D4F8E870D4E944238D1AB5FBAF
:10524000F7F57D4315EB020801F1AB05A5EB080569
:1052500043F10003AF42059397D8EF1B002394F866
:10526000420104F1EC029B4664E7BAF1000F3FF4FF
:10527000FDAE5F46B5E500BF0040420FF7B5012324
:105280001D4E00273370CDE900776846FCF7B4FB6C
:105290000546C8B10023337003B0F0BD90F8310269
:1052A00008F090FF94F8310284F8305208F0F4FBD3
:1052B00010B94FF4D7711BE0202304F5027084F875
:1052C000313200F099F9DEE7009B002BDDD093F836
:1052D0003022002AD9D018884FF6FF739842D9D0CF
:1052E0002946FCF74FFB04460028D7D140F2BF11F6
:1052F0003520FBF7A5FD00BFF814002038B50A4B98
:105300000D4653F82040084607F09EF8033D04F58B
:105310008564012D04444FF47A70B4FBF0F494BF1B
:1053200028200020204438BDA4A803002DE9F84F10
:1053300005460C46174691F89EB01E461BB101214A
:10534000204605F011FE94F83032032B55D8DFE8E3
:1053500003F002524C5227B940F223213520FBF7CB
:105360006FFD01230027204684F830320BF0F1FD59
:10537000DFF8A4A1DAF80030002B41D031462046F6
:10538000984700FB077800F0C7F9D8BB0221B4F9B1
:105390002C020EF030F8B4F82C321B1AA4F82C3280
:1053A000D4E9823218EB030342F100021B1842EBEE
:1053B000E070C4E98230C5E9043000232B7094F812
:1053C0009E9009F0FD030C2B1ED0A9F12603D3F10A
:1053D000000949EB030920460FF05FF810B1B9F15D
:1053E000000F14D000232B7217E00323D4F8387277
:1053F00084F83032BCE7E769BAE740F25D21ADE7F7
:10540000B846C0E70020CBE74FF00109E3E794F886
:105410003032012BDAB22DD12A72002304F144007C
:105420006B720DF032FF6860002E72D0ABF10E0B84
:10543000BBF1010F6DD9394628460DF087F986B2C8
:1054400020460FF02AF88346B9F1000F1AD18642A0
:1054500018D308FB00F185F80890D4E982325B1874
:1054600042F10002C5E90432B8F1000F04D140F264
:10547000A72173E70223B6E7394628460DF066F9FF
:10548000584486B23146204605F06EFDDAF8003009
:1054900063B101212046984747433044D5E904329F
:1054A00086B2DF1942F10002C5E9047200F034F956
:1054B000B0B97100B4F92C02B1F5803FB4BF89B224
:1054C0004FF6FF710DF097FFB4F82C321B1AA4F8B9
:1054D0002C32D5E904321B1842EBE070C5E90430E8
:1054E000D5E90423C4E98223D4F884308BB1B4F81D
:1054F000CE20B4F898309B1A1BB2002B09DDB4F80B
:1055000088100B44013BB3FBF1F303FB0123A4F828
:10551000CE30BDE8F88F00BF04010020024B00220E
:10552000C3E90022FFF7AABEF8140020014B58700F
:10553000704700BFF814002010B5044604293FD876
:10554000DFE801F0031A161E3A00204B1B7803F027
:10555000FF026BB901210BF00BFDB4F89830013359
:10556000A4F8983006F0ECFCBDE8104008F078B9DB
:10557000042384F83032F5E7032384F8303210BD79
:10558000C369D0F85822C0F83832934202D028308C
:105590000EF0F1FFD4F854322046E363B4F85032F1
:1055A000A4F84030D4F85832E361D4F85C32636236
:1055B0000BF0CFFC0223E0E7BDE810400BF0C9BCC4
:1055C00040F23D313520FBF73BFC00BFF8140020D2
:1055D000024B0022C3E90022704700BF00150020E3
:1055E00008B5044B186810B9FFF7F2FF08BD0C208E
:1055F000FCE700BF0015002010B5D0E906436BB1F1
:10560000D0E902219C611144DA680A44DA608269B7
:105610003AB1D3610023C0E9063310BD034A1460D8
:10562000F5E7002BF6D0DA60F4E700BF00150020A4
:1056300008B5C16191B90F4A1368836103B1D8619C
:1056400010600023C269C3609AB1D3687BB18168DE
:105650008B420AD22D213720FBF7F2FB8B69886140
:105660008361002BEDD0D861EBE75B1AC3600023A8
:10567000D36008BD00150020034B00201B6803B950
:10568000704718469B69FAE7001500200B4B002273
:1056900030B51B6804464FF0FF35104623B911B9E9
:1056A000002808BF104630BDDA68A24203D3AA42E0
:1056B0003CBF154618461A469B69EFE700150020C7
:1056C00038B5036A1BB182689C68A24203D2CD211F
:1056D0003720FBF7B5FBC1698569D9619D6141B18F
:1056E0008B61996941B1CB61C1680A44121BDA60D0
:1056F00038BD02490B60F4E7D960F9E700150020D6
:10570000014B01221A71704700150020014B002245
:105710001A71704700150020014B1879704700BFBF
:10572000001500200138C0B2032808B504D940F2A2
:1057300017310620FBF784FB014B185C08BD00BF46
:10574000D0A803000138C0B2032808B504D940F23C
:1057500017310620FBF774FB014B185C08BD00BF36
:1057600054A903000138C0B2032808B504D940F297
:1057700017310620FBF764FB014B185C08BD00BF26
:10578000C8A903000138C0B2032808B504D940F203
:1057900017310620FBF754FB014B185C08BD00BF16
:1057A0005CAA0300431E032B0DD84B1E032B0AD803
:1057B000064B01291A7114BF0A22002298705970F1
:1057C00000209A7270476FF0150070476E04002039
:1057D00010B500880C460E21FCF7D4F890F86C3018
:1057E00053B980F86D40FF2380F8B130034964302D
:1057F000BDE810400DF0BBBC10BD00BF4310010060
:10580000F8B58D1F40F67A4C0746BDF82460ADB25E
:105810001046BDF8182065453BD8841FA4B26445E6
:105820008CBF002401242546AFBB1D4F3F796FB1CB
:105830005CB96FF450654D19062D06D86FF45064AD
:105840000419062C8CBF002401242546FDB1814299
:1058500024D803FB0666B6F5FA7F1FDCA2F10A0323
:1058600040F676449BB2A34218D80BF04CFC42F2AF
:10587000107300FB06F15A43B2EB410F0ED9BDF88D
:105880001C50BDF8200085428CBF0025012528460C
:10589000F8BD0024C7E797F88170C8E70025F6E750
:1058A000D0150020304BF0B5B0F870700C461146A2
:1058B0001A88B0F86E6085B097425D8828BF174699
:1058C000964228BF16461B2E2ED0B5F5A47F2DD0AC
:1058D00040F6480301AA9D4228BF1D460BF03CFC40
:1058E000BDF80A309F4228BF1F46BDF80C30AB42BE
:1058F000E78028BF2B462381BDF806309E4228BF93
:105900001E46BDF808309D42668028BF1D46A58012
:10591000FF232370E3881B3B9BB2E02B08D940F2A6
:10592000F7513920FBF78CFA1B2FCED105B0F0BD13
:1059300063881B3B9BB2E02B02D940F2F951F0E7A0
:10594000238940F64812A3F5A4739BB2934202D96F
:1059500040F2FB51E5E7A388A3F5A4739BB2934201
:10596000E4D940F2FD51DCE7D0150020012821D810
:10597000022B0DD1A2F57A70104B98421CD8A1F5DC
:105980007A70984218D88A428CBF12200020704743
:105990000B48824210D8012B07D140F252739A4231
:1059A0000AD9A1F6C410074BEBE7042BF9D140F656
:1059B000C313F4E71220704730207047A7F9700234
:1059C0008FFD7002CBF3700210B504460A480AF04E
:1059D0002DFE0A492046FFF777F920460AF0A9FD77
:1059E00038B12046FEF7B0FD20460AF01CFE00202C
:1059F00010BD1220FCE700BFEC150020F4150020BC
:105A00002DE9FF4106788046012E40F0988031460E
:105A10000020FBF7B7FF054620B940F6C5613920E5
:105A2000FBF70EFAB8F80430002B40F082800AF041
:105A300021FD00287FD195F83831002B7DD12846F3
:105A4000FFF7C2FF044600286FD1584F3146304659
:105A5000FBF798FF97F83810064619B110B940F6D1
:105A6000E161DCE73A7F0023CDE9023312F0010364
:105A70001CBFF86A0290520741BF04AA02EB8303DD
:105A80007A6B43F8082C002945D096F83831002B62
:105A900041D0B8F80230002B3DD13B7F3046BA6A86
:105AA000009302ABB97F0AF057FDA0B330460BF06C
:105AB00051F806F14003804605F14002703653F874
:105AC000041BB34242F8041BF9D12846FFF77CFFC0
:105AD000024610B140F60371A1E7B8F10C0F07D1EF
