:10000000E8070020DD09000089400000C909000060
:10001000C9090000C9090000C9090000C909000098
:10002000000000000000000000000000910A000035
:10003000C909000000000000390A0000C9090000D9
:10004000010C0000010C0000010C0000010C00007C
:10005000010C0000010C0000010C0000010C00006C
:10006000010C0000010C0000010C0000010C00005C
:10007000010C0000010C0000010C0000010C00004C
:10047C0053B94AB9002908BF00281CBF4FF0FF31FF
:10048C004FF0FF3000F00CB8ADF1080C6DE904CE64
:10049C0003F048FBDDF804E0DDE9022304B070470B
:1004AC00704700BFF8B5194C204603F0D3FF054642
:1004BC0048B32669A2683368002123F00103336036
:1004CC00136820464FF42022984700281DDB27464E
:1004DC003368DB0752BF2B4685F00103DBB27BB1DF
:1004EC00A368DB6801213846984700280DDB85F0AE
:1004FC000105EDB2002147F6122004F05BF8E7E7A6
:10050C00A3681B69EEE74FF0FF30F8BD20490000EF
:10051C00014B1B68184700BF0000002030B585B0A8
:10052C0004460D4610220021684604F0ADF8022363
:10053C008DF80230044B2A4621466846019303F09D
:10054C0099F805B030BD00BF1D0500002DE9F84F2E
:10055C00B0F81890044619F008080DD001290CBF0A
:10056C0049F0100949F02009A0F8189082F311887D
:10057C00BFF36F8FBDE8F88F09F00709022907D187
:10058C00204603F0A9FC0028F0D00128238B4AD187
:10059C006769238B002F15DA2568C4E9008823F0DE
:1005AC00070343F0010323830026238B03F0070A80
:1005BC00CA4502D0A168002956D10DB9002E6CD0C5
:1005CC00002152E003F00701481F01281CD823F03A
:1005DC000703062925689BB2C4E9008802D15DB9DE
:1005EC0043F002032383204603F076FC0028DBD083
:1005FC00238B43F02003D6E72946608B01306083C0
:10060C0009680029F9D1EBE704290AD123F0070383
:10061C0099B22183204603F05FFC10B141F0200118
:10062C0021830025C0E7032809D1216923F00703A2
:10063C000E6843F00603002523832F46B5E70428F4
:10064C0006D1216923F007034E6843F00403F2E757
:10065C00052806D1216923F007038E6843F00503B2
:10066C00E9E700252E46E8E7012143F00803238340
:10067C0082F31188BFF36F8FF1B97DBB16B120499E
:10068C002046B047EFF31182202383F31288BFF387
:10069C006F8F238B23F008032383238BD90627D555
:1006AC00012123F010032383B4F8189009F00709F3
:1006BC0000297FF463AF59E7A1680029DDD0D1F898
:1006CC000090D1F804B03B4652462046D847B9F1C9
:1006DC00000FD2D04946D9F80090F2E7D5F8009037
:1006EC0029463B465246204603F012FC4D46C4E7D1
:1006FC0013F020011EBF23F0200323830221D3E734
:10070C00493F0000014B0360002070473852000045
:10071C0030BFFFF7FDBF00BF054B5A699B689A427B
:10072C001FBF044A536843F080535360704700BFA7
:10073C00B003002000ED00E010B51C4A936A946AE7
:10074C0013F0100F14BF1123102314F0080F946A28
:10075C0018BF1223A40709D5536B936A1B0604D543
:10076C0018B1936A23F08003936213230F4A906AA3
:10077C0010F0010F906A18BF142310F0200F906A2C
:10078C0018BF1523C40658BF926A084A906A80069F
:10079C0042BF506A20F400505062906A40F0FF0053
:1007AC009062002218460A7010BD00BF00ED00E0F8
:1007BC0010B5184A936A946A13F4805F14BF172318
:1007CC00162314F4006F946A18BF1823A40509D5D6
:1007DC00936B936A1C0404D518B1936A23F40043F9
:1007EC00936219230B4A906A10F4806F906A18BFB9
:1007FC001A23C0050CD4906A10F4005F18BF1C2398
:10080C00906A40F47F409062002218460A7010BD36
:10081C001B23F5E700ED00E0154B9A6A12F0007F00
:10082C009A6A14BF1E201D2012F0807F9A6A18BF8E
:10083C001F2012F4801F9A6A18BF022012F4002F96
:10084C009A6A18BF212012F4802F9A6A18BF2220AE
:10085C0012F4003F9A6A18BF232012F4803F9A6A60
:10086C0018BF24206FEA02426FEA12429A62704764
:10087C0000ED00E0F0B5484B8BB05B680025C3F38E
:10088C00080385F31188BFF36F8F02F07F44B4F136
:10089C007F4F12D102F00C04082C0ED014074EBF5F
:1008AC000C46044601250022033B8DF80720032B40
:1008BC0009D8DFE803F0046367602C46F3E7364B96
:1008CC00DA6A910701D5002328E0DA6A002AFADBFC
:1008DC00DA6A5200F7D55A69A16942F480725A61FA
:1008EC00BFF34F8FBFF36F8F5A6931F8021C22F49C
:1008FC0080725A61BFF34F8FBFF36F8F4DF6027248
:10090C0091420AD09A6A12F0FF0F25D001200DF106
:10091C000701FFF711FF034600E023689DF807204D
:10092C00C2B902AE04F1200732462068616808346F
:10093C0003C2BC421646F7D1099A3DB3C2F3080173
:10094C0021B96FEA52226FEA4222099202A9184693
:10095C0003F08AFB0BB0F0BD9A6A12F47F4F05D0FE
:10096C0001200DF10701FFF723FFD4E79B6A1B0C55
:10097C001B04002BA7D0FFF74FFFCCE70DF10701AD
:10098C000020C6E70DF107010020ECE722F4FF720E
:10099C0022F00102D9E700BF00ED00E0064B5A69D6
:1009AC0042F010025A615A6942F480625A615A69E3
:1009BC0022F008025A61704700ED00E0EFF3088066
:1009CC00EFF3098101B57246FFF754FF01BD00BF7B
:1009DC0000F052FF202080F3118808484FF400618A
:1009EC00401880F30988EFF314800221084380F348
:1009FC001488BFF36F8F00F08DF8000028090020D9
:100A0C00084B9B6883420BD1EFF3058343B1064B34
:100A1C005A6842F080525A605A6A22F400425A6272
:100A2C0002F0ACBBB003002000ED00E013498A6873
:100A3C004FF030001044EFF3098C80E8F01F2020B9
:100A4C0080F31288BFF36F8F0D4F4FF000664A6929
:100A5C008A603E60506F0023536780F3118802F167
:100A6C00300090E8F01F8CF3098802F1000004B507
:100A7C0003F00FFBBDE8044070470000B0030020FA
:100A8C0004ED00E01EF0040F0CBFEFF30880EFF351
:100A9C000980816911F8021C0229FFD001B5724648
:100AAC0003F0E8FA01BD00BF03B2002B08DB012202
:100ABC0000F01F0002FA00F0024A5B0942F8230022
:100ACC00704700BF00E100E0054B420953F82220BB
:100ADC00012300F01F0003FA00F01040704700BF24
:100AEC0000E100E003B2002B01F10101A8BF03F10A
:100AFC0060434FEA4111B8BF054BC9B2ABBF03F518
:100B0C00614300F00F0083F800131954704700BFC5
:100B1C0014ED00E00F4A08B50F4B22F07F029A60EB
:100B2C00BFF34F8FBFF36F8FD3F8882022F470027E
:100B3C00C3F88820EFF3148323F0040383F31488A1
:100B4C00BFF36F8F01F0B8FF02F03AFC00F042F8EF
:100B5C0001F0F2FF0000000000ED00E042F8203C44
:100B6C00009B0B4942F81C3C019B21F0010142F80F
:100B7C00183C029B42F8081C42F8143C4FF080735E
:100B8C0042F8043C0023203A02654367704700BFDB
:100B9C00D13E000000B5094B0E4698601546436ED9
:100BAC0083F30B882C4686F309880020044B984766
:100BBC002046002100220023024C2047B0030020D5
:100BCC00A7400000D13E00001022014B1A61704773
:100BDC0000ED00E00023202040F20F1210B5044C71
:100BEC00E1180133934281F80003F9D110BD00BF25
:100BFC0000E100E008B5EFF30583064A103B02EB79
:100C0C00C30152F8330049688847BDE80840FFF734
:100C1C0083BD00BF484900001FB5094C094A234653
:100C2C000121094800F0ECF800230393074B012144
:100C3C00E41A01A80193029400F0ECF804B010BD82
:100C4C0000F002200000002038520000500100206B
:100C5C0010B50C7A0B6823F01F0204F01F031A4323
:100C6C00CB68640923F01F03044943EA440343F0AF
:100C7C0001038860CA600B6110BD00BF90ED00E0FD
:100C8C0010B5064B1B68C3F30723013B984202D8EF
:100C9C00FFF7DEFF10BD6FF01500FBE790ED00E0F5
:100CAC002DE9F04F88461446064600274A4D85B07C
:100CBC00474509DAD6F80490B9F1000F38D0B9F1EC
:100CCC001F0F05D86FF01504204605B0BDE8F08F56
:100CDC0019F01F0FF6D1D6F800A01AF01F0FF1D1A2
:100CEC00504603F0FDF9834609EB0A00013803F086
:100CFC00F7F98345E6D11BF1160FE3D05C45E1DD36
:100D0C00C5F808B0E968C5F808B02B6921F01F01D7
:100D1C0043F01F0AD6E900321A44994202F1FF3916
:100D2C001BD1CA4507D131465FFA8BF003F0E1F9CC
:100D3C0001370C36BCE73146C5F808B0EB6822F039
:100D4C001F0203F01F031A43EA60E0B203F0D1F96B
:100D5C0010F1160FB6D0441CEAE7013BCA45E0B2CD
:100D6C0023F01F03C5F808B006D12A69314602F0FA
:100D7C001F0213432B61E9E7296901F01F010B43A3
:100D8C002B61314603F0B5F910F1160F9AD0C5F866
:100D9C0008B0EA689DF808300AF1FF3A62F30403E0
:100DAC008DF808302B699DF808205B0863F3471217
:100DBC008DF80820D6E900321344009323F01F036A
:100DCC005344A3EB0903013023F01F036946C0B25F
:100DDC000393FFF755FFBBE790ED00E00522034BB3
:100DEC005A60BFF34F8FBFF36F8F704790ED00E0E9
:100DFC00BFF35F8F0022014B5A60704790ED00E00B
:100E0C0010B5034C2278FFF74BFF207010BD00BFCC
:100E1C00E00300202DE9F74F254C8A468046002739
:100E2C00A1464FF0140B234D57451ADAD8F804306D
:100E3C000193002B36D0D8F800100846009103F02F
:100E4C004FF9DDE9001306465818013803F048F94C
:100E5C008642194A08D014235F436FF0150349F8F2
:100E6C00073003B0BDE8F08F16F1160F2660F8D0EE
:100E7C001378B342F5DD0BFB0793AE60AE60E86808
:100E8C00197B60F3040119732969187B490861F314
:100E9C0047101873EB6823F01F0363602B6923F072
:100EAC001F0323610137143408F10C08BCE700BFA1
:100EBC00F802002090ED00E0E00300202DE9F04363
:100ECC00424C434E22683768C2F30722974287B0E0
:100EDC0078D80025FFF78CFF3E4B2363AF4217D128
:100EEC003D4D01A82F70FFF70DFC002607464FF073
:100EFC004109DFF8E880B74212D100212B78226833
:100F0C00C2F30722934259DBFFF768FF00203FE052
:100F1C007168284601EB0511FFF79AFE0135DDE7F4
:100F2C00DDF804C031010CEB0103DA6802EA0802B7
:100F3C00B2F5001F15D0B2F5800F2CD0B2F5801F82
:100F4C003AD158685CF801209B68CDE90202212255
:100F5C00013B20F01F010B4423F01F038DF81020E0
:100F6C000DE058685CF801209B6820F01F01013BE4
:100F7C00CDE902020B4423F01F038DF8109002A957
:100F8C0028780593FFF77CFE002812DA6FF0150025
:100F9C0007B0BDE8F08358689B685CF80120013B02
:100FAC0020F01F010B44CDE9020223F01F0306229F
:100FBC00D4E72B7801332B7001369CE7A3602161B9
:100FCC0001339CE74FF0FF30E2E700BF90ED00E00B
:100FDC0044520000AAFF4400E00300200000F0FF90
:100FEC0008B50649064821F00701C1F1005202F587
:100FFC003C3202F027FF002008BD00BF2F1100205B
:10100C000C03002008B5034A034B1A6000F018F8D3
:10101C00002008BD0020A1071000002048B1054B9E
:10102C001A68054BB2FBF3F2044B504343F0010337
:10103C00184770471000002040420F00205200005B
:10104C000122024BC3F80424704700BF002008E0C3
:10105C00084B70B5C31A0D4607499B1004465943FB
:10106C004022064803F069F82B4601462046BDE8AD
:10107C007040184728030020B76DDBB6F848000015
:10108C0010B5EFF31184202383F31288BFF36F8F15
:10109C00084A136823F00201DB07116005D4012014
:1010AC0003F00AF90122044B1A6084F31188BFF390
:1010BC006F8F10BD780300200CE0105070B500222B
:1010CC000121044640F20510FFF70CFD0F4800F01B
:1010DC00DBFC0F4B984215D100F0E6FC26690D495C
:1010EC00304602F047FF00280BDB012535642469EC
:1010FC00084904F11C0002F03DFF002801DB002030
:10110C00E56470BD6FF00400FBE700BFF111000057
:10111C000000AD0B7C5200000C23104A014603FB6F
:10112C000023002030B4D3E90E529863EFF3118002
:10113C00202484F31288BFF36F8F1C6C04F0C0045E
:10114C0044F002041C6480F31188BFF36F8F1DB14F
:10115C002B4630BC0248184730BC7047280300208F
:10116C00F848000010B4EFF31180202282F31288AB
:10117C00BFF36F8F17490B6843F0020413F00103A0
:10118C000C6017D0144BD3F80C3413F4803311D0FB
:10119C00EFF3118182F31288BFF36F8F0F4A136C38
:1011AC0003F0C00343F00203136481F31188BFF30F
:1011BC006F8F012380F31188BFF36F8F1BB1002059
:1011CC0010BCFFF7A9BF0120054B186010BC00F044
:1011DC0081BC00BF7803002000E0105028030020E1
:1011EC0008E0105010B1012804D07047034B1B6C61
:1011FC005B0701D1FFF790BF704700BF28030020A9
:10120C001FB500220123CDE902236B46084ACDF815
:10121C0000D0CDF804D002F0CDFF002805DB43F65A
:10122C0009520023684601F021FD05B05DF804FB6E
:10123C00BB4100001A4AF0B4831A0D469910194BA1
:10124C004B43DBB2EFF31186202181F31288BFF3FD
:10125C006F8F0C2404FB0324216C01F00707012F72
:10126C0012D140212164002186F31188BFF36F8FC6
:10127C0099B90C2101FB03220B49C2E90E150B4A4B
:10128C00F0BC52F83330184701F0C001402914BFAC
:10129C004FF0FF316FF07701E6E72B46F0BC1847B3
:1012AC0028030020B76DDBB69D4100006C52000096
:1012BC002DE9F843012206463549D1E8EF3FC1E854
:1012CC00E02F0028F9D133B9324933484B60CB6059
:1012DC008A6002F062FE731E012B2BD8012E06D100
:1012EC002E4BD3F8503403F00303012B22D003F020
:1012FC00EFF818B92A4B1B78002B41D1EFF3118969
:10130C00202383F31288BFF36F8F0124234D254FC5
:10131C00A846D5F84C24D5F84C34D2030CD503F0A0
:10132C000303012B01D0012E06D12CB389F31188B4
:10133C00BFF36F8FBDE8F883CCB1484602F0C1FE15
:10134C00D5F8403413F0FF03E3D13A68002AE0D01B
:10135C003B603B6820210123134AC5F84034C2F896
:10136C00A01102F1E242A2F1F0121360D1E70021C8
:10137C00202003F01FF9E3E70423C8F80433D9E76E
:10138C000422064B0446C3F808238146BEE700BF7F
:10139C007C030020180300204403002000E01050C0
:1013AC00E103002008E1105000E100E04309022BAA
:1013BC0070B503D0012B16D0BBB170BD0C4C23699A
:1013CC0059680029F9D0012600F01F000D688640ED
:1013DC008A68324002D04B6820469847002DECD0EA
:1013EC0029462D68F4E7034CE9E7034CE7E700BF17
:1013FC00204900000C4900003449000038B545680C
:10140C002B690BB9002038BD1035284601F020F8A7
:10141C0004460028F6D10146284600F0D5FF0B4BB8
:10142C00984210D122462846094900F0A1FF2246D5
:10143C000121DB20FFF756FB2246012140F20D1063
:10144C00FFF750FBDEE76FF00400DCE70000AD0BAC
:10145C00B91300002DE9F04340F206364568D0067A
:10146C0048BF4FF0030C2B7B02EA060658BFC2F3B1
:10147C00401C87B001F01F07B6F5807F144647EA81
:10148C0043178DF803C044D007D8022E16D0062E71
:10149C0041D09EB16FF0150038E0B6F5007F3CD01E
:1014AC0004D8B6F5837FF5D1092607E040F2022275
:1014BC00964234D0B6F5407FECD1052601232203A9
:1014CC0003FA01F12DD56B685960286970BB07F0E0
:1014DC001F027F09022F77D83D4B84F4803153F8DB
:1014EC002730C1F3004103EB8202D2F88030C4F301
:1014FC00404423F4706344EA410423F00F031C437B
:10150C0044EA8C0444EA0624C2F8804007B0BDE8E3
:10151C00F0830126D2E70826D0E70426CEE706267C
:10152C00CCE7630344BF6B689960CEE710350DF1CF
:10153C0002023946284600F029FF14F4403F814648
:10154C000DD13946284602F07BFF224B994504D138
:10155C009DF80210284600F089FF0020D6E74FF0D6
:10156C00000801AB03AA39462846CDE90438CDE979
:10157C000188CDF80C8000F05DFD164B984289D1A6
:10158C0014F4003315D09DF8033084F48034C4F384
:10159C0000448DF80E3003AA4346394628468DF890
:1015AC000C608DF80D4000F045FE0A4B9842CCD0F3
:1015BC0070E7CDE9043303AA0DF10303394628463D
:1015CC00039300F037FDF0E7203250F82230FFDEB5
:1015DC00885200000000AD0BF0B5406801F01F040C
:1015EC00057B87B044EA45140569002D62D0B2F53D
:1015FC00001F00F1100506D12146284602F022FFFB
:10160C00002007B0F0BD002701AEB2F5800F0197A6
:10161C0077603AD1B3F1007F0CBF042305238DF81A
:10162C0004300023CDE904630393836823FA01F1AA
:10163C0011F001011BD1B2F1A07F18D1620904F0A5
:10164C001F03022A03F120033AD81F4951F8222024
:10165C0052F82330DB070AD40DF10306324621463B
:10166C00284600F093FE194B984219D0029603AA13
:10167C002146284600F0DEFC154B98421DD1012274
:10168C002146284600F006FFBAE7B3F1C06F05D03B
:10169C00B3F1007F0CBF02230123C0E70323BEE795
:1016AC003146284600F0ECFE094B9842DED06FF034
:1016BC000B00A6E76FF08500A3E76FF01500A0E71D
:1016CC0051F82330FFDE00BF885200000400AD0B40
:1016DC000000AD0B10B500220121E420FFF702FA47
:1016EC00002000F0CBFF114B0446984208D1104962
:1016FC00012001F05BF8A04205D00E4B984211D0AE
:10170C004FF0FF3010BD67220B4B02201A60FFF721
:10171C00CFFD0A4A0020D2F8183723F44033C2F820
:10172C001837EFE76FF00B00ECE700BF0000AD0BD4
:10173C000C0000200200AD0BA403002000200E5072
:10174C00F7B51F461646684600F066FFDDE9002334
:10175C00BB4208BFB24211D3094CD4E9005C711BE7
:10176C0021F01F0367EB0C0049095B1940EB0C02DD
:10177C0041EAC060C4E9003201F0F2FE03B0F0BDF2
:10178C005001002007B5684600F046FF009B064953
:10179C000198D1E900219B1A60EB01005B0943EA37
:1017AC00C06003B05DF804FB50010020F0B5431C91
:1017BC0085B018BF20EAE07602A808BF6FF000469B
:1017CC0000F02AFF029B1049D1E900279C1A039BC9
:1017DC00204663EB070529462023C3FB060100299D
:1017EC0008BF402836BF20240B4600234FF00101D0
:1017FC0028BF20F01F041219009147EB0303034884
:10180C0001F038F805B0F0BD5001002004000020B4
:10181C0003689A070CD50368DB070DD50922074B23
:10182C00C3F80C250F22C3F8042501221A60FEE729
:10183C00034B0360EF3B0360704700BF0080105008
:10184C00F000FA5003689A070CD50368DB070DD536
:10185C000922074BC3F80C250F22C3F804250122DB
:10186C001A60FEE7034B0360EF3B0360704700BF59
:10187C0000801050F000FA50012208B52B4B2C4878
:10188C00C3F80028FFF7C4FF2A48FFF7C1FF2A4816
:10189C00FFF7D8FF2948FFF7D5FF2948FFF7B8FF16
:1018AC00284AD2F88C3043F44063C2F88C300022C2
:1018BC00D30003F57F0303F54043D3F80014013143
:1018CC000AD0D3F8001439B1D3F800140132D3F88C
:1018DC000434402A0B60EBD11B4B1A68FAB11B4B3A
:1018EC001B681C2B0CD11A4B1A681A4B9A4219D92B
:1018FC003422194B1A60194A136823F4002313601D
:10190C000323174A0F49C2F81835D1F88C3043F429
:10191C004063C1F88C300023C2F8A03508BDC82242
:10192C001A60DCE70F4B104A1A60E1E70000125016
:10193C0000C50D5008C50D5010C50D5018C50D50E3
:10194C0000C70D5000ED00E04004125040C3FF00F2
:10195C0034C3FF00001D0A18240612503C06125016
:10196C0000B004504006125040E0A91E70B501258D
:10197C000268AAB1B2FA82F3C3F11F03DBB205FA13
:10198C0003F422EA0404D0E8EF6F964204D1C0E8D5
:10199C00EC4FBCF1000FF6D1EAD102480B7070BDD0
:1019AC000148FCE70000AD0B0200AD0B10B502685E
:1019BC00CA40D30710D401238B40026843EA0201CA
:1019CC00D0E8EF4F944204D1C0E8EC1FBCF1000FFB
:1019DC00F6D1F2D1014810BD0148FCE70000AD0B77
:1019EC000400AD0BF7B5054618B301281FD104222E
:1019FC004FF48073712123480024C0F8081301218F
:101A0C0042F2107602F1A04203F1A04303F58713D2
:101A1C0002F5871211601C608D421B68194F8DF8FE
:101A2C00074008BF0DF1070445B1012D1CD003B0D0
:101A3C00F0BD14224FF484730421DCE7D7F84C3446
:101A4C00C3F30043DCB1D7F84C2402F0030222703C
:101A5C00002BECD09DF80730002BE8D1012002F0D0
:101A6C0029FC013EE0D1E2E7D7F80C3403F48032D4
:101A7C00C3F300431CB1B2FA82F25209E7E7002B20
:101A8C00ECD1D4E700E01050044B1A7922B90122B2
:101A9C0018601A710248704702487047A80300206A
:101AAC000000AD0B0C00AD0B08B5084B1B6843B127
:101ABC0040F20510FFF708F818B940F20510FEF7D0
:101ACC00F3FF0022024BC3F8402408BDA8030020FA
:101ADC0000E0105010B510B1012843D010BD264ABB
:101AEC00D2F84C14D2F84C34C90323D503F00303B9
:101AFC00012B04D01BB10020FFF774FF00231E4AFA
:101B0C000420C2F8403410224FF48473002103F1F6
:101B1C00A04303F5871319601C68012402F1A0424D
:101B2C0002F587121460154A126802B3124BC3F8FF
:101B3C000403D3E7D2F8483413F00103DFD0D2F812
:101B4C0050349B07D7D40D4B1B683BB90C4B1A6810
:101B5C00002AFCD000221A601B68BFE70423C2F8DD
:101B6C000433BBE700224FF480737120CEE71A6870
:101B7C00002AFCD01960EFE700E01050A803002009
:101B8C0008E1105010B5364B1A684AB100200122FA
:101B9C0018601B68334BC3F80823334B1B689847FA
:101BAC00324B1A686AB100221A601B682D4BD3F8AD
:101BBC004C24D3F84C24910749D10122C3F840247A
:101BCC001A612B4B1A684AB1002202201A601B685A
:101BDC00244BC3F80803244B1B689847254A264C12
:101BEC0013688BB100234FF488701F494B7113603D
:101BFC0012681C4AC2F80803236023682023C2F829
:101C0C0004330B6807209847236873B1154BD3F83E
:101C1C000423920609D50022226022682022C3F8F0
:101C2C000823114B08201B689847144B1A68B2B153
:101C3C0000210D4A0920517119604FF48C711B68F9
:101C4C00084BC3F808131368BDE81040184704226A
:101C5C00C3F80823044B01201B689847B1E710BD5B
:101C6C0000E1105000E01050A803002008E11050D3
:101C7C0004E1105010E1105014E1105018E1105014
:101C8C00036803F01F025B09022B02609ABF024A31
:101C9C0052F8230000207047DC520000034A43092D
:101CAC00D35C00F01F001844C0B270473E530000D4
:101CBC0010B504460846FFF7F1FF362303FB04007A
:101CCC00034B083033F81000C0F3401010BD00BFB8
:101CDC001400002010B504460846FFF7DFFF36233A
:101CEC0003FB0400024B083033F81000400B10BD0E
:101CFC001400002070B504460846FFF7CFFF3622CB
:101D0C002379184902FB0303083331F813200846E2
:101D1C0012F4807F25D0C2F3432122F4F85220F82C
:101D2C0013206C220026237902FB0302103232F8B6
:101D3C00025B15F4807F03D0C5F34325A94210D074
:101D4C000136232EF3D16C220025534303EBC10340
:101D5C00C5502379BDE8704002FB03006030FFF7EB
:101D6C0025BE70BD14000020F0B50023074687B0D7
:101D7C00124E134D019103AC16F8012B06A901EB81
:101D8C00D20111F8141C02F0070221FA02F2D20758
:101D9C0005D40133032BEFD1002007B0F0BD95E83B
:101DAC00070084E8070054F823100A6A47F8232038
:101DBC000A62002AEDD00120EFE700BF4E5300006D
:101DCC000052000010B504460846FFF767FF3622A4
:101DDC00237902FB0300044B083033F8100080F029
:101DEC000200C0F3400010BD140000202DE9F341A7
:101DFC00054608460C46FFF751FF36222B79204E3C
:101E0C0002FB0303083336F813300746DB0734D5DF
:101E1C00284602F0F0FA95F8048021464046FFF778
:101E2C0047FF58B14046FFF755FF2B6800B203EB54
:101E3C0080000023C0F81035C0F810352146284624
:101E4C00FFF758FF36232879019403FB0070002319
:101E5C00083026F8103001A8FFF712FF019B00EBA9
:101E6C008300D0F88020074B134043F00203C0F8E6
:101E7C008030054802B0BDE8F0810448FAE700BFA5
:101E8C0014000020F0F0FCFF0000AD0B0400AD0BC3
:101E9C002DE9F04F0D46D0F81413AA6DC9B287B0D6
:101EAC0041F40031824602F07FFA820307462ED5B8
:101EBC000023696E03A8CDE903330593FFF754FFA4
:101ECC00DFF86891DFF868B10DF10C0819F8013BE7
:101EDC0005EBD30292F8642003F0070322FA03F314
:101EEC00DB076CD4504B08F104084B450BF1010B8C
:101EFC00ECD14FF40031AA6D504602F055FA696EE0
:101F0C0003A8FFF731FF0028DAD127F400370124AA
:101F1C00002F73D107B0BDE8F08F93FAA3F3B3FA97
:101F2C0083F39BF80040019343EA44142046FFF7E7
:101F3C00B5FE083035F81010019B890801F0070632
:101F4C00F2B200920122D80818F800C003F007037F
:101F5C0002FA03F32CEA030308F8003002A80294F7
:101F6C00FFF78EFE029B11F0040F03F1200350F8D3
:101F7C002330009AC3F3014326D021462846DEB213
:101F8C0002F0F3F902A80294FFF77AFE029B2033C9
:101F9C0050F82330C3F301439E4207D10021204661
:101FAC0002F0D4F93146204602F0D0F902A802948E
:101FBC00FFF766FE0122029B02FA03F30362D8F8D4
:101FCC000030002BA9D18DE7022B0CBF032102217D
:101FDC0020460192009302F0B9F9032E019A04D025
:101FEC00009B022B06D1012AE0D12146284602F0A3
:101FFC00BCF9DBE7032BD9D1022AF5E797FAA7F353
:10200C00B3FA83F304FA03F20AEB8303D3F8101543
:10201C0027EA0207D3F81025C1F30811C2F30142D5
:10202C00284602F0A2F973E7515300004E5300000A
:10203C004E5300002DE9F043174685B00446084680
:10204C000D46FFF72BFED7F800900646B9F1000FAE
:10205C0036D036222079744B02FB0062083233F8FA
:10206C001220984612F0020F06D0FFF721FE18B18D
:10207C006E4805B0BDE8F08300224B468DF80E206B
:10208C008DF80F20CDE900220DF10E010DF10F029C
:10209C00284602F013F93620227900FB026208323E
:1020AC0038F8121021F0020128F81210237900FBE5
:1020BC000363083338F8132042F0010228F8132088
:1020CC007B683BB34FF0360E217918780EFB01611B
:1020DC00D3F804C0544B083133F8112012F0020F1E
:1020EC001DD0BCF1000FC3D14FF0360E21790EFB81
:1020FC000161083133F811C02CF01C0C23F811C00D
:10210C0022790EFB0262083233F8121041EA800089
:10211C0023F81200BB68002B46D14548A9E722F4EE
:10212C00604222F0200223F81120BCF1000FDBD01A
:10213C0003289DD87A682168526892F800C00FFA7B
:10214C008CF230B901EB8201C1F81005C1F8100511
:10215C00CAE792001144D1F8108528F00308C1F8A1
:10216C00108521680A44D2F8101521F4473121F466
:10217C007C71C2F8101541F6F071D2F8108501EAA5
:10218C00051148EA004841EA0801C2F81015227905
:10219C000EFB0262083233F8121041EA4C3C4CF050
:1021AC00200C23F812C09FE72946D3E9008720466C
:1021BC00FFF7A0FDB8F1000FAFD06C2320791A4DBA
:1021CC004343EA18EB58984504D153689F4201D118
:1021DC0000210DE06C2303FB00500DF10F0160306A
:1021EC00FFF7C4FB124B98427FF443AF9DF80F10DE
:1021FC004FF06C0C2379C8000CFB030345F80380EB
:10220C0022790CFB02022A4457603622237902FB06
:10221C000366083635F8163043EA412343F48073DD
:10222C0025F8163079E700BF140000200400AD0B30
:10223C000000AD0B2DE9F043044685B008460E4670
:10224C0091461F46FFF72AFD0546B9F1000F34D021
:10225C002046FFF7B7FD94F8048020B14046FFF705
:10226C0027FD002879D1362202FB08583C4B08F197
:10227C00080833F81820984612F01C0F03D099F870
:10228C000130012B69D001238DF80F30002309F1A7
:10229C000102CDE900930DF10F0109F10203304663
:1022AC0002F00CF83622237902FB0353083338F87A
:1022BC00132042F0030228F813201FB9294805B057
:1022CC00BDE8F08331462046FFF77CFD002844D161
:1022DC004FF0360C397823684FEA810E7344C3F8FB
:1022EC001005C3F8100523791D4A0CFB0353083362
:1022FC0032F8130020F4604020F0200022F8130084
:10230C007B78002BDAD0B87827681B047744D7F891
:10231C001085DFF858E003F4403308EA0E0EC7F8D6
:10232C0010E5D7F810E5000543EA0E0341F6F07E00
:10233C000EEA061600F4801033430343C7F8103539
:10234C0020790CFB0050083032F8103043EA413150
:10235C0041F0200122F81010B0E70348AFE700BFAE
:10236C00140000200000AD0B0400AD0B0FE0ECFFDF
:10237C0070B56C260479044D06FB0454A1600379F6
:10238C0006FB0353DA6070BD1400002070B50479AD
:10239C0015462046FFF78CFC68B10846FFF77EFC1B
:1023AC00362303FB0400054B083033F81030044887
:1023BC005B0B2B7070BD0348FCE700BF14000020C2
:1023CC000000AD0B0400AD0B2DE9F0418046067901
:1023DC006C201C4D00FB065797F868407CBB3846B8
:1023EC0021464622103002F04FF9214601248C463A
:1023FC00D8F80000BF6D8F4213D10023C0F84431D0
:10240C00D0F84431C0F308300130FEF74DFB6C239B
:10241C0003FB065501230C4885F868302B66BDE894
:10242C00F081CBB29B0003F580729B0804FA03F396
:10243C009B0344BF40F802C083580131DBE70348DB
:10244C00EDE700BF140000200000AD0B0C00AD0B3D
:10245C006C210379044A01FB032393F868000030D4
:10246C0018BF0120704700BF140000206C220079B7
:10247C00024B02FB00305C30FFF798BA14000020CE
:10248C006C220079024B02FB00305C30FFF76EBA15
:10249C0014000020F7B503681746D3F8142306463A
:1024AC0092035CBF4FF40032C3F8142304790D4639
:1024BC002046FFF7FDFBF0B13046FFF783FCD0B1AF
:1024CC002046FFF707FC002403B29A00316802F59E
:1024DC008073CC50CB5833681344D3F8102542F09A
:1024EC000102C3F8102527B1012332688340C2F8DA
:1024FC00143303B0F0BD2846FFF7D0FB362303FBA3
:10250C0004000D4B083033F81030C3F38203042B56
:10251C000FD0052B04D10221284601F017FFE8E764
:10252C0001A80195FFF7ACFB019AC368D340DB0708
:10253C00F1D50321F0E700BF140000200149024847
:10254C00FFF7A6BC1400002000A00D500149024862
:10255C00FFF79EBC8000002000C01050074B027A91
:10256C00D3F8101521F001010A43C3F810250268B5
:10257C00C3F8A4264268C3F8AC26704700200E505E
:10258C00012303FA00F010F0670F0AD0064B5B68CA
:10259C0020EA0300054B10F0670F054808BF1846EA
:1025AC0070470448704700BFEC0000200400AD0BDE
:1025BC000000AD0B0800AD0B70B50023672401269D
:1025CC00027A94FAA4F1B1FA81F1914203F1010576
:1025DC0019D100210C24120102F1A04202F5622251
:1025EC00C2F82C150B4ADBB204FB03230168D9603B
:1025FC0041681961017A1975012303FA01F1936895
:10260C000B43936070BD06FA01F124EA01042B46DA
:10261C00D7E700BFEC000020002300222DE9F04892
:10262C00C0E90023114BD3F810359B071BD5EFF3F2
:10263C001181202383F31288BFF36F8F00260C4F78
:10264C003446D7E900BC0CF0404554EA0503F7D1F9
:10265C00CCF31303C0E900B381F31188BFF36F8F80
:10266C000448BDE8F0880448FBE700BF00200E508A
:10267C0040270E500000AD0B0100AD0BF0B5404DE6
:10268C0085B02C78002C76D13E4A01AB07CA83E882
:10269C0007003D491846D1F8102522F00202C1F876
:1026AC001025FFF75BFF07232246672101F001008D
:1026BC000244013BD2B24FEA5101F7D1052A5CD159
:1026CC001A4601272E48002467265FFA82FC96FAE8
:1026DC00A6F15FFA84FEE645B1FA81F145D30132E9
:1026EC00052A017500F10C00EDD1012000242749C9
:1026FC009A0800FA02F212F0670F1CBF5C505A588D
:10270C000433302BF4D1E420FEF7CEF91E4B2049D4
:10271C00D3F8182703F5C07322F4403242F4803208
:10272C00C3F89825D3F8902322F00202C3F8902323
:10273C0040F6FF72C3F8A82100221A60A3F580703E
:10274C0004338B420260F8D101240F4B11481C66F4
:10275C00114B1A68114BB2FBF0F25D20234350432E
:10276C0098470F482C7005B0F0BD07FA01F126EA26
:10277C0001060134ABE70B48F5E70B48F3E700BF64
:10278C00EC0000200C52000000200E5000210E50D6
:10279C00B0210E5040420F001000002030520000BB
:1027AC000000AD0B0C00AD0B0100AD0B73B52A4C4A
:1027BC00054663680E4603F0010304F1140101A8F9
:1027CC000193FFF7D3F8254B98423DD1002333708A
:1027DC00636823F001036360A36843F00103A36003
:1027EC001F4BD3F81025960732D4D3F8102542F09E
:1027FC000202C3F81025C5B1D3F8482712F0010224
:10280C0002BFD3F8481741F00101C3F84817144B25
:10281C00D3F84017D3F844174C00F9D42AB9D3F89D
:10282C00482722F00102C3F848270E4B0E4A1B68BA
:10283C00B3FBF2F30A4A03EB43135BB1D2F8401734
:10284C00D2F84417490001D402B070BD013BF4E743
:10285C000648F9E70648F7E7EC0000200000AD0B4E
:10286C0000200E501000002040420F000C00AD0B59
:10287C000700AD0B2DE9F0410446007A1D461746C2
:10288C00FFF77EFE184B9DF818609842804627D1C2
:10289C002046FFF791FEEFF31181202383F312887A
:1028AC00BFF36F8F227A114B9200134400221A60EF
:1028BC00227AC5F31305120102F1A04202F562223D
:1028CC001B68C2F82075C2F8245581F31188BFF338
:1028DC006F8F2EB10123227A9340054AC2F824331C
:1028EC004046BDE8F08100BF0000AD0B00210E504A
:1028FC0000200E502DE9F3410020254B0126D3E991
:10290C00012121EA020101F067010C46074614BBC4
:10291C004FF001081F4B1E4DD3F820630640287D55
:10292C0002B208FA02F333420DD0E96859B1120130
:10293C0002F1A0422F6902F56222D2F82435D2F8B6
:10294C002025009788470134052C05F10C05E6D1AC
:10295C0002B0BDE8F08194FAA4F5B5FA85F5AB00A8
:10296C0003F580729B0806FA03F319420BD002F1AF
:10297C00A04202F56222D2F800C0BCF1000F02D0D6
:10298C0017601268184306FA05F524EA0504BEE739
:10299C00EC00002000200E5038B5EFF311852023F9
:1029AC0083F31288BFF36F8F064B9C6801F065FDB3
:1029BC0085F31188BFF36F8F2046BDE83840FEF7D2
:1029CC001FB800BFB003002038B5094B53F82040A6
:1029DC00013053F82050A54200D838BD636823B1AC
:1029EC00204601F04DFD0834F5E723689847FAE7D7
:1029FC00E85200000122F0B52A4B87B003202A4E82
:102A0C001A70FFF7E1FF00F02FFE01F055FD0420D6
:102A1C00FFF7DAFF3746254DB54205F1300410D3E8
:102A2C0000F0A6FA214C224DBC4227D300F0B4FA98
:102A3C00FDF738FD1F4A137B23F00103137307B016
:102A4C00F0BD54F80C3C059354F8103C049354F826
:102A5C00143C039354F8183C029354F81C3C019317
:102A6C0054F8203C009354E90A2354E90C0100F07B
:102A7C0025F954F8303C5D652546CDE7D4E90A23A9
:102A8C00591C08BFB2F1FF3F05D052EA0301206880
:102A9C0003D100F049FB3034C6E72946183000F06A
:102AAC00D9FCF8E7E1030020C0510000C051000040
:102ABC00B9450000D801002008B50348034A00219D
:102ACC00121A01F0F5FC08BD50010020E4030020AF
:102ADC000023012270B586B0CDE904230F22142502
:102AEC00CDE902324FF4A07201930E4B0E4E05FB52
:102AFC0000350E4906EBC016044602FB001100958A
:102B0C000B4B304600F0DAF8737B2C7423F0040383
:102B1C007373084B013403EBC424EE606C6006B095
:102B2C0070BD00BFB003002058010020E807002052
:102B3C00C744000028090020BFB50020FFF744FF60
:102B4C00284B03F5006282F3088883F30A8800247B
:102B5C00E023254D254E85F82230EC772C766C76CB
:102B6C00AC766B6A43F4E0236B6285F82340FDF787
:102B7C0015FFFEF729F84FF0FF33AB62EB62FEF75F
:102B8C009DF9FEF749F81A4800F0C6F801F061FC0F
:102B9C000120FFF719FF0220164DFFF715FF00F07B
:102BAC0031FA154B4FF480625D61144B1449059357
:102BBC000123CDE90144CDE9034300943346284673
:102BCC0000F07CF807466B7B284623F004036B73FC
:102BDC0001F0C0FC2046FFF77BFF32463946284601
:102BEC00FDF7D8FF2809002000ED00E0012A0000C5
:102BFC0058020020D8010020B003002051530000DF
:102C0C00E803002070B5EFF31186202383F31288BC
:102C1C00BFF36F8F0468A0421AD0CCB1D4E9003254
:102C2C00002513605A60637BC4E9005523F002034E
:102C3C006373A56004F1180001F0F3FC2046A5674E
:102C4C0001F088FC3146BDE87040074800F06AB9D5
:102C5C00D0E902329A4218BF0133836086F311889F
:102C6C00BFF36F8F70BD00BFE203002037B5144671
:102C7C001D46EFF31181202383F31288BFF36F8F6E
:102C8C00836843B1013B836081F31188BFF36F8F7D
:102C9C00002003B030BD54EA050306D181F311883E
:102CAC00BFF36F8F6FF00F00F3E70246CDE90045DD
:102CBC00014800F00BF9ECE7E2030020F0B585B019
:102CCC000E9E00F1580506730426C0E91655002522
:102CDC000446467307320D9E22F007028673C0E944
:102CEC0019128E180C9A8560C573C0E90655C56615
:102CFC0002920B9A01920A9A00923246FDF72EFF2D
:102D0C00044B65659B6803B11B6F3046236705B0A8
:102D1C00F0BD00BFB003002040F2011383810023FB
:102D2C00C0E919330367014B98607047B00300206A
:102D3C006FF00A01084A93689967084958674B680D
:102D4C0043F080534B60002383F31188BFF36F8FE4
:102D5C009368986F704700BFB003002000ED00E04F
:102D6C0038B5437B01461C0604D503F07F0343733F
:102D7C0001F0B4FB0D4C224652F8185FA368954243
:102D8C0000D005B9E5688B4209D05A7BD20606D132
:102D9C00DA897F2A03D9AA690AB9636138BDAB42C3
:102DAC0002D0284600F0B4FA6561F7E7B0030020C2
:102DBC0070B5437B1C0629D4D90627D11D4C63F072
:102DCC007F032246437352F8183F934224D01BB31F
:102DDC00E66990F90E5093F90E108D4217D0491BED
:102DEC00002914DD5968C0E9003108605860A569F4
:102DFC00954200D005B9E568A3685A7BD20611D17B
:102E0C00DA897F2A0ED9AA6962B9636170BDB342AF
:102E1C0002D01B68002BDED1E369C0E900231860E7
:102E2C00E061E4E7AB4202D0284600F071FA65613C
:102E3C00ECE700BFB003002070B5437B01461C06D5
:102E4C0004D503F07F03437301F048FB1E4C4B7B0E
:102E5C00224663F07F034B7352F8183F934226D0FF
:102E6C002BB3E66991F90E5093F90E00854219D0F7
:102E7C00401B002816DD5868C1E90030016059601C
:102E8C00A569A368954200D005B9E5688B4214D0BA
:102E9C005A7BD20611D1DA897F2A0ED9AA6962B976
:102EAC00636170BDB34202D01B68002BDCD1E369B7
:102EBC00C1E900231960E161E2E7AB4202D0284688
:102ECC0000F026FA6561ECE7B0030020F8B5DDE907
:102EDC000667114B0D46986810490860EFF3118195
:102EEC00202181F31288BFF36F8F9C681146204616
:102EFC0001F006FB7B1C08BFB6F1FF3F06D0324643
:102F0C003B46074904F1180000F0A4FA2846BDE836
:102F1C00F840FFF70DBF00BFB0030020D003002026
:102F2C00B945000049B9EFF3058030B9054B5A6932
:102F3C009B689A4201D0FFF7FBBE81F31188BFF367
:102F4C006F8F7047B0030020024648B9EFF305833A
:102F5C0033B9064B59699B68994201D0FFF7E8BE1B
:102F6C0082F31188BFF36F8F704700BFB00300204E
:102F7C00EFF31181202383F31288BFF36F8F054B7E
:102F8C009A68D37B013BD37381F31188BFF36F8FA6
:102F9C00704700BFB003002070B5EFF311862023FB
:102FAC0083F31288BFF36F8F154CA368DA7B013261
:102FBC00DA73224652F8185F954200D005B9E568DD
:102FCC005A7BD20614D1DA897F2A11D9AA697AB927
:102FDC00636186F31188BFF36F8FEFF311802023A9
:102FEC0083F31288BFF36F8FBDE87040FFF7ACBF5F
:102FFC00AB4202D0284600F08BF96561E9E700BFCF
:10300C00B0030020024B03F11802C3E906227047FB
:10301C00B003002070B5EFF31186202383F31288E0
:10302C00BFF36F8F1B4CA168E3690A68994214BF08
:10303C001346002349680A605160A268E0692BB905
:10304C00154BC2E900300260E2610DE092F90E50BE
:10305C0093F90E108D4219D0491B002916DD5968C1
:10306C00C2E900310A605A60A5690B4B9D4200D041
:10307C0005B9E568A3689D4202D0284600F048F9DE
:10308C0065613046BDE87040FFF752BE8342D7D031
:10309C001B68D4E7B0030020C80300202DE9F041E1
:1030AC0006460F4656EA070104D1FFF7B3FF00208E
:1030BC00BDE8F0816FF001010A1A4FF0FF3161EBAE
:1030CC000703012A73F1000324DA01F0CBFA841907
:1030DC00EFF31188202383F31288BFF36F8F0F4D0A
:1030EC000F4BA8681860FFF73BFEA8680D493246E5
:1030FC003B46183000F0AEF9AA684046537B43F0CB
:10310C0004035373FFF714FE01F0ACFA201A20EA03
:10311C00E070CDE76FF00104241AD9E7B00300206A
:10312C00D0030020B945000038B50446EFF31185F3
:10313C00202383F31288BFF36F8F437B5B070FD57C
:10314C00183001F06EFA637B204623F0040363739E
:10315C00FFF72EFE2946BDE838400448FFF7E2BED3
:10316C0085F31188BFF36F8F38BD00BFE2030020D9
:10317C00014B9868704700BFB00300202DE9F8435D
:10318C000446077BEFF31185202383F31288BFF3EA
:10319C006F8F437B1E0705D585F31188BFF36F8FA7
:1031AC00BDE8F88343F00802110654D44273A368B7
:1031BC0013B1204601F09AF904F1180001F031FA2C
:1031CC00A66D04F15808B04511D04FF0000976B146
:1031DC00304601F08BF906F1180001F022FAC6F81E
:1031EC0078903046FFF7E4FDA66DB045EFD12E4E3A
:1031FC00B3689C4237D04FF00009D6F818802B4AA0
:10320C00904502D0B8F1000F01D1D6F80C8043459F
:10321C0002D0404600F07CF8C6F81480B9F1000FDB
:10322C0002D02348FFF778FDB3689C4236D1EFF308
:10323C0005839BBB227BD2071DD42846FFF778FD64
:10324C00FB07ADD5002383F31188BFF36F8F0423E5
:10325C00184602DFA4E703F07F0343F0080343732F
:10326C0001F03CF9A3E7EFF3058919F1000918BF48
:10327C004FF00109C1E785F31188BFF36F8F83F31A
:10328C001188BFF36F8F0423184602DFEFF3118010
:10329C00202383F31288BFF36F8FCFE785F3118858
:1032AC00BFF36F8FCCE700BFB0030020C803002032
:1032BC00580200200122044BC01A044BC010584382
:1032CC00034B1A54704700BFD8020020ABAAAAAA1D
:1032DC00E2030020C3897F2B12D80A4B1B6863B111
:1032EC00094B90F90E201B689A4209DB437BDB06E5
:1032FC0006D1064BC31A18BF012303F00100704717
:10330C000023FAE7D8030020D40300205801002042
:10331C0070B50E4B0E4C1D7C064605EB450304EBBD
:10332C00C304204601F07DF900220A4B30465A5561
:10333C00FFF7D0FF48B1084B2046BDE870401A6833
:10334C000649013AD31700F085B870BDB0030020D0
:10335C00D8020020E2030020D8030020C132000074
:10336C0038B5EFF31185202383F31288BFF36F8FE9
:10337C00104B114A9C681068A04206D1FFF7C8FF99
:10338C0085F31188BFF36F8F38BD00211B7C116052
:10339C000A4AD35C002BF3D02046FFF79BFF002892
:1033AC00EED0637BDB0602D12046FFF745FD2046BD
:1033BC00E4E700BFB0030020D0030020E2030020AC
:1033CC00074808B5074A0849121A01F073F8BDE816
:1033DC0008400648064A0749121A01F06BB800BFAC
:1033EC000000002050010020945300000000002039
:1033FC000000002094530000024B1868984208BF4C
:10340C000020704740010020034B1B680BB9FEF7EE
:10341C00B9B90020704700BFDC03002030B570B193
:10342C000B4B5B6898420AD0036843B1D3E9042183
:10343C00D0E90445121945EB0101C3E90421D0E997
:10344C00003213605A600023C0E9003330BD00BF66
:10345C0040010020B3F1FF3F08BFB2F1FF3F2DE95F
:10346C00F74F044692469B4667D08160EFF3118577
:10347C00202383F31288BFF36F8F6FF001034FF09B
:10348C00FF32B3EB0A0862EB0B09B8F1000F79F1CC
:10349C0000011DDB2F48D0E900105B1A62EB000223
:1034AC00B3EB0A0662EB0B07012E77F10003BCBFEE
:1034BC0001260027C4E90467FFF79EFF2649D1F8CF
:1034CC0004C0B8B9C4E9001CCCF800404C6024E03E
:1034DC00FFF79AFF1AF1010300934BF100030193DC
:1034EC00DDE90023121843EBE07319461046C4E9DA
:1034FC000401E1E7D0E90489D4E90467464577EB98
:10350C0009031DDAB8EB060269EB0703C0E90423D3
:10351C004368C4E900031C604460FFF76DFF8442FC
:10352C0007D10E4B1C6824B901F060F82146FEF758
:10353C003DF985F31188BFF36F8F03B0BDE8F08FB1
:10354C00B6EB080267EB09038445C4E90423B9D040
:10355C000068B6E7F002002040010020DC030020E8
:10356C002DE9F347EFF31185202383F31288BFF382
:10357C006F8F2D4ADFF8B4901060FFF73DFFCA46FD
:10358C0004469046D9E90001D8F80020CDE90001A5
:10359C001046D1175CB1D4E90467B24271EB070352
:1035AC001DDAB6EB020C67EB0106C4E904C6002475
:1035BC00009BC8F80040C218019B41EB0303CAE909
:1035CC00002301F013F82146FEF7F0F885F311887B
:1035DC00BFF36F8F02B0BDE8F047FFF7C1BE00220A
:1035EC00DDE900010023801941EBE671C9E9000116
:1035FC00C4E904232046FFF711FF85F31188BFF3BC
:10360C006F8FA3689847EFF31185202383F31288FB
:10361C00BFF36F8FD8F800309E1BC8F80060FFF71F
:10362C00EBFE0446AEE700BFDC030020F0020020F6
:10363C002DE91848EFF31184202383F31288BFF38C
:10364C006F8FFFF7E1FE074BD3E9002312EB000B62
:10365C0043EBE07C6146584684F31188BFF36F8FCF
:10366C00BDE81888F0020020014800F01EBC00BF25
:10367C00565300002DE9F04F837899B09C07814692
:10368C00CDE90212D0F804A016D50B4600260792FD
:10369C001D789DB1252D15D001330193494628463F
:1036AC00D047002806F1010680F28E8199F802308D
:1036BC0043F0040389F802304FF0FF36304619B05E
:1036CC00BDE8F08F5D789A1C252D0192E6D04FF065
:1036DC00000B0A23D8465F465C461F2C22D8A5F166
:1036EC002002102A20D8DFE802F0141F1F1A1F1F17
:1036FC001F0B1F1F1F121F171F1F090044F001046F
:10370C00019A12F8015B0192002DE6D16BE044F0B6
:10371C00020444F00404F3E744F00804F0E744F036
:10372C001004EDE77F2C41D8A5F13002092A09D805
:10373C00600602D503FB0828E2E703FB072744F0E9
:10374C002004DDE72A2D12D1BBF1000FD8D1079A46
:10375C00650602F10401079102D5D2F80080CFE78B
:10376C001768002FEBDA7F4244F02804C8E72E2DAF
:10377C0004D16006A2D444F04004C1E7242D15D135
:10378C00BBF1000F60D0039B14F0400514BF424600
:10379C003A4607A90298079300F0FAFF079A0A2302
:1037AC00111D0791002DD8D11768A9E76C2D06D1F2
:1037BC00220648BF44F4007444F08004A0E7682D4E
:1037CC0006D1E50548BF44F4007444F4807497E7CF
:1037DC004C2D02D144F4207492E76A2DFAD07A2D44
:1037EC008ED0742D8CD0BBF1000F06D0039B5A46A3
:1037FC0007A90298079300F0CBFFB8F1000F45F032
:10380C002003B8BF24F04004A3F16502BCBFA4B2EE
:10381C004FF00008022A01D9612B1AD14FF007088A
:10382C00079BAE4D073323F0070308330793240798
:10383C003CD505EB0804A6EB050BA54205EB0B06E6
:10384C0036D1A7EB080711E1D846BB46444647469C
:10385C0056E7632D09D1079B4FF001081A1D0792FB
:10386C001B6808AD8DF82030E1E7732D27D1079B3D
:10387C001A1D07921D689A4B002D08BF1D4614F0A7
:10388C00400F14BF41464FF0FF31284600F004FFB3
:10389C008046CCE749462020D0470028FFF606AFEB
:1038AC00013FB845A4EB0706F4D3C2E7F419F8E7D7
:1038BC00494615F8010BD0470028BEDAF6E6642D10
:1038CC0001D0692D45D12006079B38D5A10531D5EE
:1038DC00073323F0070303F108020792D3E9000131
:1038EC00002871F1000304DA404261EB410144F419
:1038FC00806424F0100B50EA01031FFA8BFB04D1F7
:10390C00640602D5B8F1000F7DD00A2308AC22461C
:10391C0000F0CEFE021B1BF0400F76D02BF0010303
:10392C0090459BB279DD1DB92BF0110B1FFA8BF36F
:10393C0044466CE01A1D07921868C117D0E71A1D8F
:10394C000792E2051868F8D5A3054CBF40B200B247
:10395C00F3E7752D19D10A2324F01004A4B2210623
:10396C00079A3DD5A00536D5073222F0070202F1A1
:10397C0008010791D2E9000150EA01023AD024F083
:10398C0006041FFA84FB08ACC1E76F2D1ED0702D06
:10399C0004D144F0100410237825E0E7782B04D1EF
:1039AC00C5F1780343F01003D9E7622B11D04946D7
:1039BC002520D0470028FFF679AE49462846D04747
:1039CC000028FFF673AE0236019B61E60823002542
:1039DC00C5E70223C3E7111D079110680021CBE74F
:1039EC00111D0791E1051068F8D5A2054CBFC0B2B6
:1039FC0080B2F3E724F0160B64061FFA8BFBC2D5DA
:103A0C00B8F1000FBFD1424685E714465B4613F070
:103A1C00100B2DD01DB9013402E01446F7E7023427
:103A2C00190707D4D90739D5A74239DDA7EB040804
:103A3C003C469044BBF1000F3DD0494630200492E7
:103A4C00D0470028FFF632AE049A5DBB0136B04475
:103A5C00A8EB06039A4245DB904695190DF1200B15
:103A6C00A5EB0806B8F1000F46D13F1B374454E0D4
:103A7C0040F206410B42D3D0CDE749462020CDE998
:103A8C000432D0470028FFF611AEDDE904320134D0
:103A9C00A74206EB0401F0DC0E46CBE7361BF7E73A
:103AAC009046C7E74946284604920236D04700287C
:103ABC00049ACCDAFAE540F206410B42C7D013F077
:103ACC00020F14BF2B20202013F4806F049206F1F8
:103ADC000106494618BF2D20E8E700BF8C530000B3
:103AEC0085530000494630200492D047002806F147
:103AFC000106049AACDAD9E508F1FF3849461BF8FF
:103B0C000800D0470028ABDAD0E549462020D04742
:103B1C00002806F10106FFF6C9ADBB1B002BF4DC37
:103B2C0052E700BF2DE9F04F099E04468946002B51
:103B3C0040F083808A42154645D9B2FA82F24AB1E6
:103B4C00C2F1200701FA02F39540944020FA07F7DE
:103B5C0047EA03094FEA154E230C1FFA85F8B9FB07
:103B6C00FEFC0EFB1C990CFB08F143EA094399423D
:103B7C000AD9EB182CBF01200020994202D9002849
:103B8C0000F01D810CF1FF3C591AA3B2B1FBFEF001
:103B9C000EFB101100FB08F843EA0144A04505D9BF
:103BAC002C1902D2A04500F20E810138A4EB0804B6
:103BBC0040EA0C4000271EB1D4400023C6E9004364
:103BCC003946BDE8F08F002A51D0B2FA82F2002AB1
:103BDC0040F0AF80491B4FEA154E1FFA85F80127BC
:103BEC00230CB1FBFEFC0EFB1C1108FB0CF043EA92
:103BFC00014398420AD9EB182CBF012100219842AD
:103C0C0002D9002900F0D7800CF1FF3C191AA3B29D
:103C1C00B1FBFEF00EFB101108FB00F843EA014467
:103C2C00A04505D92C1902D2A04500F2C18001385B
:103C3C00A4EB080440EA0C40BDE78B4208D9002EE7
:103C4C0074D00027C6E9000138463946BDE8F08F2C
:103C5C00B3FA83F767B98B42C0F0A480824240F27A
:103C6C00A1803846002EABD0C6E90049A8E7FFDE9C
:103C7C00C7F12005BB4002FA07FC01FA07F4EA4041
:103C8C0020FA05F8E94000FA07FE1A4348EA040452
:103C9C004FEA1248200C1FFA82F9B1FBF8FA08FB24
:103CAC001A110AFB09FB40EA01418B450AD951184C
:103CBC002CBF012300238B4502D9002B00F08880F8
:103CCC000AF1FF3AA1EB0B01A4B2B1FBF8F008FB2F
:103CDC00101100FB09F944EA0141894504D9511836
:103CEC0001D289457BD8013840EA0A40A1EB090191
:103CFC00A0FB0C89494544464B4602D306D1C64528
:103D0C0004D20138B8EB0C0469EB0203002E5DD031
:103D1C00BEEB040261EB030101FA05F522FA07F38D
:103D2C00F94000271D43C6E9005149E737463046A4
:103D3C0046E7C2F12000954001FA02F721FA00F3A0
:103D4C004FEA154E24FA00F11FFA85F894403943D6
:103D5C00B3FBFEF00F0C0EFB103300FB08FC47EA24
:103D6C0003439C4507D9EB182CBF012700279C4522
:103D7C0000D98FB30138A3EB0C0389B2B3FBFEF768
:103D8C000EFB173307FB08FC41EA03418C4504D9B1
:103D9C00691801D28C4525D8013FA1EB0C0147EAEB
:103DAC0000471DE7841A61EB03030120994659E78C
:103DBC0002382C443CE7ACF1020C2B4426E7ACF166
:103DCC00020C2B44E0E602382C44EFE63746F7E6CB
:103DDC00AAF1020A114475E702382B44CBE70238EA
:103DEC00114481E7023F2944D7E700BF00EBC10132
:103DFC00488840087047F8B50E460346FFF7F6FFB3
:103E0C00B0FA80F0C0F11F0003EB800CDCF810500E
:103E1C00F200171DB4B2063255B9012101FA00F0B7
:103E2C00D9680143D960CCF81060DC539C52F8BDC2
:103E3C00E9000431585AD85303EBC0009D52C4809A
:103E4C005C52F4E7043ACB1D0A4423F0070322F03A
:103E5C000702D21AF0B4D4080360B4FA84F0002636
:103E6C00C0F124008000C51D9C60DE60E90803F1F0
:103E7C0010071844874213D1480040F001005880C5
:103E8C00641A25F007001E801D1866006E801952FA
:103E9C0098189C5201224280F0BC1846FFF7ABBF29
:103EAC0047F8046BE6E7002070470FB407B504A988
:103EBC0051F8040B0191FCF731FB03B05DF804EBF6
:103ECC0004B07047044608B5084611461A46A04788
:103EDC00FFF74EF9FCF794FD038B13F0070305D1A4
:103EEC000368002B0CBF002003207047022B05D168
:103EFC00438B002B14BF002004207047012B05D1ED
:103F0C000368002B0CBF0020052070470020704771
:103F1C002DE9F0410D4607461946281D90461E46D0
:103F2C0000F094F8044638B13346424629463846E8
:103F3C00A446BDE8F0416047BDE8F08110B4EFF352
:103F4C001182202484F31288BFF36F8F416110BC5F
:103F5C000121FCF7FBBA10B50C4640B139B1081D74
:103F6C0000F063F828B9A36833F0030301D06FF0B5
:103F7C00150010BD38B50C46054658B151B10B684B
:103F8C0043B14B6833B11C22002100F07DFB0020B3
:103F9C002C6138BD6FF01500FBE770B504460D467B
:103FAC00FFF7D9FF061E30DBEFF31181202383F3DB
:103FBC001288BFF36F8F4FF6FF76638B208BB34263
:103FCC0000F007022ED0022A0ED10133638316466D
:103FDC00012381F31188BFF36F8FB3B100232946FE
:103FEC002046FFF795FF10E0830701D0062A0ED17B
:103FFC0000232B60636893B9C4E90055164662B977
:10400C000A4620460221FCF7A1FA304670BD052A6B
:10401C000CBF6FF085066FF004060023D9E71D6016
:10402C006560EBE76FF00A06F7E760B1436803F0F1
:10403C000303012B03D0032B05D103681BB1002311
:10404C008360184670476FF015007047426803464E
:10405C0002F00302032A4FF0000281600CBF0068DB
:10406C0010465A6070477047012801D1EFF3058361
:10407C00FEF792BC01460068FFF7F6BF08B5FCF7E7
:10408C0047FBBDE80840FCF747BB00210120FFF7C8
:10409C00EBBF436E83F30B88704761B662B680F357
:1040AC001188BFF36F8F704772B6002383F31188AA
:1040BC00BFF36F8FBFF34F8F30BF62B6BFF36F8FFD
:1040CC00704772B6002383F31188BFF36F8FBFF371
:1040DC004F8F20BF80F31188BFF36F8F62B670478C
:1040EC0040E800F313F4803FD8B208BF6FF015001E
:1040FC00704730B585B00C684B689DF808200D8969
:10410C000094498924F01F04013B65F30402234405
:10411C0061F3471223F01F0369468DF808200393BF
:10412C00FCF7AEFD05B030BD0C230269C9B201FB32
:10413C000323186C00F00700704770B5C9B205690D
:10414C00EFF31186202383F31288BFF36F8F0C23B8
:10415C0003FB0154246C14F0C00401D0A24211D111
:10416C00012203FB01531A64002386F31188BFF369
:10417C006F8F2BB9436803EBC1035B68984700232F
:10418C00184670BD4FF0FF33EFE78022FFF7D5BF25
:10419C0010B403691C20CCB204FB0030002110BC0D
:1041AC0010470020FDF796BC002000F085B81046A3
:1041BC00FEF728BDF8B5C9B20769EFF311842025C5
:1041CC0085F31288BFF36F8F0C2606FB0176356CD6
:1041DC0005F0070CBCF1010F12D1802535640025C8
:1041EC0084F31188BFF36F8F45B90C2404FB017461
:1041FC00C4E90E23436853F8313098472846F8BD7C
:10420C0005F0C005802D14BF4FF0FF356FF077051A
:10421C00E6E7436800205B68DB680B607047436827
:10422C0002EA01005B6821EA020258609A600020F1
:10423C007047436800205B685960704743680020F2
:10424C005B689960704743685A68136821EA0300F9
:10425C000B40506093600020704730B5036958687C
:10426C0010B3002481421BD108685CB99C6858606B
:10427C00A14200D19860002008604AB9002030BDEE
:10428C002846EFE720609868814208BF9C60F2E7FF
:10429C005A680A60986859600028EFD19960EEE777
:1042AC0005680446002DEBD1002AF1D16FF0150002
:1042BC00E5E7004700F0C9B8FDF794BBF7B5174622
:1042CC00DDE90846019001A81D46FDF7D9FC019BCC
:1042DC00002F00EB830014BF02230023002918BF1A
:1042EC0043F00103002D14BF4FF00C0C4FF0000CE9
:1042FC00002C43EA0C0314BF4FF4706C4FF0000C0D
:10430C00002E43EA0C0314BF4FF4403C4FF0000C5A
:10431C00D0F8802043EA0C0322EA030301B10978A8
:10432C000FB13F787F0019430DB12D78AD0041EAF4
:10433C0007020CB121780C0215430EB13678360405
:10434C002C433443C0F8804003B0F0BD1FB50DF1D1
:10435C000F03019300238DF80F1000931A46194692
:10436C00FFF7ACFF05B05DF804FB70B504460846DA
:10437C0016460D46FDF792FC083034F81030DA057D
:10438C0009D5C3F3432304EBC302526854F833300A
:10439C00314628469847A3682BB1E2683146284637
:1043AC00BDE87040184770BDF0B5044600200127E9
:1043BC000546844695420AD1D4F8443133B10023E2
:1043CC00C4F84431D4F8443140F40030F0BDEBB2C1
:1043DC009B0003F580769B0807FA03F3194208D07B
:1043EC0054F806E0BEF1000F03D044F806C0A659FD
:1043FC0018430135DEE770B50679044630460D46A4
:10440C00FDF756FCB0B12046FDF7DCFC90B1304610
:10441C00FDF760FC012322688340C2F8183303B215
:10442C00206800EB8300D0F8103523F00303C0F8AC
:10443C00103570BD2846BDE870400021FFF786BFDF
:10444C00FDF7D4BCFFF7D7BF704708B1FCF7E6BD4A
:10445C007047704740B1C368587810F001001EBF18
:10446C001878B0FA80F040097047EFF311832023DD
:10447C0083F31288BFF36F8FFEE708B5FFF7F5FFE4
:10448C0010B5D0E9003433B90020E268537843F01A
:10449C000103537010BD204698470028F4D0002823
:1044AC00B8BF4042FF28A8BFFF20E3681870ECE7B4
:1044BC0000F0EAB800F0DAB87047202408B5EFF342
:1044CC00118384F31288BFF36F8FFFF7EDFDF6E7CE
:1044DC00EFF30580003018BF01207047D0E900329F
:1044EC0013605A600023C0E90033704708B5FFF72A
:1044FC00F5FF437B23F0020343730023836008BD65
:10450C0038B504460D46FEF72BFC637B43F00203E3
:10451C00637395B1A5602B689D4215D0A3B194F936
:10452C000E1093F90E20914208D0521A002A05DD84
:10453C005A68C4E9003214605C6038BD6A68934202
:10454C0002D01B68002BECD16B68C4E900531C60D3
:10455C006C60F2E710B5EFF31184202383F312881B
:10456C00BFF36F8FFEF724FC84F31188BFF36F8FBA
:10457C0010BD10B50146EFF31184202383F312888C
:10458C00BFF36F8F437B13F0280F0AD183680BB1F5
:10459C00FFF7ACFF4B7B084623F004034B73FEF78D
:1045AC0007FC84F31188BFF36F8F10BD01211838FD
:1045BC00FFF7DFBF38B50D460446FEF76FFD01353A
:1045CC0008BFB4F1FF3F0ED04FF47A7147F61124B7
:1045DC000025C1FB004547F6122200232046294640
:1045EC00FBF746FF38BD4FF0FF30FBE738B5FEF761
:1045FC0003FF0446FEF708FF84B1D4E90423141A20
:10460C0063EBE075B4F1004F75F1000306DA002C92
:10461C0075F10003204600DA002038BD6FF0004031
:10462C00FBE770B50446EFF31185202383F3128862
:10463C00BFF36F8F036873B1FEF7DEFE06462046AC
:10464C00FEF7ECFEA64204D1FFF7D0FF0021FDF7E8
:10465C00ADF8002001E06FF0150085F31188BFF371
:10466C006F8F70BD08B5FEF7E3FF08BD0A44914299
:10467C0000F1FF3300D1704710B511F8014B914296
:10468C0003F8014FF9D110BD03460244934200D107
:10469C00704703F8011BF9E7024610B501448A4242
:1046AC00134603D01C780132002CF8D1181A10BD17
:1046BC00F0B5C3F13706F6B203F01F03082BC5B2F1
:1046CC0013D0102B18D0022B23D105F00104450870
:1046DC0045EAC1754F0828463946303402F8014B7B
:1046EC0050EA0104EAD11046F0BD05F00704C508F4
:1046FC0045EA4175CF08EEE705F00F04050945EAD8
:10470C0001750F0928463946092C84BFA419E4B257
:10471C00E3E744084FEA900C44EAC1744CEA817C0C
:10472C0014EB0C044FEA51074FEA910E47EB0E01C4
:10473C00200940EA017024184FEA111747EB0101D8
:10474C00200A40EA016024184FEA112747EB0101C7
:10475C00200C40EA014024184FEA114747EB0101B5
:10476C000027641841EB0707E00840EA4770C4B221
:10477C0004EB8404A5EB4404E4B2092C4FEAD70102
:10478C00ABD90130A4F10A0441F10001E4B2BBE75A
:10479C002DE9F04301240A258446944202DBBDE84E
:1047AC00F0839C46634613F8016B002EF7D0252E40
:1047BC00F7D11F780CF1020C252FF3D000239E4665
:1047CC001E461F2E0FD8A7F12008B8F1100F0CD8D9
:1047DC00DFE808F0130B0B130B0B0B130B0B0B136A
:1047EC000B130B0B13007F2E1AD8A7F13008B8F15E
:1047FC00090F07D8202605FB03831CF8017B002F2B
:10480C00DFD12AE0242F06D1BEF1000F3CD09C4210
:10481C003CD00023F1E727F00408B8F12A0FF8D0B8
:10482C006C2F06D1370648BF46F4007646F080065A
:10483C00E3E7682F06D1F70548BF46F4007646F447
:10484C008076DAE74C2F02D146F42076D5E76A2F32
:10485C00FAD07A2FD1D0742FCFD0BEF1000F9ED0CA
:10486C0074459AD147F0200CACF1650EBEF1020FE5
:10487C000B6802D9BCF1610F0AD1073323F007038F
:10488C0008330B60013487E79E46C2E76327E9E7EC
:10489C00632F01D10433F4E7732FFBD006F0800CA7
:0C48AC00BCF1000FF6D0B605F4D5E6E72D
:0848B80078F2FF7F010000000F
:1048C0001110000000000000C9100000F8480000AE
:1048D00009140000344900000914000020490000B8
:1048E000091400000C490000E1160000000000005F
:0848F000ED0F000000000000C4
:1048F8000F5300006C520000E451000048010020F2
:104908002803002028530000AC520000C0510000CA
:104918004C0100208C030020335300009452000007
:10492800C05100004E010020800300201C530000ED
:10493800C4520000C05100004A0100209803002022
:1049480000000000974000000000000097400000B1
:1049580000000000974000000000000097400000A1
:104968000000000097400000000000009740000091
:104978000000000097400000000000009740000081
:104988000000000097400000000000009740000071
:104998000000000097400000000000009740000061
:1049A8000000000097400000000000009740000051
:1049B8000000000097400000000000009740000041
:1049C8000000000097400000000000009740000031
:1049D8000000000097400000000000009740000021
:1049E8000000000097400000000000009740000011
:1049F8000000000097400000000000009740000001
:104A080000000000974000000000000097400000F0
:104A180000000000974000000000000097400000E0
:104A280000000000974000000000000097400000D0
:104A380000000000974000000000000097400000C0
:104A480000000000974000000000000097400000B0
:104A580000000000974000000000000097400000A0
:104A68000000000097400000000000009740000090
:104A78000000000097400000000000009740000080
:104A88000000000097400000000000009740000070
:104A98000000000097400000000000009740000060
:104AA8000000000097400000000000009740000050
:104AB8000000000097400000000000009740000040
:104AC8000000000097400000000000009740000030
:104AD8000000000097400000000000009740000020
:104AE8000000000097400000000000009740000010
:104AF8000000000097400000000000009740000000
:104B080000000000974000000000000097400000EF
:104B180000000000974000000000000097400000DF
:104B280000000000974000000000000097400000CF
:104B380000000000974000000000000097400000BF
:104B480000000000974000000000000097400000AF
:104B5800000000009740000000000000974000009F
:104B6800000000009740000000000000974000008F
:104B7800000000009740000000000000974000007F
:104B8800000000009740000000000000974000006F
:104B9800000000009740000000000000974000005F
:104BA800000000009740000000000000974000004F
:104BB800000000009740000000000000974000003F
:104BC800000000009740000000000000974000002F
:104BD800000000009740000000000000974000001F
:104BE800000000009740000000000000974000000F
:104BF80000000000974000000000000097400000FF
:104C080000000000974000000000000097400000EE
:104C180000000000974000000000000097400000DE
:104C280000000000974000000000000097400000CE
:104C380000000000974000000000000097400000BE
:104C480000000000974000000000000097400000AE
:104C5800000000009740000000000000974000009E
:104C6800000000009740000000000000974000008E
:104C7800000000009740000000000000974000007E
:104C8800000000009740000000000000974000006E
:104C9800000000009740000000000000974000005E
:104CA800000000009740000000000000974000004E
:104CB800000000009740000000000000974000003E
:104CC800000000009740000000000000974000002E
:104CD800000000009740000000000000974000001E
:104CE800000000009740000000000000974000000E
:104CF80000000000974000000000000097400000FE
:104D080000000000974000000000000097400000ED
:104D180000000000974000000000000097400000DD
:104D280000000000974000000000000097400000CD
:104D380000000000974000000000000097400000BD
:104D480000000000974000000000000097400000AD
:104D5800000000009740000000000000974000009D
:104D6800000000009740000000000000974000008D
:104D7800000000009740000000000000974000007D
:104D8800000000009740000000000000974000006D
:104D9800000000009740000000000000974000005D
:104DA800000000009740000000000000974000004D
:104DB800000000009740000000000000974000003D
:104DC800000000009740000000000000974000002D
:104DD800000000009740000000000000974000001D
:104DE800000000009740000000000000974000000D
:104DF80000000000974000000000000097400000FD
:104E080000000000974000000000000097400000EC
:104E180000000000974000000000000097400000DC
:104E280000000000974000000000000097400000CC
:104E380000000000974000000000000097400000BC
:104E480000000000974000000000000097400000AC
:104E5800000000009740000000000000974000009C
:104E6800000000009740000000000000974000008C
:104E7800000000009740000000000000974000007C
:104E8800000000009740000000000000974000006C
:104E9800000000009740000000000000974000005C
:104EA800000000009740000000000000974000004C
:104EB800000000009740000000000000974000003C
:104EC800000000009740000000000000974000002C
:104ED800000000009740000000000000974000001C
:104EE800000000009740000000000000974000000C
:104EF80000000000974000000000000097400000FC
:104F080000000000974000000000000097400000EB
:104F180000000000974000000000000097400000DB
:104F280000000000974000000000000097400000CB
:104F380000000000974000000000000097400000BB
:104F480000000000974000000000000097400000AB
:104F5800000000009740000000000000974000009B
:104F6800000000009740000000000000974000008B
:104F7800000000009740000000000000974000007B
:104F8800000000009740000000000000974000006B
:104F9800000000009740000000000000974000005B
:104FA800000000009740000000000000974000004B
:104FB800000000009740000000000000974000003B
:104FC800000000009740000000000000974000002B
:104FD800000000009740000000000000974000001B
:104FE800000000009740000000000000974000000B
:104FF80000000000974000000000000097400000FB
:1050080000000000974000000000000097400000EA
:10501800000000009740000049250000BF42000042
:1050280000000000974000000000000097400000CA
:1050380000000000974000000000000097400000BA
:1050480000000000974000000000000097400000AA
:10505800000000009740000000000000974000009A
:1050680001290000BF420000000000009740000036
:10507800000000009740000000000000974000007A
:10508800000000009740000000000000974000006A
:10509800000000009740000000000000974000005A
:1050A800000000009740000000000000974000004A
:1050B800000000009740000000000000974000003A
:1050C800000000009740000000000000974000002A
:1050D800000000009740000000000000974000001A
:1050E800000000009740000000000000974000000A
:1050F80000000000974000000000000097400000FA
:1051080000000000974000000000000097400000E9
:1051180000000000974000000000000097400000D9
:1051280000000000974000000000000097400000C9
:1051380000000000974000000000000097400000B9
:1051480000000000974000000000000097400000A9
:105158000000000097400000000000009740000099
:105168000000000097400000911B0000BF420000B3
:105178000000000097400000000000009740000079
:105188000000000097400000000000009740000069
:105198000000000097400000000000009740000059
:1051A800000000009740000059250000BF420000A1
:0851B800000000009740000018
:1051C000611400001F4200002B4200003F4200001B
:1051D0004942000053420000E5150000674200000C
:0451E00000000000CB
:1051E4000D12000097410000C141000000000000C2
:0C51F40035410000000000000000000039
:1052000000A0105000820D50000405500500000061
:105210000400000001000000000000000000000089
:105220000338FDD8704700000000000000000000B7
:105230000338FDD870470000000000200000000087
:1052400006000100020000004C52000000000000B7
:105250000053000006000000E04F16000000002090
:105260000853000021000000E0EF0220711100004F
:105270008D100000AF410000B54100004112000058
:105280005D1000000000000000A0105000820D50D2
:1052900000040550FF070000000405500000000056
:1052A000020000000000000000000000FFFF0000FE
:1052B00000820D50000000000100000000A00D5011
:1052C000000000001F00000000A0105000000000BF
:1052D0000000000000C010500100000000A01050AD
:1052E00000820D5000040550C0480000C048000076
:1052F000E8480000F0480000F8480000F8480000C6
:10530000464C4153485F30005352414D5F3000637B
:105310006C6F636B40313065303030006770696F9F
:1053200040313061303030006770696F406438322E
:105330003030006770696F4035303430300000071E
:10534000182323232323232323232323232300017D
:10535000026D61696E002A2A2A20426F6F74696E9D
:1053600067205A6570687972204F53206275696CA6
:1053700064207A65706879722D763430313030204F
:105380002A2A2A0A00286E756C6C29002A666C6F1E
:0453900061742A001A
:10539400B33E00004D17000000000000FF000000B5
:1053A4000090D00300000000000000000000000096
:1053B40000000000000000000000000000000000E9
:1053C40000000000000000000000000000000000D9
:1053D40000000000000000000000000000000000C9
:1053E40000000000000000000000000000000000B9
:1053F40000000000000000000000000008000000A1
:10540400FF00000000000000020000000000000097
:105414000000000000000000000000000000000088
:105424000000000000000000000000000000000078
:105434000000000000000000000000000000000068
:105444000000000000000000000000000000000058
:105454000000000000000000000000000000000048
:105464000000000000000000040000000F00000025
:105474000000000001000000000000000000000027
:1054840067000000000000000000000000000000B1
:105494000000000000000000000000000000000008
:1054A40000000000000000000000000000000000F8
:1054B40000000000000000000000000000000000E8
:1054C40000000000000000000000000000000000D8
:0854D40040010020400100200E
:0854DC000000000000000000C8
:0454E40015E015E0DA
:04000003000009DD13
:00000001FF
