:020000040016E4
:10500000970200009382025C9382320073905230C8
:10501000970200009382020F7390723085A3000004
:105020000000000000000000000000000000000080
:105030000000000000000000000000000000000070
:105040000000000000000000000000000000000060
:105050000000000000000000000000000000000050
:10557000C0850220C0850220C0850220EF00905126
:02558000000029
:1055C00073900234F322203493D2F20163910202E9
:1055D000F3120034130181FB16D61AD41ED2AAC2CC
:1055E000AEC032DE36DC3ADA3ED806D011A0011168
:1055F0001303C100B64293F212002322530022C0CB
:105600001794000013040448F322103496C6F323C1
:1056100000301EC26800EF00A015F322203493D2A0
:10562000F20163990204F32220348563FD13B3F27F
:1056300072002D43638962000A8597000000938001
:10564000C00A6F201039B642910296C6B252638AE0
:10565000020009436395620016458645BDA80D45C5
:1056600011A016458A850244411122C426C60A8625
:105670006F2090330323040093031300232074004E
:10568000631703008A8203214400411116C0732569
:1056900020348562FD1233755500EF00E00E9772DD
:1056A0000000938222FE0E05AA9203A5020003A326
:1056B0004200E700030083230400FD13232074004D
:1056C0006393030202410C4441112EC013050000F4
:1056D000EF50C0528245410119C5EF007040179448
:1056E00000001304243A6800EF004009B6429243D8
:1056F000739012347390033002441303C100832269
:1057000043003643B36353009EC6F322203493D242
:10571000F201639F0200B25222539253164586450E
:105720007256E2565257C25782501301810411A09B
:105730000561730020300000000000000000000040
:105740000000000000000000000000000000000059
:105750000000000000000000000000000000000049
:105760000000000000000000000000000000000039
:10577000F32270342320550082800000832205002C
:0A5780007390723482800000828072
:10578C00C1676376F5029337051093C717008E0730
:10579C0037070320930600029D8E3355F5009307BF
:1057AC004713AA9703C507003385A64082803707A5
:1057BC000001C147E36EE5FCE147D9BFB307A04048
:1057CC007D8DC1676373F5029337051093C717007E
:1057DC008E07370703203355F500130747132A9715
:1057EC0003450700FD173E95828037070001C1472E
:1057FC00E361E5FEE147F1BF511122C426C22A83C1
:10580C00AE87814263DA05003337A000B307B0409E
:10581C00998F3303A040FD5263DC0600B335C00002
:10582C003307D04093C2F2FFB306B7403306C040F3
:10583C0032879A833E85639D0620B70503209385A6
:10584C00451363FFC70AC1666375D60A1334061085
:10585C00134414000E04B3568600AE9683C606009D
:10586C00A29613040002B305D440630BD400339505
:10587C00B700B356D3003317B600558DB313B3002E
:10588C00135607013353C50293170701C18393D6EF
:10589C0003013375C502B38567024205C98E1A85AB
:1058AC0063FCB600BA961305F3FF63E7E60063F5F5
:1058BC00B6001305E3FFBA968D8EB3D5C602C203AC
:1058CC0093D30301B3F6C602B387B702C206B3E3A0
:1058DC00D300AE8663FBF300BA939386F5FF63E6C1
:1058EC00E30063F4F3009386E5FF4205558D814593
:1058FC0045A8B70600014144E36FD6F46144A1BF4B
:10590C00814609CAC166637AD60A9336061093C6D5
:10591C0016008E063355D600AA9583C50500AE96A3
:10592C00930500023385D5406390D50A3386C74072
:10593C00854513530701B354660293160701C182C0
:10594C0093D703013376660226853384960242068A
:10595C00D18F63FC8700BA971385F4FF63E7E700E8
:10596C0063F587001385E4FFBA97818F33D66702FE
:10597C00C20393D30301B3F76702B386C602C2070F
:10598C00B3E3F300B28763FBD300BA939307F6FF3C
:10599C0063E6E30063F4D3009307E6FF42055D8DF5
:1059AC0063890200B337A000B305B0409D8D330569
:1059BC00A040224492443101828037050001C14647
:1059CC00E36AA6F4E146B9B73317A600B3D5D700FE
:1059DC003396A700B313A3001355070133D4A502C4
:1059EC00B356D300558E93160701C1829357060107
:1059FC00B3F5A50233838602C205CD8FA28563FC65
:105A0C006700BA979305F4FF63E7E70063F5670057
:105A1C009305E4FFBA97B387674033D3A7024206D6
:105A2C004182B3F7A702B3866602C2075D8E9A87DE
:105A3C00637CD6003A969307F3FF6367E6006375C1
:105A4C00D6009307E3FF3A96C205158EDD8DD5B5CA
:105A5C0063E1D714416763F0E60413B706101347EC
:105A6C001700931537003707032033D5B6001307FB
:105A7C0047132A9703450700130700022E95B30519
:105A8C00A7406311A7020545E3ECF6F03335C300DC
:105A9C001345150031B737070001C145E3E5E6FCB6
:105AAC00E145D1B73397B600B356A600D98E33175C
:105ABC00B60093D306013AC033D7A700B35477028C
:105ACC003356A300139506014181B397B7005D8E41
:105ADC0093570601337777023304950242075D8FA3
:105AEC00A687637C870036979387F4FF6367D7009C
:105AFC00637587009387E4FF3697018F33547702E1
:105B0C004206418233777702330585024207598E6C
:105B1C002287637CA60036961307F4FF6367D600D2
:105B2C006375A6001307E4FF36968244C2074164EE
:105B3C00098E33E5E7009307F4FFB376F5001357AE
:105B4C000501E58FC180B383F602B307F702B38674
:105B5C00960233079702B384F60093D60301A696F8
:105B6C0063F3F600229793D70601BA976361F602A6
:105B7C00E31FF6D641677D17B3F7E600C207B3F310
:105B8C00E3003313B3009E978145E37BF3E07D156F
:105B9C00B9BB8145014529B5411122C626C402C2B3
:105BAC002A832E8463DB0500B337A0003304B04096
:105BBC001D8CFD573303A0403EC263D90600B3379A
:105BCC00C000B306D0409D8E3306C040B2821A8509
:105BDC00A285639F061C37070320130747136373C3
:105BEC00C40CC1676379F60A9337061093C7170084
:105BFC008E07B356F600369783460700130700024C
:105C0C00BE96B307D740630BD700B315F400B35659
:105C1C00D300B312F600D58D3315F30093D60201E1
:105C2C0033D3D502139602014182B3F5D502330367
:105C3C00C3021397050193550501D98D63F86500CF
:105C4C00969563E5550063F365009695B3856540BD
:105C5C0033D7D50242054181B3F5D5023307C702CC
:105C6C00C2054D8D6378E500169563655500637329
:105C7C00E5001695198D3355F5008145924781CB7A
:105C8C00B337A000B305B0409D8D3305A04032441E
:105C9C00A24441018280B7060001C147E36BD6F4F0
:105CAC00E14781BF814709CAC1676372F608933720
:105CBC00061093C717008E07B356F60036970347A6
:105CCC000700930600023E97B387E6406398E6060A
:105CDC003307C44013D60201B356C7029395020191
:105CEC00C181135305013377C702B386B60242074D
:105CFC003367E3006378D7001697636557006373C7
:105D0C00D7001697158FB356C702420541813377DA
:105D1C00C702B386B6024207598D6378D500169533
:105D2C00636555006373D5001695158DA9B7B70635
:105D3C000001C147E362D6F8E147BDBFB312F600DC
:105D4C00B356E40093D5020133D6B6023357E300C1
:105D5C003315F30013930201135303013314F400AE
:105D6C00418FB3F6B602330666029393060193563F
:105D7C000701B3E6760063F8C600969663E5560015
:105D8C0063F3C6009696918E33D6B60242074183D2
:105D9C00B3F6B60233066602C206558F6378C700A7
:105DAC001697636557006373C7001697118F1DB75D
:105DBC00E366D4ECC16763F6F60493B7061093C799
:105DCC00170013973700B7070320B3D2E600938769
:105DDC004713969783C2070093070002BA92B383C6
:105DEC0057406397570263E48600E369C3E83306C0
:105DFC00C340B306D440B335C3003285B385B64037
:105E0C00B5BDB70700014147E3EFF6FA614765BF3F
:105E1C00B3977600B3565600DD8E13D50601B357F3
:105E2C005400B3D4A702331773003AC0139706017A
:105E3C0033147400B35553004183C18D13D3050142
:105E4C0033167600B3F7A70233049702C207B36781
:105E5C00F300268363FC8700B6971383F4FF63E794
:105E6C00D70063F587001383E4FFB697818F33D493
:105E7C00A702B3F7A7022285B30487021397050183
:105E8C00C20741835D8F637C970036971305F4FF3F
:105E9C006367D700637597001305E4FF3697058F8A
:105EAC004203C1643363A3009385F4FF3375B300DD
:105EBC001354060113530301F18DB307B502B30557
:105ECC00B30233058502330383022E9513D40701E5
:105EDC002A946373B400269341657D159355040190
:105EEC00698C4204E98F9A95A2976367B700631C8B
:105EFC00B70002456379F5003386C74033B5C70058
:105F0C00AA96B287958D8246B305B740B387F64003
:105F1C0033B7F600998DB392550033D5770033E53E
:105F2C00A200B3D5750099BB2A83AE82639206207A
:105F3C002A8737050320B2871305451363FEC50A6C
:105F4C00C1666374D60A9336061093C616008E0685
:105F5C00B353D6001E950345050093030002AA9681
:105F6C003385D340638BD300B395A200B356D300D3
:105F7C00B317A600D58D3317A30013D30701B3D3E2
:105F8C00650213960701418293560701B3F565022A
:105F9C001E85B3027602C205CD8E63FC5600BE96FA
:105FAC001385F3FF63E7F60063F556001385E3FFF3
:105FBC00BE96B3865640B3D5660242074183B3F60C
:105FCC0066023306B602C206558FAE86637BC700E7
:105FDC003E979386F5FF6366F7006374C70093865C
:105FEC00E5FF4205558D81458280B7030001C1460E
:105FFC00E36076F6E146A9BF814609CAC166637DB6
:10600C00D6089336061093C616008E06B355D600E6
:10601C002E9583450500AE96930500023385D54039
:10602C006393D5083386C240854513D30701B35318
:10603C00660293960701C1821355070133766602F7
:10604C00B38276024206498E1E85637C56003E96CC
:10605C001385F3FF6367F600637556001385E3FF42
:10606C003E9633065640B35266024207418333765E
:10607C006602B38656024206518F1686637BD700A2
:10608C003E971386F2FF6366F7006374D70013869E
:10609C00E2FF4205518D8280B7050001C146E367DE
:1060AC00B6F6E146A5B7B3D5D200B317A600B392A6
:1060BC00A200B356D30033E6560093D20701B3D3F4
:1060CC0055023317A300139507014181935606011E
:1060DC00B3F5550233037502C205CD8E9E8563FC64
:1060EC006600BE969385F3FF63E7F60063F56600E2
:1060FC009385E3FFBE96B386664033D356024206C1
:10610C004182B3F6560233056502C206558E9A8655
:10611C00637CA6003E969306F3FF6367F6006375F7
:10612C00A6009306E3FF3E96C205098ED58DF5BDFC
:10613C0063E8D514C16763FFF60213B70610134763
:10614C0017000E07B7070320B3D5E6009387471354
:10615C00AE9783C70700BA9713070002B305F74041
:10616C006311F702054563E056123336C30013453D
:10617C0016008280B70700014147E3E5F6FC614752
:10618C00D1B73397B600B356F600D98E611133D719
:10619C00F20022C213D4060126C0B3548702B39274
:1061AC00B200B357F300B3E757009392060193D2B2
:1061BC0002013316B60033778702B38392021315AC
:1061CC00070113D70701498F2685637C7700369723
:1061DC001385F4FF6367D700637577001385E4FFBD
:1061EC00369733077740B3538702C207C18333779F
:1061FC008702B38272024207D98F1E8763FC570055
:10620C00B6971387F3FF63E7D70063F5570013873F
:10621C00E3FFB69742054164598D9306F4FF33773B
:10622C00D500B3875740F18E935205014182B303D9
:10623C00D702B386D2023307C702B382C202330637
:10624C00D70013D7030132976373D700A2929356EA
:10625C000701969663E0D702639FD700C167FD17CD
:10626C007D8F4207B3F3F3003313B3001E978145C0
:10627C006374E3007D1581451244824421018280C0
:10628C008145014582808280732540F18142630300
:10629C00550025A897920000938202810563130391
:1062AC0003801693B7B3AAAA9383A3AA23A0720060
:1062BC009102E3CD62FE178100001301E17E85623D
:1062CC00938202801691EF10907109A07300501008
:1062DC00F5BF000023AA150280DDC4DD23A825022A
:1062EC0023AAB508032105030322C509832045030E
:1062FC00005D445D82808280B70503203705032052
:10630C005111938545231305452522C206C45144DA
:10631C00B9241165130595D081457D14EF40D02328
:10632C006DF8A240124401453101828018458E055A
:10633C00A167AA956366F7000A06B2958841828028
:10634C000606B29503D50500828018458E05A16717
:10635C00AA956366F7000A06B29594C18280060678
:10636C00B2952390D50082805111054606C47D3F1D
:10637C00A24005813101828018458E05A167AA953E
:10638C00636AF700DC4109C693E71700DCC1828021
:10639C00F99BEDBF83D7250011C693E71700239116
:1063AC00F5008280F99BE5BF93161600054671BF78
:1063BC00511106C4A1676360F502A147A1078D8343
:1063CC0085053385F540EFF0AFBBA240FD47338523
:1063DC00A740310182809147D5B7311122C626C41E
:1063EC0006C81C45AE842A843EC0BD3F8247216747
:1063FC00AA8563E5E70005476307E5063E854D3F43
:10640C0093172500A297984B3AC015E75844854638
:10641C00B396A600558F58C4A6860946A68584CB8C
:10642C0022852537A6860D46A68522853244C24094
:10643C00A244510119BF824509462285C53DAA8651
:10644C002AC20946A6852285093782460D46A685AD
:10645C002285E53D9245A6860D462285FD35824571
:10646C00A6860946D9B7C2403244A2445101828063
:10647C00311106C822C626C437070400914763634E
:10648C00E600A1471D8E13847500B2956198E199C1
:10649C00818D00C193D4350004C423260400A68545
:1064AC0026853937930755008A07138777000D83A4
:1064BC003AC07D5701466344E500138607FF8145CA
:1064CC0013050401EF60800F024622858145E93DEA
:1064DC0081462285014681458D3D228505468145B3
:1064EC00613D824782452285B387F4403E863EC299
:1064FC00653D824622850146B685813DA68522856D
:10650C0001465D359246A685228501463D3DA68510
:10651C00228505469535228532448245C240A244E7
:10652C00510165BD01458280B737032083A7C7DDC4
:10653C008287011102C289472302F100B79702201A
:10654C002E8693874753AA850A8506CE02C002C6BB
:10655C0002C83EC4EF50302AF2400561828013011C
:10656C00C1FD2EC80C0806C632CA36CC3ACE3ED077
:10657C002EC0C137B240130141028280211122C8C2
:10658C0006CA26C62A842EC032C436C2EF40F00694
:10659C002320A20012460245A245029403250200C4
:1065AC00EF40301A82806F20000C6F20E00C82804C
:1065BC00511106C422C22A84EF20805CB705032047
:1065CC002A86938585292285EF009043A2401244A8
:1065DC00014531018280411122C426C2B28706C610
:1065EC002A84C8430A86A94502C0EF00F07A824487
:1065FC0085EC635305000145A167938727A1B3057B
:10660C00F5021306803E8146B317F5021385753EDD
:10661C00B335B500BE95093AEF400074B240224440
:10662C002685924441018280B705032026869385F6
:10663C00852C2285EF0050458244CDB75D71A2C4F4
:10664C00A6C286C62ACCAE843284EF40D065130332
:10665C00803EB332A30221668146130626A1B30500
:10666C00B3023305A3029695EFF01F8C2ACE2ED0E1
:10667C008546639DD4002A866245AE86B705032005
:10668C009385452FEF00D037014525A85C40370591
:10669C00032013058530BE853E84EF5030731DC535
:1066AC0037050320A2851305C530EF50307219CD84
:1066BC006245B7050320228693858531EF00D03CD7
:1066CC006D55B64026449644616182807245825570
:1066DC0037662605130606C08146EFF0EFCB37F67A
:1066EC003600130606E881462A84AE84EFF0CFCA42
:1066FC003D66130606A681462AD62ED8EFF0CFC9E2
:10670C0037F636002AD22ED4130606E881462285A7
:10671C00A685EFF06F8E2ADC2EDA7245825537662D
:10672C002605130606C08146EFF00F8D2A84AE8431
:10673C001255A2551306803E8146EFF0EFC52AC8CC
:10674C002ECA1255A2551306803E8146EFF0CF8A11
:10675C002AC42EC63255C2553D66130606A681467E
:10676C00EFF08F892ADE2AC06257D2576245AEC03D
:10677C002EC2B70503202286A68693850533EF002B
:10678C00302819B737060320B7050320511113061B
:10679C00863C9385053D06C4EF009026A24001453A
:1067AC00310182809C416395A70085472382F500C7
:1067BC00828031112AC0379502208A851305057B0A
:1067CC0006C823020100EF40B014C240034541004B
:1067DC0051018280511106C422C22A84EF20E03C70
:1067EC00B70503202A86938545412285EF00502169
:1067FC00B7050320228593854543EF00702037A50C
:10680C000220A28513052582EF403014A2401244C9
:10681C00014531018280130181FC22D806DA26D68B
:10682C00832485082A842EC2EF30F03F8327020090
:10683C002A876302F40837160320130646BE09E7BD
:10684C0037070320130747441245B7050320A286D8
:10685C0093858544EF00D01A18545C548306E400E9
:10686C000346C4001245B705032093854545EF0048
:10687C0030196C00130600022285EF30303B2A865B
:10688C0034481245B705032093850548EF0050178F
:10689C002C002285EF30505B2A861DC11245B705AE
:1068AC00032093858549EF00B015D2504254B25461
:1068BC00130181038280370603201306064441B777
:1068CC00A2469307400612453387D440B307F7021C
:1068DC00B705032026869385854CB3D797023EC017
:1068EC00A687EF00F011D1B71301C1FB2AC871467E
:1068FC008145680886C022DE26DCEF50304C6946A4
:10690C00930500022808EF50704BC24537A50220B2
:10691C0013058597EF4070038564372403205008D6
:10692C0093850480130504ABEF301050D246938747
:10693C000480130740063386D7403307E6024245EE
:10694C00B705032032C236C03EC4130604AB8146E1
:10695C00938505522D833AC63808EF00700A86409D
:10696C007254E2540145130141048280011126CA7C
:10697C0006CE22CC03248508AA842EC60C08EF3040
:10698C00B04C11CD2A863245B70503209385854935
:10699C00EF001007F2406244D244056182802685E4
:1069AC00EF307028C24713064006AA86B305F440A0
:1069BC003386C5023356860209E5B7060320938653
:1069CC00464432452EC0B705032032C422C222876A
:1069DC0026869385C556EF00B0026DBF2E86B7058F
:1069EC00032051119385455D06C4EF007001A24050
:1069FC00054531018280311122C606C826C402C267
:106A0C0085472A84639CF502B7270320938707A840
:106A1C008447B70503209386440626869385C56173
:106A2C002285EF00E07D37A502201305859E814667
:106A3C002686A285EF105017014515A0B284C840D8
:106A4C005000C145EF00303B924699CED040B7057F
:106A5C00032022859385C55DEF0010031245C240CB
:106A6C003244A24451018280AA842AC0993302463E
:106A7C004DF1B7050320228593854560EF00D000CA
:106A8C002955F1BF79712AC0680006D622D426D2C6
:106A9C00EF30C03DE1473305F502B247370603201E
:106AAC0013060666A145AA9702453EC2EF00E073A5
:106ABC00324492476368F400B25022549254014518
:106ACC0045618280144081C683C7060099EBB707E5
:106ADC000320A2861386C766D1450808EF506015BF
:106AEC00140802453706032013064667A145F52D09
:106AFC002285EF30603931C9B70603209386C6640E
:106B0C000245370603201306C667A145F92D5C48DC
:106B1C009DCB84438DC898401DC702453706032082
:106B2C0013064668A145D12501479440B7020320BE
:106B3C00130317006360D7020245371603201306B0
:106B4C000653A1455D256104ADB7B70603209386B6
:106B5C0046657DB713172300269714430245138609
:106B6C008269A1451AC4512522431A877DBF211180
:106B7C0022C826C606CA32842AC048402EC24146C4
:106B8C008145EF50801192470947AA84636DF70045
:106B9C000245B70203209306000213868270A145BA
:106BAC00A9259440A1A0084429468145EF50E00E48
:106BBC001377F50F0245B7020320BA86138682704D
:106BCC00A1453AC41D2592478D462247639BD704A5
:106BDC00C1466306D70293060002E304D7FCA14624
:106BEC006314D70283C6040093F6F60F02453706EA
:106BFC00032013068673A145CD2B014531A883D6FE
:106C0C000400C206C182DDB7024537060320130615
:106C1C000672A145D92B2955D2404244B244610198
:106C2C0082804844414681453AC2EF500007AA860B
:106C3C002A840245370603201306C674A145752322
:106C4C001247C146630ED70093060002630FD700AC
:106C5C00A146E31BD7FA1374F40F2380840071BF91
:106C6C00420441802390840049BF80C079B7797178
:106C7C00B7370320054722D426D223A0E7DE06D659
:106C8C002AC22EC432C602C8EF10807DFD573EC00A
:106C9C0013040002FD54B2452245B70703201386A6
:106CAC00C779EF10F000FD57631CF500824763981D
:106CBC00A70AB70503209385457A1245F12391A0C5
:106CCC00930730076305F504930770076305F50612
:106CDC00930710066317F502B717032003A5C776B1
:106CEC001008C145EF00500BC2462AC0B71703204D
:106CFC00DDD203A6C776B70503209385057612452A
:106D0C0061232955B2502254925445618280B717A1
:106D1C00032003A5C77610088145EF00F007C24693
:106D2C00AA84B7170320A5DAB705032003A6C776F4
:106D3C0093854577E9B7B717032003A5C7761008E5
:106D4C008145EF007005C2462A84B7170320A1D6EF
:106D5C00B705032003A6C776938585784DB763974F
:106D6C00A400B70503209385457C81BF1374F40FF1
:106D7C0013573400D9CC82465C083E863303D74087
:106D8C00414593030002A14029A86303A404630BAB
:106D9C0074046318140683C506002380B700BA96E2
:106DAC00BA9763E6E400B305D300E370B5FEC147C0
:106DBC00A68663F39700C146824512453AC636C48F
:106DCC00D5218247A2463247C1073EC0958C5DB79C
:106DDC0083D50600C205C1812380B700A181A380A1
:106DEC00B70075BF8C4293D285002380B700A38077
:106DFC00570093D20501E18123815700A381B7008D
:106E0C0079BF12453706032013060672A145F12EF1
:106E1C00CDBD0145C5BD411122C426C23714032086
:106E2C0006C62AC083474479AE8485C991CB2244D7
:106E3C00B2409244B70503209385057E4101A9A178
:106E4C008547230AF4780245B71503209385C5813D
:106E5C00452E8547230AF47831A093C71700230ADF
:106E6C00F478F5F322440245B240A68592444101E0
:106E7C005DAB3717032083465779411106C622C4F0
:106E8C00E1476397F60083C60500C5476387F60A9A
:106E9C00938715002E96E14645436396C70883C732
:106EAC00F7FF83C6050037140320A30AF7789387EE
:106EBC0006FD93F7F70F2547637BF70093F7F6FD75
:106ECC009387F7FB93F7F70F1547636EF7000327CC
:106EDC00C475B717032093878775BA970507238066
:106EEC00D700232EE4740327C47589476314F70C69
:106EFC00371503204146814513058575EF40F05940
:106F0C003717032083278776232E04742380A7004A
:106F1C0085072324F7763717032083270776850701
:106F2C002320F77641A883C2F7FF6396D20083C271
:106F3C0007006384620085078DB73714032003268E
:106F4C000476B7150320938585842AC0552C0245F9
:106F5C008145D135B717032003C7677921EFB716E1
:106F6C00032003A6467683270476C16511459385D5
:106F7C0005F03703FF006343F50409C723A2C67667
:106F8C002320F47613F737002DE383A5467641666C
:106F9C00130606F09C419396870113D78701558FF2
:106FAC0093D68700F18E558FA207B706FF00F58F99
:106FBC00D98F9CC1B2402244410182801842F11702
:106FCC009313870193528701B3E2720093538700A6
:106FDC00B3F3B3002207B3E272003377670033E7F1
:106FEC00E20018C21106054779B71147B3E7E7026B
:106FFC000947639EE70083A6467603D706009317DE
:10700C0087002183D98FC207C1839CC265B70D4706
:10701C00E392E7FA03A64676B705FF0018429357AA
:10702C00070193160701ED8E93F7F70FD58FC16605
:10703C00938606F0758FD98F1CC2ADBFB71703208E
:10704C00238B0778B7170320311123AE0774B717BA
:10705C00032022C606C826C42AC22EC0328423A00E
:10706C00077602478547444063FDE704B7170320C2
:10707C009385478609462685EF40D034814709E53C
:10708C0083C72400B337F000BE94B715032009461C
:10709C00938585862685EF40F03219E985473717A9
:1070AC000320230BF77882471104FD173EC055BF10
:1070BC00B7170320938547862685EF50205121E191
:1070CC001104484001468145EF40303DB71703207D
:1070DC0023A4A776484001468145EF40103CB717E2
:1070EC00032023A2A7761245B7A502209385E5E7D6
:1070FC001D33C2403244A24401455101828003C772
:10710C0004009307D002E31EF7FA83C71400D5DB03
:10711C001245B715032026869385C586D52061B701
:10712C001C45238107061C45239F07041C45239EF1
:10713C00070482806F4000396F30000B11C9511168
:10714C0006C4EF407025A240420541813101828086
:10715C00014582806F300018311122C606C826C442
:10716C002A8408452EC036C258498947630AF7005D
:10717C003244C240A24485651305452851015DBFC8
:10718C00B284FD557D56130585317D371844832710
:10719C004728AD83858B91EB7C4B81EB83270728AC
:1071AC009583858B99C32285F92B92468245268639
:1071BC002285EF00C07B184483274728AD83858B3D
:1071CC0099EB7C4B89EB832707289583858B81C7AB
:1071DC002285EF0030014848A12C08443244C240BB
:1071EC00A244130585315101B5B7111136C81408E5
:1071FC0006C63ACA3ECC36C08537B2407101828091
:10720C00011132C836CA2E861408A14506C63ACCDE
:10721C003ECE36C09137B24005618280B71503204F
:10722C005111938505A306C422C22A84D13FB715F8
:10723C0003202285938505A7E137B7150320228506
:10724C00938505AD753FB71503202285938545B20F
:10725C00453F371603202285130606BC8145EF00F7
:10726C003011A2401244014531018280011132C813
:10727C0036CA2E8614088D4506C63ACC3ECE36C08C
:10728C00E13DB24005618280011132C836CA2E86BA
:10729C001408854506C63ACC3ECE36C0753DB24084
:1072AC0005618280311132C22E86B715032026C4A7
:1072BC00938585BDB68406C822C62AC09137B1C451
:1072CC0092470245B715032003C60700938505BEF8
:1072DC0005443D376372940492470245B715032069
:1072EC003387870003460700938505BE113F0504CD
:1072FC004147630AE4021377740069FF0245B7152E
:10730C000320938545BEED3DF1B70245B71503202B
:10731C00938585BEF53505440245B7150320938545
:10732C0085BEF93DE9B70245B71503209385C5BE67
:10733C00C13D95E00245B7150320938545BEC9357F
:10734C0005442287636B94000245B715032093858F
:10735C0045BE7D352DA00144014792473E9703461B
:10736C0007001307E005930606FE6374D7001306A7
:10737C00E0020245B7150320938505C3513505047A
:10738C004147630CE4001377740045FF0245B715C1
:10739C000320938545BEAD356DB732440245C240DE
:1073AC00A244B7150320938505BF510191BD31113E
:1073BC0006C822C626C4B1C1AA842E852EC2BD3BE6
:1073CC002AC0884493051027014613058531AD3337
:1073DC00824712472A8401C94154C2402285324453
:1073EC00A2445101828093861700514688446363FE
:1073FC00D60091E713058531B13B2954F9BFBA8505
:10740C003EC0EF404078984482472300F7048844FC
:10741C00130585318133D1B709C51C4503A5073345
:10742C008280295582801C45ECCB91E1D5B98280B4
:10743C00511122C206C418491C452A840C41104320
:10744C00484582971C4823A00700A24012443101F2
:10745C008280511122C2B2862A842E86AA8537A533
:10746C0002201305254906C4EF00B0791C4883C7D8
:10747C00470091C722851244A240310155BFA2405A
:10748C00124431018280DC45511122C226C006C44F
:10749C00984B8947AA842E846317F700A947631475
:1074AC00F5003545CD3718481C401843BA97238052
:1074BC00970018481C4385071CC31C4898435C4024
:1074CC006314F7002285AD37A24012448244014573
:1074DC00310182808346C5008357A500B69533E7FA
:1074EC00F50236960507B3C5F5022310E5003347C0
:1074FC00F60285052312B5003366F6020507231341
:10750C00E50005062311C50082805111AA8706C427
:10751C0022C22E8595E737070320B70703201307F0
:10752C00C7F9938747FC998F898363FDF500139501
:10753C0025002A970043A240228512443101828003
:10754C009C4799E30144C5BF370703201307070A7B
:10755C0063EFE700370703201307070A63F9E70017
:10756C009C43B285328482971C40F1F7E1BF370708
:10757C000320130747FC63E8E700370703201307D2
:10758C00070A63E9E7009C4351473305E50233845E
:10759C00A700D9BF0505CDBF834605001307D00250
:1075AC006396E600295718C201458280311126C422
:1075BC0022C606C832C02E864C00232202002A8422
:1075CC00EF40A06D0327420093062002824763150B
:1075DC00D7001307E0FD09A819E7124763058700D8
:1075EC000347070001C7295798C30145C2403244DD
:1075FC00A24451018280834605001307D002639791
:10760C00E600295718C2014581458280311126C4F4
:10761C0022C606C832C02E864C00232202002A84C1
:10762C00EF40E07703274200930620028247631560
:10763C00D7001307E0FD09A819E712476305870077
:10764C000347070009C7295798C301458145C24024
:10765C003244A24451018280011132C8100806C67E
:10766C0036CA3ACC3ECE32C0ED33B2400561828090
:10767C001C4583A707289583858B99C74849B7056F
:10768C0003209385C50FC9BF8280B715032093854E
:10769C000553D9B7511122C206C42A84EF40C04FFA
:1076AC000357C40593170501C183BA97014599C7C0
:1076BC000357E40333F5E70213351500A2401244D7
:1076CC0031018280930610046345B00085C5930692
:1076DC0020041C4583A707289583858B81CF13D65F
:1076EC00F541B18D48493386C540B71503209385C4
:1076FC00C5C29DB78280930630046345B00085C532
:10770C00930640041C4583A707289583858B81CF5E
:10771C0013D6F541B18D48493386C540B7150320C2
:10772C009385C5C215BF8280311122C606C826C4F6
:10773C0004452A8403D6C40583D5E4051385440384
:10774C00513B83D7840308443EC083D7A4033EC275
:10775C00913719C14848153F82471247639DE7008E
:10776C0083D5440383D7640322853244C240A244A8
:10777C009D8D510149B783D5A40303D7840322857A
:10778C00998D8937F1BF511106C422C22A8408454C
:10779C000356C5058355E50513054503253B1C44D8
:1077AC008545228583D747039D8DB1371C4422859F
:1077BC0083D58703FD15393722851244A240310148
:1077CC0045BD211122C806CA26C604452A84138544
:1077DC002406EF40603C83C6040413170501418363
:1077EC0081471044370303208354E603958C63C10F
:1077FC00E402635FE00448484244D240B2449387B9
:10780C002706B71503203E96938545C36101A9B59C
:10781C00BE94269683422606230106061044484849
:10782C00938727063E969305C33236C43AC216C0D8
:10783C0025351C448242A246A697238157061C4438
:10784C00124783D7E703958F1D8F8146A68751BFBB
:10785C00D2404244B24461018280130141FD22D2E4
:10786C0026D006D42A842EC232C0814482478DE3AE
:10787C00A250125482541301C102828083A746285D
:10788C008583858BE5DFF55513854628EF30F0446D
:10789C004840124702461C41B30597003400DC47B0
:1078AC008297A2470247BE941D8F3AC0E1F314445D
:1078BC000D47DC4AE38EE7FC0947E361F7FC93864E
:1078CC00862B014685456800EF3050687D56FD5685
:1078DC0085456800EF30D06908441305852BEF30DF
:1078EC0070777DB721472E86636CB7021C45F44335
:1078FC006388B602ECC31C4583A707289583858B48
:10790C006389E50091CF4849B7150320938585C35A
:10791C00A1B399C74849B7050320938545102DBBE2
:10792C008280511122C226C006C4AE848C412A84A6
:10793C00553FD0409D4763E7C7021C44B8476303DB
:10794C00E602B0C71C4483A707289583858B99CB87
:10795C0048481244A2408244B7150320938545C47D
:10796C003101DDB9A24012448244310182801111EF
:10797C0022CA26C806CCAE840C4532C036C283A7B8
:10798C0005282A849183858B95CBFC4163889702CB
:10799C002146938545042800EF40F040A6852285BA
:1079AC009137124682454848EFF0BFAA2C00228539
:1079BC008D3FE2405244C244710182804848524497
:1079CC0012468245E240C24471016FF09FA811112A
:1079DC0036C8140806C63ACA3ECC36C0493FB24037
:1079EC0071018280511122C206C41445371603203E
:1079FC00130646C389452A84D93F1C4483A707280C
:107A0C008583858B81CB22856D3B22851244A240D8
:107A1C00310119BBA240124431018280011132C8DC
:107A2C00100806C636CA3ACC3ECE32C0EFF07FA262
:107A3C00B24005618280B715032093850553F9BFC9
:107A4C00011106CE22CC26CA2EC032C2638D05107F
:107A5C002A8481441306000291468247338797009B
:107A6C00034707006303C7065D1763F0E60641672B
:107A7C009307F7FF3EC40245EF400012A24718449B
:107A8C0001467D8D0353E7039247058D3307F34081
:107A9C008247B38597006374A708130500029142CF
:107AAC00A943B386C50083C606006388A6009380ED
:107ABC0076FF63E512006387760632879247B386BA
:107ACC00C70063F066060506E9BF850479B70506AD
:107ADC00630CC502B386C50083C60600E399E6FEB7
:107AEC0048482EC632C4EFF0BF94B24522462285D8
:107AFC00AD332246484893871400B304F600253F63
:107B0C0092452285EFF03FBF82474848B3859700E6
:107B1C00313748486244F240D244056129BF2947B5
:107B2C0045BF3A8648482EC832C6EFF07F903246A1
:107B3C00C24522851D33324693060002B29411468B
:107B4C00824733879700034707006305D7005D170B
:107B5C006364E6008504EDB74848F13D9245228503
:107B6C00EFF07FB909BFF2406244D24405618280D4
:107B7C00797122D426D22EC406D62AC0B28481456D
:107B8C00014422459387150010083EC2EFF0FF9781
:107B9C001DE50DC089C402452686A1450D3D8145D4
:107BAC00B704032022459387150010083EC6EFF05A
:107BBC00DF951DE5B25022549254456182800841F4
:107BCC00814711C5EF30507D93170501C183228782
:107BDC006373F4003E87131407019245418055B737
:107BEC001C418DC703C7070015C358410245371602
:107BFC0003203AC29386840A2287130606C5A14540
:107C0C00F933924791E78247C84B3535B24559BF96
:107C1C000245371603209386840A130686C5A145B0
:107C2C007D33130664009245024542064182093DAC
:107C3C00F1BF014582801C4D014523A007008280C5
:107C4C00011132C8100806C636CA3ACC3ECE32C034
:107C5C00EFF03F80B24005618280511122C206C410
:107C6C001C452A8483A707289583858B99C7484987
:107C7C00B705032093854511E1371C441307000514
:107C8C000145239FE7021C446147239EE702A24063
:107C9C00124431018280511106C41C4DB7150320CA
:107CAC00938505C69043EFF0AFD5A2400145310155
:107CBC008280B71503203111938505C722C626C4CF
:107CCC0006C82AC0EFF0CFD337040320B707032030
:107CDC001304C4F901469384C7F963689400C24045
:107CEC003244A244014551018280130316001850FE
:107CFC00144402454203B715032013530301938523
:107D0C0085C81AC2EFF0CFCF12431304C4021A86EF
:107D1C00E9B7511106C40C41EFF06FE9A2400145DF
:107D2C0031018280B705032051119385454C06C45F
:107D3C00EFF0EFE7A240014531018280411122C4EE
:107D4C0026C206C6AA8401449044C8449306210066
:107D5C001306261685455D2E03572100944409CF42
:107D6C00B71703202286938626169385C7C92685C6
:107D7C00EFF00FC90504C9BF23810616B240224497
:107D8C009244014541018280511106C422C22A84C9
:107D9C00EFF08FE8B71503202A86938585CA2285D4
:107DAC00EFF00FC6A24012440145310182805111FF
:107DBC0006C489476392F50258421042B716032055
:107DCC00B7150320938646CB9385C5CCEFF0CFCB6C
:107DDC002955A240310182801C452A8783A7072898
:107DEC008583858B91CF371603201306C6CAB7152A
:107DFC0003203A85938585CDEFF08FC00145D1BF27
:107E0C0037160320130606CBDDB7511122C206C468
:107E1C001C452A8483A707289583858B99C74849D5
:107E2C00B70503209385C511213D1C4483A7072862
:107E3C009583858B99C74848B705032093854512D0
:107E4C000135A2401244014531018280211106CA3C
:107E5C0022C826C685476384F50258421042B716DD
:107E6C000320B7150320938646CB9385C5CCEFF042
:107E7C00AFC12955D2404244B244610182801C45B5
:107E8C002A8483A707289583858B99C74849B7050A
:107E9C0003209385C5126D33930560F02285EFF0B6
:107EAC007F829305A00F2285EFF0FF840844130610
:107EBC000010814513052516A3030100EF40007047
:107ECC004848B70503209385C50A9D3B4848814423
:107EDC00EFF00FD61307803E4840340005461C4196
:107EEC00930571003AC09C4B8297A2470247A1EBC5
:107EFC001305803EEF10D07402477D174207418373
:107F0C0061FF1C4483A707289583858B99C7484834
:107F1C00B70503209385051325331C44130700056F
:107F2C00B7150320239FE7021C4461472285239E3B
:107F3C00E7029385C5CEEFF06FB3615525BF83463D
:107F4C0071006D461C446384C60E83C52716E395E9
:107F5C00C5F813062005639CC60CA697238107164B
:107F6C0010449307B005034736166316F7089306BB
:107F7C004616014789479305B003294513030010A2
:107F8C0083C20600BE838507C207C1836398B2060D
:107F9C009306F00FE387D3F6B305F6008146294527
:107FAC001303001083C225166395020623010616DF
:107FBC009305A00F1044B68763F4D5009307A00F68
:107FCC00231FF6021306A00F1444BA876374E6004D
:107FDC009307A00F239EF6021C4483A707289583C2
:107FEC00858B81CB4848B705032093850513EFF0AB
:107FFC003FC5014541B52301061621B73307A7023A
:10800C008506130707FD169742074183E39A67F627
:10801C00CDBDB386A6028507C207C18385059386AD
:10802C0006FD9696C206C182E39E67F6D9BDA69759
:10803C008504C2042381D716C180A547E3FE97E8C7
:10804C001C442381071675BD511106C40845130540
:10805C0005289305F0FDEF304048A2400145310161
:10806C008280511106C4084513050528A145EF303F
:10807C006045A240014531018280511106C408457A
:10808C0013050528BD55EF304045A240014531018F
:10809C008280511106C4084513050528DD55EF30C3
:1080AC00C043A240014531018280511106C40845EC
:1080BC0013050528F555EF304042A240014531012A
:1080CC008280511106C4084513050528C145EF30BF
:1080DC00603FA240014531018280511106C4084520
:1080EC001305052893050002EF30C03DA240014561
:1080FC0031018280511106C40845130505288945B4
:10810C00EF30403CA240014531018280511126C024
:10811C0006C422C2404113074500B684631AE4002A
:10812C00239004000145A240124482443101828014
:10813C005845B2879DE96DD76315E40023260500E9
:10814C00C5B7404340C569DC035684003E859305A2
:10815C00C400EF40404503578400B307E50023906B
:10816C00E4002380070005457DBF69DF1445E387E4
:10817C00E6FC0043C1BF3715032051111305C54C54
:10818C0006C4EFE0CFBDA2403715032013054550C0
:10819C0031016FE0CFBC130505058280511122C25D
:1081AC0026C02E8406C4AA84B285F3272034F32774
:1081BC00303422853924A2852685EF10704F511159
:1081CC00014606C4E13F5111AA85014506C4C53FCD
:1081DC00511106C4F327203481450545CD37511183
:1081EC0006C4EF10D065EF1050700111130606FB9A
:1081FC0022CC26CA06CE137406FF5CDC8257AA84F6
:10820C0074C01CDC8967938707885CC0B797022011
:10821C00938787587CC438C08A851305C40051469F
:10822C0002C002C202C402C602C8EF40C037B78700
:10823C000220232404049387E76D80D8DCD823AA7A
:10824C009408F2406244D24405618280411126C2F6
:10825C001307000093048000BA9422C43384954021
:10826C00B70503202AC0130600009385050A228552
:10827C0006C6EF404033130700003305E400130635
:10828C0080008145EF4080338247268523AE8708E6
:10829C00B2402244924441018280937735002A8770
:1082AC0089EF83A745080145636AF70083A6850813
:1082BC00B697C19B3335F700828001458280054516
:1082CC008280130181FD06D222D026CE2AC22EC472
:1082DC0032C636C03AC8A9C23685753D0247AA8750
:1082EC007847BE84014401430246B245C2473ACCAA
:1082FC001ACA2685829725C952436247637593062D
:10830C00B78702201386C778637CC7029850138600
:10831C0044002683B284C9BF3E8791CBB727032084
:10832C00938707A89C47938707036318F70037B711
:10833C0002208A871307E72C6DB71C43584355B7A7
:10834C0037F602201306065FE372C7FC22459247FC
:10835C002686BA85829701C90504A14598501386D3
:10836C004400E318B4FA92500254F244130181020F
:10837C008280937635002A8795E691C5B72703202E
:10838C0083A707A899CFB7270320938707AB01458D
:10839C00636BF700856693860680B6973335F700D6
:1083AC008280E5BD0145828011E6B72703209387C3
:1083BC0007A8904737B70220930706031307672ACD
:1083CC0009B741113726032006C6130606A8104626
:1083DC00AA8637B7022037B50220AE871307E737D6
:1083EC008A851305A52C02C0E93DB240410182806B
:1083FC00511106C4DC498C4D8297A24001453101D4
:10840C008280130181FD02C2894732872302F10069
:10841C00B7B702202ACA2ECC9387C73F0A85368667
:10842C00BA8506D202C002C602C83EC4EF30B03CC8
:10843C009250130181028280B7350320938595E019
:10844C00E19937060420372503205111130505A5A2
:10845C000D8E06C4EFE0CF81A24001453101828030
:10846C00511106C4452A3707032085471307474C8B
:10847C001CC158C9373703202322F7DE37370320B6
:10848C005CC1232405002326050023280500232096
:10849C00F7DEB7170320A24023AA0776B7170320ED
:1084AC0023A80776B717032023A60776310182800D
:1084BC00211122C826C606CA2AC22E8432C0992A85
:1084CC005845AA8409E7584983460700CDE6D840A9
:1084DC00924723A6040093162700A2969442634F5A
:1084EC00F700370703201307474CD8C82685CD283B
:1084FC007D55D2404244B2446101828013861600FD
:10850C00D0C803C606009305D002E31CB6FC9385C5
:10851C002600CCC883C516008CC46398C50083C6DE
:10852C0026009DE20507D8C06DBF32C491ED02450F
:10853C00370703201307474CD8C89305D002EF30F8
:10854C00C066224645D590C48C4402452EC4EF30FB
:10855C00C065A2451307A003D4486383E5001DE161
:10856C0003C7060001E7D8400507D8C026858D282B
:10857C001305F003BDBF9306170054C9034707004A
:10858C0018C5D9B783451500638EE50023A80400F0
:10859C0003C7060001E7D8400507D8C02685892007
:1085AC00884481BF03C5060037060320D840130654
:1085BC00464C09E992470507D8C06358F7000A07EB
:1085CC003A94144094C8D0C8F9B78247D0C82685CD
:1085DC0003C70700E31DB7F821201305A00311BF43
:1085EC001841B737032023A2E7DE5841B7370320E1
:1085FC0023A0E7DE1845B717032023AAE7765845D2
:10860C00B717032023A8E7761849B717032023A62A
:10861C00E776828037350320130505CB8280B73788
:10862C0003203727A10723A4E7DE014582805111DF
:10863C0006C4EFD0DFF70F00F00FA14773A007308F
:10864C0073005010A24031018280F327007C370761
:10865C0083AF7917F98F37077D500507D98F739042
:10866C00077C01458280B71700F00A053E951C4136
:10867C0093E707101CC182808D47014763E5B70063
:10868C009A051387F503B71700F00A053E951C41B0
:10869C006207A207A183D98F1CC182805C4101456E
:1086AC00DC43DC479CC182805C416D8E0145D84324
:1086BC009347F6FFED8F50C31CC782805C41014588
:1086CC00DC43CCC382805C410145DC438CC7828097
:1086DC005C410145D8431C43AD8FB3F6F50093C7FD
:1086EC00F7FFFD8D54C30CC782801C49D84321C3AE
:1086FC00631CB70298419447D8C36393D50098C7BD
:10870C0023A0050019C6D84398C19847CCC311E3E0
:10871C008CC7014582806399E500984198C29847BF
:10872C00E390E5FE94C7E9BFBA8618436DF761FE86
:10873C0029558280130181FD06D222D026CE2E87A8
:10874C004C419377F70103C4C50016045D8C9C491A
:10875C00EDC713850501B70720002AC06317F60083
:10876C00A285EF10403A8147D1A002C6B70740005E
:10877C00631AF6083705000295476393A6009147E4
:10878C0002C802CC8C453EC43C00B3D5E5003ECAC1
:10879C008589A9E9B70740016316F6049377F401BC
:1087AC0093565400094793870702636BD708371712
:1087BC0003208A0613074753369718438A07BA973C
:1087CC009C43858B85E3024513067100A285EF104F
:1087DC008009B704AD0B938744006301F50493073C
:1087EC0071003EC602451008A285EF00F03C370729
:1087FC00AD0BA957631CE50202450546A285EF1097
:10880C00601C95B7370500068D47E38BA6F6370538
:10881C0000028547E396A6F689479DB70245930566
:10882C007100EF104018D157E30B95FA9250025497
:10883C00F2443E851301810282809307A0F7FDB7B5
:10884C008A079C4302901301C1FC26D406D822D679
:10885C0040412E831377F3018345C400B2849605FF
:10886C00D98D137706010D4601E713D65400058AFE
:10887C0032C813F7643093066010630BD70A63E8B1
:10888C00E60299466308D70A63EDE60015CF8946E0
:10889C00630CD7022955C2503254A2541301410320
:1088AC00828093060010E317D7FE054731A8930684
:1088BC0020206303D708930600306301D708930682
:1088CC000020E319D7FC1147370508008546658D54
:1088DC00B396660035C5484054C11448ADEA93F6CA
:1088EC00F50113D55500894563E2A510B715032092
:1088FC000A0593854553AA958C418A0693D7140192
:10890C00B69593D6040193C61600858A03A505086F
:10891C008606858BD58FFD769386060FE98ED58FCF
:10892C000A06D18F22075D8F23A0E5080145A5B764
:10893C00254759BF214749BF194779B7154769B72B
:10894C0037050400658D51D9484014C579B74104E9
:10895C001306F10022853AC42EC2EF00D070B70680
:10896C0003002AC0E58E9245224799EE2285EF102E
:10897C0060010247B707AD0BE31AF7FA8345F10024
:10898C002285EF1060005DB75408700822853AC448
:10899C0036D02EC202CA02CC02CE02D2EF00D021B7
:1089AC00B706AD0B92452247E316D5EEB70602008B
:1089BC00E58E85C693D7040193C71700858B3ED0EF
:1089CC00C2478146700822853ACE3ED2EF00B04AAB
:1089DC00B707AD0BE30FF5F875BD1C0870082285C1
:1089EC0002D002D23ECEEF00301DDDB793860602D8
:1089FC008A069C420290511106C422C240411C4876
:108A0C00B9C341042285EF00107615ED814522850E
:108A1C00EF00D06A3707AD0BED576317E502B7C50A
:108A2C00022001469385E5A52285EF007061014681
:108A3C0085451305A00DEFD05FB70146854513059D
:108A4C00C010EFD09FB68147A24012443E85310141
:108A5C008280411106C622C426C29357550009478D
:108A6C00638BE70005476382E704A9C7B240224441
:108A7C0092444101828037F40220130404661C489E
:108A8C00CC43EDD584418547B397A700E5D19045FC
:108A9C007D8E11C6D84122853EC002978247014780
:108AAC0091C09840A685BA84D5B737F40220130438
:108ABC008464F1B737F4022013040463C9B71111AD
:108ACC009307B100E19B3E8522CA26C83EC006CC66
:108ADC00AE843284EF10E01082479843DC4363E6A7
:108AEC0087046314F40063629704B716032003A78A
:108AFC00867403A6C674E2403385E440B3B4A40084
:108B0C00118C058C937705FE3E97229615816E0489
:108B1C00B337F700418D5244C244B29723A4E67494
:108B2C0023A6F67471016F201007E2405244C24430
:108B3C00710182805111014685451305200E06C432
:108B4C0022C2EFD09FA60145EF10A00F3707AD0B47
:108B5C00FD576312E5022A8437350320130505CD32
:108B6C00EF10400DD15763188500B71703206147EC
:108B7C0023ACE7768147A24012443E8531018280C6
:108B8C00211122C81304710006CA26C66198F37419
:108B9C0004302285EF10E0040840A18873A0043053
:108BAC00D2404244B24461018280211122C8130494
:108BBC0071006198228506CAEF10A002B716032037
:108BCC00184003A586745C4083A6C6743305A74081
:108BDC00D24042443337A700958F998FEE07158109
:108BEC005D8D61018280211126C606CA9304710035
:108BFC0022C8FD57E198630BF5062A8463530500E0
:108C0C0001442685EF00F07DB71703208C4003A7A5
:108C1C00877483A6C774D040B387E540B3B5F5001D
:108C2C00158E0D8E9355F4411355B401960516040B
:108C3C00C98D3E94B337F4002E96B29789E713068C
:108C4C00F003637986020198B30587004244D24051
:108C5C00B2443386F60033B7E5003735032085463A
:108C6C003A96130585CC61016F10200737040080FC
:108C7C007D1441BF130400028147F9B702853111FD
:108C8C0026C406C822C6AA84AE878C403EC295CDA7
:108C9C002E852EC07D44EFC0BFAE098C1374F40F2B
:108CAC0005468245331686001346F6FF6D8E2685E3
:108CBC00EF20A07F924771D9238087003705AD0B39
:108CCC00C2403244A244510182803705AD0B0905E4
:108CDC00C5BF1C41B3D7B700858B9DE7511126C08A
:108CEC00854422C206C42A84B394B4000C4033E6F3
:108CFC0095002285EF20607B75D9A24012448244F6
:108D0C003705AD0B310182803705AD0B1105828023
:108D1C00B7170320135755009387075DBA9783C77E
:108D2C0007007D893E951375F50F8280411122C491
:108D3C002A842E8526C206C62EC0B284D13F930744
:108D4C0085008607A29783D7070093F6071091CA70
:108D5C00998393F78707A2979443D0430245A6853E
:108D6C0082961C4489CB504422440245B240A685CD
:108D7C00924441018287B240224492444101828054
:108D8C004111370703202EC01307870F5000AA8705
:108D9C009305C5008346070013D5360041050A9597
:108DAC00034505FF9D8A3355D500058909E99107CF
:108DBC0005071106E390B7FE0145410182800F00C3
:108DCC00A00AB7A6105036C2B7860D50938606205F
:108DDC0036C4B70605509386064036C6144203A324
:108DEC00060223A0670023A066020F00F00F944335
:108DFC00DDDEE1B7511122C22A842E8506C4093F5B
:108E0C00834744001306600337370320B387C70238
:108E1C00930647CDAA97A1078607BE9683D706006F
:108E2C0013F607102DCA79761306F60F93D5970013
:108E3C00F18F2390F600034644009307C0061307F6
:108E4C0047CDB307F602BD89014513033002BA972B
:108E5C0083D6070193F2061063860200A582BD8AB1
:108E6C00638BD50205058907E31465FE9306C006DE
:108E7C003306D60293973500B297BA9723A0070012
:108E8C00034544001244A2403305D50231011305B9
:108E9C0005063A953DBDA2401244310182803971DC
:108EAC0026DA06DE22DC03274530B70702002EC087
:108EBC001377F70FAA845D8FAC4D0F00A00A014405
:108ECC0001460545639FC50A83A7441489CB938744
:108EDC00441423A007009C43B70702005D8C0F00CD
:108EEC005005B7070200E18FD1C78247281002D482
:108EFC00EC5302D602D86935B70703209387870F46
:108F0C003ECA3C103EC402C2524792478246BA97B0
:108F1C0003C7070093573700B69783C747061D8BC7
:108F2C00B3D7E700858B639D0718924785073EC230
:108F3C00A247124791073EC48D47E317F7FC8247BF
:108F4C00B04F0F00A00A8146C545631FD61C83A7EE
:108F5C00441491C79387441423A007009C430F002B
:108F6C00500582472810EC53EFF09FE159F98177B7
:108F7C00FD177D8C631B041CF2506254D25421618A
:108F8C0082809377F60F8A07938607108983B3172D
:108F9C00F5003373F700630B0300A69603A30600DA
:108FAC006306030023A0060094425D8C050619BFDE
:108FBC00EFC0DF809246B70703209387870FB697E1
:108FCC0083C507002AC89605C98D2E852EC6EFF0DD
:108FDC003FD40247930785008607BA97424783D64A
:108FEC000700A247135637001D8B3E968547B39753
:108FFC00E7000347060093C7F7FFF98F2300F6003D
:10900C000F00F00FB245894393D755003EC813F7B4
:10901C00F50163ECF31613D52600B710032093D695
:10902C005500939226009387405C969794431303C4
:10903C0007020A0336938327030013767500C18356
:10904C008D8B0F00A00A9380405C118906C635CD2C
:10905C0002451AD23ED036CE3ACCEFF03FCD0F00BF
:10906C00F00F1253032603000F00A00A825741820F
:10907C000D8A6247F246639AC7020F00A00A1316C4
:10908C002700B296938606088C423706FDFF7D16A4
:10909C00F18D8CC20F00F00F0F00A00A8C42C2079A
:1090AC006D8ED18F9CC20F00F00FC247B2468A075B
:1090BC00B69794438547B397E7009CD20F005005B1
:1090CC00A2478843E31605EE8DB58D466383770082
:1090DC0089460F00A00A324513132700C206AA9234
:1090EC0003A50200B702FDFFFD121A950323050824
:1090FC0033735300B3E666002320D5080F00F00F3E
:10910C000D456308A6008946639BD7008547E31E7F
:10911C00F6F802453ACCEFF07FC1624779B7E39697
:10912C00A7F8E314D6F8F5B793F7F60F8A07138769
:10913C00071089836399B700B387E400984301C78C
:10914C0023A007009C43850609B52285EFC00FE7D5
:10915C008547B397A70093C7F7FF7D8C0F00F00FDF
:10916C000A052695832505510F00A00A0F00F00F64
:10917C00032605510F00A00A0245418291810D8AF8
:10918C0093F5F51FEFF09FBAF5B3130707020A0723
:10919C001C430290511122C22A842E8506C4EFF082
:1091AC003FB7130760033304E402B73703209387F8
:1091BC0047CDA2402A9421040604A29703D50700A8
:1091CC001244358131018280511122C22A842E85AC
:1091DC0006C4EFF0FFB3130760033304E402B737A0
:1091EC000320938747CDA2402A9421040604A2971A
:1091FC0003D5070012440581058931018280511184
:10920C0022C22A842E8506C4EFF09FB01307600398
:10921C003304E402B7370320938747CDA2402A9446
:10922C0021040604A29703D5070012441581058971
:10923C0031018280411122C426C206C683474500F3
:10924C00AA842E843E853EC05D3F1DCD0245A2857D
:10925C00A53F1DE90245A285353F98408547B39748
:10926C00A7002324F7300F0050059C400A05AA974D
:10927C0003A70751719B23A8E7500F005005B2407C
:10928C0022449244410182800F00A00A094793773F
:10929C00F401158063668702371703200A0413074D
:1092AC00475C229718438A07B706FDFFBA9703A7B6
:1092BC000708FD16758F23A0E7080F00F00FC1B744
:1092CC00938707028A079C430290111122CA2A84B1
:1092DC002E8526C806CCAE84EFF09FA383474400AE
:1092EC001306600337370320B387C702930647CDB5
:1092FC00130747CD2AC23AC4AA97A1078607B69787
:10930C0083D70700858BC5C3A68522852537834760
:10931C004400A6853E853EC0DD3505C11C40024596
:10932C00A6853EC6EFF01FE7B2470A05AA9723A809
:10933C00075023A807500F005005A6852285EFF093
:10934C007FAB83474400130760038946B387E7026A
:10935C001247BA972247A1078607BA9723900700AE
:10936C0093D7540013F7F40163E3F604B716032004
:10937C009386465C8A07B6979C430A07B7F6FCFFB0
:10938C003E97832707089386060FF58F93E72700F0
:10939C002320F7080F0050053705AD0BE24052446F
:1093AC00C244710182803705AD0B1105C5BF13078F
:1093BC0007020A071C4302901301C1FD26CC2AC4E4
:1093CC00B2842E8522CE2EC206D0EFF07F94804040
:1093DC002AC09245A24745C803C747003EC62EC4C3
:1093EC003A853AC2EFF05FDEA245B24705C112459D
:1093FC00EFF0FFE0A245B24711C93705AD0B1105DF
:10940C0082507244E24413014102828013D655000B
:10941C00894613F7F50163E0C61EB71603200A064A
:10942C009386465CB29694420A07BA9603A606083F
:10943C001840419A0A07518F23A0E6080F005005E7
:10944C0003C747001306600302453307C702B7364C
:10945C000320938646CD2A97210706073697035596
:10946C00070075992310A70003C747003307C702ED
:10947C000246329721070607BA9603D706001367F0
:10948C0017002390E600D8403DC7832247000043D5
:10949C0003C7470016C83EC63A852EC43AC2EFF041
:1094AC00BFD21247A245B247C24239C9E39702F470
:1094BC0003C747001306600302453307C702B736DC
:1094CC000320938646CD0A042A9721070607369770
:1094DC00035507000D992310A70003C74700330756
:1094EC00C7020246329721070607BA9603D7060031
:1094FC00418F2390E600984461E33705AD0B09B723
:10950C001303600333076702B7360320938346CDFA
:10951C00824609651306F5FD3697210706071E9747
:10952C0083560700F18E2310D700E38302F80D4712
:10953C00E36587ECD84058430346070098439312E1
:10954C002600169701E823280750232807500F0000
:10955C005005B9BF83260751F19A2328D7500F0025
:10956C00500594434115969693860650984AB7E257
:10957C00FCFFBD023377570098CA83A206011397EC
:10958C004500698F13150401498F3367570098CA3A
:10959C000F00500503C747008246360633076702A3
:1095AC00369721070607BA9303D70300518F136729
:1095BC0007022390E300EDBD004358433E853EC4B3
:1095CC003AC2EFF03F8315D8A2471306C006B73452
:1095DC00032003C54700138744CD938444CD330641
:1095EC00C50232971043631DC400584392466399D9
:1095FC00E60001470DA8130707020A071C43029057
:10960C001307C0063305E502930571013EC413052B
:10961C0005062695EFF0AFE63707AD0BA247E31131
:10962C00E5DE0347710103C647001305C006931519
:10963C0037003306A6022E96269600C283C6470034
:10964C00B386A602B6959246A695D4C183C74700A9
:10965C0093066003B387D7028246B697A1078607A5
:10966C00A6979316970003D70700558F136707101B
:10967C002390E70059B5111126C8AA842E8532C64D
:10968C0006CC22CA2EC036C4EFF08FE832462AC26E
:10969C0069CA03C4440082452285EFF0FFB232460A
:1096AC0019ED82452285EFF09FB5324609C9370581
:1096BC00AD0B1105E2405244C24471018280930506
:1096CC0060033304B4021247B7360320938746CDA8
:1096DC00938646CD3A9421040604A29783D70700BB
:1096EC0089839D8B89C74C428547E382F5FC0247F1
:1096FC008247894513555700FD8B63EEA512B715AC
:10970C0003200A059385455CAA958C418A0703239F
:10971C008600BE955C4203A505080A038607104225
:10972C00B3E767007D731303030F33756500C98FAF
:10973C002206D18F93E7170023A0F5080F005005E0
:10974C0083C74400130660031247B387C702BA9756
:10975C00A1078607BE9683D7060093E737002390B0
:10976C00F600A24781E73705AD0BA9B7824503C5C3
:10977C004400EFF07FA505DDA24703C407009C4021
:10978C0093122400969723A8075023A807500F0084
:10979C00500583C74400130360031247B387670265
:1097AC0037360320130646CD09659305F5FDBA97A8
:1097BC00A1078607B29783D60700ED8E2390D700BA
:1097CC00A247CC43CDD194409C47B7E3ECFF96968F
:1097DC009386065083A20601BD030247B3F27200C2
:1097EC00C205B7030300B3F57500D207B703100029
:1097FC0023A85600B3F7770083A20601CD8F41153D
:10980C00931547006D8DC98FB3E757009CCA0F00A5
:10981C00500583C7440012473604B3876702BA97D2
:10982C00A10786073E9683570600C18F93E7070270
:10983C002310F6000DBF938707028A079C43029002
:10984C00034745009306C006B73703203307D702FA
:10985C00938747CD3E970CC7034745003307D70284
:10986C00BA97D0C78280411126C206C622C40344CF
:10987C0045002EC0B2842285EFF07F9805CD0245BD
:10988C00EFF00FC9130760033304E402B73703206A
:10989C00938747CD2A9421040604A29783D7070007
:1098AC003705AD0BB5832380F400B24022449244BB
:1098BC00410182803705AD0B1105C5BF211122C8AE
:1098CC0006CA26C6834445009307C00637340320D6
:1098DC00B387F402930644CD2AC4BE96B85636C25A
:1098EC003AC035EFC107130444CD1306600481451B
:1098FC003305F400EF20904C224392460247032597
:10990C000300B04EC545631DE6029307451423A022
:10991C0007009C4331811375F51FEFC0DFC80F00A2
:10992C0050059307C006B384F40285473705AD0B89
:10993C0026943CD43CD0D2404244B2446101828053
:10994C009377F70F8A079386071089836397B7007D
:10995C00B387A60023A007009C4305076DB7370506
:10996C00AD0B3105C9BF034745009306C006B73799
:10997C0003203307D702938747CDBA97A8573335BF
:10998C00A00082806FF07F94834745001307C006C8
:10999C0037350320B387E702130545CD9387C705F9
:1099AC003E956FF00FB3834745001307C00637355C
:1099BC000320B387E702130545CD9387C7053E9572
:1099CC006FF0EFAB311126C406C822C61841AA8429
:1099DC0032C00F00F00F032747300F00A00AB70664
:1099EC000200758F11E718412322D7300F00500564
:1099FC0003C444002EC22285EFF07F80924529CD0E
:109A0C002285EFF06FFC924521E92285EFF08FF86B
:109A1C0098409316250013860610329723200700D2
:109A2C0018430F005005984036978326075193E64C
:109A3C0016002328D7500F005005824789CB984039
:109A4C008547B397A7002322F7300F005005C2407B
:109A5C003244A244510182802E852EC0EFF04FABD0
:109A6C00130760033304E402B7370320938747CD11
:109A7C008245B71603209386465C13F7F501958152
:109A8C00139625002A9421040604A29783D7070075
:109A9C00114589839D8B6388A70415456380A706B0
:109AAC000F00A00A894763EDB704B387C6009C4337
:109ABC00DC470F00A00AB3D7E700858B89070F009E
:109ACC00A00AB296131627009842C2073297832633
:109ADC0007083706FDFF7D16F18ED58F2320F7087A
:109AEC000F00F00FADB78D470F00A00A0945E37AC0
:109AFC00B5FC130707020A071C4329A08947EDB7D9
:109B0C008327C00002906FF0EFF2B73503209385E6
:109B1C0045CD37A50D506FF08FB8B7350320938521
:109B2C0005D437C510506FF08FB7311122C626C43B
:109B3C0006C803478500AA840144E14636853AC22B
:109B4C0036C0EFB0BFC71247824605466317E5041F
:109B5C00130727051207B7270E50BA9723A607003D
:109B6C000F005005B1463304D4029840B737032098
:109B7C009387C7DA85463E9458C4D84018C803C7A3
:109B8C008400230AE400B396E6009847558F98C7E3
:109B9C00C2403244A24451018280B317A60093C73D
:109BAC00F7FF0504FD8E1374F40F49BF8547B39777
:109BBC00A70013F7870111CF373703201307C7DA34
:109BCC0048431345F5FF61897D8D01C93705AD0B00
:109BDC0082803705AD0B210582803705AD0B110551
:109BEC008280814701475CC118C1B7270E5083A7FB
:109BFC000751898B85CF73770430B7260E50B70584
:109C0C00004003A606720F00A00A83A746720F003D
:109C1C00A00AE3F8B7FEB207B1835CC110C1937719
:109C2C00870073A007303705AD0B82803705AD0B6D
:109C3C0005058280AA8537350320130505DB6FF0F7
:109C4C000F84511122C23734032006C49307C4DA9F
:109C5C009C43A5EF1304C4DA95470147E14613F67C
:109C6C0016003297FD171377F70F8582EDFB8946A7
:109C7C006311D7060D47230AE400B7260E5011478F
:109C8C002300E4028545938606101306000313D7C0
:109C9C0027003397E500618B11C73387D70023204A
:109CAC00070018439107E394C7FE0F0050051305F6
:109CBC00200EEFC05F8F0F00500585471CC0370585
:109CCC00AD0BA2401244310182803705AD0B31053A
:109CDC00CDBF3705AD0B0505EDB7211122C826C642
:109CEC0006CAAA840345850036C02EC23284EFF022
:109CFC00FFEBB707AD0BAA866311F5062AC42685C0
:109D0C00EFF0BFE27376043083C78400B7250E50A2
:109D1C008A0793870710AE9723A007009C430F0078
:109D2C00500583C78400124732049207AE9723A0D4
:109D3C00E752318023A287520F005005218A7320ED
:109D4C0006308247A24691CB03C784008547B39760
:109D5C00E70023A2F5300F005005D2404244B24434
:109D6C00368561018280311122C63734032006C842
:109D7C0026C49307C4DAC4439C4793C4F4FFE18818
:109D8C00FD8C0F00A00A814626871304C4DA25E750
:109D9C000F0050050F00F00FB7270E5083A40730AB
:109DAC00F58C0F00A00A1307840103454401854775
:109DBC00B397A700E58F85CB0323C400630503028B
:109DCC000F00F00FB7270E5093164500B69703A659
:109DDC00475283A507520F00A00A14480293B737C5
:109DEC000320138747DC3104E31187FCC240324463
:109DFC00A244510182803A8536C23AC0EFB01F9C12
:109E0C00931725001383071005468983B317F600B3
:109E1C00B3F2970002479246B7250E50638C0200AE
:109E2C002E93832203006387020023200300032365
:109E3C000300DD8E3315A6001345F5FF698F81BF36
:109E4C0005C5511122C226C006C42A84EFE05FD397
:109E5C00AA84EFE0FFD2B3079540E3EC87FEA24063
:109E6C0012448244310182808280828037F7022042
:109E7C00B7F70220130707639387876718C1998F79
:109E8C00614533D5A702828001CD584501458347F2
:109E9C001700858B99C70345070013351500828081
:109EAC0001458280F377043001A0511106C4DD3FD7
:109EBC00511106C422C226C073740430B727032084
:109ECC00938707A884472188CD3773200430124428
:109EDC00A2402685824431016F10A006511106C4A0
:109EEC0022C21C41404189EF014558448347170069
:109EFC0093E71700A300F700A240124431018280BF
:109F0C002285829775D19357F5413D8D1D8D930711
:109F1C00F00F63D4A7001305F00F5C442380A70057
:109F2C00E9B713172500B717032005059387075FBB
:109F3C000A0551113E97AA9722C226C000438443BA
:109F4C0006C463679400A2401244824431018280AB
:109F5C005C4089C7228559372104E5B71C4082979C
:109F6C00E5BF0111B717032005470D4506CEA38B9E
:109F7C00E77822CC26CA7537EFE0EF9FB124114564
:109F8C0037040320793FB7040320130384F7938429
:109F9C0084F7130484F763689302EF00B03B6366A5
:109FAC009406EF00303DEFC02FB5B7270320938701
:109FBC00878303C7C700799B2386E700F24062447E
:109FCC00D24405618280832743021AC83EC6832788
:109FDC0003023EC48327C3013EC2832783013EC0D4
:109FEC0083274301032703018326C3000326830031
:109FFC008325430003250300E52142438327030007
:10A00C0023A067041303030379B710547D575454EA
:10A01C006314E6006388C6003367D600084011E776
:10A02C00EF007058130404039DBFB7E7022093851B
:10A03C00C79A6105EF10A01FF5B76F202058371590
:10A04C000320B727032013068574938747AA33860A
:10A05C00C740814513058574CDB71303000A011160
:10A06C003303650226CAD144B71703209387877937
:10A07C00B725032022CCB7D602202A849385052B42
:10A08C00B30495023E93B7270320938707A82605B0
:10A09C0002C0AA959386661D1A8513060020BE94ED
:10A0AC00B71703209387075E3EC685473EC4BD475E
:10A0BC003EC22687814706CE1AC81D2142432388FB
:10A0CC00840005048347D3002E0423A66400ED9B73
:10A0DC00A306F300B7270320938707AB3E94C0C0B9
:10A0EC00F2406244D244056182801301C1FD0145F6
:10A0FC0006D022CE26CCEFF0DFE20142B7270320B8
:10A10C00372403209387878D13071010130404A89A
:10A11C002396E7001CC423A2070823A4070823AC3A
:10A12C000708EFF09FD40545EFF0BFDF0945EFF0CE
:10A13C005FDFEF00702DB71703209387875EB7247E
:10A14C0003203EC6B7D602208547B72503201383CC
:10A15C00848301479386E6F6130600409385054BEE
:10A16C003EC402C202C0814713858483232A640043
:10A17C00852E138384838347D30013858483ED9BBF
:10A18C00A306F300EF00007A0145EFF01FEDF37426
:10A19C0004300C44D55723A8F5082EC8F3770430A7
:10A1AC00EF005024C2452ECA638DA50008C42AC8EE
:10A1BC00EF003067C247D245894203A547097300B7
:10A1CC000000A18873A004308280511106C4F3777B
:10A1DC000430EFE0CFC5E5BF8307E5006384B7002B
:10A1EC006F00100401458280311122C606C826C4B6
:10A1FC002A843287F37404305045B72703209387A1
:10A20C0007A815C2AE8608458C47630BB502B3E7A9
:10A21C00E6008DEBA18873A004304155C240324456
:10A22C00A2445101828098470307E7009C4705062A
:10A23C0018C850C41CC4A18873A004300145F9BFD0
:10A24C001848EDB70306E5008385E5006353B600B7
:10A25C00B285930710F863D4F500930510F8814785
:10A26C0063D9C5003AC236C0EFF01FF712478246D9
:10A27C00AA87A685B72403202286138544AA3EC04C
:10A28C002527824745DD7377043008441DCD1440E3
:10A29C000C48630ED40081CE8386E60063D3B600EF
:10A2AC00B685930610F863D4D500930510F83AC21E
:10A2BC003EC0EFF07FF28247124701C9BA85138581
:10A2CC0044AAEF00B001555591BFEDFB218B7320D3
:10A2DC000730D5BF1445D5C241113727032026C2FC
:10A2EC0006C622C4130707A81847AA847D5563998C
:10A2FC00E600D844854663FAE6007D17D8C40145CC
:10A30C00B2402244924441018280F37704308C485D
:10A31C0088443EC0EFF05FEC8040639C8400824731
:10A32C0023A4040023A6040093F4870073A0043034
:10A33C00F9B775D4544018401305840198C254C31E
:10A34C000347D4002320040023220400759BA3069A
:10A35C00E40023240400EF00D07F80C40307E40052
:10A36C00228598C823280408752B8245372503209D
:10A37C00130545AAEF00807659B7295582805111F3
:10A38C0006C422C226C0F374043000416304850461
:10A39C0031C01C405840130584011CC3D8C38347EB
:10A3AC00D4002320040023220400F59BA306F40010
:10A3BC0023240400EF00F0792285232804089D2330
:10A3CC001244A240A685824437250320130545AAD2
:10A3DC00310129A718455C458945998FB337F000A1
:10A3EC00BA971CC54105EF10A043D9BFB72703206E
:10A3FC0003A507A83335A0008280511122C206C4E0
:10A40C002A8411E5B7270320938707A880471305F3
:10A41C0044067D46EF10C07DA3010408A2401244FF
:10A42C00014531018280130545068280CDC545C6A4
:10A43C00011122CC26CA06CE8342D5003713032045
:10A44C002E849306F6FF9304C3652E85638D020656
:10A45C00014783D34400B3F77200B5C383D76400BC
:10A46C003386E64063F3C7003E868C4036C816C67A
:10A47C003AC41EC232C0EF20001392430246224758
:10A48C00B24293C3F3FF3297B3F27200C246330564
:10A49C00E400638A02023386E6406383E6000546E5
:10A4AC00B7170320938587603AC636C416C232C0EC
:10A4BC00EF20600F02463247A24692423297A10427
:10A4CC003305E40079B723000500F240228562448D
:10A4DC00D24405618280370503201305454C8280E8
:10A4EC001301C1FD06D022CE26CC3EC693074504EF
:10A4FC007CC13CC5B2573D06AE822306F5009147A0
:10A50C00A306F500A257419A2A842307F5002324B9
:10A51C000500B387C500A3070500232C0500232ED7
:10A52C0005009305A00A1685B6843AC43EC232CA09
:10A53C0016C8EF20A00892452285EFD03FD1C24229
:10A54C0052463D0593070408419923A2570090C732
:10A55C00C8C792472247A686898F3EC29257124699
:10A56C0096853EC0B2472285EFD03FC8A247232034
:10A57C00040424C87CC8B2473CCC92577CCC73777B
:10A58C000430B7270320938607A89052218B80D2E2
:10A59C0030D073200730938407A8C2578DC77D46EF
:10A5AC00BE8513054406EF10A064A30104089C4467
:10A5BC00124583A78709232CF40882507244E24485
:10A5CC0013014102828023020406D5B70111A25265
:10A5DC00425326CA16C49252B25402C616C28252B2
:10A5EC0022CC1AC816C006CE2A84EFF07FEFFD5796
:10A5FC0042436394F40063089300B3E7640091EB67
:10A60C002285EF00407AF24022856244D2440561F3
:10A61C008280B7E5022026869A869385C59A130513
:10A62C008401EF00D040C5B781471307A00A63959A
:10A63C00B7001CC201458280B306F50083C6060034
:10A64C00E399E6FE8507E5B72E8683258508032565
:10A65C0045086FF07FFD58411C411CC3D8C3232013
:10A66C000500232205008280511122C206C42A84CF
:10A67C00EFF07FFE8347D40023240400F59BA30650
:10A68C00F400A2401244310182808347D500139715
:10A69C00870161876340070A13F7F70141EF184DF3
:10A6AC0051EB511122C206C426C093E707F8372498
:10A6BC000320A306F500930704A89C4F372703201B
:10A6CC00130404A8130787A9544C639AE70018C114
:10A6DC0054C188C248CC15A0E38BF6FE9C43E5DB45
:10A6EC000306E5008385E700E308B6FEE356B6FEF5
:10A6FC00D4431CC154C188C2C8C3044C6383E40056
:10A70C0091E044441C4403C7D7007D8B09EF83D6EA
:10A71C00E7001307F0076378D7005CC8A240124427
:10A72C00824431018280638597002685EF00700F8B
:10A73C0044C8EDB78280411106C622C426C28347A5
:10A74C00D5002A8793968701E18663DA060093F792
:10A75C00F707A306F5002AC0EFF0FFEF0247B72476
:10A76C000320938604A8804E9C46B726032093862C
:10A77C0086A9938404A86303D40011E0C044638CBD
:10A78C00E70003C7D7007D8B19E783D6E7001307D3
:10A79C00F0076368D700638587002285EF00700897
:10A7AC00A287DCC8B240224492444101828031111C
:10A7BC0022C63724032026C4930704A806C8AE84F7
:10A7CC008C47D557130404A823A8F508B7270320F2
:10A7DC00938747AA6384A700F377043048482EC2B6
:10A7EC00638DA50008C42AC0EF00B0030245924552
:10A7FC0089420325450973000000A18873A0043029
:10A80C001C44C240324403A50709A2445101828072
:10A81C00511122C226C02A8406C4AE84EFF0BFF1C7
:10A82C008347D40093E72700A306F4008DCC04C41F
:10A83C009C40639CF400DC4004C05CC080C3C0C07E
:10A84C001DA0D840E309F7FE9C43F5D70307E400AD
:10A85C008386E700E307D7FEE355D7FED8431CC039
:10A86C0058C000C3C0C3A24012448244310182804C
:10A87C00411122C406C626C28347D5002A841397E9
:10A88C00870161876358070093F7F707A306F50064
:10A89C00EFF07FDC8347D400B72403203727032055
:10A8AC0093E707F8A306F400938704A89C4F9384BE
:10A8BC0004A8130787A9D44C639AE70018C054C0A6
:10A8CC0080C2C0CC15A0E38BF6FE9C43E5DB0306EF
:10A8DC00E4008385E700E308B6FEE356B6FED443F6
:10A8EC001CC054C080C2C0C3884C9C446303E500A8
:10A8FC0011E1C844638C870003C7D7007D8B19E72F
:10A90C0083D6E7001307F0076368D7006385A700B9
:10A91C002AC0012F0245AA87DCC8B24022449244C7
:10A92C0041018280511106C422C273740430EFF0CD
:10A93C00DFD5218873200430A2401244310182807B
:10A94C00511106C422C2737404301C4599C3EFF034
:10A95C00BFD1218873200430A2401244310182807F
:10A96C00511106C422C226C0F37404308347D500AB
:10A97C0093F7870291EF1C452A8499C3EFF0DFCE41
:10A98C008347D4002285ED9BA306F400EFF0FFCFA4
:10A99C00A18873A00430A240124482443101828009
:10A9AC00854521156FF0DFFB111122CA2EC006CC94
:10A9BC0026C8B2853A84F3770430B72703209387EF
:10A9CC0007A88847B68436C62AC23AC4EFF05FE4BB
:10A9DC00FD56124532466395D4002247630A970010
:10A9EC00B7E50220A2869385C59A6105EF00300475
:10A9FC0052448245E240C24437250320130545AA40
:10AA0C0071016FF0DFDA511122C206C42A84EFF013
:10AA1C003FF3130584011244A24031016F007013FF
:10AA2C00411122C406C626C22A84F374043083471B
:10AA3C00D500E205E18513F7F70131E7184D21E761
:10AA4C0093F7F707A306F5002EC0EFF0DFC083479E
:10AA5C00D40082453727032093E707F8A306F400B8
:10AA6C002307B400930707A89C4FB72603201307AE
:10AA7C0007A8938686A9504F6395D70214C050C07F
:10AA8C0000C240CF1DA82307B4000145A18873A0C4
:10AA9C000430B2402244924441018280E380C7FEDC
:10AAAC009C43E9DF0385E700E38AA5FEE3D8A5FE16
:10AABC00D0431CC050C000C2C0C3004F6303D400BD
:10AACC0011E040471C476308F4002285992BB727F7
:10AADC000320138707A840CB05454DBF13F785000E
:10AAEC0009CFB7270320938707A8944399E6D44B43
:10AAFC009C476384F6006FF09FCB732007308280F5
:10AB0C00411122C406C626C2137485000DCCB7278A
:10AB1C000320938707A898431DE78C47D84B630401
:10AB2C00B702555723A8E50873770430C44B2EC0E1
:10AB3C00638B9500268584C7ED2103A544098245C6
:10AB4C0089427300000073200430B24022449244C6
:10AB5C0041018280F377043037270320130707A8BD
:10AB6C00144703C7F6007D17A387E600A18B73A0DB
:10AB7C0007308280411106C622C426C27377043086
:10AB8C00B7240320138604A81C46938404A883C608
:10AB9C00F7008506A387D700004EB72603209386BF
:10ABAC0086A96303D40011E0C04483C6D700FD8A94
:10ABBC0099E603D6E7009306F00763E9C6006386BF
:10ABCC00870022853AC0B1290247A287DCC8218BB5
:10ABDC0073200730737504302244B2409244410113
:10ABEC006FF01FF2B7270320938707A8C84B82800A
:10ABFC00B7270320938707A89447D84B23AAA60806
:10AC0C000325470998C78280B727032037270320DD
:10AC1C00938707A8130787A998CFD8CF82804111B3
:10AC2C0006C622C426C2F3750430372403209307CA
:10AC3C0004A89447D04F130404A89C423E87639306
:10AC4C00C6000147D4429CC2D4C31C44544C11EBE3
:10AC5C0037270320130787A998C3D4C39CC25CCCA5
:10AC6C0031A80386E7000305E7006304A6046352DA
:10AC7C00A604544398C3D4C39CC25CC3044CB727EA
:10AC8C000320938787A96383F40091E044441C4418
:10AC9C006386F40026852EC06926824544C822446A
:10ACAC00B240924437250320130545AA41016FF0A9
:10ACBC001FB0E38FE6F8184359BF211106CA22C80A
:10ACCC0026C6B367B50089E7EFF07FF50145A5A867
:10ACDC00FD572A86AE8663CDF5066395F500F957C8
:10ACEC006368F50636C232C0EF00007B024692461E
:10ACFC003304C50036C432C2F37704303EC0B727E4
:10AD0C000320938407A88844EFF0FFA288441246DE
:10AD1C00A246B7E502209385C59A6105092B984494
:10AD2C008245372503208347D700130545AA93E7AF
:10AD3C004700A306F700EFF09FA7EF00E07533057F
:10AD4C00A440E34505F8D2404244B24461018280FC
:10AD5C0079553304C54079BF511122C226C006C4AF
:10AD6C002A84AE84EFF07FF5FD576314F400638AF8
:10AD7C0084029307803EB305F5022166130626A1D3
:10AD8C008146B317F5022165130515A12E95B33530
:10AD9C00B500BE95EFB04F99A240124482443101E8
:10ADAC0082807D55D5BF411122C42A84610506C617
:10ADBC004D23F37504308347D40013F7470001EBA0
:10ADCC00A18973A00530B240224441018280ED9BE1
:10ADDC00A306F40022852EC0EFF03F8BB72703208B
:10ADEC0083A707A88245E9FF2244B24037250320F8
:10ADFC00130545AA41016FF07FCEB7270320938737
:10AE0C0007A888478280211106CA22C826C6F37774
:10AE1C0004308344C5003EC0858891CC13F4870070
:10AE2C00732004301145814273000000D24042442B
:10AE3C00B244610182800347D5002A84937687004F
:10AE4C0099C6824713F4870073200430C5B7936604
:10AE5C008700139686016186634A060AA306D5000D
:10AE6C00184401C72285EFF03F8013058401D521DA
:10AE7C007840930644046383E60055E337270320A8
:10AE8C00930607A89046130707A86315C40004434C
:10AE9C00B3349000084FB7260320938686A963032A
:10AEAC00D50011E148476309A6002AC29D2A124524
:10AEBC00B7270320138707A848CB22851D24B72763
:10AECC000320138707A89DC014471306101023AA4C
:10AEDC00D608B72603209386868D2396C60023A218
:10AEEC00060823A4060823AC060814C71447E31A63
:10AEFC00D4F41C43B9F742448245D240B2443725BE
:10AF0C000320130545AA61016FF07F8A1377F707B9
:10AF1C0013678700A306E500EFF0EFF391B73A85CE
:10AF2C0036C43AC2EFF04FF41247130587011521CE
:10AF3C001247232807083A85EFF02FF57840A246F0
:10AF4C001DBF6FF05FEC511106C422C226C0F37412
:10AF5C000430004163098502014511CC2328B40853
:10AF6C0050C82285EFF04FF013058401DD262285B1
:10AF7C00EFF0AFF10545A18873A00430A240124454
:10AF8C008244310182800145FDB7511122C23E84B9
:10AF9C0006C4EFF07FA101C8B7270320938707A849
:10AFAC009C47DC4B1CC0A240124431018280B72765
:10AFBC00032093878797B307F54037B7AAAA1307DF
:10AFCC00B7AA8D87B387E702371703201307C77714
:10AFDC00BA9705472380E70082800357E500930763
:10AFEC00F00763EEE702B717032083A747788DC7F6
:10AFFC00B717032003A707788306E500814763CDC5
:10B00C00E6000347D5007D8B01EBB7170320938730
:10B01C0087791D8DB337A00013F517008280814707
