:020000040000FA
:1000000070160120D1D10200BB5E0500BDD10200F7
:10001000BDD10200BDD10200BDD10200BDD10200A0
:1000200000000000000000000000000045D30200B6
:10003000BDD1020000000000D9D20200BDD10200F3
:10004000C1D40200C1D40200C1D40200C1D4020054
:10005000C1D40200C1D40200C1D40200C1D4020044
:10006000C1D40200C1D40200C1D40200C1D4020034
:10007000C1D40200C1D40200C1D40200C1D4020024
:10008000C1D40200C1D40200C1D40200C1D4020014
:10009000C1D40200C1D40200C1D40200C1D4020004
:1000A000C1D40200C1D40200C1D40200C1D40200F4
:1000B000C1D40200C9A10400C1D40200C1D402000D
:1000C000C1D40200C1D40200C1D40200C1D40200D4
:1000D000C1D40200C1D40200C1D40200C1D40200C4
:1000E000C1D40200C1D40200C1D40200C1D40200B4
:1000F000C1D40200C1D40200C1D40200C1D40200A4
:10010000C1D40200C1D40200C1D40200C1D4020093
:10011000C1D40200C1D40200C1D40200C1D4020083
:10012000C1D40200C1D40200C1D40200C1D4020073
:10013000C1D40200C1D40200C1D40200C1D4020063
:10014000C1D40200C1D40200C1D40200C1D4020053
:10015000C1D40200C1D40200C1D40200C1D4020043
:10016000C1D40200C1D40200C1D40200C1D4020033
:10017000C1D40200C1D40200C1D40200C1D4020023
:10018000C1D40200C1D40200C1D40200C1D4020013
:10019000C1D40200C1D40200C1D40200C1D4020003
:1001A000C1D40200C1D40200C1D40200C1D40200F3
:1001B000C1D40200C1D40200C1D40200C1D40200E3
:1001C000C1D40200C1D40200C1D40200C1D40200D3
:1001D000C1D40200C1D40200C1D40200C1D40200C3
:1001E000C1D40200C1D40200C1D40200C1D40200B3
:1001F000C1D40200C1D40200C1D40200C1D40200A3
:10020000C1D40200C1D40200C1D40200C1D4020092
:10021000C1D40200C1D40200C1D40200C1D4020082
:10022000C1D40200C1D40200C1D40200C1D4020072
:10023000C1D40200C1D40200C1D40200C1D4020062
:10024000C1D40200C1D40200C1D40200C1D4020052
:10025000C1D40200E7B90500C1D40200C1D4020034
:10026000C1D40200C1D4020031BA0500C1D40200D9
:10027000C1D40200C1D40200C1D40200C1D4020022
:10028000C1D40200C1D40200C1D40200C1D4020012
:10029000C1D40200C1D40200C1D40200C1D4020002
:1002A000C1D40200C1D40200C1D40200C1D40200F2
:1002B000C1D40200C1D40200C1D40200C1D40200E2
:1002C000C1D40200C1D40200C1D40200C1D40200D2
:1002D000C1D40200C1D40200C1D40200C1D40200C2
:1002E000C1D40200C1D40200C1D40200C1D40200B2
:1002F000C1D40200C1D40200C1D40200C1D40200A2
:10030000C1D40200C1D40200C1D40200C1D4020091
:10031000C1D40200C1D40200C1D40200C1D4020081
:10032000C1D40200C1D40200C1D40200C1D4020071
:10033000C1D40200C1D40200C1D40200C1D4020061
:10034000C1D40200C1D40200C1D40200C1D4020051
:10035000C1D40200C1D40200C1D40200C1D4020041
:10036000C1D40200C1D40200C1D40200C1D4020031
:10037000C1D40200C1D40200C1D40200C1D4020021
:10038000C1D40200C1D40200C1D40200C1D4020011
:10039000C1D40200C1D402000DBC0500C1D40200CA
:1003A000C1D40200C1D40200C1D40200C1D40200F1
:1003B000C1D40200C1D40200C1D40200C1D40200E1
:1003C000C1D40200C1D40200C1D40200C1D40200D1
:1003D000C1D402001BBA0500C1D40200C1D402007E
:1003E000C1D40200C1D40200C1D40200C1D40200B1
:1003F000C1D40200C1D40200C1D40200C1D40200A1
:10040000C1D40200C1D40200C1D40200C1D4020090
:10041000C1D40200C1D40200C1D40200C1D4020080
:10042000C1D40200C1D40200C1D40200C1D4020070
:10043000C1D40200C1D40200C1D40200C1D4020060
:10044000C1D40200C1D40200C1D40200C1D4020050
:10045000C1D40200C1D40200C1D40200C1D4020040
:10046000C1D40200C1D40200C1D40200C1D4020030
:0C047000C1D40200C1D40200C1D40200BB
:10048000084B1B78002B4FF00003836018BF02223B
:10049000036008BF0122044B4360FF23C271037253
:1004A000704700BFC820002028010800064A074BFB
:1004B0009B7802604FF41672C37100238280082279
:1004C00003728271704700BF974D0200C820002060
:1004D000064A074BDB7802604FF43472C371002385
:1004E0008280082203728271704700BF974B02001E
:1004F000C8200020064A074B1B7902604FF4B472F3
:10050000C371FF238280082203728271704700BF8B
:10051000CB460200C8200020054A064B5B790260EA
:100520009022C371FF238280082203728271704778
:10053000A54E0200C8200020054A064B9B790260A8
:10054000A822C3710123828008220372827170473E
:1005500035440100C8200020054A064BDB7E0260BE
:100560007822C3710223828008220372827170474D
:1005700083E50100C8200020064A074B1B7F02606C
:100580004FF40872C37100238280082203728271C3
:10059000704700BFCDE10100C8200020064A074B8C
:1005A0005B7F02604FF49072C371FF238280082248
:1005B00003728271704700BF675A0200C820002092
:1005C000044B9A7F002303608360034B4360C27136
:1005D000704700BFC820002000010800044BDA7FEC
:1005E000002303608360034B4360C271704700BF08
:1005F000C8200020000108002DE9F341C41D002897
:10060000064624F007040CBF0020204600F022FE1E
:10061000071E04DA6FF00B0002B0BDE8F0810EB9DE
:10062000FC42F7D4364D6989288903316B7B03304E
:100630002A7B89B280B21CF0BFF80028EADB3C4478
:10064000A978EB78002E04F10304194424F0030484
:1006500000FB01F10CBF0020204600F0A1FF204468
:100660000EB90028D6DB2B790446B3B1697D194455
:100670006B791944FF29CDDC0330002E2A8AC9B2D8
:1006800020F003040CBF0020204600F0F9FF0028F2
:10069000C0DB04440EB9002CBCDB012000F0D0FD0F
:1006A000C8B1A97BB9B195F82C300734002B24F0E0
:1006B000070415BF402325234FF481722822002E02
:1006C00014BF2046002005F01BF90028A2DB0444DB
:1006D0000EB9002C9EDBAB7CDBB12B7993B10734D8
:1006E000002EA97C24F007040CBF002020460EF049
:1006F00041FA00288EDB04445EB9002C09DA89E750
:10070000C8200020012000F09BFD10B1AB7B002B26
:10071000E5D1724B1B6893B1A97981B10334002EE6
:10072000EA7C24F003040CBF0020204698470028F0
:10073000FFF670AF044416B9002CFFF66BAF684BA0
:100740001B688BB1297D79B10334002E24F003049A
:100750000CBF0020204698470028FFF65BAF0444FA
:1007600016B9002CFFF656AF5E4B1F68B7B1697D16
:10077000A1B10334002E2B7E24F0030408BF002017
:10078000009318BF2046EB7DAA7DB8470028FFF6EE
:1007900041AF044416B9002CFFF63CAF072000F02F
:1007A0004FFD98B1A97989B10334002EAA7E24F0B7
:1007B00003040CBF0020204601F0D4F80028FFF607
:1007C00029AF044416B9002CFFF624AFB6FA86F719
:1007D00095F825007F09A0B10334EB7F297F24F031
:1007E000070419443B4644F00404C9B2224601F010
:1007F000FBF80028FFF60EAF044416B9002CFFF6F4
:1008000009AF95F82610002959D00734002E2A8DFB
:1008100024F007080CBF002040461BF0E2FF041E36
:10082000FFF6F8AE444416B9002CFFF6F3AE1EB145
:10083000298D404617F0CAFC95F82010002940D0B9
:1008400095F82430002B3CD06A8C0734002E24F01D
:10085000070802F124020CBF0020404692B21BF0B0
:10086000C0FF041EFFF6D6AE444416B9002CFFF6B6
:10087000D1AE0334AB7F297F24F0070495F8240020
:1008800019443B4644F00404C9B2224601F09EF8E4
:100890000028FFF6BFAE044416B9002CFFF6BAAE2E
:1008A0003EB16A8C404695F82010083292B217F09B
:1008B00015FF2B6B5BB176B12C630020ACE688464C
:1008C000B5E7002EF5D0002211461046EFE7002EC6
:1008D000F3D12046A0E62834FBD59BE6A4000020F7
:1008E000AC000020A80000201FB572B6194B5D6B4C
:1008F000E5B9BFF34F8F1849184BCA6802F4E0629C
:100900001343CB60BFF34F8F00BFFDE7B4FBF6F49A
:10091000D3B20132002CF9D103F110026A4402F87B
:100920000C4C0A2233B901A8A847E2E7044600228A
:100930000A26EDE7013BDBB203F110040DEB0406E0
:10094000B0FBF2F402FB1400303006F80C0C204629
:10095000E8E700BFC820002000ED00E00400FA0531
:1009600013B5114C6846637B8DF80130237B8DF8FD
:1009700000306389ADF804302389ADF802300AF005
:10098000D5FB18B1DB210320FFF7AEFF207E0AF074
:1009900039FC08B1DE21F6E7E07D0AF02DFC08B154
:1009A000DF21F0E702B010BDC820002070B5054679
:1009B000002850D01AF098F818B94FF0FF342046AC
:1009C00070BD18F0C9FCB0F5FA7FF6D8234C0326A9
:1009D00023486563002500F0AFFB2A222946A01CAE
:1009E00084F83850257084F82C50256326F037FEA3
:1009F00040F2011301212A46A67363801B23084697
:100A000021712381638140F20323A176A3811F23F7
:100A100023824FF40273638244F60113E382F723C7
:100A20006384FB23238508F0A7FB20B140F24F31FC
:100A30003046FFF759FF08F0BBFB044610B140F207
:100A40005231F5E7EFF3108572B601F021F8002D71
:100A5000B5D162B6B3E76FF01504B0E7C820002047
:100A60006109000038B51446002840F0D080694D77
:100A700095F83830032B00F0C780B9B112B96FF088
:100A8000150038BD0139162900F2C180DFE801F0F8
:100A90000C1D20355F68863B6B6E804147555A8C34
:100AA0008F9DA0A395A6AA001378AB700020FFF736
:100AB000A3FD0028B7BF012302236FF00B0085F8C8
:100AC0003830A8BF85F83830DBE71378EB70EDE7F6
:100AD0001379002BD3D05379002BD0D01288FB2A66
:100AE000CDD81A2A6388CAD91B3BE02BC7D8236804
:100AF000A288AB60484B9A80D8E713786A79934212
:100B0000BDD32B71D2E713782A799342B7D86B7192
:100B1000CCE713782A799342B1D86B75C6E713787E
:100B2000002BACD05378013BDBB2F82BA7D813884D
:100B30009278EB82394B9A70B8E71078687613F0A8
:100B400005FBB3E71378002B99D0AB76AEE7012015
:100B500000F076FB237808B1012B90D9AB73A5E7A1
:100B600013882B82A2E71378AB719FE7072000F070
:100B700067FB10B92378012B81D9072000F060FBB7
:100B800018B12378002B3FF47AAF2378EB748DE70C
:100B90001378082B3FF673AF2B7587E71388FF2B6D
:100BA0003FF66DAFAB7481E71378EB767EE7137891
:100BB0000E2B3FF664AF2B7778E72368184A2B6239
:100BC000636853602389138170E713786B776DE74F
:100BD0001378EB776AE71378AB7767E7137885F8D4
:100BE0002A3063E792786178207808F0C5FA002807
:100BF0007FF447AF6378012B7FF658AF17F0CCFA3C
:100C000000287FF453AF3AE74FF0FF3039E76FF039
:100C10002C0036E7C8200020D0200020DE20002055
:100C2000E8200020F8B50D46064630B329B311F090
:100C3000070422D1124F97F83830012B02D16FF000
:100C40000B00F8BD032B02D14FF0FF30F9E700F0A5
:100C5000A3F90028F8D02846FFF7CEFC0028EEDBE9
:100C600025F058FA3046396B0BF0E8FCFFF778FEB8
:100C70000323204687F83830E3E76FF01500E0E7FC
:100C8000C820002010B5074C94F83830032B03D14E
:100C90000BF0F0FC0CF07AFE1BF042FF002084F811
:100CA000380010BDC820002050B1074B03F11402DA
:100CB00053F8041B934240F8041BF9D100207047FD
:100CC0006FF01500704700BFE3F40600074B10B546
:100CD00093F838403CB90BF0B5FB0320044900F011
:100CE000A7FA204610BD4FF0FF30FBE7C8200020D8
:100CF000F5040000074B10B593F838403CB90BF0F1
:100D0000B5FB0220044900F093FA204610BD4FF0D5
:100D1000FF30FBE7C8200020D104000038B50B4DA0
:100D200095F8384074B90BF0C3FB0949012000F075
:100D30007FFA2046074900F07BFA0123204685F818
:100D40002C3038BD4FF0FF30FBE700BFC82000203B
:100D500081040000AD040000054B10B593F8384045
:100D60001CB90BF0D3FA204610BD4FF0FF30FBE763
:100D7000C8200020054B10B593F838401CB90BF083
:100D8000B7FA204610BD4FF0FF30FBE7C820002027
:100D9000054B10B593F838401CB921F000F82046F7
:100DA00010BD4FF0FF30FBE7C8200020054B10B509
:100DB00093F838401CB920F0F5FF204610BD4FF0E5
:100DC000FF30FBE7C8200020054B10B593F83840F2
:100DD0001CB920F0E9FF204610BD4FF0FF30FBE7C3
:100DE000C8200020074B10B593F838403CB90BF0F1
:100DF0007BFB0420044900F01BFA204610BD4FF095
:100E0000FF30FBE7C8200020190500000A4B10B591
:100E100093F838406CB90BF081FB0520074900F0CE
:100E200007FA074B074A20461A60074B074A1A6021
:100E300010BD4FF0FF30FBE7C8200020390500004F
:100E4000A4000020B94B0100AC000020D518000020
:100E5000054B10B593F838401CB920F068F82046CF
:100E600010BD4FF0FF30FBE7C8200020054B10B548
:100E700093F838401CB920F062F8204610BD4FF0BE
:100E8000FF30FBE7C8200020094B10B593F838402D
:100E90005CB90BF05BFB0749082000F0C9F9092099
:100EA000054900F0C5F9204610BD4FF0FF30FBE7C3
:100EB000C820002059050000790500000A4B10B534
:100EC00093F838406CB90BF05FFB20F05FFF0749E7
:100ED000082000F0ADF90920054900F0A9F92046E5
:100EE00010BD4FF0FF30FBE7C8200020590500007F
:100EF00079050000094B10B593F838405CB90BF048
:100F000061FB07490A2000F093F90B20054900F026
:100F10008FF9204610BD4FF0FF30FBE7C8200020BE
:100F20009D050000C1050000094B10B593F838403D
:100F30005CB90BF065FB07490A2000F079F90C2039
:100F4000054900F075F9204610BD4FF0FF30FBE772
:100F5000C82000209D050000DD05000008B5064BF7
:100F600093F83830032B03D008F0FAFE002008BDB8
:100F70004FF0FF30FBE700BFC820002002680020D0
:100F8000014B1A60704700BF04210020014B1B6811
:100F9000184700BF04210020024B1868003818BF12
:100FA0000120704704210020F7B504462D4E071D8F
:100FB0002C4837600CF00AFD0228054606D1294965
:100FC00020461AF07CFC284603B0F0BD042842D12C
:100FD0003378092B0AD0262B1ED0314620461AF032
:100FE000EAFCB0F5817F2DD3722112E005213E206D
:100FF0001AF038FC0028F0D1F37801A9327968465C
:1010000043EA0223ADF800301BF0F2F80028CFD0FD
:1010100053210820FFF768FC1A213E201AF022FC19
:101020000028DAD17368694601A8C3F30F23ADF82D
:10103000043011238DF806301BF03EF90028B7D09C
:101040006521E6E70028B3D0A17820781AF00AFCE1
:101050000028B8D1ACE70828B5D1024920461AF0DB
:1010600066FCB0E708210020074B4FF0FF3141F646
:10107000FF72C3E9001205490022C1E900221F21C5
:10108000C3E90212704700BF400000200C2200207C
:101090003F280CD801380B4BC0F3421200F01F0060
:1010A00053F8223023FA00F000F001007047FF28C7
:1010B00006D04038044BC0F3421200F01F00EFE7A7
:1010C00001207047400000200C220020074B014601
:1010D000006849681A4603C240F48C221A6041F045
:1010E000107242F4FF625A60704700BF4000002057
:1010F0000246024B0068516803C370470C2200206F
:101100000246024B0068516803C370474800002044
:10111000FD28084B16BF00F1FF303F20C0B2420946
:1011200000F01F0003EB82039B6823FA00F000F03D
:101130000100704740000020014B1860704700BF5D
:101140001422002010B5FFF78FFF1EF0ACFF034BF9
:1011500004461B6803B19847204610BD14220020A6
:1011600070B50C88C27CA6B2C4F30E04931C05882B
:1011700004F118021D44825AADB21A4443882A442D
:10118000013AB2FBF5F202FB054292B29342044BE4
:101190008BBF3340B34313439BB20B8070BD00BF82
:1011A0000080FFFF4A1E062A08B50346084604D8F9
:1011B0004FF4D1711520FFF797FB094A914202D9EC
:1011C00040F2A311F6E711B903B1196008BD2BB1C4
:1011D0001B680022C3E901211A1D1A600430F5E7DB
:1011E000FAFFFF7F10B5114B00EB41041A786389B9
:1011F000B3FBF2F303FB0223013A1A44B2F5706F1A
:10120000027928BF00231A448378B2FBF3F0194413
:1012100003FB1020091AB1FBF3F003FB1013134476
:101220006FEA43436FEA5343638110BD18220020E5
:10123000024B03EB80035960704700BF1822002067
:10124000034B03EB80035868003818BF0120704738
:10125000182200202DE9F04F10F0070A85B005464E
:1012600004D040F261111720FFF73EFB544F0446B3
:101270004FF0010B07F14806B146B04657F8043B62
:101280008DF80BA03BB101A898479DF80A30082BB8
:1012900001D9E821E7E79DF80B1081BB05B131606A
:1012A000B94506F10406E9D12DB30023DFF814E1B6
:1012B00011221E468EF8003058F82200013A60B123
:1012C00090F804A08178BAF1FF0F64D14FF00007C5
:1012D0008E4207713CBFCEB20123511CECD10BB141
:1012E0008EF80060112640F6FF6A58F82670002F2D
:1012F00063D1013EF9D2601B05B0BDE8F08F9DF8C7
:101300000AC04A1DBCF1020FE64604EB420438BF96
:101310004FF0020E53000EF1FF300444CEF10000F6
:101320002040BDF808406444CCF1000C013C04EAC4
:101330000C04B4F5803F01D3F82194E775B1C31ACA
:10134000336099701C8083F803B09DF80C201A71EB
:10135000019A4FEA124C1A81A3F806C004FB01045B
:101360009EE758F82C90B9F1000F06D099F804B018
:10137000D34504BF99F802904F440CF1FF3CBCF1F7
:10138000000FEEDA3944FF29A2D90BB18EF80060C4
:1013900040F2271167E794460027F0E707EB410387
:1013A00009F101093846A3F80AA0FFF71BFF5FFA0D
:1013B00089F1BB788B42F1D89BE74FF00009F6E743
:1013C0001C22002018220020034B03EB8003D86C62
:1013D00000B18078704700BF18220020F8B54FF6A2
:1013E000FF7305460380184B03EB8103D86CB8B13B
:1013F00086780379B3FBF6F206FB1233DBB21946AB
:101400000A1D00EB4202B2F902705488002F09DB7A
:101410000131B1FBF6F206FB1211C9B28B42EFD1DA
:101420000020F8BDFF29FBD0C4F30E03C4782B8045
:1014300024B94FF4D5711720FFF756FA5380BDE851
:10144000F8401BF074B900BF182200201D4B03EBBD
:10145000810370B5DC6C054644B3030404D54FF436
:10146000DC711720FFF740FA014620461BF042F9D5
:10147000FF28014604D02046BDE870401BF057B954
:10148000A078B5FBF0F300FB1353DBB219460A1D3D
:1014900004EB4206B6F90260002E09DB0131B1FB14
:1014A000F0F200FB1211C9B28B42F0D1002070BDE6
:1014B000FF29FBD08B4204EB42021CBF0023E370E8
:1014C0005580D8E718220020094B03EB8103014621
:1014D00010B5DC6C20461BF00DF9FF28014604D046
:1014E0002046BDE810401BF022B9002010BD00BF0F
:1014F00018220020F8B5104B074603EB8103014684
:10150000DC6C20461BF0F6F8FF28054611D0E68873
:10151000238953EA064606D0014620461BF007F908
:1015200001463846B04720462946FFF75BFE0020BB
:10153000F8BD0520FCE700BF1822002038B50E4B8F
:101540000446827903EB8203D86C08B9052038BDC4
:101550008278E1799142F9D24B1CE37100EB4103AF
:101560005D89B3F90A30002BF3DBA5801BF0DFF8AF
:1015700020600020EBE700BF1822002008B5074BD1
:1015800003EB81030146D86C1BF0B4F8FF2804D1AB
:1015900040F21E211720FFF7A7F908BD18220020EE
:1015A00070B5044610F003000E4603D04F211820FA
:1015B000FFF79AF9FFF7F6FD054624B103483146D7
:1015C0000460FFF7EFFD284670BD00BFAC2200208D
:1015D0002DE9F14FDFF870B01E4607460D46DBF8E7
:1015E000003090469DF828A09DF82C901BB96121F1
:1015F0001820FFF779F95246092140461AF0D4FE27
:101600004A4684B2092130461AF0CEFE81B2DBF898
:10161000000021441BF043F8386018B9286001B07D
:10162000BDE8F08F04445346414609222C603868D7
:101630001AF066FE4B4609223146286801B0BDE823
:10164000F04F1AF05DBE00BFAC22002070B50E4610
:1016500004461AF0BCFE054630461AF0B8FE044BAC
:101660002A1821461868BDE870401BF03CB800BF3E
:10167000AC220020014B18681BF005B8AC220020FA
:101680001F2AF8B5044613460ED89200033222F002
:101690000303B3F5803F2DD2184DACB1A00710D095
:1016A0005F210920FFF720F9FF2B4FEA420204D9FE
:1016B000FF339A42A8BF1A46E8E77C2AB8BF7C22CB
:1016C000E4E729706C602B8122F0030228230127B4
:1016D000120403FB01F06B680025120CEEB28E427F
:1016E00000D3F8BD14B126181F705E601044013598
:1016F0002833F3E74FF0FF30F3E700BFB0220020BC
:10170000144A002138B553681478C8B2844203D80B
:10171000AB210920FFF7E8F8184601312833057896
:10172000002DF2D000218170012412898161051DF4
:1017300044709208C16100F12001446821F8022B35
:10174000994245F8044B1444F8D1002343610370D7
:1017500038BD00BFB02200200A4B1B89B3F5FF7FC4
:101760004FEA930006D25A089B1A9BB2984238BFA0
:1017700018467047B3F5EE6F01D8FF22F4E740F248
:101780007263F3E7B02200202DE9F8434B788046DE
:101790000C4602F0040602F0FB07D3B1DFB12E4B7A
:1017A000D4F804901D89B7BB0123AD084A46211D1A
:1017B000637004F1280004F12003A761E76123F8B6
:1017C000025B984241F8042B2A44F8D1002363615C
:1017D00001E0002FE3D0FF23A370002E18BF0226E4
:1017E000A3191B7D032B03D1022F1CBF0136F6B2B8
:1017F000A31901221A7506F10C02002304EB8606D8
:1018000024F812307268A3704046C8F80020A8F887
:101810000430BDE8F883002114226170A01825F07F
:101820001EFFB5F5FF7F0FD26B08ED1AADB209EBC5
:101830000502C4F804902584A2606384C4F80C9067
:10184000A5842261E384C6E7B5F5EE6F4FF0FF0390
:10185000EBD940F27265EAE7B0220020F7B5D2007A
:101860000B684000002502F07802CDF8013000F04E
:1018700006008B880243ADF805300D4B42F00102A3
:101880001E785F688DF80020EBB29E4201D80024DC
:101890000AE0C5EBC5040722694601353C442046F1
:1018A00025F0B4FE0028EFD1204603B0F0BD00BF04
:1018B000BC220020014B1878704700BFBC220020DA
:1018C000034B00211A785868C2EBC20225F0C7BE4C
:1018D000BC22002010B50C4650B1830703D0202154
:1018E0004120FFF701F8044B58601970FFF7E8FF3B
:1018F000C4EBC40010BD00BFBC220020F8B50446F4
:101900000D461646FFF7AAFF034630BB144A92F86D
:1019100000C05768DAB2944501D807201CE0C3EB39
:10192000C3020133B85CB918024610F00100F1D1CE
:10193000630022F07F02F60003F0060306F078064B
:1019400043F00103334313430A4602F8013B2B687B
:10195000C1F80130AB889380F8BD1220FCE700BFCE
:10196000BC2200202DE9F84305460C46F72005214E
:1019700091461AF019FD061E22DB1DB906FB04F084
:10198000BDE8F88315F0030703D098211920FEF76E
:10199000ABFFDFF83480C8F81050A5B2A8F8146087
:1019A000BBB29D42EAD9B8F814C04B46D8F8100033
:1019B0000522F72107FB0C0001371AF0A1FCEFE725
:1019C0004FF0FF30DCE700BFC422002007B5CDE9AF
:1019D00000230B4603490246081D1BF04FF803B0D5
:1019E0005DF804FBDC22002013B5064CCDE9002392
:1019F0000B46024604F1080104F10C001BF03EF80E
:101A000002B010BDDC220020024B014618681BF01A
:101A100027B800BFDC220020024BD3E900211BF0D5
:101A200053B800BFDC220020034B1B28D3E902215E
:101A300038BF1B201BF048B8DC220020024B0146B7
:101A4000D3E900201AF04FBEDC220020024B0146F1
:101A5000D3E902201AF047BEDC22002008B54B1E55
:101A6000032B03D923219020FEF73EFF002801F12C
:101A7000010114BF0C230523C9B203EB8101034B01
:101A8000013121F00101197008BD00BFEC220020D6
:101A9000124B01224FF0FF3000211B685A60C3F83F
:101AA0000803C3F80015C3F804250D4B1B685A60E2
:101AB00040F6FE72C3F808034020C3F80015094B36
:101AC0000949C3F80825C1F88800BFF34F8FBFF359
:101AD0006F8FC1F88801C3F8082570474432002091
:101AE000403200200020085000E100E00A4606488D
:101AF0003A2302F8033BC368C1F80330036953601B
:101B000043699360704700BFF0220020024B5A8C5B
:101B100002435A845B6A1847F0220020014B0021DF
:101B20005B6A1847F022002010B5154C15F0D6FE60
:101B300015F0ACF9208DFFF7F1FF237E63B122464B
:101B4000104904F1190052F80C3BE36063685360DC
:101B5000A368936021F0B0FC0B4B228D93E8030047
:101B60000DF092F8236B18880CF0B8FFA36B94F873
:101B7000341094F835009847002384F83C3010BDA9
:101B8000F0220020ED1A00001C230020034B93F8E4
:101B90003C300BB1FFF7C8BF704700BFF0220020F8
:101BA00070B5224C0646636C256B236495F88C3027
:101BB00094F848000BB10430C0B295F86D102EB9FE
:101BC000FF2803D195F86C308B4201D015F022FD2F
:101BD00095F88C3023B3E06C15F062FF94F82C304C
:101BE000E16C003B206C18BF012384F87030D5E90C
:101BF0003A23C4E9182315F063F846B995F86D3017
:101C0000033B012B94BF2820002015F0ABFF95F873
:101C10006C10002016F006F8022384F83C3070BDEA
:101C2000206C15F03DFF15F031F9E6E7F0220020B9
:101C30000138C0B2032808B504D940F26741062034
:101C4000FEF752FE014B185C08BD00BF78FF05008F
:101C500008B5094B93F83C20022A04D040F22D210C
:101C60002720FEF741FEDA7A42F00102DA72BDE87F
:101C70000840FFF759BF00BFF022002010B50E4CFE
:101C8000A26F137803F00303032B04D1D378022B44
:101C900001D1002010BDE06F1AF038FC0028F9D106
:101CA000A36F1B7803F00303032BF2D00AF00CFFA1
:101CB00080F00100C0B2EDE7F022002038B51E4CE4
:101CC0000546D4F88030984708B9012038BD94F80B
:101CD0003430002BF9D194F82C301BB9012D03D0EE
:101CE0000020F3E7002DFBD194F88430DD06C3F328
:101CF000001001D5FFF7C2FF636CD4F888201B7871
:101D0000C3F300132AB9B4F88C2013B1B2FA82F3EA
:101D10005B0994F82C10628C39B1910705D5A36F3B
:101D2000D878023818BF0120D0E7002ACDD100288A
:101D3000D6D183F00100C9E7F02200202DE9F3415C
:101D4000324C06460F4694F83C30256B012B5FFA67
:101D500083F804D040F29D412720FEF7C5FD95F899
:101D60007C3053B10021042085F87C10FFF7CEFEB3
:101D700094F82C300BB185F87E80A16F0B7803F0BE
:101D80000303032B05D195F8823013B90220FFF726
:101D9000BDFEA26F137803F00303032B02D0537828
:101DA0002BBB012385F8823095F88C30CBB194F8A9
:101DB0002C30226B003B94F84880D5E93A0118BFDB
:101DC0000123C4E9180192F86D0084F87030FFF720
:101DD0002FFF002203460E4902200092424614F0D3
:101DE00007FF36B102B0BDE8F041FFF79DBE022308
:101DF000D8E7002FF6D03046FFF760FF0028F1D17A
:101E000002B0BDE8F041FFF7CBBE00BFF0220020DA
:101E10004023002037B5724C0023256B8DF8053028
:101E200095F88C2094F848300AB10433DBB295F869
:101E30006C1028B9FF2B03D195F86D308B4202D07E
:101E4000FF2015F0E7FB95F88230032B00F2B680F7
:101E5000DFE803F0023B94A794F88E306148ADF8B8
:101E60000630A5F85C300AF005FE80B1A16F4FF492
:101E70008070FFF74BFE0121A36F85F87D10DB78A2
:101E80001B2B1ED105F1100015F0F4FB19E00DF12C
:101E900005020DF10601E06F1AF0C1FAA067A0B1CA
:101EA00095F8C7308BB99DF805302BB90380012117
:101EB0008370A06F21F040F8BDF80610A06F21F0EC
:101EC000A2FA012384F88F3001E0474BA36795F80D
:101ED0008330A16FDB0003F008020B7803F0F303FB
:101EE000134395F88420920002F00402134323F078
:101EF00010030B70FFF7C2FE0028A06F14BF102361
:101F0000002302781343037095F88B30002B58D0D0
:101F10004378002B55D0E06C15F0C2FD94F82C30BE
:101F2000A06FB3FA83F35B0984F87030D5E93823E6
:101F3000C4E9182321F015F8021EE16C18BF012234
:101F4000A06F16F007F818B9A16FE06C14F0B8FE96
:101F5000A06F1AF0F7FD95F86D10012015F062FEE4
:101F6000A26F0123118884F8E030A4F884109178DE
:101F70001E4A84F83C30917003B030BDB5F85C3037
:101F80000DF105020DF10601E06FADF806301AF013
:101F900046FAA067002894D140F2CD212720FEF711
:101FA000A3FC10480AF066FD10B940F2D721F5E70E
:101FB000A36FDB781B2B84D1012163E740F2E5217D
:101FC000ECE715F06DFD14F061FFA06F20F0C9FF84
:101FD000011EA06F18BF012124F00EF9B8E700BF61
:101FE000F02200206823002080230020742300209A
:101FF000064B10B593F83C2002F0FF0422B91C7682
:102000000CF03AFE204610BD0C24FBE7F022002025
:102010000A4B0B4A70B506460D461A60FFF7E8FFFB
:1020200018B1DE212720FEF75FFC064C012104F1E8
:10203000900020F081FF6664E56470BDC000002060
:10204000B0000020F0220020024B012283F8E120A2
:10205000704700BFF02200202DE9FF419C4C02AEEA
:102060000A9F86E8030094F83C1001F0FF0511B9BF
:102070000AB103B127B940F26D112720FEF734FCF5
:1020800096E8030004F12C0C84F8E15084F83450F5
:1020900084F8E25084F8355084F8E05084F88F508A
:1020A00065842585C4F880306262A7638CE80300EC
:1020B000256B15F001FB14F0E9FE95F9740015F09D
:1020C0005FFBA86A15F0D0FC286A15F05FFB95F855
:1020D0009C0015F081FB95F87630002B00F0AE8067
:1020E0004D2015F009FA94F82C00002840F0A88043
:1020F00095F86C20774B03EB820359684FF47A73A1
:1021000001F5FA71B1FBF3F16E3115F0D3FB724BAF
:10211000724E05F58077186815F0ACFC6B69E367C3
:10212000AB69C4F8E43005F1F0031868083353F8DC
:10213000041C3246BB4203C21646F6D15968D5F894
:102140000001236B664A03C293F8862093F86C0063
:10215000A2F12601012903D993F88710262977D106
:1021600094F82C20002A70D193F802121AF0DAFCAD
:10217000064605F134073146384621F05FFA31460C
:1021800020F09EFAB5F8403095F86D10834228BFD4
:102190000346384684F88E3021F016FA95F86D1013
:1021A00095F88C600429B5F8488008BF032120F019
:1021B00087FA0EB9043080B2404528BF40465FFA26
:1021C00080F884F8E8800BF019FD30B10BF01CFDAD
:1021D000404538BF40465FFA80F894F82C6084F898
:1021E0004880002E59D195F88B308BB1012395F89A
:1021F0006C0084F87030D5E93823C4E91823FFF760
:1022000017FDFB22034635490420009614F0F0FC2C
:102210000120FFF7FFFD002323606360A360B5F892
:10222000803063802B88238095F89C3023712B6F3E
:102230000BB101221A6004B0BDE8F081962050E78E
:1022400095F86D20C42101205FE793F89A128DE77D
:10225000213A012A0FD824290FD094F82C20BAB1A2
:1022600093F826315A0711D413F001017FF47EAFA1
:1022700003F002017AE724290AD194F82C203AB11C
:1022800093F8262193F865301340EBE704216DE7BE
:10229000032814BF064604266BE795F88C3093B1EB
:1022A000012395F86D00D5E93A6784F87030C4E9E8
:1022B0001867FFF7BDFC0022034608490092022080
:1022C000424614F095FC0120FFF76AFCA3E700BF2B
:1022D000F022002078FF0500C000002040230020ED
:1022E0005823002008B5114B93F83C201AB9BDE8DB
:1022F0000840FFF719BC93F82C2042B993F83C3002
:10230000012B12D040F20B212720FEF7EDFA93F8B3
:102310003C20022A02D040F20F21F5E71B6BD3F8D4
:10232000D801BDE8084015F0F1BB08BDF02200203F
:10233000014B1876704700BFF0220020014B93F844
:10234000E0007047F0220020044B93F88F201AB968
:10235000188DC0F30030704701207047F022002034
:10236000024B188DC0F3C020704700BFF022002040
:10237000014B93F8E2007047F02200202DE9F34171
:1023800082071E4D06460F462C6B22D5D5F88830A5
:1023900023B940F28E412720FEF7A6FAB5F88C202B
:1023A0001846296C033291F8018018F059FD0DF19F
:1023B000020201A92864D5F8E4001AF05AF901983C
:1023C0001AF041F9012238604146D5F8E4001AF0CC
:1023D000E7F8F3070ED5D4E93A32013342F10002AF
:1023E000C4E93A3294F88430012B0CBF0023012356
:1023F00084F8843002B0BDE8F08100BFF0220020F4
:102400002DE9FF47B44C002380468946276BCDE970
:10241000023394F83C30022B04D040F211512720B3
:10242000FEF762FA238D590606D44020FFF776FBAB
:10243000238D43F04003238597F88C30B8F1000FCB
:1024400000F05081A3B114F02FFD88B9236C5A78A5
:1024500072B11B7897F88420C3F3C0039A4207D166
:10246000012384F83530FFF75FFB04B0BDE8F08747
:10247000236C5978A4F88C1009B3D4F8E4001AF04E
:1024800066F8C4F88800238D97F8832043F400731E
:102490002385236C1B78C3F380039A4200F0C2802B
:1024A000256B95F88230002B40D0022B11D102A968
:1024B000E06F19F0D6FF28B940F20541AFE7C4F844
:1024C0008810E0E7D5E93832013342F10002C5E96E
:1024D0003832002194F82C3085F882103BB195F801
:1024E0007E3023B1102085F87E10FFF70FFB95F8A2
:1024F0007D309BB1002685F87D600AF0CDFA10B9D9
:1025000040F21C418BE731460820FFF7FFFAD5E97E
:102510003832013342F10002C5E9383295F8833090
:10252000012B0CBF0023012385F88330238D4FF04E
:10253000000A43F400632385216C97F884200D780A
:10254000C5F3C0039A426FD00025206C1AF0FAFA46
:1025500097F88B30B3B194F82C3097F86C00B3FA3D
:1025600083F35B0984F87030D7E93823C4E9182372
:10257000FFF75EFB00220346584900920420FB222D
:1025800014F036FBB9F1000F00F0CA80012615F0F7
:10259000A3FB1DB103A90220FFF7F0FEBAF1000F63
:1025A00010D094F82C3043B1B4F80720B4F80530BB
:1025B0001343B7F88020134304D0B4F80930013333
:1025C000A4F80930B8F1000F00F0C480B4F8053069
:1025D0000133A4F80530002384F8E23040480CF0C1
:1025E0006BFA029830B11AF02EF8216B00220272B9
:1025F0000BF030FA039B33B1216B00221A720C22CC
:1026000003980BF0F5F9002E7FF42DAF238D1B06F8
:102610003FF52BAF8020FFF781FA238D43F0800335
:10262000238522E7C24687E705F00305266B032DC5
:1026300014D0F5B996F88430013B18BF012386F811
:102640008430236C5B78002B3FF47FAFD6E93A32BD
:10265000013342F10002C6E93A3276E7238D0120C8
:10266000002543F4805386F87C002385FFF74EFA5B
:10267000E0E74D78002DDDD0238D96F88C5043F4A3
:102680008053238514F04EFF042894F8E83006D1D7
:10269000002D14BF1B221F22934228BF1346226C19
:1026A00052789A420BD8D4F88830002B3FF44CAFC4
:1026B00094F8E1306BB12020FFF730FA44E794F84A
:1026C0003430012043F0100384F8343016F0E4FE77
:1026D0003AE74546AEE700BFF02200204023002045
:1026E0001C2300200BB114F0F3FB94F8E23001330B
:1026F00084F8E230238D43F48063238597F86D30AE
:10270000033B012B05D80025012016F0C5FEAA4683
:102710001EE70BF073FA82460028F4D1054617E74E
:1027200094F82C2094F8E2303AB1628C120704D568
:10273000A26FD278022A3FF429AF012B3FF626AFD1
:102740000120FFF7BBFA064600287FF41FAFFFF712
:1027500061FB1EE7B4F807300133A4F807303DE70A
:102760002DE9F04F04468BB01E4600230D46174658
:10277000069390F86D801FF058FC94F8C0310B2B35
:1027800004D940F2F2310620FEF7AEF8794A32F869
:1027900013B094F887308344442B1FFA8BFB3CD052
:1027A0000E2B94F8862038D0443A53425341039379
:1027B00087F001030493002F57D194F80432032BC0
:1027C00053D1039B002B50D0B4F89832AB424CD17C
:1027D000D4F80C322046B4F8DC2141F64B59C4F849
:1027E000F831E369C4F8FC31B4F852321344C4F848
:1027F00000320FF0D9FBD4F8A03294F8AC224B454C
:102800008CBF4FF000094FF0010942B9E2699342D1
:102810001AD0208823F05AFC16E00123C7E720884D
:1028200023F051FC18B940F232713020ACE7B4F813
:10283000A832B9466386B4F8AA328381B4F89832D4
:10284000C7814381013B0382D4F89C3284F876909F
:10285000E362B4F89A322386D4F8A032E361D4F864
:10286000A4326362022384F80432B4F850A204F55F
:102870000873B4F88090A5EB0A0A0593A5EB090943
:102880000FFA8AF30FFA89F9002B17DAD4E98E23AD
:10289000C4E992230023012284F81B324B4694F8AA
:1028A00004A2354F5FFA8AFABAF1030F00F2C88129
:1028B000DFE81AF006002601640045013246EEE723
:1028C00094F86D1094F8D6011FF021FF8046E06A5D
:1028D0005946404416F0F6FC5946C4F80802E0692F
:1028E00016F0F0FC94F8763007A9002B18BF4FF0D3
:1028F000020A5044C4F80C0208A815F0F5F9079B29
:10290000D4E992010093DDE9082324F0F7FC814625
:1029100020461AF03CF9D4F8543294F86D00D4F8FB
:102920002CA0069315F00EFB069B00F52240D4F870
:102930000812BB3BB1309A444FF47A73AAEB010AF8
:102940003031B0FBF3F0D044238EA8EB090803EB41
:102950004101A8EB0000069094F86D001AF023F9ED
:10296000D4F85422069B38609B1ACC2B69D840F2CD
:10297000D2415AE790FF0500DC230020E36A594664
:10298000D4F8FC01184416F09DFC5946C4F808021E
:10299000E06916F097FC94F87630002B08BF4FF0F2
:1029A000000A5044C4F80C0220461AF0F0F8B4F8BB
:1029B000DC31D4F82C80D4F8FCA1002B40F09980B5
:1029C000002E00F09680D04494F86D0015F0BAFA0D
:1029D000D4F80832A8F1BB0800F5224994F86D003C
:1029E0004FF47A7BA8EB0308D4F8403209F1B1091F
:1029F0009844C31ED4E98E12012BA8EB0108B9FB41
:102A0000FBF973D915F09EFA00F2E730B0FBFBFB3F
:102A1000A8EB090808EB0B000690D4F80812D4F8CC
:102A2000F831D4F80022303194F86D0002FB031124
:102A3000238E03EB41011AF0B6F80123386084F8C5
:102A40000432E3694FF00008D4F80C2204F134009A
:102A5000A3F5A2733F6806999B1A84F820829F42CF
:102A600028BF1F46D4E99232C4F8D8715B1842F1EE
:102A70000002C4E98C3220F0A5FD0744A4F85052AE
:102A8000C4F82472D4E98C23C4E992230EF0BEFC6E
:102A900020B1D4F824321E33C4F82432B4F8C8115B
:102AA00084F828824D1B2DB2002DC4BF022384F868
:102AB0002832039B002B40F0C680002E40F0C480DB
:102AC00094F80432002B00F0DC80E16904F5087012
:102AD000D4F80C32C91A1FF0C2FD80B2002800F0F1
:102AE000D080149B03B118800120DAE04FF03E0B38
:102AF0008EE7D044D4F80832A8EB030306938CE7A2
:102B0000D4F80C22E169D4F8F801891A4B43D4F8BF
:102B100000120693B4F8DC319944CB439944D4F8BD
:102B20000832303300FB0133218E94F86D0002FB34
:102B3000093301EB43011AF036F8386081E7E069A8
:102B4000584306905EB3B4F8DC1141BB84F81B1205
:102B5000D4F80C1201FB130A94F88630262BCDF81A
:102B600018A003D094F88730262B09D1B4F89832F6
:102B7000EB1A1B0404D494F89B32002B18BF984620
:102B8000002A3AD0B4F8DC31BBBBD4E98E23D4E9B7
:102B9000900182428B4108D340F2265145E694F8D9
:102BA0001B1200297FF44DAFD2E794F86D00C31ECD
:102BB000012B40D915F0C6F900F522404FF47A7B7D
:102BC000B130B0FBFBF000F1AB0BD4F8403294F81D
:102BD0006D00103BD4E98E125A1AC31E012B924489
:102BE0002CD915F0AFF94FF47A7300F2E730B0FB4F
:102BF000F3F0AAEB0B0A50440690B4F8DC114046FF
:102C00008944D4F80C1201FB09F909F130094FEAA3
:102C10004909494619F0C7FF234A94F876301060F5
:102C2000002B3FF40EAF06AB4946E0691FF08CFD68
:102C300084F81B0205E74FF4897BC6E73E20D8E7FE
:102C400040F23E51F1E5E6B1B4F8F01119B3B4F831
:102C5000F22194F8F431501CA4F8F22102FB033362
:102C600099420EDD94F828325BB10023A4F8F201FA
:102C700084F828320AF0CEFF00F00700013084F813
:102C8000F40104F5087194F81C0217F09BFA20B9BE
:102C900040F28751C9E50A46DBE7049B84F8183205
:102CA00000200BB0BDE8F08FDC230020F0B5044617
:102CB00085B018B9A8213020FDF716FE072900F2CB
:102CC0000681DFE811F008004500450040000401DE
:102CD000F000F800020190F8183253B3B0F8163241
:102CE000B0F8802093421ED1B0F8CC21D31AA0F8BE
:102CF0008020A0F8CE312046D4E98C23C4E98E236D
:102D00000FF072F894F8D331002B00F0CA8021F054
:102D100067FF704B1B68002B00F0C380204605B096
:102D2000BDE8F04018479A1AA0F8CE21A4F88030E8
:102D3000E1E7B0F81432B0F880209B1AA0F8CE3149
:102D4000B0F81432F2E705B0BDE8F04014F0D8BF97
:102D500024F064FAD4E98E23801A61EB0301012880
:102D600071F1000302DA40F21261A4E76FF001038F
:102D700083424FF000038B4102DA40F213619AE77D
:102D8000E5690DB1B0FBF5F594F88730442B14D00C
:102D900094F88620442A0AD00E2B08D0A2F14306CC
:102DA00072427241B4F81612B4F880303AB1B4F8F5
:102DB00016320133A4F8163214E00122F2E72B4454
:102DC0009BB2CA1A150454BF4B1C01339BB2A4F822
:102DD000163294F819322BB9B4F81622B4F8CC3163
:102DE0009342E6D0B4F8523202AEB4F880500133C8
:102DF000394FA4F85232B4F8BA301D44B4F8B830A0
:102E0000013DED1AADB23B685BB1B4F81612002279
:102E10002046013989B29847B4F816321844A4F80C
:102E20001602B4F816126B1A18041ED4002320469A
:102E300000961A46FFF794FC98B3012812D1B4F813
:102E40001622B4F8C811BDF808301344521A1204FF
:102E50009BB204D5EA1A12F4004F18BF0B46A4F82F
:102E60001632D0E740F26A6125E794F88A3030469E
:102E70000394002B0CBF3E23082384F8A9300123C0
:102E80008DF808300BF084FB204621F0ABFE0023C8
:102E900094F81C0284F8043217F01AF9202384F8FD
:102EA0001C3205B0F0BD012016F0F6FA05B0BDE801
:102EB000F04019F057BE90F80432042B01D0CE2117
:102EC000F9E6002380F80432EBE7D421F3E6D821B9
:102ED000F1E600BFC8000020D00000202DE9F0413D
:102EE00004460E46154690F8383103F0FF071BB133
:102EF0000C273846BDE8F08101464C4817F0C2F86F
:102F000020288046F4D05822394604F5887024F0F1
:102F1000A6FB84F81081C4F81461FF2384F83831CB
:102F200036B10AF08FFE00F00700013086F8F40198
:102F300002234FF00008A4F8483184F8408116F0CD
:102F400015FA00F14906204621F05BFC0146B6B2B5
:102F5000D8B31FF06AF800F5CD61284689B216F0A3
:102F6000B1F92844C4F8440124F058F930184FF05E
:102F70000106A4F8268041F1000184F81861C4E933
:102F80005401204621F053FCD0B1A5F2AA453146A8
:102F9000204621F0A4FB2D1AC4F81C514FF0FF323B
:102FA0006FF00043C4E9562304F5A07194F81001B2
:102FB00017F008F970BB4FF4E5713020FDF794FC71
:102FC0003046AE3D21F02CFDE5E72046DFF860807D
:102FD00021F085FBAE30C4F84401B8F8040048B1D4
:102FE000E08C38B10AF02EFEB8F80430B0FBF3F2F2
:102FF00002FB1300064424F011F9361841F10001D8
:10300000C4E95461002DC9D0AE1941F10001C4E9F1
:103010005661C9E7D4E9542300212046C4E94A2374
:10302000C4E94C2321F02CFC63E700BF75CC010000
:10303000DC230020F0B5002385B0CDE90033032365
:103040008DF806306846FEF779FA88B11D4E0123E7
:103050000027B3710223CDE902778DF80E3002A864
:10306000FEF76CFA0546A8B10023B37105B0F0BDB8
:10307000009819F0E6FEE5E790F81C0217F0B2FBA5
:1030800094F81C0284F8045217F022F8202384F8E4
:103090001C32DFE7029B002BE1D093F81C22202A90
:1030A000DDD018884FF6FF739842DDD00221FEF77D
:1030B0000BFA04460028DFD14FF49A713020FDF757
:1030C00013FC00BFDC230020044B0022DA719A714C
:1030D00042F210729A80FFF7ADBF00BFDC230020E0
:1030E000014BD871704700BFDC23002008B514F0F5
:1030F0003BFA044B9A6882422ABF9879002080F0FC
:10310000010008BDDC230020F0B5044685B090F82E
:10311000D33103F0FF05002B6ED190F80432032B5E
:103120006AD124F07BF8D4E98E23801A61EB030185
:10313000012871F100035FDB6FF00103834275EB3F
:10314000010304DA40F2BB513020FDF7CDFBE26908
:10315000B4F880300AB1B0FBF2F2013313449BB2F1
:10316000A4F81432B4F8CC31B4F814229B1A1BB270
:10317000002B41DD94F81C0217F028F900283BD001
:10318000FF2384F81932B4F8BA300DF10E07B4F801
:1031900080501A4E1D44B4F8B830013DED1AADB25E
:1031A000336863B1B4F8141200222046013989B2A1
:1031B0009847B4F81432184480B2A4F81402B4F852
:1031C0001432EB1A1B0417D4B4F814120023012292
:1031D000204689B20097FFF7C3FA68B1012808D1E9
:1031E000B4F81432BDF80E2013449BB2A4F8143284
:1031F000D6E740F20261A7E705B0F0BDD00000209D
:103200002DE9B3430446062900F28380DFE801F08C
:10321000042815252C317C003F4B9B7903F0FF02DD
:103220005BB900920123B0F8CC11FFF799FA38B1DD
:103230004FF4DA613020FDF757FB042384F80432A1
:1032400014F0A8FB16F018FE0023B4F88020A4F8B0
:103250005232A4F8162284F8193202B0BDE8B083C5
:10326000032380F80432F8E722F089FFC4E99001D3
:10327000F3E72A4B1B681BB10246D0E9900198473F
:1032800094F86D30E569033BDFF88C90012BD4F89E
:103290000C3294BF4FF028084FF000089D4208F50B
:1032A000807888BFED1A99F8073098BF00251BB9C0
:1032B000636B9D4228BF1D46D4F8D87104F13400D9
:1032C00020F080F90744022017F0DEF90221ED1BFF
:1032D00025EAE575854228BF0546284617F01AFA03
:1032E00000B92F4442463946204620F0F9F9D4F877
:1032F000D831C9F80800E069184417F097F9002898
:10330000ABD140F27E3195E702B0BDE8B04319F091
:103310003EBC40F284718DE7DC230020C400002015
:10332000012A70B505460C46164615D0022A18D05B
:1033300042BB14F019F932460146204619F051FDFE
:103340002A46124994F8100116F096F840B940F256
:1033500097713020FDF7C8FA14F006F9C5F8540249
:1033600070BDD0F854120122204619F03AFD2A46C9
:10337000064994F8100116F07FF80028F0D14FF4B8
:10338000F561E6E740F2AE71E3E700BFAD2C000067
:10339000014B9880704700BFDC2300200D4B0321B8
:1033A000186830B50D4690F8A52090F84B400132D2
:1033B000B2FBF5F303EB4303D31ADAB244FA03F397
:1033C000DB0703D4013911F0FF01F0D180F8A5200B
:1033D00030BD00BFE8230020014B186819F08BBEF8
:1033E000E823002008B50AF065F8014B187008BD05
:1033F00050000020054B10B41C68827C836804F1E7
:10340000420194F8410010BC1FF09FB8E82300204F
:103410002DE9F041064690461D460C46D9B91A4F93
:10342000386800F15B0390F85A2000F1780190F8B9
:103430007E001FF08AF87A680346507908280ED07B
:103440003A6892F84E100A1A504250413A6892F87F
:103450005620012A05D1B36863B9012006E0204651
:10346000F4E77AB9002BF6D10028F4D100F001007E
:10347000BDE8F081B8F1000FEFD11DB13046FFF784
:10348000B9FFF3E70020F1E7E8230020024B1868BA
:103490006C3002F09DBA00BFE823002038B50F4C15
:1034A000FFF7F4FF656802F04DFA6368286018685A
:1034B00020B940F2F7413220FDF716FA1AF08EF8E3
:1034C00010B940F2F941F6E714F0EAFA002014F0DE
:1034D00049FB636804221A7138BD00BFE82300204D
:1034E00038B5194D04466B681B79022B04D940F698
:1034F000EA013220FDF7F8F92B68027C83F8A4205A
:103500001A44C168996692F8242183F82021426800
:10351000C3F88820037A022B0ED014F0CDF814F0F3
:1035200067FB13F0D1FA094814F0A4FA084814F024
:103530009BFA084814F02AF9637C23B12B685B6E70
:103540000BB101221A6038BDE8230020840100205D
:1035500055555500D6BE898E08B5FFF743FF034B7E
:10356000586802F081FA012008BD00BFE82300205E
:1035700038B505460C4609F0C9F8420704D4A378CB
:1035800003F0E003402B30D009F0C0F8830704D4E7
:10359000A37803F0E003202B27D0237803F03F0328
:1035A000242B22D813F0C4FF94F90030A278002B0A
:1035B000637802F01F02ACBF1E214FF4967143EAFC
:1035C00002234B431A1AB2F5877F0ED398420CD8C8
:1035D000074B294618682388A0F82131A37880F882
:1035E0002331BDE838401AF010BB002038BD00BFC1
:1035F000E8230020F0B5044687B0084663785A06F1
:1036000071D4227803F01F0352EA03236BD0618840
:10361000052968D9237A6268C3F30403134362D08F
:10362000324B1B684BB140B1984700285BD0304B00
:1036300001221B68D3F890305A762D4E227A3368D7
:10364000C2F30402D3F89050636805F11E008DF8B0
:103650001420190A8DF810308DF81110190C1B0E5A
:103660008DF8121004A98DF813301FF0BBF8638891
:1036700040F2E2425343A27BAB67D4F809302B609F
:10368000637B43EA0223E27B43EA02436B60238AC3
:10369000013BA5F86230237AC3F3421385F89230D8
:1036A000336893F82031EB756378257813F0200F99
:1036B00003F01F0314BF4FF496771E2745EA032338
:1036C00007FB03F522F05BFD33680246D3F89060F8
:1036D000238A06F15000009506339BB2CDE90173B1
:1036E0000B4610F023FC07B0F0BD00BF64010020C2
:1036F000E823002008B5074B93F900207F2A04D166
:1037000040F29D313220FDF7EFF802707F221A70EF
:1037100008BD00BF5000002010B504788EB004F042
:103720000F0404A9224619F098FFFFF75BFE042C52
:1037300033D11B4C059A2368107893F8781088428F
:103740002BD1507893F87910884226D1907893F84D
:103750007A10884221D1D07893F87B1088421CD10E
:10376000107993F87C10884217D1517993F87D2015
:10377000914212D19DF8212093F87E309A420CD1CB
:103780000DF10F00FFF7B6FF9DF90F3004A900936C
:10379000237B227A606819F033FF03200EB010BD3E
:1037A000E82300202DE9F04F044689B0062900F2F5
:1037B000C780DFE811F06200E9000700C500C5001E
:1037C000C50028006F4D14F089F82F6897F8543021
:1037D0009E0701D1032036E06E68B379002BF9D043
:1037E0000DF11F00FFF786FF9DF91F3002222146D1
:1037F000029330462B7A0193FF23009307F1420393
:1038000019F0EEFEE6E75F4D6E68B379002B00F02D
:1038100097802F6897F85420900717D50DF11F0057
:10382000FFF768FF9DF91F303046062202932146BC
:103830002B7A0193FF23009307F1420319F0D0FE86
:10384000002309202B7309B0BDE8F08FD10777D58D
:10385000530701D514F042F80DF11F00FFF74AFF9E
:103860009DF91F202B6802922A7A42330192FF228F
:103870000092062221466868C2E7424D2B6893F801
:103880005420570737D56968CA79002A33D042686F
:1038900093F85B001678864255D1567893F85C0011
:1038A000864250D1967893F85D0086424BD1D67807
:1038B00093F85E00864246D1167993F85F008642FF
:1038C00041D1507993F8602090423CD1627C93F8CA
:1038D0005A00161A7242724193F8560001284ED0CF
:1038E000002A4CD193F84E30082B02D04A799A42E4
:1038F00045D013F0F3FF6E68B379002B3DD02F68ED
:1039000097F85420900720D50DF11F00FFF7F2FE25
:103910009DF91F3030460022029321462B7A0193F5
:10392000FF23009307F1420319F05AFE01230920F7
:103930002B736B68DA79002A85D19B79002B82D1B1
:1039400013F0CCFF46E70022C6E7D10715D5520792
:1039500001D513F0C3FF0DF11F00FFF7CBFE9DF95A
:103960001F202B68214602922A7A4233686801920E
:10397000FF220092002219F033FE0320D9E70A202B
:10398000D7E700BFE8230020644D81686E682A688D
:10399000B379807C0493F37992F84880059319F009
:1039A000D9FA92F8543088F0010807465B0740F1D5
:1039B000898092F84D30002B00F0848092F84E60A0
:1039C000082E00F08180304609F01AFA002818BF4E
:1039D0008046002F7AD03046A16809F0F3FB0646F6
:1039E0002B6893F841900EB149F0020993F85420E6
:1039F000500746D5626893F85B101078884267D10B
:103A0000507893F85C10884262D1907893F85D10FA
:103A100088425DD1D07893F85E10884258D11079F1
:103A200093F85F10884253D1517993F86020914206
:103A30004ED1617C93F85A20891AD1F1000B4BEBDF
:103A4000010B69684979082945D093F84E305A1A14
:103A5000D2F1000A4AEB020A002E3FD1B8F1000F62
:103A60003ED02046FFF7C6FC059B43B1296891F87C
:103A7000561001294DD011B95BEA0A0349D113F060
:103A80002DFF2B6893F854309B073FF4A3AE13F03F
:103A900025FF049B002B3FF49DAE2046FFF7AAFCB8
:103AA00010B9D5F80080EEB10DF11F00FFF722FE2E
:103AB0009DF91F202B68029242332A7ACDE90092A9
:103AC0000122D7E676797BE7002689E73E4687E73D
:103AD0004FF0000BB5E74FF0000ABDE70120C3E748
:103AE0003046C1E798F85520023A012A3FF672AEF7
:103AF000002F3FF46FAE0DF11F00FFF7FBFD9DF9A6
:103B00001F3002932B7A0193FE23009308F14203A6
:103B1000D6E70028B3D00A2095E600BFE8230020AE
:103B20002DE9F04387B0174C06460F460DF11700FC
:103B3000FFF7E0FD65682B79032B20D02B79062B4E
:103B40000CBF4FF003094FF00109236803F142084D
:103B500013F0E8FC9DF917303A463146CDF80C9049
:103B60000293237ACDE900034346284601F0B0FFD3
:103B700010B1606801F048FF07B0BDE8F0834FF076
:103B80000009E2E7E82300202DE9F043324E87B038
:103B900005460F467468A37923B90024204607B070
:103BA000BDE8F083D6F8008098F8953033B90378F3
:103BB000002B0CBF0123022388F895302379062BB4
:103BC000DAB224D0072A14BF4FF001094FF00209DE
:103BD0000DF11700FFF78EFD13F0A4FC9DF91730CF
:103BE0003A4629460293337ACDF80C90CDE900038A
:103BF00008F14203204601F06BFF0028CDD06C781D
:103C000014F0100406D1706801F0FEFEC6E74FF014
:103C10000309DDE7A9690220FFF7AAFC0446B8B151
:103C20000022336883F896206A696AB15178C1F33B
:103C3000031183F897101178527802F00F0241EACD
:103C40000222A3F89820A9E7FF2283F89720A5E78E
:103C5000706801F009FFA1E7E82300200D4A5368CE
:103C600010B51979022904D841F293413220FCF7AA
:103C70003BFE1979082902D941F29441F6E71B79F4
:103C8000126903F180439268033BBDE8104052F88B
:103C900023301847E823002010B5054C637A2BB178
:103CA00013F0A6FF12F010FF0023637210BD00BFD7
:103CB000E823002010B5054C23792BB113F098FFB1
:103CC00012F002FF0023237110BD00BF102B002053
:103CD00010B5094CFFF7E0FF012263681A71002359
:103CE0002268A2F8213182F82331FFF7CFFB206848
:103CF000BDE810401AF055B9E823002008B5044B80
:103D0000586801F0B1FEBDE8084019F001BA00BFE3
:103D1000E8230020062938B51C469DF8105019D913
:103D200008291DD802B1DDB143689BB912B94378A7
:103D3000DB0617D40C4B5B68186819F070FC00B1F7
:103D400035B92CB909F07EF800F00104204638BDE1
:103D50000120F9E79DF81430002C08BF1C46F5E758
:103D60000024F3E70124F1E7E823002038B50D1E15
:103D7000044614BF03200520104409F079F9094BCB
:103D8000587270B15DB9033C012C94BF5524502486
:103D900012F072FE2046BDE8384013F01DBF4024EB
:103DA000F6E738BDE8230020F8B53D4CFFF76EFB81
:103DB000656801F0C7FD63682860186820B940F2A3
:103DC00054413220FCF790FD19F008FC054610B96B
:103DD00040F25641F5E7236893F8A6306BB12368AB
:103DE0001A6D93F8A710C3F8102193F854200A43D2
:103DF00083F85420002283F8A620206890F8A4308D
:103E0000034493F82471636880F820711A7952B1E1
:103E10001B79012B07D0002119F0F7FE18B9BDE876
:103E2000F840FFF755BF23681E4A93F8A530D05CD1
:103E300013F0D2FC236893F8A420134493F8246170
:103E4000022E2BD004D8012E05D040F2FE71B8E727
:103E5000F31E012BF9D801F06FFD314613F0DAFBA8
:103E6000284613F01DFE3146012013F0BBFC7B1EDB
:103E70002A46384659425941FFF778FF62680821BF
:103E80000023517121722168D3801372E37281F88B
:103E90009530A372237303231371F8BD0D20DCE763
:103EA000E8230020A8FF050010B50A4C0521206872
:103EB00019F0ABFE18B9BDE81040FFF709BF236841
:103EC000012093F8201113F0ADFE63680B221A71E4
:103ED00010BD00BFE8230020124A10B5536800B996
:103EE00031B9184601F0C0FDBDE81040FFF7F0BE43
:103EF0001979082904D841F263413220FCF7F4FC17
:103F000019790C2902D941F26441F6E71B7912694B
:103F100003F180435268093BBDE8104052F823305A
:103F2000184700BFE8230020054B1A6892F8542078
:103F3000920703D05B68186801F02EBD586970477E
:103F4000E823002070B5304D06466B681A79032AC5
:103F500002D01A79042A09D1186819F03FFB0446E7
:103F600038B941F29B313220FCF7BEFCFFF7DCFF91
:103F7000F5E72B6893F8543013B941F2A131F2E719
:103F800076B11EF0A2FF30B16B681A79022A0ED802
:103F900041F22131E7E720461EF0B2FF0028F3D1BD
:103FA0006B681A79022A17D841F28131DBE71A7956
:103FB000082A02D941F22231D5E71B7920462A6925
:103FC00003F180431269033B52F8233098470C28D1
:103FD00012D941F2B431C6E71A79082A02D941F25E
:103FE0008231C0E71B792A6903F180435269033BA0
:103FF00052F823309847EAE72B69DB68BDE8704048
:1040000053F82030184700BFE823002038B5FFF7E9
:104010008BFF044620B940F21E513220FCF764FCAD
:104020000B4DFF202B6893F8201113F0F3FA204674
:1040300013F036FD2B6893F82031033B012B94BF1E
:104040002820002013F08EFD6B6807221A7138BDFE
:10405000E823002038B5134C0E20236893F8201174
:1040600013F0D8FAFFF760FF054620B940F20B5174
:104070003220FCF739FC13F013FD236893F820314C
:10408000033B012B94BF2820002013F06BFD236815
:104090002A46002193F82001FFF768FE6368082292
:1040A0001A7138BDE823002010B5074C606801F094
:1040B000ABFCFFF797F920680021A0301DF084FFCA
:1040C000BDE81040FFF704BEE823002010B5044609
:1040D0008AB0FFF787F9237803F00F03072B23D16A
:1040E0006946204619F04CFB684619F0EFFB9DF835
:1040F0000030CBB99DF80130DB0715D50D4C019987
:1041000022689DF8110002F1780392F87E201EF0DB
:104110001CFA48B120680121A0301DF055FFFF2195
:104120006846FFF731FD08B9012000E002200AB01F
:1041300010BD00BFE8230020F0B5504D85B0044607
:104140000F462B6893F894300BB9002626E043788D
:104150001B07FAD50378002BF7D12B68D3F8900012
:10416000503021F0E7F80028EFD12B68D3F89060A9
:10417000B27D2AB963695978B37AB3EB111FE4D1E0
:10418000636873B9002F6DD0012FDED16B6818689A
:1041900019F045FA0028D8D06B681E7A304605B071
:1041A000F0BD6968487908283CD002AA0DF10701E2
:1041B00008F018FF064620B940F6BF713220FCF720
:1041C00093FB2B689DF80700D3F89070BB7DFBB183
:1041D000636902A95A78120918F03BFC0028B4D090
:1041E0002B680298D3F89020BDF80C10D060118293
:1041F0009DF80720D3F89030DA722B68D3F890201E
:104200000123937463695B78C3F303139372C5E767
:10421000024602AB07F10C01F87A1EF096F900286D
:1042200093D0EAE7607CFAB16269194652781209C4
:1042300018F00FFC002888D0626929685278D1F8FC
:104240009030C2F303129A7262681068D860928844
:104250001A82D1F89030627CDA722B680022D3F88F
:1042600090309A74012699E7024606F10C01F07A23
:104270001EF06BF90028F0D167E700BFE8230020AB
:1042800007292DE9F043064687B00F46904645685A
:10429000654C23D11DBB002A48D1D4E9001091F808
:1042A000543013F0030218BF012213F0040382718B
:1042B00003D033785A1E53425341C37191F894305E
:1042C0004BB12368D3F89000503021F033F810B987
:1042D000636801221A7207B0BDE8F08335B329463E
:1042E000707C18F037FE072F814664D1637A63B182
:1042F00058B1B8F1000F55D065681EF06AF96368CF
:1043000068715B7923720123A37263685879082866
:1043100058D17168707C1FF0DFFE626805467168D5
:104320000532707C08F094FD00285DD0236893F876
:10433000540010F003000AD06268394693F84C30FC
:1043400030460195927900924246FFF7E3FC00F077
:10435000010062682368907193F8540010F0040023
:1043600009D093F84D30394601953046D279009204
:104370004246FFF7CFFC2D4B00F0010065681B683B
:10438000E8711BB14146304698472872726872B393
:10439000717C236883F87E10116899679288A3F86E
:1043A0007C2024E0236893F820110129A4D1284619
:1043B00008F030FE6072637A002BA6D0B9F1000FCE
:1043C000A3D099E704AA0DF10F0108F00BFE20B964
:1043D00040F693313220FCF787FA04A99DF80F00CC
:1043E0001FF07AFE0546A1E76368D88018726268FC
:1043F000137AB3B9D388003B18BF0123B0680028F3
:104400003FF469AF072F7FF466AF517908293FF475
:1044100062AF002B3FF45FAF08F01AFE0123E37296
:1044200059E70123EAE700BFE8230020D400002079
:104430002DE9F74F2F4D934607468A462A68816833
:10444000807C92F84880019318F084FD6C7A88F0A3
:1044500001080646CCB192F854305B071FD592F89C
:104460004D30E3B192F84E40082C23D0204608F09E
:10447000C7FC002818BF8046002E36D0EB7A73B3F5
:104480001EF0B1F800230446EB72019B8BF800404C
:104490008AF8006083F8008003B0BDE8F08F7B6885
:1044A00013B16B685C79DFE76B68186819F0B7F8CF
:1044B0000028F6D1CEB195F80A90B9F1000F14D1C9
:1044C0004946B86808F0A6FD044668720028DCD0AA
:1044D0001EF07FF808280AD06B685871D5E720468F
:1044E000B96808F06FFE0446CFE70024CDE74C46DC
:1044F000CBE700BFE82300202DE9F043A24E87B0B0
:104500000446376897F857300BB903257BE0D6F897
:10451000048098F8063033B998F807201AB998F84B
:104520000820002AF1D02578012D77D0022D00F047
:10453000D180002DE9D197F854209007E5D01BB920
:1045400098F80830002BE0D0637813F0100FC3F315
:10455000001714BF0822012232EA0303D5D1002339
:10456000A2688DF814308DF815308DF81630002AB9
:104570004DD00DF1160305AA0DF115012046FFF7E8
:1045800057FF336893F841509DF81430002B00F02A
:10459000E28045F00205002F3BD00DF117004FF0EF
:1045A0000008FFF7A7F8D6E9003903F1420712F037
:1045B000B9FF9DF917302A462146CDF80C800293A9
:1045C000337ACDE900033B46484601F081FA0028E2
:1045D0009BD0A1690120FEF7CBFF002895D033685E
:1045E00083F896806269002A70D05178C1F3031174
:1045F00083F897101178527802F00F0241EA0222F4
:10460000A3F898200225284607B0BDE8F083FF25CF
:10461000C1E729462046FFF783FA76E797F820217D
:104620006378022A19D103F01903192B7FF46DAFB7
:1046300097F85430590714D4356895F854309A07D0
:104640002BD1A1690120FEF793FF00283FF45DAF55
:104650003368012283F89620C4E703F01803182B6F
:10466000E4E7616800232046B1FA81F11A4649095E
:10467000FEF7CEFE00283FF448AFA36932689B786E
:1046800013F0E00304D192F84930002BD4D13CE779
:10469000402BD1D192F84A30F7E70DF11700FFF720
:1046A00029F8776812F03EFF0023FF22214603938A
:1046B0009DF917300293337ACDE9000305F14203E7
:1046C000384601F005FA0028BBD11EE7FF2283F827
:1046D000972097E797F854309B073FF416AF63781D
:1046E00003F01803182B7FF410AF0DF11700FFF73C
:1046F00001F812F017FF0023FF22214603939DF9D2
:1047000017300293337ACDE9000307F142034046A4
:1047100001F0DEF900283FF4F8AEA1690120FEF7B0
:1047200027FF00283FF4F1AE336883F896506269A2
:104730006AB15178C1F3031183F897101178527858
:1047400002F00F0241EA0222A3F898205BE7FF2261
:1047500083F8972057E72046FEF74CFE00287FF4A9
:104760001AAF336893F85530023B012B3FF6CDAEBC
:104770009DF81530002B3FF4C8AE9DF81430002B87
:104780007FF4C3AEFE2506E7E823002030B50546DA
:104790008BB0FEF727FE2C7828466946294D04F099
:1047A0000F0418F0EDFF2B68072C16D193F8201199
:1047B000684618F0EEFF002221466846FFF760FDCC
:1047C0002B6893F82031022B32D017D8012B1AD046
:1047D00041F21C213220FCF787F893F8542012F0A4
:1047E000060FE8D093F8A420134493F82421012A5B
:1047F000E1D19621002021F0D3FCDCE7033B012B23
:10480000E6D8072C19E0062C02D00BD8022C0BD8C6
:1048100021466846FEF7C6FF0446FFF73DFA2046EC
:104820000BB030BD072C09D013F058F80324F4E77F
:10483000072CFBD19DF80030012BF7D16846FFF71C
:104840005BFEE9E7E823002038B5144D2C6894F8A6
:10485000483013B36FF00043D4E920129A4208BFE6
:10486000B1F1FF3F19D022F0D9FCD4E920239042C6
:1048700071EB030311D3012008F070FC68B12D68BF
:1048800008F0AAFB044622F0C9FC054BA4FB033444
:104890001B1844EB0104C5E9203438BDE82300208F
:1048A00040420F0070B51E4D06462A6892F823114B
:1048B0005F294FEA511096BF1A4B00241B1892F83B
:1048C000210100F03F0098BFDC7812F085FF2B68D3
:1048D00093F9580012F054FFFEB12B682246996EEE
:1048E000012012F0E7FF2B68214693F89630022B47
:1048F0000CBF4020FF2012F08DFEFFF715FB2B6848
:10490000064693F8951019B902462046FFF72EFA8D
:104910003046BDE8704013F0C3B822467321DFE78C
:10492000E8230020A8FF0500F7B52C4C07462268B5
:1049300092F823115F294FEA511097BF284B0025A9
:104940001B18DD78936E13B10120FFF7ABFF2368CE
:10495000D3F8880013F0DAF8236893F8542091070D
:1049600003D593F89610022905D052070FD593F876
:104970009620012A0BD1EA1E012A26D893F8593035
:10498000012B14BF29460321002013F04BF92668A0
:1049900063689A361868D7B918F041FE636807460D
:1049A000186818F042FE21680246304691F89630A9
:1049B00091F820110091394618F03DFF236883F8E3
:1049C00020510023A37203B0F0BD2946DCE718F0A4
:1049D00038FE0146304618F023FFEFE7E8230020B9
:1049E000A8FF050008B50120FFF79EFF024B062235
:1049F0005B681A7108BD00BFE823002008B50020DD
:104A0000FFF792FF024B05225B681A7108BD00BFD9
:104A1000E823002010B50446FEF762FD237A032B3D
:104A20000AD1194B1B68986E20B140F62F11322025
:104A3000FBF75AFFFFF736FF237A012B06D003D985
:104A4000023B012B12D910BDFEF7A8FC0E4C2368C7
:104A500093F9580012F094FE2368002283F8952001
:104A6000FFF7A2F9BDE81040FFF7EEBE064B1B684A
:104A700093F895301BB9BDE81040FFF7BFBFBDE804
:104A80001040FFF7AFBF00BFE823002008B5044B7C
:104A9000586800F0B9FFFEF7A5FC012008BD00BF73
:104AA000E823002008B5FEF79DFC054B002118689F
:104AB000A0301DF089FABDE80840FFF709B900BF32
:104AC000E82300202DE9F3414C4D00230E46074614
:104AD0002A6841F27070116D53720B885381CB6953
:104AE000A3F57A74844295BF4FF47A7040F2E240A5
:104AF000B3FBF0F3B3FBF0F398BF03F550639BB245
:104B000013848B8C5384CB8C93844FF47F43D38456
:104B10004FF6FF73138517B3012130461EF0F7F8E7
:104B200001463078C0092C6894F8483004F114022A
:104B3000FBB118F00FFAE0B10B6863618B88287A3B
:104B4000938004F10E0208284AD004F10D0108F008
:104B500049FA88B941F2EA313220FBF7C5FE6946CD
:104B600068691DF087FF6B6969461878C0F380108B
:104B7000D9E700236361E2E72C68637B04F11A083C
:104B800043F00203637347B3002130461EF0BFF8C1
:104B90000368C4F81A308388A8F804302B6893F9A6
:104BA0005810186D08F056FC286815491EF07BFC5B
:104BB00028681449036D2A301A88A0F8092093F850
:104BC0008E30C3721EF078FC0221286801F02AFAA8
:104BD000FEF75CFC02B0BDE8F08104F17800D7E795
:104BE00094F87E306373A36FC4F80E30B4F87C3051
:104BF00093800023C4F81A30E383CFE7E823002032
:104C0000CFCF01006DCF010008B5FFF745F8044B89
:104C100000205969FFF756FFBDE80840FEF7DCBBEE
:104C2000E82300202DE9F04F06468BB0FEF7DAFBB3
:104C3000337803F00F03082B05D04FF001094846E5
:104C40000BB0BDE8F08F6946304618F036FD9DF890
:104C50000090B9F1000FF0D19DF8013003F003038B
:104C6000032BEAD12B4C276897F84D30002B39D015
:104C700097F84E80637A002B38D1002507F178032E
:104C800097F87E2001999DF811001DF05EFC0DB98A
:104C90000028D2D0256897F8483095F841A04235D1
:104CA0003BB1404608F0C8FA00281CBF05464FF04B
:104CB000010A9DF812B052460299584618F04AF976
:104CC0002B46074658461DF040FCC8B1206801211C
:104CD000A0301DF079F9FEF7DFFF31460120FFF724
:104CE000F1FEACE7636893F80580C3E71DF071FC43
:104CF0000828C2D0A0EB080320725D425D41BDE7E9
:104D0000002F9AD00299404608F05CFA0028DDD1C5
:104D100093E700BFE82300202DE9F8436C4D002302
:104D2000064689466869D5F800800370437012F022
:104D3000D1FE074628B9032008F07AFE3846BDE8C0
:104D4000F883032E6C6942D1237823F00F0343F0DC
:104D5000030323700C23637008F1780168691DF068
:104D600090FE98F87E1068691DF09FFE002168692A
:104D700021F042FA2B6893F8482003F1420493F89B
:104D8000418092B193F85420520740F1908093F8FB
:104D90004D20002A00F08B8093F84E0008F04CFA6A
:104DA00000281CBF04464FF00108214668691DF029
:104DB0005AFE414668691DF06BFE464BD3F80C3233
:104DC000002B77D040F23F613220FBF78DFD052E9E
:104DD000C2D12378222223F02F03627043EA4911C3
:104DE00041F00501217029680B6D1B6AC4F80F3072
:104DF0000A6D936A180AE3741B0C2075637592F8A8
:104E00007600138E00284CD04FF0640CB3FBFCF3FB
:104E1000DBB2A375D36A002846D06420B3FBF0F35D
:104E20009BB241F27070E3751B0A2376D369A3F538
:104E30007A7C844595BF4FF47A7040F2E240B3FB30
:104E4000F0F3B3FBF0F398BF03F550639BB26376C6
:104E50001B0AA376938CE3761B0A2377D38C6377A4
:104E60001B0AA377D2F88F30C4F81F3092F8933022
:104E700094F8242084F823300B6D22F01F0293F85D
:104E80009A3003F01F03134384F8243007F064FCC6
:104E900094F8243003F01F0343EA401384F82430CD
:104EA0005AE740F2E24CB1E740F2E240B6E76B6805
:104EB000587973E7052E7FF441AF2B6821681A6D8E
:104EC000C2F80A10A188D1811B6D83F8098035E7EB
:104ED000E823002000A0085010B500210320FFF7B0
:104EE0001BFF18B9BDE81040FEF7F2BE074C0321C6
:104EF000206818F08AFE0028F4D00121084612F03C
:104F000091FE636809221A7110BD00BFE8230020DA
:104F100038B5184D6B68186818F060FB044620B966
:104F200040F263513220FBF7DFFC6B680A2200215C
:104F300028681A7101F076F82B6805201A6D23781D
:104F400092F88E4004EA531404F001042146FFF75E
:104F5000E3FE18B9BDE83840FEF7BABE0421286860
:104F600018F053FE0028F5D02B681B6D83F88E4097
:104F700038BD00BFE823002010B5114C0C220121E0
:104F8000636820681A7101F04DF800210520FFF7D1
:104F9000C3FE18B9BDE81040FEF79ABE062120688E
:104FA00018F033FE0028F5D02368012093F8201173
:104FB00012F038FE236801221B6D83F88E2010BD8D
:104FC000E82300202DE9F043054691B00E46FEF798
:104FD00009FA2B789B4C03F00F03072B07D0012510
:104FE000606800F041FD284611B0BDE8F08306A9D5
:104FF000284618F0C5FB206806A99A3018F038FC3E
:1050000023689DF8181093F89620914240F059813A
:10501000032E03D193F89720FF2A16D09DF819206C
:10502000150740F14E810B9A93F897105078B1EB29
:10503000101F40F04681127800F00F00B3F898304E
:1050400042EA0020984240F03C8106A832460721FF
:10505000FFF716F96068C3881BB9037A002B00F0CC
:10506000318100238DF814308DF815308DF816300D
:10507000089B002B47D00DF1160305AA0DF1150171
:1050800006A8FFF7D5F9236893F841609DF814301E
:105090000BB146F002069DF818509DF81480012DC2
:1050A0009DF815709DF816302FD0022D7FD0002D61
:1050B00040F00781236893F854309D0730D09DF865
:1050C0001930980771D5B8F1000F0BD106A8FEF77B
:1050D00091F938B9236893F85530023B012B1FD85A
:1050E000F7B1FE2663681B7A33B1574B1B681BB1BF
:1050F0000D9808B10F999847314606A8FEF744FD70
:1051000070B102253FE0FF26C5E79DF8190022682F
:1051100000F0090C92F89A10BCF1090F04D009B9FB
:10512000012530E00007FBD592F85420500711D438
:1051300063689B79002BF3D0236893F854309A0767
:10514000EED09DF819309B0716D4FF2106A8FEF774
:10515000E7FCE5E76268D279002AE9D0424606A872
:10516000FEF756F90028E3D02068A0301CF04EFF6F
:105170000028DDD00C2506E0B8F1000F06D031463E
:1051800006A8FEF7CDFCFEF787FD2CE706A8FEF784
:1051900031F90028F3D1236893F85530023B012BF5
:1051A000BED8002FBCD0FE21D0E7FF269AE72268A8
:1051B00092F854209107B3D0616889790029AFD063
:1051C0009DF8195005F009010929A9D1920705F0A8
:1051D000020568D5002D39D0B8F1000F2AD00DF1A5
:1051E0001700FEF787FA00210320FFF795FD05461B
:1051F000D4E9003803F1420712F094F90123324652
:1052000006A903939DF917300293237ACDE9000391
:105210003B46404600F05CFC002D81D000283FF466
:105220007FAF2068A0301CF0F1FE00283FF478AF7B
:105230000B25A8E7002BAED006A8FEF7DBF8002868
:10524000CDD1A8E7E8230020680100200DF1170068
:10525000FEF750FA294603200125FFF75DFD0746BA
:10526000D4E9003903F1420812F05CF99DF91730D6
:10527000324606A903950293237ACDE900034346FB
:10528000484600F025FC002F3FF47DAF00283FF496
:105290007AAF2068A0301CF0B9FE0028C8D1606841
:1052A00000F0B2FB6FE7002D3FF44FAFB8F1000FF5
:1052B00001D031464AE706A8FEF79CF80028F8D14D
:1052C00069E7606800F0D0FB2AE700BF036D10B506
:1052D000044623B940F263313220FBF705FB02227A
:1052E000074942721B884381FF2380F827304FF61D
:1052F000FF7303851EF0D7F80023236510BD00BFA0
:10530000CFCF0100F8B5184F0E460121786100207B
:10531000FCF79CF8054620B940F687013220FBF7E0
:10532000E3FA4FF49472002122F099F90121084622
:10533000FCF78CF8044620B14FF49472002122F05F
:105340008EF93B6913B940F69101E7E7304617F053
:105350003BFF284618F0C6FC24B12046BDE8F840C3
:1053600018F0C0BCF8BD00BFE8230020014B024A82
:105370001A617047E82300206C010020034B044AA7
:105380001A60044B044A1A60704700BF680100208D
:10539000F5350000D400002039410000036810B545
:1053A00023B940F65E113220FBF79EFA044A1360DF
:1053B0006C3353601369BDE810401B68184700BF89
:1053C000E823002008B5044B586800F04DFBBDE809
:1053D0000840FEF77DBC00BFE823002038B590F8F8
:1053E0004030054613F0FD0F05F1420114BF0120C6
:1053F000002085F8410007F08FFB95F84030023B14
:10540000DBB2012B94BF0123002385F8483016D866
:1054100007F0E2FD044621F001FF094BA4FB033431
:105420001B184FF0000044EB0104C5E9203407F0DD
:1054300095FE20B940F602213220FBF755FA38BD1F
:1054400040420F00014936301EF030B88FCF0100C6
:1054500010B5084C0222636820681A7100F0B0FC95
:1054600038B9206818F020F82068BDE8104018F01E
:1054700098BD10BDE8230020013808B5C0B20A4B22
:1054800041B1032801D8185C08BD40F2B91133209E
:10549000FBF72AFA032802D818440079F4E74FF4FE
:1054A00050710620F4E700BFAEFF050008B517F005
:1054B000D0F9054AD2E84F3F0133DBB2C2E8413FA1
:1054C0000029F7D108BD00BF00240020024BA0F145
:1054D00008015868FFF7EABF002400202DE9F84FC3
:1054E0000D461E4600213B4B9346046801601A7826
:1054F0009DF828709DF82C809DF930909DF834A07F
:1055000032B9A4F108015868BDE8F84FFFF7CEBFE3
:105510001A2204F1090022F0A2F80123A372BBF1C0
:10552000060F4FD8DFE80BF00433394E434E3D00F1
:10553000E37A23F0130343F01303E372012304F12E
:105540000E0241462846237547F6FF7384F81890EB
:10555000E38204F10D0318F015F8E37A5B0736D502
:10556000BA1E04F11C03012A8BBFAA6832681168B5
:10557000E2618ABFE161B28892889A80E77600236F
:10558000237215492046BDE8F84F1DF08FBFE37A1E
:1055900023F0150343F01503CFE7E37A43F010033C
:1055A000CBE7E37A23F0120343F01203C5E7E27A74
:1055B0004AF01A0A22F01B020AF01B0A42EA0A0207
:1055C000E272BBE74FF484613320FBF78DF9FF23D0
:1055D000E376D4E700240020DD5500002DE9F04FEC
:1055E00005468DB00C4600200121FBF76DFF0646F5
:1055F00020B940F2C7113320FBF776F9A83018F034
:10560000F1FA18B196F85430042B2FD1304617F028
:10561000B0FD58BBB84C04F1080704F10C08AE6AA1
:105620009EB92846FFF752FF02238DF804608DF8DB
:1056300005309DF80430002063F307009DF8053025
:1056400063F30F200DB0BDE8F08FA96A0B68B94273
:10565000AB624FF000030B704B708B70CB70DED0E1
:105660004145DCD06068FFF721FFD8E7AE6A36B36A
:10567000A24B9E4226D0043B9E4223D006F13B0A19
:105680004FF0000807F01AF88146B8F1000F40F01B
:105690002E8102A9504618F073F8B9F1000F16D008
:1056A00004F10D00EF7A17F0100713D09DF8187071
:1056B00005993A4615F0D4FB4FF0010828E005F1B2
:1056C000330ADDE74FF001084FF0000ADAE704F192
:1056D0001C00E7E7002EEFD09DF80830022BEBD03E
:1056E000014695F83230E52250461DF074FB95F8DE
:1056F000323007460344504685F832301DF063FBD4
:1057000095F83280A8EB000CDCF1000848EB0C089F
:10571000B9F1000F2CD1042305F12301237007F107
:105720001803AA7A5343E270221D0233637005F115
:105730000B0353F8040B8B4242F8040BF9D195F894
:1057400014B095F815A006F0DBFFC1F340295846C8
:105750004946FFF791FE6073BAF1000F04D0494645
:105760005046FFF789FEA073E7762CE0C846002775
:10577000EB7AD80601D45B213DE75907AA7A95F860
:105780000DE004F1060005F10E0C2FD5E97EFE298F
:105790002CD11123E27084F805E023701301023349
:1057A000637001232371D5F80E30C4F80630BCF8BD
:1057B000043083802173EB69C4F80D302B8CA4F87E
:1057C00011302B7EE3744C4F07F1080A56453AD14D
:1057D0002379022605F1280066F34613237117F09A
:1057E000EDFE2846FFF772FE04273FE007F10A03AB
:1057F0000321E27053432170023384F805E06370A3
:10580000D5F80E30C4F80630BCF804308380277316
:1058100027442B7E7B73EA7A12F0080002D004231F
:105820002371D0E702F00303032B01D12071CAE7F3
:10583000520701D50123F3E7022BF1D00BB92171F7
:10584000C1E7A221D7E607F10C094E4515D105F1B4
:10585000280017F0B3FE6A7D6AB92379042762F342
:105860004613237102262846FFF730FE8DF8047098
:105870008DF80560DDE60027F4E77EB3B8F1000F90
:1058800026D005F12808404617F098FE3146786882
:10589000FFF70CFEAB6A0022534585F8322097D003
:1058A0004B450BD12379404662F34613237117F021
:1058B00085FE28460226FFF709FE95E79DF8083089
:1058C000022B05D12379012623F0680323718BE78E
:1058D0002379012666F34613237185E7EF7A17F0E3
:1058E0001007C3D0237966F346132371E1E700283C
:1058F0007FF43CAF07460EE7002400200C24002074
:10590000343270B5054692B20C461E4616F069FF59
:1059100025B1034A556014745674147070BD00BFED
:105920000024002010B5034C606816F07CFF237C37
:10593000237010BD00240020014B587C704700BF2D
:105940000024002038B5134D686816F072FF044635
:1059500020B940F247113320FAF7C6FFD5E84F3F90
:10596000013BDBB2C5E8413F0029F7D104F1080350
:105970003422184621F073FE47F6FF720121E462DB
:10598000E283FF22627584F82320E27C61F34612F1
:10599000E27438BD0024002038B5436A044693B948
:1059A0000A4D686816F045FF606220B94FF4B07187
:1059B0003320FAF799FFD5E84F3F013BDBB2C5E84A
:1059C000423F002AF7D1606A3B3038BD00240020F6
:1059D000036810B504465BB1596A49B101F1080288
:1059E000934204BF00230360064B5868FFF75EFD37
:1059F000216831B1034B08395868FFF757FD002380
:105A0000236010BD0024002038B5046805469CB111
:105A1000134920461DF053FD124B00221A735A738E
:105A20009A73DA73EFF3108272B6A16A0C3399B9E4
:105A3000A362E36202B962B62C68616A49B101F1FE
:105A400008039C4203D0074B5868FFF72FFD002343
:105A5000636200232B6038BDE16A0B60E9E700BF99
:105A6000DD5500000024002070B50668044656B3DA
:105A7000716A154D41B101F108039E4202D0686878
:105A8000FFF714FD0023736221684E7DB6B1002339
:105A90002B726B72AB72EB72EFF3108272B6886A84
:105AA0000A4B40B98B62CB6202B962B62046BDE8B0
:105AB0007040FFF7A9BFC86A0360F4E70839686857
:105AC000FFF7F4FC266070BD0024002008240020AD
:105AD0002DE9F0470468914606460D469A469DF822
