:10000000C83E0020A94B0000B5C80000954B000079
:10001000954B0000954B0000954B0000954B000060
:100020000000000000000000000000001D4D000066
:10003000954B000000000000B14C0000954B000003
:10004000A94E0000A94E0000A94E0000A94E0000D4
:10005000A94E0000A94E0000A94E0000A94E0000C4
:10006000A94E0000A94E0000A94E0000A94E0000B4
:10007000A94E0000A94E0000A94E0000A94E0000A4
:1004800081F0004102E000BF83F0004330B54FEA45
:1004900041044FEA430594EA050F08BF90EA020FB2
:1004A0001FBF54EA000C55EA020C7FEA645C7FEA45
:1004B000655C00F0E2804FEA5454D4EB5555B8BF68
:1004C0006D420CDD2C4480EA020281EA030382EAD9
:1004D000000083EA010180EA020281EA0303362D6B
:1004E00088BF30BD11F0004F4FEA01314FF4801C3E
:1004F0004CEA113102D0404261EB410113F0004F50
:100500004FEA03334CEA133302D0524263EB430306
:1005100094EA050F00F0A780A4F10104D5F1200EA4
:100520000DDB02FA0EFC22FA05F2801841F10001FF
:1005300003FA0EF2801843FA05F359410EE0A5F1D3
:1005400020050EF1200E012A03FA0EFC28BF4CF004
:10055000020C43FA05F3C01851EBE37101F00045BA
:1005600007D54FF0000EDCF1000C7EEB00006EEBC7
:100570000101B1F5801F1BD3B1F5001F0CD3490851
:100580005FEA30004FEA3C0C04F101044FEA4452A8
:1005900012F5800F80F09A80BCF1004F08BF5FEA2F
:1005A000500C50F1000041EB045141EA050130BD0F
:1005B0005FEA4C0C404141EB0101013C28BFB1F521
:1005C000801FE9D291F0000F04BF01460020B1FA6C
:1005D00081F308BF2033A3F10B03B3F120020CDA3F
:1005E0000C3208DD02F1140CC2F10C0201FA0CF01D
:1005F00021FA02F10CE002F11402D8BFC2F1200C82
:1006000001FA02F120FA0CFCDCBF41EA0C01904037
:10061000E41AA2BF01EB0451294330BD6FEA040480
:100620001F3C1CDA0C340EDC04F11404C4F120026B
:1006300020FA04F001FA02F340EA030021FA04F37D
:1006400045EA030130BDC4F10C04C4F1200220FAD4
:1006500002F001FA04F340EA0300294630BD21FA12
:1006600004F0294630BD94F0000F83F4801306BFD8
:1006700081F480110134013D4EE77FEA645C18BFCC
:100680007FEA655C29D094EA050F08BF90EA020F63
:1006900005D054EA000C04BF1946104630BD91EA5B
:1006A000030F1EBF0021002030BD5FEA545C05D15E
:1006B0004000494128BF41F0004130BD14F580049D
:1006C0003CBF01F5801130BD01F0004545F0FE4111
:1006D00041F470014FF0000030BD7FEA645C1ABF46
:1006E000194610467FEA655C1CBF0B46024650EA7D
:1006F000013406BF52EA033591EA030F41F40021A9
:1007000030BD00BF90F0000F04BF0021704730B52E
:100710004FF4806404F132044FF000054FF0000103
:1007200050E700BF90F0000F04BF0021704730B5C4
:100730004FF4806404F1320410F0004548BF404299
:100740004FF000013EE700BF42004FEAE2014FEAEE
:1007500031014FEA02701FBF12F07F4393F07F4FC9
:1007600081F06051704732F07F4208BF704793F0CC
:100770007F4F04BF41F40021704730B54FF46074DF
:1007800001F0004521F000411CE700BF50EA0102E2
:1007900008BF704730B54FF000050AE050EA01028B
:1007A00008BF704730B511F0004502D5404261EBFB
:1007B00041014FF4806404F132045FEA915C3FF43C
:1007C000D8AE4FF003025FEADC0C18BF03325FEAD9
:1007D000DC0C18BF033202EBDC02C2F1200300FA8A
:1007E00003FC20FA02F001FA03FE40EA0E0021FAAF
:1007F00002F11444BDE600BF80F0004002E000BFFB
:1008000081F0004142001FBF5FEA410392EA030FFB
:100810007FEA226C7FEA236C6AD04FEA1262D2EB45
:100820001363C1BFD218414048404140B8BF5B424A
:10083000192B88BF704710F0004F40F4000020F0E3
:100840007F4018BF404211F0004F41F4000121F0F9
:100850007F4118BF494292EA030F3FD0A2F1010243
:1008600041FA03FC10EB0C00C3F1200301FA03F181
:1008700000F0004302D5494260EB4000B0F5000FA4
:1008800013D3B0F1807F06D340084FEA310102F163
:100890000102FE2A51D2B1F1004F40EBC25008BF15
:1008A00020F0010040EA03007047490040EB0000DF
:1008B000013A28BFB0F5000FEDD2B0FA80FCACF1E0
:1008C000080CB2EB0C0200FA0CF0AABF00EBC2500D
:1008D00052421843BCBFD0401843704792F0000FFB
:1008E00081F4000106BF80F400000132013BB5E74E
:1008F0004FEA41037FEA226C18BF7FEA236C21D0C4
:1009000092EA030F04D092F0000F08BF0846704728
:1009100090EA010F1CBF0020704712F07F4F04D1F6
:10092000400028BF40F00040704712F100723CBF09
:1009300000F50000704700F0004343F0FE4040F433
:10094000000070477FEA226216BF08467FEA2363F1
:100950000146420206BF5FEA412390EA010F40F4DC
:10096000800070474FF0000304E000BF10F0004328
:1009700048BF40425FEA000C08BF704743F096430F
:1009800001464FF000001CE050EA010208BF70472A
:100990004FF000030AE000BF50EA010208BF7047B1
:1009A00011F0004302D5404261EB41015FEA010CC6
:1009B00002BF84460146002043F0B64308BFA3F1BE
:1009C0008053A3F50003BCFA8CF2083AA3EBC253A0
:1009D00010DB01FA02FC634400FA02FCC2F12002BF
:1009E000BCF1004F20FA02F243EB020008BF20F0F6
:1009F0000100704702F1200201FA02FCC2F120025C
:100A000050EA4C0021FA02F243EB020008BF20EA50
:100A1000DC7070474FF0FF0C1CEAD0521EBF1CEA7E
:100A2000D15392EA0C0F93EA0C0F6FD01A4480EA6C
:100A3000010C400218BF5FEA41211ED04FF0006355
:100A400043EA501043EA5111A0FB01310CF0004081
:100A5000B1F5000F3EBF490041EAD3715B0040EAA7
:100A6000010062F17F02FD2A1DD8B3F1004F40EB77
:100A7000C25008BF20F00100704790F0000F0CF04A
:100A8000004C08BF49024CEA502040EA51207F3A0E
:100A9000C2BFD2F1FF0340EAC250704740F40000E9
:100AA0004FF00003013A5DDC12F1190FDCBF00F0DA
:100AB00000407047C2F10002410021FA02F1C2F188
:100AC000200200FA02FC5FEA310040F1000053EA24
:100AD0004C0308BF20EADC70704792F0000F00F072
:100AE000004C02BF400010F4000F013AF9D040EA78
:100AF0000C0093F0000F01F0004C02BF490011F40C
:100B0000000F013BF9D041EA0C018FE70CEAD15309
:100B100092EA0C0F18BF93EA0C0F0AD030F0004C89
:100B200018BF31F0004CD8D180EA010000F000403D
:100B3000704790F0000F17BF90F0004F084691F0FB
:100B4000000F91F0004F14D092EA0C0F01D1420235
:100B50000FD193EA0C0F03D14B0218BF084608D1FE
:100B600080EA010000F0004040F0FE4040F4000048
:100B7000704740F0FE4040F4400070474FF0FF0CDB
:100B80001CEAD0521EBF1CEAD15392EA0C0F93EA22
:100B90000C0F69D0A2EB030280EA010C49024FEA74
:100BA000402037D04FF0805343EA111143EA10132D
:100BB0000CF000408B4238BF5B0042F17D024FF4E5
:100BC000000C8B4224BF5B1A40EA0C00B3EB510FC0
:100BD00024BFA3EB510340EA5C00B3EB910F24BFA9
:100BE000A3EB910340EA9C00B3EBD10F24BFA3EB2E
:100BF000D10340EADC001B0118BF5FEA1C1CE0D1F6
:100C0000FD2A3FF650AF8B4240EBC25008BF20F0A8
:100C1000010070470CF0004C4CEA50207F32C2BFFC
:100C2000D2F1FF0340EAC250704740F400004FF099
:100C30000003013A37E792F0000F00F0004C02BFCA
:100C4000400010F4000F013AF9D040EA0C0093F094
:100C5000000F01F0004C02BF490011F4000F013BEE
:100C6000F9D041EA0C0195E70CEAD15392EA0C0F56
:100C700008D142027FF47DAF93EA0C0F7FF470AF8E
:100C8000084676E793EA0C0F04D14B023FF44CAFD1
:100C900008466EE730F0004C18BF31F0004CCAD166
:100CA00030F000427FF45CAF31F000437FF43CAFA2
:100CB0005FE700BF4FF0FF3C06E000BF4FF0010CC4
:100CC00002E000BF4FF0010C4DF804CD4FEA4002A6
:100CD0004FEA41037FEA226C18BF7FEA236C11D0F0
:100CE00001B052EA530C18BF90EA010F58BFB2EBA3
:100CF000030088BFC81738BF6FEAE17018BF40F023
:100D0000010070477FEA226C02D15FEA402C05D1D6
:100D10007FEA236CE4D15FEA412CE1D05DF8040B5B
:100D2000704700BF844608466146FFE70FB5FFF7EE
:100D3000C9FF002848BF10F1000F0FBD4DF808EDA6
:100D4000FFF7F4FF0CBF012000205DF808FB00BF97
:100D50004DF808EDFFF7EAFF34BF012000205DF8F1
:100D600008FB00BF4DF808EDFFF7E0FF94BF01203E
:100D700000205DF808FB00BF4DF808EDFFF7D2FF3B
:100D800094BF012000205DF808FB00BF4DF808ED7E
:100D9000FFF7C8FF34BF012000205DF808FB00BF4B
:100DA0007BB972B90029BEBF00204FF0004106E0B8
:100DB00008BF00281CBF6FF000414FF0FF3000F06B
:100DC00057B8ADF1080C6DE904CE002909DB002B02
:100DD0001ADB00F069F8DDF804E0DDE9022304B075
:100DE0007047404261EB4101002B1BDB00F05CF8D7
:100DF000DDF804E0DDE9022304B0404261EB41018B
:100E0000524263EB43037047524263EB430300F0EB
:100E10004BF8DDF804E0DDE9022304B0404261EB69
:100E200041017047524263EB430300F03DF8DDF8A7
:100E300004E0DDE9022304B0524263EB4303704750
:100E400053B94AB9002908BF00281CBF4FF0FF3131
:100E50004FF0FF3000F00CB8ADF1080C6DE904CE96
:100E600000F022F8DDF804E0DDE9022304B0704769
:100E7000704700BF10F8012B11F8013B012A28BF71
:100E80009A42F7D0D01A7047034611F8012B03F8A5
:100E9000012B002AF9D17047034613F8012B002AD1
:100EA000FBD1181A013870472DE9F04786468C4669
:100EB0000846089E154674461946002B40F0C1802E
:100EC0008542B2FA82F245D94AB1C2F1200300FA52
:100ED00002FC954094402EFA03F343EA0C0C4FEACF
:100EE000154EA8B2230CBCFBFEF80EFB18CC08FB79
:100EF00000F943EA0C43994528D9EB1808F1FF376C
:100F000004D2994502D9A8F102072B44A3EB0903A7
:100F1000A4B2B3FBFEFC0EFB1C330CFB00F044EA56
:100F20000344A04214D92C190CF1FF3304D2A0427F
:100F300002D9ACF102032C44241A43EA07401EB143
:100F4000D440002334607360BDE8F0874746DDE796
:100F50006346F1E792BB431B01214FEA154EAFB246
:100F6000200CB3FBFEFC0EFB1C330CFB07F840EA25
:100F70000343984561D9EB180CF1FF3004D2984532
:100F800002D9ACF102002B44A3EB0803A4B2B3FBDB
:100F9000FEFC0EFB1C330CFB07F744EA0344A7429C
:100FA0004DD92C190CF1FF3304D2A74202D9ACF170
:100FB00002032C44E41B43EA0040C0E7C2F12003D3
:100FC0009540944020FA03F12EFA03F34FEA154EB0
:100FD0009040AFB20343B1FBFEFC0EFB1C10190C9A
:100FE0000CFB07F841EA0041884522D969180CF149
:100FF000FF3004D2884502D9ACF102002944A1EBAC
:1010000008019BB2B1FBFEFC0EFB1C110CFB07F7A9
:1010100043EA01439F420ED9EB180CF1FF3104D291
:101020009F4202D9ACF102012B44DB1B41EA004193
:1010300093E76046E3E76146F7E76046A4E7634667
:10104000B8E7834206D916B9002108467CE7C6E90D
:1010500000E0F9E7B3FA83F78FB9834201D3724511
:1010600008D8BEEB020460EB030301209C461EB9C6
:10107000002169E73846FAE7C6E9004CF8E7C7F10E
:10108000200CBB400EFA07F522FA0CF42EFA0CF1F4
:10109000BA401C4320FA0CF3B8404FEA144901430C
:1010A0001FFA84FEB3FBF9F809FB18300B0C08FBA0
:1010B0000EFA43EA00439A4540D9E31808F1FF309D
:1010C00004D29A4502D9A8F102002344A3EB0A03F3
:1010D00089B2B3FBF9F809FB183308FB0EFE41EAAD
:1010E00003418E452CD9611808F1FF3304D28E4597
:1010F00002D9A8F10203214443EA0040A1EB0E010A
:10110000A0FB02984145CE46434602D306D14D4549
:1011100004D20138B9EB020E68EB0403002EA7D00D
:10112000B5EB0E0261EB030101FA0CFC22FA07F3A6
:10113000F9404CEA0303C6E9003199E74046C5E7A8
:101140004346D9E7000000002DE9F04704460F466A
:10115000164688B00CF0F0FB4FF47A75A0FB050C36
:1011600047F6122205FB01C10023FFF769FE012F9C
:1011700080460D4607D102460B46204626490AF016
:10118000C1FC002011E0766824483146FFF772FE6A
:1011900070B131462248FFF76DFE48B12046324615
:1011A00020490AF0CBFC6FF0040008B0BDE8F087DE
:1011B000404617A3D3E900232946FFF7F1FD064671
:1011C0000D4610461946184A0023FFF7E9FD8046F0
:1011D0000F46104619464EF660220023FFF7E0FD49
:1011E00082468946104619464FF47A720023FFF76B
:1011F000D7FDCDE902A9CDE90623CDE904013246A8
:101200002B462046CDE9008708490AF07BFCB8E769
:10121000005C260500000000FA1901000B1A01000D
:101220000E1A0100171A010080EE36002F1A010075
:101230001FB514480AF013F9002004F085FA18B914
:1012400011480AF00CF90CE00023019303930123E9
:10125000694602930AF072F9011E06DA0B480AF099
:10126000FEF8002005B05DF804FB029B9B07FCD153
:10127000039909B10648F2E70122064B06489A6035
:10128000DFE700BFE4090100010A0100220A0100B2
:101290003C0A010000E010505C0A0100012910B571
:1012A0000C4603D10AF09EFC204610BD022906D947
:1012B000126806490AF042FC6FF01500F5E702D10A
:1012C00052680349F6E70020EFE700BF6F0A01000C
:1012D000890A0100012910B50C4603D10AF082FCED
:1012E000204610BD022906D9126806490AF026FCDC
:1012F0006FF01500F5E702D152680349F6E70020C8
:10130000EFE700BF9E0A0100890A0100012910B51C
:101310000C4603D10AF066FC204610BD022906D90E
:10132000126806490AF00AFC6FF01500F5E702D1D1
:1013300052680349F6E70020EFE700BF9E0A01006C
:10134000B90A0100012938B505460C4603D10AF057
:1013500049FC204638BD022906D912680C490AF01A
:10136000EDFB6FF01500F5E750680CF076FE5028A5
:10137000024604D9284607490AF0E0FBF1E7064B8C
:101380000649D87028460AF0BDFB0020E2E700BFFE
:101390006F0A0100CF0A010030000020F10A0100AD
:1013A000012938B505460C4603D10AF01BFC20463E
:1013B00038BD022906D912680C490AF0BFFB6FF04C
:1013C0001500F5E750680CF048FE5028024604D995
:1013D000284607490AF0B2FBF1E7064B06491871A7
:1013E00028460AF08FFB0020E2E700BF6F0A0100E9
:1013F000CF0A0100300000200B0B0100012938B595
:1014000005460C4603D10AF0EDFB204638BD022903
:1014100006D912680C490AF091FB6FF01500F5E748
:1014200050680CF01AFE6328024604D92846074982
:101430000AF084FBF1E7064B0649986028460AF05B
:1014400061FB0020E2E700BF6F0A0100230B0100EF
:10145000300000204B0B01000F2208B5034B04495C
:101460005A70044A0AF04EFB002008BD30000020EC
:10147000840B0100620B0100062208B5034B0449EE
:101480005A70044A0AF03EFB002008BD30000020DC
:10149000840B0100930B0100052208B5034B04499E
:1014A0005A70044A0AF02EFB002008BD30000020CC
:1014B000840B0100B00B0100042208B5034B044962
:1014C0005A70044A0AF01EFB002008BD30000020BC
:1014D000840B0100CD0B0100032208B5034B044926
:1014E0005A70044A0AF00EFB002008BD30000020AC
:1014F000840B0100E60B01000A2208B5034B0449E6
:101500005A70044A0AF0FEFA002008BD300000209C
:10151000840B0100FF0B0100092208B5034B0449AD
:101520005A70044A0AF0EEFA002008BD300000208C
:10153000840B01001F0C0100012208B5034B044974
:101540005A70044A0AF0DEFA002008BD300000207C
:10155000840B01003F0C010010B50024034B044A2A
:1015600004495C700AF0CEFA204610BD300000201D
:10157000580C0100840B0100D222034B03499A70DE
:101580006FF02D020AF0BEBA30000020710C01008D
:10159000D822034B03499A706FF027020AF0B2BABF
:1015A00030000020710C0100E422034B03499A70C3
:1015B0006FF01B020AF0A6BA30000020710C010087
:1015C000EA22034B03499A706FF015020AF09ABAA7
:1015D00030000020710C0100EC22034B03499A708B
:1015E0006FF013020AF08EBA30000020710C010077
:1015F000EE22034B03499A706FF011020AF082BA8F
:1016000030000020710C0100F022034B03499A7056
:101610006FF00F020AF076BA30000020710C010062
:10162000F222034B03499A706FF00D020AF06ABA76
:1016300030000020710C0100F422034B03499A7022
:101640006FF00B020AF05EBA30000020710C01004E
:10165000F622034B03499A706FF009020AF052BA5E
:1016600030000020710C0100F722034B03499A70EF
:101670006FF008020AF046BA30000020710C010039
:10168000F822034B03499A706FF007020AF03ABA46
:1016900030000020710C0100F922034B03499A70BD
:1016A0006FF006020AF02EBA30000020710C010023
:1016B000FA22034B03499A706FF005020AF022BA2E
:1016C00030000020710C0100FB22034B03499A708B
:1016D0006FF004020AF016BA30000020710C01000D
:1016E000FC22034B03499A706FF003020AF00ABA16
:1016F00030000020710C0100FD22034B03499A7059
:101700006FF002020AF0FEB930000020710C0100F7
:10171000FE22034B03499A706FF001020AF0F2B9FE
:1017200030000020710C0100FF22034B03499A7026
:101730004FF0FF320AF0E6B930000020710C0100D2
:101740000022024B02499A700AF0DCB930000020F6
:10175000710C01000122024B02499A700AF0D2B9C1
:1017600030000020710C01000222024B02499A70E5
:101770000AF0C8B930000020710C01000322024BAE
:1017800002499A700AF0BEB930000020710C0100C5
:101790000422024B02499A700AF0B4B930000020CA
:1017A000710C01000522024B02499A700AF0AAB995
:1017B00030000020710C01000622024B02499A7091
:1017C0000AF0A0B930000020710C01000722024B82
:1017D00002499A700AF096B930000020710C01009D
:1017E0000822024B02499A700AF08CB9300000209E
:1017F000710C0100022208B5034B04491A70044A17
:101800000AF080F9002008BD300000209E0C010085
:10181000840C0100012208B5034B04491A70044AE4
:101820000AF070F9002008BD300000209E0C010075
:10183000B80C010010B50024034B044A04491C7085
:101840000AF060F9204610BD30000020D20C0100E3
:101850009E0C010037B5264D264904460AF052F980
:101860006A780F2A3CD8DFE802F02D2F3B31333560
:10187000373B3B082B3B3B3B3B391F4A1F4920462C
:101880000AF040F995F9022020461D490AF03AF97C
:101890002A78012A26D0022A26D03ABB194A1A49A8
:1018A00020460AF02FF9EB6820460193AB681749F0
:1018B00000932B79EA780AF025F9002003B030BDB7
:1018C000134ADBE7134AD9E7134AD7E7134AD5E7A8
:1018D000134AD3E7134AD1E7134ACFE7134ACDE7B8
:1018E0001349CCE7134ADAE7134AD8E71349D7E795
:1018F00030000020EA0C01001F0C0100840B0100E5
:10190000710C0100D20C01009E0C0100400D010081
:10191000FF0B0100580C01003F0C0100E60B010019
:10192000CD0B0100B00B0100930B0100620B010015
:10193000F70C0100B80C0100840C01001E0D010021
:10194000104B10B5002104460E2218460CF07DFB0A
:101950000422034603F8022C0B4B02385A784270DB
:10196000DA7802711A799B684271836000F016FD83
:101970000122064B204606491A700AF0C3F80020DF
:1019800010BD00BF92120020300000200E1D00206C
:101990009B0D0100104B10B50E2204460021184685
:1019A0000CF053FB0322034603F8022C0B4B0238C6
:1019B0005A78996842701A795B8881608380827155
:1019C00000F0ECFC0122064B204606491A700AF092
:1019D00099F8002010BD00BF9212002030000020B6
:1019E0000E1D0020A50D0100014809F038BD00BF03
:1019F000AF0D01007FB5002301A8CDE901330393AA
:101A000000F0DEFD1A4B039E1C690CB1A64204D9FE
:101A1000184809F024FD04B070BDA01BFEF7A2FF1A
:101A200005462046FEF79EFF01462846FFF7A6F82A
:101A30001149FEF7EFFF0546104809F010FD314649
:101A40000F4809F00CFD21460E4809F008FD284614
:101A5000FEF77AFE02460B460B4809F000FD2846C9
:101A60000A49FFF789F90028D5D00948D1E700BF16
:101A700030000020CE0D01000000C842E91B01002B
:101A8000E70D0100070E0100280E010000002041B3
:101A90003C0E010030B50446002585B001A8CDE913
:101AA0000155039500F08CFD204608490AF02AF8FC
:101AB000DDE9011220460AF04FF82046039A044956
:101AC0000AF020F8284605B030BD00BF610E0100C5
:101AD000740E0100014800F08BBD00BF9012002081
:101AE00013B50C4B04465B780F2B11D10B390F2922
:101AF0000ED91A23084A009308490B230AF002F86A
:101B00000B222046064902B0BDE8104009F0FABF9A
:101B100002B010BD30000020620B01008B0E0100EE
:101B2000C10E010038B50F4D04462B781BB100F0F3
:101B300027FD00232B700C4D2046E978FFF7D0FFDE
:101B40000A4B0021184610220CF07FFA6A78427086
:101B50006A88828000F022FC2046054909F0D2FF05
:101B6000002038BD0E1D0020300000209012002003
:101B7000D40E01002DE9F041204C0546237888461B
:101B800017461BB100F0FCFC002323701C4E2846B6
:101B9000F178FFF7A5FFB8F1020F08D928463A6897
:101BA000184909F0CBFF6FF01500BDE8F081164B26
:101BB0000E22184600210CF048FA01227378B8F181
:101BC000020F00F8013CB378A0F102042371F3780E
:101BD00000F8022CA3713378637105D178680CF09A
:101BE0003CFA0A4BA060E360094800F0D7FB2846A6
:101BF000084909F087FF0020D7E700BF0E1D00202D
:101C0000300000209E0A010092120020E919000015
:101C100090120020EA0E0100012938B505460C4655
:101C200003D109F0DFFF204638BD022906D912682A
:101C3000184909F083FF6FF01500F5E750680CF0C4
:101C40000CFA5A2804D92846134909F077FFF2E71D
:101C5000124CE178E0602846FFF742FF104B0E225D
:101C6000002118460CF0F1F90522034603F8022C76
:101C7000637802384370A378037123784371E37863
:101C80008371E368836000F089FB0122054B00202B
:101C90001A70C9E79E0A01000A0F010030000020F7
:101CA000921200200E1D00202DE9F041204D044627
:101CB0002B78884617461BB100F062FC00232B707E
:101CC000B8F1020F08D920463A681A4909F036FFE0
:101CD0006FF01500BDE8F081174E2046F178FFF750
:101CE000FFFE164B0E22184600210CF0AEF9022220
:101CF0007378904500F8013CF378A0F102056B7110
:101D0000337800F8022C2B710CD178680CF0A5F90F
:101D10000B4B3061A860EB6020B92046094909F0FF
:101D20000DFFD5E7084800F039FB0020D2E700BFDF
:101D30000E1D0020300F0100300000209212002004
:101D4000F5190000480F01009012002000224FF00A
:101D5000FF310A4BC3F80024C3F89014C3F82022C3
:101D6000D3F8202201221A61D3F82022002AFBD0C6
:101D70000022C3F82022D3F82032704700A0085078
:101D800010B5FFF7E3FF044B1B6823B11B6813B1C9
:101D9000BDE81040184710BDA012002010B51C4B24
:101DA0000446D3F88824110516D5D3F82C229AB10D
:101DB0000022C3F82C22174AD3F82C3213680133BF
:101DC0001360826842B193420CBF002240F6354254
:101DD0000023114806F0F8FC0D4BD3F88824520676
:101DE00014D5D3F818228AB10022C3F818220B4A5E
:101DF000D3F81832136801331360A268934205D1F7
:101E0000FFF7A4FFE368BDE81040184710BD00BF0E
:101E100000A00850A812002000000020AC120020F2
:101E200073B5124B124C187020460D4605F09EFDFE
:101E3000104B0026D3F800224FF0FF32C3F80062A7
:101E40002946C3F80823204605F0BEFD01230246BB
:101E5000009320464FF0011331460BF096FA2046CE
:101E600002B0BDE8704005F073BD00BF111D002039
:101E70006CEF00000050085000F12E0310B504462E
:101E8000362B5ED8DFE803F0645D5D5D5D5D1C5D53
:101E90005D5D5D5D5D5D5D5D5D5D2F5D5D5D5D5DA0
:101EA000625D625D315D335D355D375D393B3D3F80
:101EB00041434547494B604D4F51535557595B007E
:101EC0004FF49873244AC2F81037244B1B78002B28
:101ED00041D12146224809F0C2FA2146BDE810400E
:101EE000204809F0BCBA0123ECE70323EAE7042306
:101EF000E8E70523E6E70623E4E70723E2E708230C
:101F0000E0E70923DEE70A23DCE70B23DAE70D230A
:101F1000D8E70F23D6E71123D4E71323D2E71523FD
:101F2000D0E71B23CEE71F23CCE72323CAE72823D0
:101F3000C8E72D23C6E73323C4E73923C2E73F238D
:101F4000C0E7094809F08BFA1823BBE70223B9E779
:101F50004FF48873B6E710BD00A00850101D002094
:101F6000DA180100FF1801009B1801001FB50124B9
:101F70000022444BA142C3F80447C3F8442EC3F8DF
:101F8000482EC3F83C2EC3F8404E2AD0022922D056
:101F9000002959D1AB22C3F8342E4FF0AB32C3F82D
:101FA0002C2E0023CDF80530CDF80130FF238DF81D
:101FB00008304FF48273ADF80A30012304388DF8ED
:101FC0000C300B285BD8DFE800F05541415A5A55D8
:101FD000555A5A5A5A11CC22C3F8342E4FF0CC32EB
:101FE000DDE76A22C3F8342E274AD8E702238DF8AA
:101FF00005307F238DF808300023ADF80A308DF8C6
:102000000C308523214A13809DF807309DF8042069
:102010005B0743EA82539DF8052043EA0263194AAD
:1020200043F00803C2F8203E9DF80A309DF80B10DB
:102030001B0443EA01639DF808100B439DF80C1044
:1020400043EA4163C2F8283E04B010BD40F20233B7
:10205000ADF80430032340F203128DF80730ADF8D9
:102060000A30084BC3F8442E0022C3F8482E4FF420
:102070008B73C7E78DF8053040F20713C2E74FF4C2
:102080008373BFE700A008501B81FE580C1D002081
:1020900038B504460D46FFF769FF0F2C14BFFF2328
:1020A0007E230C4C012D237010D0022D08D01DB9B9
:1020B000FF21601C03F01EFA074BC3F8D04E38BD59
:1020C000FF22CC21601C0BF0C0FFF5E7FF22F021BE
:1020D000F8E700BF121E002000A008500F280DD105
:1020E000A1F10B030F2B0CD801EB810101F62E118E
:1020F000054BA1F51661C3F80817704701F5166185
:10210000F6E740F66511F3E700A0085010B5214C42
:10211000D4E8EF3F23F48032C4E8E12F0029F7D15F
:10212000D80304D51C4B1D4918780BF087F9D4E867
:10213000EF3F23F00402C4E8E12F0029F7D159074B
:1021400005D5154B164A174918780BF09AF9D4E8BB
:10215000EF3F23F01002C4E8E12F0029F7D1DA069F
:1021600005D50D4B104A0F4918780BF08AF9D4E8C1
:10217000EF3F23F48072C4E8E12F0029F7D1DB059B
:1021800007D5BDE81040044B054A084918780BF004
:1021900078B910BDA41200200F1D00200050085077
:1021A00000A008500071085004A008504051085089
:1021B00070B50446164DFFF7A9FF287814B3154AE9
:1021C000154905F0F1FD04230126144C06FA03F32A
:1021D000D4E8EF2F1A43C4E8E12F0029F8D11049C1
:1021E00028780BF007F9D4E8EF3F43F48033C4E8D4
:1021F000E23F002AF7D1287806FA00F0BDE87040E7
:102200000BF078B9074A044905F0CEFD0223DBE75D
:102210000F1D002004A0085000710850A4120020D7
:102220000050085000A0085038B50446154608462E
:10223000FFF78CFD0F2C08BF0222104BC3F800459E
:1022400008BFC3F81028D3F8002442F00102C3F8F5
:102250000024FFF711FE2046094C2946FFF73EFFF8
:10226000237843B10020FFF7A3FF23781BB1054B70
:1022700001221A6038BD014BFAE700BF00A00850E8
:10228000101D0020007008502DE9F04105460F4652
:1022900010461E46FFF75AFD0F2D08BF02231B4CA8
:1022A0000146C4F8005508BFC4F81038D4F800340B
:1022B000284643F02103C4F80034154BC4F8D03E3F
:1022C000FFF754FE002239462846FFF707FF114B5F
:1022D0001A604FF40063C4F888340F4C23787BB144
:1022E0000120FFF765FF237853B101220B4B1A60E1
:1022F00056B1BDE8F0410023094A0A4806F064BA25
:102300000122024B5A60F3E7BDE8F08100A00850BB
:10231000121D0020A8120020101D0020007008507F
:10232000B4C4040000000020B0F5A07F10B50C4636
:1023300019D10978032917D10122154B60781A7039
:10234000144B94F904101A78FFF76EFF6279A079A4
:1023500000210F4B19700F490B780133DBB2834218
:1023600098BF1A460A7010BD04290CD10122084BEF
:1023700008491A706078227900230978FFF784FFF2
:1023800022796079E4E70448BDE8104009F067B8B5
:10239000101D0020111D0020211901002DE9F3411D
:1023A0000378052B47D8DFE803F0030C4952595C4A
:1023B000427990F90410407802B0BDE8F041FFF78F
:1023C00033BF447890F8058090F904708679856869
:1023D000FFF7BCFC20464146FFF75AFE062C5D4B3A
:1023E0005D4907D8D3F800240A43C3F80024C3F892
:1023F00000450BE00F2CF5D1D3F800240A43C3F8B5
:1024000000240222C3F80045C3F810283846FFF71D
:1024100033FD002231462046FFF760FE4F4B1A6025
:102420004C4BC3F81822D3F8182215B14022C3F838
:10243000882401221A6002B0BDE8F0818368027925
:102440004179407802B0BDE8F041FFF71DBF8168D7
:10245000407902B0BDE8F041FFF7E2BC8168007945
:10246000F7E7447890F80580856890F904708679DC
:10247000FFF76CFC20464146FFF70AFE0F2C08BF11
:102480000223344A3846C2F8004508BFC2F8103863
:10249000D2F8003443F4002343F00103C2F80034BF
:1024A000FFF7EAFC31462046FFF718FE2C4A2D4B79
:1024B00012881B5DC5F1640453435C43B4FBF5F41F
:1024C00029481C4405F052FA0020FFF771FE274B03
:1024D0000025D3F800224FF0FF32C3F80052214606
:1024E000C3F80823204805F04FFA022302460121D1
:1024F0001D4800950AF049FFEFF31186202383F36E
:102500001288BFF36F8F0125194B1A4C1D6020787C
:102510000AF0D4FF20B1207805FA00F00AF0FCFFA1
:10252000FFF7F4FD0B4A1449207805F03DFC134BEE
:10253000D3E8EF1F41F48071C3E8E21F002AF7D10E
:102540000120237898400AF0D5FF86F31188BFF365
:102550006F8F70E700A0085001001000AC1200203F
:102560000C1D00207E1901006CEF00000050085087
:10257000007008500F1D002044510850A412002084
:1025800010B50C4805F0F2F90A480AF0E2FE002204
:10259000094C0A4B20781A700AF090FF20B10120F4
:1025A000237898400AF0B8FFFFF7B0FDBDE810406F
:1025B000FFF7CCBB6CEF00000F1D0020101D0020AA
:1025C000084B094AD3F8003503F00F030F2B14BF53
:1025D0004FF480737F23C0E90023044B1B688360A2
:1025E000704700BF00A00850121D0020A812002054
:1025F0004FF4007330B51A4A87B0CDE90323059034
:1026000003A90446174A184805F07EF9174B0146FE
:10261000984202D0164808F022FF00250022062129
:1026200085200AF04EF923460621124A8A20009599
:102630000AF04FF98A2002F097FB0F4805F084FB5F
:102640000A4B984206D00D4808F009FF6FF00D00C4
:1026500007B030BD0A4B0C3428461C60F8E700BFB9
:1026600040420F00292300006CEF00000000AD0B7A
:102670003B1901009D1D00000F1D00205C19010089
:10268000A0120020014B1B68184700BF4400002027
:10269000014B1860704700BF4400002030B585B082
:1026A00004460D461022002168460BF0CEFC0223A2
:1026B0008DF80230044B2A4621466846019307F004
:1026C00007FE05B030BD00BF8526000080B5054679
:1026D0000E461746984606F0D7FB03460BF0DCFE85
:1026E0000446DFF81890424649F800303946304633
:1026F000A84754F8090002F0C5FA00BF080000001E
:102700002DE9F047058B04462807904611D402298D
:1027100005F0070540F0CC80204608F0ADFE78B10A
:102720000138218B042811D8DFE800F0C2106D8534
:10273000950001290CBF45F0100545F020052583C3
:1027400088F31188BFF36F8FBDE8F08701F0070AA7
:10275000AA4500F0A5800027B9463E46A368002B95
:1027600000F0BC8041F00801218388F31188BFF399
:102770006F8FA168002900F0BA800D68002900F071
:10278000B680334652462046D1F80480C047002D1B
:1027900076D02B6829461D46F0E701F007035A1F43
:1027A000012A1BD8002221F00701062B276889B2D5
:1027B000C4E9002209D13B4603E0628B0132628307
:1027C0001B68002BF9D141F002012046218308F05B
:1027D00053FE00287AD041F0200176E0042B0AD184
:1027E00021F0070189B22046218308F045FE10B18F
:1027F00041F020012183218B01F0070AAA454FD027
:102800000027B946AAE7236921F0070141F0060134
:10281000062DD3F8009021832DD1B9F1000F3FD0C0
:1028200041F00801218388F31188BFF36F8F2046A0
:102830003949C84729E021F00701236941F0040123
:1028400089B2042DD3F804902183E6D000274FF0FD
:10285000040A3E4682E721F00701236941F00501A1
:1028600089B2052DD3F808902183D6D000274FF0E8
:10287000050A3E4672E700274FF0060A3E466DE71E
:102880002B4687E7B9F1000FD1D1EFF31188202350
:1028900083F31288BFF36F8F238B23F00803238306
:1028A000258BEA062ED525F01003238305F00705B6
:1028B0006669218B002EBFF670AF00232768C4E93C
:1028C000003321F0070141F001012183218B4FF0FA
:1028D000000901F0070AAA457FF440AF002F9CD001
:1028E00041F00801218388F31188BFF36F8F002F17
:1028F000C8D03D68394633465246204608F0E8FDC8
:102900002F46F4E7AB067FF51BAF25F020032383AA
:1029100005F0070500E700BFFDB40000014B0360B0
:102920000020704774EF000010B504460AF01FFC49
:1029300003490246204609F0E5F8002010BD00BF1B
:10294000A51901001346002273B5044601920A211D
:10295000586801AA01F022FB019D95B920EAE074B4
:1029600047F61226294640F2E7304FF47A720023E8
:10297000C4FB0601FEF764FA0AF03FFF284602B0E6
:1029800070BD2A462046024909F0D8F8019DF5E7B6
:10299000D119010008B5034A034909F0B3F8002032
:1029A00008BD00BFC11A0100C81A010010B50446D5
:1029B00003F002FE07490246204609F0A3F820462C
:1029C000054909F09FF82146044806F0A9FB0020BC
:1029D00010BD00BF0A1B0100291B0100E1290000F6
:1029E00070B58EB004460D46D0F8AC600AF053FEC8
:1029F00003460BF051FD214A21491058214A002B72
:102A000018BF1A460092204A2346844218BF0A463D
:102A100028461E4909F076F8D4E90A23CDE90023B7
:102A2000284694F90E30227B194909F06BF806A963
:102A30002022204605F0DEFE636F02461549284637
:102A400009F060F8204605A90AF033FE024628B1D5
:102A50002846114909F056F80EB070BD6422059B56
:102A60002846F11A4A43B2FBF6F20091CDE9016221
:102A70000A49324609F046F8EEE700BF08000000B8
:102A8000AC220100351B0100331B0100381B010083
:102A9000441B0100701B0100871B0100B41B0100D7
:102AA000F0B50025044691B0294608AF1C2209A8BC
:102AB0000BF0CBFA134E1A22202138460BF0C5FA40
:102AC0002146114806F02CFB07AA4FF4006130465E
:102AD0000AF0E3FD6423079A2046C2F500614B43E8
:102AE000DB0A05934FF400630097CDE90313CDE9AA
:102AF000013206492B46324609F004F8284611B047
:102B0000F0BD00BF88270020112B0000051C01002C
:102B100070B504460D46D0F8AC6088B007A90AF03D
:102B2000C8FD024628B128460E4908F0EBFF08B060
:102B300070BD20460AF0AFFD6422079B0096F11A93
:102B40004A43B2FBF6F2CDE90131074BCDE903620E
:102B5000002818BF034622462846044908F0D2FF41
:102B6000E5E700BF871B0100351B01004E1C01007B
:102B70002DE9F04F87B00446684605F0F9F91823AF
:102B8000009F082103FB0077264A204608F0ADFF8E
:102B9000DFF894A0009DDFF894B0BD4203D300207D
:102BA00007B0BDE8F08F2B680BB11A7832B92B460D
:102BB00014211F4A01A807F0C1F901AB52460821B0
:102BC000204608F092FF28460AF0C0FC194B082165
:102BD000002808BF5B46184A204608F086FF6B694C
:102BE000A3B11E6896B1336883B108212046134A09
:102BF00008F07BFFB1464FF000083368104A4345A8
:102C000006D8082120460F4A08F06FFF1835C4E7A0
:102C10000821204659F8043F08F067FF08F1010831
:102C2000EBE700BFC11C0100D01C0100B81C010073
:102C3000CB1C0100B21C010034230100D51C010093
:102C4000D11C0100E91B01002DE9F0411446884622
:102C5000074610220021606807F03AFAB8F1020F27
:102C6000064607D8202308213846244A08F03DFFAD
:102C7000336816E00A220021A06807F029FAC5B2DD
:102C80002B46082138461D4A08F02FFFB8F1030FE4
:102C90001AD1102D0CD0202DEAD0082D0BD133786D
:102CA000DBB208213846164A08F01FFF002009E071
:102CB00033889BB2F5E738460821124A08F015FF21
:102CC0006FF01500BDE8F08110220021E06807F0E8
:102CD000FFF90821034604460B4A384608F005FF71
:102CE000102D06D0202D07D0082DE4D1E4B2347089
:102CF000DCE7A4B23480D9E73460D7E7161D0100C1
:102D0000411D01002B1D0100521D010000232DE972
:102D1000F04F91464FF0FF35012287B00193504BA1
:102D2000074688461A60202602F008FB2C46DFF88A
:102D300034A149465246404602F024FB411C06D1CC
:102D40006A1C41D14849384608F0F8FE17E073285C
:102D50001AD0772828D0612811D1DFF810B11021BE
:102D6000DBF8000001AA01F019F9019B0546002BD0
:102D7000DFD0DBF800203E49384608F0DFFE6FF078
:102D8000150007B0BDE8F08FDFF8E0B00021DBF8F8
:102D9000000001AA01F002F9019B0446002BC8D0F3
:102DA000DBF800203349E7E7DFF8C0B00021DBF8AB
:102DB000000001AA01F0F2F8019B0646002BB8D0F2
:102DC000DBF800202C49D7E7631C01D12B49BAE777
:102DD0005FFA86F8C6F3C406002C3FD002AB294642
:102DE0001A46A6EB050C0CE0B8F1100F1DD0B8F197
:102DF000200F20D0B8F1080F2AD10878187031447C
:102E00003344A64203D80CEB01001028ECD9102C57
:102E1000A14628BF4FF0100929464B46384600F01E
:102E200095FF1035A4EB0904D6E7088880B2187026
:102E3000000A5870E3E708684FEA102E187083F80C
:102E400001E04FEA104E000E83F802E0D870D6E79A
:102E5000082138460A4A08F048FE90E7204690E7E5
:102E6000B0000020A01D0100A71D010014160020C5
:102E7000661D0100791D01008C1D0100C41D0100AB
:102E80002B1D010070B50F4E04460D46337871B10D
:102E900023B10D49BDE8704008F050BE01233370E6
:102EA00020460A4908F02EFE0123337004E083F027
:102EB00001033370002BF3D129462046BDE8704052
:102EC00008F0ADBE121F0020DE1D0100191E01001A
:102ED00070B504463B480378182B02D10B78112BB0
:102EE00031D00B46013A8D18AB4225D18B5C0A7864
:102EF0000370A2F13003092B334C04D922F02003D4
:102F0000413B052B04D823683049CA540133236060
:102F10002368022B33D1102200212C4807F0D8F867
:102F20002B4A136803F8010B13602A4A1368013314
:102F300013600023236022E013F8016B182ED3D115
:102F40001E78112ED0D1234D20462A68224908F040
:102F5000D9FD20460021FFF795FF204B187870B966
:102F60001F4A2B681168042B0ADC08B111602B6022
:102F700013F003010BD1126813681BBA136070BD04
:102F80000868043B00BA41F8040B0120EBE75B4200
:102F900003F0030358BF5942022904D11268138871
:102FA0005BBA9BB2EAE70329E9D110680268110411
:102FB000C2F3074301F47F010B4302F47F42134342
:102FC0000360DCE7131F0020B0120020151F002053
:102FD000BC120020B4120020431E0100141F002068
:102FE000B81200202DE9F84F0023064615460C467E
:102FF0002949DFF8A8800B602949DFF8A890DFF89D
:10300000A8B088F800300B60012C2F4655F804AFAB
:103010001ED90222494650460BF040F880B99AF872
:103020000220003A18BF01229244504602221F4952
:103030000BF034F830B9012388F80030013CE3E7A5
:103040000022F1E749465046FDF714FFA8B90437BE
:1030500000227868114607F03BF80022144B114615
:103060001860786807F034F8124B1349186030463E
:10307000FFF708FF0020BDE8F88F9AF800202D2AFE
:10308000E6D19AF80120002AE2D05246594630464D
:1030900008F038FDD2E700BFB0120020141F002056
:1030A000B41200205D1E0100631E0100601E0100BD
:1030B000BC120020B8120020D12E000013B5094820
:1030C0000AF044FA58B10024074A0123126805495E
:1030D0000648009400F0A0FE204602B010BD6FF03C
:1030E0001200FAE7BCE500001CF0000060E60000FA
:1030F00010B54468A3604023C4E900124268082167
:10310000D36402F1580313630023C2E90E33C2E90A
:103110001133C2E90633C2E90933D162146802F1FE
:10312000500153631364116153611362C2F8D030CC
:10313000A36823B11B6C13B1204604499847A368C8
:103140001B6A0BB120469847002010BD3DB8000017
:1031500010B504468168183101F052F9A168204683
:10316000BDE81040014A183101F0F0B8D91F010044
:1031700038B583680446D3F87832DB071AD4406840
:1031800003685B689847054620B9E06809F0C8FA0B
:10319000A3681D75A3685B6C13B129462046984748
:1031A00000220BF079F9A368C3F82023034B1858C9
:1031B00001F068FD6FF00F05ECE700BF08000000AC
:1031C000014908F0E5BB00BFE91B0100F7B5044663
:1031D00080680D46D0F878325A0705D5002108F0EE
:1031E000FFFBE06809F06EFAE368DB6873B9002D55
:1031F0003BD0A66806F15607384608F0D6FB0028F3
:1032000035D0394606F5AB70FDF73EFEA26829467B
:10321000E0680DF10603563209F057FA58B9A06874
:1032200000F5AB715630FDF72FFEA068563008F060
:10323000BCFBADF80600204608F0EEFFA368D3F80B
:1032400074329B0603D50B49606908F0A1FB204648
:1032500000F00AFFA268BDF806302046A2F85230FE
:10326000A268A2F8503008F03CFF03B0F0BD86F829
:103270005601CBE7F0E700002DE9F04FA7B0044678
:103280005422002111A80AF0E0FE0023CDE9053305
:10329000A36820465633029308F0C5FF204608F085
:1032A00009FF10B96069FFF78BFF00264FF0FF3769
:1032B000B246B3463546B146A06814220021183004
:1032C0000AF0C3FE204608F090FEA168E068B1F85D
:1032D0005020563109F030FA204609F0AFFA0DF1CE
:1032E00044080396DDE90532012A6DD0132B6ED810
:1032F0005FBBBBF1000F0AD0204609F0C0FA1423CF
:10330000A26811A956320DEB030008F0EEFCB9F1EA
:10331000000F0CD099F81130FE2B08D1059B26AA7E
:1033200002EB830252F8542C0AB101330593A068D2
:10333000059D436A002B40F0B680CEB1C3699E4222
:103340002DD00D9600F1180524E002234146029A83
:1033500006A808F0CAFCD8F8042006990346029291
:1033600031B101290AD148B16D4A204609F009F866
:103370006FF00705284627B0BDE8F08F059B002BAE
:1033800034D0D8F8000001F05BF898B166B1A568B8
:103390000D9618350CAE0FCE0FC533682B60204646
:1033A000FFF7D6FE0125E5E75E4A0121204608F039
:1033B000E8FFDDE7059BCBB129462046D8F8002081
:1033C00001F0E0F9022809D1059B132B91D9069B46
:1033D000022B8ED10121544B544AC6E7032805D055
:1033E000059B4FF0010B013305937BE7039B33B93A
:1033F0004846D8F8001007AA08F06EFD054608F107
:103400000408013F9DB3EB68BBF1000F08D0F3B196
:10341000204608F008FF204608F063FE444AC4E74F
:10342000ABB1AE46A368DDF814A003F1180CBEE8FA
:103430000F00ACE80F00DEF80030CCF80030AB68CD
:103440002BB96B7CFE2B04BF2F7C07F1FF37D5F81F
:1034500004C0BCF1000F08D0AE460CAEBEE80F00B1
:103460000FC6DEF8003033606646A94603E0059BD0
:1034700053B101230393069B17B9022B7FF432AF9C
:10348000059B013305932DE7A368DB6A13B1DB6865
:10349000002BEED1274B012100932046119B264A99
:1034A00008F06FFFE5E790F82830A5EB0A05BBB1FF
:1034B0004FF6FF7290F82910FF2918BF0A469D4267
:1034C00002D313449D420BD98369012120461B4A34
:1034D00008F057FF2046FFF73BFE6FF0150549E760
:1034E000012108F072FAA06800F5437008F091FA23
:1034F000A36811AA294602EB8A0220465B6A984714
:103500000546A0684FF0FF324FF0FF3300F54370DF
:1035100008F026FA0021A06808F057FA2AE700BF51
:10352000E71F0100FB1F01005C200100372A01009A
:1035300019200100482001006123010080200100C2
:10354000022210B5836804461A7583689B6CBBB968
:1035500008F0E5F98368D3F87832DB040BD5032152
:10356000084B094A08F00DFFA0686FF4805100F580
:103570001E7008F0EAF92046BDE8104000F0C8BE11
:1035800010BD00BF9B200100D21C01002DE9F04FAF
:10359000044680680121B1B000F51E7008F0CAF938
:1035A000A3681B7D022B20D100230993A3686068C8
:1035B0009E6C03681D6909AB0EB310221BA9A847B6
:1035C000099B93B10121A06808F0FFF92046099AF0
:1035D0001BA9B0470021A06808F0F7F9A3689B6C0D
:1035E000002BE3D12046FFF7ABFF6FF00101A0688D
:1035F00000F51E7031B0BDE8F04F08F0A6B9012209
:103600000DF12301A847099B002BEED09DF9232043
:103610009DF82310002AA368C8DB5A7D032A00F214
:103620009782DFE812F0040084029B0295020D29C4
:103630007CD00A2958D0B3F8782209296FF3CA023E
:10364000A3F87822A06800F086803DD80029ADD08C
:10365000082900F0FB810346D3F874229207A5D510
:1036600001391629A2D801A252F821F0FD3B000031
:10367000873A00008F3A00007F3A0000F13B0000DB
:10368000AD3A0000AD350000AD350000AD350000AD
:10369000AD350000B53A0000BD3A0000AD35000080
:1036A000E73A0000AD350000F13A0000AD3500000A
:1036B000AD350000AD350000AD350000F53A000035
:1036C000AD3500001F3B00001B2941D07F2900F0D1
:1036D000C981A1F120025E2A0346BDD8012108F06C
:1036E0007FF99DF82310B9E0D3F87822C2F3C7021E
:1036F0002AB1D3F87822C2F3C7020A2AACD1B3F8B0
:10370000782261F3CA02A3F87822A568B5F85010B0
:10371000C1B9284608F064F9E06808F0D3FF606991
:10372000FFF74EFD2046FFF70BFF3FE7D3F8782267
:10373000C2F3C702002AE2D0D3F87822C2F3C7024C
:103740000D2ADBE72046FFF797FDC5F82403E9E7DC
:10375000012343752AE7D0F874329B077FF526AF23
:10376000012108F03DF9A068B0F85030FF2B3FF47C
:103770001DAF0025B0F8522000F1560100F5AB70E6
:103780000AF03CFCA3681BA9B3F852200BA8134411
:1037900083F85651A268142302F5AB7208F0A5FA1B
:1037A0000B9914293FF602AF30AB03EB810343F8CA
:1037B000545CA368B3F85220002A53D0134493F802
:1037C0005530202B02D0093B042B4BD800294CD17B
:1037D00000250A950A9B30AA02EB830353F854ACE8
:1037E0000026504608F0E1F8B3468146B046374619
:1037F0003946284616AA00F097FB0346002840D118
:10380000012EA76865D10A9B30AA02EB830353F807
:10381000540C08F0CAF84146064607F1180228463B
:1038200000F082FB0568284608F0BFF8864205D004
:10383000821B92B22046A91908F0EAFDA068B0F8F0
:103840005230034493F85630202B31D0093B042BDF
:103850002ED9D0F87432DF072FD42021204600F073
:103860001FFDA3E60129B3D9013900200CAB009359
:1038700001900AAB1BAA08F05AFB05460028A9D103
:1038800094E61B684A465146184603930AF006FC24
:1038900060B9039B1846FDF7FFFA584538BF5846F4
:1038A000002E08BFB8461FFA80FB013601379FE79C
:1038B0000121204608F049FC78E6002108F09AF83A
:1038C0002021204600F0ECFC0121A06808F092F8CD
:1038D0006CE604907FF66AAE0A9A30AB03EB820284
:1038E00052F8543CC1461846039308F05EF8049B16
:1038F0000590A7F840300496A26849462846183239
:1039000000F012FB039BD0F800A009F101094BB1B4
:10391000BAF1000F06D019465046059A0AF0BEFBD0
:103920000028E9D1A168BAF1000F4DD1A1F840A05B
:10393000049B013B0493DFD16069FFF741FC204603
:1039400000F0E6FC0A9B30AA02EB830353F8540C08
:1039500008F02BF8414611AA8146284600F0E4FA07
:103960000746A0683968FF2200F5AB700AF0A8FB93
:103970003B684FF6FF7708F1010AB84603935146BA
:10398000284616AA0AF1010B00F0CEFA002851D001
:103990000022A168036801F2551111F801EF985C4B
:1039A000704503D110B101324245F6D1B9F1000F93
:1039B00001D04A4506DBBA42A8BF3A46013E012E75
:1039C00097B237D0DA46DAE79848069107F0EDFF6C
:1039D000069900EB0B074A8FBFB2121A92FBF7F25F
:1039E000504692B20791069207F0DFFF07993F1AFF
:1039F000B1F84000069A00F1010CA1F840C0B0FBFC
:103A0000F2F102FB110080B2BFB260B9062120467C
:103A1000864B874ACDF800A008F0B3FC3946204613
:103A200000F00CFB84E7534606212046814A08F04B
:103A3000A8FCF3E7002F3FF4B9AD0399A7EB090207
:103A4000204692B2494408F0E3FCAFE5D0F8743266
:103A50009E077FF5ABAD012107F0C2FF204608F0BD
:103A6000F8FCA3E5D0F874329D077FF59FAD0121E6
:103A700007F0B6FFA368D3F874321907EED42046D6
:103A800008F0C8FC92E5204608F0D6FB8EE52046FB
:103A900008F0C9FB204608F00DFB10B96069FFF77C
:103AA0008FFB0121A06807F09BFF3BE6204608F052
:103AB000CCFB7BE5204608F0D3FB77E5D3F87432E6
:103AC0009B0603D55C49606907F062FFA368D3F8E1
:103AD00074329F0603D55949606907F059FF2046A3
:103AE00000F016FC62E500212046FFF76FFB5DE564
:103AF0000121F9E7204608F08FFB204607F00FFF71
:103B00000121A06807F06CFFA368D3F874329E0609
:103B10007FF54CAD4A49606907F03AFF46E520461B
:103B200000F01CFB0121A06807F05AFF3EE55B296D
:103B300002D102225A7539E5D3F874329D0706D5B1
:103B4000622907D14FF0FF31204608F027FBA36818
:103B50000022EFE76629FAD10121F5E700225A7524
:103B6000A268D2F8743298077FF520ADA1F1310335
:103B70001B2B3FF61BAD01A151F823F0F93B0000D0
:103B8000053C0000193C0000ED3B0000AD35000095
:103B9000AD350000AD350000AD350000AD3500009D
:103BA000AD350000AD350000AD350000AD3500008D
:103BB000AD350000AD350000AD350000F13A000034
:103BC000E73A0000AD3A0000873A0000AD3500004A
:103BD000F13B0000AD350000FD3B0000AD350000BD
:103BE000AD350000AD350000093C000003235375DE
:103BF000204608F018FBD9E403235375204608F04B
:103C00000BFBD3E403235375A068D0F8741201F0C2
:103C1000010181F0010159E603235375A368D3F82C
:103C200074329B077FF5C2AC29E700BFAB220100CD
:103C3000DF200100D21C0100F5E70000FAE70000D8
:103C4000F0E70000F8B504468068154600F51E70E0
:103C5000002935D04FF4804107F06CFEA3680021A5
:103C6000DD64606803689B689847002844D120465B
:103C700007F0D1FE00283FD1204E214FA06800F56B
:103C80002F704FF0FF324FF0FF33032105F0A4FBFC
:103C90000546A0684FF0FF324FF0FF3300F5437048
:103CA0009DB107F05DFE20462B460121154A08F024
:103CB00068FBA068BDE8F84000F5437007F0A9BEB6
:103CC0006FF4804107F041FEC8E707F049FE324635
:103CD0000221204607F046FE20463A46294607F0D4
:103CE00041FE606803685B6903B19847A06800F50E
:103CF000437007F08EFEC1E7F8BD00BF71310000D0
:103D00008D350000E520010010B504460A4907F092
:103D1000F9FE2046094907F0F5FE2046084907F05C
:103D2000F1FE2046074907F0EDFE20460021064A35
:103D300000F00CFB002010BDFC2001003A21010026
:103D400099210100ED21010087220100F8B51E46EE
:103D500017460A462949044607F0D4FE3EB32046DA
:103D60003A78274907F0CEFE01256A0703D120469D
:103D7000244907F0C7FEAE421ED920467A5D20498D
:103D800007F0C0FE0135102DEFD120461E4907F087
:103D9000B9FEB6B920461B4907F0B4FE0125AE4274
:103DA0002B4610D82046174907F0ACFE15E02046F8
:103DB000164907F0A7FE01252046144907F0A2FE88
:103DC000E0E700252B46FA5C2046A2F120035F2B9A
:103DD00028BF2E220E4907F095FE0135102D06D082
:103DE0006B07DCD12046074907F08CFED7E7204659
:103DF000BDE8F840074907F085BE00BF9D220100DD
:103E0000A4220100AC220100AE220100AA2201007E
:103E1000D0220100B02201002DE9F0430446806861
:103E20008846D0F8201315461F4689B0002960D176
:103E30004FF44A720AF009F9E06808F0E5FCA0685E
:103E400000F5437009F0C8FB4FF42F794FF41F764B
:103E5000A068304409F0BCFEA0680022831901214B
:103E60004844103609F08BFEB6F52F7F09F114098E
:103E7000EED10026A36902211E60A06866F38205C8
:103E800000F51E7007F056FD5022A36820465A87A1
:103E90001822A3681A87216807F076FEA3684146B6
:103EA000C3F874526068144A03681D682346A84723
:103EB0000546D0B90122A3681A75D4E90901002288
:103EC0000023CDE906230E230393109B4FF40062D9
:103ED000CDE901730495094B009404F03BFDA36800
:103EE000C3F82003216A04F075FC284609B0BDE838
:103EF000F0836FF07705F8E7B7B90000453C0000A4
:103F000010B5044613460A460146064801F0D4F9A6
:103F100023691B7923B12046BDE8104007F085BE18
:103F200010BD00BF43BC000038B50B46154648B96C
:103F30001449154A521AB3EB920F05D251F8235087
:103F4000284638BD84680CB90025F9E70F4A944229
:103F50000AD30F4A944207D218462946226890474E
:103F60002B68002BECD1EFE70A4A944202D30A4AAD
:103F7000944205D3246814225343E518E358F0E72C
:103F80000133F8E78CE60000F4E60000BCE700002F
:103F9000CCE70000F4E60000BCE70000F7B50378CA
:103FA00004462D2B164605D16FF015030020336013
:103FB00003B0F0BD0AF070FA002305460A4F0A4626
:103FC000C35101A9204606F083F8EB59222B02D1F8
:103FD0006FF02103EAE7002BE6D1019BA342E3D077
:103FE0001B78002BE4D0DFE70C0000008368D3F8D7
:103FF00074329B0603D50249406908F03CB870470B
:1040000000E80000014908F036B800BFE91B0100D4
:104010000A1E0DDC0ED042238168D1F87412890685
:1040200008D5002A04494069B8BF524208F023B8B5
:104030004123F1E7704700BFCC2201000A1E0DDCCE
:104040000ED044238168D1F87412890608D5002A5D
:1040500004494069B8BF524208F00DB84323F1E764
:10406000704700BFCC2201002DE9F0478568044667
:1040700005F15600FCF710FF0023984695F83C70B8
:10408000DFF8549086B2A268558FED1BB54209DB6C
:10409000002E1FDD5633606910491A44BDE8F04711
:1040A00007F0E9BF1D442A4492F856A082F85680D2
:1040B000A26856331A444946606907F0DCFFA368DA
:1040C0002B4483F856A0A3685B8FDB1BF61A0027EE
:1040D0002B46D8E7BDE8F087372A0100D21C010043
:1040E00008290A4617D8836893F83E10914212D0E7
:1040F00083F83E208368082AD3F8743205D09906E5
:1041000009D50549406907F0B6BF9B0603D50349A9
:10411000406907F0B0BF7047D322010005E80000F6
:1041200038B50D4609780446FFF7DAFF6A78072AA2
:1041300011D8A36893F83F1091420CD083F83F2028
:10414000A368D3F874329B0605D560690249BDE8BF
:10415000384007F090BF38BDDC220100F8B5836815
:104160000446B3F85020002A55D0B3F85210002965
:1041700051D0553103F156050B441846A84206D3D9
:10418000014611F80169202E3CD0A8423CD286B2EB
:104190009DB2AB1B9BB2591C471CD21A0144384636
:1041A00009F039FFA268711BB2F85030204613FAAB
:1041B00081F3A2F85030A36809B2B3F85020134439
:1041C000002283F8562007F0C0FFA368D3F87432AA
:1041D0009A0603D51049606907F04DFF3B46082158
:1041E00020460E4A08F0CDF82046FFF7FFFEA368F0
:1041F000D3F874329B060ED560690949BDE8F840D2
:1042000007F039BF0846B9E7014611F80169202EC9
:10421000BDD00846B9E7F8BD0AE80000D21C01008D
:104220000EE800002DE9F04104460D4617460AB19C
:10423000FFF7DCFEA368B3F85220D3F874125632AD
:1042400013444A0721D51846FCF726FE0646DFF838
:104250004880A6B9A368B3F85020A3F85220A068FC
:1042600007F016FF20B107B115B16069FFF7CAFE6C
:1042700069422046BDE8F04109B207F066BF4146F9
:10428000606907F0F8FE013EE3E708212046034A93
:1042900008F077F8DEE700BF331B0100D21C0100F5
:1042A00013B583688DF80710D3F874220446D0073D
:1042B00025D5B3F85210B3F850208A421FD0481CBD
:1042C0009DF80720A3F852000B4483F85620A368FA
:1042D000D3F87412890710D5D3F87432606913F0DB
:1042E000040F18BF2A22094907F0C5FE204607F02F
:1042F000E1FE10B16069FFF785FE02B010BD01223A
:1043000020460DF1070108F049F8F6E7D022010038
:1043100010B5044683680221084A08F032F8A36801
:10432000D3F874329B0707D52046FFF79DFE204641
:10433000BDE8104007F0E4BE10BD00BFD21C010074
:10434000014908F0AEB800BFE91B01002DE9F04FAC
:104350000E460021044617460D4689B0304603AA92
:1043600001F10108FFF7E0FDB0B995B127B13A4678
:104370000821204608F005F800211E4FDFF878904C
:10438000DFF878A0304603AA01F10108FFF7CCFD61
:1043900060B909B0BDE8F08F006810B1FCF77CFD92
:1043A00080B2854238BF05464146D7E703688BB1E6
:1043B0001A787AB1D0F804B04A46CDE90053082102
:1043C0003B46204607F0DDFFBBF1000F04D16069DA
:1043D000FFF7B6FF4146D5E7524620463B46082147
:1043E00007F0CFFFAA1D5946204692B208F066F8A2
:1043F000F0E700BFFF220100E5220100EC220100EE
:10440000F7B50F6805460E46A7B13846FCF744FDE0
:1044100084B2094B2846009308213B46074A07F01F
:10442000B0FF2846E21C716892B203B0BDE8F040CC
:1044300008F044B83C46ECE7FB220100E020010014
:1044400010B507490446FCF715FD38B1204605496B
:10445000FCF710FDB0FA80F0400910BD0120FCE728
:10446000F1220100F422010010B583680446D3F85C
:1044700074329B0603D50649406908F096F850222D
:10448000A36800205A871822A3681A8710BD00BFAE
:1044900012E8000008B5836902491A6807F032FB88
:1044A000002008BD022301002DE9F3410D49054616
:1044B00007F028FB00220C4C0C4EDFF83480B4428D
:1044C00002F1010703D3002002B0BDE8F081236AA6
:1044D00092B20093A3684146284607F013FB2C34A0
:1044E0003A46ECE71223010060E600008CE600008B
:1044F0002A23010008B5024907F046FB002008BD49
:10450000EA1B010073B5044600250D4EA2680DF1AB
:1045100006030121E06802F5AB7208F0D6F8BDF899
:104520000600A36840B12A463146204603F5AB7326
:1045300007F0E8FA0135E9E783F8560102B070BDEB
:104540003B23010010B5044607F061FB0349024616
:10455000204607F0D7FA002010BD00BF591E010009
:10456000022907B50BD153680C49009312680C4B14
:1045700007F0E4FA6FF0150003B05DF804FB836800
:10458000084AD3F87432084913F0020F074B18BFDA
:104590001A4607F0B7FA0020EEE700BF5E230100DD
:1045A0004923010045230100672301002210010077
:1045B00010B583680446D3F874329A0603D50749C8
:1045C000406907F0F2FFA368D3F874329B0603D565
:1045D0000349606907F0E9FF002010BD19E80000F9
:1045E0001EE80000F0B50129044685B00AD05368E2
:1045F0005E49009312685E4B07F0A0FA6FF0150059
:1046000005B0F0BD8368D3F87432990603D55949D3
:10461000406907F0CAFF00256FF0F9012046FFF757
:10462000F7FCFA212046FFF709FDA0684FF48072DD
:10463000294600F5AB708DF80B5009F006FD4E4988
:10464000606907F0B2FF606907F0EFFA4FF47A761D
:104650006068012203680DF10B011F6903ABB847C5
:10466000039BEBB9013E4FF47A70B6B208F069FFD4
:10467000002EEDD1A368D3F874329B0603D53F49D1
:10468000606907F092FF5022A36820465A871822DB
:10469000A3683B491A8707F043FA6FF00700AFE7BA
:1046A0009DF80B20A3681B2A53D093F856111B29A1
:1046B000CED1522A4DD15A19002382F85631A6681C
:1046C00096F857215B2A2BD1022506F2571010F8D5
:1046D000011F2A463B2905F10105ADB223D1FF2A6E
:1046E000C8D002F5AB7216FA82F1002211F8010F60
:1046F00018BBFA2A28BFFA22FA2B28BFFA2386F819
:104700005601A1684A87A2681387A368D3F8743258
:104710009A0603D51949606907F047FF00206FE743
:1047200086F85631A6E703EB8303303901EB4301EA
:10473000B5F5807F8BB2CAD19CE7013502EB8202CE
:10474000ADB2303800EB4200B5F5807F82B2CDD1FA
:1047500090E72B440135ADB2092D83F856217FF641
:1047600077AF0022A36883F8562183E75E23010018
:104770004923010024E80000B223010028E80000DA
:10478000782301002DE9F04F07461546894689B088
:1047900021B1104608F03EF800285BD1032455E013
:1047A0005C463CE029460AF5AB7009F0A5FC0646DC
:1047B000002854D0FCF770FB82B2601C31460132F5
:1047C000304409F028FC22465946304609F016FCD0
:1047D0004FF020033355BAF8543008F10108013383
:1047E0001C44AAF85440002401994B1C484603AAD3
:1047F0000193FFF799FB0646E8B10022284631688D
:1048000008F0EFF90028EFD1D6F800B0D7F808A0EB
:10481000BBF1000FC4D05846FCF73EFB84B2BAF897
:1048200054302344FF2BBDDD2B46032138460D4A6F
:1048300007F0A7FD0124B8F1000F07D0B8682A4699
:1048400000F1540100F5AB7007F01FFB204609B0E2
:10485000BDE8F08F4FF0000802244146C5E702246E
:10486000E9E700BF7A28010008B5044806F0F7FD23
:10487000BDE80840024806F0F2BD00BFCC280100A8
:104880000129010038B50C46154608F008F8034B1D
:1048900043F8305003EBC0035C6038BD4004002097
:1048A00030BFFFF7FDBF00BF2DE9F04105460B4EBD
:1048B000DFF82C80324606EB0807CC1B204609495E
:1048C00009F09CFBA01942460021083C09F0BDFB01
:1048D000C5F8B84007F10800BDE8F081000000000D
:1048E00008000000CCE70000074A936893F90E1017
:1048F000002907DB526993421FBF044A536843F003
:1049000080535360704700BFD016002000ED00E0D8
:10491000154B9A6A12F0007F9A6A14BF1E201D2060
:1049200012F0807F9A6A18BF1F2012F4801F9A6AC3
:1049300018BF022012F4002F9A6A18BF212012F427
:10494000802F9A6A18BF222012F4003F9A6A18BF7B
:10495000232012F4803F9A6A18BF24206FEA024293
:104960006FEA12429A62704700ED00E010B5194BF1
:104970000246986A9C6A10F4805F14BF17201620C4
:1049800014F4006F9C6A18BF1820A40509D5986B11
:10499000986A000404D51AB19A6A22F400429A6215
:1049A00019200C4B9A6A12F4806F9A6A18BF1A2069
:1049B000D2050CD49B6A13F4005F18BF1C20054A73
:1049C000936A43F47F43936200230B7010BD1B2056
:1049D000F5E700BF00ED00E010B51C4B0246986AF9
:1049E0009C6A10F0100F14BF1120102014F0080F53
:1049F0009C6A18BF1220A40709D5586B986A000654
:104A000004D51AB19A6A22F080029A6213200F4BE1
:104A10009A6A12F0010F9A6A18BF142012F0200F40
:104A20009A6A18BF1520D40658BF9B6A074B9A6A2A
:104A3000920642BF5A6A22F400525A629A6A42F0BF
:104A4000FF029A6200230B7010BD00BF00ED00E072
:104A5000F0B5474B04465B6800258BB0C3F30803F1
:104A600085F31188BFF36F8F02F07F40B0F17F4F65
:104A700011D102F00C0008280DD010074CBF0C46D5
:104A800001250022033B8DF80720032B05D8DFE822
:104A900003F02462665F2C46F3E700239DF80720AD
:104AA000CAB902AE04F120073246206861680834B2
:104AB00003C2BC421646F7D1099A002D53D0C2F367
:104AC000080121B96FEA52226FEA42220992184680
:104AD00002A907F0E5FE0BB0F0BD254BDA6A91079D
:104AE000DBD4DA6A002AD8DBDA6A5200D5D55A69F3
:104AF000A16942F480725A61BFF34F8FBFF36F8F89
:104B00005A6931F8021C22F480725A61BFF34F8F48
:104B1000BFF36F8F4DF60272914209D09A6AD2B2FA
:104B200042B101200DF10701FFF756FF0346B5E73B
:104B30002368B3E79A6A12F47F4F05D001200DF184
:104B40000701FFF713FFF1E79B6AB3F5803FA4D39A
:104B5000FFF7DEFEEAE700200DF10701E4E70020A1
:104B60000DF10701EDE722F4FF7222F00102ADE73B
:104B700000ED00E0064B5A6942F010025A615A6992
:104B800042F480625A615A6922F008025A61704701
:104B900000ED00E0EFF30880EFF3098101B5724604
:104BA000FFF756FF01BD00BF002080F31488BFF35C
:104BB0006F8F002080F30A8880F30B88124880F3FF
:104BC000088801F067FD002010490860BFF34F8F8F
:104BD00000F032F8202080F311880D484FF0AA0130
:104BE0004FF4006208F0E0FC09484FF400614018FF
:104BF00080F30988EFF314800221084380F31488BE
:104C0000BFF36F8F00F0E0F8C83E002094ED00E0A5
:104C100088270020002318460649D1F89020C2F3C7
:104C20000722934200DB7047C1F89830C1F8A0001A
:104C30000133F6E700ED00E010B572B6002484F30E
:104C40001388FFF7E7FF23464FF0FF300C4A03F1CC
:104C500020010133102B42F82100F8D100234FF03E
:104C6000FF30074A03F160010133102B42F82100A5
:104C7000F8D162B6BFF34F8FBFF36F8F10BD00BF87
:104C800000E100E0084B9B6883420BD1EFF3058302
:104C900043B1064B5A6842F080525A605A6A22F475
:104CA00000425A6204F0F6B8D016002000ED00E091
:104CB00017498A684FF030001044EFF3098C80E800
:104CC000F01F202080F31288BFF36F8F114F4FF039
:104CD00000664A698A603E604FF0B8041419206883
:104CE0000D4C2060D2F8BC000023C2F8BC3080F329
:104CF000118802F1300090E8F01F8CF3098802F16E
:104D0000000004B507F0F2FDBDE804407047000064
:104D1000D016002004ED00E0EC1500201EF0040F7A
:104D20000CBFEFF30880EFF30980816911F8021CD2
:104D30000229FFD001B5724607F0B8FD01BD00BFE2
:104D40000028ACBF00F16040064B4FEA4111C9B2E8
:104D5000ABBF00F5614000F00F0080F8001319545C
:104D6000704700BF14ED00E000B2002807DB01230C
:104D70004109034A00F01F00834042F82130704788
:104D800000E100E000B200280CDB012206494309E3
:104D900000F01F008240203341F82320BFF34F8FE3
:104DA000BFF36F8F704700BF00E100E0054B420981
:104DB00053F82220012300F01F0003FA00F01040F6
:104DC000704700BF00E100E00B4A08B50B4B22F032
:104DD0007F029A60BFF34F8FBFF36F8FD3F88820A5
:104DE00022F47002C3F8882003F0B0F904F0BEF991
:104DF00000F04AF803F0EEF90000000000ED00E0DA
:104E000042F8203C009B0B4942F81C3C019B21F0DE
:104E1000010142F8183C029B42F8081C42F8143C7D
:104E20004FF0807342F8043C0023203A0265C0F83A
:104E3000BC307047CD26000000B50C4B154698607D
:104E4000D0F8B8200A4B0E461A60D0F8A83083F389
:104E50000B882C4686F309880020064B984720468D
:104E6000002100220023044C204700BFD016002060
:104E7000EC150020F7C80000CD2600001022014BE1
:104E80001A61704700ED00E00023202040F20F126D
:104E900010B5044CE1180133934281F80003F9D1B5
:104EA00010BD00BF00E100E008B5EFF30583064A3E
:104EB000103B02EBC30152F8330049688847BDE854
:104EC0000840FFF711BD00BF400400201FB5094C8A
:104ED000094A23460121094800F0FAF80023039308
:104EE000074B0121E41A01A80193029400F0FAF89B
:104EF00004B010BD00F002200000002028F30000E4
:104F0000480D002010B50C7A0B6804F01F0223F046
:104F10001F031A43CB68640923F01F03054943EAC2
:104F2000440343F00103C1F89800C1F89C20C1F884
:104F3000A03010BD00ED00E010B5074BD3F8903065
:104F4000C3F30723013B984202D8FFF7DBFF10BDF4
:104F50006FF01500FBE700BF00ED00E02DE9F04F1A
:104F60000F46144606464FF000084D4D85B0B84533
:104F700080F29280D6F80490B9F1000F36D0B9F1E2
:104F80001F0F40F2878019F01F0F40F08380D6F882
:104F900000A01AF01F0F7DD1504607F0CFFC8346CA
:104FA00009EB0A00013807F0C9FC834572D11BF1F7
:104FB000160F6FD05C456DDDC5F898B0D5F89C1024
:104FC000C5F898B0D5F8A03021F01F0143F01F0AB2
:104FD000D6E900321A44994202F1FF391ED1CA457E
:104FE00008D131465FFA8BF007F0B1FC08F10108F7
:104FF0000C36BCE73146C5F898B0D5F89C3022F0A5
:105000001F0203F01F031343C5F89C30E0B207F002
:105010009EFC10F1160F3DD0441CE7E7C5F898B090
:10502000D5F8A020013B23F01F0302F01F02134319
:10503000CA453146E0B2C5F8A030E8D007F087FC99
:1050400010F1160F26D0C5F898B0D5F89C209DF821
:1050500008300AF1FF3A62F304038DF80830D5F8FE
:10506000A0309DF808205B0863F347128DF80820F4
:10507000D6E900321344009323F01F035344A3EBFB
:105080000903013023F01F036946C0B20393FFF701
:1050900053FFBEE76FF01504204605B0BDE8F08F62
:1050A00000ED00E00522044BC3F89420BFF34F8FBE
:1050B000BFF36F8F704700BF00ED00E0BFF35F8F5D
:1050C0000022024BC3F89420704700BF00ED00E0BF
:1050D00010B5034C2278FFF741FF207010BD00BFD0
:1050E000351F00202DE9F74F294D8A4606464FF01F
:1050F0000008AB46274FD0451BDAD6F80490B9F12B
:10510000000F3FD031680846019107F017FC019964
:10511000044609EB0100013807F010FC84424FF00F
:1051200014021D4B08D002FB08F36FF015024BF878
:10513000032003B0BDE8F08F14F1160F2C60F8D0F7
:105140001978A142F5DD02FB08B0C7F89840C7F80E
:105150009840D7F89C4000F10801007B64F30400FC
:105160000871D7F8A0000C79400860F347140C715F
:10517000D7F89C1021F01F016960D7F8A01021F02A
:105180001F01296108F1010814350C36B3E700BF8F
:10519000F015002000ED00E0351F0020F0B541497A
:1051A000414CD1F890302568C3F307239D4287B066
:1051B00075D80020FFF782FF3C4BC1F8C030854214
:1051C00016D13B4C01A82570FDF7A8FB002506462B
:1051D000384FAE4213D1002023783249D1F89020C5
:1051E000C2F30722934254DBFFF75CFF00202FE05D
:1051F000616801EB0011FFF785FE0130DFE70199DF
:10520000280101EB0513DA683A40B2F5001F21D0FE
:10521000B2F5800F2BD0B2F5801F38D15A689B6849
:105220000958013B22F01F0003440120844623F06B
:105230001F0340EA4C10CDE902218DF8100002A9AD
:1052400020780593FFF778FE00281DDA6FF015002F
:1052500007B0F0BD5A689B680958013B22F01F0057
:1052600003444FF0020C012023F01F03E1E75A68CA
:105270009B680958013B22F01F0003444FF0000CCB
:10528000062023F01F03D4E7237801332370013570
:105290009FE7C1F89830C1F8A00001339EE74FF0B6
:1052A000FF30D5E700ED00E034F30000AAFF440032
:1052B000351F00200000F0FFF0B587B007460E460E
:1052C00014460021102268461D4608F0BEFE022347
:1052D0008DF80230054B2A4621466846CDE9047612
:1052E000019304F0F5FF07B0F0BD00BF81C90000D5
:1052F00008B5024B1B689847002008BD0416002023
:10530000034B044A1860937843F00203937070478C
:10531000041600208800002008B50649064821F040
:105320000701C1F1005202F53C3206F059F80020A5
:1053300008BD00BFCF4400200816002008B500F0CB
:10534000B7F8012200230949C0E900224161084958
:10535000C0E902330A60074903610A60064A136024
:10536000064A1360064A136008BD00BFEA1B01002D
:10537000B4000020B00000201C16002018160020E9
:10538000141600202DE9F04107460E46154600F0A0
:105390008FF8C36804461BB943691A78002A41D1C3
:1053A0000023E3606368BB4256F8232008DB324BDE
:1053B0006361204600F062F84FF0FF30BDE8F081F5
:1053C000511C616192F80080B8F12D0FEFD1911C52
:1053D000616151782D29A16004D192786AB90133B5
:1053E0006360E4E749B9244B41462846636108F00D
:1053F00048FE0028DDD0C4F80880D4F8088028468C
:10540000414608F03EFEB8F13A0F636900D070B92A
:105410001B7813B9636801336360204600F02EF8EF
:105420003F20CBE75A1C42611B788360E5E7427856
:105430003A2A0BD0002222611B7813B9636801332A
:105440006360204600F01AF8A068B7E71878626831
:10545000094928B901329742626004DD56F82230CA
:10546000C4E90431EAE761612D7820463A2DD5D1AF
:1054700000F004F82846A1E7EA1B01000268074B88
:105480001A604268064B1A608268064B1A60C2684E
:10549000054B1A600269054B1A607047B400002082
:1054A000B00000201C160020181600201416002042
:1054B000004870479800002008B5034A034B1A6063
:1054C00000F038F8002008BD0020A10704010020EA
:1054D00048B1054B054A1B68B3FBF2F35843044B34
:1054E00043F00103184770470401002040420F00B9
:1054F00030E80000F7B506460D460D488AB28368CD
:1055000031461B689847002810DA00240CE02F1B56
:10551000042F28BF042707F02AFE3A46019001A96C
:10552000301908F06BFD3C44A542F0D803B0F0BD43
:105530008CE500000122024BC3F80424704700BF31
:10554000002008E0084B70B5C31A0D4607499B10B0
:10555000044659434022064807F04FFB2B460146BC
:105560002046BDE87040184734160020B76DDBB602
:105570002CE50000402373B50B4C0093041B0B4635
:105580000D460A49A41061430646094A094807F036
:1055900060FB011E05DA30462B4602B0BDE87040C4
:1055A000184702B070BD00BF34160020B76DDBB6DF
:1055B000BDCC00002CE5000010B5EFF311842023D2
:1055C00083F31288BFF36F8F074A136823F0020139
:1055D000DB07116002D4012007F0F2FD84F311888B
:1055E000BFF36F8F10BD00BF8416002070B500227E
:1055F0000121044640F2051007F063F90F4801F05D
:105600006DF90F4B984215D101F078F926690D49D3
:10561000304605F080FF00280BDB01253564246946
:10562000084904F11C0005F076FF002801DB00208A
:10563000E56470BD6FF00400FBE700BFE1CC000043
:105640000000AD0B5CF300007FB500220123CDE923
:10565000022304ABCDE90433094A6B46CDF800D0F0
:10566000CDF804D007F023FB002805DB43F60952F0
:105670000023684602F016FF07B05DF804FB00BF88
:10568000DBCC00000C22104B014602FB0033002053
:1056900030B4D3E90E529863EFF31180202484F3E1
:1056A0001288BFF36F8F1C6C04F0C00444F0020436
:1056B0001C6480F31188BFF36F8F1DB12B4630BC83
:1056C0000248184730BC7047341600202CE5000013
:1056D00010B4EFF31182202383F31288BFF36F8F8E
:1056E0001648016841F002040460C80707D482F339
:1056F0001188BFF36F8F012010BC01F015B910495C
:10570000D1F80C14C903F2D5EFF3118083F312889A
:10571000BFF36F8F0B490B6C03F0C00343F0020320
:105720000B6480F31188BFF36F8F82F31188BFF38E
:105730006F8F002010BCFFF7A5BF00BF84160020AC
:1057400000E0105034160020C3B21C20014A03FBB5
:1057500000207047341600202DE9F0410122074651
:105760003449D1E8EF3FC1E8E02F0028F9D133B93F
:10577000314932484B60CB608A6005F0DFFE7B1E0A
:10578000012B28D8012F06D12D4BD3F8503403F02C
:105790000303012B1FD007F078FF0546E8B9294B1A
:1057A0001B78D3B104220646254BC3F80823244CAA
:1057B000DFF89480D4F84C24D4F84C34D20315D5B7
:1057C00003F00303012B01D0012F0FD165B386F342
:1057D0001188BFF36F8FBDE8F081EFF311862023AE
:1057E00083F31288BFF36F8F0125E0E7BDB1304628
:1057F00007F095F8D4F8403413F0FF03DAD1D4F869
:105800000821002AD6D0C4F80831D4F80831202263
:105810000123C4F84034C8F8A0212361CAE700215D
:10582000202007F0EAFFE5E70422054BC3F8042334
:10583000D1E700BF301600202016002050160020AF
:1058400000E010507F1F002000E100E00146024808
:1058500083685B68184700BFBCE5000008B50748CF
:1058600007F074FE38B10648FFF74AFD0448FCF71C
:105870000FFF002008BD6FF01200FBE7BCE5000041
:10588000F5CC000038B545682B69E3B110352846E2
:1058900001F012FD0446B0B90146284601F0CEFCE5
:1058A0000B4B984211D1224628460A4901F09AFC36
:1058B00022460121DB2007F004F82246012140F2B4
:1058C0000D1006F0FEFF002038BD6FF00400FBE76E
:1058D0000000AD0B5D5A00002DE9F04340F20635A3
:1058E0004668D00648BF0320337B02EA050558BF4F
:1058F000C2F3401087B001F01F07B5F5837F14464F
:1059000047EA43178DF8030046D00FD8062D45D03F
:1059100007D8B5B1022D14D06FF0150007B0BDE85F
:10592000F083B5F5807FF7D101250AE040F202222D
:10593000954235D0B5F5407F34D0B5F5007FEBD139
:1059400004250123220303FA01F12DD57368596060
:10595000326972BB5F2F07F01F034FEA571175D8EA
:105960003C4A52F8212084F4803102EB8302D2F8C1
:105970008030C1F30041C4F3404423F4706344EA2F
:10598000410423F00F031C4344EA800444EA052445
:10599000C2F880400020C1E70925D2E70825D0E7FA
:1059A0000625CEE70525CCE7630344BF73689960FD
:1059B000CEE71036394630460DF1020201F020FCE8
:1059C00014F4403F80460CD13946304607F0BDFC08
:1059D000214B9845DED130469DF8021001F07AFC4B
:1059E000D8E74FF0000901AB3946304603AACDE9AC
:1059F0000439CDE90199CDF80C9001F069FA164B04
:105A0000984289D114F4003315D09DF8033084F402
:105A10008034C4F300448DF80E3039464B4630468E
:105A200003AA8DF80C508DF80D4001F047FB0A4B8E
:105A30009842CDD070E7CDE9043339460DF1030328
:105A4000304603AA039301F043FAF0E7203352F8FB
:105A50002330FFDE90F300000000AD0B4209022A64
:105A6000034670B503D0012A18D0CAB170BD0E4EDE
:105A7000326951680029F9D0012503F01F030C6831
:105A80009D400029F2D08A682A4002D030464B68F7
:105A900098473CB1236821461C46F2E7034EE7E7EE
:105AA000034EE5E72346F6E774E500005CE50000F9
:105AB00044E50000F0B5406801F01F04057B87B0A5
:105AC00044EA45140569002D63D0B2F5001F00F1CA
:105AD000100506D12146284607F039FC002007B002
:105AE000F0BD0027B2F5800F01AE019777603BD182
:105AF000B3F1007F14BF052304238DF80430002385
:105B0000CDE904630393836823FA01F111F00101E5
:105B10001CD1B2F1A07F19D104F01F035F2C4FEA12
:105B2000541003F120033AD81E4A52F8202052F8AC
:105B30002330DB070AD40DF10306324621462846FE
:105B400001F05EFB184B984219D002962146284678
:105B500003AA01F0BDF9154B98421DD1012221463F
:105B6000284601F0CFFBB9E7B3F1C06F05D0B3F120
:105B7000007F14BF01230223BFE70323BDE73146A3
:105B8000284601F0B3FB094B9842DED06FF00B00C2
:105B9000A5E76FF08500A2E76FF015009FE751F8C9
:105BA0002330FFDE90F300000400AD0B0000AD0BCE
:105BB0002DE9F043074688460026144CDFF8509044
:105BC00085B0002515E023688DF809200193A368AE
:105BD0004146EB4003F001038DF80830237C01A817
:105BE000934292BF4B46E36853F825300135039347
:105BF000B84794F90430EAB29D42E4DB0136032E43
:105C000004F11804DDD105B0BDE8F083C0F4000054
:105C1000EA1B010008B506F023FA68B10A4B984266
:105C20000BD00A4B98420AD0094B984209D1022363
:105C30001822084802FB030008BD0023F8E70123EF
:105C4000F6E70020F8E700BF74E500005CE500001F
:105C500044E50000C0F4000013B50C460D48FFF702
:105C6000A7FF237D0C49002B637D019323691B68EB
:105C70000093A2690CBF20232A23206805F042FF6D
:105C8000231D04F1100207CA83E807000023A36163
:105C900002B010BDF1CD0000952901002DE9F041C1
:105CA00005468AB05068FFF7B5FF0446B8B901460B
:105CB000182204A808F0C9F9244B28460193244B64
:105CC00024490093244A254B039505F01BFF2448E3
:105CD00003A9FFF76DFF00200AB0BDE8F08190F93D
:105CE00004202049284605F00DFFA26828461E49D9
:105CF00005F008FF28461D4905F004FF28461C4909
:105D000005F000FF00261B4FDFF86C8094F904308B
:105D10009E42E0DA217CF2B2914298BF3846A368F5
:105D200088BFE26823FA06F388BF52F8260003F022
:105D30000103002B009033460CBF20222A2241464B
:105D4000284605F0DFFE0136E0E700BFD529010057
:105D5000D9290100BC290100B7290100AE290100A1
:105D6000595C0000E0290100ED290100E91B010058
:105D7000092A0100EA1B0100242A0100022802D995
:105D800000230B60704718225043064B1A181B580B
:105D90001B680B600023CB60034B4B6053698B6027
:105DA000704700BFC0F40000D9290100002310B5DE
:105DB0001446D3600A4649B11F2B01D100230AE0E3
:105DC00001339A42F8D1D2B2202AF7D004490548CB
:105DD00004F0E0F8034B23600023636010BD00BFB4
:105DE0003B2A0100361F00200A4610B50C4601462A
:105DF0000248FFF7DBFF0023A36010BDAC160020B4
:105E00000A4610B50C4601460248FFF7CFFF0023B3
:105E1000A36010BDB01600200A4610B50C4601461E
:105E20000248FFF7C3FF0023A36010BDB416002093
:105E30002DE9F84F08211A4B1A4A0446002505F0AF
:105E400054FEDFF86490DFF864A059F825605246EC
:105E500033680821204605F048FE736953B90821CC
:105E60002046134A063505F040FE122DEDD10020E4
:105E7000BDE8F88F1E68002EF1D03368002BEED0FD
:105E8000B0460027DFF82CB03368BB42E7D95A464A
:105E90000821204658F8043F05F027FE0137F3E7B4
:105EA000D92901003E2A0100C0F40000512A010056
:105EB000E91B0100D11C01002DE9F347002507462D
:105EC0004868894690460195FFF7A4FE064650B9FA
:105ED0003846D9F80420254905F030FE6FF015004A
