:10000000F01E0120D92D000035AD0200C52D0000E5
:10001000C52D0000C52D0000C52D0000C52D000018
:10002000000000000000000000000000452F00005C
:10003000C52D000000000000992E0000C52D000015
:100040003D3100003D3100003D3100003D310000F8
:100050003D3100003D3100003D3100003D310000E8
:100060003D3100003D3100003D3100003D310000D8
:100070003D3100003D3100003D3100003D310000C8
:04047C00FFFFFFFF80
:10048000844641EA000313F0030349D1403A23D3E1
:100490000B6803604B6843608B688360CB68C36004
:1004A0000B6903614B6943618B698361CB69C361EC
:1004B0000B6A03624B6A43628B6A8362CB6AC362D4
:1004C0000B6B03634B6B43638B6B8363CB6BC363BC
:1004D00040304031403ADBD230320BD30B680360FE
:1004E0004B6843608B688360CB68C3601030103109
:1004F000103AF3D20C3205D351F8043B40F8043BD8
:10050000043AF9D2043208D0D2071CBF11F8013BDB
:1005100000F8013B01D30B8803806046704700BFA1
:10052000082A13D38B07B1D010F00303AED0C3F168
:100530000403D21ADB071CBF11F8013B00F8013B92
:10054000A4D331F8023B20F8023B9FE7043AD9D309
:10055000013A11F8013B00F8013BF9D20B78037026
:100560004B7843708B7883706046704780EA010C4B
:100570001CF0030F37D110F0030C20F0030021F022
:10058000030150F8042B08BF51F8043B0ED08CF047
:10059000030C6FF07F434FEACC0C23FA0CFC51F8AC
:1005A000043B42EA0C0243EA0C0300BFA2F1013C07
:1005B0009A4201BF2CEA020C1CF0803F50F8042B39
:1005C00051F8043BF2D04FEA02604FEA12220128B0
:1005D00028BFB0EB036F08BF1B0AF4D003F0FF0382
:1005E000000EC01A704710F0030F0AD010F8012B4C
:1005F00011F8013B012A28BF9A42F4D0A2EB030074
:1006000070474DF8045D50F8042B01F0030521F00C
:10061000030151F8043B022D26D04DD822F07F452E
:10062000B5EB132FA2F1013C2CEA020C0DD11CF00A
:10063000803C08BF51F8043B0AD185EA0205B5EBBE
:10064000036F0CD150F8042BE8E74FEA13235BE06B
:100650003CF07F4C54D10B784FEA126554E04FEADE
:10066000126503F0FF034FE04FEA0245A2F1013C9F
:100670004FEA15452CEA020CB5EB134F18D11CF0CC
:10068000803C08BF51F8043B07D185EA0205B5EB71
:10069000034F09D150F8042BE6E75FEA0C4C2FD149
:1006A0000B884FEA12452FE04FEA03434FEA124509
:1006B0004FEA134328E000BF02F0FF05B5EB136FCC
:1006C000A2F1013C2CEA020C0DD11CF0803C08BFC9
:1006D00051F8043B0AD185EA0205B5EB032F0AD194
:1006E00050F8042BE8E74FEA13630DE012F0FF0F18
:1006F00006D051F8043B4FEA122523F07F4303E074
:100700004FF0000020BC704705F0FF0203F0FF002F
:10071000012828BF904204BF2D0A1B0AF4D0A2EB87
:10072000000020BC704700BF81F0004102E000BF24
:1007300083F0004330B54FEA41044FEA430594EAA1
:10074000050F08BF90EA020F1FBF54EA000C55EADC
:10075000020C7FEA645C7FEA655C00F0E2804FEAAD
:100760005454D4EB5555B8BF6D420CDD2C4480EA8F
:10077000020281EA030382EA000083EA010180EABF
:10078000020281EA0303362D88BF30BD11F0004F0D
:100790004FEA01314FF4801C4CEA113102D0404243
:1007A00061EB410113F0004F4FEA03334CEA13337E
:1007B00002D0524263EB430394EA050F00F0A78096
:1007C000A4F10104D5F1200E0DDB02FA0EFC22FA91
:1007D00005F2801841F1000103FA0EF2801843FA85
:1007E00005F359410EE0A5F120050EF1200E012A76
:1007F00003FA0EFC28BF4CF0020C43FA05F3C018B4
:1008000051EBE37101F0004507D54FF0000EDCF12C
:10081000000C7EEB00006EEB0101B1F5801F1BD3D5
:10082000B1F5001F0CD349085FEA30004FEA3C0CD9
:1008300004F101044FEA445212F5800F80F09A80CF
:10084000BCF1004F08BF5FEA500C50F1000041EBD3
:10085000045141EA050130BD5FEA4C0C404141EBD7
:100860000101013C28BFB1F5801FE9D291F0000FD2
:1008700004BF01460020B1FA81F308BF2033A3F181
:100880000B03B3F120020CDA0C3208DD02F1140C78
:10089000C2F10C0201FA0CF021FA02F10CE002F1B3
:1008A0001402D8BFC2F1200C01FA02F120FA0CFCAC
:1008B000DCBF41EA0C019040E41AA2BF01EB0451F5
:1008C000294330BD6FEA04041F3C1CDA0C340EDCF3
:1008D00004F11404C4F1200220FA04F001FA02F336
:1008E00040EA030021FA04F345EA030130BDC4F1F4
:1008F0000C04C4F1200220FA02F001FA04F340EAE9
:100900000300294630BD21FA04F0294630BD94F099
:10091000000F83F4801306BF81F480110134013D80
:100920004EE77FEA645C18BF7FEA655C29D094EAF1
:10093000050F08BF90EA020F05D054EA000C04BF6F
:100940001946104630BD91EA030F1EBF002100205A
:1009500030BD5FEA545C05D14000494128BF41F0F9
:10096000004130BD14F580043CBF01F5801130BD5D
:1009700001F0004545F0FE4141F470014FF00000E8
:1009800030BD7FEA645C1ABF194610467FEA655C99
:100990001CBF0B46024650EA013406BF52EA03353B
:1009A00091EA030F41F4002130BD00BF90F0000F29
:1009B00004BF0021704730B54FF4806404F1320465
:1009C0004FF000054FF0000150E700BF90F0000F1E
:1009D00004BF0021704730B54FF4806404F1320445
:1009E00010F0004548BF40424FF000013EE700BF15
:1009F00042004FEAE2014FEA31014FEA02701FBFA5
:100A000012F07F4393F07F4F81F06051704732F0D6
:100A10007F4208BF704793F07F4F04BF41F400212D
:100A2000704730B54FF4607401F0004521F000418B
:100A30001CE700BF50EA010208BF704730B54FF015
:100A400000050AE050EA010208BF704730B511F016
:100A5000004502D5404261EB41014FF4806404F14E
:100A600032045FEA915C3FF4D8AE4FF003025FEAD4
:100A7000DC0C18BF03325FEADC0C18BF033202EB58
:100A8000DC02C2F1200300FA03FC20FA02F001FAB2
:100A900003FE40EA0E0021FA02F11444BDE600BF55
:100AA0004FEA4102B2F1E04324BFB3F5001CDCF190
:100AB000FE5C0DD901F0004C4FEAC0024CEA5070C8
:100AC000B2F1004F40EB830008BF20F001007047F7
:100AD00011F0804F21D113F13872BCBF01F00040FA
:100AE000704741F480114FEA5252C2F11802C2F12C
:100AF000200C10FA0CF320FA02F018BF40F00100AD
:100B00004FEAC1234FEAD32303FA0CFC40EA0C005E
:100B100023FA02F34FEA4303CCE77FEA625307D19B
:100B200050EA01331EBF4FF0FE4040F440007047D2
:100B300001F0004040F0FE4040F40000704700BF6C
:100B40007BB972B90029BEBF00204FF0004106E01A
:100B500008BF00281CBF6FF000414FF0FF3000F0CD
:100B600057B8ADF1080C6DE904CE002909DB002B64
:100B70001ADB00F062F8DDF804E0DDE9022304B0DE
:100B80007047404261EB4101002B1BDB00F055F840
:100B9000DDF804E0DDE9022304B0404261EB4101ED
:100BA000524263EB43037047524263EB430300F04E
:100BB00044F8DDF804E0DDE9022304B0404261EBD3
:100BC00041017047524263EB430300F036F8DDF811
:100BD00004E0DDE9022304B0524263EB43037047B3
:100BE00053B94AB9002908BF00281CBF4FF0FF3194
:100BF0004FF0FF3000F00CB8ADF1080C6DE904CEF9
:100C000000F01BF8DDF804E0DDE9022304B07047D2
:100C1000704700BF430803F05533C01A00F0333368
:100C2000800800F0333018444FF0013300EB10100F
:100C300000F00F305843000E70472DE9F04786460C
:100C40008C460846089E154674461946002B40F00F
:100C5000C1808542B2FA82F245D94AB1C2F120037D
:100C600000FA02FC954094402EFA03F343EA0C0C80
:100C70004FEA154EA8B2230CBCFBFEF80EFB18CCB5
:100C800008FB00F943EA0C43994528D9EB1808F111
:100C9000FF3704D2994502D9A8F102072B44A3EBF0
:100CA0000903A4B2B3FBFEFC0EFB1C330CFB00F0EB
:100CB00044EA0344A04214D92C190CF1FF3304D2A6
:100CC000A04202D9ACF102032C44241A43EA0740A3
:100CD0001EB1D440002334607360BDE8F0874746FE
:100CE000DDE76346F1E792BB431B01214FEA154E56
:100CF000AFB2200CB3FBFEFC0EFB1C330CFB07F861
:100D000040EA0343984561D9EB180CF1FF3004D257
:100D1000984502D9ACF102002B44A3EB0803A4B21E
:100D2000B3FBFEFC0EFB1C330CFB07F744EA034449
:100D3000A7424DD92C190CF1FF3304D2A74202D996
:100D4000ACF102032C44E41B43EA0040C0E7C2F1CB
:100D500020039540944020FA03F12EFA03F34FEA62
:100D6000154E9040AFB20343B1FBFEFC0EFB1C10CE
:100D7000190C0CFB07F841EA0041884522D9691893
:100D80000CF1FF3004D2884502D9ACF102002944AD
:100D9000A1EB08019BB2B1FBFEFC0EFB1C110CFB8E
:100DA00007F743EA01439F420ED9EB180CF1FF31DC
:100DB00004D29F4202D9ACF102012B44DB1B41EA71
:100DC000004193E76046E3E76146F7E76046A4E742
:100DD0006346B8E7834206D916B9002108467CE786
:100DE000C6E900E0F9E7B3FA83F78FB9834201D38C
:100DF000724508D8BEEB020460EB030301209C4659
:100E00001EB9002169E73846FAE7C6E9004CF8E761
:100E1000C7F1200CBB400EFA07F522FA0CF42EFAAB
:100E20000CF1BA401C4320FA0CF3B8404FEA1449C5
:100E300001431FFA84FEB3FBF9F809FB18300B0CD1
:100E400008FB0EFA43EA00439A4540D9E31808F13B
:100E5000FF3004D29A4502D9A8F102002344A3EB43
:100E60000A0389B2B3FBF9F809FB183308FB0EFE3D
:100E700041EA03418E452CD9611808F1FF3304D2B1
:100E80008E4502D9A8F10203214443EA0040A1EBB8
:100E90000E01A0FB02984145CE46434602D306D13F
:100EA0004D4504D20138B9EB020E68EB0403002E65
:100EB000A7D0B5EB0E0261EB030101FA0CFC22FA9C
:100EC00007F3F9404CEA0303C6E9003199E74046CD
:100ED000C5E74346D9E700002DE9F04F82461746A3
:100EE0001C4600259FB00391387810B9284600F0C1
:100EF000A9BD252809D00399D0470028C0F2A285B2
:100F00007B1C01350593059FEEE71822002110A8F0
:100F100028F0E2FA7B78252B00F0BC80002398466D
:100F20009E469C461846791C0E4611F8012B2B2A2A
:100F300000F0E38000F2DA80202A00F0E180232A2A
:100F400000F0E1802BB19DF8483043F040038DF86C
:100F50004830B8F1000F05D09DF8483043F0200329
:100F60008DF84830BEF1000F05D09DF8483043F0B1
:100F700010038DF84830BCF1000F05D09DF84830C3
:100F800043F008038DF8483028B19DF8483043F00D
:100F900004038DF848309DF8483003F0440144299B
:100FA00003D16FF386138DF848309DF848302A2A14
:100FB00043F080030E968DF8483040F0A9809DF8EC
:100FC000493043F001038DF84930731C1A782E2AFA
:100FD0000CBF012100219DF8492061F341028DF8E9
:100FE00049200CD15A1C0E925A782A2A40F0A0802F
:100FF0009DF84920023342F004028DF849201A7806
:101000006C2A00F0C18000F2A380682A00F0A98059
:101010006A2A00F0C2804C2A00F0C78013F8012B26
:10102000782A05938DF84B2000F209816D2A00F291
:10103000C980692A00F20381572A00F2E280412A1E
:1010400004D0A2F14503022B00F2F98004219DF89F
:101050004A3002F0DF02A2F1410961F30203D9F143
:1010600000029DF8491042EB090262F3C7110A061B
:101070008DF84A308DF84910CBB200F11F8103F092
:101080007802182A40F009816FF3C6038DF84930C1
:101090000023F8E08DF84B30BB1C05939DF84930D8
:1010A0009DF84A20DE0702F0070040F1098154F85C
:1010B000041B0029049108DA9DF8481041F004014E
:1010C0008DF84810049949420491590740F1008174
:1010D00054F8046B002E80F2FF809DF849306FF3C6
:1010E00041038DF849304FF0FF36F5E02D2A0DD041
:1010F000302A7FF427AF012316E74FF0010C13E7E6
:101100004FF0010E10E74FF001080DE701200BE74B
:101110000EA801F0D9FA0E9BB3423FF457AF9DF8E9
:1011200048201390C00F60F341028DF848204DE72E
:101130000EA801F0C9FA9DF848301490C3F340029C
:1011400042EAD07262F341038DF848300E9B56E7B5
:10115000742A26D07A2A7FF461AF06219DF84920AF
:101160000CE05A78682A9DF8492006D1012161F3E4
:10117000C6028DF84920023350E7022161F3C6020E
:101180008DF84920013349E75A786C2A9DF84920A7
:1011900001D10421EBE70321F0E705219DF8492067
:1011A000ECE707219DF84920E8E7BDF8482022F444
:1011B000F04222F0020242F4804242F00202ADF814
:1011C0004820DFE76E3AD3B201229A4040F28243D0
:1011D0001A429DF8493039D112F0240F61D1D1075C
:1011E0002DD503219DF84A2003F07803A3F1400890
:1011F00061F30202D8F100038DF84A2043EB0803A3
:1012000041E00120A2F15801C9B200FA01F111F444
:10121000624F7FF41BAF40F6010319429DF849303D
:101220001AD111F4043F0AD09DF84A2060F302025B
:1012300003F07803402B8DF84A207FF429AF9DF806
:10124000483043F001038DF8483021E702219DF832
:101250004A2061F30202EBE702209DF84A1003F0F6
:10126000780360F30201402B8DF84A1002BF9DF80D
:10127000481041F001018DF84810632A7FF408AF4F
:10128000003B18BF01239DF84820C2F340010B43E7
:1012900063F341028DF8482000E713F0380FCED1F8
:1012A000F6E603219DF84A2013F0780F61F302025D
:1012B00014BF012300238DF84A20E4E70123E2E76D
:1012C0009DF948100029ACBF4FF0FF311399FBE6A0
:1012D0009E077FF508AF149E00230428CDE9133341
:1012E0009DF8493007D1990705D49DF94910002987
:1012F000ACBF06260D2602F00702012AC3F3C30382
:1013000032D1DA1E042A04D8DFE802F02045452055
:1013100020002268012B4FEAE271CDE910211BD198
:101320009DF94020D117CDE9102104349DF84820C3
:10133000069292074FD03A465046059B039928F0F3
:10134000EDFF0028C0F27E830544DCE554F8042B51
:10135000D117CDE91021E9E7022BE6D111B242F312
:10136000C032CDE91012E0E7022A24D1DA1E042AA5
:1013700004D8DFE802F0181010181800012B4FF005
:10138000000154F8042B14D0022BCDE91021CDD14B
:1013900092B21092CAE7073424F00704F4E802017D
:1013A000CDE91001C2E754F8042B109200221192EB
:1013B000BCE7D2B2CDE7042A08D1073424F00704F1
:1013C000D4E900010834CDE91001AFE7032AADD11B
:1013D00054F8042BDDE79DF84B80B8F1780F3FF609
:1013E00092ADB8F1570F5CD8B8F1250F00F0A4808A
:1013F000B8F1240F7FF687ADB8F1410F04D0A8F102
:101400004503022B3FF67FADDDE91023002BC0F230
:101410004D810699080700F14C81C1F300194FEA8C
:101420004919C3F30A51C3F31303002940F044815F
:1014300052EA030014BF4FF0010C4FF0000CD80229
:1014400040EA5250D702CDE90C70B8F1460F47EA96
:10145000010740EAE17008BF4FF06608384300F02A
:10146000B781BCF1000F10D01B0343EA12531703DE
:101470003A4618464FF0000C002880F25681BCF125
:10148000000F40F05981CDE90C730D9BA1F2FE3B9A
:1014900043F000430D930021DDE90C230F460520A6
:1014A00060E1A8F15802202A3FF62DAD01A151F8C4
:1014B00022F000BF7F160000070F0000070F00009A
:1014C000070F0000070F0000070F0000070F0000C4
:1014D000070F0000070F000009140000070F0000AD
:1014E0002B1600003F16000009140000091400002C
:1014F00009140000070F00003F160000070F00004E
:10150000070F0000070F0000070F000085160000FE
:101510007F160000CF150000070F0000070F000026
:1015200049150000070F00007F160000070F00009C
:10153000070F00007F16000040460399D04700289F
:10154000C0F280820135DEE4002E109F3BDB314685
:10155000384628F0C3F9002F3FF4D5AC4FF000090E
:101560003E18F31B9DF84A2012F01001069100F07E
:101570005E82023312F04002DDF84C80089218BF00
:10158000149A434418BF9B18049ACDF81C80002A73
:1015900040F36882D31A9DF8482004935007C2F3A1
:1015A000800B00F15F82510640F14F82B9F1000FCC
:1015B00007D048460399D0470028C0F24382D94655
:1015C0000135302242E2384628F0E4F8C6E71098A8
:1015D000002800F027820DF175030093002117AB5E
:1015E00012AA01F087F84FF000090746BDF84A300B
:1015F00003F0EF0343F4F04343F01003ADF84A3037
:10160000002E0CDB9DF848200DF17503DB1B6FF3FA
:1016100086129E428DF8482001D9F31A1393002FA9
:101620003FF471AC0DF175066DE0109B4FF00009B1
:101630008DF85C300DF15D06012317AF92E7069B34
:101640001F0754BFC3F300194FF02B09DDE9102326
:1016500058BF4FEA4919002B06DA4FF02D095242C4
:1016600063EB4303CDE91023DDE910010DF17503B0
:10167000009312AA17AB01F03DF80746C0E74FF000
:101680000009F1E7109A072B3FF63DACDFE803F0C5
:101690000C04060C08080C0C157034E4158032E4B8
:1016A000EB17C2E900532EE415602CE44FF02D092E
:1016B000B7E64FF02B09B4E640F2FF70814231D11A
:1016C000A34908F101085FFA88F811F808101343DC
:1016D00001F003011ED101290BBF492369234E21CB
:1016E0006E210CBF462266228DF85C309DF8483092
:1016F0008DF85D106FF386138DF85E208DF84830FD
:101700000DF15F0617AFF31BB9F1000F3FF42AAFDD
:10171000013327E7012915BF6E234E2361214121A3
:101720001A46E1E74FF0000C89E692184FF0010CE1
:1017300001F1FF3140419FE6CDE90C20A5E65208BA
:1017400042EAC3725B08B3F1333F59460BF1010B18
:10175000F5D201F1020B012100FB03FCA2FB0023E7
:10176000013F63441BF1020FE9DB09B1CDE90C2312
:10177000DDE90C32BBF1000F2DDCCBF10401A1F14E
:1017800020000BF11C0B02FA0BFB22FA00F0CA40FE
:10179000CB40079208F0DF0243EA0B03472A43EAF3
:1017A00000037BD1F91C01DBBE422ADAA8F1020852
:1017B000002E5FFA88F87ADD9DF84820013E9206F7
:1017C00075D4B6F1000B18BF4FF0010B721C26E068
:1017D0004FF0000B5FE6023342F100020CA80BF160
:1017E000FF3B0137CDE90C3228F069FDDDE90C3211
:1017F000DB185241002A0BF1FF3BF9DACDE90C323C
:10180000B6E79DF84820F61B90064DD4B6F1000BC4
:1018100018BF4FF0010BF2194FF066084AD4102A96
:10182000A8BF10229FED487B10208DED0E7B0B9002
:10183000DDE90E01002A3FD1079A1B1842EB010196
:10184000B1F1805F47D2CDE90C31069BB8F1660F4C
:1018500003F0200240F0C680002F47DC30238DF8D3
:101860005C30002A76D1002E40F3BD812E238DF806
:101870005D3087B17B42B342A8BF3346002B139340
:10188000A6EB0306D4BF002301239DF84A2063F38F
:1018900045128DF84A200DF15E0340E0B8F1660F65
:1018A0004FF0000BB7D091E74FF0000BB3E74FF0CC
:1018B000000B8BE70022B5E7400840EAC1704908F9
:1018C000CDE90E010EA8CDE9082328F0F8FC089A0E
:1018D000099B013AACE75B0843EAC1730CA84908CD
:1018E000CDE90C31013728F0EAFCAEE717AB0B99D4
:1018F00000290BDD0BA90CA8CDE9063228F0F7FC76
:10190000069B013F079A03F8010BF0D11397AAB980
:10191000002E40F366812E2103F8011B0027002EC4
:1019200021DD0B9A002A1EDD0BA90CA8069328F0D6
:10193000DEFC069B013E03F8010BF0E72E2203F8C4
:10194000012BEBE7AFF3008000000000000000086F
:101950000C1C04002E238DF85D30002F9BD0002E30
:1019600088DC0DF15E03BBF1000F4FD114961E46CB
:1019700008F0DF03452B24D1002FBABF7F422D236F
:101980002B23632FC8BF64227370C4BFB7FBF2F36D
:1019900002FB13774FF00A02C8BF03F13001B7FB17
:1019A000F2F3C8BFB17003F1300102FB137386F884
:1019B000008003F13003D4BF0236033631707370F8
:1019C0000236139B002B2BDC149B002BD4BF00236F
:1019D00001239DF84A2063F3861200238DF84A20E4
:1019E00033708FE60BA90CA8069228F080FC069AAB
:1019F00030288DF85C0018BF07F1FF3712B9002EB0
:101A000040F3F1802E238DF85D3044E71E4616F832
:101A1000012C013B302AF9D02E2A08BF1E46A7E729
:101A20000123D6E7714E81460523771F9AE51107FA
:101A300048BF01339EE5104609920399D04700281C
:101A4000099A05DA1FB0BDE8F08F2022DDF810B04A
:101A5000594600290BF1FF3BEDDC049BCDF810B09B
:101A60002B445D1AB9F1000F05D048460399D047C1
:101A70000028E7DB0135089B002B77D09DF9493022
:101A8000002B28DB3B46DFF8689118789B4619F855
:101A90000020013352073FD49DF84A30EF1B9806CF
:101AA0005F4407D44246002A08F1FF383BDC079B1D
:101AB0003B449F1A9BF800002E280AD10399D04777
:101AC0000028BFDBB8F1000F07F1010731DC0BF193
:101AD000010B5D4638E0B94699F80000C846702809
:101AE00009F1010913D1EF1B149D47443D44EB1B41
:101AF000002B33DC334642465046039928F00EFC57
:101B000000289FDB3844049E0546064464E00399A0
:101B1000D0470028E0DA95E706930399D0470028DC
:101B2000069BB2DA8EE730200399D0470028B9DA55
:101B300088E730200399D04708F1FF38C0E70399C0
:101B4000D0470028FFF67EAF2878A84619F8003065
:101B500001355907F3D4A7EB0B07C5E730200399EC
:101B6000D0470028FFF66EAF0137C0E79DF84A3036
:101B7000DA0601D41B0706D530200399D047002888
:101B8000FFF660AF0135069B3BB103999DF84B0012
:101B9000D0470028FFF656AF0135A84406E03020B4
:101BA0000399D0470028FFF64DAF0135A8EB050398
:101BB000002BF4DC33463A465046039928F0AEFB3E
:101BC0000028FFF63FAF28449DE720200399D04727
:101BD0000028FFF637AF0135731B002BF5DCFFF74C
:101BE00092B91746BFE60DF15D03BCE6102504006F
:101BF0000D1C0400000000002DE9F0470546994641
:101C00000024282386B088469246CDE902432CF072
:101C100074FA284602A92CF015FD0746002800F0AA
:101C2000AF8083793A2B18D1042303992846049472
:101C300005932CF0BDFA284604A92CF003FD18B139
:101C400090F90030A34205DB6FF01505284606B079
:101C5000BDE8F08728462CF050FABB79112B58D0FC
:101C6000062B58D00020AB68002B4ED19FED487B4F
:101C7000022295F828308DED007B02FB03013A2308
:101C8000A869043105F0D2FC044600287BD095F801
:101C90002820696A2CF0BBFC061E31DBA3682046B5
:101CA000DB68E36295F83020E96A2CF0B0FC061E90
:101CB00026DBA06895F830100C3029F012F9A068E6
:101CC00050F80C3F636295F8281029F00AF995F84E
:101CD000303007F1180184F8283095F8283084F85E
:101CE00030303B7EFF2B03D1A0692AF03CFE014639
:101CF000204607F108022DF0C4F970B16FF0040618
:101D000020462CF074F93546A0E71A8A5B68104427
:101D1000AAE73020AAE73C20A8E7414652462046E1
:101D20002DF0A1F801460028E8D1B8F1040F22D126
:101D300099FA89F34246204604A904932CF067FCE3
:101D4000064620462CF073F90246002ED8D12946CB
:101D500020462CF015FB05460028D1D120462CF05A
:101D6000CCF93A2120462DF0EFF920462AF0DFF891
:101D70000028C5DB6AE7042220462CF0E1FADFE701
:101D80006FF0040562E76FF00B055FE7AFF30080CB
:101D9000127A0000000000002DE9F84F2DED028BB3
:101DA0002DF05BFA002506460F469FED2B8B06F0C3
:101DB000CFFBA8462A4C237883B3D4F808A0BAF105
:101DC000000F2BD0DAE90A3253EA020126D013F5CC
:101DD0007A7342F1000BB3EB06096BEB070BB9F119
:101DE000010F7BF1000324DB1E4830F017FE08438F
:101DF00014D147F61222A9FB023102FB0B1140F26B
:101E0000E732981841F100014FF47A720023FEF78F
:101E1000E7FE02460B4614480EF0CAFF0135082DB6
:101E200004F15004C7D1BDEC028BBDE8F84F06F0B9
:101E300099BBDAF800008AED0A8B0028EED02CF06E
:101E4000D6F8DAF800002CF0D2F82046CAF8008064
:101E50002DF0BBF8E2E700BF00000000000000002A
:101E6000D0060020E8150020D81500200000000052
:101E700070B514460646CD17A1FB0201002304FBF2
:101E800005110A22FEF75CFE0FA3D3E900230C4DD7
:101E900080FB054520462946FEF752FE06A3D3E9FE
:101EA0000023306029462046FEF74AFE0023054AFB
:101EB000FEF746FE726070BD80A8120100000000AF
:101EC000D8EF2F0040420F0000209BF35E1000006F
:101ED00003292DE9F04105460C4604D0072973D0AB
:101EE0006FF085004CE0002A52D0072AF8D15868DC
:101EF0001A68614BC117C2FB0301012871F100038D
:101F00005BDBD5F804805D4B98F81A60C0184FEA87
:101F1000D61655A3D3E9002341F1000176B2FEF7AE
:101F20000FFE002E14BF04230223984298F91A7062
:101F300028D0002E14BF20231023984224D0002E36
:101F400014BF08230423984220D0002E14BF10236E
:101F50000823984231D1E6B2314640462D6928F037
:101F600056FC002823DB3D22454B002F33F814306C
:101F7000AE77AABFA3FB023253435B08EB6000209D
:101F8000BDE8F0810024E6E70124E4E70224E2E76B
:101F900019883C4B14461F4633F8022B914209D84E
:101FA0006868E1B22E6928F09FFD002808DA6FF01A
:101FB0000400E5E701340B2CEED16FF01500DFE7EC
:101FC00037F81430B383DAE7002A3AD0072A87D1EA
:101FD000B4245A681968284BD017C1FB0320A2FB10
:101FE0000431012A04FB001170F100001DDB2648BA
:101FF000181841F100011EA3D3E900230024FEF7C5
:102000009FFD224B33F8022B904216D16868E1B253
:102010002E6928F013FC0028C9DB41F217121C4B73
:1020200033F814305343B361A9E71A48181861F123
:1020300000010FA3D3E90023E0E70134072CE1D12D
:10204000BBE719880F4B33F8020B814206D868684A
:10205000D1B228F0B7FD002891DAA8E701320B2AA7
:10206000F1D1AAE7AFF300803AA395000000000089
:10207000D8EF2F000000000040420F009DD14A0021
:102080002A1D0400321D0400ECF717001C1D04007B
:102090000E1D04001408E8FF2DE9F74F032914462C
:1020A000066905D90B1F032B53D96FF0850023E078
:1020B0000229F7683A4D22D0032923D0012914BF01
:1020C000B6F90460B6F90660A6FB076732A3D3E948
:1020D000002386FB056530462946FEF731FD0023C7
:1020E000304A206029463046FEF72AFD00232D4A5B
:1020F000FEF726FD6260002003B0BDE8F08FB6F960
:102100000860E1E74FF0000B02F11803DFF894A03C
:102110000236019336F9028FA8FB07831EA3D3E989
:10212000002388FB059848464146FEF709FD5246C4
:1021300044F8080B5B4648464146FEF701FD52460F
:102140005B46FEF7FDFC019B44F8042C9C42E1D168
:10215000D1E70629B5690CD007290ED02A460529F2
:1021600014BFB6F91010B6F912102046FFF780FE22
:10217000C1E72A46B6F91410F7E70E3602F1180740
:1021800020462A4636F9021F0834FFF771FEA7429F
:10219000F6D1B0E7AFF300800010A5D4E80000004E
:1021A0003AA3950040420F0070B50446C6B033F024
:1021B000AFFBAC340146054604AA204635F04EFC80
:1021C000002802DA404217F0BFFC082302AE0122C9
:1021D00000932946334620461EF05EF80828024642
:1021E0003DD100200146013AB35C090241EA106189
:1021F00043EA0020002AF6D11CA3D3E90023FEF70E
:102200009FFC194D451961F1000600210A2015F0C7
:102210004DFA9DF810300446012B48F2010308BF27
:102220004FF0011383600123C0E90333C0E9053394
:10223000C361059831F0B9FD31462062284631F07E
:1022400089FD31466062284631F084FD3146A06246
:10225000284631F07FFDE062204646B070BD002583
:102260002E46D2E7AFF3008080BC92C700CA9A3BEB
:1022700000000000000000002DE9F04F0369C26873
:10228000354E591CB6FBF2F689B005D143690133CE
:1022900059D1324817F062FA0132FAD0426901325C
:1022A00001BF4FF6FF727343B3FBF2F3436143691F
:1022B000002B44DA00234361D0E901530393038BDD
:1022C00047690593AB6828465B68039906AA984757
:1022D000002831DBDDE9064BA6FB042306FB0B38A7
:1022E00004924FF0FF3A1AA3D3E900234146049821
:1022F000FEF776FC049BDFF868909A4579EB0803BB
:10230000064619D3A7FB044307FB0B3710A3D3E9F9
:10231000002339462046FEF763FCA24579EB070708
:10232000034609D38642AA6806D305992846009138
:10233000146803993246A04709B0BDE8F08FB34254
:1023400088BF4661B8E70132B1D1A2E7AFF30080A0
:1023500000CA9A3B0000000000CA9A3BA15D04003D
:10236000FFC99A3B10B50D4A0D4C118824884B1CAF
:10237000C3F308039C4204D10A4827F067FF0120F9
:1023800010BD094C2468A04204D10FF089FF0FF062
:1023900019FDF4E7054C13806054F0E7CC2C0020C5
:1023A000CE2C0020E6240400380E0020D22E00207F
:1023B000034B1888034B1B88C01A18BF01207047B5
:1023C000CE2C0020CC2C00200D4A0E4B11881B88EF
:1023D000994212D0EFF31181202383F31288BFF3C7
:1023E0006F8F09481388C05C0133C3F3080313805F
:1023F00081F31188BFF36F8F70474FF0FF30704744
:10240000CE2C0020CC2C0020D22E002008B5054870
:102410000BF09CFABDE808400022114610460BF074
:102420009BBA00BF65230000014B1B68184700BF23
:10243000A0060020014B1860704700BFA0060020D6
:1024400007B50B460021024600910348FEF744FD04
:1024500003B05DF804FB00BF2924000030B500255F
:1024600087B0CDE903010446009503A90548059509
:10247000FEF732FDDDE904309842B8BF255407B0BD
:1024800030BD00BF29A20200032808B506D928F0F4
:10249000B3FC092303604FF0FF3008BD3022044B2A
:1024A00002FB0033D3E8AF3F002BF0D00020F4E76D
:1024B000801D00203023434330B50D4908330B44C1
:1024C000D3E8AF2F92B1541ED3E8EF5F954204D109
:1024D000C3E8EC4FBCF1000FF6D1F1D1012A05D1D0
:1024E0003023584300230A180B50536030BD00BFFF
:1024F000781D002070B504460D461646FFF7C4FF50
:1025000000280ADB084A55B1302303FB04235B682B
:10251000AB4204D028F070FC0660002070BD302370
:102520005C431059FAE700BF781D0020F8B51E463D
:10253000154B174600241D461A68904202D15A686E
:1025400091420AD00134042C03F13003F4D128F075
:1025500053FC17234FF0FF3403602046FFF794FF2E
:1025600000280EDB27B1302101FB04510C3139600A
:102570000EB90120F8BD302303FB0455203535602A
:10258000F7E70020F6E700BF781D002070B504468D
:102590000E461546FFF778FF00280DDB3023634316
:1025A000064AD1184968316015B10C3313442B60C9
:1025B00030235C43105970BD0020FCE7781D0020DB
:1025C00070B500254FF0FF334FF0FF32174827F06A
:1025D00070FE174BD3E8AF2F7AB10135042D03F10C
:1025E0003003F7D128F008FC17234FF0FF350360C4
:1025F0000E4827F060FE284670BD30246C43D3E8B7
:10260000EF0F0130C3E8E10F0029F8D1094E33196B
:1026100032515A6004F10C0030442FF0AAFE04F14C
:102620002000304430F075F8E2E700BF180F0020BA
:10263000801D0020781D002030B40446302510464F
:102640006C43084A151911516860EB6240B1C368C8
:1026500033B10C34131940F2051230BC27F01ABE06
:1026600030BC7047781D0020F8B50546FFF70CFF19
:10267000002824DB30246C43124F04F10C063E4446
:102680004FF0FF324FF0FF33304627F012FE3A1979
:1026900053689B688BB1D26A385912F4404F0AD004
:1026A000294698470446304627F005FE2846FFF79E
:1026B00001FF2046F8BD9847F4E71C46F3E74FF0CA
:1026C000FF34F6E7781D0020F0B5024601680A27BE
:1026D0000020074E0B461C780131355D6D0701D493
:1026E0001360F0BD07FB0043A3F13000F2E700BF29
:1026F0000D1C04002DE9F84F15469A46D378234A5D
:102700006F2B12F803B081460F460BF0030B2BD052
:1027100026D8582B0CBF10260A26DDF82880324612
:10272000002348463946FEF75BFA092A08F1FF38CC
:10273000D4B21ED83034B145E4B277F1000788F83E
:10274000004001D3D04511D82B789B0605D5082E23
:1027500015D1AB7843F00803AB704046BDE8F88F65
:1027600003F0F703702BD5E70826D6E781460F461E
:10277000D5E7BBF1010F0CBF37345734DBE7102E20
:10278000EBD1AB7843F01003E6E700BF0D1C04006B
:1027900008B5EFF31183202383F31288BFF36F8F03
:1027A00000F038FB024827F051FD28F0DAFAFCE788
:1027B000112504002DE9F047058B044628079046B3
:1027C00011D4022905F0070540F0CC80204627F0FF
:1027D000EFFE78B10138218B042811D8DFE800F032
:1027E000C2106D85950001290CBF45F0100545F01C
:1027F0002005258388F31188BFF36F8FBDE8F0872C
:1028000001F0070AAA4500F0A5800027B9463E4618
:10281000A368002B00F0BC8041F00801218388F3FD
:102820001188BFF36F8FA168002900F0BA800D688E
:10283000002900F0B680334652462046D1F8048085
:10284000C047002D76D02B6829461D46F0E701F0E1
:1028500007035A1F012A1BD8002221F00701062B6B
:10286000276889B2C4E9002209D13B4603E0628BA4
:10287000013262831B68002BF9D141F0020120462E
:10288000218327F095FE00287AD041F0200176E0E0
:10289000042B0AD121F0070189B22046218327F0B9
:1028A00087FE10B141F020012183218B01F0070A3E
:1028B000AA454FD00027B946AAE7236921F00701AE
:1028C00041F00601062DD3F8009021832DD1B9F1F6
:1028D000000F3FD041F00801218388F31188BFF336
:1028E0006F8F20463949C84729E021F00701236945
:1028F00041F0040189B2042DD3F804902183E6D07D
:1029000000274FF0040A3E4682E721F007012369C1
:1029100041F0050189B2052DD3F808902183D6D066
:1029200000274FF0050A3E4672E700274FF0060ADF
:102930003E466DE72B4687E7B9F1000FD1D1EFF3A3
:102940001188202383F31288BFF36F8F238B23F02A
:1029500008032383258BEA062ED525F01003238355
:1029600005F007056669218B002EBFF670AF0023C6
:102970002768C4E9003321F0070141F001012183F8
:10298000218B4FF0000901F0070AAA457FF440AF00
:10299000002F9CD041F00801218388F31188BFF3F8
:1029A0006F8F002FC8D03D683946334652462046C7
:1029B00027F02AFE2F46F4E7AB067FF51BAF25F084
:1029C0002003238305F0070500E700BF35A60200BA
:1029D0001FB5C168D0E90123029164215943B1FBBD
:1029E000F2F1CDE9002104460168D21A054827F02A
:1029F0002DFCD4E906230449044804B0BDE8104086
:102A000027F024BC3A250400D64C04007A250400A3
:102A1000F0B595B00546D0F8B0600F682FF083FE92
:102A2000044608B1037833B92B460B21194A01A893
:102A300027F019FC01AC694628462FF084FE0246B7
:102A400028B12146144827F001FC00230093009B85
:102A5000CDE90A462846F61A0EA90C962FF07AFE02
:102A600098B904A82FF080FE58B9DDE90423642446
:102A70000E980F9DA0FB040104FB0511FEF7B0F8B2
:102A80000D900AA8B84715B0F0BD04A82FF06CFE51
:102A9000F7E700BF9F250400A225040000B589B018
:102AA000CDE906010E4806A90EF08CFE05AA4FF4EA
:102AB00000610C482FF03BFE024670B96421059B73
:102AC000C3F500604143C90A02914FF40061CDE9AA
:102AD00000010549054827F0B9FB09B05DF804FB82
:102AE000112A000030030120CA250400CE2504006D
:102AF00010B50446044827F0A9FB2146BDE8104064
:102B00000248FFF7CBBF00BF04260400D129000014
:102B1000014B03600020704798D5030030BFFFF7DA
:102B2000FDBF00BF074A936893F90E10002907DB29
:102B3000126A93421FBF044A536843F080535360A4
:102B4000704700BFE01A002000ED00E0154B9A6AC4
:102B500012F0007F9A6A14BF1E201D2012F0807FA1
:102B60009A6A18BF1F2012F4801F9A6A18BF0220A9
:102B700012F4002F9A6A18BF212012F4802F9A6A4B
:102B800018BF222012F4003F9A6A18BF232012F4C3
:102B9000803F9A6A18BF24206FEA02426FEA12420D
:102BA0009A62704700ED00E010B5194B0246986A32
:102BB0009C6A10F4805F14BF1720162014F4006F75
:102BC0009C6A18BF1820A40509D5986B986A000460
:102BD00004D51AB19A6A22F400429A6219200C4B69
:102BE0009A6A12F4806F9A6A18BF1A20D2050CD420
:102BF0009B6A13F4005F18BF1C20054A936A43F4D4
:102C00007F43936200230B7010BD1B20F5E700BFCC
:102C100000ED00E010B51C4B0246986A9C6A10F06B
:102C2000100F14BF1120102014F0080F9C6A18BF59
:102C30001220A40709D5586B986A000604D51AB16A
:102C40009A6A22F080029A6213200F4B9A6A12F05D
:102C5000010F9A6A18BF142012F0200F9A6A18BF49
:102C60001520D40658BF9B6A074B9A6A920642BF4A
:102C70005A6A22F400525A629A6A42F0FF029A6239
:102C800000230B7010BD00BF00ED00E070B5444B99
:102C900006465B6800259CB0C3F3080385F31188E2
:102CA000BFF36F8F02F07F40B0F17F4F11D102F080
:102CB0000C0008280DD010074CBF0E46012500223D
:102CC000033B8DF80720032B05D8DFE803F01E5CDB
:102CD00060592E46F3E700249DF807309BB968221F
:102CE000314602A8FDF7CCFB099B002D53D0C3F35E
:102CF000080222B96FEA53236FEA4323099320465F
:102D000002A928F00DF81CB070BD254BDA6A9107B6
:102D1000E1D4DA6A002ADEDBDA6A5200DBD55A69CE
:102D2000B16942F480725A61BFF34F8FBFF36F8F66
:102D30005A6931F8021C22F480725A61BFF34F8F36
:102D4000BFF36F8F4DF60272914209D09A6AD2B2E8
:102D500042B101200DF10701FFF75CFF0446BBE71C
:102D60003468B9E79A6A12F47F4F05D001200DF15B
:102D70000701FFF719FFF1E79B6AB3F5803FAAD37C
:102D8000FFF7E4FEEAE700200DF10701E4E7002089
:102D90000DF10701EDE723F4FF7323F00103ADE725
:102DA00000ED00E0064B5A6942F010025A615A6980
:102DB00042F480625A615A6922F008025A617047EF
:102DC00000ED00E0EFF30880EFF3098101B57246F2
:102DD000FFF75CFF01BD00BF0BF014FD202080F366
:102DE00011880B484FF0AA014FF400622FF0E4F96C
:102DF00007484FF40061401880F30988EFF314800E
:102E00000221084380F31488BFF36F8F00F0DEF8CF
:102E100030030120BFF34F8F0549064BCA6802F407
:102E2000E0621343CB60BFF34F8F00BFFDE700BFED
:102E300000ED00E00400FA05084B9B6883420BD1CB
:102E4000EFF3058343B1064B5A6842F080525A6053
:102E50005A6A22F400425A622FF086BDE01A00201E
:102E600000ED00E06FF00A01094A9368C3F8C01052
:102E70000849C3F8BC004B6843F080534B60002303
:102E800083F31188BFF36F8F9368D3F8C000704746
:102E9000E01A002000ED00E001B52FF059FCBDE87C
:102EA000014026498A6882F805E14FF0400010444D
:102EB000EFF3098C80E8F01F1EF0100F03D102F130
:102EC000C40080EC108A202080F31288BFF36F8F3B
:102ED0001B4F4FF000660A6A8A603E6092F905E176
:102EE000D2F8BC000023C2F8BC3080F311881EF079
:102EF000100F03D00023E1EE103A03E002F1C4000A
:102F000090EC108AEFF3148323F0040383F3148806
:102F1000BFF36F8F02F1400090E8F01F8CF3098837
:102F200002F1000004B527F010FFBDE8044001B530
:102F30000EF082F8BDE8014070470000E01A002062
:102F400004ED00E01EF0040F0CBFEFF30880EFF378
:102F50000980816911F8021C0229FFD001B572466F
:102F600027F0E4FE01BD00BF00B2002807DB01230B
:102F70004109034A00F01F00834042F821307047A6
:102F800000E100E0054B420953F82220012300F044
:102F90001F0003FA00F01040704700BF00E100E09E
:102FA00000B2002801F10101ACBF00F16040064B06
:102FB0004FEA4111C9B2ABBF00F5614000F00F000C
:102FC00080F800131954704714ED00E0144A08B556
:102FD000144B22F07F029A60BFF34F8FBFF36F8FC5
:102FE000D3F8882022F47002C3F88820D3F8882010
:102FF00042F4A002C3F888204FF04042C3F83422C4
:10300000BFF34F8FBFF36F8F0023E1EE103A0DF047
:10301000CDF90EF0FDFB00F081F80DF017FA00BFBE
:103020000000000000ED00E042F8203C009B0D494C
:1030300042F81C3C019B21F0010142F8183C029B24
:1030400042F8081C42F8143C4FF0807342F8043CEC
:103050000023C0F8BC304FF47D43203A0266C0F82C
:103060000431704781A20200104B9B6883421AD141
:10307000EFF30580B8B9EFF31181202282F31288B3
:10308000BFF36F8F1A7B22F002021A73EFF31483DF
:1030900023F0040383F31488BFF36F8F81F3118847
:1030A000BFF36F8F70476FF015007047E01A002074
:1030B00008B504460E4615460023E1EE103AEFF33C
:1030C000148323F0040383F31488BFF36F8FBFF3DB
:1030D0006F8F0C4B98600DF0AFFFD4F8AC3083F3DA
:1030E0000B882C4686F309884FF00000064B984762
:1030F00020464FF000014FF000024FF00003034C58
:10310000204700BFE01A002055AD020081A2020056
:103110001022014B1A61704700ED00E000232020CF
:1031200040F20F1210B5044CE1180133934281F8BC
:103130000003F9D110BD00BF00E100E008B5EFF3D6
:103140000583064A103B02EBC30152F8330049687D
:103150008847BDE80840FFF7E5BC00BFA8CC0300E6
:103160001FB5094C094A23460121094800F0FAF825
:1031700000230393074B0121E41A01A80193029451
:1031800000F0FAF804B010BD00F0022000000020AA
:1031900098D503006011002010B50C7A0B6804F07C
:1031A0001F0223F01F031A43CB68640923F01F0397
:1031B000054943EA440343F00103C1F89800C1F80C
:1031C0009C20C1F8A03010BD00ED00E010B5074B09
:1031D000D3F89030C3F30723013B984202D8FFF79E
:1031E000DBFF10BD6FF01500FBE700BF00ED00E056
:1031F0002DE9F04F0F46144606464FF000084D4D9E
:1032000085B0B84580F29280D6F80490B9F1000FED
:1032100036D0B9F11F0F40F2878019F01F0F40F030
:103220008380D6F800A01AF01F0F7DD1504627F0FA
:10323000B4FD834609EB0A00013827F0AEFD834553
:1032400072D11BF1160F6FD05C456DDDC5F898B0DB
:10325000D5F89C10C5F898B0D5F8A03021F01F0122
:1032600043F01F0AD6E900321A44994202F1FF39AD
:103270001ED1CA4508D131465FFA8BF027F096FD82
:1032800008F101080C36BCE73146C5F898B0D5F80E
:103290009C3022F01F0203F01F031343C5F89C303B
:1032A000E0B227F083FD10F1160F3DD0441CE7E794
:1032B000C5F898B0D5F8A020013B23F01F0302F019
:1032C0001F021343CA453146E0B2C5F8A030E8D02A
:1032D00027F06CFD10F1160F26D0C5F898B0D5F880
:1032E0009C209DF808300AF1FF3A62F304038DF840
:1032F0000830D5F8A0309DF808205B0863F347122A
:103300008DF80820D6E900321344009323F01F0300
:103310005344A3EB0903013023F01F036946C0B2F5
:103320000393FFF753FFBEE76FF01504204605B087
:10333000BDE8F08F00ED00E00522044BC3F89420B7
:10334000BFF34F8FBFF36F8F704700BF00ED00E0FA
:10335000BFF35F8F0022024BC3F89420704700BF79
:1033600000ED00E010B5034C2278FFF741FF20701C
:1033700010BD00BFD23000202DE9F74F294D8A46FD
:1033800006464FF00008AB46274FD0451BDAD6F86B
:103390000490B9F1000F3FD031680846019127F041
:1033A000FCFC0199044609EB0100013827F0F5FC0B
:1033B00084424FF014021D4B08D002FB08F36FF05B
:1033C00015024BF8032003B0BDE8F08F14F1160F7F
:1033D0002C60F8D01978A142F5DD02FB08B0C7F8DF
:1033E0009840C7F89840D7F89C4000F10801007B4E
:1033F00064F304000871D7F8A0000C79400860F36A
:1034000047140C71D7F89C1021F01F016960D7F8A0
:10341000A01021F01F01296108F1010814350C36B4
:10342000B3E700BF381E002000ED00E0D2300020DE
:10343000F0B54149414CD1F890302568C3F30723DA
:103440009D4287B075D80020FFF782FF3C4BC1F842
:10345000C030854216D13B4C01A82570FFF758FBC0
:1034600000250646384FAE4213D10020237832495A
:10347000D1F89020C2F30722934254DBFFF75CFFA0
:1034800000202FE0616801EB0011FFF785FE01309D
:10349000DFE70199280101EB0513DA683A40B2F53C
:1034A000001F21D0B2F5800F2BD0B2F5801F38D18C
:1034B0005A689B680958013B22F01F000344012011
:1034C000844623F01F0340EA4C10CDE902218DF819
:1034D000100002A920780593FFF778FE00281DDA76
:1034E0006FF0150007B0F0BD5A689B680958013BA2
:1034F00022F01F0003444FF0020C012023F01F03B1
:10350000E1E75A689B680958013B22F01F00034419
:103510004FF0000C062023F01F03D4E7237801337B
:10352000237001359FE7C1F89830C1F8A00001333E
:103530009EE74FF0FF30D5E700ED00E0A4D5030093
:10354000AAFF4400D23000200000F0FF014B1860B9
:10355000704700BFA406002010B5074C2368C218AE
:103560000648C0F1005101F53C318A4236BF226065
:103570004FF0FF30C01810BD4C1E002058510120E4
:1035800070B541690446857A0B4E59B1437ADB0721
:1035900006D4382303FB05631B6B1B689B689847A5
:1035A00000236361C5EBC505214606EBC500BDE8F8
:1035B00070402EF0A9BF00BF481000203821827A49
:1035C000054B01FB02335A6B1B7F801A1B3323F020
:1035D0000303B0FBF3F070474810002038B53824DF
:1035E000827A064B04FB02331B6BD3E901240C6087
:1035F0001568FFF7E3FF04FB005038BD48100020BA
:103600002DE9F04F85B00546684690461C46914628
:103610009B4603912FF024FADDE90067EFF3118A4E
:10362000202383F31288BFF36F8F6B8B002B42D064
:103630002A8B9A4226D90022002328460DF050F901
:103640000446F8B18AF31188BFF36F8F039B002BF8
:103650004ED032463B4668462FF026FA3821A27AF1
:10366000304B204601FB02331B6B03A91B681E680D
:10367000DDE90023B047606100283AD12046FFF71A
:103680007FFF2AE0698B4B1E6B838AF31188BFF39F
:103690006F8F2B7F2A8B6C6B1B3323F00303521A23
:1036A00002FB03441F4B204AEB1ADB105343A37267
:1036B0002B7FE372CAE78AF31188BFF36F8F54EA56
:1036C00008040FD14FF00009CB464A465B46284616
:1036D0000DF006F904460028B8D10024204605B0B4
:1036E000BDE8F08F0DF0AEFF104B8342EDD1E9E75E
:1036F0006361012300262381039B31466382E27AC2
:10370000666004F1180025F0E7FE63692682E36035
:103710002035D5E8EF3F013BC5E8E23F002ADDD088
:10372000F7E700BF48100020B76DDBB6281B00206C
:10373000F8B538242026114D00B9F8BD037A476842
:10374000013BDBB20372002BF7D1C3604360837A85
:1037500014FB03622A44D2E8EFCF0CF1010CC2E85B
:10376000E1CF0029F7D104FB0353DB6A13B198477B
:103770003846E1E7FFF704FFFAE700BF48100020F2
:10378000F8B5EFF31184202383F31288BFF36F8F12
:10379000836ADD0706D427F02FFB092303604FF06F
:1037A000FF3035E0B1F5817F44D007D803292CD014
:1037B000042932D027F020FB5F23EFE740F2031308
:1037C0009942F7D1D2E900329988CD070AD5D0E9DC
:1037D00008152943D98818BF41F00101D980116823
:1037E000143111609988490722D5D0E90851023572
:1037F00071F1FF3134BF01200020D98841EA8001F6
:10380000D98013681433136012E044F202001840A8
:1038100084F31188BFF36F8FF8BD126824490A4200
:1038200003D027F0E9FA1623B8E70B40134383626D
:103830000020EDE79168D2E90053AA88D7071AD58E
:103840001A68914203D127F0D7FA0C23A6E7012783
:1038500010611A68567B67F3050656731A68967BE3
:103860006FF3451696731A68D6686FF39436D66070
:103870001A6814321A60AA885607D9D51A68914274
:10388000E1D01030106101201A68517B60F305010E
:1038900051731A68917B6FF3451191731A68D1685F
:1038A0006FF39431D1601A6814321A60C0E700BF18
:1038B000FDBFFFFF2DE9F7431F460023072A0546FA
:1038C0000E46CDE9003309D827F096FA16234FF0BB
:1038D000FF340360204603B0BDE8F08319B927F038
:1038E0008BFA0E23F3E7EFF311884FF0200989F3E9
:1038F0001288BFF36F8F836A5B040DD5B847041E2F
:1039000051DA27F079FA644204604FF0FF3488F30B
:103910001188BFF36F8FDDE72EF0FFFE20B127F097
:103920006BFA0B230360F0E76A4628461F4901AB98
:10393000FEF7FCFD88F31188BFF36F8F00984FF0FE
:10394000FF324FF0FF330CF003FFEFF3118889F3E0
:103950001288BFF36F8F31462846B84710F10B0F1E
:10396000044611D0E8B127F047FA644204604FF0F2
:10397000FF3488F31188BFF36F8F01980DF01EFAA2
:1039800000980CF05DFFA5E788F31188BFF36F8FF7
:10399000DDE900104FF0FF324FF0FF330DF06AFA0F
:1039A000D3E70824E5E70824B1E700BFD8D5030032
:1039B000014BFFF77FBF00BF11AF0200014BFFF7C4
:1039C00079BF00BF7FAF0200002373B50546CDE984
:1039D00000332EF0A2FE044640B127F00DFA0B236F
:1039E0004FF0FF340360204602B070BD6A4628469F
:1039F0001A4901ABFEF79AFD00984FF0FF324FF0E5
:103A0000FF330CF0A5FEEFF31186202383F3128819
:103A1000BFF36F8FAB6ADB0710D427F0EDF90923F2
:103A20004FF0FF34036086F31188BFF36F8F019866
:103A30000DF0EAF900980CF003FFD4E7084B094AAF
:103A4000EB1A1B115A430121074826F07BFD002287
:103A50000023AC62C5E90823E5E700BFD8D5030021
:103A600060110020ABAAAAAAA80600202DE9F347FE
:103A700021F4804727F00207804689464FB127F09E
:103A8000BBF9162303604FF0FF35284602B0BDE8AE
:103A9000F08701211C4801AA26F002FD002803DA64
:103AA00027F0AAF90C23EDE73023019CDFF860A092
:103AB0005C43FEF785FD051E04EB0A0605DA0121CD
:103AC000019A114826F03EFDDDE749F0010310346C
:103AD000C6E90887B362544420462FF04CF93046BB
:103AE0002FF049F9B8F1000F03D0394630460EF0F7
:103AF0005DF8002120460EF059F800233146284693
:103B0000024AFEF799FDC0E7A8060020D8D50300B9
:103B10006011002010B509220C460749FEF7EAFCA7
:103B200030B108222146054BFFF7C4FEC01710BD77
:103B30004FF0FF30FBE700BFD8D503007FAF020096
:103B400007B50949CDE900230922FEF7D3FC40B1AE
:103B500008226946054BFFF7ADFEC01703B05DF8BC
:103B600004FB4FF0FF30F9E7D8D5030011AF020096
:103B70002DE9F04F0F464FF00008BB4646469DB07A
:103B8000069008A814461D462EF06AFFDDE90823BA
:103B9000DDF81890CDE904230DAB0A93CDF80C8025
:103BA000BBF1000F20D1002E6CD0B5F1FF3F08BF54
:103BB000B4F1FF3F63D04FF47A71A4FB010447F6E0
:103BC0001222002301FB0541FDF70AF8CDE9007040
:103BD0004FF482724146069B039827F000FA06468E
:103BE00030461DB0BDE8F08FD9F80000002841DB59
:103BF0000CAA0BA9FEF7CAFC079000283AD00C9833
:103C00004FF0FF324FF0FF330CF0A2FD1CAB0193DD
:103C10000AAB079900934FF481724B460B9827F03B
:103C2000DEF910F1780F8246079917D100230022A0
:103C300008A82EF015FFDDE90834CDE9043400248E
:103C40002546A2460C980CF0FBFDBAF1000F11DAE4
:103C500027F0D2F8CAF10003036036E010F1120F2A
:103C6000F0D1039B13B988460B9B03934FF0000AD6
:103C70000126E7E709F108090BF1FF3B90E74FF058
:103C8000FF30A3E7DDE9042308A82EF00DFFDDE9EE
:103C90000845B04622462B46DFF8D8900A990DAC6D
:103CA000091B891009FB01F120460DF027FF00F1E7
:103CB0000B030B2B054604D82D4E1E4116F00106B2
:103CC00006D027F099F86D4205604FF0FF3687E780
:103CD0003D46B2460A94069C95B9BAF1000F3FF4EE
:103CE0007FAF002E7FF47CAFDDE9042308A82EF01F
:103CF000DBFEDDE908452B4625432246CED16FE7A2
:103D00002068A4F8068000282CDB0CAA0BA9FEF77B
:103D10003DFC834618B92023E380013622E00C984D
:103D20004FF0FF324FF0FF330CF012FD0AAB594653
:103D3000009340F2031223460B9827F050F9834674
:103D40000C980CF07DFD1BF10B0F0ED0BBF1000F9A
:103D500004D027F051F8CBF100037DE7B4F9063029
:103D6000002BDAD10834013DB6E74FF0010AF9E73C
:103D70007EF7FFFFCDCCCCCC08B50AF02DFD09F0C5
:103D800023FA0D4B0020D3F8241641F6F873C1F343
:103D9000080203EA5133142182F48072883201FB55
:103DA00002335A0ADB05054B48BF0132C3F8042928
:103DB0000122C3F8002608BD00C0FF000000125019
:103DC00048B1054B054A1B68B3FBF2F35843044B5B
:103DD00043F0010318477047F80C002040420F00E1
:103DE00080D503002DE9F74305460C461A4EDFF84F
:103DF00074801A4F14B903B0BDE8F083EFF3118952
:103E0000202383F31288BFF36F8F2EF036F8144906
:103E1000D1E90032C31842F1000008FB03F206FBAF
:103E20000022A3FB0630DB1942EB0002C1E900329D
:103E300089F31188BFF36F8F042CA14628BF4FF080
:103E400004092846019201A94A46FCF719FB4D4492
:103E5000A4EB0904CEE700BFFDB0B0872DF304B595
:103E600000000020E62EBB272DE9F04105460E4656
:103E70001746124CDFF84880444507D326F0BCFFB4
:103E80006A2303604FF0FF30BDE8F0812368AB4246
:103E900000D083B93A4631462846A368984750B1C6
:103EA00026F0AAFF002303603A4631462846E3681D
:103EB000BDE8F04118471034DEE700BF20D503000D
:103EC00030D50300F7B507460E461446FEF778FBDB
:103ED000051E17DB3CB97B1E012B04D8022E16D021
:103EE000012E08BF0624F1B201ABA2B2B8B203F0B2
:103EF00043F8061E0DDA284626F0DFF926F07CFF8F
:103F0000764206604FF0FF35284603B0F0BD11241D
:103F1000E9E7002301984360036774302EF0B5FA97
:103F200001988C302EF0F5FB062C02D1019829F077
:103F30000AFA4FF440432846024A0199FEF77CFBF7
:103F4000E2E700BFE8D5030037B5069D0446E3B9B4
:103F50000093002200230E4903F0FCF804F17400E2
:103F60002EF093FA04F18C002EF0D3FB214605F1DC
:103F700074002EF0BEFA204629F0E5F905F18C0018
:103F800003B0BDE830400CF019BF03B030BD00BF36
:103F9000E3B4020037B5054629F008FA041E06DA34
:103FA00026F02AFF644204604FF0FF3006E0B5F8C7
:103FB000A030C3F38113022B02D0002003B030BD28
:103FC0006B680022009328460023034903F0C2F8DF
:103FD000041EF2DAE4E700BFE3B402002DE9FF4D6E
:103FE000B0F8A0309046C3F34102022A04460F46BF
:103FF00058D0012A056F0FD16B0704D5446826F00D
:10400000FBFE046003E026F0F7FE782303604FF028
:10401000FF3004B0BDE8F08D15F00205C3F3811345
:104020001BBF4FF0000A4FF0000B4FF0000B1E4D6E
:1040300008BFDFF87CA0012B42681CD1009200234E
:1040400000221A4903F086F8061E04DA26F0D4FE90
:1040500076420660DBE763684246029339462B46A8
:104060002046CDE900AB29F079FC041E1ADA26F0CF
:10407000C3FE6442C5E72B460292CDE900AB42463F
:1040800029F06CFC051E04DA26F0B6FE6D420560D0
:10409000BDE763680022009320460023034903F034
:1040A00059F8E2E70020B4E761B30200E3B402008C
:1040B000366E010037B5054629F06DFA041E07DAA1
:1040C00026F09AFE644204604FF0FF3003B030BD2A
:1040D0000022002328460449009529F00DFD041E06
:1040E000EEDB0020F2E700BF493F00002DE9F04F72
:1040F00016464FF0FF384FF0FF390A228FB05B06AB
:1041000004460D46CDE90C89189F0B9203D4036F2A
:1041100013F002034BD000220023CDE90C2308A8A2
:104120002EF09EFCDDE90C23DDE9088908A82EF0BD
:1041300097FCDDE90823CDE906236368002200939C
:1041400020460023274903F005F8B0F1000A35DBCB
:104150004FF0000A0DF12C0B6168DDE90C23BFB3B1
:10416000CDE90223199B0491009332463B46294630
:104170002046CDF804A029F049FD002825DADDE924
:104180000C230146CDE90023204642464B46CDF89C
:1041900008B027F015F9002817DBDDE9062308A889
:1041A0002EF082FCDDE90823CDE90C23D4E70CAA2C
:1041B000052103F009F900230B4AB0E726F01CFEA5
:1041C000CAF1000303604FF0FF300FB0BDE8F08F7D
:1041D000CDE9002302913B4632462946204629F08C
:1041E000BCFCCAE7E3B40200B4C404002DE9F04704
:1041F0004FF0FF3315464FF0FF328CB0CDE90A2364
:104200000A2309936B0604460E4603D4036F13F08A
:10421000020339D000220023CDE90A23002706A893
:104220002EF01EFCDDE90A23DDE9068906A82EF042
:1042300017FCDDE90623CDE904230DF1240ADDE9AD
:104240000A233146CDE90023204600232A4602975F
:1042500029F0BBFC00281EDADDE90A230146CDE97E
:104260000023204642464B46CDF808A027F0A8F888
:10427000002810DBDDE9042306A82EF015FCDDE99B
:104280000623CDE90A23DAE70AAA052103F09CF800
:104290000023024AC2E70CB0BDE8F087B4C40400B2
:1042A000F7B5036F05469C070F46164613D44FF02B
:1042B000FF324FF0FF336946CDE9002327F04EFB74
:1042C000041E08DA26F098FD644204604FF0FF35C2
:1042D000284603B0F0BD0022002305F174000CF065
:1042E000FFFA044620B926F087FD0B230360EDE7B3
:1042F000FEF766F9051E06DA204627F033F9204658
:1043000002F000FFE2E704F174002EF00BF9A0B117
:1043100090F83730990710D5236F284643F00103F2
:10432000236725F0CAFF204627F01CF9204602F03B
:10433000E9FE26F061FD7123D8E7B4F8A0305A05F4
:1043400007D526F059FD71230360284625F0B5FFF7
:10435000D2E723F40073A4F8A03077B16EB13268CD
:104360003846182A28BF182204F12C01FCF788F8D7
:10437000A38D012B09D1082333604FF4404321461C
:104380002846084AFEF758F9A2E7022B01D1182364
:10439000F2E7284625F091FF26F02EFD86230360E4
:1043A000AAE700BFE8D503002DE9F04F8FB00292D5
:1043B00000934FF0FF32DDE9196A4FF0FF33CDE98A
:1043C0000423189B07465C060D4603D4036F13F0C5
:1043D00002032AD000220023CDE90423DDE9048969
:1043E000189B07F1740413F00203019339D01022D3
:1043F000002109A825F070F804230D948DF83130C0
:10440000012142464B4609A80DF078FB00F10B0252
:104410000B2A804603D8A54B1341D80718D526F0A0
:10442000EBFCC8F1000303600DE0042104AA02F0D4
:10443000CBFF384604A927F091FA041ECEDA26F005
:10444000DBFC644204604FF0FF300FB0BDE8F08F3A
:1044500020462EF063F8044648B926F0CDFC0B2325
:10446000E1E742464B4620460CF03AFAF3E7D0E942
:104470000398002E4CD0BAF1000F49D0B7F89EB087
:10448000DAF8007029F039FE94F83730C3F30213DC
:10449000338094F83730C3F30213012B44D1002149
:1044A0001423072FCDE9091364D9204609A92AF05E
:1044B000C9F8074610B96FF068055DE020460A9913
:1044C00029F076FE0028F6D1204694F83A1029F01B
:1044D0006FFE0028EFD1FB6873605FFA8BFBBBF1C6
:1044E000110F06F1020755D107AB0993082309A95B
:1044F0000A9320462AF0A6F80028DCD003883B80E7
:10450000C4E903983388012B50D10823CAF800303E
:10451000002D00F09A80EB6813B1AB68002B4ED1F0
:1045200026F06AFC0C237EE7022B3CD100222823D4
:10453000172FCDE909231DD9204609A92AF082F8B1
:1045400007460028B7D020460A9929F031FE0028F6
:10455000B1D12046618F29F02BFE0028ABD107F1A5
:104560000803321D183753F8041BBB4242F8041BE2
:10457000F9D1B2E76FF01505C4E9039826F03CFCC9
:104580006D420560019B002B7FF45DAF204629F052
:104590002EFD58E7BBF1060F05D109AB0793142395
:1045A00007A90893A5E76FF08505E5E7022B01D180
:1045B0001823ABE726F020FC86230360E2E72046C1
:1045C00029F02FFF009F0646874228BF07464FF07D
:1045D000000BBA46BAF1000F13D1009BC5F80CB01E
:1045E000B34203D2AB6943F02003AB612B69002BCC
:1045F00057D06969002937D00F2950D8C5F814A0C1
:1046000032E0AA684FEACB0352F83B1002EBCB0032
:1046100019B926F0F1FB162305E7426820465245FA
:1046200028BF52460393029229F095FEDDE902234A
:1046300018B126F0E1FB6923BFE7A968AAEB020ADB
:1046400019444A600BF1010BC4E7204629F0E9FE4A
:10465000009F0646874228BF074602993A462046F1
:1046600029F079FE0028E4D1019BE3B9204629F026
:10467000BEFC189B13F0200F0CBF38463046E4E612
:104680009244073222F00700103018448842B5D80F
:1046900022F0070213441A68002AF1D1AEE7194448
:1046A000F9E76B61E0E7C4E90398E2E77EF7FFFF13
:1046B00070B50E46062E144605461946049A7DD05E
:1046C00008DC002E00F08380012E27D026F094FB1A
:1046D0006D2338E0292EF9D11A2C00F390800F2C8D
:1046E000F4DD103C0A2CF1D801A353F824F000BFEC
:1046F00019480000CD46000023480000CD460000C8
:104700002B48000037480000CD460000CD46000091
:10471000CD460000CD4600002B4700000F2C1CD0DA
:1047200005DC022C11D00D2CD0D1002070BD192C2D
:10473000CCD1B0F8A030C3F3C2000138012810D9A1
:1047400026F05AFB6A23036023E013460A46092138
:1047500002F0BAFD041EE8DA17E013460A460A2101
:10476000F6E712B141B1087820B923F40063A5F847
:10477000A030DAE7082A03D026F03EFB1623E2E752
:10478000084601F08DFE041E06DA26F035FB644271
:1047900004604FF0FF30C9E726F0A6FD18B926F0F7
:1047A0002BFB1323CFE7B5F8A03043F40063A5F843
:1047B000A03001F0FBFB85F8A200B6E7012C85D103
:1047C00013460A462146BDE870402CF0FBB9212C67
:1047D00011D008DC012C1BD0022C7FF477AF1346DC
:1047E0000A461021B4E7233C012C3FF66FAFBDE829
:1047F000704026F0BEBD13460A460D21A8E7432CA3
:1048000006D0482C7FF462AF13460A4611219FE779
:1048100013460A4608219BE713460A460F212846FD
:1048200096E713460A460E21F9E701232846BDE81C
:10483000704026F05BBD0023F8E700BF2DE9F84388
:1048400007460E46904699464FF0FF334FF0FF3231
:104850002B480BF07DFF2B4B1B78ABB94FF0FF3291
:104860004FF0FF33264928480CF004FB274B9F42AA
:1048700040D3274B9F423DD27B681EBB314614205C
:104880004FF0FF3435460DE0032BEFD06FF00404FA
:1048900012E000FB01F23B68013113445C603B68AD
:1048A00013441D817B689942F3DB1A4901220023DE
:1048B0000868FFF745F9002411480BF0C1FF2046B6
:1048C000BDE8F883984518DC00254FF0140CA84586
:1048D000EBDD0CFB05F23C6806EBC5031444043425
:1048E00093E8030084E803003B6801351344C3F8F0
:1048F0000C90ECE76FF00104DEE76FF00B04DBE7F0
:104900002C0F0020D33000204010002030D50300B1
:104910003CD50300541E002070B5044686B001AD9E
:1049200006690FCC0FC501A82E60019B984714257E
:1049300000220A4C7368934201DC06B070BDB36874
:1049400030681B6805FB0200134404EBC303D0E985
:104950000101013283E80300ECE700BF541E002090
:104960002DE9F74F4E4BDFF84C81A8EB03020B2AE1
:104970007DD90026434506F1010713D3032F76D8CE
:104980000021484D0846AF61FFF770F8041EDFF8BC
:1049900020910EDA26F030FA022389F8003003B0B5
:1049A000BDE8F08F9A680C33176053F8082C164452
:1049B000E0E7032389F800303B480CF025FA012397
:1049C0004FF0140A2C60AB804FF0FF334FF0FF32F2
:1049D00036480BF0BDFE324B434514D20024D3F8C9
:1049E00004C00CE09A68186812680AFB04002244AC
:1049F00005EBC202D0E9010182E803000134A445BD
:104A0000F0DC0C33E8E729480BF01AFF4FF0FF32D7
:104A10003946244826F0F2FA0028BBDBBCD0B5F9B1
:104A200006307BB94FF0010B1E4CB345EEDCD4F8D9
:104A300008C0BCF1000F2FDBB4F90E30002B2BDDCA
:104A4000174B0EE069462868FFF764F8BCE71A6860
:104A50000AFB002251688C4512D001307045F6DB0C
:104A60000C33434518D20020D3F804E0F6E70122C6
:104A70000F4B1A700C4803B0BDE8F04F0CF0C4B9EE
:104A80001361131DD4E9020183E803004FF0FF33E3
:104A90001046A360FFF740FF0BF1010B0834C4E799
:104AA00030D50300541E0020401000202C0F0020A1
:104AB000D33000203CD5030000B589B0002200238C
:104AC000CDE9062300230E22CDE90133CDE90323EE
:104AD00000934FF49662054B054906480CF080FAA6
:104AE000054909B05DF804EB0CF0FAB96149000022
:104AF000A0F100209011002024260400036804483F
:104B00001BBA1B0C1B041B1A58425841704700BFAC
:104B10000000FEA98388022B06D11023816900F1D1
:104B20000802064802F0A2B8012B05D1816900F104
:104B3000080210230248F5E7704700BF0A0060E052
:104B4000060004E038B54FF0FF324FF0FF33044663
:104B500016480D4627F007FC154A92F82230D80770
:104B600008D5990706D59388AB4203D174B19369F0
:104B70009C4218D092F8461011F0010311D08B0717
:104B80000FD5138DAB420CD144B90124242303FB70
:104B90000424064827F004FC204638BDD36B9C4211
:104BA000F3D00024F5E70024F0E700BF400F002019
:104BB0003C20002038B54FF0FF324FF0FF33054660
:104BC0001D4827F0D0FB1D4B1B687BB11A684FF0C6
:104BD000FF344FF47A705BB9631C1BD118482DF079
:104BE00078FDBDE83840144827F0DABB1A46EEE7F6
:104BF000D9691B8C491B00FB0313002B09DD9C4268
:104C000028BF1C461AB1116813460A46E3E711464D
:104C1000FAE7002447F6122540F2E73000214FF46E
:104C20007A720023E4FB0501FBF7DAFF02460B462C
:104C300003480CF0BDF8D4E7400F002034200020DA
:104C4000581300202DE9F74F8B46394DBDF8301031
:104C5000814690469A464FF0FF324FF0FF33354879
:104C6000019127F080FB95F82260019916F001066A
:104C700004D095F84630DB0758D401262427774323
:104C8000EC1994F82230C4F8189043F0010384F82A
:104C90002230A4F804B079B3DBB223F0060343F06A
:104CA000020384F82230218427F0C7FA2146E0610C
:104CB000214827F016FAE069FFF77CFF0837BBF1BF
:104CC000020F05EB070221D14346164608F11007F3
:104CD000354618685968083303C5BB422E46F7D1DC
:104CE00010234946154801F0C1FF124827F058FB30
:104CF000204603B0BDE8F08F94F82230218423F0E1
:104D0000060343F0040384F82230D7E7D8F80030D4
:104D10004946EB51242303FB065595F822300848F9
:104D20006AF3410385F822300423DCE70024DCE742
:104D30003C200020400F002034200020090060E0CB
:104D4000050004E038B505464FF0FF324FF0FF3361
:104D50000F4827F008FB95F8224014F0010412D008
:104D60002846FFF7D7FE29460A4827F0C4F918B1AC
:104D700027F063FAFFF71EFF012495F822306FF346
:104D8000000385F82230024827F00AFB204638BD90
:104D9000400F0020342000202DE9F8431B4D4FF038
:104DA000FF33804617461A484FF0FF320E4627F071
:104DB000DAFA95F82230A94613F0010F1CD000242E
:104DC000AB88B34217D1AB69434514D1022E0ED143
:104DD000394605F1080027F028FA60B1242303FBC7
:104DE00004940B4827F0DCFA2046BDE8F8833A68C3
:104DF000AB689A42F2D03CB999F8464014F00104ED
:104E0000EFD001242435DBE70024EAE73C20002032
:104E1000400F00202DE9F04727F00FFA214E804681
:104E20004FF0FF324FF0FF331F4827F09CFA3468F1
:104E30002CB100254FF47A7AA94627683CB9404640
:104E4000FFF7B8FEBDE8F047174827F0A9BAE369B5
:104E5000218CA3EB08030AFB0133002B224612DC52
:104E60002046FFF757FE22689DB9736832609C4266
:104E700000D172602A4694F82230C4F8009069F399
:104E8000000384F8223057B13B683C4615461F4664
:104E9000D4E72A6073689C4208BF7560EAE73B4626
:104EA000F3E700BF34200020400F0020002809DD78
:104EB0009022431E044802FB0300044B984228BF83
:104EC0000020704700207047601100206011002012
:104ED0002DE9F34127F0B1F900232F4ECDE900333E
:104EE00004464FF0FF334FF0FF322C4827F03BFAD7
:104EF000336873B353F82C2902B12C3AC4F164041B
:104F000001E013460A461D6B2544002D10DC706835
:104F100003F12C01DB6A8142684608BF736033608D
:104F200027F0DFF8AAB1D16A0029EAD02C39E8E7E6
:104F300047F6122440F2E73000214FF47A72002342
:104F4000C5FB0401FBF74CFE02460B4614480BF070
:104F50002FFF124827F024FA009CCCB10127DFF87C
:104F600044802C3C94F8380084F8297027F095FB95
:104F70000546261D014610233246404601F076FEC6
:104F80003146284603F0F4FAE46A0CB12C3CE9E718
:104F900002B0BDE8F08100BF1C200020400F0020BF
:104FA000C81200200D0060E00346064A0648904201
:104FB00001D300207047016809688B42FAD0903015
:104FC000F5E700BF6011002060110020054B064A84
:104FD000934205D0054A1068002808BF184670475C
:104FE0000020704760110020601100208420002004
:104FF000F8B54FF0FF330546174610484FF0FF3223
:105000000E4627F0B0F90E4B1B680BB11C6823B994
:105010000A48BDE8F84027F0C3B95A68AA4200D050
:1050200022B93A46314628469B6898471CB1226807
:1050300023461446EBE72246FAE700BF400F002064
:10504000741E002038B504460D4627F08EF907215E
:10505000204627F091F920B3A36843B105B12B6036
:10506000002504F1600027F09BF9284638BD4FF079
:10507000FF324FF0FF330C4827F075F90B4BD3F894
:10508000282142B9A360C3F8284105B12B60064826
:1050900027F086F9E4E7044827F082F96FF002056B
:1050A000DFE76FF08505DCE7400F0020E81E0020F9
:1050B00038B5044627F059F90B21204627F05CF952
:1050C00018BBA5680DB320462AF049FDE8B927F0C2
:1050D000B4F84FF0FF334FF0FF32C5F820010E480F
:1050E00027F041F905F58E710C4826F0FAFF0A48C1
:1050F00027F056F90A482DF091FC084305D147F6F0
:105100001222002307480BF053FE04F16000BDE8B3
:10511000384027F045B900BF400F00201420002080
:10512000A812002098120020F7B527F086F8002377
:10513000364E4FF0FF32CDE9003305464FF0FF33D6
:10514000334827F010F93268B2B3A2F58E731268B3
:105150000AB1A2F58E72C5F57A7701E013460A46C8
:10516000D3F820413919002947DC706803F58E71A6
:10517000D3F81C318142684608BF7360336026F063
:10518000B0FFCAB1D2F81C110029E7D0A1F58E7189
:10519000E4E747F6122540F2E730002104F57A747F
:1051A0004FF47A720023E4FB0501FBF719FD024678
:1051B0000B4618480BF0FCFD154827F0F1F8009C51
:1051C00014B3154DA4F58E7494F8243113480133AB
:1051D000DBB284F82431A84205D3D4F81C419CB139
:1051E000A4F58E74F0E78268A24201D09030F2E715
:1051F000022BF2D8FFF75CFFEFE7641B14F57A7F10
:10520000C7D100221346D4E703B0F0BD142000201C
:10521000400F002098120020601100206011002033
:1052200038B5044627F0A1F8A56875B14FF0FF32F4
:105230004FF0FF33084827F096F8084805F58E71BF
:1052400026F059FF044827F0ABF804F16000BDE8F0
:10525000384027F0A5B800BF400F002014200020E0
:105260002DE9F84306460F461D4DDFF878904D4571
:1052700001D300242EE0284627F077F8AC6805F12A
:10528000600824B9404627F08BF89035EFE794F892
:1052900039309A0708D52388022B05D18022304661
:1052A000211D26F0A0FFC0B994F875309B07E9D501
:1052B000A38F022BE6D18022304604F1400126F074
:1052C00092FF0028DED03C2307B13D6040461C44DD
:1052D00027F066F82046BDE8F8830023F4E700BF16
:1052E0006011002060110020F8B5134E4FF0FF321E
:1052F00004464FF0FF3330460D4627F034F80123C3
:105300000E4F84F8293018342146384626F0F3FE33
:10531000384626F0E6FE26F090FF29460246204653
:1053200027F01BFD0023002205480BF041FD30460D
:10533000BDE8F84027F034B8400F00202C200020B2
:10534000281300202DE9F74F0546019127F00DF8AD
:10535000AF6877B34FF000084FF0180A07F17C09E7
:105360000AFB087393F88C6003F1880BF30717D5D9
:105370004846019926F059FF044688B16FF30006AC
:1053800010234A4629460C488BF8046001F06EFC55
:1053900005F1600027F004F8204603B0BDE8F08F67
:1053A00008F10108B8F1030F09F11809D8D1002458
:1053B000EEE73C46ECE700BF040060E02DE9F74F64
:1053C00080460D464FF0180B204CDFF884A0544562
:1053D00007D245B12B6833B1A34204D09034544571
:1053E000F8D3002428E0204626F0BFFFA76804F188
:1053F000600927B9484626F0D3FF9034E7E7002636
:1054000007F17C010BFB067393F88C30DB0717D593
:1054100031F8043C022B13D180224046019126F042
:10542000E2FE019960B105B12C60182404FB0674FA
:105430004846783426F0B4FF204603B0BDE8F08F2C
:105440000136032E01F11801DCD1D3E760110020F1
:10545000601100207FB504460D46019026F085FFBF
:10546000204603A9FFF7EEFD002807DA0026019881
:10547000603026F095FF304604B070BD2B78FF2BCE
:10548000F4D1284601A9FFF799FF0028EED1039E29
:1054900096F88C3013F0010408D096F8A430DA079F
:1054A00026D596F8BC30DB07E0D4022418235C43F1
:1054B000331993F88C20284642F0010283F88C209F
:1054C0000222A3F8782004F17C023244134605F14D
:1054D000100150F8045B884243F8045BF9D11023B3
:1054E0000199044801F0C2FB04F178031E44BEE7B1
:1054F0000124DBE7030060E02DE9F047074686B0B2
:105500000D469146984626F030FF384601A9FFF730
:1055100099FD002878DBBC6844B394F8E5309B071C
:1055200009D5284604F1D00126F07FFE18B194F881
:10553000E4304B4518D094F80D319E0716D5284617
:1055400004F1F80126F071FE80B194F80C314B455E
:105550000CD12823C0331C4407F1600026F020FF43
:10556000204606B0BDE8F0870023F3E7019C002C3D
:10557000F2D094F8E5209007C2F3400304D594F8E4
:105580000D31990740D4012328265E4306F1C00A55
:10559000264496F8E52086F8E49042F0020286F868
:1055A000E520C6F8E07002AE2A4605F1100E354639
:1055B000A244B446106851680832ACE80300724552
:1055C0006646F6D10AF110060DF1180C2A4603CAF8
:1055D000624530607160154606F10806F6D1282252
:1055E00002FB034308F10102D2F1000848EB020874
:1055F00093F8E520394668F30002044883F8E52073
:1056000026F02AFE5446A7E70024A5E7050060E03F
:105610002DE9F84306460F461D4CDFF878904C45BF
:1056200007D246B1336833B1A34204D090344C451D
:10563000F8D3002024E0204626F097FEA56804F168
:105640006008FDB195F8E5309A0707D5394695F819
:10565000E42005F1D00026F0C6FD58B995F80D31CB
:105660009B070FD5394695F80C2105F1F80026F077
:10567000BAFD38B106B13460404626F091FE0120F3
:10568000BDE8F883404626F08BFE9034C7E700BFA4
:10569000601100206011002038B54B1C04460D46F7
:1056A0001ED04FF0FF334FF0FF320E4826F05BFE66
:1056B00021460D4826F01FFD0B4826F012FD26F06E
:1056C000BCFD29460246204627F047FB0023002266
:1056D00006480BF06DFBBDE83840024826F060BE7E
:1056E00038BD00BF400F002024200020F812002009
:1056F00010B590F8253004469B0714D54FF0FF32C3
:105700004FF0FF33084826F02EFE2146074826F0CA
:10571000F2FC00222046114627F01FFBBDE8104096
:10572000014826F03DBE10BD400F0020242000207F
:1057300000232DE9F04385B08DF80F3048F2FE03C9
:1057400017460A8804469A420D4633D00B78FF2B41
:1057500004D14B7803F00F03022B2BD029462046AF
:1057600027F034F860B190F82480FCB14246294615
:10577000204600970DF10F0326F084FE044610E04A
:105780004FF08008F1E730464246294600970DF178
:105790000F0326F077FE002818BF044690364E45CA
:1057A000F1D3CCB1204605B0BDE8F083114EDFF84F
:1057B0004890F4E724B10121204626F0BEFFDDE742
:1057C000FFF704FC012126F0B8FF04460028E9D1C8
:1057D000084D094EB54204D305B0BDE8F04301F0D1
:1057E0002DB90121284626F0A8FF04460028D9D16A
:1057F0009035EFE7601100206011002038B50446B5
:105800000D4626F0B2FD0621204626F0B5FD10B368
:10581000E36843B105B12B60002504F1600026F078
:10582000BFFD284638BD4FF0FF324FF0FF330B4825
:1058300026F099FD0A4B1A6E3AB9E3601C6605B171
:105840002B60064826F0ACFDE6E7044826F0A8FDEC
:105850006FF00205E1E76FF08505DEE7400F0020FD
:10586000841E002070B50D4668B1BDE8704026F07A
:10587000F5BE2946204626F0F1FE18B99034B44210
:10588000F7D3002070BD014C014EF8E760110020F5
:105890006011002070B50546084C094EB44203D390
:1058A000BDE87040FFF792BB2946204627F08DF8EF
:1058B00008B99034F2E7204670BD00BF60110020A7
:1058C0006011002000232DE9F341054608460F46EC
:1058D0008DF80730FFF712F9E8B9BDB128460DF190
:1058E000070226F062FE04460BE0304639460DF111
:1058F000070226F05AFE002818BF04469036464597
:10590000F3D3D4B1204602B0BDE8F0812C46154E49
:10591000DFF85480F3E725B10121284627F075F818
:10592000E1E7FFF753FB012127F06FF80446002859
:10593000E8D10C4E0C4FBE420BD30121284627F074
:1059400067F804460028DDD102B0BDE8F04101F05F
:105950006DB80121304627F058F804460028D1D10F
:105960009036E8E76011002060110020F8B5064687
:105970000D46114C114FBC4201D300241AE02046C1
:1059800026F0F3FCE36804F160001BB926F008FD83
:105990009034F0E793F839209207F7D51A88012A56
:1059A000F4D1326859689142F0D105B12C601C469F
:1059B00026F0F6FC2046F8BD6011002060110020A2
:1059C0002DE9F7430546884617461E4626F0CDFCCE
:1059D000284601A9FFF712FF002843DBEC6894F882
:1059E00039309A0704D5D8F8002063689A420BD062
:1059F000022F019C03D194F82830042B03D094F893
:105A000039309B072ED43CB905F1600026F0C8FC64
:105A1000204603B0BDE8F0834FF0010994F8393017
:105A2000A4F8009043F0020384F83930D8F800302D
:105A300094F839206360B6FA86F35B0963F30002D9
:105A400084F83920284684F82870C4F8149026F089
:105A5000A0FB04232946044884F82990E21801F0A9
:105A600005F9D1E70024CFE7010004E0F8B50646C8
:105A70000D46154C154FBC4207D245B12B6833B1CA
:105A8000A34204D09034BC42F8D3002419E020464D
:105A900026F06BFCE36804F160001BB926F080FC83
:105AA0009034E8E793F85420D207F7D51EB1596C2B
:105AB00032689142F2D105B12C6003F1400426F026
:105AC0006FFC2046F8BD00BF60110020601100206F
:105AD0000023F0B587B0019301AB07460E4615468B
:105AE00026F060FC0446002867D000F11402D2E8DA
:105AF000AF3F002B61D0581ED2E8EF1F994204D16E
:105B0000C2E8EC0FBCF1000FF6D1F0D1012B56DC4E
:105B100094F83930022E6FF3410384F8393050D1B4
:105B2000002D48D03846019E26F01FFCBB68002B94
:105B30003DD094F83930DB0714D4294D4FF0FF33B2
:105B40004FF0FF32274826F00EFC284604F11801DA
:105B500026F0D1FA2B6813B923482CF0BAFD21485E
:105B600026F01EFC0B21384626F006FC70B94FF0DB
:105B7000FF324FF0FF331B4826F0F5FB1B4804F1C2
:105B80002C0126F0B8FA174826F00AFC012E04F181
:105B9000040406D1204602A926F0D9FA3846FFF7B8
:105BA000D1FB102322463946114801F05FF807F176
:105BB000600026F0F5FB002001E06FF0150007B053
:105BC000F0BD012EF7D1002DF5D0384626F0CDFBE3
:105BD000FB68002BEBD0042339460648E218E4E7C3
:105BE0002C200020400F0020281300201C20002023
:105BF000020060E0020004E037B50C46019026F098
:105C0000B4FB204601A9FFF72BFB50B1019D021DFB
:105C100029460748102301F029F82146284626F096
:105C20007DFF0198603026F0BBFB03B030BD00BFA4
:105C30000E0060E02DE9F04106460F46904626F042
:105C400094FBB468002C42D094F8E5309A0709D54B
:105C5000394604F1D00026F0E8FA18B194F8E4309F
:105C6000434531D094F80D31C3F340059B0724D54B
:105C7000394604F1F80026F0D8FA0546E8B194F860
:105C80000C31434523D128200125C0302044FFF7A3
:105C90002FFD282303FB054595F8E5303A466FF3C1
:105CA000410385F8E53021464346304626F04CFF57
:105CB0003146084826F0D0FA012506F1600026F0AA
:105CC0006FFB2846BDE8F08100200546DDE7002592
:105CD000F3E700BF060060E02DE9FF4126F0ADFAD2
:105CE00000230746CDE902334FF0FF324FF0FF3378
:105CF000314826F038FB314B1C68B4B125684FF0B1
:105D0000FF36DFF8B880BCB13946204627F05EF890
:105D100068B92146404626F0EEF902A826F0E1F9DE
:105D200035B32B682C461D46EDE72546E7E786424E
:105D300028BF0646AC42F3D1731C10D047F612249C
:105D400040F2E73000214FF47A720023E6FB0401B1
:105D5000FAF746FF02460B4619480BF029F8164899
:105D600026F01EFB174D029C24B904B0BDE8F0815B
:105D70002B46D7E7206A26F0F8FA94F82530206AF7
:105D80006FF3410384F8253001A9FFF75BF9002880
:105D90000FDB94F824300199206A04F1100226F0F8
:105DA000D3FE2846216A26F057FA206A603026F092
:105DB000F7FA2468D8E700BF400F00202420002015
:105DC000F8120020060060E02DE9F84F26F035FAC1
:105DD0004FF0FF3380464FF0FF322D4826F0C3FAD4
:105DE0002C4B1C68002C4ED054F8185905B1183DA6
:105DF0004FF0FF37DFF89CA0DFF8A49001E02C46BD
:105E00001D4604F1180B4146584626F0DFFF0646B2
:105E100008BB5946504626F06EF958463246314680
:105E200026F09BFF1C4848450DD28168A14204D052
:105E300001F13C039C420CD101263C2303FB0611DB
:105E4000043126F06BFE5DB1AB69002BD7D0183B57
:105E5000D5E79030E7E7874228BF0746AC42F2D14A
:105E60007B1C10D047F6122440F2E73000214FF49B
:105E70007A720023E7FB0401FAF7B2FE02460B46F2
:105E800006480AF095FFBDE8F84F014826F088BAA9
:105E9000400F00202C20002060110020281300203B
:105EA00060110020F8B54FF0FF33054617460E4845
:105EB0004FF0FF320E4626F056FA0C4B1B680BB122
:105EC0001C6823B90848BDE8F84026F069BA3A468C
:105ED000314628465B6898471CB122682346144621
