:10000000406B002041960000AB0703002D960000D6
:100010002D9600002D9600002D9600000000000097
:100020000000000000000000000000000D9700002C
:100030002D96000000000000A99600002D960000FB
:100040000D990000ADBC01000D9900000D99000054
:100050000D9900000D9900000D9900000D99000008
:100060000D9900000D9900000D9900000D990000F8
:100070000D9900000D9900000D9900000D990000E8
:100080000D9900000D9900000D9900000D990000D8
:100090000D9900000D9900000D9900000D990000C8
:1000A0000D9900000D9900000D9900000D990000B8
:1000B0000D9900000D9900000D9900000D990000A8
:1000C0000D9900000D9900000D9900000D99000098
:1000D0000D9900000D9900000D9900000D99000088
:1000E0000D9900000D9900000D9900000D99000078
:1000F0000D9900000D9900000D9900000D99000068
:1001000081F0004102E000BF83F0004330B54FEAC8
:1001100041044FEA430594EA050F08BF90EA020F35
:100120001FBF54EA000C55EA020C7FEA645C7FEAC8
:10013000655C00F0E2804FEA5454D4EB5555B8BFEB
:100140006D420CDD2C4480EA020281EA030382EA5C
:10015000000083EA010180EA020281EA0303362DEE
:1001600088BF30BD11F0004F4FEA01314FF4801CC1
:100170004CEA113102D0404261EB410113F0004FD3
:100180004FEA03334CEA133302D0524263EB43038A
:1001900094EA050F00F0A780A4F10104D5F1200E28
:1001A0000DDB02FA0EFC22FA05F2801841F1000183
:1001B00003FA0EF2801843FA05F359410EE0A5F157
:1001C00020050EF1200E012A03FA0EFC28BF4CF088
:1001D000020C43FA05F3C01851EBE37101F000453E
:1001E00007D54FF0000EDCF1000C7EEB00006EEB4B
:1001F0000101B1F5801F1BD3B1F5001F0CD34908D5
:100200005FEA30004FEA3C0C04F101044FEA44522B
:1002100012F5800F80F09A80BCF1004F08BF5FEAB2
:10022000500C50F1000041EB045141EA050130BD92
:100230005FEA4C0C404141EB0101013C28BFB1F5A4
:10024000801FE9D291F0000F04BF01460020B1FAEF
:1002500081F308BF2033A3F10B03B3F120020CDAC2
:100260000C3208DD02F1140CC2F10C0201FA0CF0A0
:1002700021FA02F10CE002F11402D8BFC2F1200C05
:1002800001FA02F120FA0CFCDCBF41EA0C019040BB
:10029000E41AA2BF01EB0451294330BD6FEA040404
:1002A0001F3C1CDA0C340EDC04F11404C4F12002EF
:1002B00020FA04F001FA02F340EA030021FA04F301
:1002C00045EA030130BDC4F10C04C4F1200220FA58
:1002D00002F001FA04F340EA0300294630BD21FA96
:1002E00004F0294630BD94F0000F83F4801306BF5C
:1002F00081F480110134013D4EE77FEA645C18BF50
:100300007FEA655C29D094EA050F08BF90EA020FE6
:1003100005D054EA000C04BF1946104630BD91EADE
:10032000030F1EBF0021002030BD5FEA545C05D1E1
:100330004000494128BF41F0004130BD14F5800420
:100340003CBF01F5801130BD01F0004545F0FE4194
:1003500041F470014FF0000030BD7FEA645C1ABFC9
:10036000194610467FEA655C1CBF0B46024650EA00
:10037000013406BF52EA033591EA030F41F400212C
:1003800030BD00BF90F0000F04BF0021704730B5B2
:100390004FF4806404F132044FF000054FF0000187
:1003A00050E700BF90F0000F04BF0021704730B548
:1003B0004FF4806404F1320410F0004548BF40421D
:1003C0004FF000013EE700BF42004FEAE2014FEA72
:1003D00031014FEA02701FBF12F07F4393F07F4F4D
:1003E00081F06051704732F07F4208BF704793F050
:1003F0007F4F04BF41F40021704730B54FF4607463
:1004000001F0004521F000411CE700BF50EA010265
:1004100008BF704730B54FF000050AE050EA01020E
:1004200008BF704730B511F0004502D5404261EB7E
:1004300041014FF4806404F132045FEA915C3FF4BF
:10044000D8AE4FF003025FEADC0C18BF03325FEA5C
:10045000DC0C18BF033202EBDC02C2F1200300FA0D
:1004600003FC20FA02F001FA03FE40EA0E0021FA32
:1004700002F11444BDE600BF70B54FF0FF0C4CF420
:10048000E06C1CEA11541DBF1CEA135594EA0C0FD2
:1004900095EA0C0F00F0DEF82C4481EA030621EA0D
:1004A0004C5123EA4C5350EA013518BF52EA033548
:1004B00041F4801143F4801338D0A0FB02CE4FF0FA
:1004C0000005E1FB02E506F00042E0FB03E54FF02A
:1004D0000006E1FB03569CF0000F18BF4EF0010E22
:1004E000A4F1FF04B6F5007F64F5407404D25FEA1E
:1004F0004E0E6D4146EB060642EAC62141EA5551D1
:100500004FEAC52040EA5E504FEACE2EB4F1FD0C12
:1005100088BFBCF5E06F1ED8BEF1004F08BF5FEA90
:10052000500E50F1000041EB045170BD06F0004642
:1005300046EA010140EA020081EA0301B4EB5C04EF
:10054000C2BFD4EB0C0541EA045170BD41F48011E7
:100550004FF0000E013C00F3AB8014F1360FDEBF0C
:10056000002001F0004170BDC4F10004203C35DAE8
:100570000C341BDC04F11404C4F1200500FA05F36B
:1005800020FA04F001FA05F240EA020001F000420C
:1005900021F0004110EBD37021FA04F642EB060182
:1005A0005EEA430E08BF20EAD37070BDC4F10C04AC
:1005B000C4F1200500FA04F320FA05F001FA04F270
:1005C00040EA020001F0004110EBD37041F100015C
:1005D0005EEA430E08BF20EAD37070BDC4F1200567
:1005E00000FA05F24EEA020E20FA04F301FA05F2CF
:1005F00043EA020321FA04F001F0004121FA04F277
:1006000020EA020000EBD3705EEA430E08BF20EA46
:10061000D37070BD94F0000F0FD101F00046400080
:1006200041EB010111F4801F08BF013CF7D041EA02
:10063000060195F0000F18BF704703F00046520006
:1006400043EB030313F4801F08BF013DF7D043EAD7
:100650000603704794EA0C0F0CEA135518BF95EA8D
:100660000C0F0CD050EA410618BF52EA4306D1D114
:1006700081EA030101F000414FF0000070BD50EA33
:10068000410606BF1046194652EA430619D094EABD
:100690000C0F02D150EA013613D195EA0C0F05D1A7
:1006A00052EA03361CBF104619460AD181EA0301FB
:1006B00001F0004141F0FE4141F470014FF00000B3
:1006C00070BD41F0FE4141F4780170BD70B54FF04E
:1006D000FF0C4CF4E06C1CEA11541DBF1CEA1355CE
:1006E00094EA0C0F95EA0C0F00F0A7F8A4EB0504B0
:1006F00081EA030E52EA03354FEA013100F08880A7
:100700004FEA03334FF0805545EA131343EA12636F
:100710004FEA022245EA111545EA10654FEA002624
:100720000EF000419D4208BF964244F1FD0404F5DD
:10073000407402D25B084FEA3202B61A65EB030539
:100740005B084FEA32024FF480104FF4002CB6EBF6
:10075000020E75EB030E22BFB61A754640EA0C0076
:100760005B084FEA3202B6EB020E75EB030E22BFB6
:10077000B61A754640EA5C005B084FEA3202B6EBF7
:10078000020E75EB030E22BFB61A754640EA9C00B6
:100790005B084FEA3202B6EB020E75EB030E22BF86
:1007A000B61A754640EADC0055EA060E18D04FEA44
:1007B000051545EA16754FEA06164FEAC30343EAE4
:1007C00052734FEAC2025FEA1C1CC0D111F4801FB1
:1007D0000BD141EA00014FF000004FF0004CB6E7AA
:1007E00011F4801F04BF01430020B4F1FD0C88BF49
:1007F000BCF5E06F3FF6AFAEB5EB030C04BFB6EB54
:10080000020C5FEA500C50F1000041EB045170BD46
:100810000EF0004E4EEA113114EB5C04C2BFD4EB73
:100820000C0541EA045170BD41F480114FF0000EF7
:10083000013C90E645EA060E8DE60CEA135594EA73
:100840000C0F08BF95EA0C0F3FF43BAF94EA0C0F76
:100850000AD150EA01347FF434AF95EA0C0F7FF4EB
:1008600025AF104619462CE795EA0C0F06D152EA3F
:1008700003353FF4FDAE1046194622E750EA410623
:1008800018BF52EA43067FF4C5AE50EA41047FF434
:100890000DAF52EA43057FF4EBAE12E74FF0FF3C99
:1008A00006E000BF4FF0010C02E000BF4FF0010C6A
:1008B0004DF804CD4FEA410C7FEA6C5C4FEA430CE3
:1008C00018BF7FEA6C5C1BD001B050EA410C0CBF32
:1008D00052EA430C91EA030F02BF90EA020F002094
:1008E000704710F1000F91EA030F58BF994208BFFB
:1008F00090422CBFD8176FEAE37040F001007047B8
:100900004FEA410C7FEA6C5C02D150EA013C07D10E
:100910004FEA430C7FEA6C5CD6D152EA033CD3D059
:100920005DF8040B704700BF8446104662468C4653
:100930001946634600E000BF01B5FFF7B7FF002886
:1009400048BF10F1000F01BD4DF808EDFFF7F4FFAF
:100950000CBF012000205DF808FB00BF4DF808ED3A
:10096000FFF7EAFF34BF012000205DF808FB00BF5D
:100970004DF808EDFFF7E0FF94BF012000205DF87F
:1009800008FB00BF4DF808EDFFF7CEFF94BF012034
:1009900000205DF808FB00BF4DF808EDFFF7C4FF2D
:1009A00034BF012000205DF808FB00BF4FEA410280
:1009B00012F5001215D211D56FF47873B3EB6252B1
:1009C00012D94FEAC12343F0004343EA505311F0D8
:1009D000004F23FA02F018BF404270474FF000006A
:1009E000704750EA013005D111F0004008BF6FF0A8
:1009F000004070474FF00000704700BF4A0011D21E
:100A000012F5001211D20DD56FF47873B3EB625268
:100A10000ED44FEAC12343F0004343EA505323FA74
:100A200002F070474FF00000704750EA013002D1E9
:100A30004FF0FF3070474FF0000070474FEA41021F
:100A4000B2F1E04324BFB3F5001CDCF1FE5C0DD92C
:100A500001F0004C4FEAC0024CEA5070B2F1004F76
:100A600040EB830008BF20F00100704711F0804F79
:100A700021D113F13872BCBF01F00040704741F43E
:100A800080114FEA5252C2F11802C2F1200C10FA42
:100A90000CF320FA02F018BF40F001004FEAC12326
:100AA0004FEAD32303FA0CFC40EA0C0023FA02F3CA
:100AB0004FEA4303CCE77FEA625307D150EA0133A0
:100AC0001EBF4FF0FE4040F44000704701F0004070
:100AD00040F0FE4040F40000704700BF80F000404E
:100AE00002E000BF81F0004142001FBF5FEA410306
:100AF00092EA030F7FEA226C7FEA236C6AD04FEA06
:100B00001262D2EB1363C1BFD2184140484041404A
:100B1000B8BF5B42192B88BF704710F0004F40F4FC
:100B2000000020F07F4018BF404211F0004F41F418
:100B3000000121F07F4118BF494292EA030F3FD0E4
:100B4000A2F1010241FA03FC10EB0C00C3F12003F7
:100B500001FA03F100F0004302D5494260EB400086
:100B6000B0F5000F13D3B0F1807F06D340084FEAF1
:100B7000310102F10102FE2A51D2B1F1004F40EBE6
:100B8000C25008BF20F0010040EA0300704749004E
:100B900040EB0000013A28BFB0F5000FEDD2B0FAEB
:100BA00080FCACF1080CB2EB0C0200FA0CF0AABF0E
:100BB00000EBC25052421843BCBFD04018437047AC
:100BC00092F0000F81F4000106BF80F400000132B2
:100BD000013BB5E74FEA41037FEA226C18BF7FEA89
:100BE000236C21D092EA030F04D092F0000F08BFCB
:100BF0000846704790EA010F1CBF0020704712F0B2
:100C00007F4F04D1400028BF40F00040704712F1F0
:100C100000723CBF00F50000704700F0004343F055
:100C2000FE4040F4000070477FEA226216BF08468B
:100C30007FEA23630146420206BF5FEA412390EA4E
:100C4000010F40F4800070474FF0000304E000BF44
:100C500010F0004348BF40425FEA000C08BF7047F5
:100C600043F0964301464FF000001CE050EA0102B9
:100C700008BF70474FF000030AE000BF50EA0102CE
:100C800008BF704711F0004302D5404261EB4101BB
:100C90005FEA010C02BF84460146002043F0B643E0
:100CA00008BFA3F18053A3F50003BCFA8CF2083A05
:100CB000A3EBC25310DB01FA02FC634400FA02FC0E
:100CC000C2F12002BCF1004F20FA02F243EB020015
:100CD00008BF20F00100704702F1200201FA02FC77
:100CE000C2F1200250EA4C0021FA02F243EB02006A
:100CF00008BF20EADC7070474FF0FF0C1CEAD052AE
:100D00001EBF1CEAD15392EA0C0F93EA0C0F6FD06E
:100D10001A4480EA010C400218BF5FEA41211ED04C
:100D20004FF0006343EA501043EA5111A0FB013138
:100D30000CF00040B1F5000F3EBF490041EAD3710D
:100D40005B0040EA010062F17F02FD2A1DD8B3F189
:100D5000004F40EBC25008BF20F00100704790F0F8
:100D6000000F0CF0004C08BF49024CEA502040EA4A
:100D700051207F3AC2BFD2F1FF0340EAC250704710
:100D800040F400004FF00003013A5DDC12F1190F4E
:100D9000DCBF00F000407047C2F10002410021FAC0
:100DA00002F1C2F1200200FA02FC5FEA310040F1D8
:100DB000000053EA4C0308BF20EADC70704792F051
:100DC000000F00F0004C02BF400010F4000F013A89
:100DD000F9D040EA0C0093F0000F01F0004C02BF84
:100DE000490011F4000F013BF9D041EA0C018FE7F3
:100DF0000CEAD15392EA0C0F18BF93EA0C0F0AD0F9
:100E000030F0004C18BF31F0004CD8D180EA01001E
:100E100000F00040704790F0000F17BF90F0004FB7
:100E2000084691F0000F91F0004F14D092EA0C0F99
:100E300001D142020FD193EA0C0F03D14B0218BF2C
:100E4000084608D180EA010000F0004040F0FE4072
:100E500040F40000704740F0FE4040F4400070470E
:100E60004FF0FF0C1CEAD0521EBF1CEAD15392EA8D
:100E70000C0F93EA0C0F69D0A2EB030280EA010C7D
:100E800049024FEA402037D04FF0805343EA111116
:100E900043EA10130CF000408B4238BF5B0042F174
:100EA0007D024FF4000C8B4224BF5B1A40EA0C0019
:100EB000B3EB510F24BFA3EB510340EA5C00B3EB4B
:100EC000910F24BFA3EB910340EA9C00B3EBD10F39
:100ED00024BFA3EBD10340EADC001B0118BF5FEA8B
:100EE0001C1CE0D1FD2A3FF650AF8B4240EBC250B4
:100EF00008BF20F0010070470CF0004C4CEA502075
:100F00007F32C2BFD2F1FF0340EAC250704740F4C3
:100F100000004FF00003013A37E792F0000F00F0B5
:100F2000004C02BF400010F4000F013AF9D040EA33
:100F30000C0093F0000F01F0004C02BF490011F4C7
:100F4000000F013BF9D041EA0C0195E70CEAD153BF
:100F500092EA0C0F08D142027FF47DAF93EA0C0FA6
:100F60007FF470AF084676E793EA0C0F04D14B028A
:100F70003FF44CAF08466EE730F0004C18BF31F03C
:100F8000004CCAD130F000427FF45CAF31F0004336
:100F90007FF43CAF5FE700BF4FEA4002B2F1FE4F83
:100FA0000FD34FF09E03B3EB12620DD94FEA00232B
:100FB00043F0004310F0004F23FA02F018BF404204
:100FC00070474FF00000704712F1610F01D14202EB
:100FD00005D110F0004008BF6FF0004070474FF09F
:100FE000000070477BB972B90029BEBF00204FF0E6
:100FF000004106E008BF00281CBF6FF000414FF021
:10100000FF3000F075B8ADF1080C6DE904CE002991
:1010100009DB002B1ADB00F09EF8DDF804E0DDE9C7
:10102000022304B07047404261EB4101002B1BDBFF
:1010300000F091F8DDF804E0DDE9022304B040425D
:1010400061EB4101524263EB43037047524263EB51
:10105000430300F080F8DDF804E0DDE9022304B08A
:10106000404261EB41017047524263EB430300F0A1
:1010700072F8DDF804E0DDE9022304B0524263EBCC
:101080004303704753B94AB9002908BF00281CBF61
:101090004FF0FF314FF0FF3000F02AB8ADF1080CEF
:1010A0006DE904CE00F057F8DDF804E0DDE9022335
:1010B00004B07047D0B50C4B002206460F46FFF730
:1010C000DBF9FFF79BFC0446FFF75CF9074B0022B6
:1010D000FFF7D2F902460B4630463946FFF714F8BF
:1010E000FFF78CFC2146D0BD0000F03D0000F04130
:1010F000704700BF10F8012B11F8013B012A28BFEF
:101100009A42F7D0D01A7047034611F8012B03F822
:10111000012B002AF9D17047034613F8012B002A4E
:10112000FBD1181A0138704738B500220023044655
:101130000D46FFF713FC28B920462946BDE8384084
:10114000FFF7B8BF204605F10041FFF7B3FF40426B
:1011500061EB410138BD2DE9F04786468C460846D3
:10116000089E154674461946002B40F0C280854201
:10117000B2FA82F245D94AB1C2F1200300FA02FC68
:101180002EFA03F3954043EA0C0C94404FEA154EB7
:10119000A8B2BCFBFEF8230C0EFB18CC08FB00F930
:1011A00043EA0C43994528D9EB1808F1FF3704D2DC
:1011B000994502D9A8F102072B44A3EB0903A4B275
:1011C000B3FBFEFC0EFB1C330CFB00F044EA0344B3
:1011D000A04214D92C190CF1FF3304D2A04202D939
:1011E000ACF102032C44241A43EA07401EB1D44058
:1011F000002334607360BDE8F0874746DDE763464F
:10120000F1E792BB431B01214FEA154EAFB2B3FB8E
:10121000FEFC200C0EFB1C330CFB07F840EA0343DA
:10122000984562D9EB180CF1FF3004D2984502D9E9
:10123000ACF102002B44A3EB0803A4B2B3FBFEFC09
:101240000EFB1C330CFB07F744EA0344A7424ED9BC
:101250002C190CF1FF3304D2A74202D9ACF10203DE
:101260002C44E41B43EA0040C0E7C2F1200320FA0B
:1012700003F1954090402EFA03F303434FEA154ED5
:10128000AFB2B1FBFEFC0EFB1C10190C0CFB07F8F7
:1012900041EA0041884504FA02F422D969180CF1A8
:1012A000FF3004D2884502D9ACF102002944A1EBF9
:1012B00008019BB2B1FBFEFC0EFB1C110CFB07F7F7
:1012C00043EA01439F420ED9EB180CF1FF3104D2DF
:1012D0009F4202D9ACF102012B44DB1B41EA0041E1
:1012E00092E76046E3E76146F7E76046A3E76346B7
:1012F000B7E7834206D916B9002108467BE7C6E95D
:1013000000E0F9E7B3FA83F78FB9834201D372455E
:1013100008D8BEEB020460EB030301209C461EB913
:10132000002168E73846FAE7C6E9004CF8E7C7F15C
:10133000200CBB4022FA0CF41C432EFA0CF120FACC
:101340000CF3B84001434FEA14490EFA07F5B3FB1A
:10135000F9F81FFA84FE09FB18300B0C08FB0EFA93
:1013600043EA00439A4502FA07F240D9E31808F12C
:10137000FF3004D29A4502D9A8F102002344A3EB1E
:101380000A0389B2B3FBF9F809FB183308FB0EFE18
:1013900041EA03418E452CD9611808F1FF3304D28C
:1013A0008E4502D9A8F10203214443EA0040A0FB84
:1013B0000298A1EB0E014145CE46434602D306D129
:1013C0004D4504D2B9EB020E68EB04030138002E40
:1013D000A6D0B5EB0E0261EB030101FA0CFC22FA78
:1013E00007F34CEA0303F940C6E9003198E74046A9
:1013F000C5E74346D9E700002DE9F0436E4B1B7863
:1014000093B004463BB96D492EF0B1F84FF0FF3070
:1014100013B0BDE8F0830C23002504A90320CDE917
:10142000043503F075FC0028F2DB04A9072003F063
:101430006FFC0028ECDB624EB7684021FB68304649
:101440009847021E05DA5F4920462EF090F80020EA
:10145000DEE7032106AA3B6930469847021E01DAFF
:101460005949F1E707210CAA3B6930469847021E0B
:1014700001DA5649E8E70798FEF794FF4CA3D3E951
:101480000023FFF723F9064606980F46FEF78AFF6A
:1014900002460B4630463946FEF738FE06460B98A4
:1014A0000F46FEF77FFF42A3D3E90023FFF70EF9B3
:1014B00080460A988946FEF775FF02460B4640466D
:1014C0004946FEF723FECDE902010998FEF76AFFBF
:1014D00037A3D3E90023FFF7F9F880460898894637
:1014E000FEF760FF02460B4640464946FEF70EFEF9
:1014F00032463B46CDE90001354920462EF01BF827
:101500000D98FEF74FFF2AA3D3E90023FFF7DEF87B
:1015100006460C980F46FEF745FF02460B4630463E
:101520003946FEF7F3FD804611988946FEF73AFFEB
:101530001FA3D3E90023FFF7C9F8064610980F460A
:10154000FEF730FF02460B4630463946FEF7DEFD19
:10155000CDE902010F98FEF725FF15A3D3E900237B
:10156000FFF7B4F806460E980F46FEF71BFF02463B
:101570000B4630463946FEF7C9FD4246CDE900012B
:101580004B46144920462DF0D6FF04A90320CDE98F
:10159000045503F0BDFB0028FFF63AAF04A907206D
:1015A00003F0B6FB00EAE07032E700BFAFF3008063
:1015B0000000000080842E41E437002095A1030044
:1015C000185E0300B8A10300DAA1030001A2030022
:1015D00024A203004BA20300F7B5214B1B7804465D
:1015E00033B920492DF0C3FF4FF0FF3003B0F0BDF9
:1015F0001D4DAE684021F36828469847021E05DA63
:101600001A4920462DF0B3FF0020EFE711216A466A
:10161000336928469847021E01DA1549F1E7019817
:10162000FEF7C0FE0CA3D3E90023FFF74FF80646F0
:1016300000980F46FEF7B6FE02460B463046394686
:10164000FEF764FD02460B4620460A492DF073FF63
:10165000DAE700BFAFF300800000000080842E4175
:10166000E537002096A20300345E0300B8A1030012
:10167000BBA20300DDA203002DE9F743364B1B7824
:1016800004463BB935492DF072FF4FF0FF3003B0EF
:10169000BDE8F083324D284604F074FE021E05DAE0
:1016A000304920462DF063FF0020F0E7AE6840216E
:1016B000F36828469847021E01DA2B49F1E70E210C
:1016C0006A46336928469847021E01DA2749E8E747
:1016D0000198FEF767FE1EA3D3E90023FEF7F6FF8D
:1016E000804600988946FEF75DFE02460B4640465E
:1016F0004946FEF70BFD02460B4620461C492DF0DD
:101700001AFF0D216A46336928469847021E01DAFE
:101710001849C6E70198FEF745FE0DA3D3E900235B
:10172000FEF7D4FF064600980F46FEF73BFE024642
:101730000B4630463946FEF7E9FC02460B4620468A
:101740000D492DF0F8FE284604F0B8FDACE700BFC7
:101750000000000080842E41E8370020F0A4030040
:10176000A85D030023990300B8A1030018A5030096
:101770003AA503004EA5030073A503000000000076
:1017800008B5FEF721FE02460B4600200A49FEF787
:10179000BBFC07A3D3E90023FEF76EFEFFF7C4FCF2
:1017A000B1EBE07F18BF4FF0004008BDAFF3008001
:1017B0000000000065CDCD410000F03F00000000BA
:1017C0002DE9F047064688B00F46904633F077FD86
:1017D0004FF47A73A0FB034503FB0155E40B012F83
:1017E00044EA45444FEAD53507D1294922462B46DC
:1017F00030462DF0A0FE002012E0D8F804702548F5
:101800003946FFF777FC70B123483946FFF772FC81
:1018100048B1304621493A462DF0A9FE6FF0040048
:1018200008B0BDE8F0872046294617A3D3E9002376
:10183000FFF7D8FB05460C4610461946184A002308
:10184000FFF7D0FB80460F46104619464EF6602241
:101850000023FFF7C7FB82468946104619464FF41E
:101860007A720023FFF7BEFBCDE902A9CDE906237A
:10187000CDE90401CDE900870A492A4623463046CE
:101880002DF059FEB7E700BF005C26050000000000
:10189000C8AC0300D9AC0300DCAC0300E5AC03002A
:1018A00080EE3600FDAC03002DE9F843D0E907389F
:1018B000856903EB08042F34A5420F46164619D854
:1018C000DFF86C80A3FB080117A3D3E90023FFF71F
:1018D000D9FB0346601BA0FB080123F07F4412A341
:1018E000D3E90023FFF7CEFB20F07F403C6030605F
:1018F000BDE8F883DFF838900BA3D3E90023A5FBFC
:101900000901FFF7BFFB20F07F440A480A2106A324
:10191000D3E90023E8FB0901FFF7B4FB20F07F4087
:101920003C603060BDE8F8838D49FD1A0700000077
:1019300000CA9A3B00166BF1002800F037812DE9B0
:10194000F04FC54C94F86A30DA078DB000F1688129
:1019500094F8292094F8353004EB820204EB8303D9
:10196000D66A9F6B0EB3354615F8020BC0F3801094
:1019700011F0A6FB0368C6F802308388AB80337889
:101980005B0606D5062128460FF080FE002800F0F1
:1019900049813D4615F8020BC0F3801011F090FB11
:1019A0000368C7F802308388AB80337813F00E0FDA
:1019B00040F08E80236A1BB10C200DB0BDE8F08F83
:1019C00012F024FA8146002800F0398112F02AFA38
:1019D0008246002800F0308115F0F4F80546002812
:1019E00000F02F81806F4FF6FF732B8605F11C0BE3
:1019F000002800F01D8105F16C0205F168010FF06F
:101A000051FEB5F8643023F4EF6323F0070343F489
:101A10008C7343F00103A5F8643095F8433003F06C
:101A20003F0363F07F0385F8433095F87E3023F061
:101A3000070385F87E3095F8483023F00F034FF008
:101A4000000885F848304FF4C023C5F8783128469F
:101A5000C5E91588C5F87880A5F87C8085F84580AB
:101A6000A5F83680C5F83A80C5F85C80A5F87E8177
:101A7000A5F8748116F0FAFE85F84081C5F8449106
:101A800015F006FB95F8843160F3020385F8843184
:101A900015F004FB95F8843160F3C50385F88431B3
:101AA00095F8703168F3410385F8703105F1C40091
:101AB00016F0CEFCC4E9189AC4F820B0C5E9058830
:101AC00085F80080ED611AF047FF002840F0AC80F7
:101AD00094F824300121C3F342030DF12B008DF85B
:101AE0002B300FF07BFF0246002861D0797830461A
:101AF00014F054FA31235949A360594BB4F8687073
:101B0000A0FB01010025C01841F1070150A3D3E952
:101B10000023C4E9055525706560E560FFF7B2FA5A
:101B2000206111F089FA00F109083FB9357805F014
:101B30000F05A5F10105B5FA85F56D0994F82400A6
:101B4000236965F3000010F0010584F8240036D005
:101B5000444A0992002010600225434A434F0493EF
:101B60000BAE019305920321CDE902000694434692
:101B70000090089607972A460B9511F0E9F8314630
:101B800012F002FAA0B93A4905914AF2D83300930B
:101B9000CDE90300CDE90100079708960694434676
:101BA000012203210B9511F0B7F82EE014F048B98B
:101BB000236A002B3FF400AF14F0FEF8FCE6294A3C
:101BC0002C48049303F24713069402959121136065
:101BD000A7FB000301FB0731244B0793224B05931E
:101BE0004FF6FF730992022703930BAE18A3D3E9B4
:101BF00000230B970896FFF745FA4346CDE90050BE
:101C00003A462846032111F0A3F8314612F0BCF9F8
:101C10000028CDD194F86A3043F0010384F86A308B
:101C20000020CAE61220C8E614F0C6F80320C4E675
:101C300005F17000A867DEE6484612F0EDF80720CF
:101C4000BBE6504612F0F4F8484612F0E5F8F6E725
:101C50008D49FD1A07000000B829002000CA9A3BF0
:101C60008C49FD1AAC29002019600100D93101000E
:101C70001D5B0100002AE78470B590F824308AB01B
:101C8000C3F342030D46044601210DF1230016461D
:101C90008DF823300FF0A2FE71780246284614F02A
:101CA0007DF91F491F4AA0FB0131981841F1070136
:101CB00019A3D3E90023FFF7E5F923699842054604
:101CC00022D21B1A00220192174A02930221174BBB
:101CD0000991A21ACA40A3FB0232D20800230A4487
:101CE00009AE13490591CDE903330321D2B206961B
:101CF0000093184611F08CF8314612F045F938B9C6
:101D0000256100200AB070BDFBD9C21A0023DAE7B2
:101D10000C200AB070BD00BF8D49FD1A07000000FD
:101D200000CA9A3B8C49FD1AB8290020F712DA4BF9
:101D3000D93101000000000038B5194C9DF810E0C1
:101D400094F834C01CF0010523D163F3420C400128
:101D500094F8203021854FEACE0E0EF0180E00F0D8
:101D6000200040EA0E0023F0380303430D4884F8B6
:101D700020309121A2FB000384F834C001FB023122
:101D800005A3D3E90023FFF77DF9E062206328462D
:101D900038BD0C25284638BD8D49FD1A07000000C6
:101DA000B0110020002AE7842DE9F04F044600F12D
:101DB000210190F8340094F82030454DDFF814A14B
:101DC000C0F3400060F386138DB084F8203011F02A
:101DD00087F994F82020238D3F48E46102F07902CE
:101DE000002784F820209121A3FB0002C4E9057795
:101DF000277001FB032134A3D3E90023FFF742F945
:101E0000651B226B354B6760ED08A3FB053502F1BE
:101E100009039842EDB298BF3A4605EB450B8CBFDB
:101E200019460146E2624FEA8B0B3122A260E7605D
:101E300021614AF80B10064611F0FEF8B8460DF184
:101E40002C090AEB0B030993CDF820900694CDF8EA
:101E50000C80238D00F109071F489121A3FB00028C
:101E600001FB0321236904931D4B07931D4B05932D
:101E700002230B9314A3D3E90023FFF703F91046C1
:101E800019464FF47A720023FFF7FCF80435EDB2DF
:101E9000CDE9016003213B462A46CDF8008040464B
:101EA00010F056FF494612F06FF840B994F83430FC
:101EB00043F0010384F834300DB0BDE8F08F0C20FE
:101EC0000DB0BDE8F08F00BF8D49FD1A070000007E
:101ED000B01100203C2A0020002AE78425499224E2
:101EE000D9310100E56501002DE9F04F06468DB0BE
:101EF0008A4601200221994615461CF0E3FE002285
:101F00000B90022101200FF01DFC3B494FF4C472DD
:101F100030460FF0A7FB471D384B0093FFB20196E8
:101F20004B463A460121002010F0CCFF10F0FD0F87
:101F30000ED0334A3349344840F68F032CF079FFF2
:101F4000002383F31188BFF36F8F0323184602DF4A
:101F50002E4CA5FB044526A3D3E9002320462946A1
:101F6000FFF790F80896069633690493284B20F003
:101F70007F48A8FB0331E01A264B07934FF0070276
:101F8000254B059302FB08114FF6FE7365EB01012B
:101F900003934FF47A720023FFF774F84FF0000BAD
:101FA000CDE90180CDF800A04B463A4601215846C4
:101FB00010F0B2FE10F0FD0F0DD0114A1149124879
:101FC00040F6A4032CF035FF8BF31188BFF36F8F1D
:101FD0000323184602DF0B9B13B90DB0BDE8F08F49
:101FE0000122022110460DB0BDE8F04F0FF0AABB50
:101FF0008D49FD1A07000000E8110020656B010003
:10200000D07C0300947D0300BC76030000CA9A3B99
:102010008D49FD1A056B01007DB60100000000002E
:102020002DE9F0418468228E4FF6FF739A428CB0FE
:1020300045D00546204616F08DFE2B7D012B00F085
:102040003B81022B00F02E81002B00F00D8194F8D3
:102050004061002E40F029812B8A678F94F943203C
:10206000CDE90A6673B3002AC0F273810023A4F895
:102070007A31AA7C238FFD1802F003030135012B6E
:10208000ADB23BD0B4F87E31002B00F01E819D42F2
:1020900080F072815B1B9BB20022062BA4F87E317C
:1020A000628740F20F8194F943309342C0F2698114
:1020B000002326E09DF82710204615F0CDF80CB03F
:1020C000BDE8F081002AB8BF84F86561238FAA7C3F
:1020D000FD1802F003030135012BADB20ED0B4F8A8
:1020E0007A31002BCED0AB4240F255815B1BA4F875
:1020F0007A31B4F87E31002BC9D102E00023A4F874
:102100007E3194F8482063F3820284F848202946FF
:102110000DF12702204616F0E5FB7430CAD0B4F862
:1021200078312BB1AB4240F205815B1BA4F87831CA
:10213000B4F874312BB1AB4240F2F3805B1BA4F8CE
:102140007431658F16B9AF4200F0E2800135ADB24F
:1021500094F8C13013F0010731D1DDE90A130A46C2
:10216000002B40F0E580002900F0D4801F4618467F
:10217000228EE4690694CDE903560532A64D0290FD
:10218000CDE90017D2B201210020059510F040FEE4
:1021900010F0FD0F93D011F021FF84428FD09F4AA1
:1021A0009F49A0484FF4AE632CF043FE002383F315
:1021B0001188BFF36F8F0323184602DF7FE794F97E
:1021C00043206FF30003002A84F8C130C0F29880E6
:1021D00094F86400C0F3C00100F007001AF0D8F9C9
:1021E00094F8642094F8653002F003012831C2F3BA
:1021F0004002C900D14003F003022832C3F3400378
:10220000D200DA40638D03F23F13B1F5A07F2CBFFB
:102210005B1803F5A073B2F5A07F2CBF9B1803F5E4
:10222000A0730344804A81480721E3FB0021104644
:1022300077A3D3E90023FEF725FFDDE90A1320F099
:102240007F4220692261904235BF171A801A002010
:1022500000270A46002B8BD157EA010C88D10028B1
:1022600058D019461F4683E794F87E3003F01803D0
:10227000182B7FF4ECAEA18EB4F876218B1D9A4218
:10228000C4BF931F5B1AB4F87211CCBF9BB2134644
:10229000994200F09C80A4F87231A4F87431A4F83B
:1022A0007821D4E63D2684F84061314620460CB0C2
:1022B000BDE8F04114F0D0BF0023A4F87831A4F8B1
:1022C0007431C4E6012633461BE7628E052A97BFA8
:1022D000013240F2E2434FF4FA7392B203FB02F28E
:1022E000B4F87C3142F2107101FB0323013BB3FBD4
:1022F000F2F39BB2A4F87E31002B7FF4C8AE00E766
:1023000094F86500012100F007001AF043F967E72F
:1023100035461DE7002D43D00027114638463B4681
:1023200026E70023A4F87431204616F07DFB08E769
:1023300038461DE711F0BCFD0146A0B30023A4F808
:102340007831238EC3801B230371006811F082FD56
:10235000EEE694F865316BB3013B84F8653104F126
:10236000C408404616F0B6F8B8B3404616F0B2F8C6
:10237000B8B30023638779E60821204614F06CFF88
:102380009DE6A7B9D4F868315A0813F0010336D195
:10239000C4F868218CE63E21204614F05DFF8EE6ED
:1023A000002EB9D18BE60123A4F87831C0E613469C
:1023B0000126A6E60AAA0BA92846FFF775FADDE969
:1023C0000A231343CBD0237884F86531C7E7B4F8E8
:1023D000781100297FF43BAE5FE7FF2014F0FEFE8A
:1023E000C3E70246D4E91A010FF074F90028C0D1FE
:1023F00094F848301B0744BFA38E638736E642F04B
:1024000000421E46C4F868213B467AE6AFF30080DE
:102410008D49FD1A07000000C16A0100D07C03004D
:10242000E07D0300BC7603008C49FD1A00CA9A3B8C
:102430002DE9F04F87B0CDE90423BDF8442003789F
:102440000292BDF84820BDF840A0BDF84C90878F9F
:10245000019104460392002B00F0F380013FBFB2CC
:10246000A368D4F8FCB0A7EB090292B2002B00924B
:102470000ADAE168626823F0004391422CBF8B4482
:102480009344A360ABEB030B94F86400C0F3C0016A
:1024900000F007001AF07CF8B4F83280B8F1050FAC
:1024A00040F2C580009B18FB03F81FFA88F840F241
:1024B000E246BAF1050F40F2AE8094F8652094F838
:1024C000641002F003032833C2F34002DB00D34060
:1024D00001F003022832B3F5A47FC1F340014FEAB3
:1024E000C20222FA01F238BF4FF4A473B2F5A47FFE
:1024F0002CBF9B1803F5A47303F2D51303447C4A45
:102500007C480721E3FB00214FF09613A36296233A
:102510001046A38574A3D3E90023FEF7B3FD554607
:1025200020F07F4040F2E24303FB05F516FB08F67E
:10253000B3B22061B3FBF5F815FB08F080B283421B
:102540001FFA88F659D26B49C01A80FB010166A3B5
:10255000D3E90023FEF796FD20F07F408344E38E0D
:10256000B4F804211344994494F84330A9EB0709C3
:102570004E44DB09E6866BD15F4A6049604840F60D
:1025800067132CF056FC002787F31188BFF36F8F79
:102590000323184602DF2E46029BA386039BA4F862
:1025A0007C3129462046A4F832A016F0D7F9554BC5
:1025B000A18E2B44881DB3FBF5F39AB29042A4F888
:1025C000762104D2C1F57F41FA310A4492B2019BCF
:1025D000A4F8722113B10023A4F87E315B46324681
:1025E00039462046FFF780FC94F8703143F0010330
:1025F00084F8703107B0BDE8F08F1B1A3D4883FBAB
:10260000000139A3D3E90023FEF73CFD20F07F4011
:10261000ABEB000BA3E74FF096130AF10105A362A1
:102620009623A385ADB20A204FF4FA737CE7009B92
:1026300008F1010818FB03F81FFA88F84FF4FA763E
:1026400037E7C38E1F44B0F804311F44BFB207E719
:10265000E26C0099636D274F02FB113363651AF03A
:10266000CBF9064694F86401C0F342001AF0C6F9AB
:10267000064405FB06F6244B06F5742606F23F26B3
:10268000A3FB0636B60C636DE66406FB08F06A0829
:102690000344963A934228BF1346C4E91423049B8B
:1026A00040F2E24909FB03F3E3650023A0FB0701C5
:1026B000C4F86C310CA3D3E90023FEF7E3FC134B01
:1026C000059AABEB000BA3FB0230800A09FB00F07C
:1026D000A0FB070104A3D3E90023FEF7D3FCAE1B44
:1026E00020F07F4758E700BF8D49FD1A0700000022
:1026F0008C49FD1A00CA9A3BD07C030094770300F2
:10270000BC7603007FC3C90183DE1B435917B7D1D1
:102710002DE9F04F134615460A6853F8087BD2F8A6
:102720000090B0F82EC00246044652F82EABD0F806
:102730001E0094F81C800E469178628CA5F808C0A3
:102740009970D4F82A306B6091B0D4F83A30C5F85B
:102750002230ADF83C2094F83E2085F826200E90DB
:1027600010AA12E9030005F122030C90ADF8341011
:10277000184605210FF032F995F8273000F03F0098
:1027800060F3050385F8273094F83F30C3F3040263
:1027900085F82820A28EEA820128C8F3801808D97B
:1027A00003F01F031B3303F01F030B2B01D892B25E
:1027B000BAB90022C9F8142095F82C3062F300034E
:1027C00085F82C300126E56826715046214611F027
:1027D00035FB28682E71294611B0BDE8F04F11F085
:1027E00039BB336800215960E38EB5F816B02B83EE
:1027F00040F2E24303FB0BFB3846638E0B9316F06B
:10280000C1F894F83F2097F86411520962F343012C
:1028100087F864111AF0F0F80A9097F86401C0F391
:1028200042001AF0EBF80A9A10440BFB00F0BA4A87
:1028300000F5742000F23F20A2FB00204FEA5B026B
:10284000800C963A28636A6394F8312040F2E243A0
:1028500002FB03F36B64238FA7F87C31594638469B
:1028600016F07CF8AD4BAE4AC7F880215B44B3FB51
:10287000FBF39AB2A7F87621298B881D824204DDEA
:10288000C1F57F41FA310A4492B2A7F872216B6810
:10289000C7F86831234613F81C2FC2F340120A927E
:1028A000DA0700F11281BDF83430A4F823300C9817
:1028B00084F81E804FF48073C4F81F00A383EB8A52
:1028C000E3842B8B2385B7F87C31638597F86431DB
:1028D000C3F3420384F82C30384614F07FF9A88201
:1028E000E08021465046746811F0A8FAAB8AE38074
:1028F0001C2323710A9BD4F80080002B40F0D98060
:102900000A9B23772146404611F0A4FA95F84940E6
:1029100095F8488004F007040121204619F03AFE9A
:1029200008F00708824608F003002830C8F3400882
:1029300004F00303C00020FA08F02833B0F5A47FA8
:10294000C4F340044FEAC30338BF4FF4A470E3401C
:10295000B3F5A47F2CBFC01800F5A470DFF8C481C4
:10296000714B00F2D51050440721E0FB08311846A6
:102970004FF09613C5E9033300243123BB607C601C
:1029800063A3D3E90023FC60FEF77CFB20F07F40CB
:1029900038610B99F3682D6B40F2E24202FB013380
:1029A00003F2B341A1EB0A0A2246022101200EF0F4
:1029B000C9FE484613F0EEFC0246AAFB0801924607
:1029C00053A3D3E90023FEF75DFBCDF80490B36871
:1029D0005649009120F07F480AF102023A3BD2B2F8
:1029E00043440121204610F06DFA0128ABEB0505A8
:1029F0007AD099F82430DB0753D4384614F0EEF837
:102A0000484BA5FB03A9044641A3D3E90023504644
:102A10004946FEF737FB464BB668464A079220F018
:102A20007F45A5FB0331BAEB0300434B05934FF4FD
:102A3000F573069708933B694FF0000BCDE903B39C
:102A40004FF0070303FB051169EB01014FF47A72A4
:102A50000023FEF717FB05343A3EE4B2CDE90150FE
:102A6000CDF80080334622460121584610F054F933
:102A700010F0FD0F0DD0314A3149324840F2EB13CE
:102A80002CF0D7F98BF31188BFF36F8F032318460F
:102A900002DF01220221104611B0BDE8F04F0EF016
:102AA00051BE0023012200931846114610F0C8F9C8
:102AB000A3E795F8273043F0400385F82730281D19
:102AC00018F0F2FE012328851BE71C4A1E491D4809
:102AD000FD232CF0AEF9002383F31188BFF36F8F31
:102AE0000323184602DFDEE611F078FA814580D034
:102AF000124A1649134840F292232CF09AF984F3B3
:102B00001188BFF36F8F0323184602DF71E700BF00
:102B10008D49FD1A0700000083DE1B437FC3C901F6
:102B2000404B4C0000CA9A3B8C49FD1A3DB601004F
:102B30008D49FD1A09B601007DB601007C820300B3
:102B4000947D0300BC760300E4790300D88203007F
:102B50002DE9F04F8FB00DF137010446DFF8F0A0FA
:102B6000DFF8F0800DF1360011F0E4F99DF8363011
:102B70009DF837B00B9310F05FFADAF80060A6FB0F
:102B8000085631A3D3E90023002781463146284661
:102B9000FEF778FACDE90777069420F07F44DAF85B
:102BA00004002D4B0593A0FB080127A3D3E90023C4
:102BB000FEF768FA294B20F07F40A4FB033107227F
:102BC00002FB0411CDE90370E81A66EB01014FF432
:102BD0007A720023FEF756FA0097CDE901404B4682
:102BE0000B985A46032110F097F810F0FD0404D01A
:102BF0006FF08B000FB0BDE8F08F1948194A002321
:102C000026F046FF20B9DAF80C000FB0BDE8F08FCF
:102C10009DF837209DF8360000942346032110F0DC
:102C20000FF910F0FD0F0CD00F49104A1048E423A3
:102C30002CF0FFF80F482CF0FCF80C48E4212CF0A5
:102C4000EFF86FF07300D5E78D49FD1A070000001B
:102C50009C2E002000CA9A3BB5BA01008D49FD1A8E
:102C6000842E0020447B0B0078830300088303003C
:102C7000BC760300C083030038B50F4D044610F046
:102C8000DBF9A96810F0DAF9696803460B48B3FB71
:102C9000F4F4A1FB00011C4405A3D3E90023FEF7D3
:102CA000F1F920F07F40844294BF0020012038BD1C
:102CB0008D49FD1A070000009C2E002000CA9A3B97
:102CC0002DE9F04F00248FB0CDE90544FF23DFF854
:102CD0006091DFF860A18DF81330054604264FF0AF
:102CE000020807ABCDE9019305AB00930DF1130288
:102CF00006AB03210020DDF818B0CDF81C8010F0E1
:102D000071F9022807465AD0079B9DF81320002B23
:102D100059D049493B4628462CF00DFC4749484EBE
:102D2000224628462CF007FC069F4FF0070AA7FB17
:102D300006013DA3D3E900230AFB0711FEF7A2F920
:102D4000404903463A4628462CF0F5FB8CB33E49F1
:102D500028462CF0F0FB3D4928462CF0ECFB3C4982
:102D600028462CF0E8FB384928462CF0E4FB0DF10E
:102D700020094FF00008D9F8047019F808BBA7FB28
:102D8000060129A3D3E900230AFB0711FEF77AF90C
:102D900008F1010800903B462E495A4628462CF07F
:102DA000CAFB5FFA88F39C42E5D8274928462CF0F5
:102DB000C2FB002016E00321002010F025F9079B3C
:102DC000022BF8D0A0E7FF2AA3D0069B5B451AD0C0
:102DD000013E16F0FF0608D128461F492CF0ABFB38
:102DE0006FF00A000FB0BDE8F08F24B132465146B3
:102DF00028462CF0A0FB9DF813308DF82030059B61
:102E0000099301246DE70EAB03EBC4030134E4B274
:102E100003F8182C032C059A43F8142C7FF461AFA7
:102E20007CE700BFAFF3008000CA9A3B00000000BF
:102E3000FF27030098DE030055DE0300BCDE03001D
:102E40008D49FD1ACADE0300DCDE0300F3DE030059
:102E50000ADF030021DF030074DE0300000000002E
:102E6000F0B5C468636883B00546002B4FD11BF0F2
:102E700011FB04201BF034FB002108461BF022FB51
:102E80000022252108201BF05FFB3D4B019301A888
:102E90001BF046FB3B4940F25B601BF0FBFB237AD7
:102EA000C3F3420262F306132372204619F0AAFF0D
:102EB00027682E68384619F005FB06446A6806F153
:102EC000090101201BF020FD1BF00EFE204613F02F
:102ED0006FFA811C3246C9B2384619F001FB05462B
:102EE00000BB204619F088FA10B9002003B0F0BDED
:102EF000254A2649264840F229432BF09AFF85F3BC
:102F00001188BFF36F8F0323184602DFEDE793F8B4
:102F10002C309B07ABD01F4821461BF079FA1BF0E1
:102F200065FBE2E7184A1C49194840F211432BF0AF
:102F300080FF1A4B0721A5FB030301FB05310EA3FC
:102F4000D3E90023FEF79EF81549024615482BF0F9
:102F500070FF002585F31188BFF36F8F0323184698
:102F600002DF114821461BF053FA1BF03FFB6FF0C4
:102F70008B00BBE7AFF3008000CA9A3B0000000063
:102F8000D6BE898E55555500DC8603008C7803002B
:102F9000BC7603006DC60100947703008D49FD1ACD
:102FA0008C8703006087030009CA0100000000004D
:102FB0002DE9F041C46823796FF300038CB02371CD
:102FC0000F4605461BF066FA04201BF089FA002123
:102FD00008461BF077FA0022252108201BF0B4FADE
:102FE000012011F0AFF80646002800F0848006F1B9
:102FF0001C001BF0D3FA5E4B0B930BA81BF090FA4E
:103000005C4940F25B601BF045FB2079C0F3410056
:10301000253019F077FA584821461BF0F9F9237941
:103020009B062ED596201BF063FC00231A461946FA
:1030300018461BF095FBD4F800802E68404619F026
:1030400041FA06446A6806F1090100201BF05CFCA5
:103050001BF04AFD1BF0F4FB204613F0ABFB011DF7
:10306000C9B24046324619F03BFA0546002851D114
:1030700057B1204619F0C0F968BB00200CB0BDE87C
:10308000F0811BF0CDFBD6E72369002BF1D03B4943
:1030900007913B49059140F2F31100930891CDE966
:1030A0000377CDE9017706943346032239460FF0C2
:1030B00033FE10F0FD0FDCD0324A334933484FF471
:1030C000FA732BF0B6FE87F31188BFF36F8F0323DB
:1030D000184602DFCDE72B4A2D492C4840F20B233E
:1030E0002BF0A7FE002383F31188BFF36F8F032318
:1030F000184602DFC1E7234A264924484FF4C57326
:103100002BF097FE86F31188BFF36F8F03231846C9
:1031100002DF6CE71B4A20491C4840F2E5132BF004
:1031200088FE1E4B0721A5FB030301FB05310EA3FF
:10313000D3E90023FDF7A6FF1949024619482BF0F1
:1031400078FE002585F31188BFF36F8F032318469F
:1031500002DF154821461BF05BF91BF047FA6FF0C0
:103160008B008BE7AFF3008000CA9A3B00000000A1
:10317000D6BE898E55555500DDD5010051D40100CC
:10318000E9D4010098870300C47A0300BC760300E9
:103190008C78030028870300947703008D49FD1A7B
:1031A000E48703006087030015D3010000000000DE
:1031B0002DE9F041C468A28A4FF6FF739A4282B0AB
:1031C00000F0DF8005461AF001FC2B89628B208C11
:1031D000A3831A4492B2104494F82730E28380B259
:1031E000411C21845E064FF00001618304F122013D
:1031F00000F1A18003F03F000B4694F828100090E6
:1032000004F1290018F008FB0646D4E90C31A28B22
:1032100002FB0333A26B1344E26B8B4294BFD218C0
:1032200052188A4228BF0A46E263616C226C94F805
:1032300049301144616494F8622094F82C10C3F36F
:10324000020363F3061112F004024FF0000384F846
:103250002C10A363236478D01BF01CF904201BF00E
:103260003FF9201D1BF05CF92389A17A40F25B60D5
:1032700043EA01411BF00EFA304619F043F92146AA
:1032800059481BF0C5F8A0891BF032FB94F8482080
:1032900094F84900C2F3C003002102F0070200F0D5
:1032A00007001BF05DFA20461AF03AFC27682E68EA
:1032B000384619F007F906446A6806F1090100204A
:1032C0001BF022FB80461BF0E3FB00201BF0FAFB07
:1032D000E36B94F8490003F12F02636C00F00700E0
:1032E000012103EB42051BF06DF94544054494F8B8
:1032F000490000F00700022825D004280CBF4FF435
:10330000BC73282301211D441BF05EF928441BF0E7
:10331000B1FBA18A05313246C9B2384619F0E0F84E
:103320000546002834D1204619F066F8D0B90020AF
:1033300002B0BDE8F0810A4603F03F03218D18F08A
:10334000B7FA064661E71823DCE7D4E913010EF06B
:10335000C1F9002880D194F8623043F0040384F866
:10336000623079E7214A224922484FF4B0732BF0AA
:1033700060FD85F31188BFF36F8F0323184602DFCA
:10338000D5E71D4821461BF043F81BF02FF9CEE787
:10339000164A1A4917484FF4AB732BF04AFD184BE5
:1033A0000721A5FB030301FB05310DA3D3E900238E
:1033B000FDF768FE1349024613482BF03AFD00253D
:1033C00085F31188BFF36F8F0323184602DF0F4880
:1033D00021461BF01DF81BF009F96FF08B00A7E7E1
:1033E00000CA9A3B0000000089DD010078880300D4
:1033F0008C780300BC7603006DC60100947703004F
:103400008D49FD1ACC880300608703004DC601007A
:103410002DE9F04FD0E9006389B087680393838971
:1034200005930D46B36803995B6806AA3046984732
:10343000002831DBDDE9064BA7FB042307FB0B3833
:1034400004920498DFF8709019A3D3E90023414651
:10345000FDF718FE049B4FF0FF3A9A4579EB0803FD
:1034600007461CD3A5FB044305FB0B35294610A3D7
:10347000D3E900232046FDF705FEA24579EB0505BB
:1034800003460CD38742B2680CD3059900911468A7
:1034900003993A463046A04709B0BDE8F08F6FF077
:1034A0008500F9E76FF01500F6E700BFAFF3008085
:1034B00000CA9A3B00000000FFC99A3B00000000D0
:1034C0002DE9F04FD0E9006389B0876803938389C1
:1034D00005930D46B36803995B6806AA3046984782
:1034E000002831DBDDE9064BA7FB042307FB0B3883
:1034F00004920498DFF8709019A3D3E900234146A1
:10350000FDF7C0FD049B4FF0FF3A9A4579EB0803A5
:1035100007461CD3A5FB044305FB0B35294610A326
:10352000D3E900232046FDF7ADFDA24579EB050563
:1035300003460CD38742B2680CD3059900911468F6
:1035400003993A463046A04709B0BDE8F08F6FF0C6
:103550008500F9E76FF01500F6E700BFAFF30080D4
:1035600000CA9A3B00000000FFC99A3B000000001F
:10357000F8B5144606460F46FDF718FA08A3D3E936
:1035800000230546206039463046FCF775FFFDF7FD
:103590000DFA054B03FB15006060F8BDAFF300802A
:1035A0000000000080842E4140420F000000000017
:1035B00070B508390569144605293CD8DFE801F0E3
:1035C000151E39203B03E868FCF7DCFE1CA3D3E999
:1035D0000023FCF751FF1CA3D3E90023FCF794FD63
:1035E0002246FFF7C5FF002070BD2869FCF7DAFE10
:1035F00017A3D3E90023FCF73FFFF1E76869F5E77C
:103600002869FCF7CFFE12A3D3E90023FCF734FFAF
:103610002246FFF7ADFF6869FCF7C4FE04F1080617
:103620000BA3D3E90023FCF727FF3246FFF7A0FFE7
:103630001034A869DAE76FF08500D5E7AFF30080B2
:103640009A9999999999E93F0000000000C0524069
:1036500074479CA1FAFF0F3F70B506461446CD177C
:10366000A1FB020104FB05110A220023FDF7BAFCAD
:103670000F4D80FB05450AA3D3E9002320462946C8
:10368000FDF7B0FC08A3D3E90023306029462046AB
:10369000FDF7A8FC074A0023FDF7A4FC726070BD8B
:1036A00000209BF35E10000080A8120100000000C3
:1036B000D8EF2F0040420F0003292DE9F0410546C5
:1036C0000C4604D0072973D06FF085004CE0002A27
:1036D00052D0072AF8D158681A68614BC117C2FB4B
:1036E0000301012871F100035BDBD5F804805D4B19
:1036F00098F81A6098F91A70C01841F1000154A3A3
:10370000D3E90023F609FDF76DFC76B2002E14BF55
:1037100004230223984229D0002E14BF2023102313
:10372000984225D0002E14BF08230423984221D0AC
:10373000002E14BF10230823984232D1E6B231463E
:1037400040462D692CF09EFD002824DB464BAE77C9
:1037500033F81430002F4FF03D02AABFA3FB023212
:1037600053435B08EB600020BDE8F0810024E5E7EF
:103770000124E3E70224E1E719883C4B14461F4685
:1037800033F8022B914209D868682E69E1B22CF017
:10379000E6FE002808DA6FF00400E5E701340B2CA0
:1037A000EED16FF01500DFE737F81430B383DAE7B6
:1037B000002A3AD0072A87D15A681968284BD017AF
:1037C000C1FB0320B424A2FB0431012A04FB001135
:1037D00070F100001DDB264818181FA3D3E9002351
:1037E00041F10001FDF7FEFB224B002433F8022BD0
:1037F000904216D168682E69E1B22CF05AFD00287B
:10380000C9DB1D4B33F8143041F217125343B36137
:10381000A9E71A48181861F100010FA3D3E90023A2
:10382000E0E70134072CE1D1BBE719880F4B33F8EF
:10383000020B814206D86868D1B22CF0FEFE002847
:1038400091DAA8E701320B2AF1D1AAE7AFF30080A1
:103850003AA3950000000000D8EF2F000000000000
:1038600040420F009DD14A00829503008A950300D3
:10387000ECF7170074950300669503001408E8FF41
:103880002DE9F74F03290669144605D90B1F032BB1
:1038900053D96FF0850023E00229F7683A4D22D012
:1038A000032923D0012914BFB6F90460B6F90660D4
:1038B000A6FB076786FB056531A3D3E900233046E5
:1038C0002946FDF78FFB314A206000233046294608
:1038D000FDF788FB2D4A0023FDF784FB6260002082
:1038E00003B0BDE8F08FB6F90860E1E702F1180314
:1038F000DFF898A0019302364FF0000B36F9028FE3
:10390000A8FB078388FB05981DA3D3E9002348463D
:103910004146FDF767FB524644F8080B5B464846B4
:103920004146FDF75FFB52465B46FDF75BFB019BA3
:1039300044F8042C9C42E1D1D1E70629B5690CD0AA
:1039400007290ED0052914BFB6F91010B6F91210C8
:103950002A462046FFF780FEC1E7B6F914102A4632
:10396000F7E70E3602F11807204636F9021F083431
:103970002A46FFF771FEA742F6D1B0E7AFF3008009
:103980000010A5D4E80000003AA3950040420F00C3
:103990002DE9FF47B04F21F00042BA4204460D46E0
:1039A0004FEAD17632D9AD4FBA4216D894A3D3E9B3
:1039B0000023FCF7F1FF074610BB93A3D3E90023D4
:1039C00020462946FCF7CAFF002800F09E803846B2
:1039D00004B0BDE8F04731F048BFC1F3130303431F
:1039E000024605D00B46FCF791FB04460D4602E06B
:1039F000002E40F0FF802046294604B0BDE8F08745
:103A0000002004B0BDE8F0472BF06AB8944B9A420E
:103A100040F2A780934B9A4277D8934B03EBC603AF
:103A2000D3E90023FCF770FB904BF4002344D3E967
:103A30000034CDE90034C6F1010A80468946AAEB7C
:103A4000060ADDE9002340464946FCF75DFB0446D3
:103A50000D4622462B4620462946FCF70DFD6CA359
:103A6000D3E9002306460F46FCF706FD6AA3D3E917
:103A70000023FCF749FB32463B46FCF7FDFC68A3FC
:103A8000D3E90023FCF742FB32463B46FCF7F4FC4B
:103A900065A3D3E90023FCF737FB32463B46FCF72E
:103AA000EBFC63A3D3E90023FCF730FB32463B4633
:103AB000FCF7E2FC02460B4620462946FCF724FBB5
:103AC00002460B4606460F4620462946FCF7D4FC24
:103AD000CDE90201BAF1000F5AD100224FF0804324
:103AE00030463946FCF710FB02460B46DDE9020181
:103AF000FCF7ECFD22462B46FCF706FB02460B4684
:103B000000205B49FCF700FB6FE75A4B204603EBB4
:103B1000C606294648A3D3E90023FCF7ADFCD6E945
:103B20000023FCF7F3FAFCF741FF8246FCF73AFC6E
:103B300043A3D3E9002306460F46FCF79DFC02464B
:103B40000B4620462946FCF7DFFA3FA3D3E90023C2
:103B50008046894630463946FCF78EFCCDE90001A7
:103B60006FE7454B9A420ED839A3D3E90023FCF7FF
:103B7000CDFA3F4B0022FCF70FFF38B13C4B00223F
:103B8000204629462FE74FF0000A62E7824660E7A9
:103B900032463B4600204FF08041FCF7B5FA024622
:103BA0000B46DDE90201FCF791FD02460B46DDE91B
:103BB0000001FCF7A9FA42464B46FCF7A5FA0B4672
:103BC00002462B490020FCF79FFA0B466FF47F71E9
:103BD0008A45064603DB344603EB0A550BE70AF534
:103BE0007A7A03EB0A51304600224FF0B873FCF7A3
:103BF00043FCFAE600240025FDE600BFAFF3008099
:103C0000EF39FAFE422E864051302DD5104987C03B
:103C1000D0A4BE726937663EF16BD2C541BDBB3ED2
:103C20002CDE25AF6A56113F93BDBE166CC1663FB0
:103C30003E5555555555C53FFE822B654715F73FF7
:103C40000000E0FE422EE63F763C7935EF39EA3D52
:103C50009C7500883CE4377E412E8640FFFFEF7F55
:103C6000422ED63FB1A2F03FA86803009868030037
:103C70000000F03FB8680300FFFFEF3D00000000C8
:103C80002DE9F04FB1F5801F87B0074688460D46F5
:103C900025DA21F00043034305D1012007B0BDE838
:103CA000F04F2AF029BF002904DA07B0BDE8F04F31
:103CB0002AF02EBFC64B0022FCF7DEFB88460D46DD
:103CC00007466FF03501C34885420ADD3A46434650
:103CD00038464146FCF71AFA07B0BDE8F08F0021DC
:103CE000F1E72C15A4F2FF34C5F313050C4405F5D8
:103CF000152101F6647101F4801686F07F5181F47C
:103D0000401141EA050319460022B34B3846FCF73F
:103D1000FBF9AB1CC3F31303022B04EB16548246CE
:103D20008B464FF0000253DC0023FCF70DFED0B1B0
:103D3000002C00F020812046FCF734FB90A3D3E94F
:103D4000002306460F46FCF797FB8FA3D3E9002319
:103D500004460D4630463946FCF78EFB02460B46BC
:103D600020462946B6E78AA3D3E9002350465946A0
:103D7000FCF782FB02460B4600209849FCF7C4F989
:103D8000524606460F465B4650465946FCF774FBC2
:103D900002460B4630463946FCF76EFB06460F4698
:103DA00014B932463B46A0E02046FCF7FBFA74A368
:103DB000D3E9002380468946FCF75EFB72A3D3E972
:103DC000002304460D4640464946FCF755FBA5E056
:103DD0004FF08043FCF79AF902460B46504659468D
:103DE000FCF774FCCDE900012046FCF7DBFADDE9C5
:103DF0000023CDE9020110461946FCF73DFB0246BF
:103E00000B46CDE90423FCF737FB63A3D3E900237A
:103E100080468946FCF730FB61A3D3E90023FCF719
:103E200075F942464B46FCF727FB5FA3D3E9002315
:103E3000FCF76CF942464B46FCF71EFB5CA3D3E94A
:103E40000023FCF763F9DDE90423FCF715FB5AA313
:103E5000D3E90023CDE9040140464946FCF70CFBB9
:103E600057A3D3E90023FCF751F942464B46FCF730
:103E700003FB55A3D3E90023FCF748F942464B4620
:103E8000FCF7FAFAA5F5C22602460B46C5F5D7257A
:103E9000DDE90401FCF73AF9A6F27A4651353543DB
:103EA000002D8046894648DD4C4B0022504659463D
:103EB000FCF7E2FA52465B46FCF7DEFA02460B4696
:103EC00006460F4640464946FCF720F9DDE9002347
:103ED000FCF7D2FA8046894664B902460B46304662
:103EE0003946FCF711F902460B4650465946FCF795
:103EF0000BF9F1E622A3D3E90023DDE90201FCF787
:103F0000BBFA21A3D3E9002304460D46DDE90201F3
:103F1000FCF7B2FA42464B46FCF7F8F802460B466D
:103F200030463946FCF7F0F852465B46FCF7ECF8B1
:103F300002460B4620462946D9E702460B46504624
:103F40005946FCF7E1F8DDE90023FCF795FA06464F
:103F50000F46002C3FF425AF09A3D3E90023DDE988
:103F60000201FCF789FA08A3D3E9002304460D46B1
:103F7000DDE9020129E700200021ADE6AFF3008072
:103F80000000E0FE422EE63F763C7935EF39EA3D0F
:103F9000555555555555D53F44523EDF12F1C23F58
:103FA000DE03CB966446C73F599322942449D23FFF
:103FB000935555555555E53F9FC678D0099AC33F4F
:103FC000AF788E1DC571CC3F04FA97999999D93F66
:103FD00000005043FFFFEF7F0000F03F0000E03F94
:103FE0002D492E4A2E4808B529F0B0FA00F06AF99A
:103FF000011E02DA2B4829F0A9FA00F0FFF9011E90
:1040000002DA294829F0A2FA00F054FB011E02DA74
:10401000264829F09BFA00F0F7FD011E02DA244839
:1040200029F094FA00F062FE011E02DA214829F01C
:104030008DFA00F091FE011E02DA1F4829F086FA7F
:1040400000F078FE011E02DA1C4829F07FFA00F029
:1040500057FF011E02DA1A4829F078FA01F064F8D5
:10406000011E02DA174829F071FA01F073F8011EF7
:1040700002DA154829F06AFA01F0D8F9011E02DACD
:10408000124829F063FA01F0B3FA011E02DA10486F
:1040900029F05CFA002008BDA1950300A09503005B
:1040A000A7950300B3950300DD9503000796030071
:1040B000319603005996030082960300B1960300DF
:1040C000D796030006970300339703006597030014
:1040D0008F97030008B5012BBDF808100BD169B903
:1040E000137823B9084829F043FA012008BD012BB1
:1040F00007D10648F7E76FF00C00F7E76FF006000E
:10410000F4E76FF01200F1E7C7970300D0970300C0
:10411000014A024829F01ABA54C40300D99703008F
:1041200038B5054606F09CFF041E06DA064922460D
:1041300028462BF01CFA204638BD044928462BF0AF
:10414000FAF90024F7E700BFF29703001198030083
:1041500070B5064688B0002007F0C0FA041E07DAE2
:104160001049224630462BF002FA204608B070BDB6
:104170000D4D0FCD03AC0FC42B68236001230093BA
:104180000A490B4B022203A808F03EF9041E02DA8A
:1041900008492246E6E7084930462BF0CCF90024CE
:1041A000E3E700BF25980300406503006069030052
:1041B00058690300479803006D98030019B1034A3A
:1041C000034829F0C3B9034829F0D2B954C4030005
:1041D000809803009E980300F0B5284B1B7885B0AB
:1041E000044633B926492BF0C2F94FF0FF3005B031
:1041F000F0BD244802F0C6F8021E05DA2249204626
:104200002BF0B5F90020F2E72048204E204D214F39
:1042100024F078FF4FF42032002301A9304624F027
:104220008FFE0B3004D11C4920462BF0A0F9E9E7A2
:10423000BDF80A306C2B1BD009D81C2B12D0672B71
:10424000E8D1039B012B0CBF1449154906E09E2BB6
:10425000E0D1039B012B0CBF1249394620462BF0BD
:104260006AF9D7E7039B012B0CBF0F490F49F5E70C
:10427000039B012B0CBF0E492946EFE7E0370020D6
:10428000039903008C5D030023990300940A002026
:10429000E5990300669903003E9903007C990300A9
:1042A0008F99030051990300A3990300B999030062
:1042B000D0990300014602480022002324F064BD87
:1042C000940A002008B5064830F044FE20B1054BA2
:1042D00001221A70002008BD6FF01200FBE700BF3A
:1042E0008C5D0300E037002010B403460A46034803
:1042F00081680C691946234610BC1847FC5D030011
:1043000070B504468EB0344DAE684021F36828463F
:10431000984702A92B20FFF7E7FF04A92C20FFF7FD
:10432000E3FF06A92F20FFF7DFFF0AA94120FFF7CF
:10433000DBFF08A94220FFF7D7FF766826B10CAB58
:10434000122243212846B047039A2449244D254E82
:1043500020464FF47A7392FBF3F3029A2BF0EBF8BA
:10436000DDE9043153EA010254BF2A4632460029EE
:10437000B8BF4942002BB8BF5B426420B1FBF0F1EB
:104380002046009118492BF0D6F8DDE9063153EAB2
:10439000010254BF2A4632460029B8BF4942002BC9
:1043A000B8BF5B4242F21070B1FBF0F120460091C1
:1043B0000E492BF0C0F80C990D4A0E4B002918BF7E
:1043C000134600932046089B0A9A0B492BF0B3F83A
:1043D00000200EB070BD00BFFC5D0300249A0300F6
:1043E00054C403006CB30300319A0300409A0300E5
:1043F0001A9A0300179A03004F9A030008B504485D
:1044000030F0A8FD00280CBF6FF01200002008BD9E
:10441000FC5D030038B51346194A127804462AB9E0
:1044200018492BF0A4F84FF0FF3038BD012905D80A
:1044300015492BF09CF86FF01500F6E7002258683C
:10444000114629F057F9C5B2642D02D90F4920460B
:10445000EFE70F4883685B694BB129469847021E16
:1044600008DA0C4920462BF082F80020DDE76FF0D7
:104470005702F6E708492A4620462BF05CF8F4E795
:10448000E13700209C9A0300BC9A0300D69A0300EF
:10449000E45C0300F09A03000F9B030010B50F4B80
:1044A0001B7804462BB90E492BF061F84FF0FF3012
:1044B00010BD0C4883685B6843B19847021E08DA58
:1044C000094920462BF053F80020F1E76FF057021E
:1044D000F6E7064920462BF02EF8F5E7E1370020F5
:1044E0009C9A0300E45C0300279B0300479B0300A6
:1044F00010B50F4B1B7804462BB90E492BF037F83B
:104500004FF0FF3010BD0C4883681B6843B19847DB
:10451000021E08DA094920462BF029F80020F1E7AD
:104520006FF05702F6E7064920462BF004F8F5E74E
:10453000E13700209C9A0300E45C0300539B0300D6
:10454000749B03002DE9F341254B1B7805463BB9CD
:1045500024492BF00CF84FF0FF3002B0BDE8F08199
:104560002148866834690CB1A0470446002704EB53
:10457000E7001222FF21A03730F0D4FFB7F5D24F69
:10458000F5D100214FF0010846F6A01E4FEAE10CDC
:104590000022900793B209D00CEBD30703F0070376
:1045A000E05D08FA03F320EA0303E3550132912AA0
:1045B000EFD1A0317145E9D1002200941146B468D1
:1045C0000A4B0948A047021E05DA094928462AF085
:1045D000CEFF0020C1E7074928462AF0ACFFF8E7E4
:1045E000E13700209C9A0300E45C0300446A030066
:1045F000819B0300A29B03002DE9F743274B1B7807
:1046000005463BB926492AF0B2FF4FF0FF3003B010
:10461000BDE8F083234887683C690CB1A047044695
:10462000002604EBE6001222FF21A03630F07AFFCC
:10463000B6F5D24FF5D100224FF0A0084FF0010996
:1046400008FB02F0C010002302F0030EBEF1000FC1
:1046500009D000EBD30103F0070C665C09FA0CFCEF
:1046600026EA0C06665401339BB2912BEED101323F
:10467000A92AE5D1002200941146BC680A4B0948DA
:10468000A047021E05DA094928462AF070FF0020DB
:10469000BDE7074928462AF04EFFF8E7E13700203A
:1046A0009C9A0300E45C0300446A0300819B0300BE
:1046B000BE9B030008B5064830F04CFC20B1054B0A
:1046C00001221A70002008BD6FF01200FBE700BF46
:1046D000E45C0300E13700207FB51D4B1B780546E5
:1046E0003BB91C492AF043FF4FF0FF34204604B089
:1046F00070BD194E0121304601F042FD041E05DA5D
:104700001649224628462AF032FFEFE7B368DB69F4
:1047100073B103A930469847041E0CDA10492246AB
:1047200028462AF024FF00210B4801F029FDDDE78F
:104730006FF08504F2E79DF80E3000939DF80C2091
:104740009DF80D30074928462AF0F5FEEBE700BF3B
:10475000E2370020629C0300705D0300809C030030
:104760009D9C0300BB9C03002DE9F74F3C4B1B783D
:104770000646914643B93B492AF0F9FE4FF0FF3413
:10478000204603B0BDE8F08F022905D836492AF04B
:10479000EEFE6FF01504F3E700221146D9F804008D
:1047A00028F0A8FF8046D9F80800FCF7B5FC4708B8
:1047B000384630F08BFE0546C8B100F1FF3A4FEAAB
:1047C000470B0024A3454FF0000317D1DFF89C905E
:1047D0000121484601F0D4FC041E23DA3046244966
:1047E00022462AF0C4FE284630F069FEC8E7214977
:1047F00030462AF0BCFE6FF00B04C1E7D9F8082060
:10480000115D8DF804102244002152788DF80520A6
:1048100001A810228DF8063028F06CFF02340AF847
:10482000010FCFE7D9F808302A465C6841463B467D
:104830004846A047041E0CDA0F49224630462AF0AB
:1048400096FE284630F03BFE0021084801F098FC17
:1048500096E70A4943463A4630462AF06CFEF0E7AE
:10486000E2370020629C0300D59C0300705D0300CA
:10487000809C0300EE9C0300099D0300289D03001B
:104880002DE9F0432A4B1B7885B00746144643B9FF
:1048900028492AF06CFE4FF0FF34204605B0BDE8F1
:1048A000F083022905D824492AF061FE6FF015042F
:1048B000F3E700221146606828F01CFF0022114631
:1048C0000646A06828F016FF012105461B4801F0A6
:1048D00057FC041E1BDBDFF864909DB1102DA84629
:1048E00028BF4FF01008D9F8083014481C686A46F1
:1048F00043463146A047041E0FDA11492246384686
:104900002AF035FE00210D4801F03AFCC5E70D49BB
:10491000224638462AF02BFEBFE7314643466A4618
:10492000384603F0CDFC4644A5EB0805D5E700BFAB
:10493000E2370020629C0300429D0300705D03008B
:104940005D9D0300809C03002DE9F04F1346704AE3
:1049500012788DB0054642B96E492AF008FE4FF034
:10496000FF3738460DB0BDE8F08F012916D9002277
:104970005868114628F0BEFE8146DFF89C81D8F8C1
:1049800008301B696BB106A940469847071E0BDA31
:1049900062493A4628462AF0EAFDE2E74FF001096B
:1049A000EBE76FF05707F3E74FF4806030F08EFDD0
:1049B000064630B95A4928462AF0D9FD6FF00B0750
:1049C000CFE70121404601F0DBFB071E80F29C800F
:1049D00054493A4628462AF0CAFD304630F06FFD69
:1049E000BFE7042105A805F061FEDDE9062305986F
:1049F0000021FCF747FB114609AA40462EF0F8F8C3
:104A0000071E09DA48493A4628462AF0B0FD002137
:104A1000414801F0B5FBE0E75246099B434928466F
:104A20002AF089FDDDE90912D8F808309B6833B116
:104A300040469847071E05DA3D493A46E4E76FF0DD
:104A40005707F9E7042105A805F030FE059C012C65
:104A500006F2FF3338BF012406F1FF3B02935A46AA
:104A6000234602F8013F029983EA433383EA534322
:104A7000042B98BF83F001038A42F2D10999D8F838
:104A8000083003935F6832464FF480634046B8476E
:104A9000071E02DA27493A46B6E74FF48062002142
:104AA000304630F03FFD0999039B32461F6840466F
:104AB0004FF48063B847071E02DA1F493A46A3E75E
:104AC0001BF8012FE3B29A4208D000921B49002242
:104AD00028462AF04CFD6FF0150798E7029B84EA00
:104AE000443484EA5444042C98BF84F001049B4568
:104AF000E6D10AF1010AD1457FF473AF10494A4665
:104B000028462AF018FD82E74FF0000AF3E700BFBD
:104B1000E2370020629C0300705D03007D9D03006E
:104B20009C9D0300809C0300B69D0300D49D030060
:104B3000FB9D0300099D03005D9D0300179E03007C
:104B40004F9E0300F0B51346274A127885B00546FC
:104B50003AB926492AF00BFD4FF0FF34204605B044
:104B6000F0BD012905D822492AF001FD6FF0150496
:104B7000F4E70022114658681E4F28F0BBFD0121C2
:104B80000646384601F0FCFA041E05DA1A492246A8
:104B900028462AF0ECFCE1E701AA314638462EF01F
:104BA00027F8041E09DA1549224628462AF0DFFCB8
:104BB0000021104801F0E4FAD0E7029ABB689B6834
:104BC0003BB1314638469847041E05DA0C49224667
:104BD000EBE76FF05704F9E7029A0A493346284693
:104BE0002AF0A9FCE4E700BFE2370020629C030042
:104BF000819E0300705D0300809C03009A9E030069
:104C0000FB9D0300BE9E030008B5094830F0A2F9E1
:104C100050B10748002101F0B3FA002803DB054B2F
:104C200001221A70002008BD6FF01200FBE700BFE0
:104C3000705D0300E237002038B513461F4A127832
:104C4000054632B91E492AF092FC4FF0FF34204647
:104C500038BD012905D81B492AF089FC6FF01504DD
:104C6000F5E700221146586828F044FDC1B26429D6
:104C700002D915492846EFE71448154A836893423C
:104C800002D2144A934209D213491448144A3523D4
:104C90002AF0CFF8124835212AF0C2F81B6898474D
:104CA000041E05DA0F49224628462AF060FCCEE7AA
:104CB0000D4928462AF03FFC0024C8E7E3370020CE
:104CC0006A9F0300899F03009C9F0300505E0300BE
:104CD0009C6103009C610300FD9F030022A103006F
:104CE000C99F03003FA1030060A1030008B5064867
:104CF00030F030F920B1054B01221A70002008BDB8
:104D00006FF01200FBE700BF505E0300E3370020A6
:104D100030B40B46044606488268156825B1214622
:104D2000AC46002230BC60476FF0570030BC704783
:104D3000185E030008B5064830F00CF920B1054BA9
:104D400001221A70002008BD6FF01200FBE700BFBF
:104D5000185E0300E437002008B5064830F0FAF882
:104D600020B1054B01221A70002008BD6FF012001F
:104D7000FBE700BF345E0300E537002010B40346B4
:104D80000A46034881680C691946234610BC184737
:104D9000C45D03002DE9F04F4F4B1B788DB00446E6
:104DA00043B94E492AF0E3FB4FF0FF3840460DB0BF
:104DB000BDE8F08F4B230025CDE90435484EB76898
:104DC000D7F80080B8F1000F00F0828004AB2A46CB
:104DD0000B213046C047B0F1000805DA4149424690
:104DE00020462AF0C4FBE1E74021FB6830469847A3
:104DF000021E06DA3C4920462AF0B9FB4FF00008B3
:104E0000D4E706A90820FFF7B9FF021E01DA3749E7
:104E1000F1E708A90920FFF7B1FF021E01DA3449C2
:104E2000E9E70AA90A20FFF7A9FF021E01DA3149C2
:104E3000E1E70798FBF7B6FA2F4B0022FBF746FC99
:104E4000804606988946FBF7ADFA02460B46404677
:104E50004946FBF75BF982460B988B46FBF7A2FAB3
:104E6000254B0022FBF732FC80460A988946FBF767
:104E700099FA02460B4640464946FBF747F9CDE909
:104E800002010998FBF78EFA1B4B0022FBF71EFC70
:104E9000804608988946FBF785FA02460B4640464D
:104EA0004946FBF733F95246CDE900015B46134909
:104EB00020462AF040FBCDE904553F6847B104ABDA
:104EC0002A460B213046B847B0F1000896DA85E74C
:104ED0006FF0570882E700BFE637002001A3030008
:104EE000C45D030027A30300B8A103004EA3030081
:104EF00078A30300A2A3030000005940CCA3030041
:104F000008B5064830F026F820B1054B01221A708A
:104F1000002008BD6FF01200FBE700BFC45D030076
:104F2000E63700200146024882685268104700BFF9
:104F3000905C03002DE9F04F1346694A127889B05E
:104F4000054642B967492AF012FB4FF0FF3420466C
:104F500009B0BDE8F08F012912D958680A22002152
:104F600028F0C8FB8046604F0121384601F008F95F
:104F7000041E08DA5D49224628462AF0F8FAE6E7D8
:104F80004FF00108EFE7002105AA38462DF030FE6A
:104F9000041E05DA5649224628462AF0E8FA80E03F
:104FA000069B4FF4FA425E1E02FB0866B6FBF3F660
:104FB0005E43BB689B68002B00F08E803246002168
:104FC00038469847041E02DA4A492246E4E7DFF8E9
:104FD00028B14A49DBF8083058461B689847041E38
:104FE00002DA47492246D7E70120FFF79BFF041E5C
:104FF0000EDB4FF0000A08EB8808D146C2450AD103
:105000000020FFF78FFF041E30DA3E492246C3E737
:105010003D492246C0E7DBF808304FF47A7200922F
:105020009C6803AA04AB00215846A047041E05DA79
:105030000020FFF777FF35492246ADE7DDE903237E
:10504000B96838464C684946A047041E05DA002076
:10505000FFF768FF2E4922469EE7049B03992D48DF
:1050600099440AF1010A23F08FFDC7E72A49DFF8C6
:1050700078A0DFF8A8B028462AF05DFA4FEA59096F
:105080004FF00008C14511D1254928462AF053FAAE
:10509000BB689B6803B31448324600219847041E3E
:1050A00092DB0021104801F06BF850E7BB6804AABE
:1050B0001C684FEA480102235046A047041E02DA4A
:1050C0001849224668E7BDF91020594628462AF0BB
:1050D00032FA08F10108D5E76FF0570474E700BF12
:1050E000E73700200AA40300705D0300809C0300E2
:1050F0002DA40300FB9D0300905C0300200400200E
:1051000051A40300A1A403006FA403008AA4030018
:10511000099D0300080A0020BBA4030067B3030035
:10512000BEA403005D9D030008B507482FF012FFE1
:1051300030B1064B00205861054B01221A7008BDA2
:105140006FF01200FBE700BF905C0300200400201A
:10515000E737002008B508482FF0FCFE48B10648A4
:1051600001F0B0FA002803DB044B01221A70002082
:1051700008BD6FF01200FBE7A85D0300E8370020D0
:1051800030B585B0022304468DF800008DF801107B
:10519000CDF804D002938DF80C300F489DF80C30F8
:1051A000826843F002038DF80C3095681A230122BF
:1051B00001A9A84768B1094A09490A483F2329F0CB
:1051C00038FE0948214629F034FE04483F2129F0E1
:1051D00027FE05B030BD00BF045C03009EA50300A0
:1051E000BDA5030022A10300C6A5030070B57E4B38
:1051F0001B7888B006463BB97C492AF0B8F94FF0D5
:10520000FF34204608B070BD4FF080430022C3F841
:105210000021D3F8002101221A60D3F80021002ACE
:10522000FBD00024C3F800417149D3F80031714A22
:1052300071484C764FF00053CB61062381F8203043
:1052400020F0E0F96D4B9842054609D06C496D4A53
:105250006D48A12329F0EDFDA1216A4829F0E0FD68
:105260006A496B4B4B606448102322460B8120F047
:10527000A1FAA84207D06249624A6348A62329F0EE
:10528000D8FDA621E9E780211D20FFF779FF0A203C
:1052900029F090FC0121FD20FFF772FF0821232057
:1052A000FFF76EFF80219020FFF76AFF0421242082
:1052B000FFF766FFDD212520FFF762FF3121262061
:1052C000FFF75EFFC0212720FFF75AFF8B21F02058
:1052D000FFF756FF0321F220FFF752FF2146F0208F
:1052E000FFF74EFF282029F065FC0DF1070302931C
:1052F0000DF106020123CDE90523032503930723BE
:105300008DF807508DF810408DF81C3041489DF8FD
:105310001C30826843F002038DF81C3094681A2315
:10532000022202A9A047044658B1364A3A493648F3
:10533000472329F07EFD2946384829F07AFD472188
:105340008BE79DF80630072B0AD035492D4A2E48A9
:10535000732329F06EFD334829F06BFD73217CE740
:1053600002219220FFF70CFF05212220FFF708FF02
:1053700021462820FFF704FF80212920FFF700FFA6
:1053800032212120FFF7FCFEBA212A20FFF7F8FE88
:1053900060214620FFF7F4FE80216A20FFF7F0FE2F
:1053A00008214C20FFF7ECFE98216F20FFF7E8FE64
:1053B0003A214A20FFF7E4FE80216D20FFF7E0FE4E
:1053C00040F6B83029F0F6FB2146FD20FFF7D8FE65
:1053D000094820F0B9FA084820F0E2FA12493046AC
:1053E0002AF0A9F80DE700BFE9370020F2A5030075
:1053F00054040020AFEB0200006C03000000AD0B72
:1054000012A603009EA5030022A10300F8180020A5
:1054100000090020045C0300BDA5030026A60300CC
:1054200053A6030076A603008EA6030008B50A481B
:105430002FF090FD60B100221146252004F0A8F95C
:10544000252004F075F9054B01221A70002008BDD3
:105450006FF01200FBE700BF045C0300E937002097
:105460002DE9F04796B000240546302221460AA8CF
:105470000494059430F056F84F4B1B780DF110084A
:105480004BB94E4928462AF072F84FF0FF342046B7
:1054900016B0BDE8F0874A4EB36821461B68304617
:1054A0009847041E05DA4749224628462AF05FF845
:1054B000EDE7454CD4E90123DB6A53B12046984718
:1054C000049040B9414928462AF051F86FF085040C
:1054D000DDE75068F4E7A7683B483B6A9847431C00
:1054E000024604D03A4928462AF041F8EEE7364809
:1054F0003B689847041E02DA36492246D5E74FF446
:105500000043049A3449CDF82880284605932AF0B0
:1055100012F84FF0000ADFF8B090D046BB6803A93C
:1055200048469847041E02DA2C492246BDE7039BF1
:10553000A3EB0A0313EB0A0348F10008CDE9063890
:105540009A462FF0BCFECDE9080106A90AA829F069
:1055500005FD041E02DA22492246A6E705D10021F4
:105560004FF4A02026F0F0F9D8E70AA829F024FD8E
:105570000446FAF729FF804620468946FCF700F9E1
:105580001849009042464B46284629F0D4FF0E4861
:105590007B689847041E02DA1349224685E7B36800
:1055A00007485B6800219847041E02DA0F4922462B
:1055B0007BE700246BE700BFEA370020BCA60300AE
:1055C000085B0300D9A60300B05B0300F8A6030044
:1055D00016A7030038A7030054A7030085A70300FC
:1055E000A5A70300BDA70300D3A70300EEA70300F0
:1055F00008B508482FF0AEFC10B96FF0120008BDD6
:1056000005482FF0A7FC0028F7D0044B01221A70A0
:105610000020F4E7085B0300B05B0300EA370020DA
:1056200070B50C46002934D002680B1F9B1AD908AC
:1056300023F0070313445D88E8070DD4154A164983
:105640001648AF2329F0F5FB2146154829F0F1FB58
:10565000AF21104829F0E4FB104629F0BBFA0844BA
:1056600032F83060801B81420BD00A4A0D490B484A
:10567000B72329F0DEFB21460B4829F0DAFBB721DE
:10568000E7E725F001055D80BDE87040104629F090
:105690005EBB70BD2EA8030051A8030022A1030029
:1056A00062A803009AA80300C0A803002DE9F843EC
:1056B0004B1E0B4006680F46144611D0C1F100097D
:1056C00009EA01094A46042A03F1FF3128BF0422EE
:1056D00019420CD11F46E4B900252846BDE8F883DD
:1056E000042913D8BDE8F843114629F061BB2D49C0
:1056F0002D4A2E484FF4A27329F09BFB2C4829F029
:1057000098FB29484FF4A27129F08AFB994604229C
:10571000E1E7B368B3EBD40FDED904F10B013944F0
:10572000891AC908304629F0ABFA80460028D3D040
:1057300009F1040505EBC0057B1E35441D44B5FB8E
:10574000F7F57D43A5EB09052C442B1F07349B1B64
:1057500024F00704A41BB0EBD30F4FEAD3074FEAA2
:10576000E40408D201463A46304629F0D6FA4146CA
:10577000304629F034FA3946304629F02BFA3844BD
:10578000844207D23046224629F0C7FA21463046E5
:1057900029F025FA06EBC706738843F001037380EE
:1057A0009BE700BFFCA803002EA8030022A1030072
:1057B00017A90300B2F5802F2DE9F0410ED33C4923
:1057C0003C4A3D4840F2EB1329F033FB3B4829F0BB
:1057D00030FB40F2EB11374829F022FB042A0CD8A9
:1057E0003749344A34484FF4F97329F022FB3548DD
:1057F00029F01FFB4FF4F971EDE7043ACD1D8E1827
:1058000025F0070526F00706761B172E4FEAD60768
:105810000CD82D49274A284840F2FB1329F009FBF0
:10582000284829F006FB40F2FB11D4E7B7FA87F4C9
:10583000C4F12002C4F12404A4000734E408631C6A
:105840004FF00008BB420560AF60C5F80C800CD972
:105850001E49184A18484FF4047329F0EAFA194807
:1058600029F0E7FA4FF40471B5E74146920005F1DB
:1058700010002FF057FE630043F001036B8005EB2F
:10588000C4023B1B5900A5F800805180AA1925F8D5
:105890003440A2F80280AB5305EBC70321465A8877
:1058A00042F001025A802846BDE8F04129F097B93C
:1058B00034A903002EA8030022A103004AA9030073
:1058C00061A9030082A903009BA90300C4A90300E6
:1058D000014B1B68184700BF78040020014B18607B
:1058E000704700BF7804002030B585B004460D46EF
:1058F0001022002168462FF015FE02238DF8023099
:105900002A46044B01932146684627F0F5FF05B06F
:1059100030BD00BFD158000080B505460E46174681
:10592000984626F09BF8034630F044F8DFF81890CC
:10593000044649F80030424630463946A84754F8F4
:10594000090003F09BFE00BF080000002DE9F84F9E
:1059500004460846A38B1907154612D4022803F003
:10596000070165D1204629F08DFB88B10138042854
:1059700000F23781DFE810F05C0035018200D400CE
:10598000040101280CBF43F0100143F02001A18362
:105990001434204626F026FB002840F09D819A49C9
:1059A0009A4A9B4840F2311329F043FA2146B1E06C
:1059B00003F00702501F01281ED80020062A27687E
:1059C000C4E9000014D13A4603E0E08B0130E083E3
:1059D0001268002AF9D123F0070343F00202A283E0
:1059E000204629F04FFB90B342F02002A2832EE024
:1059F00023F007039AB2F2E7042A33D123F0070316
:105A00009AB2A283204629F03DFB10B142F0200259
:105A1000A283A38B03F00709894540F0EC80A18B9A
:105A2000CA0640F1508121F01003A38301F0070161
:105A3000D4F81880A38BB8F1000FB9DA00222768D8
:105A400023F00703C4E9002243F00103A383A38BDF
:105A500003F00709894540F0CF80002FDFD00026F2
:105A6000B24644E06B496C4A694840F21B1329F086
:105A7000E0F940F21B11684829F0D2F949B16749B1
:105A8000654A63484FF4AB7329F0D3F94FF4AB7117
:105A9000F1E723684BB962495F4A5D4840F257130A
:105AA00029F0C7F940F25711E5E723691E684EB99E
:105AB0005C49594A56484FF4AD7329F0BAF94FF48E
:105AC000AD71D8E7A38B23F0070343F006039BB225
:105AD000A3830F4688464FF00609A268002A40F0CB
