:10000000001000203B0F0000A9090000A909000012
:1000100000000000000000000000000000000000E0
:10002000000000000000000000000000A90900001E
:100030000000000000000000A9090000A90900005C
:10004000A9090000A9090000A9090000A9090000E8
:10005000A9090000A9090000A9090000A9090000D8
:10006000A9090000510B0000A9090000A90900001E
:10007000A9090000A9090000A9090000A9090000B8
:10008000A9090000A9090000A90900007047034B55
:100090005A68824201DD9B6819547047180100209C
:1000A0000C4B10B51A7B002A04D15A681969891AB9
:1000B000032902DC01221A7310BD9968040A8854CE
:1000C00089184C700432040C000E8C70C8705A6091
:1000D000F2E7C04618010020084B10B51A7B002A31
:1000E00004D15A681969891A002902DC01221A739D
:1000F00010BD9968541C5C608854F9E71801002011
:1001000010B5FF20FFF7E8FF10BD10B5FFF7F8FFAF
:1001100010BD10B50020FFF7DFFF0020FFF7DCFF68
:1001200010BD10B50020FFF7D7FF10BD0E4B30B546
:100130001A7B002A04D15A699969891A032903DCB8
:10014000012200201A7330BDDD69A918C8788C78A7
:100150000006240420434978AC5C090220430432A1
:1001600008435A61EFE7C0461801002010B5FFF7B9
:10017000DDFF0D4B01000D4C98420BDD0023236089
:100180000B4B23620B4B63620B4B0020A362FFF708
:10019000A3FF10BD094801F015FF094B2060236241
:1001A000084B6362084BF0E7009F24001801002011
:1001B00001000020650000203D000020207E750029
:1001C00013000020C90000208D0000200B4B10B54B
:1001D0001A7B002A04D15A699969891A012903DC1A
:1001E000012200201A7310BDDC69A1184978A05CB7
:1001F0000902023208435A61F5E7C046180100209F
:10020000084B1A7B002A04D15A699969891A002976
:1002100003DC012200201A737047D969501C586111
:10022000885CF9E71801002010B5FFF7E9FF032308
:10023000054A034001334007D362C00F30321070CB
:100240000020FFF749FF10BD18010020F8B5FFF7A7
:10025000D7FF08260400002C03D12000FFF73CFF45
:10026000F8BD2500082C00DD3500044B641B5F6AD7
:10027000FFF7C6FF2900B847EDE7C0461801002088
:1002800010B5FFF7BDFF064C6063FFF79FFFA0634B
:10029000FFF79CFFE0630020FFF71EFF10BDC04684
:1002A0001801002010B5FFF7ABFFFFF7A9FF0020F2
:1002B000FFF712FF10BD10B5FFF7A2FF0400F028F2
:1002C00006D10120FFF708FF0120FFF705FF10BD51
:1002D000FE2804D10120FFF7FFFE0220F5E7FF28EA
:1002E00007D10220FFF7F8FE4020FFF7F5FE0020BF
:1002F000EBE70020FFF7F0FE012C17D0022C17D0FF
:10030000032C17D00323042CE1D10D4ADB00D318B2
:100310005C68207800280FD1FFF7DEFE094B012032
:1003200059680239C9B2FFF7B2FED0E70023ECE703
:100330000123EAE70223E8E70134FFF7CDFEE8E70F
:100340009C210000180100200300022210401342EB
:1003500006D0044A0020126C012A01D11340D8B201
:100360007047C04618010020030C5840030A58404B
:10037000030943400F20034002481841012318405D
:100380007047C04696690000F8B5FA270400094E88
:10039000BF00002C00D1F8BD074B25009C4200DDBA
:1003A0001D0030003900684301F00CFE0138FDD11A
:1003B000641BEEE7283C0000A086010070B5FFF743
:1003C0001FFF0400FFF71CFF0500FFF7AFFE03004F
:1003D0000120054205D0C0220821D205044224D0C4
:1003E00091610220054205D0C0220421D2050442B9
:1003F0001DD091612A0605D5C0220021D205200614
:1004000017D59161FA2080005843FFF7BDFFC02245
:10041000D205106A0007C30F106A126A4007C00FA6
:1004200040001843FFF758FE70BD5161D9E7516194
:10043000E0E75161E6E710B5FFF7C8FEFFF7A4FF5C
:100440000020FFF749FE10BDC0230022DB055A60E3
:100450001A0002213F3210780143042011701178F4
:10046000814311705A6A5A627047C0230422DB0527
:100470009A6042331978023A0A431A70704770B58D
:10048000FFF7BEFE114C00281BD1FFF7EEFFC02383
:1004900008200422DB050E4D9A6198602978023A03
:1004A00011432970002198610A48996005782A4310
:1004B0000270996101232364206CC0B2FFF70CFE27
:1004C00070BD002323640128F6D1DEE71801002067
:1004D000430000603F000060C022D20504231100E9
:1004E000022010B5423153600C7820430870087820
:1004F00098430870516A0B43536210BDF0B5234D09
:1005000085B02B6C012B04D0FF20FFF7E5FD05B073
:10051000F0BD0020FFF7E0FDFFF772FE002303901F
:100520000193019A039B934202DCFFF79EFFEEE7E3
:10053000FFF766FE3F243F230440184200D14024C9
:10054000030611D5FFF7C8FF08272600082C00DD99
:100550003E00AB6A30009847C0B2FFF7BDFDA41B58
:10056000F3D1019B0133DBE7FFF77FFF082726006C
:10057000082C00DD3E006B6AA41B0293FFF740FECF
:100580003100029B9847002CF1D1EAE718010020C6
:10059000F7B50F273A4C0740636A050038000E0094
:1005A0000193FFF7E1FE7F0040010743812008210E
:1005B0003843019B9847FFF78FFFE06A236A98470B
:1005C000A36A0320984702230700012834D11D4263
:1005D00022D0A36A202098470500FFF7C5FEA36A32
:1005E000019038009847019B834200D00737002EC6
:1005F00000D03560E06A236A9847FFF736FFC023D2
:100600000422DB055A61606B236A9847C0230422E9
:10061000DB0538009A61FEBDE06A236A9847FFF760
:1006200024FF20213068636A98473068FFF79CFEFA
:10063000656A3900A847E2E7811E226A99431BD107
:10064000210030310978002903D01D4201D021203A
:100650009047236AE06A9847FFF707FF230030338B
:100660001B78002BD2D0AB07D0D4C0230422DB05EB
:100670005A612120236AC8E7E06A21309047C5E724
:100680001801002007B5FFF7BBFD084BFF201B6CCE
:10069000012B07D1FFF74AFD01A901900020FFF7C8
:1006A00077FF0020FFF718FD07BDC04618010020A6
:1006B000F8B5002406000F0020000A4DAB6BA342E2
:1006C00000DCF8BD2B6C012B03D139003000FFF7A3
:1006D0005FFF0228F5D1044B1B78002BF1D10134C8
:1006E000ECE7C046180100205C010020F0B50020B6
:1006F00087B0FFF7F1FC0020FFF7EEFC0020FFF7CA
:10070000EBFCFFF77DFD2C4B1B6C012B39D1FFF768
:100710005DFD0190002834D0FFF772FD0223040034
:10072000060007001C40184232D0FFF70DFE030000
:1007300000275A1E93413C00019A0290D31803935C
:10074000300005A9FFF7B4FF050001280CD1029B7A
:10075000002B01D0002F03D00598FFF7A1FC013436
:10076000039B0137BB420ED1E1B201202412FFF7F7
:100770008EFC0220E1B2FFF78AFC0320E9B2FFF70A
:1007800086FC07B0F0BD019BBB42D9D10E26D7E74E
:10079000FFF7CCFC05A905903800FFF789FF05009D
:1007A0000128E1D1019B0134A342F1DC00210E209C
:1007B000FFF77EFF0500D7E718010020F0B5002005
:1007C00089B0FFF789FC0020FFF786FCFFF718FDD2
:1007D000634B1B6C0293012B6BD10026FFF710FDBE
:1007E0003700340004900090049B009A9B1A0593F4
:1007F000002A00D07DE0012C52D1002F00D1A6E0CC
:1008000007A90E20FFF754FF04000798FFF748FCE4
:1008100046E0022602232E401D4258D02F000E3300
:100820001F401D4230D0FFF781FC03902800FFF7E6
:100830008BFD002803D000212800FFF739FF002797
:10084000474EF36B9F420CDB454B079A9B6C134062
:10085000039A9A4201D010231C43012C20D1002678
:100860006FE0280007A9FFF723FF04000128EBD160
:10087000079AB36C1340039A9A42E5D04436337812
:10088000002BE1D10137DBE72800FFF75DFD061EF5
:1008900011D039002800FFF70BFF040001284DD0CC
:1008A0006B460120197DFFF7F2FB0220E1B2FFF752
:1008B000EEFB09B0F0BD280007A9FFF7F9FE040020
:1008C0000128EDD10798FFF7EBFB019639E0FFF720
:1008D0002DFC202307901D4202D0214B986430E06C
:1008E000280007A9FFF7E4FE04000128D8D106007C
:1008F00027E01B4B1A0044321278002A00D07AE716
:100900001B7B0193002B00D075E7FFF779FC0500F6
:10091000002F00D17DE7FFF717FD07A9060028008B
:10092000002E00D10E20FFF7C3FE04000128B7D12E
:100930000798FFF7B5FB002E00D16AE701230026D8
:100940000193009B019F013B029C00934CE7002E0A
:10095000A6D039000E20FFF7ABFE0400A0E7C0468A
:1009600018010020C023DB0508221900022010B561
:1009700043315A600C782043042408700878A0435F
:100980000870596A0A435A6210BD10B5FFF7EAFFB2
:10099000FFF7A2FDFFF758FD0020024B1864FFF798
:1009A0009BFB10BD18010020FEE7144A10B5110092
:1009B0005031D36C088998421ED0100001245A305F
:1009C00004707C200B818343D3640D4B1A00B0323A
:1009D00011600A21B4331A68920B92030A431A6019
:1009E0001A6808490A401A60A62280230649FF3285
:1009F000885C5B4203438B5410BDC0461801002045
:100A000068080020FF3F00F000500041064B002125
:100A10001A0010B55A32117050331A897C318A434A
:100A20001A81FFF7C2FF10BD18010020074A536961
:100A30009B0B9B0353610222054B1A729979823AF0
:100A40000A439A711A7A9207FCD570476808002009
:100A5000FF5000411C4AF8B5D36D00278B4203DDDF
:100A60003F370F407B425F4102239C4660320029A2
:100A700004D1002F01D0FFF7D9FFF8BD0C004029A9
:100A800000DD40240023A3421ADB104DA6042A6196
:100A90006B69B60C9B0B9B0333436B616B690C4E0C
:100AA00033406B6165460B4B1D7280259E796D420C
:100AB00035439D711D7AAD07FCD5091B0019D6E79A
:100AC000C55C9D540133DEE7180100206808002052
:100AD000FF3F00F0FF5000410300832110B55A781A
:100AE000007812020243890100208A4210D15A790B
:100AF000197912020A43072A0AD1D9799A79090287
:100B00001143AA2900DDAA210248FFF7A3FF012013
:100B100010BDC04658230000030010B55A78007875
:100B200009491202024300208A420BD1D9799A79ED
:100B3000090211431C2900DD1C2104482030FFF765
:100B400089FF012010BDC046810600009C210000E5
:100B5000F0B525490B7EDDB25B0720D523484C8BD1
:100B60000E8D0268224B0132A4B2B6B21A4003D5F0
:100B7000204B013A1A4301326307DB0F4C839B0180
:100B8000A70701D510273B43E40701D520242343C1
:100B9000446894420DD10122174B0133DA770123C7
:100BA0001D4205D0154A5468106884420AD10B755D
:100BB000F0BD04681B02334304349BB2640003534A
:100BC0000260ECE7536804335B009B5A9BB20B85D1
:100BD0005368074901330B4003D50649013B0B43DA
:100BE00001335360E4E7C04600080042600600207D
:100BF000FF00008000FFFFFF980100205804002044
:100C0000F0B5C02280240221454BD20564009460D7
:100C10001D78444E29431970012154611C7885B018
:100C20000C431C700F2403233578A5432B433370EA
:100C3000202393613C4A1C3B15781D4315701578A1
:100C40000D431570394D2A781440302222432A7002
:100C5000374A146A23431362364C374B374A5A805B
:100C600021602268D207D30F002AFAD1344A1360D8
:100C70005360344A13605360334A0132D377827928
:100C80001600052A04D0062A02D0072A00D01E002A
:100C90004579002D02D0022D3ED0012580239B01F5
:100CA0000193037907785A1E93419B01039343787C
:100CB0002D061B023B4387783F043B43C7782348FC
:100CC0003F061F43390101F0F3F8214B02901D4309
:100CD000039B25601E43019B39001E43C0239B02DA
:100CE0001E436660194801F0E3F8029B1B01C01A1D
:100CF000029B4008DB04DB0C40031843022380B254
:100D0000A08122681343236004238022A375114B22
:100D100092001A6005B0F0BD01250023C0E7C0466F
:100D20004800006034000060450000603200006050
:100D30000004004000080042000C00400E4000008B
:100D4000580400206006002098010020006CDC029E
:100D50000420114000E100E00A0010B5072907D186
:100D6000044C0100200001F01BF82000FFF748FFB1
:100D700010BDC046080100200122014BDA71704706
:100D800008010020014B58627047C04698010020BE
:100D9000014B98627047C046980100200122014B28
:100DA0001A727047080100200022024BDA621863B1
:100DB0007047C046980100200122014BDA7170474C
:100DC0000801002030B500241348144B416B1C72FD
:100DD0000B000200403B5D426B4138321370104BF8
:100DE00005001A003C35D0321560D4331A688904E6
:100DF000920B890C92030A431A601A6809490A4047
:100E00001A60C62280230849FF328D5C5B422B4367
:100E10008B54446330BDC046980100200801002077
:100E200068080020FF3F00F000500041F8B543780B
:100E300002781B021343344A934233D007DC334A0F
:100E400093421FD0324A934221D00020F8BD314A4C
:100E50009342FAD1C37882781B0213432E492F4A5A
:100E60003FD1002400250C614D61117801330B4303
:100E700013700F222A490B7893431A00032313435C
:100E80000B7025E0274B284ADA670120DEE7C1799D
:100E9000837909021943072900DD07212348FFF759
:100EA000D9FDF2E700248278C3781E48012100258D
:100EB000446300241B021343174A0B409460D5601F
:100EC000146155611370002B05D01848FFF798FE88
:100ED000FFF7ACFDD9E7164B19601A68D207FCD4AE
:100EE000F6E7144800240025834206D10C614D61C9
:100EF000012113788B431370EAE71C008E69CF69D8
:100F00000025A4197D41F1E72122000021200000E5
:100F1000A1210000212300001802002048000060E9
:100F20003400006098010020590D000008010020E5
:100F300000080042FFFF0000FEE710B5094A0A4B17
:100F40000A498B4209D30021094B0A4A934207D32D
:100F5000094A0A4B9A6000F013F801CA01C3F0E78E
:100F600002C3F3E7A42400000000002014010020C5
:100F700018010020680900200000000000ED00E0DA
:100F80000222EC4BF0B55A60C2220024EA4BEB4837
:100F9000D200EB498BB09A6000AF026809689C846C
:100FA000386110208905920E890DDC680442FCD05E
:100FB000E44892020A43D8629A62932252009A84C9
:100FC000173AFF3AD9681142FCD0DF4BDF4A5A602A
:100FD0007B617B695B785BB2002BFADB0025012328
:100FE000DB4E0021B56070600020DA4C3360E362B4
:100FF0002300D94A30339061D16122001D7007234C
:101000004432157064222360D44BA2632362D44B14
:10101000E2636362D34B2564A362A5646563FFF753
:10102000A1FCFFF759FAFFF70FFA2A00CE4B3E60FA
:1010300001351A605A600833102DF9D101230621B9
:10104000CA48013D02781A430270C94A1678AE4375
:1010500031431170C7490E781E430E7016782E402A
:101060005135354315702022C34DEE693243EA6194
:101070007D69C24A6A80C24A15782B431370F860B2
:1010800079607A617B699B78DB07DA0F002BF9D1F5
:101090001F253B6979691B68098D580BB94E28409B
:1010A000314080010843796908857969980C098D78
:1010B0002840A943014378699B0101857969B248B9
:1010C000098D5B0F01401B030B43796980200B8561
:1010D000012311005B42E365AC4B4000995401329F
:1010E0008242FBD17A69786953627F227B69A84D7D
:1010F0001B7813407A6913707B691A7804231343B1
:101100007A6913700C227B691B899343043A134359
:10111000038101207B691B898343786903817B6993
:101120001A831023AA7A1343AB727B691A780223BD
:1011300013437A691370974A697051709022964BE5
:1011400052009954203299542032995420329954A3
:101150002032995420329954834A904BE16493622F
:101160008F4B90481363904BD363904B2365802340
:101170009B02636523005A34503319812170FFF7B5
:101180003FFD794A8A4B93608A4B536100228A4B18
:101190001B68BB61894B1B68FB61894B1B683B6209
:1011A000884B1B683D617B62874B5901CB18182126
:1011B0007918895C01324B40102AF6D100220F25A4
:1011C0006548824C20301E009100CE4031002940FD
:1011D000615C11540132082AF5D100225E4B5E4950
:1011E0000933DA77FA22002380200A634B63C02296
:1011F000FB68D2054004906019780223FC6819430B
:1012000021705061802079688004906009787C6842
:1012100019432170906180206D49400550600C7821
:1012200023430B7004230C789C430C70546A0443D2
:10123000546290610A7813430B703B68464D1B68FB
:10124000DB0307D5A869E9690122002312184B4185
:10125000AA61EB61AA69EB69696B994227D802D14F
:10126000296B914223D80021FA2012184B412A639E
:101270006B632B00383380221978C0239204DB057E
:10128000002900D1FBE0DA612B00002238331A700C
:101290002B00393380221978C0235204DB05002942
:1012A00000D1EEE0DA612B00002239331A707B693D
:1012B0009B8B1B0700D4A7E008237A697969938385
:1012C0007A697833937200233A69C0205370902270
:1012D00052008B54796920328B54796920328B54B7
:1012E000796920328B54796920328B5479692032A4
:1012F0008B54796920328B543A69113353703B69AE
:1013000034499A79402313433A69800593713B69C4
:101310005A7980235B4213433A6953711B4B5A69D4
:101320000A4002435A612A003C321A605A6811404E
:10133000084351E000400041000800402460800064
:101340002860800080BB0000000C004000072100E6
:1013500010E000E018010020180200201300002017
:10136000C90000208D000020D80300205800006034
:101370003C0000605900006000040040064000008E
:10138000005000413FF8FFFFFF8FFFFF680800207B
:10139000FF5000411F510041205000410D0A000044
:1013A0009D0D000008010020A90D00000120000093
:1013B000B90D0000910D00000CA0800040A080003D
:1013C00044A0800048A08000051500000224000011
:1013D0005C000060FFFFFF8F58605A68AA49114007
:1013E000802252030A435A605A68920B92035A6051
:1013F0003B699A7A102313433A69937201223B693D
:101400009B7A13433A6993723B691B7ADB06DE0FC2
:10141000002B00DBBCE22B1DDC8F9C4BDC659C4B66
:101420005B689B049B0C082B22D1AB8F994A93429B
:1014300000D15DE238DC0222FF32934200D157E254
:10144000013293422ADA822B00D116E220DC803B63
:101450000024012B00D80BE28F4E14362800A30085
:101460009B593C309847002856D10134032CF5D1C4
:101470003B699A79202313433A6993715AE09A6140
:1014800002E72978002901D09A610CE75A610AE73E
:10149000802252009342EBD00024DDE7934200D13A
:1014A00033E2C0229200F5E7D022D200934227D047
:1014B00011DC7A4A934200D1FEE1FF32FF329342BF
:1014C000EAD1FFF7B3FA8023EA8F5B4213437A69CC
:1014D000DBB2937220E088221201934200D1C3E173
:1014E00080329342D8D12C00EB8F7C342370FFF7ED
:1014F0009DFA2378002B0FD0822369499C463DE159
:10150000EB8F1A0A012A71D12100122C00DD122161
:1015100064483C30FFF79EFA5D4A53689B0B9B037F
:1015200053603B695A79402313433A69537101224E
:101530003B691A720122554B5242DA6510233A690F
:10154000137201247B69584D1E8CB6B2002E38D020
:10155000564B6201D3187B60554BD018037AD9B231
:10156000F9600121A1408E4301210B4212D0514963
:10157000531859799C4640231943634659710123F6
:101580000372434B9B185868EB688004800C002B57
:1015900000D098470221FB680B420ED0454A6301F8
:1015A0009B1880221879524202431A717B68FF33DC
:1015B0001972AB68002B00D0984701340835082C0D
:1015C000C4D13D4B3D4EDB79002B00D0FDE13C4BBF
:1015D000F16A3933326B1E780023FB60002A00D099
:1015E000BEE2FB68002B00D0FCE20FE3022A05D12B
:1015F0002100822C00DD822129488BE7032A38D183
:10160000DBB2002B06D12100042C00DD042125488B
:1016100050307FE7062B00D92AE76A467A60214AD4
:101620009B00D3185E6D300000F00EFC030069468D
:1016300001335B00DA1DD208D2008A1A9546F860A1
:1016400003226846427000220370811CFD689542A7
:1016500008DC21009C4200DD1900FFF7FBF97B68E4
:101660009D4659E7B55C01320D7000254D70023181
:10167000ECE70F2A00D0FBE62100212C00DD212120
:101680000848703046E7C046FF3F00F018010020D0
:1016900068080020010300001C2200000203000073
:1016A0003C2200009C210000D80300200050004193
:1016B000FF50004100510041080100209801002026
:1016C000180200204D78052D58D103237F26C878B5
:1016D0004A7918400B7912021A438C78920500233C
:1016E0002640920D082A15D90133102A12D9013348
:1016F000202A0FDD0133402A0CDD0133802A09DD69
:101700002B00FB35AA4205DD0135FF350133AA4226
:1017100000DD01330125002806D06D19012803D012
:10172000851E6A1E9541033532000720083264B2D7
:1017300005400340760178695201002C76DA845C1A
:1017400070202D018443786925438554D2481B07B6
:1017500035180220AC7A0443AC72D04C12191479BB
:101760002043107180201479404220431071CC4AEC
:10177000CC489619726902401343736162460B7834
:10178000D21AC9189446131E9CD1C74A0133D3718B
:1017900062468021C54CC64BA2626262C54AC64DF4
:1017A0001A62C64A4903DA61BD4BC54A40201A6431
:1017B0005A6C2A400A435A645A6C920B92035A6438
:1017C000A2227E695200B65C064378698654B2262E
:1017D000BB48760040301866586E2840084358666B
:1017E000586E800B800358667A69905D40221043E2
:1017F0007A6990551800B34EE433E03006601868FB
:1018000005400D431D601968890B89031960F22397
:101810007A695B00D15C40220A437969CA54A24AC2
:10182000E43BFF3B13726346636375E60724805C09
:101830001B07A04305437869855401259648341851
:10184000A07A2843A0729548121810792843107185
:101850004020547920435071914A924896197268F9
:1018600002401343736089E7280001217C3051E670
:101870003C8318230221F8184CE67F230235EA8FB7
:10188000134008335B0112060CD57A69D25C52060C
:10189000520F00D1ECE5814A9B189B799B06DB0F28
:1018A0003B83E6E77A69D25C520700D1E0E57B4AE8
:1018B0009B189B79DB06F2E7EB8F002B00D0D7E576
:1018C0000235EA8F7F2113000B400A4200D1CFE599
:1018D00008335B0112060ED57A69D25C5206520FAC
:1018E00000D1C5E56D4A9B18202259790A435A71E7
:1018F000FFF79CF810E67A69D25C520700D1B7E591
:10190000664A9B1859791022F0E7EB8F002B00D024
:10191000AEE50235EA8F7F2113000B400A4200D169
:10192000A6E508335B0112061AD57A69D25C520625
:10193000520F00D19CE5594A9A1891798906D7D55A
:101940002021107901431171D1794906D0D55E4922
:101950005B1840211970022311790B431371C7E7FB
:101960007A69D25C520700D182E54C4A9A18917983
:10197000C906BDD51021107901431171D1798906AD
:10198000B6D551495B182021197013791F39E4E746
:101990003B691B7ADB0700D4D3E5444CE36F002B93
:1019A00009D028003E4A3C3051688904890C984788
:1019B000E667FFF73BF83B699A79402313433A699E
:1019C000937101223B691A72BBE50024B56AA542F6
:1019D00000D183E03B482A0039494030B46200F02E
:1019E000DFF92F4A364B34491364536C1940802376
:1019F0005B030B435364536C9B0B9B035364A22206
:101A00007B695200995C40230B4379698B547C605D
:101A10002C4B2E4C4033E3612D4BA561A36040233A
:101A200023612300002544331D70656165602573C3
:101A3000FEF7E6FBF860FEF74FFB264AEB009B182B
:101A4000F968186881426ED15B6898477A68606867
:101A5000134B1949012A76D11A001D4C903214609B
:101A600094331A688004920B800C920302431A602C
:101A70001A681140862219607B69FF32995C8023C5
:101A80005B420B4379698B540023074AD3710122CF
:101A9000114B38331A709AE5FF5000410050004155
:101AA00068080020FFFFFF8F080100209801002038
:101AB000D8030020790D0000FF3F00F0850D0000E5
:101AC0009802002018030020075000411801002050
:101AD00098030020C022000018020020756A002D23
:101AE00000D174E574629A4C9A4840342A0021006F
:101AF000403000F055F9984A98491466536E1940E1
:101B000080235B030B435366536E9B0B9B0353660F
:101B1000B2227B695200995C40230B4379698B5454
:101B200001237B6074E70135132D87D1FB68803B6F
:101B30001F2B03D8FF20FEF7CFFA87E7FF210020F5
:101B4000FEF7A5FA82E74020854A1A635A6B920B8A
:101B5000920302435A635A6B1140596326228BE762
:101B60007C4B8048CB5C7B607F4B1B680133034020
:101B700003D57E48013B0343013380247C48A40005
:101B8000C46779487B4D4468AC46A34231D00468B1
:101B9000BE88043464002652802403600120764B02
:101BA000A400013A987506002C600918F860002A14
:101BB000D6D1694B674C1800E0300460E4331868F4
:101BC000664C044080204003204318601868800B56
:101BD00080031860F2207B6940001C5C4023234393
:101BE0007C692354654B39331E70654BD9621A6387
:101BF0000CE0FB68002B05D0604B39331E70604B46
:101C0000D9621A63802362469B0013605D4B1C7A85
:101C1000002C3CD08022564B9200DA67584A531C65
:101C2000D97FC8B200297AD00021D9778023DB017F
:101C3000BB6080214F4B89001960002827D00A25FE
:101C40000026BB681B129C464C4B9869D969401909
:101C500071419860D9600121393319706346002BB6
:101C60000BD06246484BD96C0A43DA645A331B786E
:101C7000002BCFD1FEF799FECCE7516BB8684B1C17
:101C800053633C325054402BC4D1FFF79BF83B4C7C
:101C9000226963691100194317D0E169994203D899
:101CA00013D1A369934210D90121384A13780B4309
:101CB00013700F2236490B7893431A000323134302
:101CC0000B700022002322616361A268E3681100A7
:101CD000194315D0E169994203D811D1A369934200
:101CE0000ED9274B1A0038321278002A02D15B6BCA
:101CF000002B01D0FFF766F800220023A260E3600A
:101D0000C023DB051B6ADB0001D5FFF796FABFF3A2
:101D10004F8F204B204ADA60BFF34F8FFEE71F49F9
:101D20004B689C460B689C4500D182E74B680D4888
:101D300004335B005B5A9BB2BB604B6801330340CA
:101D400003D50A48013B0343013320004B6070E791
:101D5000980200201803002068080020FF3F00F0D0
:101D600098030020FF0000805804002000FFFFFFC0
:101D700004E100E000E100E0000800421802002059
:101D80009801002008010020180100204800006090
:101D90003400006000ED00E00400FA056006002059
:101DA000F0B5C64600B50F2A43D90B0003260343FE
:101DB0001E400C000300002E40D11500103D2D09DF
:101DC000AC462D01A846804400E03B0067682568CA
:101DD0005F60E7681D60DF601F00A56810379D60C9
:101DE00010344345F1D165460F230C2401352D01F4
:101DF000491913404519144223D08C59AC5104366B
:101E00009C1B032CF9D80324043B9B0801339B0043
:101E10002240ED18C918561E002A07D0002300E002
:101E20002300CA5C5C1CEA549E42F9D104BC904673
:101E3000F0BD0500561E002AF0D1F7E7561E05003A
:101E4000ECE71A00F6E7C04610B5830727D0037801
:101E5000002B26D00300032102E01A78002A1CD0B0
:101E600001330B42F9D119680F4A104C8A188A4382
:101E700022420FD1043319680B4A8A188A4322423E
:101E800008D104331968084A8A188A432242F1D0DB
:101E900000E001331A78002AFBD1181A10BD0300A4
:101EA000E1E70020FAE7C046FFFEFEFE808080806A
:101EB000002243088B4274D303098B425FD3030A89
:101EC0008B4244D3030B8B4228D3030C8B420DD39C
:101ED000FF22090212BA030C8B4202D3121209022A
:101EE00065D0030B8B4219D300E0090AC30B8B4268
:101EF00001D3CB03C01A5241830B8B4201D38B0316
:101F0000C01A5241430B8B4201D34B03C01A5241BA
:101F1000030B8B4201D30B03C01A5241C30A8B42FD
:101F200001D3CB02C01A5241830A8B4201D38B02E8
:101F3000C01A5241430A8B4201D34B02C01A52418C
:101F4000030A8B4201D30B02C01A5241CDD2C309FE
:101F50008B4201D3CB01C01A524183098B4201D37A
:101F60008B01C01A524143098B4201D34B01C01A65
:101F7000524103098B4201D30B01C01A5241C308DD
:101F80008B4201D3CB00C01A524183088B4201D34C
:101F90008B00C01A524143088B4201D34B00C01A38
:101FA0005241411A00D20146524110467047FFE7A4
:101FB00001B5002000F0F0F802BDC0460029F7D0BE
:101FC00076E7704703460B437FD4002243088B42D9
:101FD00074D303098B425FD3030A8B4244D3030BB0
:101FE0008B4228D3030C8B420DD3FF22090212BA75
:101FF000030C8B4202D31212090265D0030B8B42F1
:1020000019D300E0090AC30B8B4201D3CB03C01ADA
:102010005241830B8B4201D38B03C01A5241430BB5
:102020008B4201D34B03C01A5241030B8B4201D3A5
:102030000B03C01A5241C30A8B4201D3CB02C01A10
:102040005241830A8B4201D38B02C01A5241430A88
:102050008B4201D34B02C01A5241030A8B4201D377
:102060000B02C01A5241CDD2C3098B4201D3CB011E
:10207000C01A524183098B4201D38B01C01A5241CD
:1020800043098B4201D34B01C01A524103098B42D1
:1020900001D30B01C01A5241C3088B4201D3CB00BC
:1020A000C01A524183088B4201D38B00C01A52419F
:1020B00043088B4201D34B00C01A5241411A00D24F
:1020C00001465241104670475DE0CA0F00D04942B8
:1020D000031000D34042534000229C4603098B4228
:1020E0002DD3030A8B4212D3FC22890112BA030AB0
:1020F0008B420CD3890192118B4208D38901921132
:102100008B4204D389013AD0921100E08909C309B6
:102110008B4201D3CB01C01A524183098B4201D3B8
:102120008B01C01A524143098B4201D34B01C01AA3
:10213000524103098B4201D30B01C01A5241C3081B
:102140008B4201D3CB00C01A524183088B4201D38A
:102150008B00C01A5241D9D243088B4201D34B00A5
:10216000C01A5241411A00D20146634652415B10E7
:10217000104601D34042002B00D5494270476346C8
:102180005B1000D3404201B5002000F005F802BD0D
:102190000029F8D016E770477047C04601000000DC
:1021A0006F240000020000007C24000003000000F7
:1021B00038020020040000009624000005010900F8
:1021C000A101150026FF0075089540090081827560
:1021D00008954009009182C012011002EF020140EF
:1021E00086286200000101020301000004030904C3
:1021F000000000001324000020240000380200200A
:1022000049240000202400005E240000050F210066
:10221000011C100500DF60DDD88945C74C9CD265E4
:102220009D9E648A9F00000306AA00200000000013
:10223000190B00002D0E0000D90A000009028200CF
:1022400004010080FA0904000002030000040921CF
:1022500011010001221C0007058103400001070550
:1022600002034000010904010002FF000005070508
:10227000030240000007058402400000080B020230
:102280000202000609040200010202000005240007
:10229000100104240206052401020305240602039A
:1022A0000705850340000109040300020A0000003D
:1022B00007058602400000070507024000000000F5
:1022C00000000000B702000001000000A5020000AD
:1022D000020000007F040000030000008B090000E2
:1022E000040000008102000005000000BD0700009E
:1022F00006000000ED0600000700000023010000BA
:1023000008000000850600000900000037040000F6
:102310000A0000001301000010000000BD030000CF
:10232000110000006D010000120000004D020000CD
:1023300013000000290200001D000000FD04000041
:10234000140000000B010000150000000101000056
:10235000160000008D0000000A00000000000306C7
:10236000AA00080002000100A00014000300574961
:102370004E555342000000000000000000008400A1
:10238000040007002A00440065007600690063002D
:10239000650049006E00740065007200660061000F
:1023A00063006500470055004900440073000000C9
:1023B00050007B00430044004200330042003500DF
:1023C000410044002D0032003900330042002D004E
:1023D00034003600360033002D0041004100330048
:1023E00036002D0031004100410045003400360028
:1023F0003400360033003700370036007D0000001F
:1024000000003031323334353637383941424344B5
:1024100045460053656565642053747564696F00B3
:1024200053656565642053747564696F205849412C
:102430004F204D473234202853656E736529204361
:102440004D5349532D44415000434D5349532D445E
:102450004150207631204164617074657200566984
:10246000727475616C20434F4D2D506F7274004132
:102470006C65782054617261646F760047656E65A3
:1024800072696320434D5349532D444150204164A8
:0C249000617074657200322E302E300036
:04249C00F8B5C04689
:0424A000F8B5C04685
:1024A400C0230822DB05013800D270475A619A61C3
:1024B400F9E7C022082110B5074BD2051B68013883
:1024C40000D210BD1C005161013CFDD11C00916182
:1024D400013CFDD1F3E7C04618010020002270B58D
:1024E400C0240100082510000126E4058A4200DB0F
:1024F40070BD6561236AA5619B0833409340013236
:102504001843F3E7C02370B50022012604240825EC
:10251400DB058A4200DB70BD304205D09C615D6101
:1025240040089D610132F4E75C61F8E70022F0B5F0
:10253400C0240100082610000A4BE4051D688A42E5
:1025440000DBF0BD2B006661013BFDD1236A2F0047
:10255400A661013FFDD101279B083B409340D2195E
:102564001843ECE7180100200E4BF0B51C6801235A
:102574009C46C023002204250826DB058A4200DB92
:10258400F0BD674638420BD09D6127005E61013F74
:10259400FDD127009E61013FFDD140080132EDE7E6
:1025A4005D61F2E71801002000C20100000008018B
:0425B40001FFFFFF25
:0400000300000F3BAF
:00000001FF
