:020000040800F2
:10600000C00A0020C9930008DD0A0308DD0A03085E
:10601000A7270308DD0A0308DD0A0308DD0A0308D1
:10602000DD0A0308DD0A0308DD0A030861620008CF
:10603000DD0A0308ECED0308F16100082D2A0308CE
:10604000D5920008DD0A0308DD0A0308DD0A03080B
:10605000DD0A0308DD0A0308DD0A0308DD0A030878
:10606000DD0A0308654501084D490308DD0A0308F8
:10607000DD0A0308D144010849490308DD0A030881
:10608000DD0A0308E5850008DD0A0308DD0A0308C8
:10609000DD0A0308F99A0008DD0A0308DD0A03088F
:1060A000DD0A0308F99B0008D59B0008B9810008A8
:1060B000E981000831E10208B5EB020889D603083E
:1060C00085D603085DE3020895D603088DD603083C
:1060D0008DEB020891D60308F5EB020861EC02088B
:1060E000DD0A0308DD0A0308DD0A0308DD0A0308E8
:1060F000CD210308DD0A0308DD0A0308DD0A0308D1
:10610000DD0A0308DD0A0308DD0A0308DD0A0308C7
:10611000DD0A0308DD0A0308DD0A0308DD0A0308B7
:10612000DD0A0308DD0A0308DD0A0308DD0A0308A7
:10613000DD0A0308DD0A0308DD0A0308DD0A030897
:10614000DD0A03081DD50008DD0A0308B528030889
:1061500029CA0208DD0A0308E9D20308EFD20308BE
:10616000DD0A0308DD0A0308DD0A0308DD0A030867
:10617000013800D0FCE7704700000000000000007C
:106180000B4A1168086806C881F30B88022181F365
:106190001488203080F30988BFF36F8F4FF0000020
:1061A00080F31188104700BFAFF30080AFF3008089
:1061B0009C550020000000000000000000000000CE
:1061C00007480068006880F3088862B661B6BFF3CC
:1061D0004F8FBFF36F8F02DF00BF00BFAFF30080B0
:1061E00008ED00E0000000000000000000000000DA
:1061F000EFF309801EF0100F08BF20ED108AEFF3B7
:106200000B82734620E9FC0F114A116808604FF0B9
:10621000300080F31188BFF34F8FBFF36F8F0CF006
:10622000BBFB4FF0000080F31188094A1168086831
:10623000B0E8FC0F13F0100F08BFB0EC108A82F327
:106240000B8880F309881847AFF30080AFF3008014
:106250009C5500200000000000000000000000002D
:106260001EF0040F0CBFEFF30880EFF30980044920
:10627000084700BFAFF30080AFF30080AFF30080AA
:10628000072B0308000000002DE9F047002501213D
:1062900002202AF092FB01210A202AF08EFB012124
:1062A00008202AF08AFB012109202AF086FB2C49CC
:1062B0002C482AF0F4F90A202AF034FB2A4929480C
:1062C0002AF0EDF92F46DFF8C0A0264C1AF8019B02
:1062D00048462AF02DFB0EF0B5FC1FA3D3E900239E
:1062E0000EF01AFD214B00220EF016FD0EF0E4FF19
:1062F000804648462AF056FB06461D4920462AF0AD
:10630000BDF90A22494620462AF024FA19492046B6
:106310002AF0B4F9184B19492046012E18BF194626
:106320002AF0ACF940460EF09FFC41EC100B022124
:1063300020462AF01DFA06B901370135042DC5D1D2
:10634000002F0BBF012400240D490E4905482AF0F7
:10635000A6F92046BDE8F0876666666666660A406E
:1063600037E10308C819002062E103080000303F4C
:106370007CE103080FE403082CE1030820E1030893
:1063800084E103088BE1030833EA030800000000FE
:106390002DE9F04F2DED028B8BB06A22002168466B
:1063A00029F0D6FD684629F063FE48B13E493F48D2
:1063B0002AF075F900200BB0BDEC028BBDE8F08F20
:1063C000052537A7D7E90067384C684629F008FE4D
:1063D0006846F0EE408A29F022FE6846B0EE408A18
:1063E00029F03CFE3249204610EE10AA2AF046F968
:1063F00018EE900A0EF038FC41EC100B03212046F9
:106400002AF0B4F92B4920462AF038F918EE100A80
:106410000EF02AFC41EC100B032120462AF0A6F9CD
:10642000254920462AF02AF950460EF01DFC8246E6
:106430008B46204603214BEC10AB2AF099F9F0EE85
:10644000E87A17EE900A0EF00FFC32463B460EF04B
:10645000D5FEC0B1F0EEC87A17EE900A0EF004FC3B
:1064600032463B460EF0CAFE68B10022134B50463E
:1064700059460EF099FA21F0004932463B4649460A
:106480000EF0BCFE30B964202AF04CFA013D9CD1DC
:106490000B498CE70B4905482AF001F901208AE7EE
:1064A0009A9999999999C93F0FE20308C819002050
:1064B00029E2030833E203083EE203080000F03F4C
:1064C0005BE2030849E20308D0B52D492DED028BAC
:1064D0002C482AF0E4F80121652002F0ABFC0A20E8
:1064E0002AF020FA0A249FED288A662002F076FC22
:1064F00007EE900AF8EEE77A052038EE278A2AF0B0
:1065000011FA013CF1D12146652002F093FCB2EE74
:10651000047AC8EE077A9FED1D7A67EE877A37EE28
:10652000A78A1B4917482AF0A9F818EE100A0EF09E
:106530009BFB06460F461348032147EC106B2AF0DD
:1065400015F914490F482AF0AAF80BA3D3E9002340
:10655000304639460EF052FE38B10F4909482AF04C
:106560009EF82046BDEC028BD0BD0C4905482AF0B0
:1065700096F80120F6E700BF6666666666660A4022
:10658000D0E30308C8190020000000006740533A18
:10659000E6E3030812E4030815E4030845E40308EE
:1065A00038B52DED028B08EE101A008A40080EF067
:1065B00049FBF8EEC87A044617EE900A0D460EF035
:1065C00053FB0CA3D3E900230EF0A6FB02460B46B7
:1065D000204629460EF0A0FB0022054B0EF0C6FC1B
:1065E0000EF06AFEBDEC028B00EE100A38BD00BF53
:1065F00000408F4008AC1C5A643BAF3F00000000D5
:106600002DE9F04FC76997B08346209E08910C9200
:10661000129355EC104B8DED000B7FB910200FF04D
:10662000EBFF0246CBF81C0020B9A74BEF21A7488F
:1066300011F00CFCC0E901770760C760DBF81C3083
:10664000196859B15A680123584693404A608B60D3
:1066500010F090FEDBF81C3000221A602B1EB7BF32
:1066600023F00043002301220193A8BF3360019F60
:10667000974BB8BF3260BB4319D142F20F73129AE5
:106680001360C7F31303234300F0DB85219B53B949
:10669000904B21E0904B03930833219A13600398A9
:1066A00017B0BDE8F08F8B4B03930333F5E79DEDF7
:1066B000007B0022002351EC170B8DED0A7B0EF0BE
:1066C00093FD804650B10123129A1360219B13B1B0
:1066D000824B219A1360824B0393E0E7C7F30A567B
:1066E00014AA15A958469DED0A0B11F0CBF802909B
:1066F000002E76D00B9BA6F2FF36CDF84C80C3F36C
:10670000130343F07F53DDE90A0143F440131946B4
:106710000022744B0EF048F965A3D3E900230EF074
:10672000FBFA65A3D3E900230EF040F904460D46B9
:1067300030460EF087FA62A3D3E900230EF0ECFA9C
:1067400002460B46204629460EF030F904460D4617
:1067500028F0FCFA002207460023204629460EF0C6
:106760004DFD40B138460EF06DFA22462B460EF034
:106770003BFD00B9013F162F52D85B4B03EBC7031B
:10678000DDE90A01D3E900230EF038FD002849D0E5
:10679000013F00231193149B9B1B5A1E4CBFC3F156
:1067A00001030023079245BF069300230693079336
:1067B000002F39DB079B10973B4407930023099375
:1067C000089B092B66D8052BC5BF043B0024012478
:1067D0000893089B023B032B67D8DFE803F02D3AB0
:1067E0003859DDE914631E4406F23243202BC9BF39
:1067F000C3F14003C3F120039F4006F21243D8BF08
:1068000004FA03F006F1FF36C4BF24FA03F347EAA3
:1068100003000EF007FA0122A1F1F873139276E754
:106820000123B7E71190B6E7069BDB1B06937B427B
:10683000099300231093C3E700230D930C9B002BB7
:1068400056DC012399461A4604930C920CE001236E
:10685000F3E700230D930C9BFB1803F1010904934C
:106860004B46012BB8BF0123DBF81C00002104229A
:1068700002F114059D423FD94160584610F03AFD9F
:10688000039000283BD1194B024640F2AF11CEE6EF
:106890000123DFE7012400230D9408934FF0FF3319
:1068A0000022994604931223CFE701230D93F5E7C5
:1068B00061436F63A787D23FB3C8608B288AC63F06
:1068C000FB799F501344D33F4E0804086508040821
:1068D0000000F07F4A08040841080408160804086C
:1068E000150804080000F83F60090408BE08040801
:1068F0000C9B99460493B7E701315200B8E7DBF8E7
:106900001C30B9F10E0F039A1A606FD8002C6DD0AD
:10691000002F36DD07F00F02A04BF8054FEA2714D1
:1069200003EBC20393ED007B8DED0E7B17D59C4BE3
:1069300004F00F044FF00308D3E90823DDE90A014E
:106940000EF014FBCDE90001954D5CB9DDE90E2395
:10695000DDE900010EF00AFBCDE900012BE04FF06C
:106960000208F1E7E10709D508F10108DDE90E01A8
:10697000D5E900230EF0D0F9CDE90E0164100835F9
:10698000E3E700F007817C42844B854D4FF002081D
:1069900004F00F02241103EBC203DDE90A01D3E97D
:1069A00000230EF0B9F90023CDE90001002C40F0DE
:1069B000E580002BD0D1119BDDE90045002B00F0D4
:1069C0004C810022774B204629460EF017FC002808
:1069D00000F04381B9F1000F00F03F81049B002BD0
:1069E00000F3E480DDE90A34CDE90034159B002B87
:1069F00002DB0E2F40F342820D9A002A40F067829C
:106A0000099C0025DDF81880B8F1000F0DD0079B18
:106A1000002B0ADD4345069AA8BF4346D21AA8EBCD
:106A200003080692079AD31A0793099B0BB30D9B91
:106A3000002B00F0A682002C00F0A18229462246FD
:106A4000584610F0C1FD029A01460546584610F01E
:106A500011FD02990646584610F08CFC099B1B1B41
:106A6000099300F09182099A3146584610F0ACFD26
:106A700002900121584610F0E7FC109B0446002BC1
:106A800000F084821A460146584610F09DFD089B8E
:106A90000446012B03DC009B002B00F07C820026C7
:106AA000236904EB830318692EF04FFDC0F1200029
:106AB0001096079B184410F01F0000F09182C0F15F
:106AC0002003042B40F38182C0F11C00069B034489
:106AD00080440693079B03440793069B002B05DD28
:106AE0001A460299584610F0C9FD0290079B002BE8
:106AF00005DD21461A46584610F0C0FD0446119B9C
:106B0000002B00F07682214602982EF06DFD0028C1
:106B100080F26F8200230A220299584610F04CFC42
:106B20000D9B7E1E0290002B00F05C820023294604
:106B30000A22584610F040FC049B0546002B03DC5B
:106B4000089B022B00F35E82B8F1000F05DD294699
:106B50004246584610F092FD0546109B002B00F06F
:106B6000D0826968584610F0C5FB0746002840F0FF
:106B70007F820D4B024640F2EF2158E5E20706D531
:106B800008F10108D5E900230EF0C6F801236410CE
:106B900008350BE74FF002080DE700BF6009040855
:106BA000380904080000F03FBE080408204600220F
:106BB000AC4B29460EF0B0F87E1E08F10108049C8B
:106BC000CDE9000140460EF03DF8DDE900230EF06E
:106BD000A3F8A54B00220DF0E9FEA1F15073CDE919
:106BE0000E010F93002C3BD10022A04BDDE90001E8
:106BF0000DF0DAFE02460B46CDE90023DDE90E2357
:106C00000EF01AFB002840F05781DDE90E2101F15A
:106C10000043DDE900010EF0F1FA00283FF4E2AE96
:106C2000002425460C9BDDF80CA0DE434FF0000845
:106C30002146584610F09EFB002D00F0A980B8F1C7
:106C4000000F05D0A84503D04146584610F092FBEE
:106C50002946584610F08EFB9AE03E464C46B1E776
:106C6000834B03EBC40353E90201039B1C440D9BBC
:106C7000002B4AD002460B4600207E490EF076F9E2
:106C8000DDE90E230DF090FEDDF80CA0CDE90E013C
:106C9000DDE9000128F05AF805460DF0D3FF024661
:106CA00030350B46DDE900010DF07EFE0AF8015B90
:106CB00002460B46CDE90001DDE90E010EF0BCFAFB
:106CC000002865D100206C49DDE900230DF06CFE41
:106CD00002460B46DDE90E010EF0AEFA002840F048
:106CE0000D81A24500F0EA8000225E4BDDE90E0135
:106CF0000EF012F800225B4BCDE90E01DDE9000138
:106D00000EF00AF8CDE90001C2E7DDE90E230EF02E
:106D100003F8A046DDF80CA0CDE90E01DDE9000185
:106D200028F014F805460DF08DFF024630350B466D
:106D3000DDE900010DF038FE0AF8015B02460B4662
:106D4000A245CDE900234FF0000223D1494BDDE9F4
:106D50000E010DF02BFE02460B46DDE900010EF0A0
:106D60006BFA002840F0CA8000204249DDE90E237A
:106D70000DF01AFE02460B46DDE900010EF03EFA68
:106D800070B1C24608F1FF381AF8013C302BF8D038
:106D9000374655E0334B0DF0BFFFCDE90001BDE7AD
:106DA000DDE90A34CDE90034159B002BFFF628AE4F
:106DB0000E2F3FF725AE2E4B03EBC70393ED007B61
:106DC0000C9B002B8DED047B02DAB9F1000F64D02F
:106DD000DDF80CA0DDE90045DDE904232046294665
:106DE0000EF0C4F827F0B2FF06460DF02BFFDDE9E8
:106DF00004230DF091FF0246204606F130040B46B5
:106E000029460DF0D1FD0AF8014B039C02460B46C2
:106E1000AAEB0404A14540F082800DF0C7FD0446B2
:106E20000D46DDE904230EF007FA002865D120465F
:106E30002946DDE904230EF0D7F908B1F3075CD445
:106E40000299584610F096FA002301378AF800306C
:106E5000129B1F60219B002B3FF421ACC3F800A0C4
:106E60001DE400BF0000244000001C40000014404E
:106E7000600904080000E03F0000F03FA24B03EB74
:106E8000C70393ED007B0C9B002B8DED047B9FDAF9
:106E9000B9F1000F9CDC7FF4C3AE00229B4BDDE90F
:106EA00004010DF039FFDDE900230EF0BBF90446C3
:106EB00000287FF4B5AE3E462546B4E0DDE90A344D
:106EC000CDE90034159B002B01DB0E2FD6DD089A8F
:106ED000012A36DC139A82B303F23343099CDDF8AE
:106EE0001880069A012158461A440692079A1A44B5
:106EF000079210F0A9FA054686E53E4653469A46A3
:106F000013F8012D392A06D1039A9A42F7D130227B
:106F1000039901360A701A7801321A7038E7002294
:106F20007B4B0DF0F9FE0022002304460D460EF0C7
:106F30005BF900283FF450AF82E7149BC3F136039E
:106F4000CCE709F1FF34099BA34208DBB9F1000F3C
:106F5000A3EB04040EDBDDF818804B46C1E7099B68
:106F6000109AE31A0994DDF8188000241A444B465D
:106F70001092B6E7069BA3EB09080023B1E7029E37
:106F800071E5099A029970E5029672E5089B012B5A
:106F900017DC009BABB9019BC3F313039BB9019BA7
:106FA00023F00046360D360536B1069B0126013327
:106FB0000693079B01330793109B002B7FF470AD62
:106FC0001096012075E50026F6E73FF486AD1C33E8
:106FD000069A1A4498440692079A1A4407927CE546
:106FE0000346F4E7049B002B2BDC089B022B09DCF7
:106FF00027E0B9F1000F1DDC089B022B1ADD3E468D
:10700000CDF81090049B002B7FF40CAE2146052296
:10701000584610F0D1F90146044602982EF0E4FAE1
:1070200000287FF7FFADDDF80CA0312301360AF808
:10703000013BFBE50D9B3E46CDF81090002B7FF405
:1070400083AD039F214602982EF0E0F9039B00F1E7
:107050003009049A07F8019BFB1A9A4240F3CB804F
:1070600000230A220299584610F0A6F90290E9E797
:107070002A6905F10C010C30023292002EF0B1F9B0
:1070800001223946584610F0F9FA039BA8460546F6
:1070900003F1010ADDE9032313440793009B03F086
:1070A000010309930AF1FF332146029804932EF05D
:1070B000ADF94146069000F1300902982EF094FA9D
:1070C0002A4621460746584610F044FBC26801464E
:1070D00002B3584610F04EF9002F3ADA0122029915
:1070E000584610F0CBFA214602902EF07DFA002887
:1070F00003DC29D119F0010F26D0B9F1390F1DD1C8
:1071000032E02846C1E700BF6009040800001440CF
:10711000000024400A9002982EF066FA0A990C901A
:10712000584610F027F90C9A5ABB089B53B9099B93
:1071300043B9B9F1390F17D0002F05DD069B03F1D4
:10714000310901E0002F2ADADDF810A00AF8019BCE
:107150006EE5089B3B4304D1009B03F00103002B29
:10716000BCD0B9F1390F36D1049F392307F8013B60
:10717000BA46013F1AF8013C392B5AD001333B7013
:1071800056E5002F06DB089B3B4306D1009B03F02E
:10719000010313B9002AA1DCD6E7002AE1DC079B32
:1071A00057460AF8019C53452ED000230A22029923
:1071B000584610F001F9A84502904FF000034FF037
:1071C0000A02414658460BD110F0F6F880460546B3
:1071D0000AF1010A66E7DDF810A009F10109B5E737
:1071E00010F0EAF82946804600230A22584610F09B
:1071F000E3F80546ECE7049B4FF00008002BCCBFFA
:107200001F460127039B1F4401220299584610F094
:1072100035FA214602902EF0E7F90028A8DC02D1C9
:1072200019F0010FA4D1BA4617F8013D302BFAD05E
:10723000FEE4039BBB429BD13123039A01361370BA
:10724000F6E4219B002B7FF425AA014BFFF744BAFB
:107250004108040800000000002370B5404C0546BA
:107260008AB0E36318B10088236016F015FA3D4830
:1072700035F06BFD3C4E3D4B304633603C4B73600C
:1072800031F037F90021304620F08AFF32A3D3E9EC
:107290000023A062C4E9062331F036F9D4E90623BD
:1072A00019431043C4E90601CDE900014FF0FF3353
:1072B0004FF0FF32A06A35F095FD02224FF0FF310A
:1072C000A06A35F094FD012015F068FF4FF40073BB
:1072D00000222849A06A35F0DBFDB0F5007F38D1E7
:1072E00000239422CDE9073309933C23CDE90332EF
:1072F00005939623A06A03A9069321F06FF835B38E
:10730000287C16F081FB0546F0B9A06A35F09EFE98
:1073100016F028FB15F024FF20B14FF480700021F7
:1073200012F03AFF15F02CFF20B14FF4006000215D
:1073300012F032FF31F0ABF9012020F085FF0E4A48
:107340000E49A06A31F0D3F828460AB070BDFF207C
:10735000D7E70725F8E700BF0DD50155200000004D
:10736000A8110020690345EC6861002021D00108C4
:1073700078610020685F002097840308D7840308A1
:107380000348044B834202D0034B03B118477047B4
:10739000341100203411002000000000064B074982
:1073A000C91A891048BF0131491003D0044B0BB1F1
:1073B00001481847704700BF3411002034110020E5
:1073C0000000000010B5064C237843B9FFF7D8FF42
:1073D000044B13B10448AFF300800123237010BDA8
:1073E0001468002000000000044F040808B5054B95
:1073F0001BB105490548AFF30080BDE80840FFF721
:10740000CDBF00BF0000000018140020044F040886
:10741000A3F5803A704700BF174B002B08BF134BF2
:107420009D46FFF7F5FF00218B460F461348144A8F
:10743000121A2DF06EFF0E4B002B00D098470D4B0B
:10744000002B00D098470020002104000D000D48BB
:10745000002802D00C48AFF300800FF0DDFE2000C2
:10746000290001F0C9FB0FF0B5F800BF00000800CB
:107470000000000000000000C00A002034110020BD
:10748000208B002000000000000000002DE9F84FD4
:1074900017460D46064629F037FA26498146264802
:1074A00029F0ECF80A223146234829F03AF9234919
:1074B000214829F0E3F80A2229461F4829F03DF91E
:1074C0001F491D4829F0DAF80A2239461A4829F0DE
:1074D0002AF90024DFF870B0DFF85CA029F014FA74
:1074E000A0EB0900A8420CD300251649124829F048
:1074F000C5F80A222146104829F015F92846BDE8AA
:10750000F88F5B2001F06AFC80465946504629F00E
:10751000B5F80A224146504629F005F94645B8BF5C
:107520000134BC4203DA012029F0FCF9D6E7012539
:10753000DBE700BF95E10308C8190020B3E10308A9
:10754000C5E10308F4E10308E5E103082DE9F0478C
:1075500088B06A4615462B4B03F11006144618688E
:107560005968083303C4B3422246F7D128F0A0F982
:10757000002028F0ABF9C82029F0D4F9224F28F0D8
:1075800097F910222946022028F0BDF9C82029F0D9
:10759000C9F93B781BB11D491D4829F080F810221C
:1075A00002200DEB020128F0D5F93B781BB11949F7
:1075B000174829F063F800244FF00108DFF85090D5
:1075C000DFF854A004AE15F8013B16F8011B9942F0
:1075D00018BF4FF000083B783BB11022484629F015
:1075E000B9F85146484629F049F80134102CEAD13F
:1075F0003B7813B1064801F007FA404608B0BDE8F1
:10760000F08700BF92E20308300F002070E2030809
:10761000C819002083E203082C0A04082DE9F84366
:10762000846806460D46DFF8A88000AF54B998F884
:1076300000301BB12149224829F031F80020BD4615
:10764000BDE8F8836A460134A4B2E31DDB08A2EB6F
:10765000C3039D4622460023694629F01BF998F88A
:107660000030E94683B11749154829F007F831463B
:10767000134828F0FEFF1449114828F0FFFF10229C
:1076800029460F4829F068F8284628F01FF9C82035
:1076900029F048F928F00CF922464946284628F0F6
:1076A00032F9322029F03EF998F800300BB9012068
:1076B000C5E70649024828F0F2FFF8E7A3E203080D
:1076C000C8190020CDE20308E5E20308F4E203084C
:1076D000300F00202DE9F04784B005460E461446D1
:1076E00000AF3AB92C4929F0A0F828461037BD461A
:1076F000BDE8F0876946D31DDB08A1EBC3039D46B7
:10770000DFF8B0A00021684602F1FF392DF001FE3C
:107710009AF80030E846ABB12049214828F0AEFF86
:10772000102231461E4829F008F81E491C4828F04E
:10773000A5FF21460A221A4828F0F3FF1A491848E3
:1077400028F0ADFF22464146304628F003F90023D9
:10775000414608F80930381D29F067F89AF80030DA
:1077600023B92846391D29F00DF80CE00F490C48C3
:1077700028F084FF0A48391D28F07BFF0C4908488F
:1077800028F08DFFEDE7381D29F007F8ADE7381D2B
:1077900029F003F82DF04EF9CEEC03080DE30308B1
:1077A000C819002020E3030829E3030840E3030885
:1077B00063E30308300F002070B506460D4629F03C
:1077C0005CF8044628B10E490E4828F068FF2046B0
:1077D00070BD0D490B4828F062FF0C49094828F09C
:1077E0004DFF3146074828F044FF0949054828F075
:1077F00045FF2946034828F03CFF0649E4E700BF5F
:1078000065E30308C81900207CE303089BE3030831
:10781000AEE3030863E3030870B50321002029F0F9
:10782000B5F80321084629F0B1F80321052029F015
:10783000ADF80321042029F0A9F800241B4E16F806
:10784000015B01212846013429F0A0F8E4B20021AF
:10785000284629F0B2F8042CF1D10121652029F045
:1078600072F80021652001F0E5FA0121472029F096
:107870006AF80121472001F0DDFA642029F052F86E
:107880000121462029F05FF80021462001F0D2FABC
:10789000C82029F047F80649064828F000FFBDE84F
:1078A00070400349044828F0FABE00BF2FEA0308DD
:1078B000C5E30308B4180020C819002008B507491B
:1078C000074828F0ECFE27F08FFFBDE808400A22A9
:1078D0004FF4FA614FF4FA70FFF7D8BD65E403087E
:1078E000C819002008B50549054828F0D8FE27F03A
:1078F0008DFFBDE80840FFF729BE00BF7BE4030809
:10790000C819002008B50368104A23F47F4323F008
:107910000703934204D002F5802293420DD008BDA4
:107920000B4801F071F80B49094828F0B8FEBDE892
:1079300008400949064828F0B2BE084A13680133D6
:1079400013600122064B1A70E9E700BFA000010096
:10795000C819002093E40308B1E4030830140020A0
:107960001568002010B5044648B10549054828F0BF
:1079700085FE10222146034828F0EEFEFEE710BDEA
:10798000C2E40308C8190020102208B511460120DE
:1079900018F03CFCFFF7E6FF0121084618F05AFCFE
:1079A000FFF7E0FFBDE808400149024828F077BE34
:1079B000CEE40308C819002038B51449144828F04B
:1079C0006EFE0023134C144D23602B70FFF7DCFF79
:1079D00041F2883028F0A6FF18F030FCFFF7C2FF14
:1079E0000E490B4828F04AFE0A222168084828F070
:1079F00098FE0B49064828F052FE2368002B4FF0F2
:107A00000103C8BF2B702B70206838BDDEE403086B
:107A1000C81900203014002015680020F9E403087C
:107A200017E5030870B58AB0FFF7F6FE0123A14CF5
:107A3000A14A23700023A14EA149A24813603370CC
:107A400028F02DFE27F0AAFF9F499E4828F027FE28
:107A5000FEF73AFD054660BB9C499A4828F01FFE98
:107A600025709B49974828F01AFEFEF70DFC054645
:107A700020BB9849934828F012FE257096499148FA
:107A800028F00DFEFFF72EFF0546E0B993498D481B
:107A900028F005FE257092498A4828F000FE914999
:107AA00001A828F0C2FE4FF4805101A8FFF7B6FDEF
:107AB0000EE08D49834828F0F2FDD2E78B498148DA
:107AC00028F0EDFDDAE78A497E4828F0E8FDE2E794
:107AD000039A054601324FF4805192B204A8FFF791
:107AE000F9FD35B104A901A8FFF766FE28B1814967
:107AF00006E08149734828F0D2FD00237F492370B6
:107B0000704828F0CCFD7E496E4828F0C8FDFFF78C
:107B100053FF337853B97B496A4828F0C0FD0023EE
:107B200023707949794828F0BAFD04E0784965481E
:107B300028F0B5FDF5E77749624828F0B0FDFFF77A
:107B4000BDFE50B974495F4828F0A9FD0023237099
:107B500072495C4828F0A3FD04E07149594828F0B7
:107B60009EFDF5E7FEF714FC50B96E49554828F024
:107B700096FD002323706C49524828F090FD0BE0DD
:107B80006A49504828F08BFD2378002BF3D06849D0
:107B90004C4828F084FD41E066495C4828F07FFDB0
:107BA0006449484828F07BFD6349464828F066FD53
:107BB00010220021434828F0B4FD6049414828F0D4
:107BC0006EFD5F4907A828F030FE002107A8FFF7E7
:107BD00025FD044607A828F0E0FD44B1594939487D
:107BE00028F05DFD5849494828F059FD01E0574902
:107BF000F5E75549334828F052FD0021142028F0BC
:107C0000DCFE4FF4FA7028F08DFE0121142028F0DC
:107C1000D4FE4FF4FA7028F085FEEEE74C493B485D
:107C200028F03DFD4A49274828F039FD237823B143
:107C30004849244828F033FD09E04749214828F005
:107C40002EFD3F4D3C491F4828F018FD01E0434DF3
:107C5000F8E7102200211B4828F063FD3749194836
:107C600028F01DFD294607A828F0DFFD002107A800
:107C7000FFF7D4FC054607A828F08FFD45B1314930
:107C8000104828F00CFD3049204828F008FD01E09C
:107C90002E49F5E72C490B4828F001FD237823B93C
:107CA0000021022028F072FE5AE00021142028F062
:107CB00084FEF5E7310F0020301400201568002005
:107CC0004BE50308C81900206CE5030882E50308AA
:107CD000ACE50308BDE50308DDE50308FBE50308A3
:107CE00035E603085FE6030897E50308CDE50308DA
:107CF00018E60308CAE6030873E60308A1E60308CA
:107D0000F3E603080AE703084FE70308B418002066
:107D100039E703085EE7030870E7030892E7030802
:107D200081E70308B0E70308EAE70308CDE70308A3
:107D3000B5E803080FE803081BE803084EE803084A
:107D400038E5030853E803087AE803088DE80308D8
:107D5000D7E80308E3E8030800E9030825E503087A
:107D600000210A2028F012FE0021082028F00EFE33
:107D70000021092028F00AFE0021652001F05AF8B0
:107D80000021472001F056F80021432001F052F86D
:107D90000021422001F04EF80121382001F04AF87C
:107DA000642028F0BFFD28F0AFFD024615491648B3
:107DB00028F0DCFA1549164800F0D2FB28F0A4FDA3
:107DC00002461449104828F0D1FA28F09DFD0246D9
:107DD0001049114828F0CAFA04A828F0DEFC01A8CE
:107DE00028F0DBFC0AB070BD07A828F0D6FC04A878
:107DF00028F0D3FC01A828F0D0FC2CF01BFEF3E700
:107E0000F5E7F7E71DE90308B4180020C0270900CB
:107E10008C18002034E90308C819002030B54FF44D
:107E2000E13195B0384828F081FA4FF416513748BF
:107E300028F07CFA0121142028F0A8FD022101205D
:107E400028F0A4FD4FF4FA6028F06CFD012028F022
:107E5000A9FD58B92E492C4828F021FC01222D4BB0
:107E60001A7015B0BDE83040FFF7DCBD00242A4D84
:107E70004022214604A82C702DF04BFA27F0C6FCB6
:107E80004022214601A8FFF725FC2346402204A9F1
:107E900001A828F0FFFC039A2B784AB18BB11F4947
:107EA000194828F0EBFB184804A928F0F8FB08E073
:107EB0001BB11B49144828F0F2FB1A4904A82DF005
:107EC0007AFA194904A82DF06CFA50B940F6B83086
:107ED00028F028FD15490C4828F0E1FB27F05EFD4D
:107EE000FCE740F6B83028F01DFD1149064828F09F
:107EF000D6FB0021142028F060FDFAE701A828F045
:107F00004CFC2CF097FD00BFC8190020B4180020CD
:107F100044E90308310F0020300F00205AE903081C
:107F200077E90308BFE9030825E50308C9E9030861
:107F3000F2E9030838B504460B480C4D20600020D8
:107F4000C4E904122071A081A36104F12001A5609D
:107F500001202AF08FFF04F17401E06101202AF072
:107F600089FF2067204638BD84EA030840420F009D
:107F700013460A460146014827F0C5BDF814002003
:107F800013460A460146014827F0BDBD34140020BF
:107F900070B50F490F4C104E104D114B2046114A31
:107FA0000968FFF7C7FF3246294620462CF0D0FC6F
:107FB0000D4C0E4920460E4A09680E4BFFF7BAFFDA
:107FC000324629462046BDE870402CF0C1BC00BFB7
:107FD000580C0020F8140020C00A0020E5F902081F
:107FE000717F0008EC0A002034140020540C00209B
:107FF000CC0A0020817F0008F0B5067C044685B0DD
:10800000002E74D102236D4603743A4B80F8A410FD
:108010000FCB85E80F0001230B22D4F8581194F8F8
:1080200055018DF8016004F04DF801230B22D4F8BE
:10803000601194F85C0104F045F894F85431D4F8D8
:1080400060011B0103F1A04303F57033D3F8F01472
:1080500094F85C21284E42EA004231400A43C3F8BA
:10806000F02494F85411254AD4F8587102EB011108
:10807000D1F8EC0494F85531304043EA0743034308
:10808000C1F8EC3494F85431D4F8500102EB0312E7
:108090000323C2F8E8341A4B012198420CBF2F2069
:1080A0002E2002F051FC2946D4F8500104F0AEF81D
:1080B00094F8A420D4F85031124902F0FE02DA619B
:1080C00003F50052D163104903F58052B3F1B64F66
:1080D000116403D14FF000620C4B1A60D4F85021A8
:1080E000074B9A4203D14FF08052084B1A6005B0FB
:1080F000F0BD00BF6CEB0308FCFFF0FF00C00350B5
:1081000000800650FFFF1F006406010000E100E050
:108110002DE9F84300251F464FF47A7340260446A4
:1081200089469046C0E90153224B32462946C0E9B0
:10813000265503600582A0F8945080F89650C0F848
:10814000A050A0F8A450A8302DF0E3F8089BC4F884
:10815000E850C4F858319DF82430324684F85C3138
:108160000A9B2946C4F860310B9BC4F8EC50C4F854
:108170006431C4E93D55C4F8F050C4F8FC50C4F86B
:10818000509184F8548184F8557104F153002DF016
:10819000C0F83246294604F113002DF0BAF804F570
:1081A000807101202AF066FEC4F8FC002046BDE87C
:1081B000F88300BF24EB0308094808B5D0F8503114
:1081C000B3F1B64F01D127F049FE0648D0F850313F
:1081D000B3F1B64F03D1BDE8084027F03FBE08BD5C
:1081E00024170020BC150020094810B5D0F85031E4
:1081F000084CA34201D127F031FE0748D0F8503196
:10820000A34203D1BDE8104027F028BE10BD00BF37
:108210002417002000800650BC1500201FB50F4B0E
:1082200002241B68012203930423CDE901430523A3
:108230000B4900930B482346FFF76AFF0A4B0322C2
:108240001B684FF0B641CDE9024301230748CDE951
:1082500000230022FFF75CFF04B010BDC80A002015
:108260000080065024170020C40A0020BC150020FE
:108270002DE9F8431E46037807460C4615462BB1F8
:10828000012B24D000252846BDE8F88341782348F7
:1082900027F0ECFC2946214827F051FC1F4827F025
:1082A00047FC002837D1324679781C4827F050FD2A
:1082B0001A4D2644284627F065FC0028E2D0B44237
:1082C000E0D0284627F0EFFC04F8010BF2E700218C
:1082D000807828F072FB45F08001114827F094FB6C
:1082E0000025DFF83C8004EB06094C4508D101214C
:1082F000B878B5420CBF0525002528F05EFBC2E723
:108300000021404627F080FBFF2804BF0135EDB275
:1083100004F8010BE9E70125B5E700BFBC15002013
:10832000F8140020F8B5047805460F46164634B117
:10833000012C23D0002634463C703046F8BD4178ED
:108340001A4827F093FC3146184827F0F8FB1748E5
:1083500027F0EEFB6978061E4FF00102134818BFA4
:10836000012627F0F5FC114D284627F00BFC0028CC
:10837000E2D0284627F097FCC4B2F5E700218078C8
:1083800028F01BFB46F08001094827F03DFB002147
:10839000074827F039FB04460121A87828F00DFB97
:1083A000FF2C14BF00260526C6E700BFBC15002021
:1083B000F814002037B504460121672028F0C3FADD
:1083C0000121672000F036FD0A2028F0ABFA25785D
:1083D000FDB1012D21D000238DF8063042F210733B
:1083E0009DF80620013B0132D2B29BB28DF80620E7
:1083F000002BF5D10F2220460DF10701FFF792FF68
:108400009DF807006938012894BF0020012003B0BF
:1084100030BD0C4827F021FCDDE70B4827F010FBAE
:108420000421094827F06EFB2946074827F02DFB59
:108430002946A07828F0AAFA2946A07828F0BDFAA3
:10844000C9E700BFBC150020F8140020F8B5077874
:1084500004460E4615461FB1012F14D00020F8BD6A
:108460004178114827F002FC31460F4827F067FB9E
:1084700029460D4827F063FB0B4827F059FB0038CD
:1084800018BF0120EBE70021807828F096FA3146EA
:10849000064827F0B9FA2946044827F0B5FA3946C4
:1084A000A07828F08AFAD9E7BC150020F81400203B
:1084B00070B505464068441C4ED0C0B200F0FAFBCF
:1084C00028F011FA0646287900F0F4FB28F018FA93
:1084D0000123044601460322304603F0F3FD76B93A
:1084E000611F4C424C4120042B7A042B32D0012BCB
:1084F0001A4918BF0021BDE8704003F023BE012EC9
:1085000006D1012C18D0E21E544254412005EBE75D
:10851000022E08D1052C12D0072C13D0B4FA84F403
:108520006409A005E0E7032E0FD1022C0FD0631FD2
:108530005C425C41A006D7E74FF40020D4E74FF43B
:108540000000D1E74FF08070CEE70020CCE74FF07D
:108550000070C9E70149CEE770BD00BF0000FF0F02
:1085600030B50D4687B004460C214FF4F06002F0A0
:10857000A9FE01213D2002F0E7F901213C2002F093
:10858000E3F9154A03AB07CA83E8070040F201127A
:108590001846ADF8142001F0F9FE01F057FF294606
:1085A000002001F047FF02220C4B9A614FF4003289
:1085B0000B4B1A60012001F015FF2046FFF778FFF2
:1085C000002301A801938DF8083003F063F903F04C
:1085D00023FA07B030BD00BF7CEB03080050065003
:1085E00000E100E00222014B5A6170470060065032
:1085F0004FF0FF320021034BC3E9001203221A722D
:10860000704700BF8C18002000230246194601481D
:1086100004F056BC00C0055010B500240E4B18687D
:1086200027F036FE0D4B2046C3F820470122C3F841
:1086300038470821C3F83047C3F82847C3F82C4708
:10864000234603F03FFD23462046BDE810400122AB
:10865000092103F037BD00BFA018002000C003505F
:1086600002460021014803F0CDBA00BF00000A50C5
:1086700010B500240E4B186827F00AFE0D4B01229E
:10868000C3F8B4440621C3F8CC440220C3F8C44460
:10869000C3F8BC44C3F8C044234603F013FD23468B
:1086A000BDE8104001220721022003F00BBD00BFEE
:1086B0009818002000C00350084B1A68084B1A6035
:1086C000084B1A68084B1A60084B1A68084B1A6066
:1086D000084B1A68084B1A60704700BF400C002016
:1086E000A4180020500C0020A01800202C0C002002
:1086F0009C1800203C0C00209818002000230448FF
:10870000044A0549C0E9000083602CF021B900BF8C
:10871000A8180020C00A0020C10203082DE9F0417A
:10872000002598464FF47A73C0E90153184B04466C
:108730000F4616462946802240F8103B2CF0E9FDF2
:108740004FF4E133C4F89050C4F80C31C4F894509D
:10875000C4F89C50C4F8985084F8085184F810511B
:1087600004F1A00101202AF085FB069BC4F89C00BF
:10877000C4F8F430079B2046C4F8F830089BC4E9DD
:108780004076C4F8F080C4F8FC30BDE8F08100BF4A
:10879000DCEB03081FB50F4B0F4A02930F4B104938
:1087A0000193104B104800931268104B0968FFF7B3
:1087B000B5FF0F4B0F4A02930F4B10490193104B1B
:1087C000104800931268104B0968FFF7A7FF05B027
:1087D0005DF804FBFB020308A018002019860008BE
:1087E000A4180020A7020308C81900200986000861
:1087F0006B03030898180020718600089C1800205D
:10880000AB020308B4180020618600082DE9F0418E
:108810000E4690B0404D0021804606AC30461746CB
:1088200028F091F80FCD0FC40FCD0FC495E80300C9
:1088300084E8030001244FF0000C032321462A2082
:10884000CDE901CCCDE903CCCDF814C08DF80630CC
:10885000009402F079F821463A2002F075F821469A
:108860003B2002F071F8032F31D82C4B2C4A2D4CB1
:1088700033F81730D25D204609938DF81C2003F0A1
:108880005BFEA36823B9204606AA03A903F02AFFCA
:10889000254B244C334413F8323C6A46204601A948
:1088A0008DF8013028F04AFBA36A512E43F400737F
:1088B000A36206F001021D4B11D95AB9D3F828233F
:1088C00042F00102C3F82823012388F8003010B0D9
:1088D000BDE8F081D3F8282342F48032F2E7412E3C
:1088E0000CD932B9D3F8242342F00102C3F824236F
:1088F000EAE7D3F8242342F48032F7E732B9D3F819
:10890000202342F00102C3F82023DDE7D3F820231F
:1089100042F48032F7E700BF54EC030808EC030888
:1089200010EC03080040005914EC030800C0035089
:1089300038B504460D46C0684FF0FF312AF09DFB64
:10894000237813B16368AB4205D029462046227ACA
:108950006560FFF75BFF4FF400720C4B0C4D5A62E1
:108960000123EB606B6A9B050DD50023E0681A4676
:108970001946ED6F2AF003FA637AA8B2C3F10C032B
:10898000184180B238BD27F0D1FFEBE700600059F5
:1089900000400059014827F076BD00BFDC1A0020D6
:1089A00010B50446044B0175036010220021043009
:1089B0002CF0AFFC204610BDC8EC030830B5074DC5
:1089C0008374056000259DF80C3005754560856051
:1089D000C56001744274C37430BD00BFC8EC0308A5
:1089E00007B501210648FFF7DBFF002305481A46BB
:1089F00019460093FFF7E2FF03B05DF804FB00BFE8
:108A0000541B00203C1B002008B5024927F021FE22
:108A100008BD00BFCCEC03082DE9F84F55EC104B16
:108A20000E1E074622462B4620462946B8BF022680
:108A30000CF00CFC38B14C49384627F00AFE804651
:108A40004046BDE8F88F25F000494FF0FF32204640
:108A50004946464B0CF0FAFB48B94FF0FF3220462E
:108A60004946424B0CF0D4FB08B94149E4E74FF0CA
:108A70006042204629463F4B0CF0DEFB08B13E49E0
:108A8000DAE74FF06042204629463C4B0CF0B6FB3B
:108A90000028F4D100220023204629460CF0AEFB2A
:108AA00000285AD02D21384627F0ECFD05F100436F
:108AB00082461D464FF0000B00204FF00008304961
:108AC000DFF8C4905FFA8BF3B3420BF1010B46DB86
:108AD00002460B46204629460BF068FF0D46044629
:108AE0000CF0CAFB80460CF09DF802460B4620466F
:108AF00029460BF059FF0A2204460D4638464146E6
:108B000027F0CFFD0AEB000826B138461D4927F0B3
:108B1000A0FD80444FF0000ADFF86CB0013E8FD317
:108B20005B465246204629460CF0F6F80D460446B0
:108B30000CF0A2FB0A2201468146384627F0B1FD1F
:108B4000804448460CF06EF802460B462046294603
:108B50000BF02AFF04460D46E0E78246AAE74246AC
:108B60004B460CF003FAADE7CFEC0308FFFFEF7FB5
:108B7000D3EC0308FFFFEF41D7EC0308FFFFEFC181
:108B80000000E03F51E803080000244010B5074909
:108B900043234222064827F095FEBDE810404523B6
:108BA0004422044801F5804127F08CBE0040025960
:108BB000941B00206C1B002038B5FFF72FF9094DDE
:108BC000094C26F0FBFE284627F0EAFB284627F052
:108BD0004EFC204627F0E4FB204627F048FC29F015
:108BE00075FFEEE7C8190020B4180020014B187873
:108BF000704700BF166800201FB504F025F9012456
:108C00001D4B186028F0EAF927F056FB1B4B1C702F
:108C100027F02AFB1A4B4FF400620293194B1A49B2
:108C2000CDE90043194800232AF086FBF0B9184C1F
:108C30001849206829F017FB1749206829F013FB11
:108C400027F0C7FE27F0C6FE144B154A00931549BE
:108C50003E23206829F007FB1349144A206829F0B5
:108C600002FB1349206829F0FEFAFEE729F064FEB2
:108C7000002004B010BD00BFBC1B002016680020FF
:108C8000C01B0020201C0020F4EC0308B98B000856
:108C9000BC3C0020CDEC030801ED030879ED03088E
:108CA00006ED03086DED03089AED03087EED030859
:108CB000B2ED0308A0F13203402B10B5044608D9E9
:108CC00027F0FCFAA04292BF4FF0FF34024B53F85A
:108CD0002440204610BD00BF0C0B002038B54FF4D7
:108CE00080730381082380F86430FF2300228366A9
:108CF0004FF47A7304460360C2600266027100F1A9
:108D00006C0300F1AC0172200C4D10338B4207D183
:108D100004F1100101202AF0ADF8E060204638BDD2
:108D200043F8100C43F8085C03F8042C03F8032CF8
:108D300003F8022C03F8012CE7E700BF0080045081
:108D40000148FFF7CBBF00BF203C002010B5044610
:108D500003F07EFAB4F1B64F2AD100221C4BC3F8BF
:108D6000E824C3F8EC24C3F8F0244FF00062194B58
:108D7000C3F88020BFF34F8FBFF36F8F0023012212
:108D80000521022003F09EF9002301220421022084
:108D900003F098F9012200231046032103F092F911
:108DA000BDE81040012200230221104603F08AB9D9
:108DB000094B9C42E2D10022A3F53033C3F8F824DA
:108DC000C3F8FC24C3F800254FF08052014BCFE7D5
:108DD00000C0035000E100E00080065008B50146E5
:108DE0000148FFF7A5FD08BDDC1A00200146014837
:108DF00027F05BBBDC1A002038B50446FFF7F6FE0F
:108E000090B1712C11D8204627F06DFD0546204603
:108E100027F076FD1422302313FB0523044A9B58C8
:108E200023FA00F000F0010038BD0020FCE700BF8D
:108E300030C0035070B504460E46FFF7D7FE90B120
:108E4000712C10D8204627F04EFD0546204627F00D
:108E500057FD01223021064B824001FB05331EB92C
:108E600003F501531A6070BD03F58253FAE700BFA2
:108E700000C00350012208B5074B1A700022074BAF
:108E80001A700422064B1A701F22064B1A7006F045
:108E9000ABFC054B186008BD340F0020176800209C
:108EA000330F0020320F0020BC3C00202DE9F0439E
:108EB000434D89B001AC0FCD0FC495E807000125E3
:108EC00084E8070001213A2001F03EFD3D4F0121D9
:108ED000292001F039FD3C4B384601A903938DF858
:108EE000125004F09FF82B4629460422022003F07A
:108EF000E9F802212A460846002303F0E3F82B464E
:108F000004220321022003F0DDF804222B4611463F
:108F1000022003F0D7F82D4C2D4B1026C4F834371F
:108F20004FF00213C4F83037A3F58033C4F8383754
:108F30001C2304F50059C4F820374FF4487008F09A
:108F4000C3FA04F580581420C9F8A06008F0BCFAF0
:108F50002320C8F8A06008F0B7FAB9213846C9F84C
:108F6000A06028F09AF8002329461A460220C8F883
:108F7000A06003F0A7F8002302211A46084603F078
:108F8000A1F82B4600220321022003F09BF82B4678
:108F900000220421022003F095F8384603F0C0FFB8
:108FA00000212920C4F83417C4F83017C4F8381742
:108FB000C4F8201701F0C8FC09B0BDE8F08300BF79
:108FC000D0ED030800C0055000127A0000C0035025
:108FD00002000300BFF34F8F0549064BCA6802F435
:108FE000E0621343CB60BFF34F8F00BFFDE700BFCC
:108FF00000ED00E00400FA054FF000639B6A03F106
:109000007842B2F5C04F03D21968064A914203D0A4
:109010000023037083607047012202709A689B6985
:109020004260F7E707B0CD5E73B54F4B04461A7840
:109030001AB102221A7002B070BDCDE900220028D8
:10904000F9D001261E7027F0E0FE484D484B18600D
:1090500022F0FCFC2B785BB900F0E0FD40B94548FC
:109060000823454A454900681EF0D0FD00B92E701E
:10907000434B5A6E62619B6E424AA3614FF4804338
:109080009366414B5968E16140499960196E2160CE
:10909000596E6160D3F87011A160196CE160596C70
:1090A00021613B49086C1864496C5964012151667F
:1090B0001B6E9C0441D5374AD368D807FCD4364B85
:1090C0001A68531C3ED04FF480139340334A136602
:1090D0004FF400730426314C2666236627F0B1FC5A
:1090E00001300DD027F0ADFC40F20113984207D0BB
:1090F0004FF4005323664FF480432366C4F8706135
:109100000823264C684623664FF4805323664FF0AD
:10911000006323664FF4002301A9636627F075FC02
:10912000009B2366019B63662B78002B83D0124B38
:109130001A6822665B6863667DE7194AD368D907B7
:10914000FCD4BCE7174B1B78002BC1D14FF4007245
:109150000C4B5A6603F5A6235B68002BB8D14FF47D
:1091600080120E4B1A66B3E7196800201A680020B7
:10917000E03C0020B40B0020E43C0020007108001B
:1091800000800050009000500080004455CEAC009C
:1091900000C00054000004407C0B002000900044FC
:1091A000000004501868002070B5224D04462E7847
:1091B000012E02D001232B7070BD0028FCD027F0B7
:1091C00040FC01300BD027F03CFC40F201139842E8
:1091D00005D0194B194A5E66D368DE07FCD42268B5
:1091E000174B1A6662685A66A268C3F87021E26873
:1091F0001A6422695A64E269D00744BF00229A6067
:10920000104B1A68013207D10F4A127822B90F4960
:109210004968C90748BF1A6062690D4B5A66A2695E
:109220009A6622F01BFC0B4B186827F0F4FD002314
:10923000C1E700BF19680020009000400000044012
:10924000008000447C0B00201868002000C00550FE
:1092500000800050E03C002070B54FF00064A36A2D
:1092600003F17842B2F5C04F24D21A68134B9A42E8
:1092700020D1134E337813F0FD0F02D00024204686
:1092800070BD1048FFF7D0FE01254FF480330E4A21
:109290000E49C2F88051CB6015600D4A1361A36A74
:1092A000DB69984704460748FFF77EFF002CE6D1AC
:1092B0003570E3E74FF48174E1E700BF07B0CD5E9E
:1092C00018680020C03C002000E100E000A000443D
:1092D0000090004413B5204B1B7803B9FEE7002330
:1092E0001E4CCDE900336A4608231D4920681EF054
:1092F0008DFCF0B91B4AD2F84031D2F840211F2B27
:109300004FF0010310D9203A9340019A1A43019279
:1093100008236A46124920681EF02EFC4FF00053C5
:10932000114A1A60FFF756FE9340009A1A430092C2
:10933000EEE70E4B9842F1D10A4AD2F84031D2F80A
:1093400040211F2B4FF0010385BF203A93409340EB
:10935000019398BF0093DBE719680020B40B00204D
:1093600000710800008000440B020FF00BE000F0D9
:1093700040B1054A1378012B04D803700133002053
:1093800013707047012070471B6800200346054A90
:109390000549106803448B428CBF4FF0FF301360C7
:1093A000704700BF800B0020000004200348044ADF
:1093B0000449121A921027F092BB00BFB85B040850
:1093C000B85B0408208B002008B500F02FF8FFF7E9
:1093D000EDFF124B12498B4212D30020114B124960
:1093E0008B4218D3FEF718F8186850F822405868D6
:1093F00040F82240013298688242F5D30C33EAE704
:109400000022F8E71C6844F8220001325C68A2429E
:10941000F8D30833E4E70022F8E700BF3855040822
:109420004455040844550408445504084FF4804149
:109430004FF0FF30114B124A10B59A60D3F88820D4
:1094400042F47002C3F888200E4A91660E4901F575
:10945000005210660D4850660220C3F8D000BFF3DA
:109460004F8FBFF36F8F01244FF440330848C0F88B
:109470008041D36004600B6110BD00BF00ED00E0CF
:10948000006000080090005000800044F7FF3700A3
:1094900000E100E0014B1868704700BF880B002016
:1094A000084B1B6F03F00703022B04D0032B05D0DE
:1094B000012B05D0FEE7044B18687047034BFBE710
:1094C0000348704700800050880B0020900B00205C
:1094D000002D310108B5FFF7E3FF054B1B6FC3F308
:1094E00003330133B0FBF3F0024B186008BD00BF3B
:1094F00000800050840B00200048704700B4C40472
:10950000014B1868704700BF900B0020054B186096
:10951000054B1B6F03F00703032B01D1FFF7DABFE5
:10952000704700BF900B002000800050004870473B
:10953000002D31014FF0B4439868C0F304400C286B
:109540000AD8DFE800F00B09090909090721190900
:109550001B1D1F000F487047002070479B6803F0D9
:109560004073B3F1807F11D0B3F1007F10D00A4A6D
:10957000002B08BF104670470848704708487047DE
:1095800008487047084870470848704708487047BF
:1095900008487047405DC60000093D00C0EA21014F
:1095A00080BA8C010048E801005A62020024F400ED
:1095B00080841E0040420F00014B1868704700BFB6
:1095C0008C0B00202DE9FF4103680446B3F1B64F30
:1095D00055D0354A93424FD12F20012101F0B4F9E3
:1095E00001230A226179207902F06CFD01230A220D
:1095F000E179A07902F066FD0A2701262B4D4FF094
:1096000030082379627908FB035306FA02F203F566
:1096100001531A60642007F057FF2379627908FB31
:10962000035306FA02F203F5825364201A6007F02E
:109630004BFF013FE3D12068B0F1B64F21D10323A6
:10964000C5F8E8346279237943EA0243C5F8EC347B
:10965000E279A37943EA0243C5F8F03440F20113FA
:10966000ADF80030E36869460293A3680193237C58
:109670008DF80C3002F0CAFD04B0BDE8F0812E2058
:10968000ABE7094B9842E9D10323C5F8F834627976
:10969000237943EA0243C5F8FC34E279A37943EA2B
:1096A0000243C5F80035D9E70080065000C00350DA
:1096B00038B5054602F0F0FE044C012801D1013C0A
:1096C00000D138BD284602F0DBFDF6E7E193040047
:1096D0002DE9F04F9A46564B85B01B7806460F464B
:1096E0001546DDF83C909DF844B0DDF85080002B25
:1096F00000F09780072A00F296800E9B002B00F066
:109700009280B9F1000F00F08E80129BB3F5006FCC
:1097100000F38980012803D1109B002B00F0838087
:10972000444B03EB05131B7B002B7ED0424C1022D5
:10973000002168462BF0EDFD04EB45141022A7BB79
:10974000394620462BF0E5FD43F210036380BBF160
:10975000000F03D1E37843F00303E370364A0E9B16
:1097600002EB451CCCE90193129B6901581E9DF840
:109770004C30C0F30A0003F003039B0643EA001ECB
:1097800053582E48012E00EA03004EEA0003CDF89C
:1097900000A0535017D0B8F1000F2ED19CF8023022
:1097A00068F304138CF8023027E0002120462BF0E8
:1097B000B0FD4FF444736380BBF1000FCED1E3786A
:1097C00043F03003C9E713230CF1100ECCF80C3032
:1097D0009CE80F008EE80F006FF00301DCF81C20FE
:1097E000109B61F39F02012FCCF81C20CCF81430A1
:1097F00003D1CCF81890CCF8043000270D4A290189
:1098000002EB051342F80180159A28465A60694612
:1098100022469F605E7303F057FA384605B0BDE8F4
:10982000F08F0748FAE70748F8E70748F6E700BF70
:109830001C680020EC3D0020EC3C00200F80FFF372
:10984000028000F0018000F0078000F038B5124B74
:1098500005461B78DBB1E0B127F0D7FA0F4A0023A9
:109860001146147B54B92B6001251A0101EB031337
:109870001D738C5027F0CFFA204638BD0133082BDA
:1098800002F11002EDD127F0C6FA0548F5E70548C8
:10989000F3E70548F1E700BF1C680020EC3D00201D
:1098A000048000F0028000F0018000F038B527F05D
:1098B000ACFA002305460B4A147B6CB90133082B24
:1098C00002F11002F8D103F0A1F9074B28461C70F1
:1098D00027F0A1FA204603E0284627F09CFA034827
:1098E00038BD00BFEC3D00201C680020058000F062
:1098F0000D4B10B51B78044693B1072812D827F0FA
:1099000084FA0A4B03EB04131A7B2AB100241C735C
:1099100027F081FA204610BD27F07DFA0448FAE7C7
:109920000448F8E70448F6E71C680020EC3D0020F6
:10993000068000F0028000F0018000F0154B13B5A6
:109940001868002301908DF8043027F05EFA124B5E
:109950001C7824B127F05FFA104802B010BD012234
:109960001A7027F058FA0E4B01A81C731C7783F865
:109970002C4083F83C4083F84C4083F85C4083F8EB
:109980006C4083F87C4008238DF8073003F06AF9B7
:109990002046E2E73CEE03081C680020038000F04C
:1099A000EC3D00200A4A08B512785AB107280BD8B6
:1099B000084A02EB00131B7B43B1002103F044F97A
:1099C000002008BD0448FCE70448FAE70448F8E72B
:1099D0001C680020EC3D0020028000F0018000F0B7
:1099E000078000F00A4A08B512785AB107280BD848
:1099F000084A02EB00131B7B43B1012103F024F959
:109A0000002008BD0448FCE70448FAE70448F8E7EA
:109A10001C680020EC3D0020028000F0018000F076
:109A2000078000F00A4A08B5127852B107280AD810
:109A3000084A02EB00131B7B3BB103F091F90020B5
:109A400008BD0548FCE70548FAE70548F8E700BF08
:109A50001C680020EC3D0020028000F0018000F036
:109A6000078000F00D4B1B7893B1072812D889B1FD
:109A70000B4B03EB00131B7B73B10A4B1A6D0123D5
:109A80008340134214BF0123002300200B70704752
:109A90000548704705487047054870471C68002016
:109AA000EC3D002000000450028000F0018000F036
:109AB000078000F00B4A10B512780C4662B10728F7
:109AC0000CD859B1084A02EB00131B7B43B103F0D9
:109AD00059F92070002010BD0448FCE70448FAE75B
:109AE0000448F8E71C680020EC3D0020028000F0EC
:109AF000018000F0078000F0184B2DE9F0411F6D48
:109B00005B6D1F4000D5FEE701260025144CDFF8F1
:109B10005880374218D02368C8F85060A3B1A168B4
:109B2000284601316268A1609847637B012B0BD105
:109B300050B90C4B03EB45131A7B60F341021A73C7
:109B40001A7F60F341021A770135082D4FEA460665
:109B500004F11004DDD1BDE8F08100BF0000045025
:109B6000EC3D0020EC3C00200020045070B5044681
:109B700001250B4E04B970BD94FAA4F0B0FA80F040
:109B800005FA00F306EB001224EA03045368002BE5
:109B9000F0D0117B11B191689847EBE79847E9E75E
:109BA0006C3E002008B5192001F0FCFD28B14FF0F3
:109BB0000072074BC3F880211A601A2001F0F2FDF1
:109BC00028B14FF08062024BC3F880211A6008BDB3
:109BD00000E100E0074BD3F82404D3F8202403F578
:109BE0000053104000F0553020F05020C3F82004FE
:109BF000FFF7BCBF00C00350074BD3F82404D3F8D1
:109C0000202403F50053104000F0AA3020F0A020DB
:109C1000C3F82004FFF7AABF00C00350024B196825
:109C2000024B18681DF0CEBE940B0020B40B002030
:109C300070B59400224605460E4634F04DFA431C9A
:109C40000AD058B92246314628462BF038FB002866
:109C5000034808BF002070BD0248FCE70248FAE74D
:109C600010E000F021E000F024E000F010B5044620
:109C700034F036FA431C10D088B903F017F92346A4
:109C800020F003002044984201D1002010BD53F879
:109C9000042B0132F7D00348F8E70348F6E70348FE
:109CA000F4E700BF0EE000F021E000F024E000F057
:109CB00008B527F0A3F8014B186008BD5C470020E9
:109CC000014B186827F09EB85C47002038B5054660
:109CD000B0B1B9B1B2B1B2F5006F13DC27F095F8AD
:109CE00095F84C3003F0FF041BB127F094F80648B8
:109CF00038BD012385F84C3027F08DF82046F7E772
:109D00000248F5E70248F3E7032000F0012000F0E5
:109D1000022000F02DE9F04716460022436390F838
:109D20005C300446894686B080F85420C663002B18
:109D300038D14FF4406305686B614369092B03D93F
:109D400005F12C08443506E00BBF05F1200805F1AC
:109D5000240838353C3567694FF0000A082F94BF56
:109D600000270127204626F0F9FF134B0494CDE984
:109D700002730196CDF800A04346216B04F138022E
:109D8000A06A26F0D9FE0123CDE903AACDE9016737
:109D900000932A464B46E16A606A26F0B3FE06B09D
:109DA000BDE8F087012BFAD1006826F019FF25687D
:109DB00005F13C08C6E700BF1F0D030801292DE986
:109DC000F84304D90239012927D9BDE8F883234B88
:109DD000234E1C68234FDFF89880803C14F1800FDD
:109DE000F3D0D4F800900521484627F059F81E4BCF
:109DF000994510D01D4B994514BF3D46454626F068
:109E0000FDFF2B6843F018032B6026F0FBFFD4F80E
:109E10008040803CE2E73546F1E7104B104E1C686D
:109E2000104FDFF84C80803C14F1800FCDD02368B8
:109E30000D4A934210D00D4A934214BF3D46454609
:109E400026F0DCFF2B6823F018032B6026F0DAFFE6
:109E5000D4F88040803CE7E73546F1E760470020D2
:109E600094C4035074C403500000015B00000A5006
:109E7000B4C403502DE9F0410B687E4A8EB0934282
:109E800005460C460DF1180803D07B4A934240F07A
:109E9000DA804746794ECDF814800FCE0FC796E88A
:109EA0000F00103687E80F000FCE01AF0FC7002D4F
:109EB00000F0C7808422002128462BF02AFA23686C
:109EC0006C4A934214D06C4A934200F09C806C4ED2
:109ED0006C4B1B681BB96C496C4806F0A5FB6948C4
:109EE00005F1800126F0E0FD30460EB0BDE8F081BE
:109EF00056204FF47022002765492B600123A446A9
:109F000085F85C302E1DC5E90B122865BCE80F00F2
:109F10000FC69CE80F0086E80F00637E012B08BF88
:109F20008DF81D30A37E23B1012B72D104238DF84F
:109F30001230227EE368012A4FF0000270D15549A9
:109F40008DF811208B429CBF05238DF83530524B84
:109F500001213A20039300F0F7FC0121286D00F065
:109F6000F3FC2369DA1F092AB1D8063B8DF81030BB
:109F7000237E2BB9E37EB3FA83F35B098DF81C30A3
:109F80000121284626F037FE06460028A0D1237A74
:109F9000217941EA03417B0103F1A04202F57032CD
:109FA000C2F8AC14607A617941EA0041C2F8A414A5
:109FB000A07AA17941EA0041C2F8A814E37E93BBDC
:109FC000E17AE37943EA0143C2F898341D23C2F8E9
:109FD0009434206801A901F0ADFF26F016FF2F4B45
:109FE0001A7812BB01221A7026F015FF06F052FFF4
:109FF000FFF7A4FC002105F12400FFF727FC014630
:10A00000B0B1274E64E757204FF48012012725494D
:10A0100073E7022B8BD0032B7FF459AF062386E71F
:10A020008DF8342094E71C23D1E726F0F4FEDFE717
:10A0300005F12800FFF70AFC064600283FF448AF68
:10A04000DFE7194E44E74646184F0FCF0FC697E893
:10A05000070086E80700002D00F0CF808422002151
:10A0600028462BF056F92368114A934222D0044E19
:10A070003AE700BF0000015B00000A5064EE0308ED
:10A08000022000F060470020B80B00206447002049
:10A0900001000F003F4B4C0040420F001D680020A4
:10A0A000092000F001001000012000F098EE0308E4
:10A0B00000C0055029222E462A654FF480222746EB
:10A0C0004F48C5E90B0246F8043B0FCF0FC697E88F
:10A0D0000F0086E80F00637E012B08BF8DF8263045
:10A0E000A37E2BB1012B67D14FF40073ADF828305C
:10A0F000237E0121012B03BF00238DF825304FF46F
:10A10000E133E3683A20089300F01EFC0121286D3A
:10A1100000F01AFC23691A1F0C2AA8D8033B4146F9
:10A1200020688DF8243002F07DFFA36923F47F03BB
:10A1300023F47F4323B92A68936843F48033936000
:10A14000237A2079617940EA0340637AA27941EA6F
:10A150000341E67EA37A42EA03422A4BBEBB1D2698
:10A16000C3F82067C3F83807C3F83017C3F834279B
:10A17000E17AE27942EA0142C3F824270121284624
:10A1800026F039FD064600287FF4AEAE26F03DFEEF
:10A190001D4B1A782ABB01221A7026F03CFE06F0ED
:10A1A00079FEFFF7CBFB002105F12400FFF74EFB02
:10A1B0000146C8B1154E97E6022B02D14FF48073C9
:10A1C00094E7032B7FF453AF4FF440738EE71C24C6
:10A1D000C3F82047C3F83807C3F83017C3F834274B
:10A1E000CCE726F018FEDCE705F12800FFF72EFB90
:10A1F000064600283FF478AEDCE7054E74E600BF63
:10A200000200040000C003501D680020092000F077
:10A21000012000F070B590F85C50044665B1012D46
:10A2200057D10368404A934256D0404A934279D16D
:10A230002E464FF0FF3501E04FF0FF36A06AFFF7E2
:10A24000F1FB606AFFF7EEFB0021204626F0D3FC0D
:10A25000237F012B03D104F1600006F055FE94F832
:10A260005C30002B3AD1206802F05AFE94F85C2052
:10A27000002A39D16B0103F1A04101F57031C1F819
:10A280002027C1F83827C1F83027C1F83427E37FE9
:10A290000BB9C1F824370021206D00F055FB606A2E
:10A2A000FFF726FBA06AFFF723FBFFF7FFFAA36D7A
:10A2B000002B04DD01232046A36526F018FD1C4D6C
:10A2C00004F18001284626F0F3FB2B6833B300200D
:10A2D00070BD4FF0FF36ACE70026AAE7012BC5D1D1
:10A2E000206801F065FCC1E7012AD4D1002170018A
:10A2F000104B00F1A04202F5703203EB4616C6F88F
:10A30000AC14C2F8A414C2F8A814E27F0AB9C6F8C3
:10A31000982400220344C3F89424BCE7064806F0BE
:10A3200095F9D4E70548D3E70000015B00000A5027
:10A330006047002000C0035064470020022000F066
:10A3400070B5037F0446012B0D4616460DD0FFF76E
:10A35000BDFC48B9324629462046054BFFF7DAFCDA
:10A36000204626F0B2FCA06C70BD0248FCE700BF9E
:10A37000D70B0308082000F0034B5A6812B19A6A01
:10A38000002AFAD1704700BF0040065043681249C6
:10A39000B3FA83F310B5C3F11F044B680BB1FFF799
:10A3A000EBFF01220D4B5A604B689B07FCD4027AED
:10A3B000437843EA420343EA04130124427A8B6060
:10A3C000837A43EA42034B62054B5C60037813B126
:10A3D000FFF7D2FFCC6010BD004006500060065071
:10A3E00000500650104908B54B6843B930B14B686E
:10A3F0000BB1FFF7C1FF01220C4B5A6008BD4B683F
:10A400000BB1FFF7B9FF0028F5D1FFF7B5FF022325
:10A41000CB60FFF7B1FF0122054B5A60024A536837
:10A420009B07FCD4EAE700BF0040065000500650EE
:10A4300000600650044B9A6AD006FCD419639A6AED
:10A44000D206FCD4704700BF0040065008B5FFF7A5
:10A4500093FF02230449CB6000230B62FFF78CFFBC
:10A460000123CB6008BD00BF00400650044BD3F869
:10A470008420D206FBD4D3F88400C0F38110704747
:10A480000040005038B5104B0546D3F880300C46DC
:10A4900003F00303022B0BD0032B0DD0012B0FD1A4
:10A4A000FEF7FEFF0E2305B1286004B1236038BD1E
:10A4B000FFF740F80723F6E7FEF7ECFF0623F2E785
:10A4C00000231846EFE700BF0080005038B5184B56
:10A4D0000546D3F820010C4600F00700062823D8D3
:10A4E000DFE800F0040A0E16121A1E00012305B15F
:10A4F000286004B1236038BDFEF7CCFF0523F6E7E2
:10A50000FEF7FEFF0323F2E7FFF714F80723EEE759
:10A51000FFF70CF80223EAE7FEF7BCFF0623E6E7A5
:10A52000FEF7EEFF0423E2E700231846DFE700BF53
:10A530000080005038B5174B0546D3F828310C463B
:10A5400003F00703013B052B20D8DFE803F00313DA
:10A550001B0F0B17FEF79EFF052305B1286004B102
:10A56000236038BDFEF796FF0623F6E7FEF7E2FF0D
:10A570000723F2E7FEF7C4FF0323EEE7FEF7C0FF71
:10A580000423EAE7FEF7D2FF0223E6E7002318469A
:10A59000E3E700BF0080005073B50D460021114B6A
:10A5A0000191D3F88041064604F00304022C13D035
:10A5B000032C0CD0012C13D101A8FFF787FF102426
:10A5C0000EB1019B336005B12C6002B070BDFEF787
:10A5D000B1FF07240190F3E7FEF7A8FF0190EFE732
:10A5E0000C46EDE700800050002337B50193164B71
:10A5F0000546D3F820320C4603F00703042B21D87C
:10A60000DFE803F0030B11161B0001230DB1019AC3
:10A610002A6004B1236003B030BD002101A8FFF718
:10A6200089FF1223F2E7FEF785FF07230190EDE78C
:10A6300026F062FA0A230190E8E7FEF7BDFF09233E
:10A640000190E3E70023E1E70080005038B5104BAC
:10A650000546D3F840310C4603F00303022B0BD020
:10A66000032B0DD0012B0FD126F046FA0A2305B19A
:10A67000286004B1236038BDFEF79EFF0923F6E78A
:10A6800026F03DFA0C23F2E701230020EFE700BF9C
:10A6900000800050002337B50193164B0546D3F8D0
:10A6A00060320C4603F00703013B032B1FD8DFE8A1
:10A6B00003F0020E1914002101A8FFF707FF102371
:10A6C0000DB1019A2A6004B1236003B030BD0021AE
:10A6D00001A8FFF7BBFF1123F2E7FEF72BFF0723CB
:10A6E0000190EDE7FEF722FF02230190E8E7002347
:10A6F000E6E700BF00800050002337B50193164BFA
:10A700000546D3F894320C4603F00703013B032BB4
:10A710001FD8DFE803F0020E1914002101A8FFF78B
:10A72000D5FE10230DB1019A2A6004B1236003B055
:10A7300030BD002101A8FFF789FF1123F2E7FEF7E2
:10A74000F9FE07230190EDE7FEF7F0FE02230190EA
:10A75000E8E70023E6E700BF0080005038B5144B5F
:10A760000546D3F800020C4600F0070004281BD869
:10A77000DFE800F003090D111500012305B1286081
:10A7800004B1236038BD26F0B7F90A23F6E7FEF7D7
:10A7900013FF0923F2E726F0B2F90C23EEE7FEF7E8
:10A7A00099FE0F23800AE9E700231846E6E700BF79
:10A7B0000080005038B5144B0546D3F808020C460B
:10A7C00000F0070004281BD8DFE800F003090D1192
:10A7D0001500012305B1286004B1236038BD26F0BF
:10A7E0008BF90A23F6E7FEF7E7FE0923F2E726F0E6
:10A7F00086F90C23EEE7FEF76DFE0F23800AE9E7EA
:10A8000000231846E6E700BF0080005038B5104B23
:10A810000546D3F840320C4603F00303022B0BD05D
:10A82000032B0DD0012B0FD126F066F90A2305B1B9
:10A83000286004B1236038BDFEF7BEFE0923F6E7A9
:10A8400026F05DF90C23F2E701230020EFE700BFBB
:10A850000080005038B5104B0546D3F860310C46E7
:10A8600003F00303022B0BD0032B0DD0012B0FD1D0
:10A8700026F042F90A2305B1286004B1236038BDEF
:10A88000FEF79AFE0923F6E726F039F90C23F2E7E2
:10A8900001230020EFE700BF00800050B0F5207FCB
:10A8A0001FD009D8B0F5007F15D003D868B1B0F536
:10A8B000C07F0AD000200CE0B0F5607FFAD10B4BCE
:10A8C000D3F88000C0F3011003E0084B186FC0F309
:10A8D000033001307047054BD3F89000C0F304609B
:10A8E000F7E7024B186FC0F38020F2E700800050BA
:10A8F00002464FF48030104B10B598660020FFF7E9
:10A90000CDFF504341F671320C4BDC69DA635A6873
:10A9100004F4803422F4401259B90949884294BFA2
:10A9200000200120000502435A600CB10022DA63C6
:10A9300010BD0449F2E700BF009000500000035032
:10A94000005A6202002D3101430905D0012B0CD0C1
:10A95000022B084B18BF002300F01F0039B103F58C
:10A960008053012282401A607047034BF4E703F5DD
:10A970000053F6E768800050648000501FB5002146
:10A9800080280446CDE9001100F0A58035D85E2866
:10A9900046D85E2844D8DFE800F0A243434343434F
:10A9A0004343434343434343434343434343434377
:10A9B00043434343434343434343A2AAA2AABABAED
:10A9C000BABABAAAC44DDA714DAAAAAA43434343FC
:10A9D00043434343AAAAAA79E4AA434343434343D4
:10A9E00043434343434343BAA2A2A2DF4D4DE98808
:10A9F0005EBF434343434399A200B0F5B06F00F0FC
:10AA000090802DD8B0F5207F71D00CD8B0F5C07FE4
:10AA100065D0B0F5007F65D0B0F5807F00F086800E
:10AA2000009804B010BDB0F5607F6BD00DD8B0F5C4
:10AA3000407FF5D1FEF74EFD02464FF42070FFF740
:10AA40002DFFB2FBF0F252085AE0B0F5806F5ED0F5
:10AA5000B0F5A06FE4D100216846FFF7C5FDDFE740
:10AA6000B0F5106F78D016D8B0F5E06F79D00AD86D
:10AA7000B0F5C06F6BD0B0F5D06FD1D10021684672
:10AA8000FFF76CFECCE7B0F5F06FC9D10021684646
:10AA9000FFF7E0FEC4E7B0F5406F3DD013D8B0F546
:10AAA000206F63D0B0F5286FBAD10021324B0391EB
:10AAB000D3F8703203F00303012B02D103A8FFF790
:10AAC000C5FD039B3CE0B0F5486FA9D10021684665
:10AAD000FFF712FEA4E7FEF7E3FC0090A0E7FEF705
:10AAE000F9FCFAE7FEF7DCFC0246204604E0FEF73C
:10AAF000F1FC02464FF42070FFF7D0FEB2FBF0F2FB
:10AB000000928DE701A8FFF7BDFC019AEDE7002157
:10AB10006846FFF7DBFC83E700216846FFF70AFD84
:10AB20007EE700216846FFF737FD79E74FF0E02325
:10AB300002911B695B0705D5FEF7CCFC0290029BD6
:10AB400000936DE703A902A8FFF780FDF7E7002156
:10AB50006846FFF77BFD63E700216846FFF72AFEA2
:10AB60005EE700216846FFF751FE59E7002168467D
:10AB7000FFF790FD54E700BF0080005008B580202B
:10AB8000FFF7FCFE034B98429EBF4FF48032024B0E
:10AB90001A6708BD005A620200A000501FB50346A4
:10ABA0000020B3F5807F019000F0C18064D85D2B58
:10ABB00055D84C2B07D82D2B48D8232B2CD80198AF
:10ABC00005B05DF804FB4D3B102BF8D801A252F8FC
:10ABD00023F000BF25AD0008BFAB0008BFAB0008E5
:10ABE000BFAB0008DBAC0008BFAB0008BFAB000880
:10ABF000A9AD0008F9AC00089FAC00089FAD0008A3
:10AC0000BFAB0008BFAB0008BFAB0008BFAB00087C
:10AC1000BFAB0008B3AD0008243B092BCFD801A27D
:10AC200052F823F025AD000825AD000825AD000839
:10AC300025AD000825AD0008BFAB00081BAD00081E
:10AC4000BFAB0008BBAC00085BAD00083D2B7FD05C
:10AC50003E2BB4D1002001A9FFF7D8FDAFE7802B30
:10AC6000ADD1594B1B6F03F00703013B032BA6D853
:10AC7000DFE803F0514E858DB3F5F06F68D021D831
:10AC8000B3F5B06F49D00FD8B3F5607F00F0838083
:10AC900095D3B3F5806F45D0B3F5A06F8FD1002069
:10ACA00001A9FFF7A1FC8AE7B3F5D06F55D0B3F542
:10ACB000E06FCFD0B3F5C06F81D1002001A9FFF7BD
:10ACC000C5FC7CE7B3F5206F6ED00BD8B3F5086FE9
:10ACD00048D0B3F5106F7FF472AF002001A9FFF7E1
:10ACE00069FD6CE7B3F5406F59D0B3F5486F60D09C
:10ACF000B3F5286F7FF463AF334BD3F8703203F0B2
:10AD00000303012B5AD0022B0CBF1523002300E0B4
:10AD10000523019353E70223FBE7002001A9FFF776
:10AD20003BFC4CE7002001A9FFF7D0FB47E74FF0C1
:10AD3000E02302901B695B0705D5FEF7CBFB0D23D3
:10AD40000393039BE5E703A902A8FFF77FFCF8E75D
:10AD5000002001A9FFF77EFD31E7002001A9FFF7E0
:10AD6000FDFC2CE7184BD3F8003103F00303022B52
:10AD700007D0032B09D0012B0BD1FEF7C1FB032316
:10AD8000C7E7FEF719FC0923C3E725F0B3FE082344
:10AD9000BFE70123BDE701A9FFF774FB0FE7002020
:10ADA00001A9FFF7C7FB0AE7002001A9FFF772FC22
:10ADB00005E7002001A9FFF79FFC00E7002103A899
:10ADC000FFF744FC1123A4E7008000504FF48012E9
:10ADD000034B5A664FF48032024B9A62704700BFB1
:10ADE000009000500050005A08B5FFF7D7FE092820
:10ADF00011D00A38012802D94FF6FF7008BD4FF470
:10AE00008002064B5A6603F5D8335B6ADB07F3D53D
:10AE10004FF4FA70F2E7024B1888EFE70090005009
:10AE20001E0F002038B504468020FFF7B7FE032828
:10AE300000F083804FF48012524B4FF0A0615A66AD
:10AE400045F60E02504BC3F88020504A91624FF4F1
:10AE5000803102F5805291629A6DD203FCD4996DD3
:10AE600011F08041FBD1D4E90002120542EA0062F0
:10AE7000E07B0243207B42EA0042607B42EA0032F0
:10AE8000A07B42EA80121A619869D4E90452120642
:10AE900042EA856200F000400243A07EE57E024364
:10AEA000207E42EA0042607E42EA00229A611A6AEB
:10AEB000E06922F00F0242EA8502354D00283DD1BB
:10AEC0001A6294F82420996A94F82000D20029404C
:10AED00042EA40120A4394F8211042EA011242F475
:10AEE00080329A622B49284A936D31EA0303FBD1E1
:10AEF0004FF08071254881621369A56823F47003BF
:10AF000043EA055313614FF00043836194F8223004
:10AF10000BB9214B996294F823303BB94FF480323E
:10AF20001D4B9A62184A936D5B00FCD494F825304F
:10AF30001BB1154B194AC3F8802038BD024342F0BB
:10AF4000080202281A6208D119614FF40852996167
:10AF500013484FF47F4125F01AFF0B4994F8223033
:10AF60008A6A94F820001B062A4043EA40131343E0
:10AF700094F8242043EAC20394F8232043EA0243CE
:10AF80008B62D3E7009000500040005A0050005AF6
:10AF9000C7FFFEFE030001000060005AF1A7FFFF9B
:10AFA0003440005A70B5194CFF28A66A2BD8A36DFF
:10AFB0004FF0807113F4803F18BF4FF48032144B70
:10AFC00018BF9A629962134AA36992F9005023F458
:10AFD0007F03054423F47F4343EA002385F30805F8
:10AFE00043EA0543A36132460B4825F0D0FEA36D2A
:10AFF000DB0301D4002070BD32464FF48031064897
:10B0000025F0C5FEF6E72120F5E700BF0040005A15
:10B010000050005A350F00202840005A014B93F988
:10B0200000007047350F00204FF48033114812495B
:10B03000826A8B62836D03F00303032BFAD14FF016
:10B0400080730E488B620B4B996D30EA0101FBD186
:10B05000012009490865996D8907FCD4054B996D54
:10B060008807FCD5996D8907FCD50549054825F069
:10B070008EBE00BF0040005A0050005A030001007D
:10B08000000001012840005AF0B5D0E901434FF417
:10B0900000061A4A4178057856664FF4D1560227C1
:10B0A00002F5B8325662164E4F2977604FF001070D
:10B0B00028BF4F2106F5805677601669F603FCD449
:10B0C00041EA052151611B01417B43EA04230B4303
:10B0D000017B43EA41039360C37B817B1B0143EA0D
:10B0E0004113417C0B43017C43EA41035360837C61
:10B0F00013B16FF4D1535362F0BD00BF0090005004
:10B1000000100250014B1880704700BF1E0F002036
:10B11000014B1880704700BF1C0F00204FF48002C5
:10B1200008B5184B5A660223174A5360936813F404
:10B130008033FBD1012822D1FEF7E2F9134B98426C
:10B1400015D003F5122303F5F863984213D0104B82
:10B1500000EB8002400AB3FBF0F3520A0A49CA62CC
:10B160000B6301234B620022074B5A6008BD45F672
:10B170007A13084AF2E745F61A03074AEEE75362E4
:10B18000F1E700BF009000500040025000F049027B
:10B1900064666666D8B80500BBCF0500B0F5207FB1
:10B1A00010B50C465DD008D8B0F5007F4ED003D85E
:10B1B000C0B1B0F5C07F15D010BDB0F5607FFBD138
:10B1C0002C4B4C1ED3F8FC202B4912F0807F4FEA09
:10B1D000041427D1D1F8803023F030032343C1F881
:10B1E0008030E9E725F0E2FD25F0EEFD4FF48031F7
:10B1F000224B214A1967136F013C23F4704343EA41
:10B2000004331367FEF766F90446FFF72FF9C0F120
:10B210000201204625F0D2FD00F042F8BDE81040C2
:10B22000FFF7ACBCD3F8FC2022F08072C3F8FC20FE
:10B23000D1F8802022F030022243C1F88020D3F8D8
:10B24000FC2042F08072C3F8FC20B5E70A4A4C1E8D
:10B25000D2F8903023F0F85343EA0463C2F89030F8
:10B26000AAE7054A4C1E136F23F4806343EA842344
:10B270001367A1E700ED00E000800050009000504F
:10B2800008B50121022000F00FFB25F08FFD25F00D
:10B290009BFD4FF48032014B1A6708BD00900050AF
:10B2A00008B54FF4C070FFF769FBBDE808400449DA
:10B2B000884294BF012102214FF42070FFF76EBF36
:10B2C00080F0FA02B0F5807FF8B50C4600F05381AB
:10B2D0006BD85D285DD84C2804D82D2844D8232865
:10B2E00028D8F8BD4D381028FBD801A353F820F01A
:10B2F00057B50008E3B20008E3B20008E3B2000863
:10B3000047B40008E3B20008E3B200080DB7000834
:10B310007FB40008D7B30008EDB60008E3B2000818
:10B32000E3B20008E3B20008E3B20008E3B20008A9
:10B330002DB7000824380928D3D801A353F820F0EA
:10B3400057B5000857B5000857B5000857B50008AD
:10B3500057B50008E3B2000837B50008E3B20008AB
:10B360000DB4000827B600083D2800F04C813E28A7
:10B37000B7D1093C032C8CBF0021B34BB34A98BF13
:10B38000195DD2F8403223F003030B43C2F8403278
:10B39000A7E78028A5D18B1E062B00F2C980DFE825
:10B3A00003F0C4B2C77FC7C7C100B0F5F06F00F0AB
:10B3B0002A813BD8B0F5B06F00F0BD801BD8B0F546
:10B3C000607F00F06D818CD3B0F5806F00F0C3809A
:10B3D000B0F5A06F85D1073C0B2C8CBF00219C4B96
:10B3E0009A4A98BF195DD2F8203223F007030B4325
:10B3F000C2F8203275E7B0F5D06F00F01481B0F5D7
:10B40000E06FB6D0B0F5C06F7FF46BAF093C032C92
:10B410008CBF00218F4B8D4A98BF195DD2F8403107
:10B4200023F003030B43C2F840315AE7B0F5206F15
:10B4300000F06C8117D8B0F5086F00F02181B0F5ED
:10B44000106F7FF44EAF093C062C8CBF0021824B5D
:10B450007E4A98BF195DD2F8083223F007030B43E8
:10B46000C2F808323DE7B0F5406F00F03F81B0F51B
:10B47000486F00F05B81B0F5286F7FF432AF112C7C
:10B4800000F06481A4F115035C425C4164006F4AE2
:10B49000D2F8703223F003032343C2F8703220E75E
:10B4A000002502264FF480370121022000F0FCF92C
:10B4B00025F07CFC25F088FC684B644A1F67136FFD
:10B4C00023F0070333431367FEF704F80646FEF73D
:10B4D000CDFFC0F10201304625F070FC01210020B3
:10B4E00000F022FAFFF7DCFEFFF748FB002D7FF4A7
:10B4F000F8AE032C7FF4F5AE594B5A4A9F62936D18
:10B500005C00FCD4EDE64FF48012544B0E465A66B4
:10B510004FF48032534B9D6A03F58053C5F30065A9
:10B520009A62BFE700250426BCE700250126B9E79B
:10B5300000252E46B6E7023C0E2C8CBF00214A4B5C
:10B54000424A98BF195DD2F8803123F003030B43C0
:10B55000C2F88031C5E6023C052C8CBF0021434B6C
:10B560003A4A98BF195DD2F8203123F007030B4304
:10B57000C2F82031B5E6A1F10904082C3FF6B1AEBE
:10B5800001A353F824F000BFADB50008ADB5000825
:10B59000E3B20008ADB50008DBB50008E3B200086F
:10B5A000E3B20008E3B20008ADB500084FF4803202
:10B5B000264B2F49586E03F580535A664B6AC003D9
:10B5C00043F001034B625CBF2A4B5A664FF0E02206
:10B5D000136923F00403136183E64FF480321B4B9D
:10B5E0002349586E03F580535A664B6A23F00103D2
:10B5F0004B62C1035CBF1F4B5A664FF0E0221369D8
:10B6000043F00403E7E7093C032C8CBF00211A4BED
:10B610000E4A98BF195DD2F8603123F003030B4343
:10B62000C2F860315DE6093C062C8CBF0021134B4B
:10B63000064A98BF195DD2F8003223F007030B4386
:10B64000C2F800324DE600BFE7EE0308008000506C
:10B65000C4EE0308E7EE0308E0EE03080090005094
:10B660000060005A0040005AF1EE0308EBEE0308B8
:10B6700000C0075000A00050E7EE0308E0EE03080A
:10B68000CC1E062C8CBF0021314B324A98BF195D6D
:10B69000D2F8003123F003030B43C2F8003120E657
:10B6A0002D49063CD1F8FC2012F080721EBFD1F863
:10B6B000FC3023F08073C1F8FC30082C8CBF0020D4
:10B6C000264B244998BF185DD1F8803023F003033E
:10B6D0000343C1F88030002A3FF403AE1E4AD2F87B
:10B6E000FC3043F08073C2F8FC30FAE5023C052CD4
:10B6F0008CBF00211A4B174A98BF195DD2F8283128
:10B7000023F007030B43C2F82831EAE5023C0F2C73
:10B710008CBF0021134B0F4A98BF195DD2F86032DD
:10B7200023F007030B43C2F86032DAE5023C0F2C2A
:10B730008CBF00210C4B074A98BF195DD2F8943298
:10B7400023F007030B43C2F89432CAE501249EE6B6
:10B75000D9EE03080080005000ED00E0D0EE0308B1
:10B76000EBEE0308B4EE0308B4EE03080028ABBF09
:10B7700000F16040054B00F5614000F00F00ACBFE8
:10B7800090F80003185C0009704700BF14ED00E05A
:10B79000034B5868C0F30800003818BF01207047F9
:10B7A00000ED00E0054B420953F8223000F01F0085
:10B7B00023FA00F0C04300F00100704700E100E010
:10B7C000014608B5EFF31083DB0702D501221046CE
:10B7D00008BDFFF7E7FF02460028F7D10846FFF74C
:10B7E000C5FF0146EFF3118313B1B0EB131FEDD288
:10B7F000074B5B68C3F30803002BE8D0103B58B23B
:10B80000FFF7B4FF88428CBF00220122DFE700BFB0
:10B8100000ED00E0024A536B0342FCD1704700BFC9
:10B8200000400950044A4178536F23F4407343EABF
:10B8300001235367704700BF004000500A4A10B50B
:10B840001369044643F00403136105F039F925F048
:10B85000E5FA30BF25F0E3FA05F066F91CB9BDE85A
:10B860001040FDF737BE10BD00ED00E0084A10B5EE
:10B870001369044643F00403136105F021F930BF56
:10B8800005F052F91CB9BDE81040FDF723BE10BD0C
:10B8900000ED00E0034A0179D36E23F030030B433F
:10B8A000D366704700400050F8B504461C4BD3F8EF
:10B8B0008420D106FBD4D3F88430C3F381139C4297
:10B8C0002CD0FDF7EDFD012C064602D1214625F0D6
:10B8D00075FA25F093FA4FF00072124B07465A663C
:10B8E000204625F0A1FA4FF480630D4D621E93406F
:10B8F0002B676B6E9A0103D4D5F884309B060AD56A
:10B90000384625F07FFA022C08D13046BDE8F840D1
:10B91000002125F053BAD5F88430EAE7F8BD00BF1E
:10B92000004000500060005010B50C4608B9FDF70B
:10B93000B7FD074B21461B783BB1064B984204D814
:10B940000120BDE81040FFF7AFBF0220F9E700BFBC
:10B950001E680020005A62020278034B0121002079
:10B960001A70FFF7E1BF00BF1E6800204FF00042D1
:10B9700038B5244B244C5A664AF6CD33656C0146E3
:10B9800005F00105236428BB0120FFF743FF63682E
:10B99000DB0715D51D4B586008461D4B226BD2079F
:10B9A0000CD4984208D1072415B1174B194A1A64D0
:10B9B00031F030FA204638BD0130EFE79842F2D03E
:10B9C0000024F1E70132236B13F0080305D08A420B
:10B9D000F8D1E8E700220E49F5E78A42E3D02021BA
:10B9E0000A4A91620121A2F5805251600649084A33
:10B9F000886A800603D49342D5D00133F8E7934296
:10BA0000DDE700BF00900050004009500060095081
:10BA100040420F003254FFFFF8B54AF6E853174C86
:10BA2000E56EE66E236625F0E9F90746FFF728FC88
:10BA3000134A25F00305136F45F0020523F00703B1
:10BA400043F00103136725F0C4F90020FFF78EFFD0
:10BA500046F0030625F0E6F925F0E5F9094BE56621
:10BA6000E666E566E666E566E666E566E666E5667A
:10BA700038469B6ABDE8F84025F0C4B90040005044
:10BA800000800050004009504FF0004238B5164B7E
:10BA900001465A664AF6CD33144C154A656C236448
:10BAA00043780B205B0043F00103D363FFF7B2FE42
:10BAB00063688A7823F4F87343EA02136360CA78F0
:10BAC0004B7943EA0223A3600A798B7943EA022384
:10BAD00023610878FFF74AFFEB0744BF054B236457
